{
  "_format": "hh-sol-artifact-1",
  "contractName": "ApeTokenFactory",
  "sourceName": "contracts/ApeTokenFactory.sol",
  "abi": [
    {
      "inputs": [
        {
          "internalType": "uint256",
          "name": "_underlyingTokenId",
          "type": "uint256"
        },
        {
          "internalType": "uint256",
          "name": "_apeTokenId",
          "type": "uint256"
        },
        {
          "internalType": "address",
          "name": "_apeLendAddress",
          "type": "address"
        },
        {
          "internalType": "address",
          "name": "_to",
          "type": "address"
        }
      ],
      "name": "borrowApeToken",
      "outputs": [],
      "stateMutability": "nonpayable",
      "type": "function"
    }
  ],
  "bytecode": "0x608060405234801561001057600080fd5b50610572806100206000396000f3fe608060405234801561001057600080fd5b506004361061002b5760003560e01c80631c576a7014610030575b600080fd5b61004a60048036038101906100459190610353565b61004c565b005b6001151561005b8585856101ce565b15151461009d576040517f08c379a000000000000000000000000000000000000000000000000000000000815260040161009490610432565b60405180910390fd5b60006001600085815260200190815260200160002060006101000a81548160ff021916908315150217905550600080600086815260200190815260200160002060009054906101000a900473ffffffffffffffffffffffffffffffffffffffff1690506000819050336002600087815260200190815260200160002060006101000a81548173ffffffffffffffffffffffffffffffffffffffff021916908373ffffffffffffffffffffffffffffffffffffffff1602179055508073ffffffffffffffffffffffffffffffffffffffff166342842e0e8585886040518463ffffffff1660e01b8152600401610194939291906103fb565b600060405180830381600087803b1580156101ae57600080fd5b505af11580156101c2573d6000803e3d6000fd5b50505050505050505050565b60008060008086815260200190815260200160002060009054906101000a900473ffffffffffffffffffffffffffffffffffffffff169050600081905060008173ffffffffffffffffffffffffffffffffffffffff1663025e7c27876040518263ffffffff1660e01b81526004016102469190610452565b60206040518083038186803b15801561025e57600080fd5b505afa158015610272573d6000803e3d6000fd5b505050506040513d601f19601f820116820180604052508101906102969190610326565b90508473ffffffffffffffffffffffffffffffffffffffff168173ffffffffffffffffffffffffffffffffffffffff1614156102d857600193505050506102e0565b600093505050505b9392505050565b6000813590506102f68161050e565b92915050565b60008151905061030b8161050e565b92915050565b60008135905061032081610525565b92915050565b60006020828403121561033c5761033b6104ba565b5b600061034a848285016102fc565b91505092915050565b6000806000806080858703121561036d5761036c6104ba565b5b600061037b87828801610311565b945050602061038c87828801610311565b935050604061039d878288016102e7565b92505060606103ae878288016102e7565b91505092959194509250565b6103c38161047e565b82525050565b60006103d660368361046d565b91506103e1826104bf565b604082019050919050565b6103f5816104b0565b82525050565b600060608201905061041060008301866103ba565b61041d60208301856103ba565b61042a60408301846103ec565b949350505050565b6000602082019050818103600083015261044b816103c9565b9050919050565b600060208201905061046760008301846103ec565b92915050565b600082825260208201905092915050565b600061048982610490565b9050919050565b600073ffffffffffffffffffffffffffffffffffffffff82169050919050565b6000819050919050565b600080fd5b7f417065546f6b656e466163746f72793a205468697320746f6b656e206973206e60008201527f6f7420617661696c61626c6520746f20626f72726f7700000000000000000000602082015250565b6105178161047e565b811461052257600080fd5b50565b61052e816104b0565b811461053957600080fd5b5056fea264697066735822122098ae3c7f7cdca40a027b8eefdbb12489f088ecc1c42fbb9a2942ea39be2721d164736f6c63430008060033",
  "linkReferences": {},
  "deployedLinkReferences": {}
}