{
  "_format": "hh-sol-artifact-1",
  "contractName": "ApeTokenFactory",
  "sourceName": "contracts/ApeTokenFactory.sol",
  "abi": [
    {
      "inputs": [
        {
          "internalType": "uint256",
          "name": "_underlyingTokenId",
          "type": "uint256"
        },
        {
          "internalType": "uint256",
          "name": "_apeTokenId",
          "type": "uint256"
        },
        {
          "internalType": "address",
          "name": "_apeLendAddress",
          "type": "address"
        },
        {
          "internalType": "address",
          "name": "_to",
          "type": "address"
        }
      ],
      "name": "borrowApeToken",
      "outputs": [],
      "stateMutability": "nonpayable",
      "type": "function"
    },
    {
      "inputs": [
        {
          "internalType": "uint256",
          "name": "_underlyingTokenId",
          "type": "uint256"
        }
      ],
      "name": "burnApeToken",
      "outputs": [],
      "stateMutability": "nonpayable",
      "type": "function"
    }
  ],
  "bytecode": "0x608060405234801561001057600080fd5b5061092c806100206000396000f3fe608060405234801561001057600080fd5b50600436106100365760003560e01c80631c576a701461003b5780637b05d58814610057575b600080fd5b6100556004803603810190610050919061052d565b610073565b005b610071600480360381019061006c9190610500565b6101ff565b005b6001151561008285858561037b565b1515146100c4576040517f08c379a00000000000000000000000000000000000000000000000000000000081526004016100bb9061064f565b60405180910390fd5b6004600085815260200190815260200160002054426100e3919061069b565b6004600086815260200190815260200160002081905550600080600086815260200190815260200160002060009054906101000a900473ffffffffffffffffffffffffffffffffffffffff1690506000819050336003600087815260200190815260200160002060006101000a81548173ffffffffffffffffffffffffffffffffffffffff021916908373ffffffffffffffffffffffffffffffffffffffff1602179055508073ffffffffffffffffffffffffffffffffffffffff166342842e0e8585886040518463ffffffff1660e01b81526004016101c5939291906105f8565b600060405180830381600087803b1580156101df57600080fd5b505af11580156101f3573d6000803e3d6000fd5b50505050505050505050565b60046000828152602001908152602001600020544211610254576040517f08c379a000000000000000000000000000000000000000000000000000000000815260040161024b9061062f565b60405180910390fd5b600080600083815260200190815260200160002060009054906101000a900473ffffffffffffffffffffffffffffffffffffffff16905060008190506000600560008581526020019081526020016000205490506000600560008681526020019081526020016000208190555060005b818110156103745760006001826102db919061069b565b6103e8876102e991906106f1565b6102f3919061069b565b90508373ffffffffffffffffffffffffffffffffffffffff16639b1f9e74826040518263ffffffff1660e01b815260040161032e919061066f565b600060405180830381600087803b15801561034857600080fd5b505af115801561035c573d6000803e3d6000fd5b5050505050808061036c90610787565b9150506102c4565b5050505050565b60008060008086815260200190815260200160002060009054906101000a900473ffffffffffffffffffffffffffffffffffffffff169050600081905060008173ffffffffffffffffffffffffffffffffffffffff16636352211e876040518263ffffffff1660e01b81526004016103f3919061066f565b60206040518083038186803b15801561040b57600080fd5b505afa15801561041f573d6000803e3d6000fd5b505050506040513d601f19601f8201168201806040525081019061044391906104d3565b90508473ffffffffffffffffffffffffffffffffffffffff168173ffffffffffffffffffffffffffffffffffffffff161415610485576001935050505061048d565b600093505050505b9392505050565b6000813590506104a3816108c8565b92915050565b6000815190506104b8816108c8565b92915050565b6000813590506104cd816108df565b92915050565b6000602082840312156104e9576104e86107ff565b5b60006104f7848285016104a9565b91505092915050565b600060208284031215610516576105156107ff565b5b6000610524848285016104be565b91505092915050565b60008060008060808587031215610547576105466107ff565b5b6000610555878288016104be565b9450506020610566878288016104be565b935050604061057787828801610494565b925050606061058887828801610494565b91505092959194509250565b61059d8161074b565b82525050565b60006105b060468361068a565b91506105bb82610804565b606082019050919050565b60006105d360368361068a565b91506105de82610879565b604082019050919050565b6105f28161077d565b82525050565b600060608201905061060d6000830186610594565b61061a6020830185610594565b61062760408301846105e9565b949350505050565b60006020820190508181036000830152610648816105a3565b9050919050565b60006020820190508181036000830152610668816105c6565b9050919050565b600060208201905061068460008301846105e9565b92915050565b600082825260208201905092915050565b60006106a68261077d565b91506106b18361077d565b9250827fffffffffffffffffffffffffffffffffffffffffffffffffffffffffffffffff038211156106e6576106e56107d0565b5b828201905092915050565b60006106fc8261077d565b91506107078361077d565b9250817fffffffffffffffffffffffffffffffffffffffffffffffffffffffffffffffff04831182151516156107405761073f6107d0565b5b828202905092915050565b60006107568261075d565b9050919050565b600073ffffffffffffffffffffffffffffffffffffffff82169050919050565b6000819050919050565b60006107928261077d565b91507fffffffffffffffffffffffffffffffffffffffffffffffffffffffffffffffff8214156107c5576107c46107d0565b5b600182019050919050565b7f4e487b7100000000000000000000000000000000000000000000000000000000600052601160045260246000fd5b600080fd5b7f417065546f6b656e466163746f72793a20436f72726573706f6e64696e67204160008201527f7065546f6b656e732063616e6e6f74206265206275726e65642061742074686960208201527f732074696d650000000000000000000000000000000000000000000000000000604082015250565b7f417065546f6b656e466163746f72793a205468697320746f6b656e206973206e60008201527f6f7420617661696c61626c6520746f20626f72726f7700000000000000000000602082015250565b6108d18161074b565b81146108dc57600080fd5b50565b6108e88161077d565b81146108f357600080fd5b5056fea2646970667358221220e2ae011cf245d7e5618e887a399a93e312bd942e7156f47367c70a80929b5d3264736f6c63430008060033",
  "linkReferences": {},
  "deployedLinkReferences": {}
}