{
  "_format": "hh-sol-artifact-1",
  "contractName": "ApeTokenFactory",
  "sourceName": "contracts/ApeTokenFactory.sol",
  "abi": [
    {
      "inputs": [
        {
          "internalType": "uint256",
          "name": "_underlyingTokenId",
          "type": "uint256"
        },
        {
          "internalType": "uint256",
          "name": "_apeTokenId",
          "type": "uint256"
        },
        {
          "internalType": "address",
          "name": "_apeLendAddress",
          "type": "address"
        },
        {
          "internalType": "address",
          "name": "_to",
          "type": "address"
        }
      ],
      "name": "borrowApeToken",
      "outputs": [],
      "stateMutability": "nonpayable",
      "type": "function"
    },
    {
      "inputs": [
        {
          "internalType": "uint256",
          "name": "_underlyingTokenId",
          "type": "uint256"
        }
      ],
      "name": "burnApeToken",
      "outputs": [],
      "stateMutability": "nonpayable",
      "type": "function"
    }
  ],
  "bytecode": "0x608060405234801561001057600080fd5b50610925806100206000396000f3fe608060405234801561001057600080fd5b50600436106100365760003560e01c80631c576a701461003b5780637b05d58814610057575b600080fd5b61005560048036038101906100509190610526565b610073565b005b610071600480360381019061006c91906104f9565b610209565b005b60011515610082858585610374565b1515146100c4576040517f08c379a00000000000000000000000000000000000000000000000000000000081526004016100bb90610648565b60405180910390fd5b60006001600085815260200190815260200160002060006101000a81548160ff021916908315150217905550600354426100fe9190610694565b600381905550600080600086815260200190815260200160002060009054906101000a900473ffffffffffffffffffffffffffffffffffffffff1690506000819050336002600087815260200190815260200160002060006101000a81548173ffffffffffffffffffffffffffffffffffffffff021916908373ffffffffffffffffffffffffffffffffffffffff1602179055508073ffffffffffffffffffffffffffffffffffffffff166342842e0e8585886040518463ffffffff1660e01b81526004016101cf939291906105f1565b600060405180830381600087803b1580156101e957600080fd5b505af11580156101fd573d6000803e3d6000fd5b50505050505050505050565b600354421161024d576040517f08c379a000000000000000000000000000000000000000000000000000000000815260040161024490610628565b60405180910390fd5b600080600083815260200190815260200160002060009054906101000a900473ffffffffffffffffffffffffffffffffffffffff16905060008190506000600460008581526020019081526020016000205490506000600460008681526020019081526020016000208190555060005b8181101561036d5760006001826102d49190610694565b6103e8876102e291906106ea565b6102ec9190610694565b90508373ffffffffffffffffffffffffffffffffffffffff16639b1f9e74826040518263ffffffff1660e01b81526004016103279190610668565b600060405180830381600087803b15801561034157600080fd5b505af1158015610355573d6000803e3d6000fd5b5050505050808061036590610780565b9150506102bd565b5050505050565b60008060008086815260200190815260200160002060009054906101000a900473ffffffffffffffffffffffffffffffffffffffff169050600081905060008173ffffffffffffffffffffffffffffffffffffffff1663025e7c27876040518263ffffffff1660e01b81526004016103ec9190610668565b60206040518083038186803b15801561040457600080fd5b505afa158015610418573d6000803e3d6000fd5b505050506040513d601f19601f8201168201806040525081019061043c91906104cc565b90508473ffffffffffffffffffffffffffffffffffffffff168173ffffffffffffffffffffffffffffffffffffffff16141561047e5760019350505050610486565b600093505050505b9392505050565b60008135905061049c816108c1565b92915050565b6000815190506104b1816108c1565b92915050565b6000813590506104c6816108d8565b92915050565b6000602082840312156104e2576104e16107f8565b5b60006104f0848285016104a2565b91505092915050565b60006020828403121561050f5761050e6107f8565b5b600061051d848285016104b7565b91505092915050565b600080600080608085870312156105405761053f6107f8565b5b600061054e878288016104b7565b945050602061055f878288016104b7565b93505060406105708782880161048d565b92505060606105818782880161048d565b91505092959194509250565b61059681610744565b82525050565b60006105a9604683610683565b91506105b4826107fd565b606082019050919050565b60006105cc603683610683565b91506105d782610872565b604082019050919050565b6105eb81610776565b82525050565b6000606082019050610606600083018661058d565b610613602083018561058d565b61062060408301846105e2565b949350505050565b600060208201905081810360008301526106418161059c565b9050919050565b60006020820190508181036000830152610661816105bf565b9050919050565b600060208201905061067d60008301846105e2565b92915050565b600082825260208201905092915050565b600061069f82610776565b91506106aa83610776565b9250827fffffffffffffffffffffffffffffffffffffffffffffffffffffffffffffffff038211156106df576106de6107c9565b5b828201905092915050565b60006106f582610776565b915061070083610776565b9250817fffffffffffffffffffffffffffffffffffffffffffffffffffffffffffffffff0483118215151615610739576107386107c9565b5b828202905092915050565b600061074f82610756565b9050919050565b600073ffffffffffffffffffffffffffffffffffffffff82169050919050565b6000819050919050565b600061078b82610776565b91507fffffffffffffffffffffffffffffffffffffffffffffffffffffffffffffffff8214156107be576107bd6107c9565b5b600182019050919050565b7f4e487b7100000000000000000000000000000000000000000000000000000000600052601160045260246000fd5b600080fd5b7f417065546f6b656e466163746f72793a20436f72726573706f6e64696e67204160008201527f7065546f6b656e732063616e6e6f74206265206275726e65642061742074686960208201527f732074696d650000000000000000000000000000000000000000000000000000604082015250565b7f417065546f6b656e466163746f72793a205468697320746f6b656e206973206e60008201527f6f7420617661696c61626c6520746f20626f72726f7700000000000000000000602082015250565b6108ca81610744565b81146108d557600080fd5b50565b6108e181610776565b81146108ec57600080fd5b5056fea26469706673582212203d6b547f07da364930905be718f7585ea2b6a1963b0970e1b91b107ece30f54964736f6c63430008060033",
  "linkReferences": {},
  "deployedLinkReferences": {}
}