{
  "_format": "hh-sol-artifact-1",
  "contractName": "ApeLend",
  "sourceName": "contracts/ApeLend.sol",
  "abi": [
    {
      "inputs": [],
      "stateMutability": "nonpayable",
      "type": "constructor"
    },
    {
      "anonymous": false,
      "inputs": [
        {
          "indexed": true,
          "internalType": "address",
          "name": "owner",
          "type": "address"
        },
        {
          "indexed": true,
          "internalType": "address",
          "name": "approved",
          "type": "address"
        },
        {
          "indexed": true,
          "internalType": "uint256",
          "name": "tokenId",
          "type": "uint256"
        }
      ],
      "name": "Approval",
      "type": "event"
    },
    {
      "anonymous": false,
      "inputs": [
        {
          "indexed": true,
          "internalType": "address",
          "name": "owner",
          "type": "address"
        },
        {
          "indexed": true,
          "internalType": "address",
          "name": "operator",
          "type": "address"
        },
        {
          "indexed": false,
          "internalType": "bool",
          "name": "approved",
          "type": "bool"
        }
      ],
      "name": "ApprovalForAll",
      "type": "event"
    },
    {
      "anonymous": false,
      "inputs": [
        {
          "indexed": true,
          "internalType": "address",
          "name": "from",
          "type": "address"
        },
        {
          "indexed": true,
          "internalType": "address",
          "name": "to",
          "type": "address"
        },
        {
          "indexed": true,
          "internalType": "uint256",
          "name": "tokenId",
          "type": "uint256"
        }
      ],
      "name": "Transfer",
      "type": "event"
    },
    {
      "inputs": [
        {
          "internalType": "uint256",
          "name": "_tokenId",
          "type": "uint256"
        }
      ],
      "name": "apeTokenTotalSupply",
      "outputs": [
        {
          "internalType": "uint256",
          "name": "_apeTokenTotalSupply",
          "type": "uint256"
        }
      ],
      "stateMutability": "view",
      "type": "function"
    },
    {
      "inputs": [
        {
          "internalType": "address",
          "name": "to",
          "type": "address"
        },
        {
          "internalType": "uint256",
          "name": "tokenId",
          "type": "uint256"
        }
      ],
      "name": "approve",
      "outputs": [],
      "stateMutability": "nonpayable",
      "type": "function"
    },
    {
      "inputs": [
        {
          "internalType": "address",
          "name": "_tokenAddress",
          "type": "address"
        },
        {
          "internalType": "uint256",
          "name": "_tokenId",
          "type": "uint256"
        }
      ],
      "name": "approveApeLend",
      "outputs": [],
      "stateMutability": "nonpayable",
      "type": "function"
    },
    {
      "inputs": [
        {
          "internalType": "address",
          "name": "_owner",
          "type": "address"
        }
      ],
      "name": "balanceOf",
      "outputs": [
        {
          "internalType": "uint256",
          "name": "",
          "type": "uint256"
        }
      ],
      "stateMutability": "view",
      "type": "function"
    },
    {
      "inputs": [
        {
          "internalType": "uint256",
          "name": "_underlyingTokenId",
          "type": "uint256"
        },
        {
          "internalType": "uint256",
          "name": "_apeTokenId",
          "type": "uint256"
        },
        {
          "internalType": "address",
          "name": "_apeLendAddress",
          "type": "address"
        },
        {
          "internalType": "address",
          "name": "_to",
          "type": "address"
        }
      ],
      "name": "borrowApeToken",
      "outputs": [],
      "stateMutability": "nonpayable",
      "type": "function"
    },
    {
      "inputs": [
        {
          "internalType": "uint256",
          "name": "_underlyingTokenId",
          "type": "uint256"
        },
        {
          "internalType": "uint256",
          "name": "_borrowingApeTokenId",
          "type": "uint256"
        }
      ],
      "name": "borrowToken",
      "outputs": [],
      "stateMutability": "payable",
      "type": "function"
    },
    {
      "inputs": [
        {
          "internalType": "uint256",
          "name": "_underlyingTokenId",
          "type": "uint256"
        }
      ],
      "name": "burnApeToken",
      "outputs": [],
      "stateMutability": "nonpayable",
      "type": "function"
    },
    {
      "inputs": [
        {
          "internalType": "uint256",
          "name": "tokenId",
          "type": "uint256"
        }
      ],
      "name": "getApproved",
      "outputs": [
        {
          "internalType": "address",
          "name": "",
          "type": "address"
        }
      ],
      "stateMutability": "view",
      "type": "function"
    },
    {
      "inputs": [
        {
          "internalType": "address",
          "name": "owner",
          "type": "address"
        },
        {
          "internalType": "address",
          "name": "operator",
          "type": "address"
        }
      ],
      "name": "isApprovedForAll",
      "outputs": [
        {
          "internalType": "bool",
          "name": "",
          "type": "bool"
        }
      ],
      "stateMutability": "view",
      "type": "function"
    },
    {
      "inputs": [
        {
          "internalType": "address",
          "name": "_tokenAddress",
          "type": "address"
        },
        {
          "internalType": "uint256",
          "name": "_tokenId",
          "type": "uint256"
        },
        {
          "internalType": "uint256",
          "name": "_apeTokenAmount",
          "type": "uint256"
        },
        {
          "internalType": "uint256",
          "name": "_apeTokenReturnWindow",
          "type": "uint256"
        }
      ],
      "name": "lendToken",
      "outputs": [],
      "stateMutability": "nonpayable",
      "type": "function"
    },
    {
      "inputs": [],
      "name": "name",
      "outputs": [
        {
          "internalType": "string",
          "name": "",
          "type": "string"
        }
      ],
      "stateMutability": "view",
      "type": "function"
    },
    {
      "inputs": [
        {
          "internalType": "address",
          "name": "",
          "type": "address"
        },
        {
          "internalType": "address",
          "name": "",
          "type": "address"
        },
        {
          "internalType": "uint256",
          "name": "",
          "type": "uint256"
        },
        {
          "internalType": "bytes",
          "name": "",
          "type": "bytes"
        }
      ],
      "name": "onERC721Received",
      "outputs": [
        {
          "internalType": "bytes4",
          "name": "",
          "type": "bytes4"
        }
      ],
      "stateMutability": "nonpayable",
      "type": "function"
    },
    {
      "inputs": [
        {
          "internalType": "address",
          "name": "operator",
          "type": "address"
        },
        {
          "internalType": "address",
          "name": "from",
          "type": "address"
        },
        {
          "internalType": "uint256",
          "name": "tokenId",
          "type": "uint256"
        },
        {
          "internalType": "bytes",
          "name": "data",
          "type": "bytes"
        }
      ],
      "name": "onERC721ReceivedToProtocol",
      "outputs": [
        {
          "internalType": "bytes4",
          "name": "",
          "type": "bytes4"
        }
      ],
      "stateMutability": "nonpayable",
      "type": "function"
    },
    {
      "inputs": [
        {
          "internalType": "uint256",
          "name": "tokenId",
          "type": "uint256"
        }
      ],
      "name": "ownerOf",
      "outputs": [
        {
          "internalType": "address",
          "name": "",
          "type": "address"
        }
      ],
      "stateMutability": "view",
      "type": "function"
    },
    {
      "inputs": [
        {
          "internalType": "uint256",
          "name": "_tokenId",
          "type": "uint256"
        },
        {
          "internalType": "uint256",
          "name": "_apeTokenId",
          "type": "uint256"
        }
      ],
      "name": "ownerOfApeToken",
      "outputs": [
        {
          "internalType": "address",
          "name": "_apeTokenOwner",
          "type": "address"
        }
      ],
      "stateMutability": "view",
      "type": "function"
    },
    {
      "inputs": [
        {
          "internalType": "address",
          "name": "_tokenAddress",
          "type": "address"
        },
        {
          "internalType": "uint256",
          "name": "_tokenId",
          "type": "uint256"
        }
      ],
      "name": "pullToken",
      "outputs": [],
      "stateMutability": "nonpayable",
      "type": "function"
    },
    {
      "inputs": [
        {
          "internalType": "address",
          "name": "from",
          "type": "address"
        },
        {
          "internalType": "address",
          "name": "to",
          "type": "address"
        },
        {
          "internalType": "uint256",
          "name": "tokenId",
          "type": "uint256"
        }
      ],
      "name": "safeTransferFrom",
      "outputs": [],
      "stateMutability": "nonpayable",
      "type": "function"
    },
    {
      "inputs": [
        {
          "internalType": "address",
          "name": "from",
          "type": "address"
        },
        {
          "internalType": "address",
          "name": "to",
          "type": "address"
        },
        {
          "internalType": "uint256",
          "name": "tokenId",
          "type": "uint256"
        },
        {
          "internalType": "bytes",
          "name": "_data",
          "type": "bytes"
        }
      ],
      "name": "safeTransferFrom",
      "outputs": [],
      "stateMutability": "nonpayable",
      "type": "function"
    },
    {
      "inputs": [
        {
          "internalType": "address",
          "name": "operator",
          "type": "address"
        },
        {
          "internalType": "bool",
          "name": "approved",
          "type": "bool"
        }
      ],
      "name": "setApprovalForAll",
      "outputs": [],
      "stateMutability": "nonpayable",
      "type": "function"
    },
    {
      "inputs": [
        {
          "internalType": "bytes4",
          "name": "interfaceId",
          "type": "bytes4"
        }
      ],
      "name": "supportsInterface",
      "outputs": [
        {
          "internalType": "bool",
          "name": "",
          "type": "bool"
        }
      ],
      "stateMutability": "view",
      "type": "function"
    },
    {
      "inputs": [],
      "name": "symbol",
      "outputs": [
        {
          "internalType": "string",
          "name": "",
          "type": "string"
        }
      ],
      "stateMutability": "view",
      "type": "function"
    },
    {
      "inputs": [
        {
          "internalType": "uint256",
          "name": "tokenId",
          "type": "uint256"
        }
      ],
      "name": "tokenURI",
      "outputs": [
        {
          "internalType": "string",
          "name": "",
          "type": "string"
        }
      ],
      "stateMutability": "view",
      "type": "function"
    },
    {
      "inputs": [
        {
          "internalType": "address",
          "name": "from",
          "type": "address"
        },
        {
          "internalType": "address",
          "name": "to",
          "type": "address"
        },
        {
          "internalType": "uint256",
          "name": "tokenId",
          "type": "uint256"
        }
      ],
      "name": "transferFrom",
      "outputs": [],
      "stateMutability": "nonpayable",
      "type": "function"
    },
    {
      "stateMutability": "payable",
      "type": "receive"
    }
  ],
  "bytecode": "0x60806040523480156200001157600080fd5b506040518060400160405280600781526020017f4170654c656e64000000000000000000000000000000000000000000000000008152506040518060400160405280600381526020017f4150450000000000000000000000000000000000000000000000000000000000815250816000908051906020019062000096929190620000f9565b508060019080519060200190620000af929190620000f9565b50505033600c60006101000a81548173ffffffffffffffffffffffffffffffffffffffff021916908373ffffffffffffffffffffffffffffffffffffffff1602179055506200020e565b8280546200010790620001a9565b90600052602060002090601f0160209004810192826200012b576000855562000177565b82601f106200014657805160ff191683800117855562000177565b8280016001018555821562000177579182015b828111156200017657825182559160200191906001019062000159565b5b5090506200018691906200018a565b5090565b5b80821115620001a55760008160009055506001016200018b565b5090565b60006002820490506001821680620001c257607f821691505b60208210811415620001d957620001d8620001df565b5b50919050565b7f4e487b7100000000000000000000000000000000000000000000000000000000600052602260045260246000fd5b61507f806200021e6000396000f3fe608060405260043610620001635760003560e01c80634effdda011620000c75780638d96156b11620000795780638d96156b146200052257806395d89b411462000550578063a22cb4651462000580578063b88d4fde14620005ae578063c87b56dd14620005dc578063e985e9c51462000620576200016b565b80634effdda014620003b65780635306e4b314620003fa5780636352211e14620004285780636b0e2f10146200046c57806370a0823114620004b05780637b05d58814620004f4576200016b565b80630ff225c411620001215780630ff225c41462000276578063150b7a0214620002a45780631c576a7014620002e857806323b872dd146200031657806337c51b18146200034457806342842e0e1462000388576200016b565b806301ffc9a7146200017057806306fdde0314620001b4578063081812fc14620001e457806308ec59271462000228578063095ea7b31462000248576200016b565b366200016b57005b600080fd5b3480156200017d57600080fd5b506200019c600480360381019062000196919062002889565b62000664565b604051620001ab919062002e6f565b60405180910390f35b348015620001c157600080fd5b50620001cc6200074a565b604051620001db919062002ea9565b60405180910390f35b348015620001f157600080fd5b506200021060048036038101906200020a9190620028ed565b620007e4565b6040516200021f919062002d94565b60405180910390f35b6200024660048036038101906200024091906200291f565b6200086e565b005b3480156200025557600080fd5b506200027460048036038101906200026e9190620027d0565b62000922565b005b3480156200028357600080fd5b50620002a260048036038101906200029c9190620027d0565b62000a4b565b005b348015620002b157600080fd5b50620002d06004803603810190620002ca9190620026f8565b62000b23565b604051620002df919062002e8c565b60405180910390f35b348015620002f557600080fd5b506200031460048036038101906200030e919062002966565b62000b37565b005b3480156200032357600080fd5b506200034260048036038101906200033c91906200269c565b62000cd9565b005b3480156200035157600080fd5b506200037060048036038101906200036a91906200291f565b62000d42565b6040516200037f919062002d94565b60405180910390f35b3480156200039557600080fd5b50620003b46004803603810190620003ae91906200269c565b62000d58565b005b348015620003c357600080fd5b50620003e26004803603810190620003dc9190620026f8565b62000d7a565b604051620003f1919062002e8c565b60405180910390f35b3480156200040757600080fd5b50620004266004803603810190620004209190620027d0565b62000d94565b005b3480156200043557600080fd5b506200045460048036038101906200044e9190620028ed565b62000ea5565b60405162000463919062002d94565b60405180910390f35b3480156200047957600080fd5b50620004986004803603810190620004929190620028ed565b62000f5a565b604051620004a791906200310f565b60405180910390f35b348015620004bd57600080fd5b50620004dc6004803603810190620004d69190620025f1565b62000f6e565b604051620004eb91906200310f565b60405180910390f35b3480156200050157600080fd5b506200052060048036038101906200051a9190620028ed565b62000f82565b005b3480156200052f57600080fd5b506200054e600480360381019062000548919062002817565b620010ff565b005b3480156200055d57600080fd5b5062000568620013b2565b60405162000577919062002ea9565b60405180910390f35b3480156200058d57600080fd5b50620005ac6004803603810190620005a6919062002789565b6200144c565b005b348015620005bb57600080fd5b50620005da6004803603810190620005d49190620026f8565b620015d8565b005b348015620005e957600080fd5b50620006086004803603810190620006029190620028ed565b62001643565b60405162000617919062002ea9565b60405180910390f35b3480156200062d57600080fd5b506200064c600480360381019062000646919062002655565b620016f7565b6040516200065b919062002e6f565b60405180910390f35b60007f80ac58cd000000000000000000000000000000000000000000000000000000007bffffffffffffffffffffffffffffffffffffffffffffffffffffffff1916827bffffffffffffffffffffffffffffffffffffffffffffffffffffffff191614806200073057507f5b5e139f000000000000000000000000000000000000000000000000000000007bffffffffffffffffffffffffffffffffffffffffffffffffffffffff1916827bffffffffffffffffffffffffffffffffffffffffffffffffffffffff1916145b8062000743575062000742826200178b565b5b9050919050565b6060600080546200075b90620033ba565b80601f01602080910402602001604051908101604052809291908181526020018280546200078990620033ba565b8015620007da5780601f10620007ae57610100808354040283529160200191620007da565b820191906000526020600020905b815481529060010190602001808311620007bc57829003601f168201915b5050505050905090565b6000620007f182620017f5565b62000833576040517f08c379a00000000000000000000000000000000000000000000000000000000081526004016200082a9062003021565b60405180910390fd5b6004600083815260200190815260200160002060009054906101000a900473ffffffffffffffffffffffffffffffffffffffff169050919050565b6000309050600033905060011515600e60003373ffffffffffffffffffffffffffffffffffffffff1673ffffffffffffffffffffffffffffffffffffffff16815260200190815260200160002060009054906101000a900460ff161515146200090e576040517f08c379a0000000000000000000000000000000000000000000000000000000008152600401620009059062002fff565b60405180910390fd5b6200091c8484848462000b37565b50505050565b60006200092f8262000ea5565b90508073ffffffffffffffffffffffffffffffffffffffff168373ffffffffffffffffffffffffffffffffffffffff161415620009a3576040517f08c379a00000000000000000000000000000000000000000000000000000000081526004016200099a90620030a9565b60405180910390fd5b8073ffffffffffffffffffffffffffffffffffffffff16620009c462001861565b73ffffffffffffffffffffffffffffffffffffffff161480620009f85750620009f781620009f162001861565b620016f7565b5b62000a3a576040517f08c379a000000000000000000000000000000000000000000000000000000000815260040162000a319062002f77565b60405180910390fd5b62000a46838362001869565b505050565b81600b60006101000a81548173ffffffffffffffffffffffffffffffffffffffff021916908373ffffffffffffffffffffffffffffffffffffffff160217905550600b60009054906101000a900473ffffffffffffffffffffffffffffffffffffffff1673ffffffffffffffffffffffffffffffffffffffff1663095ea7b330836040518363ffffffff1660e01b815260040162000aeb92919062002e42565b600060405180830381600087803b15801562000b0657600080fd5b505af115801562000b1b573d6000803e3d6000fd5b505050505050565b600063150b7a0260e01b9050949350505050565b6001151562000b4885858562001924565b15151462000b8d576040517f08c379a000000000000000000000000000000000000000000000000000000000815260040162000b849062002fbb565b60405180910390fd5b60006007600085815260200190815260200160002060006101000a81548160ff0219169083151502179055506009544262000bc99190620031ce565b60098190555060006006600086815260200190815260200160002060009054906101000a900473ffffffffffffffffffffffffffffffffffffffff1690506000819050336008600087815260200190815260200160002060006101000a81548173ffffffffffffffffffffffffffffffffffffffff021916908373ffffffffffffffffffffffffffffffffffffffff1602179055508073ffffffffffffffffffffffffffffffffffffffff166342842e0e8585886040518463ffffffff1660e01b815260040162000c9d9392919062002db1565b600060405180830381600087803b15801562000cb857600080fd5b505af115801562000ccd573d6000803e3d6000fd5b50505050505050505050565b62000cee62000ce762001861565b8262001a46565b62000d30576040517f08c379a000000000000000000000000000000000000000000000000000000000815260040162000d2790620030cb565b60405180910390fd5b62000d3d83838362001b31565b505050565b600062000d50838362001d9d565b905092915050565b62000d7583838360405180602001604052806000815250620015d8565b505050565b600062000d8a8585858562000b23565b9050949350505050565b81600b60006101000a81548173ffffffffffffffffffffffffffffffffffffffff021916908373ffffffffffffffffffffffffffffffffffffffff1602179055506000600d600083815260200190815260200160002060006101000a81548160ff02191690831515021790555062000e0c8162000f82565b600b60009054906101000a900473ffffffffffffffffffffffffffffffffffffffff1673ffffffffffffffffffffffffffffffffffffffff166323b872dd3033846040518463ffffffff1660e01b815260040162000e6d9392919062002db1565b600060405180830381600087803b15801562000e8857600080fd5b505af115801562000e9d573d6000803e3d6000fd5b505050505050565b6000806002600084815260200190815260200160002060009054906101000a900473ffffffffffffffffffffffffffffffffffffffff169050600073ffffffffffffffffffffffffffffffffffffffff168173ffffffffffffffffffffffffffffffffffffffff16141562000f51576040517f08c379a000000000000000000000000000000000000000000000000000000000815260040162000f489062002fdd565b60405180910390fd5b80915050919050565b600062000f678262001e69565b9050919050565b600062000f7b8262001e86565b9050919050565b600954421162000fc9576040517f08c379a000000000000000000000000000000000000000000000000000000000815260040162000fc09062002eef565b60405180910390fd5b60006006600083815260200190815260200160002060009054906101000a900473ffffffffffffffffffffffffffffffffffffffff16905060008190506000600a60008581526020019081526020016000205490506000600a60008681526020019081526020016000208190555060005b81811015620010f8576000600182620010549190620031ce565b6103e88762001064919062003263565b620010709190620031ce565b90508373ffffffffffffffffffffffffffffffffffffffff16639b1f9e74826040518263ffffffff1660e01b8152600401620010ad91906200310f565b600060405180830381600087803b158015620010c857600080fd5b505af1158015620010dd573d6000803e3d6000fd5b50505050508080620010ef9062003426565b9150506200103a565b5050505050565b83600b60006101000a81548173ffffffffffffffffffffffffffffffffffffffff021916908373ffffffffffffffffffffffffffffffffffffffff160217905550600b60009054906101000a900473ffffffffffffffffffffffffffffffffffffffff1673ffffffffffffffffffffffffffffffffffffffff16636352211e846040518263ffffffff1660e01b81526004016200119d91906200310f565b60206040518083038186803b158015620011b657600080fd5b505afa158015620011cb573d6000803e3d6000fd5b505050506040513d601f19601f82011682018060405250810190620011f1919062002623565b73ffffffffffffffffffffffffffffffffffffffff163373ffffffffffffffffffffffffffffffffffffffff161462001261576040517f08c379a00000000000000000000000000000000000000000000000000000000081526004016200125890620030ed565b60405180910390fd5b6001600d600085815260200190815260200160002060006101000a81548160ff021916908315150217905550620012aa3033856040518060200160405280600081525062000d7a565b5060003090506001600e60003373ffffffffffffffffffffffffffffffffffffffff1673ffffffffffffffffffffffffffffffffffffffff16815260200190815260200160002060006101000a81548160ff021916908315150217905550600b60009054906101000a900473ffffffffffffffffffffffffffffffffffffffff1673ffffffffffffffffffffffffffffffffffffffff166342842e0e3330876040518463ffffffff1660e01b8152600401620013699392919062002db1565b600060405180830381600087803b1580156200138457600080fd5b505af115801562001399573d6000803e3d6000fd5b50505050620013ab8482858562001f41565b5050505050565b606060018054620013c390620033ba565b80601f0160208091040260200160405190810160405280929190818152602001828054620013f190620033ba565b8015620014425780601f10620014165761010080835404028352916020019162001442565b820191906000526020600020905b8154815290600101906020018083116200142457829003601f168201915b5050505050905090565b6200145662001861565b73ffffffffffffffffffffffffffffffffffffffff168273ffffffffffffffffffffffffffffffffffffffff161415620014c7576040517f08c379a0000000000000000000000000000000000000000000000000000000008152600401620014be9062002f33565b60405180910390fd5b8060056000620014d662001861565b73ffffffffffffffffffffffffffffffffffffffff1673ffffffffffffffffffffffffffffffffffffffff16815260200190815260200160002060008473ffffffffffffffffffffffffffffffffffffffff1673ffffffffffffffffffffffffffffffffffffffff16815260200190815260200160002060006101000a81548160ff0219169083151502179055508173ffffffffffffffffffffffffffffffffffffffff166200158562001861565b73ffffffffffffffffffffffffffffffffffffffff167f17307eab39ab6107e8899845ad3d59bd9653f200f220920489ca2b5937696c3183604051620015cc919062002e6f565b60405180910390a35050565b620015ed620015e662001861565b8362001a46565b6200162f576040517f08c379a00000000000000000000000000000000000000000000000000000000081526004016200162690620030cb565b60405180910390fd5b6200163d8484848462002126565b50505050565b60606200165082620017f5565b62001692576040517f08c379a0000000000000000000000000000000000000000000000000000000008152600401620016899062003087565b60405180910390fd5b60006200169e62002189565b90506000815111620016c05760405180602001604052806000815250620016ef565b80620016cc84620021a0565b604051602001620016df92919062002d6c565b6040516020818303038152906040525b915050919050565b6000600560008473ffffffffffffffffffffffffffffffffffffffff1673ffffffffffffffffffffffffffffffffffffffff16815260200190815260200160002060008373ffffffffffffffffffffffffffffffffffffffff1673ffffffffffffffffffffffffffffffffffffffff16815260200190815260200160002060009054906101000a900460ff16905092915050565b60007f01ffc9a7000000000000000000000000000000000000000000000000000000007bffffffffffffffffffffffffffffffffffffffffffffffffffffffff1916827bffffffffffffffffffffffffffffffffffffffffffffffffffffffff1916149050919050565b60008073ffffffffffffffffffffffffffffffffffffffff166002600084815260200190815260200160002060009054906101000a900473ffffffffffffffffffffffffffffffffffffffff1673ffffffffffffffffffffffffffffffffffffffff1614159050919050565b600033905090565b816004600083815260200190815260200160002060006101000a81548173ffffffffffffffffffffffffffffffffffffffff021916908373ffffffffffffffffffffffffffffffffffffffff160217905550808273ffffffffffffffffffffffffffffffffffffffff16620018de8362000ea5565b73ffffffffffffffffffffffffffffffffffffffff167f8c5be1e5ebec7d5bd14f71427d1e84f3dd0314c0f7b2291e5b200ac8c7c3b92560405160405180910390a45050565b6000806006600086815260200190815260200160002060009054906101000a900473ffffffffffffffffffffffffffffffffffffffff169050600081905060008173ffffffffffffffffffffffffffffffffffffffff1663025e7c27876040518263ffffffff1660e01b81526004016200199f91906200310f565b60206040518083038186803b158015620019b857600080fd5b505afa158015620019cd573d6000803e3d6000fd5b505050506040513d601f19601f82011682018060405250810190620019f3919062002623565b90508473ffffffffffffffffffffffffffffffffffffffff168173ffffffffffffffffffffffffffffffffffffffff16141562001a37576001935050505062001a3f565b600093505050505b9392505050565b600062001a5382620017f5565b62001a95576040517f08c379a000000000000000000000000000000000000000000000000000000000815260040162001a8c9062002f55565b60405180910390fd5b600062001aa28362000ea5565b90508073ffffffffffffffffffffffffffffffffffffffff168473ffffffffffffffffffffffffffffffffffffffff16148062001b1457508373ffffffffffffffffffffffffffffffffffffffff1662001afc84620007e4565b73ffffffffffffffffffffffffffffffffffffffff16145b8062001b28575062001b278185620016f7565b5b91505092915050565b8273ffffffffffffffffffffffffffffffffffffffff1662001b538262000ea5565b73ffffffffffffffffffffffffffffffffffffffff161462001bac576040517f08c379a000000000000000000000000000000000000000000000000000000000815260040162001ba39062003065565b60405180910390fd5b600073ffffffffffffffffffffffffffffffffffffffff168273ffffffffffffffffffffffffffffffffffffffff16141562001c1f576040517f08c379a000000000000000000000000000000000000000000000000000000000815260040162001c169062002f11565b60405180910390fd5b62001c2c8383836200231a565b62001c3960008262001869565b6001600360008573ffffffffffffffffffffffffffffffffffffffff1673ffffffffffffffffffffffffffffffffffffffff168152602001908152602001600020600082825462001c8b9190620032c4565b925050819055506001600360008473ffffffffffffffffffffffffffffffffffffffff1673ffffffffffffffffffffffffffffffffffffffff168152602001908152602001600020600082825462001ce49190620031ce565b92505081905550816002600083815260200190815260200160002060006101000a81548173ffffffffffffffffffffffffffffffffffffffff021916908373ffffffffffffffffffffffffffffffffffffffff160217905550808273ffffffffffffffffffffffffffffffffffffffff168473ffffffffffffffffffffffffffffffffffffffff167fddf252ad1be2c89b69c2b068fc378daa952ba7f163c4a11628f55a4df523b3ef60405160405180910390a4505050565b60006006600084815260200190815260200160002060009054906101000a900473ffffffffffffffffffffffffffffffffffffffff1673ffffffffffffffffffffffffffffffffffffffff16636352211e836040518263ffffffff1660e01b815260040162001e0d91906200310f565b60206040518083038186803b15801562001e2657600080fd5b505afa15801562001e3b573d6000803e3d6000fd5b505050506040513d601f19601f8201168201806040525081019062001e61919062002623565b905092915050565b6000600a6000838152602001908152602001600020549050919050565b60008073ffffffffffffffffffffffffffffffffffffffff168273ffffffffffffffffffffffffffffffffffffffff16141562001efa576040517f08c379a000000000000000000000000000000000000000000000000000000000815260040162001ef19062002f99565b60405180910390fd5b600360008373ffffffffffffffffffffffffffffffffffffffff1673ffffffffffffffffffffffffffffffffffffffff168152602001908152602001600020549050919050565b6019821062001f87576040517f08c379a000000000000000000000000000000000000000000000000000000000815260040162001f7e9062003043565b60405180910390fd5b804262001f959190620031ce565b60098190555060008460405162001fac90620024db565b62001fb891906200310f565b604051809103906000f08015801562001fd5573d6000803e3d6000fd5b5090506000819050806006600088815260200190815260200160002060006101000a81548173ffffffffffffffffffffffffffffffffffffffff021916908373ffffffffffffffffffffffffffffffffffffffff16021790555060005b848110156200211d5760006001826200204c9190620031ce565b6103e8896200205c919062003263565b620020689190620031ce565b9050600a60008981526020019081526020016000206000815480929190620020909062003426565b91905055508373ffffffffffffffffffffffffffffffffffffffff1663b3e1c71888836040518363ffffffff1660e01b8152600401620020d292919062002e42565b600060405180830381600087803b158015620020ed57600080fd5b505af115801562002102573d6000803e3d6000fd5b50505050508080620021149062003426565b91505062002032565b50505050505050565b6200213384848462001b31565b62002141848484846200231f565b62002183576040517f08c379a00000000000000000000000000000000000000000000000000000000081526004016200217a9062002ecd565b60405180910390fd5b50505050565b606060405180602001604052806000815250905090565b60606000821415620021ea576040518060400160405280600181526020017f3000000000000000000000000000000000000000000000000000000000000000815250905062002315565b600082905060005b6000821462002222578080620022089062003426565b915050600a826200221a91906200322b565b9150620021f2565b60008167ffffffffffffffff81111562002241576200224062003568565b5b6040519080825280601f01601f191660200182016040528015620022745781602001600182028036833780820191505090505b5090505b600085146200230e57600182620022909190620032c4565b9150600a85620022a1919062003474565b6030620022af9190620031ce565b60f81b818381518110620022c857620022c762003539565b5b60200101907effffffffffffffffffffffffffffffffffffffffffffffffffffffffffffff1916908160001a905350600a856200230691906200322b565b945062002278565b8093505050505b919050565b505050565b6000620023428473ffffffffffffffffffffffffffffffffffffffff16620024c8565b15620024bb578373ffffffffffffffffffffffffffffffffffffffff1663150b7a026200236e62001861565b8786866040518563ffffffff1660e01b815260040162002392949392919062002dee565b602060405180830381600087803b158015620023ad57600080fd5b505af1925050508015620023e157506040513d601f19601f82011682018060405250810190620023de9190620028bb565b60015b6200246a573d806000811462002414576040519150601f19603f3d011682016040523d82523d6000602084013e62002419565b606091505b5060008151141562002462576040517f08c379a0000000000000000000000000000000000000000000000000000000008152600401620024599062002ecd565b60405180910390fd5b805181602001fd5b63150b7a0260e01b7bffffffffffffffffffffffffffffffffffffffffffffffffffffffff1916817bffffffffffffffffffffffffffffffffffffffffffffffffffffffff191614915050620024c0565b600190505b949350505050565b600080823b905060008111915050919050565b6114e68062003b6483390190565b600062002500620024fa8462003155565b6200312c565b9050828152602081018484840111156200251f576200251e6200359c565b5b6200252c84828562003375565b509392505050565b600081359050620025458162003afb565b92915050565b6000815190506200255c8162003afb565b92915050565b600081359050620025738162003b15565b92915050565b6000813590506200258a8162003b2f565b92915050565b600081519050620025a18162003b2f565b92915050565b600082601f830112620025bf57620025be62003597565b5b8135620025d1848260208601620024e9565b91505092915050565b600081359050620025eb8162003b49565b92915050565b6000602082840312156200260a5762002609620035a6565b5b60006200261a8482850162002534565b91505092915050565b6000602082840312156200263c576200263b620035a6565b5b60006200264c848285016200254b565b91505092915050565b600080604083850312156200266f576200266e620035a6565b5b60006200267f8582860162002534565b9250506020620026928582860162002534565b9150509250929050565b600080600060608486031215620026b857620026b7620035a6565b5b6000620026c88682870162002534565b9350506020620026db8682870162002534565b9250506040620026ee86828701620025da565b9150509250925092565b60008060008060808587031215620027155762002714620035a6565b5b6000620027258782880162002534565b9450506020620027388782880162002534565b93505060406200274b87828801620025da565b925050606085013567ffffffffffffffff8111156200276f576200276e620035a1565b5b6200277d87828801620025a7565b91505092959194509250565b60008060408385031215620027a357620027a2620035a6565b5b6000620027b38582860162002534565b9250506020620027c68582860162002562565b9150509250929050565b60008060408385031215620027ea57620027e9620035a6565b5b6000620027fa8582860162002534565b92505060206200280d85828601620025da565b9150509250929050565b60008060008060808587031215620028345762002833620035a6565b5b6000620028448782880162002534565b94505060206200285787828801620025da565b93505060406200286a87828801620025da565b92505060606200287d87828801620025da565b91505092959194509250565b600060208284031215620028a257620028a1620035a6565b5b6000620028b28482850162002579565b91505092915050565b600060208284031215620028d457620028d3620035a6565b5b6000620028e48482850162002590565b91505092915050565b600060208284031215620029065762002905620035a6565b5b60006200291684828501620025da565b91505092915050565b60008060408385031215620029395762002938620035a6565b5b60006200294985828601620025da565b92505060206200295c85828601620025da565b9150509250929050565b60008060008060808587031215620029835762002982620035a6565b5b60006200299387828801620025da565b9450506020620029a687828801620025da565b9350506040620029b98782880162002534565b9250506060620029cc8782880162002534565b91505092959194509250565b620029e381620032ff565b82525050565b620029f48162003313565b82525050565b62002a05816200331f565b82525050565b600062002a18826200318b565b62002a248185620031a1565b935062002a3681856020860162003384565b62002a4181620035ab565b840191505092915050565b600062002a598262003196565b62002a658185620031b2565b935062002a7781856020860162003384565b62002a8281620035ab565b840191505092915050565b600062002a9a8262003196565b62002aa68185620031c3565b935062002ab881856020860162003384565b80840191505092915050565b600062002ad3603283620031b2565b915062002ae082620035bc565b604082019050919050565b600062002afa604683620031b2565b915062002b07826200360b565b606082019050919050565b600062002b21602483620031b2565b915062002b2e8262003680565b604082019050919050565b600062002b48601983620031b2565b915062002b5582620036cf565b602082019050919050565b600062002b6f602c83620031b2565b915062002b7c82620036f8565b604082019050919050565b600062002b96603883620031b2565b915062002ba38262003747565b604082019050919050565b600062002bbd602a83620031b2565b915062002bca8262003796565b604082019050919050565b600062002be4603683620031b2565b915062002bf182620037e5565b604082019050919050565b600062002c0b602983620031b2565b915062002c188262003834565b604082019050919050565b600062002c32603183620031b2565b915062002c3f8262003883565b604082019050919050565b600062002c59602c83620031b2565b915062002c6682620038d2565b604082019050919050565b600062002c80603a83620031b2565b915062002c8d8262003921565b604082019050919050565b600062002ca7602983620031b2565b915062002cb48262003970565b604082019050919050565b600062002cce602f83620031b2565b915062002cdb82620039bf565b604082019050919050565b600062002cf5602183620031b2565b915062002d028262003a0e565b604082019050919050565b600062002d1c603183620031b2565b915062002d298262003a5d565b604082019050919050565b600062002d43602c83620031b2565b915062002d508262003aac565b604082019050919050565b62002d66816200336b565b82525050565b600062002d7a828562002a8d565b915062002d88828462002a8d565b91508190509392505050565b600060208201905062002dab6000830184620029d8565b92915050565b600060608201905062002dc86000830186620029d8565b62002dd76020830185620029d8565b62002de6604083018462002d5b565b949350505050565b600060808201905062002e056000830187620029d8565b62002e146020830186620029d8565b62002e23604083018562002d5b565b818103606083015262002e37818462002a0b565b905095945050505050565b600060408201905062002e596000830185620029d8565b62002e68602083018462002d5b565b9392505050565b600060208201905062002e866000830184620029e9565b92915050565b600060208201905062002ea36000830184620029fa565b92915050565b6000602082019050818103600083015262002ec5818462002a4c565b905092915050565b6000602082019050818103600083015262002ee88162002ac4565b9050919050565b6000602082019050818103600083015262002f0a8162002aeb565b9050919050565b6000602082019050818103600083015262002f2c8162002b12565b9050919050565b6000602082019050818103600083015262002f4e8162002b39565b9050919050565b6000602082019050818103600083015262002f708162002b60565b9050919050565b6000602082019050818103600083015262002f928162002b87565b9050919050565b6000602082019050818103600083015262002fb48162002bae565b9050919050565b6000602082019050818103600083015262002fd68162002bd5565b9050919050565b6000602082019050818103600083015262002ff88162002bfc565b9050919050565b600060208201905081810360008301526200301a8162002c23565b9050919050565b600060208201905081810360008301526200303c8162002c4a565b9050919050565b600060208201905081810360008301526200305e8162002c71565b9050919050565b60006020820190508181036000830152620030808162002c98565b9050919050565b60006020820190508181036000830152620030a28162002cbf565b9050919050565b60006020820190508181036000830152620030c48162002ce6565b9050919050565b60006020820190508181036000830152620030e68162002d0d565b9050919050565b60006020820190508181036000830152620031088162002d34565b9050919050565b600060208201905062003126600083018462002d5b565b92915050565b6000620031386200314b565b9050620031468282620033f0565b919050565b6000604051905090565b600067ffffffffffffffff82111562003173576200317262003568565b5b6200317e82620035ab565b9050602081019050919050565b600081519050919050565b600081519050919050565b600082825260208201905092915050565b600082825260208201905092915050565b600081905092915050565b6000620031db826200336b565b9150620031e8836200336b565b9250827fffffffffffffffffffffffffffffffffffffffffffffffffffffffffffffffff0382111562003220576200321f620034ac565b5b828201905092915050565b600062003238826200336b565b915062003245836200336b565b925082620032585762003257620034db565b5b828204905092915050565b600062003270826200336b565b91506200327d836200336b565b9250817fffffffffffffffffffffffffffffffffffffffffffffffffffffffffffffffff0483118215151615620032b957620032b8620034ac565b5b828202905092915050565b6000620032d1826200336b565b9150620032de836200336b565b925082821015620032f457620032f3620034ac565b5b828203905092915050565b60006200330c826200334b565b9050919050565b60008115159050919050565b60007fffffffff0000000000000000000000000000000000000000000000000000000082169050919050565b600073ffffffffffffffffffffffffffffffffffffffff82169050919050565b6000819050919050565b82818337600083830152505050565b60005b83811015620033a457808201518184015260208101905062003387565b83811115620033b4576000848401525b50505050565b60006002820490506001821680620033d357607f821691505b60208210811415620033ea57620033e96200350a565b5b50919050565b620033fb82620035ab565b810181811067ffffffffffffffff821117156200341d576200341c62003568565b5b80604052505050565b600062003433826200336b565b91507fffffffffffffffffffffffffffffffffffffffffffffffffffffffffffffffff821415620034695762003468620034ac565b5b600182019050919050565b600062003481826200336b565b91506200348e836200336b565b925082620034a157620034a0620034db565b5b828206905092915050565b7f4e487b7100000000000000000000000000000000000000000000000000000000600052601160045260246000fd5b7f4e487b7100000000000000000000000000000000000000000000000000000000600052601260045260246000fd5b7f4e487b7100000000000000000000000000000000000000000000000000000000600052602260045260246000fd5b7f4e487b7100000000000000000000000000000000000000000000000000000000600052603260045260246000fd5b7f4e487b7100000000000000000000000000000000000000000000000000000000600052604160045260246000fd5b600080fd5b600080fd5b600080fd5b600080fd5b6000601f19601f8301169050919050565b7f4552433732313a207472616e7366657220746f206e6f6e20455243373231526560008201527f63656976657220696d706c656d656e7465720000000000000000000000000000602082015250565b7f417065546f6b656e466163746f72793a20436f72726573706f6e64696e67204160008201527f7065546f6b656e732063616e6e6f74206265206275726e65642061742074686960208201527f732074696d650000000000000000000000000000000000000000000000000000604082015250565b7f4552433732313a207472616e7366657220746f20746865207a65726f2061646460008201527f7265737300000000000000000000000000000000000000000000000000000000602082015250565b7f4552433732313a20617070726f766520746f2063616c6c657200000000000000600082015250565b7f4552433732313a206f70657261746f7220717565727920666f72206e6f6e657860008201527f697374656e7420746f6b656e0000000000000000000000000000000000000000602082015250565b7f4552433732313a20617070726f76652063616c6c6572206973206e6f74206f7760008201527f6e6572206e6f7220617070726f76656420666f7220616c6c0000000000000000602082015250565b7f4552433732313a2062616c616e636520717565727920666f7220746865207a6560008201527f726f206164647265737300000000000000000000000000000000000000000000602082015250565b7f417065546f6b656e466163746f72793a205468697320746f6b656e206973206e60008201527f6f7420617661696c61626c6520746f20626f72726f7700000000000000000000602082015250565b7f4552433732313a206f776e657220717565727920666f72206e6f6e657869737460008201527f656e7420746f6b656e0000000000000000000000000000000000000000000000602082015250565b7f4170654c656e643a20596f752068617665206e6f742070726f7669646564206160008201527f20746f6b656e20746f204170654c656e64000000000000000000000000000000602082015250565b7f4552433732313a20617070726f76656420717565727920666f72206e6f6e657860008201527f697374656e7420746f6b656e0000000000000000000000000000000000000000602082015250565b7f417065546f6b656e3a20596f752063616e6e6f74206d696e74206d6f7265207460008201527f68616e20323520617065546f6b656e732070657220746f6b656e000000000000602082015250565b7f4552433732313a207472616e73666572206f6620746f6b656e2074686174206960008201527f73206e6f74206f776e0000000000000000000000000000000000000000000000602082015250565b7f4552433732314d657461646174613a2055524920717565727920666f72206e6f60008201527f6e6578697374656e7420746f6b656e0000000000000000000000000000000000602082015250565b7f4552433732313a20617070726f76616c20746f2063757272656e74206f776e6560008201527f7200000000000000000000000000000000000000000000000000000000000000602082015250565b7f4552433732313a207472616e736665722063616c6c6572206973206e6f74206f60008201527f776e6572206e6f7220617070726f766564000000000000000000000000000000602082015250565b7f4170654c656e643a20596f7520617265206e6f7420746865206f776e6572206f60008201527f66207468697320746f6b656e0000000000000000000000000000000000000000602082015250565b62003b0681620032ff565b811462003b1257600080fd5b50565b62003b208162003313565b811462003b2c57600080fd5b50565b62003b3a816200331f565b811462003b4657600080fd5b50565b62003b54816200336b565b811462003b6057600080fd5b5056fe60806040523480156200001157600080fd5b50604051620014e6380380620014e683398181016040528101906200003791906200005c565b8060008190555050620000b7565b60008151905062000056816200009d565b92915050565b60006020828403121562000075576200007462000098565b5b6000620000858482850162000045565b91505092915050565b6000819050919050565b600080fd5b620000a8816200008e565b8114620000b457600080fd5b50565b61141f80620000c76000396000f3fe608060405234801561001057600080fd5b50600436106100885760003560e01c80636a4f832b1161005b5780636a4f832b146101395780639b1f9e7414610155578063b3e1c71814610171578063b88d4fde1461018d57610088565b8063025e7c271461008d578063081812fc146100bd57806342842e0e146100ed5780636352211e14610109575b600080fd5b6100a760048036038101906100a29190610d0a565b6101a9565b6040516100b49190610e5e565b60405180910390f35b6100d760048036038101906100d29190610d0a565b6101e6565b6040516100e49190610e5e565b60405180910390f35b61010760048036038101906101029190610b85565b61026b565b005b610123600480360381019061011e9190610d0a565b61028b565b6040516101309190610e5e565b60405180910390f35b610153600480360381019061014e9190610c9b565b61033d565b005b61016f600480360381019061016a9190610d0a565b61034c565b005b61018b60048036038101906101869190610c5b565b610450565b005b6101a760048036038101906101a29190610bd8565b61046e565b005b60006002600083815260200190815260200160002060009054906101000a900473ffffffffffffffffffffffffffffffffffffffff169050919050565b60006101f1826104d0565b610230576040517f08c379a000000000000000000000000000000000000000000000000000000000815260040161022790610f39565b60405180910390fd5b6003600083815260200190815260200160002060009054906101000a900473ffffffffffffffffffffffffffffffffffffffff169050919050565b6102868383836040518060200160405280600081525061046e565b505050565b6000806002600084815260200190815260200160002060009054906101000a900473ffffffffffffffffffffffffffffffffffffffff169050600073ffffffffffffffffffffffffffffffffffffffff168173ffffffffffffffffffffffffffffffffffffffff161415610334576040517f08c379a000000000000000000000000000000000000000000000000000000000815260040161032b90610eb9565b60405180910390fd5b80915050919050565b610347838361053c565b505050565b60006103578261028b565b90506103646000836106fd565b60018060008373ffffffffffffffffffffffffffffffffffffffff1673ffffffffffffffffffffffffffffffffffffffff16815260200190815260200160002060008282546103b39190611036565b925050819055506002600083815260200190815260200160002060006101000a81549073ffffffffffffffffffffffffffffffffffffffff021916905581600073ffffffffffffffffffffffffffffffffffffffff168273ffffffffffffffffffffffffffffffffffffffff167fddf252ad1be2c89b69c2b068fc378daa952ba7f163c4a11628f55a4df523b3ef60405160405180910390a45050565b61046a82826040518060200160405280600081525061033d565b5050565b61047f6104796107b6565b836107be565b6104be576040517f08c379a00000000000000000000000000000000000000000000000000000000081526004016104b590610e79565b60405180910390fd5b6104ca8484848461088b565b50505050565b60008073ffffffffffffffffffffffffffffffffffffffff166002600084815260200190815260200160002060009054906101000a900473ffffffffffffffffffffffffffffffffffffffff1673ffffffffffffffffffffffffffffffffffffffff1614159050919050565b600073ffffffffffffffffffffffffffffffffffffffff168273ffffffffffffffffffffffffffffffffffffffff1614156105ac576040517f08c379a00000000000000000000000000000000000000000000000000000000081526004016105a390610e99565b60405180910390fd5b6105b5816104d0565b156105f5576040517f08c379a00000000000000000000000000000000000000000000000000000000081526004016105ec90610f19565b60405180910390fd5b60018060008473ffffffffffffffffffffffffffffffffffffffff1673ffffffffffffffffffffffffffffffffffffffff16815260200190815260200160002060008282546106449190610fe0565b92505081905550816002600083815260200190815260200160002060006101000a81548173ffffffffffffffffffffffffffffffffffffffff021916908373ffffffffffffffffffffffffffffffffffffffff160217905550808273ffffffffffffffffffffffffffffffffffffffff16600073ffffffffffffffffffffffffffffffffffffffff167fddf252ad1be2c89b69c2b068fc378daa952ba7f163c4a11628f55a4df523b3ef60405160405180910390a45050565b816003600083815260200190815260200160002060006101000a81548173ffffffffffffffffffffffffffffffffffffffff021916908373ffffffffffffffffffffffffffffffffffffffff160217905550808273ffffffffffffffffffffffffffffffffffffffff166107708361028b565b73ffffffffffffffffffffffffffffffffffffffff167f8c5be1e5ebec7d5bd14f71427d1e84f3dd0314c0f7b2291e5b200ac8c7c3b92560405160405180910390a45050565b600033905090565b60006107c9826104d0565b610808576040517f08c379a00000000000000000000000000000000000000000000000000000000081526004016107ff90610f59565b60405180910390fd5b6000610813836101a9565b90508073ffffffffffffffffffffffffffffffffffffffff168473ffffffffffffffffffffffffffffffffffffffff16148061088257508373ffffffffffffffffffffffffffffffffffffffff1661086a846101e6565b73ffffffffffffffffffffffffffffffffffffffff16145b91505092915050565b61089684848461089c565b50505050565b8273ffffffffffffffffffffffffffffffffffffffff166108bc826101a9565b73ffffffffffffffffffffffffffffffffffffffff1614610912576040517f08c379a000000000000000000000000000000000000000000000000000000000815260040161090990610ed9565b60405180910390fd5b600073ffffffffffffffffffffffffffffffffffffffff168273ffffffffffffffffffffffffffffffffffffffff161415610982576040517f08c379a000000000000000000000000000000000000000000000000000000000815260040161097990610ef9565b60405180910390fd5b61098d6000826106fd565b60018060008573ffffffffffffffffffffffffffffffffffffffff1673ffffffffffffffffffffffffffffffffffffffff16815260200190815260200160002060008282546109dc9190611036565b9250508190555060018060008473ffffffffffffffffffffffffffffffffffffffff1673ffffffffffffffffffffffffffffffffffffffff1681526020019081526020016000206000828254610a329190610fe0565b92505081905550816002600083815260200190815260200160002060006101000a81548173ffffffffffffffffffffffffffffffffffffffff021916908373ffffffffffffffffffffffffffffffffffffffff160217905550808273ffffffffffffffffffffffffffffffffffffffff168473ffffffffffffffffffffffffffffffffffffffff167fddf252ad1be2c89b69c2b068fc378daa952ba7f163c4a11628f55a4df523b3ef60405160405180910390a4505050565b6000610afe610af984610f9e565b610f79565b905082815260208101848484011115610b1a57610b19611149565b5b610b258482856110a6565b509392505050565b600081359050610b3c816113bb565b92915050565b600082601f830112610b5757610b56611144565b5b8135610b67848260208601610aeb565b91505092915050565b600081359050610b7f816113d2565b92915050565b600080600060608486031215610b9e57610b9d611153565b5b6000610bac86828701610b2d565b9350506020610bbd86828701610b2d565b9250506040610bce86828701610b70565b9150509250925092565b60008060008060808587031215610bf257610bf1611153565b5b6000610c0087828801610b2d565b9450506020610c1187828801610b2d565b9350506040610c2287828801610b70565b925050606085013567ffffffffffffffff811115610c4357610c4261114e565b5b610c4f87828801610b42565b91505092959194509250565b60008060408385031215610c7257610c71611153565b5b6000610c8085828601610b2d565b9250506020610c9185828601610b70565b9150509250929050565b600080600060608486031215610cb457610cb3611153565b5b6000610cc286828701610b2d565b9350506020610cd386828701610b70565b925050604084013567ffffffffffffffff811115610cf457610cf361114e565b5b610d0086828701610b42565b9150509250925092565b600060208284031215610d2057610d1f611153565b5b6000610d2e84828501610b70565b91505092915050565b610d408161106a565b82525050565b6000610d53603383610fcf565b9150610d5e82611169565b604082019050919050565b6000610d76602283610fcf565b9150610d81826111b8565b604082019050919050565b6000610d99602b83610fcf565b9150610da482611207565b604082019050919050565b6000610dbc602b83610fcf565b9150610dc782611256565b604082019050919050565b6000610ddf602683610fcf565b9150610dea826112a5565b604082019050919050565b6000610e02601e83610fcf565b9150610e0d826112f4565b602082019050919050565b6000610e25602e83610fcf565b9150610e308261131d565b604082019050919050565b6000610e48602e83610fcf565b9150610e538261136c565b604082019050919050565b6000602082019050610e736000830184610d37565b92915050565b60006020820190508181036000830152610e9281610d46565b9050919050565b60006020820190508181036000830152610eb281610d69565b9050919050565b60006020820190508181036000830152610ed281610d8c565b9050919050565b60006020820190508181036000830152610ef281610daf565b9050919050565b60006020820190508181036000830152610f1281610dd2565b9050919050565b60006020820190508181036000830152610f3281610df5565b9050919050565b60006020820190508181036000830152610f5281610e18565b9050919050565b60006020820190508181036000830152610f7281610e3b565b9050919050565b6000610f83610f94565b9050610f8f82826110b5565b919050565b6000604051905090565b600067ffffffffffffffff821115610fb957610fb8611115565b5b610fc282611158565b9050602081019050919050565b600082825260208201905092915050565b6000610feb8261109c565b9150610ff68361109c565b9250827fffffffffffffffffffffffffffffffffffffffffffffffffffffffffffffffff0382111561102b5761102a6110e6565b5b828201905092915050565b60006110418261109c565b915061104c8361109c565b92508282101561105f5761105e6110e6565b5b828203905092915050565b60006110758261107c565b9050919050565b600073ffffffffffffffffffffffffffffffffffffffff82169050919050565b6000819050919050565b82818337600083830152505050565b6110be82611158565b810181811067ffffffffffffffff821117156110dd576110dc611115565b5b80604052505050565b7f4e487b7100000000000000000000000000000000000000000000000000000000600052601160045260246000fd5b7f4e487b7100000000000000000000000000000000000000000000000000000000600052604160045260246000fd5b600080fd5b600080fd5b600080fd5b600080fd5b6000601f19601f8301169050919050565b7f417065546f6b656e3a207472616e736665722063616c6c6572206973206e6f7460008201527f206f776e6572206e6f7220617070726f76656400000000000000000000000000602082015250565b7f417065546f6b656e3a206d696e7420746f20746865207a65726f20616464726560008201527f7373000000000000000000000000000000000000000000000000000000000000602082015250565b7f417065546f6b656e3a206f776e657220717565727920666f72206e6f6e65786960008201527f7374656e7420746f6b656e000000000000000000000000000000000000000000602082015250565b7f417065546f6b656e3a207472616e73666572206f6620746f6b656e207468617460008201527f206973206e6f74206f776e000000000000000000000000000000000000000000602082015250565b7f417065546f6b656e3a207472616e7366657220746f20746865207a65726f206160008201527f6464726573730000000000000000000000000000000000000000000000000000602082015250565b7f417065546f6b656e3a20746f6b656e20616c7265616479206d696e7465640000600082015250565b7f417065546f6b656e3a20617070726f76656420717565727920666f72206e6f6e60008201527f6578697374656e7420746f6b656e000000000000000000000000000000000000602082015250565b7f417065546f6b656e3a206f70657261746f7220717565727920666f72206e6f6e60008201527f6578697374656e7420746f6b656e000000000000000000000000000000000000602082015250565b6113c48161106a565b81146113cf57600080fd5b50565b6113db8161109c565b81146113e657600080fd5b5056fea2646970667358221220a91f4893d315aa70fe2a291bdc2f0892bec84872e11e9accb919719e75ed54c264736f6c63430008060033a264697066735822122047333180f2129bea81717d1fb6d539fce6dc3890385cd94eff9b1458cc5e2dd464736f6c63430008060033",
  "linkReferences": {},
  "deployedLinkReferences": {}
}