{
  "_format": "hh-sol-artifact-1",
  "contractName": "ApeLend",
  "sourceName": "contracts/ApeLend.sol",
  "abi": [
    {
      "inputs": [],
      "stateMutability": "nonpayable",
      "type": "constructor"
    },
    {
      "anonymous": false,
      "inputs": [
        {
          "indexed": true,
          "internalType": "address",
          "name": "owner",
          "type": "address"
        },
        {
          "indexed": true,
          "internalType": "address",
          "name": "approved",
          "type": "address"
        },
        {
          "indexed": true,
          "internalType": "uint256",
          "name": "tokenId",
          "type": "uint256"
        }
      ],
      "name": "Approval",
      "type": "event"
    },
    {
      "anonymous": false,
      "inputs": [
        {
          "indexed": true,
          "internalType": "address",
          "name": "owner",
          "type": "address"
        },
        {
          "indexed": true,
          "internalType": "address",
          "name": "operator",
          "type": "address"
        },
        {
          "indexed": false,
          "internalType": "bool",
          "name": "approved",
          "type": "bool"
        }
      ],
      "name": "ApprovalForAll",
      "type": "event"
    },
    {
      "anonymous": false,
      "inputs": [
        {
          "indexed": true,
          "internalType": "address",
          "name": "from",
          "type": "address"
        },
        {
          "indexed": true,
          "internalType": "address",
          "name": "to",
          "type": "address"
        },
        {
          "indexed": true,
          "internalType": "uint256",
          "name": "tokenId",
          "type": "uint256"
        }
      ],
      "name": "Transfer",
      "type": "event"
    },
    {
      "inputs": [
        {
          "internalType": "uint256",
          "name": "_tokenId",
          "type": "uint256"
        }
      ],
      "name": "apeTokenTotalSupply",
      "outputs": [
        {
          "internalType": "uint256",
          "name": "_apeTokenTotalSupply",
          "type": "uint256"
        }
      ],
      "stateMutability": "view",
      "type": "function"
    },
    {
      "inputs": [
        {
          "internalType": "address",
          "name": "to",
          "type": "address"
        },
        {
          "internalType": "uint256",
          "name": "tokenId",
          "type": "uint256"
        }
      ],
      "name": "approve",
      "outputs": [],
      "stateMutability": "nonpayable",
      "type": "function"
    },
    {
      "inputs": [
        {
          "internalType": "address",
          "name": "_tokenAddress",
          "type": "address"
        },
        {
          "internalType": "uint256",
          "name": "_tokenId",
          "type": "uint256"
        }
      ],
      "name": "approveApeLend",
      "outputs": [],
      "stateMutability": "nonpayable",
      "type": "function"
    },
    {
      "inputs": [
        {
          "internalType": "address",
          "name": "_owner",
          "type": "address"
        }
      ],
      "name": "balanceOf",
      "outputs": [
        {
          "internalType": "uint256",
          "name": "",
          "type": "uint256"
        }
      ],
      "stateMutability": "view",
      "type": "function"
    },
    {
      "inputs": [
        {
          "internalType": "uint256",
          "name": "_underlyingTokenId",
          "type": "uint256"
        },
        {
          "internalType": "uint256",
          "name": "_apeTokenId",
          "type": "uint256"
        },
        {
          "internalType": "address",
          "name": "_apeLendAddress",
          "type": "address"
        },
        {
          "internalType": "address",
          "name": "_to",
          "type": "address"
        }
      ],
      "name": "borrowApeToken",
      "outputs": [],
      "stateMutability": "nonpayable",
      "type": "function"
    },
    {
      "inputs": [
        {
          "internalType": "uint256",
          "name": "_underlyingTokenId",
          "type": "uint256"
        },
        {
          "internalType": "uint256",
          "name": "_borrowingApeTokenId",
          "type": "uint256"
        }
      ],
      "name": "borrowToken",
      "outputs": [],
      "stateMutability": "payable",
      "type": "function"
    },
    {
      "inputs": [
        {
          "internalType": "uint256",
          "name": "_underlyingTokenId",
          "type": "uint256"
        }
      ],
      "name": "burnApeToken",
      "outputs": [],
      "stateMutability": "nonpayable",
      "type": "function"
    },
    {
      "inputs": [
        {
          "internalType": "uint256",
          "name": "tokenId",
          "type": "uint256"
        }
      ],
      "name": "getApproved",
      "outputs": [
        {
          "internalType": "address",
          "name": "",
          "type": "address"
        }
      ],
      "stateMutability": "view",
      "type": "function"
    },
    {
      "inputs": [
        {
          "internalType": "address",
          "name": "owner",
          "type": "address"
        },
        {
          "internalType": "address",
          "name": "operator",
          "type": "address"
        }
      ],
      "name": "isApprovedForAll",
      "outputs": [
        {
          "internalType": "bool",
          "name": "",
          "type": "bool"
        }
      ],
      "stateMutability": "view",
      "type": "function"
    },
    {
      "inputs": [
        {
          "internalType": "address",
          "name": "_tokenAddress",
          "type": "address"
        },
        {
          "internalType": "uint256",
          "name": "_tokenId",
          "type": "uint256"
        },
        {
          "internalType": "uint256",
          "name": "_apeTokenAmount",
          "type": "uint256"
        },
        {
          "internalType": "uint256",
          "name": "_apeTokenReturnWindow",
          "type": "uint256"
        }
      ],
      "name": "lendToken",
      "outputs": [],
      "stateMutability": "nonpayable",
      "type": "function"
    },
    {
      "inputs": [],
      "name": "name",
      "outputs": [
        {
          "internalType": "string",
          "name": "",
          "type": "string"
        }
      ],
      "stateMutability": "view",
      "type": "function"
    },
    {
      "inputs": [
        {
          "internalType": "address",
          "name": "",
          "type": "address"
        },
        {
          "internalType": "address",
          "name": "",
          "type": "address"
        },
        {
          "internalType": "uint256",
          "name": "",
          "type": "uint256"
        },
        {
          "internalType": "bytes",
          "name": "",
          "type": "bytes"
        }
      ],
      "name": "onERC721Received",
      "outputs": [
        {
          "internalType": "bytes4",
          "name": "",
          "type": "bytes4"
        }
      ],
      "stateMutability": "nonpayable",
      "type": "function"
    },
    {
      "inputs": [
        {
          "internalType": "address",
          "name": "operator",
          "type": "address"
        },
        {
          "internalType": "address",
          "name": "from",
          "type": "address"
        },
        {
          "internalType": "uint256",
          "name": "tokenId",
          "type": "uint256"
        },
        {
          "internalType": "bytes",
          "name": "data",
          "type": "bytes"
        }
      ],
      "name": "onERC721ReceivedToProtocol",
      "outputs": [
        {
          "internalType": "bytes4",
          "name": "",
          "type": "bytes4"
        }
      ],
      "stateMutability": "nonpayable",
      "type": "function"
    },
    {
      "inputs": [
        {
          "internalType": "uint256",
          "name": "_tokenId",
          "type": "uint256"
        }
      ],
      "name": "ownerOf",
      "outputs": [
        {
          "internalType": "address",
          "name": "",
          "type": "address"
        }
      ],
      "stateMutability": "view",
      "type": "function"
    },
    {
      "inputs": [
        {
          "internalType": "uint256",
          "name": "_tokenId",
          "type": "uint256"
        },
        {
          "internalType": "uint256",
          "name": "_apeTokenId",
          "type": "uint256"
        }
      ],
      "name": "ownerOfApeToken",
      "outputs": [
        {
          "internalType": "address",
          "name": "_apeTokenOwner",
          "type": "address"
        }
      ],
      "stateMutability": "view",
      "type": "function"
    },
    {
      "inputs": [
        {
          "internalType": "uint256",
          "name": "_tokenId",
          "type": "uint256"
        }
      ],
      "name": "pullToken",
      "outputs": [],
      "stateMutability": "nonpayable",
      "type": "function"
    },
    {
      "inputs": [
        {
          "internalType": "address",
          "name": "from",
          "type": "address"
        },
        {
          "internalType": "address",
          "name": "to",
          "type": "address"
        },
        {
          "internalType": "uint256",
          "name": "tokenId",
          "type": "uint256"
        }
      ],
      "name": "safeTransferFrom",
      "outputs": [],
      "stateMutability": "nonpayable",
      "type": "function"
    },
    {
      "inputs": [
        {
          "internalType": "address",
          "name": "from",
          "type": "address"
        },
        {
          "internalType": "address",
          "name": "to",
          "type": "address"
        },
        {
          "internalType": "uint256",
          "name": "tokenId",
          "type": "uint256"
        },
        {
          "internalType": "bytes",
          "name": "_data",
          "type": "bytes"
        }
      ],
      "name": "safeTransferFrom",
      "outputs": [],
      "stateMutability": "nonpayable",
      "type": "function"
    },
    {
      "inputs": [
        {
          "internalType": "address",
          "name": "operator",
          "type": "address"
        },
        {
          "internalType": "bool",
          "name": "approved",
          "type": "bool"
        }
      ],
      "name": "setApprovalForAll",
      "outputs": [],
      "stateMutability": "nonpayable",
      "type": "function"
    },
    {
      "inputs": [
        {
          "internalType": "bytes4",
          "name": "interfaceId",
          "type": "bytes4"
        }
      ],
      "name": "supportsInterface",
      "outputs": [
        {
          "internalType": "bool",
          "name": "",
          "type": "bool"
        }
      ],
      "stateMutability": "view",
      "type": "function"
    },
    {
      "inputs": [],
      "name": "symbol",
      "outputs": [
        {
          "internalType": "string",
          "name": "",
          "type": "string"
        }
      ],
      "stateMutability": "view",
      "type": "function"
    },
    {
      "inputs": [
        {
          "internalType": "uint256",
          "name": "tokenId",
          "type": "uint256"
        }
      ],
      "name": "tokenURI",
      "outputs": [
        {
          "internalType": "string",
          "name": "",
          "type": "string"
        }
      ],
      "stateMutability": "view",
      "type": "function"
    },
    {
      "inputs": [
        {
          "internalType": "address",
          "name": "from",
          "type": "address"
        },
        {
          "internalType": "address",
          "name": "to",
          "type": "address"
        },
        {
          "internalType": "uint256",
          "name": "tokenId",
          "type": "uint256"
        }
      ],
      "name": "transferFrom",
      "outputs": [],
      "stateMutability": "nonpayable",
      "type": "function"
    },
    {
      "stateMutability": "payable",
      "type": "receive"
    }
  ],
  "bytecode": "0x60806040523480156200001157600080fd5b506040518060400160405280600781526020017f4170654c656e64000000000000000000000000000000000000000000000000008152506040518060400160405280600381526020017f4150450000000000000000000000000000000000000000000000000000000000815250816000908051906020019062000096929190620000f9565b508060019080519060200190620000af929190620000f9565b50505033600c60006101000a81548173ffffffffffffffffffffffffffffffffffffffff021916908373ffffffffffffffffffffffffffffffffffffffff1602179055506200020e565b8280546200010790620001a9565b90600052602060002090601f0160209004810192826200012b576000855562000177565b82601f106200014657805160ff191683800117855562000177565b8280016001018555821562000177579182015b828111156200017657825182559160200191906001019062000159565b5b5090506200018691906200018a565b5090565b5b80821115620001a55760008160009055506001016200018b565b5090565b60006002820490506001821680620001c257607f821691505b60208210811415620001d957620001d8620001df565b5b50919050565b7f4e487b7100000000000000000000000000000000000000000000000000000000600052602260045260246000fd5b6151dc806200021e6000396000f3fe608060405260043610620001635760003560e01c80634effdda011620000c757806395d89b41116200007957806395d89b411462000522578063a22cb4651462000552578063b88d4fde1462000580578063c87b56dd14620005ae578063e985e9c514620005f2578063f87a419b1462000636576200016b565b80634effdda014620003b65780636352211e14620003fa5780636b0e2f10146200043e57806370a0823114620004825780637b05d58814620004c65780638d96156b14620004f4576200016b565b80630ff225c411620001215780630ff225c41462000276578063150b7a0214620002a45780631c576a7014620002e857806323b872dd146200031657806337c51b18146200034457806342842e0e1462000388576200016b565b806301ffc9a7146200017057806306fdde0314620001b4578063081812fc14620001e457806308ec59271462000228578063095ea7b31462000248576200016b565b366200016b57005b600080fd5b3480156200017d57600080fd5b506200019c60048036038101906200019691906200290b565b62000664565b604051620001ab919062002ef1565b60405180910390f35b348015620001c157600080fd5b50620001cc6200074a565b604051620001db919062002f2b565b60405180910390f35b348015620001f157600080fd5b506200021060048036038101906200020a91906200296f565b620007e4565b6040516200021f919062002e16565b60405180910390f35b620002466004803603810190620002409190620029a1565b6200086e565b005b3480156200025557600080fd5b506200027460048036038101906200026e919062002852565b62000922565b005b3480156200028357600080fd5b50620002a260048036038101906200029c919062002852565b62000a70565b005b348015620002b157600080fd5b50620002d06004803603810190620002ca91906200277a565b62000b48565b604051620002df919062002f0e565b60405180910390f35b348015620002f557600080fd5b506200031460048036038101906200030e9190620029e8565b62000b5c565b005b3480156200032357600080fd5b506200034260048036038101906200033c91906200271e565b62000cfe565b005b3480156200035157600080fd5b506200037060048036038101906200036a9190620029a1565b62000d67565b6040516200037f919062002e16565b60405180910390f35b3480156200039557600080fd5b50620003b46004803603810190620003ae91906200271e565b62000d7d565b005b348015620003c357600080fd5b50620003e26004803603810190620003dc91906200277a565b62000d9f565b604051620003f1919062002f0e565b60405180910390f35b3480156200040757600080fd5b506200042660048036038101906200042091906200296f565b62000db9565b60405162000435919062002e16565b60405180910390f35b3480156200044b57600080fd5b506200046a60048036038101906200046491906200296f565b62000dcd565b604051620004799190620031c5565b60405180910390f35b3480156200048f57600080fd5b50620004ae6004803603810190620004a8919062002673565b62000de1565b604051620004bd9190620031c5565b60405180910390f35b348015620004d357600080fd5b50620004f26004803603810190620004ec91906200296f565b62000df5565b005b3480156200050157600080fd5b506200052060048036038101906200051a919062002899565b62000f72565b005b3480156200052f57600080fd5b506200053a6200126f565b60405162000549919062002f2b565b60405180910390f35b3480156200055f57600080fd5b506200057e60048036038101906200057891906200280b565b62001309565b005b3480156200058d57600080fd5b50620005ac6004803603810190620005a691906200277a565b62001495565b005b348015620005bb57600080fd5b50620005da6004803603810190620005d491906200296f565b62001500565b604051620005e9919062002f2b565b60405180910390f35b348015620005ff57600080fd5b506200061e6004803603810190620006189190620026d7565b620015b4565b6040516200062d919062002ef1565b60405180910390f35b3480156200064357600080fd5b506200066260048036038101906200065c91906200296f565b62001648565b005b60007f80ac58cd000000000000000000000000000000000000000000000000000000007bffffffffffffffffffffffffffffffffffffffffffffffffffffffff1916827bffffffffffffffffffffffffffffffffffffffffffffffffffffffff191614806200073057507f5b5e139f000000000000000000000000000000000000000000000000000000007bffffffffffffffffffffffffffffffffffffffffffffffffffffffff1916827bffffffffffffffffffffffffffffffffffffffffffffffffffffffff1916145b8062000743575062000742826200168f565b5b9050919050565b6060600080546200075b9062003470565b80601f0160208091040260200160405190810160405280929190818152602001828054620007899062003470565b8015620007da5780601f10620007ae57610100808354040283529160200191620007da565b820191906000526020600020905b815481529060010190602001808311620007bc57829003601f168201915b5050505050905090565b6000620007f182620016f9565b62000833576040517f08c379a00000000000000000000000000000000000000000000000000000000081526004016200082a90620030d7565b60405180910390fd5b6004600083815260200190815260200160002060009054906101000a900473ffffffffffffffffffffffffffffffffffffffff169050919050565b6000309050600033905060011515600e60003373ffffffffffffffffffffffffffffffffffffffff1673ffffffffffffffffffffffffffffffffffffffff16815260200190815260200160002060009054906101000a900460ff161515146200090e576040517f08c379a00000000000000000000000000000000000000000000000000000000081526004016200090590620030b5565b60405180910390fd5b6200091c8484848462000b5c565b50505050565b6200094760405180606001604052806037815260200162005100603791393362001765565b6000620009548262001805565b90508073ffffffffffffffffffffffffffffffffffffffff168373ffffffffffffffffffffffffffffffffffffffff161415620009c8576040517f08c379a0000000000000000000000000000000000000000000000000000000008152600401620009bf906200315f565b60405180910390fd5b8073ffffffffffffffffffffffffffffffffffffffff16620009e9620018ba565b73ffffffffffffffffffffffffffffffffffffffff16148062000a1d575062000a1c8162000a16620018ba565b620015b4565b5b62000a5f576040517f08c379a000000000000000000000000000000000000000000000000000000000815260040162000a56906200302d565b60405180910390fd5b62000a6b8383620018c2565b505050565b81600b60006101000a81548173ffffffffffffffffffffffffffffffffffffffff021916908373ffffffffffffffffffffffffffffffffffffffff160217905550600b60009054906101000a900473ffffffffffffffffffffffffffffffffffffffff1673ffffffffffffffffffffffffffffffffffffffff1663095ea7b330836040518363ffffffff1660e01b815260040162000b1092919062002ec4565b600060405180830381600087803b15801562000b2b57600080fd5b505af115801562000b40573d6000803e3d6000fd5b505050505050565b600063150b7a0260e01b9050949350505050565b6001151562000b6d8585856200197d565b15151462000bb2576040517f08c379a000000000000000000000000000000000000000000000000000000000815260040162000ba99062003071565b60405180910390fd5b60006007600085815260200190815260200160002060006101000a81548160ff0219169083151502179055506009544262000bee919062003284565b60098190555060006006600086815260200190815260200160002060009054906101000a900473ffffffffffffffffffffffffffffffffffffffff1690506000819050336008600087815260200190815260200160002060006101000a81548173ffffffffffffffffffffffffffffffffffffffff021916908373ffffffffffffffffffffffffffffffffffffffff1602179055508073ffffffffffffffffffffffffffffffffffffffff166342842e0e8585886040518463ffffffff1660e01b815260040162000cc29392919062002e33565b600060405180830381600087803b15801562000cdd57600080fd5b505af115801562000cf2573d6000803e3d6000fd5b50505050505050505050565b62000d1362000d0c620018ba565b8262001a9f565b62000d55576040517f08c379a000000000000000000000000000000000000000000000000000000000815260040162000d4c9062003181565b60405180910390fd5b62000d6283838362001b8a565b505050565b600062000d75838362001df6565b905092915050565b62000d9a8383836040518060200160405280600081525062001495565b505050565b600062000daf8585858562000b48565b9050949350505050565b600062000dc68262001805565b9050919050565b600062000dda8262001ec2565b9050919050565b600062000dee8262001edf565b9050919050565b600954421162000e3c576040517f08c379a000000000000000000000000000000000000000000000000000000000815260040162000e339062002fa5565b60405180910390fd5b60006006600083815260200190815260200160002060009054906101000a900473ffffffffffffffffffffffffffffffffffffffff16905060008190506000600a60008581526020019081526020016000205490506000600a60008681526020019081526020016000208190555060005b8181101562000f6b57600060018262000ec7919062003284565b6103e88762000ed7919062003319565b62000ee3919062003284565b90508373ffffffffffffffffffffffffffffffffffffffff16639b1f9e74826040518263ffffffff1660e01b815260040162000f209190620031c5565b600060405180830381600087803b15801562000f3b57600080fd5b505af115801562000f50573d6000803e3d6000fd5b5050505050808062000f6290620034dc565b91505062000ead565b5050505050565b83600b60006101000a81548173ffffffffffffffffffffffffffffffffffffffff021916908373ffffffffffffffffffffffffffffffffffffffff160217905550600b60009054906101000a900473ffffffffffffffffffffffffffffffffffffffff1673ffffffffffffffffffffffffffffffffffffffff16636352211e846040518263ffffffff1660e01b8152600401620010109190620031c5565b60206040518083038186803b1580156200102957600080fd5b505afa1580156200103e573d6000803e3d6000fd5b505050506040513d601f19601f82011682018060405250810190620010649190620026a5565b73ffffffffffffffffffffffffffffffffffffffff163373ffffffffffffffffffffffffffffffffffffffff1614620010d4576040517f08c379a0000000000000000000000000000000000000000000000000000000008152600401620010cb90620031a3565b60405180910390fd5b6001600d600085815260200190815260200160002060006101000a81548160ff0219169083151502179055506200112560405180608001604052806047815260200162005160604791393362001765565b6200114a60405180606001604052806029815260200162005137602991393062001765565b620011673033856040518060200160405280600081525062000d9f565b5060003090506001600e60003373ffffffffffffffffffffffffffffffffffffffff1673ffffffffffffffffffffffffffffffffffffffff16815260200190815260200160002060006101000a81548160ff021916908315150217905550600b60009054906101000a900473ffffffffffffffffffffffffffffffffffffffff1673ffffffffffffffffffffffffffffffffffffffff166342842e0e3330876040518463ffffffff1660e01b8152600401620012269392919062002e33565b600060405180830381600087803b1580156200124157600080fd5b505af115801562001256573d6000803e3d6000fd5b50505050620012688482858562001f9a565b5050505050565b606060018054620012809062003470565b80601f0160208091040260200160405190810160405280929190818152602001828054620012ae9062003470565b8015620012ff5780601f10620012d357610100808354040283529160200191620012ff565b820191906000526020600020905b815481529060010190602001808311620012e157829003601f168201915b5050505050905090565b62001313620018ba565b73ffffffffffffffffffffffffffffffffffffffff168273ffffffffffffffffffffffffffffffffffffffff16141562001384576040517f08c379a00000000000000000000000000000000000000000000000000000000081526004016200137b9062002fe9565b60405180910390fd5b806005600062001393620018ba565b73ffffffffffffffffffffffffffffffffffffffff1673ffffffffffffffffffffffffffffffffffffffff16815260200190815260200160002060008473ffffffffffffffffffffffffffffffffffffffff1673ffffffffffffffffffffffffffffffffffffffff16815260200190815260200160002060006101000a81548160ff0219169083151502179055508173ffffffffffffffffffffffffffffffffffffffff1662001442620018ba565b73ffffffffffffffffffffffffffffffffffffffff167f17307eab39ab6107e8899845ad3d59bd9653f200f220920489ca2b5937696c318360405162001489919062002ef1565b60405180910390a35050565b620014aa620014a3620018ba565b8362001a9f565b620014ec576040517f08c379a0000000000000000000000000000000000000000000000000000000008152600401620014e39062003181565b60405180910390fd5b620014fa848484846200217f565b50505050565b60606200150d82620016f9565b6200154f576040517f08c379a000000000000000000000000000000000000000000000000000000000815260040162001546906200313d565b60405180910390fd5b60006200155b620021e2565b905060008151116200157d5760405180602001604052806000815250620015ac565b806200158984620021f9565b6040516020016200159c92919062002dee565b6040516020818303038152906040525b915050919050565b6000600560008473ffffffffffffffffffffffffffffffffffffffff1673ffffffffffffffffffffffffffffffffffffffff16815260200190815260200160002060008373ffffffffffffffffffffffffffffffffffffffff1673ffffffffffffffffffffffffffffffffffffffff16815260200190815260200160002060009054906101000a900460ff16905092915050565b6000600d600083815260200190815260200160002060006101000a81548160ff0219169083151502179055506200167f8162000df5565b6200168c30338362000cfe565b50565b60007f01ffc9a7000000000000000000000000000000000000000000000000000000007bffffffffffffffffffffffffffffffffffffffffffffffffffffffff1916827bffffffffffffffffffffffffffffffffffffffffffffffffffffffff1916149050919050565b60008073ffffffffffffffffffffffffffffffffffffffff166002600084815260200190815260200160002060009054906101000a900473ffffffffffffffffffffffffffffffffffffffff1673ffffffffffffffffffffffffffffffffffffffff1614159050919050565b6200180182826040516024016200177e92919062002f4f565b6040516020818303038152906040527f319af333000000000000000000000000000000000000000000000000000000007bffffffffffffffffffffffffffffffffffffffffffffffffffffffff19166020820180517bffffffffffffffffffffffffffffffffffffffffffffffffffffffff838183161783525050505062002373565b5050565b6000806002600084815260200190815260200160002060009054906101000a900473ffffffffffffffffffffffffffffffffffffffff169050600073ffffffffffffffffffffffffffffffffffffffff168173ffffffffffffffffffffffffffffffffffffffff161415620018b1576040517f08c379a0000000000000000000000000000000000000000000000000000000008152600401620018a89062003093565b60405180910390fd5b80915050919050565b600033905090565b816004600083815260200190815260200160002060006101000a81548173ffffffffffffffffffffffffffffffffffffffff021916908373ffffffffffffffffffffffffffffffffffffffff160217905550808273ffffffffffffffffffffffffffffffffffffffff16620019378362001805565b73ffffffffffffffffffffffffffffffffffffffff167f8c5be1e5ebec7d5bd14f71427d1e84f3dd0314c0f7b2291e5b200ac8c7c3b92560405160405180910390a45050565b6000806006600086815260200190815260200160002060009054906101000a900473ffffffffffffffffffffffffffffffffffffffff169050600081905060008173ffffffffffffffffffffffffffffffffffffffff1663025e7c27876040518263ffffffff1660e01b8152600401620019f89190620031c5565b60206040518083038186803b15801562001a1157600080fd5b505afa15801562001a26573d6000803e3d6000fd5b505050506040513d601f19601f8201168201806040525081019062001a4c9190620026a5565b90508473ffffffffffffffffffffffffffffffffffffffff168173ffffffffffffffffffffffffffffffffffffffff16141562001a90576001935050505062001a98565b600093505050505b9392505050565b600062001aac82620016f9565b62001aee576040517f08c379a000000000000000000000000000000000000000000000000000000000815260040162001ae5906200300b565b60405180910390fd5b600062001afb8362001805565b90508073ffffffffffffffffffffffffffffffffffffffff168473ffffffffffffffffffffffffffffffffffffffff16148062001b6d57508373ffffffffffffffffffffffffffffffffffffffff1662001b5584620007e4565b73ffffffffffffffffffffffffffffffffffffffff16145b8062001b81575062001b808185620015b4565b5b91505092915050565b8273ffffffffffffffffffffffffffffffffffffffff1662001bac8262001805565b73ffffffffffffffffffffffffffffffffffffffff161462001c05576040517f08c379a000000000000000000000000000000000000000000000000000000000815260040162001bfc906200311b565b60405180910390fd5b600073ffffffffffffffffffffffffffffffffffffffff168273ffffffffffffffffffffffffffffffffffffffff16141562001c78576040517f08c379a000000000000000000000000000000000000000000000000000000000815260040162001c6f9062002fc7565b60405180910390fd5b62001c858383836200239c565b62001c92600082620018c2565b6001600360008573ffffffffffffffffffffffffffffffffffffffff1673ffffffffffffffffffffffffffffffffffffffff168152602001908152602001600020600082825462001ce491906200337a565b925050819055506001600360008473ffffffffffffffffffffffffffffffffffffffff1673ffffffffffffffffffffffffffffffffffffffff168152602001908152602001600020600082825462001d3d919062003284565b92505081905550816002600083815260200190815260200160002060006101000a81548173ffffffffffffffffffffffffffffffffffffffff021916908373ffffffffffffffffffffffffffffffffffffffff160217905550808273ffffffffffffffffffffffffffffffffffffffff168473ffffffffffffffffffffffffffffffffffffffff167fddf252ad1be2c89b69c2b068fc378daa952ba7f163c4a11628f55a4df523b3ef60405160405180910390a4505050565b60006006600084815260200190815260200160002060009054906101000a900473ffffffffffffffffffffffffffffffffffffffff1673ffffffffffffffffffffffffffffffffffffffff16636352211e836040518263ffffffff1660e01b815260040162001e669190620031c5565b60206040518083038186803b15801562001e7f57600080fd5b505afa15801562001e94573d6000803e3d6000fd5b505050506040513d601f19601f8201168201806040525081019062001eba9190620026a5565b905092915050565b6000600a6000838152602001908152602001600020549050919050565b60008073ffffffffffffffffffffffffffffffffffffffff168273ffffffffffffffffffffffffffffffffffffffff16141562001f53576040517f08c379a000000000000000000000000000000000000000000000000000000000815260040162001f4a906200304f565b60405180910390fd5b600360008373ffffffffffffffffffffffffffffffffffffffff1673ffffffffffffffffffffffffffffffffffffffff168152602001908152602001600020549050919050565b6019821062001fe0576040517f08c379a000000000000000000000000000000000000000000000000000000000815260040162001fd790620030f9565b60405180910390fd5b804262001fee919062003284565b60098190555060008460405162002005906200255d565b620020119190620031c5565b604051809103906000f0801580156200202e573d6000803e3d6000fd5b5090506000819050806006600088815260200190815260200160002060006101000a81548173ffffffffffffffffffffffffffffffffffffffff021916908373ffffffffffffffffffffffffffffffffffffffff16021790555060005b8481101562002176576000600182620020a5919062003284565b6103e889620020b5919062003319565b620020c1919062003284565b9050600a60008981526020019081526020016000206000815480929190620020e990620034dc565b91905055508373ffffffffffffffffffffffffffffffffffffffff1663b3e1c71888836040518363ffffffff1660e01b81526004016200212b92919062002ec4565b600060405180830381600087803b1580156200214657600080fd5b505af11580156200215b573d6000803e3d6000fd5b505050505080806200216d90620034dc565b9150506200208b565b50505050505050565b6200218c84848462001b8a565b6200219a84848484620023a1565b620021dc576040517f08c379a0000000000000000000000000000000000000000000000000000000008152600401620021d39062002f83565b60405180910390fd5b50505050565b606060405180602001604052806000815250905090565b6060600082141562002243576040518060400160405280600181526020017f300000000000000000000000000000000000000000000000000000000000000081525090506200236e565b600082905060005b600082146200227b5780806200226190620034dc565b915050600a82620022739190620032e1565b91506200224b565b60008167ffffffffffffffff8111156200229a57620022996200361e565b5b6040519080825280601f01601f191660200182016040528015620022cd5781602001600182028036833780820191505090505b5090505b600085146200236757600182620022e991906200337a565b9150600a85620022fa91906200352a565b603062002308919062003284565b60f81b818381518110620023215762002320620035ef565b5b60200101907effffffffffffffffffffffffffffffffffffffffffffffffffffffffffffff1916908160001a905350600a856200235f9190620032e1565b9450620022d1565b8093505050505b919050565b60008151905060006a636f6e736f6c652e6c6f679050602083016000808483855afa5050505050565b505050565b6000620023c48473ffffffffffffffffffffffffffffffffffffffff166200254a565b156200253d578373ffffffffffffffffffffffffffffffffffffffff1663150b7a02620023f0620018ba565b8786866040518563ffffffff1660e01b815260040162002414949392919062002e70565b602060405180830381600087803b1580156200242f57600080fd5b505af19250505080156200246357506040513d601f19601f820116820180604052508101906200246091906200293d565b60015b620024ec573d806000811462002496576040519150601f19603f3d011682016040523d82523d6000602084013e6200249b565b606091505b50600081511415620024e4576040517f08c379a0000000000000000000000000000000000000000000000000000000008152600401620024db9062002f83565b60405180910390fd5b805181602001fd5b63150b7a0260e01b7bffffffffffffffffffffffffffffffffffffffffffffffffffffffff1916817bffffffffffffffffffffffffffffffffffffffffffffffffffffffff19161491505062002542565b600190505b949350505050565b600080823b905060008111915050919050565b6114e68062003c1a83390190565b6000620025826200257c846200320b565b620031e2565b905082815260208101848484011115620025a157620025a062003652565b5b620025ae8482856200342b565b509392505050565b600081359050620025c78162003bb1565b92915050565b600081519050620025de8162003bb1565b92915050565b600081359050620025f58162003bcb565b92915050565b6000813590506200260c8162003be5565b92915050565b600081519050620026238162003be5565b92915050565b600082601f8301126200264157620026406200364d565b5b8135620026538482602086016200256b565b91505092915050565b6000813590506200266d8162003bff565b92915050565b6000602082840312156200268c576200268b6200365c565b5b60006200269c84828501620025b6565b91505092915050565b600060208284031215620026be57620026bd6200365c565b5b6000620026ce84828501620025cd565b91505092915050565b60008060408385031215620026f157620026f06200365c565b5b60006200270185828601620025b6565b92505060206200271485828601620025b6565b9150509250929050565b6000806000606084860312156200273a57620027396200365c565b5b60006200274a86828701620025b6565b93505060206200275d86828701620025b6565b925050604062002770868287016200265c565b9150509250925092565b600080600080608085870312156200279757620027966200365c565b5b6000620027a787828801620025b6565b9450506020620027ba87828801620025b6565b9350506040620027cd878288016200265c565b925050606085013567ffffffffffffffff811115620027f157620027f062003657565b5b620027ff8782880162002629565b91505092959194509250565b600080604083850312156200282557620028246200365c565b5b60006200283585828601620025b6565b92505060206200284885828601620025e4565b9150509250929050565b600080604083850312156200286c576200286b6200365c565b5b60006200287c85828601620025b6565b92505060206200288f858286016200265c565b9150509250929050565b60008060008060808587031215620028b657620028b56200365c565b5b6000620028c687828801620025b6565b9450506020620028d9878288016200265c565b9350506040620028ec878288016200265c565b9250506060620028ff878288016200265c565b91505092959194509250565b6000602082840312156200292457620029236200365c565b5b60006200293484828501620025fb565b91505092915050565b6000602082840312156200295657620029556200365c565b5b6000620029668482850162002612565b91505092915050565b6000602082840312156200298857620029876200365c565b5b600062002998848285016200265c565b91505092915050565b60008060408385031215620029bb57620029ba6200365c565b5b6000620029cb858286016200265c565b9250506020620029de858286016200265c565b9150509250929050565b6000806000806080858703121562002a055762002a046200365c565b5b600062002a15878288016200265c565b945050602062002a28878288016200265c565b935050604062002a3b87828801620025b6565b925050606062002a4e87828801620025b6565b91505092959194509250565b62002a6581620033b5565b82525050565b62002a7681620033c9565b82525050565b62002a8781620033d5565b82525050565b600062002a9a8262003241565b62002aa6818562003257565b935062002ab88185602086016200343a565b62002ac38162003661565b840191505092915050565b600062002adb826200324c565b62002ae7818562003268565b935062002af98185602086016200343a565b62002b048162003661565b840191505092915050565b600062002b1c826200324c565b62002b28818562003279565b935062002b3a8185602086016200343a565b80840191505092915050565b600062002b5560328362003268565b915062002b628262003672565b604082019050919050565b600062002b7c60468362003268565b915062002b8982620036c1565b606082019050919050565b600062002ba360248362003268565b915062002bb08262003736565b604082019050919050565b600062002bca60198362003268565b915062002bd78262003785565b602082019050919050565b600062002bf1602c8362003268565b915062002bfe82620037ae565b604082019050919050565b600062002c1860388362003268565b915062002c2582620037fd565b604082019050919050565b600062002c3f602a8362003268565b915062002c4c826200384c565b604082019050919050565b600062002c6660368362003268565b915062002c73826200389b565b604082019050919050565b600062002c8d60298362003268565b915062002c9a82620038ea565b604082019050919050565b600062002cb460318362003268565b915062002cc18262003939565b604082019050919050565b600062002cdb602c8362003268565b915062002ce88262003988565b604082019050919050565b600062002d02603a8362003268565b915062002d0f82620039d7565b604082019050919050565b600062002d2960298362003268565b915062002d368262003a26565b604082019050919050565b600062002d50602f8362003268565b915062002d5d8262003a75565b604082019050919050565b600062002d7760218362003268565b915062002d848262003ac4565b604082019050919050565b600062002d9e60318362003268565b915062002dab8262003b13565b604082019050919050565b600062002dc5602c8362003268565b915062002dd28262003b62565b604082019050919050565b62002de88162003421565b82525050565b600062002dfc828562002b0f565b915062002e0a828462002b0f565b91508190509392505050565b600060208201905062002e2d600083018462002a5a565b92915050565b600060608201905062002e4a600083018662002a5a565b62002e59602083018562002a5a565b62002e68604083018462002ddd565b949350505050565b600060808201905062002e87600083018762002a5a565b62002e96602083018662002a5a565b62002ea5604083018562002ddd565b818103606083015262002eb9818462002a8d565b905095945050505050565b600060408201905062002edb600083018562002a5a565b62002eea602083018462002ddd565b9392505050565b600060208201905062002f08600083018462002a6b565b92915050565b600060208201905062002f25600083018462002a7c565b92915050565b6000602082019050818103600083015262002f47818462002ace565b905092915050565b6000604082019050818103600083015262002f6b818562002ace565b905062002f7c602083018462002a5a565b9392505050565b6000602082019050818103600083015262002f9e8162002b46565b9050919050565b6000602082019050818103600083015262002fc08162002b6d565b9050919050565b6000602082019050818103600083015262002fe28162002b94565b9050919050565b60006020820190508181036000830152620030048162002bbb565b9050919050565b60006020820190508181036000830152620030268162002be2565b9050919050565b60006020820190508181036000830152620030488162002c09565b9050919050565b600060208201905081810360008301526200306a8162002c30565b9050919050565b600060208201905081810360008301526200308c8162002c57565b9050919050565b60006020820190508181036000830152620030ae8162002c7e565b9050919050565b60006020820190508181036000830152620030d08162002ca5565b9050919050565b60006020820190508181036000830152620030f28162002ccc565b9050919050565b60006020820190508181036000830152620031148162002cf3565b9050919050565b60006020820190508181036000830152620031368162002d1a565b9050919050565b60006020820190508181036000830152620031588162002d41565b9050919050565b600060208201905081810360008301526200317a8162002d68565b9050919050565b600060208201905081810360008301526200319c8162002d8f565b9050919050565b60006020820190508181036000830152620031be8162002db6565b9050919050565b6000602082019050620031dc600083018462002ddd565b92915050565b6000620031ee62003201565b9050620031fc8282620034a6565b919050565b6000604051905090565b600067ffffffffffffffff8211156200322957620032286200361e565b5b620032348262003661565b9050602081019050919050565b600081519050919050565b600081519050919050565b600082825260208201905092915050565b600082825260208201905092915050565b600081905092915050565b6000620032918262003421565b91506200329e8362003421565b9250827fffffffffffffffffffffffffffffffffffffffffffffffffffffffffffffffff03821115620032d657620032d562003562565b5b828201905092915050565b6000620032ee8262003421565b9150620032fb8362003421565b9250826200330e576200330d62003591565b5b828204905092915050565b6000620033268262003421565b9150620033338362003421565b9250817fffffffffffffffffffffffffffffffffffffffffffffffffffffffffffffffff04831182151516156200336f576200336e62003562565b5b828202905092915050565b6000620033878262003421565b9150620033948362003421565b925082821015620033aa57620033a962003562565b5b828203905092915050565b6000620033c28262003401565b9050919050565b60008115159050919050565b60007fffffffff0000000000000000000000000000000000000000000000000000000082169050919050565b600073ffffffffffffffffffffffffffffffffffffffff82169050919050565b6000819050919050565b82818337600083830152505050565b60005b838110156200345a5780820151818401526020810190506200343d565b838111156200346a576000848401525b50505050565b600060028204905060018216806200348957607f821691505b60208210811415620034a0576200349f620035c0565b5b50919050565b620034b18262003661565b810181811067ffffffffffffffff82111715620034d357620034d26200361e565b5b80604052505050565b6000620034e98262003421565b91507fffffffffffffffffffffffffffffffffffffffffffffffffffffffffffffffff8214156200351f576200351e62003562565b5b600182019050919050565b6000620035378262003421565b9150620035448362003421565b92508262003557576200355662003591565b5b828206905092915050565b7f4e487b7100000000000000000000000000000000000000000000000000000000600052601160045260246000fd5b7f4e487b7100000000000000000000000000000000000000000000000000000000600052601260045260246000fd5b7f4e487b7100000000000000000000000000000000000000000000000000000000600052602260045260246000fd5b7f4e487b7100000000000000000000000000000000000000000000000000000000600052603260045260246000fd5b7f4e487b7100000000000000000000000000000000000000000000000000000000600052604160045260246000fd5b600080fd5b600080fd5b600080fd5b600080fd5b6000601f19601f8301169050919050565b7f4552433732313a207472616e7366657220746f206e6f6e20455243373231526560008201527f63656976657220696d706c656d656e7465720000000000000000000000000000602082015250565b7f417065546f6b656e466163746f72793a20436f72726573706f6e64696e67204160008201527f7065546f6b656e732063616e6e6f74206265206275726e65642061742074686960208201527f732074696d650000000000000000000000000000000000000000000000000000604082015250565b7f4552433732313a207472616e7366657220746f20746865207a65726f2061646460008201527f7265737300000000000000000000000000000000000000000000000000000000602082015250565b7f4552433732313a20617070726f766520746f2063616c6c657200000000000000600082015250565b7f4552433732313a206f70657261746f7220717565727920666f72206e6f6e657860008201527f697374656e7420746f6b656e0000000000000000000000000000000000000000602082015250565b7f4552433732313a20617070726f76652063616c6c6572206973206e6f74206f7760008201527f6e6572206e6f7220617070726f76656420666f7220616c6c0000000000000000602082015250565b7f4552433732313a2062616c616e636520717565727920666f7220746865207a6560008201527f726f206164647265737300000000000000000000000000000000000000000000602082015250565b7f417065546f6b656e466163746f72793a205468697320746f6b656e206973206e60008201527f6f7420617661696c61626c6520746f20626f72726f7700000000000000000000602082015250565b7f4552433732313a206f776e657220717565727920666f72206e6f6e657869737460008201527f656e7420746f6b656e0000000000000000000000000000000000000000000000602082015250565b7f4170654c656e643a20596f752068617665206e6f742070726f7669646564206160008201527f20746f6b656e20746f204170654c656e64000000000000000000000000000000602082015250565b7f4552433732313a20617070726f76656420717565727920666f72206e6f6e657860008201527f697374656e7420746f6b656e0000000000000000000000000000000000000000602082015250565b7f417065546f6b656e3a20596f752063616e6e6f74206d696e74206d6f7265207460008201527f68616e20323520617065546f6b656e732070657220746f6b656e000000000000602082015250565b7f4552433732313a207472616e73666572206f6620746f6b656e2074686174206960008201527f73206e6f74206f776e0000000000000000000000000000000000000000000000602082015250565b7f4552433732314d657461646174613a2055524920717565727920666f72206e6f60008201527f6e6578697374656e7420746f6b656e0000000000000000000000000000000000602082015250565b7f4552433732313a20617070726f76616c20746f2063757272656e74206f776e6560008201527f7200000000000000000000000000000000000000000000000000000000000000602082015250565b7f4552433732313a207472616e736665722063616c6c6572206973206e6f74206f60008201527f776e6572206e6f7220617070726f766564000000000000000000000000000000602082015250565b7f4170654c656e643a20596f7520617265206e6f7420746865206f776e6572206f60008201527f66207468697320746f6b656e0000000000000000000000000000000000000000602082015250565b62003bbc81620033b5565b811462003bc857600080fd5b50565b62003bd681620033c9565b811462003be257600080fd5b50565b62003bf081620033d5565b811462003bfc57600080fd5b50565b62003c0a8162003421565b811462003c1657600080fd5b5056fe60806040523480156200001157600080fd5b50604051620014e6380380620014e683398181016040528101906200003791906200005c565b8060008190555050620000b7565b60008151905062000056816200009d565b92915050565b60006020828403121562000075576200007462000098565b5b6000620000858482850162000045565b91505092915050565b6000819050919050565b600080fd5b620000a8816200008e565b8114620000b457600080fd5b50565b61141f80620000c76000396000f3fe608060405234801561001057600080fd5b50600436106100885760003560e01c80636a4f832b1161005b5780636a4f832b146101395780639b1f9e7414610155578063b3e1c71814610171578063b88d4fde1461018d57610088565b8063025e7c271461008d578063081812fc146100bd57806342842e0e146100ed5780636352211e14610109575b600080fd5b6100a760048036038101906100a29190610d0a565b6101a9565b6040516100b49190610e5e565b60405180910390f35b6100d760048036038101906100d29190610d0a565b6101e6565b6040516100e49190610e5e565b60405180910390f35b61010760048036038101906101029190610b85565b61026b565b005b610123600480360381019061011e9190610d0a565b61028b565b6040516101309190610e5e565b60405180910390f35b610153600480360381019061014e9190610c9b565b61033d565b005b61016f600480360381019061016a9190610d0a565b61034c565b005b61018b60048036038101906101869190610c5b565b610450565b005b6101a760048036038101906101a29190610bd8565b61046e565b005b60006002600083815260200190815260200160002060009054906101000a900473ffffffffffffffffffffffffffffffffffffffff169050919050565b60006101f1826104d0565b610230576040517f08c379a000000000000000000000000000000000000000000000000000000000815260040161022790610f39565b60405180910390fd5b6003600083815260200190815260200160002060009054906101000a900473ffffffffffffffffffffffffffffffffffffffff169050919050565b6102868383836040518060200160405280600081525061046e565b505050565b6000806002600084815260200190815260200160002060009054906101000a900473ffffffffffffffffffffffffffffffffffffffff169050600073ffffffffffffffffffffffffffffffffffffffff168173ffffffffffffffffffffffffffffffffffffffff161415610334576040517f08c379a000000000000000000000000000000000000000000000000000000000815260040161032b90610eb9565b60405180910390fd5b80915050919050565b610347838361053c565b505050565b60006103578261028b565b90506103646000836106fd565b60018060008373ffffffffffffffffffffffffffffffffffffffff1673ffffffffffffffffffffffffffffffffffffffff16815260200190815260200160002060008282546103b39190611036565b925050819055506002600083815260200190815260200160002060006101000a81549073ffffffffffffffffffffffffffffffffffffffff021916905581600073ffffffffffffffffffffffffffffffffffffffff168273ffffffffffffffffffffffffffffffffffffffff167fddf252ad1be2c89b69c2b068fc378daa952ba7f163c4a11628f55a4df523b3ef60405160405180910390a45050565b61046a82826040518060200160405280600081525061033d565b5050565b61047f6104796107b6565b836107be565b6104be576040517f08c379a00000000000000000000000000000000000000000000000000000000081526004016104b590610e79565b60405180910390fd5b6104ca8484848461088b565b50505050565b60008073ffffffffffffffffffffffffffffffffffffffff166002600084815260200190815260200160002060009054906101000a900473ffffffffffffffffffffffffffffffffffffffff1673ffffffffffffffffffffffffffffffffffffffff1614159050919050565b600073ffffffffffffffffffffffffffffffffffffffff168273ffffffffffffffffffffffffffffffffffffffff1614156105ac576040517f08c379a00000000000000000000000000000000000000000000000000000000081526004016105a390610e99565b60405180910390fd5b6105b5816104d0565b156105f5576040517f08c379a00000000000000000000000000000000000000000000000000000000081526004016105ec90610f19565b60405180910390fd5b60018060008473ffffffffffffffffffffffffffffffffffffffff1673ffffffffffffffffffffffffffffffffffffffff16815260200190815260200160002060008282546106449190610fe0565b92505081905550816002600083815260200190815260200160002060006101000a81548173ffffffffffffffffffffffffffffffffffffffff021916908373ffffffffffffffffffffffffffffffffffffffff160217905550808273ffffffffffffffffffffffffffffffffffffffff16600073ffffffffffffffffffffffffffffffffffffffff167fddf252ad1be2c89b69c2b068fc378daa952ba7f163c4a11628f55a4df523b3ef60405160405180910390a45050565b816003600083815260200190815260200160002060006101000a81548173ffffffffffffffffffffffffffffffffffffffff021916908373ffffffffffffffffffffffffffffffffffffffff160217905550808273ffffffffffffffffffffffffffffffffffffffff166107708361028b565b73ffffffffffffffffffffffffffffffffffffffff167f8c5be1e5ebec7d5bd14f71427d1e84f3dd0314c0f7b2291e5b200ac8c7c3b92560405160405180910390a45050565b600033905090565b60006107c9826104d0565b610808576040517f08c379a00000000000000000000000000000000000000000000000000000000081526004016107ff90610f59565b60405180910390fd5b6000610813836101a9565b90508073ffffffffffffffffffffffffffffffffffffffff168473ffffffffffffffffffffffffffffffffffffffff16148061088257508373ffffffffffffffffffffffffffffffffffffffff1661086a846101e6565b73ffffffffffffffffffffffffffffffffffffffff16145b91505092915050565b61089684848461089c565b50505050565b8273ffffffffffffffffffffffffffffffffffffffff166108bc826101a9565b73ffffffffffffffffffffffffffffffffffffffff1614610912576040517f08c379a000000000000000000000000000000000000000000000000000000000815260040161090990610ed9565b60405180910390fd5b600073ffffffffffffffffffffffffffffffffffffffff168273ffffffffffffffffffffffffffffffffffffffff161415610982576040517f08c379a000000000000000000000000000000000000000000000000000000000815260040161097990610ef9565b60405180910390fd5b61098d6000826106fd565b60018060008573ffffffffffffffffffffffffffffffffffffffff1673ffffffffffffffffffffffffffffffffffffffff16815260200190815260200160002060008282546109dc9190611036565b9250508190555060018060008473ffffffffffffffffffffffffffffffffffffffff1673ffffffffffffffffffffffffffffffffffffffff1681526020019081526020016000206000828254610a329190610fe0565b92505081905550816002600083815260200190815260200160002060006101000a81548173ffffffffffffffffffffffffffffffffffffffff021916908373ffffffffffffffffffffffffffffffffffffffff160217905550808273ffffffffffffffffffffffffffffffffffffffff168473ffffffffffffffffffffffffffffffffffffffff167fddf252ad1be2c89b69c2b068fc378daa952ba7f163c4a11628f55a4df523b3ef60405160405180910390a4505050565b6000610afe610af984610f9e565b610f79565b905082815260208101848484011115610b1a57610b19611149565b5b610b258482856110a6565b509392505050565b600081359050610b3c816113bb565b92915050565b600082601f830112610b5757610b56611144565b5b8135610b67848260208601610aeb565b91505092915050565b600081359050610b7f816113d2565b92915050565b600080600060608486031215610b9e57610b9d611153565b5b6000610bac86828701610b2d565b9350506020610bbd86828701610b2d565b9250506040610bce86828701610b70565b9150509250925092565b60008060008060808587031215610bf257610bf1611153565b5b6000610c0087828801610b2d565b9450506020610c1187828801610b2d565b9350506040610c2287828801610b70565b925050606085013567ffffffffffffffff811115610c4357610c4261114e565b5b610c4f87828801610b42565b91505092959194509250565b60008060408385031215610c7257610c71611153565b5b6000610c8085828601610b2d565b9250506020610c9185828601610b70565b9150509250929050565b600080600060608486031215610cb457610cb3611153565b5b6000610cc286828701610b2d565b9350506020610cd386828701610b70565b925050604084013567ffffffffffffffff811115610cf457610cf361114e565b5b610d0086828701610b42565b9150509250925092565b600060208284031215610d2057610d1f611153565b5b6000610d2e84828501610b70565b91505092915050565b610d408161106a565b82525050565b6000610d53603383610fcf565b9150610d5e82611169565b604082019050919050565b6000610d76602283610fcf565b9150610d81826111b8565b604082019050919050565b6000610d99602b83610fcf565b9150610da482611207565b604082019050919050565b6000610dbc602b83610fcf565b9150610dc782611256565b604082019050919050565b6000610ddf602683610fcf565b9150610dea826112a5565b604082019050919050565b6000610e02601e83610fcf565b9150610e0d826112f4565b602082019050919050565b6000610e25602e83610fcf565b9150610e308261131d565b604082019050919050565b6000610e48602e83610fcf565b9150610e538261136c565b604082019050919050565b6000602082019050610e736000830184610d37565b92915050565b60006020820190508181036000830152610e9281610d46565b9050919050565b60006020820190508181036000830152610eb281610d69565b9050919050565b60006020820190508181036000830152610ed281610d8c565b9050919050565b60006020820190508181036000830152610ef281610daf565b9050919050565b60006020820190508181036000830152610f1281610dd2565b9050919050565b60006020820190508181036000830152610f3281610df5565b9050919050565b60006020820190508181036000830152610f5281610e18565b9050919050565b60006020820190508181036000830152610f7281610e3b565b9050919050565b6000610f83610f94565b9050610f8f82826110b5565b919050565b6000604051905090565b600067ffffffffffffffff821115610fb957610fb8611115565b5b610fc282611158565b9050602081019050919050565b600082825260208201905092915050565b6000610feb8261109c565b9150610ff68361109c565b9250827fffffffffffffffffffffffffffffffffffffffffffffffffffffffffffffffff0382111561102b5761102a6110e6565b5b828201905092915050565b60006110418261109c565b915061104c8361109c565b92508282101561105f5761105e6110e6565b5b828203905092915050565b60006110758261107c565b9050919050565b600073ffffffffffffffffffffffffffffffffffffffff82169050919050565b6000819050919050565b82818337600083830152505050565b6110be82611158565b810181811067ffffffffffffffff821117156110dd576110dc611115565b5b80604052505050565b7f4e487b7100000000000000000000000000000000000000000000000000000000600052601160045260246000fd5b7f4e487b7100000000000000000000000000000000000000000000000000000000600052604160045260246000fd5b600080fd5b600080fd5b600080fd5b600080fd5b6000601f19601f8301169050919050565b7f417065546f6b656e3a207472616e736665722063616c6c6572206973206e6f7460008201527f206f776e6572206e6f7220617070726f76656400000000000000000000000000602082015250565b7f417065546f6b656e3a206d696e7420746f20746865207a65726f20616464726560008201527f7373000000000000000000000000000000000000000000000000000000000000602082015250565b7f417065546f6b656e3a206f776e657220717565727920666f72206e6f6e65786960008201527f7374656e7420746f6b656e000000000000000000000000000000000000000000602082015250565b7f417065546f6b656e3a207472616e73666572206f6620746f6b656e207468617460008201527f206973206e6f74206f776e000000000000000000000000000000000000000000602082015250565b7f417065546f6b656e3a207472616e7366657220746f20746865207a65726f206160008201527f6464726573730000000000000000000000000000000000000000000000000000602082015250565b7f417065546f6b656e3a20746f6b656e20616c7265616479206d696e7465640000600082015250565b7f417065546f6b656e3a20617070726f76656420717565727920666f72206e6f6e60008201527f6578697374656e7420746f6b656e000000000000000000000000000000000000602082015250565b7f417065546f6b656e3a206f70657261746f7220717565727920666f72206e6f6e60008201527f6578697374656e7420746f6b656e000000000000000000000000000000000000602082015250565b6113c48161106a565b81146113cf57600080fd5b50565b6113db8161109c565b81146113e657600080fd5b5056fea2646970667358221220a91f4893d315aa70fe2a291bdc2f0892bec84872e11e9accb919719e75ed54c264736f6c634300080600336d73672e73656e6465722063616c6c696e6720617070726f7665282920696e73696465206f66204552433732312e736f6c2069732025737468652061646472657373206f6620746865204170654c656e6420636f6e74726163742069732025736d73672e73656e6465722063616c6c696e6720617070726f7665282920696e73696465206f66206c656e64546f6b656e282920696e204170654c656e642e736f6c206973202573a26469706673582212200847a3cde9822d9bb3166dc5ea9fe3b8357f15c9c1777428cba299e3cf70942d64736f6c63430008060033",
  "linkReferences": {},
  "deployedLinkReferences": {}
}