{
  "_format": "hh-sol-artifact-1",
  "contractName": "ApeLend",
  "sourceName": "contracts/ApeLend.sol",
  "abi": [
    {
      "inputs": [],
      "stateMutability": "nonpayable",
      "type": "constructor"
    },
    {
      "anonymous": false,
      "inputs": [
        {
          "indexed": true,
          "internalType": "address",
          "name": "owner",
          "type": "address"
        },
        {
          "indexed": true,
          "internalType": "address",
          "name": "approved",
          "type": "address"
        },
        {
          "indexed": true,
          "internalType": "uint256",
          "name": "tokenId",
          "type": "uint256"
        }
      ],
      "name": "Approval",
      "type": "event"
    },
    {
      "anonymous": false,
      "inputs": [
        {
          "indexed": true,
          "internalType": "address",
          "name": "owner",
          "type": "address"
        },
        {
          "indexed": true,
          "internalType": "address",
          "name": "operator",
          "type": "address"
        },
        {
          "indexed": false,
          "internalType": "bool",
          "name": "approved",
          "type": "bool"
        }
      ],
      "name": "ApprovalForAll",
      "type": "event"
    },
    {
      "anonymous": false,
      "inputs": [
        {
          "indexed": true,
          "internalType": "address",
          "name": "from",
          "type": "address"
        },
        {
          "indexed": true,
          "internalType": "address",
          "name": "to",
          "type": "address"
        },
        {
          "indexed": true,
          "internalType": "uint256",
          "name": "tokenId",
          "type": "uint256"
        }
      ],
      "name": "Transfer",
      "type": "event"
    },
    {
      "inputs": [
        {
          "internalType": "address",
          "name": "to",
          "type": "address"
        },
        {
          "internalType": "uint256",
          "name": "tokenId",
          "type": "uint256"
        }
      ],
      "name": "approve",
      "outputs": [],
      "stateMutability": "nonpayable",
      "type": "function"
    },
    {
      "inputs": [
        {
          "internalType": "address",
          "name": "_owner",
          "type": "address"
        }
      ],
      "name": "balanceOf",
      "outputs": [
        {
          "internalType": "uint256",
          "name": "",
          "type": "uint256"
        }
      ],
      "stateMutability": "view",
      "type": "function"
    },
    {
      "inputs": [
        {
          "internalType": "uint256",
          "name": "tokenId",
          "type": "uint256"
        }
      ],
      "name": "getApproved",
      "outputs": [
        {
          "internalType": "address",
          "name": "",
          "type": "address"
        }
      ],
      "stateMutability": "view",
      "type": "function"
    },
    {
      "inputs": [
        {
          "internalType": "address",
          "name": "owner",
          "type": "address"
        },
        {
          "internalType": "address",
          "name": "operator",
          "type": "address"
        }
      ],
      "name": "isApprovedForAll",
      "outputs": [
        {
          "internalType": "bool",
          "name": "",
          "type": "bool"
        }
      ],
      "stateMutability": "view",
      "type": "function"
    },
    {
      "inputs": [
        {
          "internalType": "uint256",
          "name": "_tokenId",
          "type": "uint256"
        },
        {
          "internalType": "uint256",
          "name": "_apeTokenAmount",
          "type": "uint256"
        },
        {
          "internalType": "uint256",
          "name": "_apeTokenReturnWindow",
          "type": "uint256"
        }
      ],
      "name": "lendToken",
      "outputs": [],
      "stateMutability": "nonpayable",
      "type": "function"
    },
    {
      "inputs": [],
      "name": "name",
      "outputs": [
        {
          "internalType": "string",
          "name": "",
          "type": "string"
        }
      ],
      "stateMutability": "view",
      "type": "function"
    },
    {
      "inputs": [
        {
          "internalType": "address",
          "name": "",
          "type": "address"
        },
        {
          "internalType": "address",
          "name": "",
          "type": "address"
        },
        {
          "internalType": "uint256",
          "name": "",
          "type": "uint256"
        },
        {
          "internalType": "bytes",
          "name": "",
          "type": "bytes"
        }
      ],
      "name": "onERC721Received",
      "outputs": [
        {
          "internalType": "bytes4",
          "name": "",
          "type": "bytes4"
        }
      ],
      "stateMutability": "nonpayable",
      "type": "function"
    },
    {
      "inputs": [
        {
          "internalType": "address",
          "name": "operator",
          "type": "address"
        },
        {
          "internalType": "address",
          "name": "from",
          "type": "address"
        },
        {
          "internalType": "uint256",
          "name": "tokenId",
          "type": "uint256"
        },
        {
          "internalType": "bytes",
          "name": "data",
          "type": "bytes"
        }
      ],
      "name": "onERC721ReceivedToProtocol",
      "outputs": [
        {
          "internalType": "bytes4",
          "name": "",
          "type": "bytes4"
        }
      ],
      "stateMutability": "nonpayable",
      "type": "function"
    },
    {
      "inputs": [
        {
          "internalType": "uint256",
          "name": "_tokenId",
          "type": "uint256"
        }
      ],
      "name": "ownerOf",
      "outputs": [
        {
          "internalType": "address",
          "name": "",
          "type": "address"
        }
      ],
      "stateMutability": "view",
      "type": "function"
    },
    {
      "inputs": [
        {
          "internalType": "uint256",
          "name": "_tokenId",
          "type": "uint256"
        },
        {
          "internalType": "uint256",
          "name": "_apeTokenId",
          "type": "uint256"
        }
      ],
      "name": "ownerOfApeToken",
      "outputs": [
        {
          "internalType": "address",
          "name": "_apeTokenOwner",
          "type": "address"
        }
      ],
      "stateMutability": "view",
      "type": "function"
    },
    {
      "inputs": [
        {
          "internalType": "address",
          "name": "_to",
          "type": "address"
        },
        {
          "internalType": "uint256",
          "name": "_tokenId",
          "type": "uint256"
        }
      ],
      "name": "safeMint",
      "outputs": [],
      "stateMutability": "nonpayable",
      "type": "function"
    },
    {
      "inputs": [
        {
          "internalType": "address",
          "name": "from",
          "type": "address"
        },
        {
          "internalType": "address",
          "name": "to",
          "type": "address"
        },
        {
          "internalType": "uint256",
          "name": "tokenId",
          "type": "uint256"
        }
      ],
      "name": "safeTransferFrom",
      "outputs": [],
      "stateMutability": "nonpayable",
      "type": "function"
    },
    {
      "inputs": [
        {
          "internalType": "address",
          "name": "from",
          "type": "address"
        },
        {
          "internalType": "address",
          "name": "to",
          "type": "address"
        },
        {
          "internalType": "uint256",
          "name": "tokenId",
          "type": "uint256"
        },
        {
          "internalType": "bytes",
          "name": "_data",
          "type": "bytes"
        }
      ],
      "name": "safeTransferFrom",
      "outputs": [],
      "stateMutability": "nonpayable",
      "type": "function"
    },
    {
      "inputs": [
        {
          "internalType": "address",
          "name": "operator",
          "type": "address"
        },
        {
          "internalType": "bool",
          "name": "approved",
          "type": "bool"
        }
      ],
      "name": "setApprovalForAll",
      "outputs": [],
      "stateMutability": "nonpayable",
      "type": "function"
    },
    {
      "inputs": [
        {
          "internalType": "bytes4",
          "name": "interfaceId",
          "type": "bytes4"
        }
      ],
      "name": "supportsInterface",
      "outputs": [
        {
          "internalType": "bool",
          "name": "",
          "type": "bool"
        }
      ],
      "stateMutability": "view",
      "type": "function"
    },
    {
      "inputs": [],
      "name": "symbol",
      "outputs": [
        {
          "internalType": "string",
          "name": "",
          "type": "string"
        }
      ],
      "stateMutability": "view",
      "type": "function"
    },
    {
      "inputs": [
        {
          "internalType": "uint256",
          "name": "tokenId",
          "type": "uint256"
        }
      ],
      "name": "tokenURI",
      "outputs": [
        {
          "internalType": "string",
          "name": "",
          "type": "string"
        }
      ],
      "stateMutability": "view",
      "type": "function"
    },
    {
      "inputs": [
        {
          "internalType": "address",
          "name": "from",
          "type": "address"
        },
        {
          "internalType": "address",
          "name": "to",
          "type": "address"
        },
        {
          "internalType": "uint256",
          "name": "tokenId",
          "type": "uint256"
        }
      ],
      "name": "transferFrom",
      "outputs": [],
      "stateMutability": "nonpayable",
      "type": "function"
    },
    {
      "stateMutability": "payable",
      "type": "receive"
    }
  ],
  "bytecode": "0x60806040523480156200001157600080fd5b506040518060400160405280600781526020017f4170654c656e64000000000000000000000000000000000000000000000000008152506040518060400160405280600381526020017f4150450000000000000000000000000000000000000000000000000000000000815250816000908051906020019062000096929190620000f9565b508060019080519060200190620000af929190620000f9565b50505033600a60006101000a81548173ffffffffffffffffffffffffffffffffffffffff021916908373ffffffffffffffffffffffffffffffffffffffff1602179055506200020e565b8280546200010790620001a9565b90600052602060002090601f0160209004810192826200012b576000855562000177565b82601f106200014657805160ff191683800117855562000177565b8280016001018555821562000177579182015b828111156200017657825182559160200191906001019062000159565b5b5090506200018691906200018a565b5090565b5b80821115620001a55760008160009055506001016200018b565b5090565b60006002820490506001821680620001c257607f821691505b60208210811415620001d957620001d8620001df565b5b50919050565b7f4e487b7100000000000000000000000000000000000000000000000000000000600052602260045260246000fd5b6137e7806200021e6000396000f3fe608060405260043610620001275760003560e01c80636352211e11620000a3578063a22cb465116200006d578063a22cb4651462000428578063b88d4fde1462000456578063c87b56dd1462000484578063cd271a5414620004c8578063e985e9c514620004f6576200012f565b80636352211e146200034257806370a08231146200038657806395d89b4114620003ca578063a144819414620003fa576200012f565b8063150b7a0211620000f1578063150b7a02146200021a57806323b872dd146200025e57806337c51b18146200028c57806342842e0e14620002d05780634effdda014620002fe576200012f565b806301ffc9a7146200013457806306fdde031462000178578063081812fc14620001a8578063095ea7b314620001ec576200012f565b366200012f57005b600080fd5b3480156200014157600080fd5b506200016060048036038101906200015a9190620020b4565b6200053a565b6040516200016f919062002620565b60405180910390f35b3480156200018557600080fd5b506200019062000620565b6040516200019f91906200265a565b60405180910390f35b348015620001b557600080fd5b50620001d46004803603810190620001ce919062002118565b620006ba565b604051620001e3919062002582565b60405180910390f35b348015620001f957600080fd5b506200021860048036038101906200021291906200206d565b62000744565b005b3480156200022757600080fd5b5062000246600480360381019062000240919062001f95565b6200086d565b6040516200025591906200263d565b60405180910390f35b3480156200026b57600080fd5b506200028a600480360381019062000284919062001f39565b62000881565b005b3480156200029957600080fd5b50620002b86004803603810190620002b291906200214a565b620008ea565b604051620002c7919062002582565b60405180910390f35b348015620002dd57600080fd5b50620002fc6004803603810190620002f6919062001f39565b62000900565b005b3480156200030b57600080fd5b506200032a600480360381019062000324919062001f95565b62000922565b6040516200033991906200263d565b60405180910390f35b3480156200034f57600080fd5b506200036e600480360381019062000368919062002118565b6200093c565b6040516200037d919062002582565b60405180910390f35b3480156200039357600080fd5b50620003b26004803603810190620003ac919062001e8e565b62000950565b604051620003c191906200289e565b60405180910390f35b348015620003d757600080fd5b50620003e262000964565b604051620003f191906200265a565b60405180910390f35b3480156200040757600080fd5b506200042660048036038101906200042091906200206d565b620009fe565b005b3480156200043557600080fd5b506200045460048036038101906200044e919062002026565b62000a0e565b005b3480156200046357600080fd5b506200048260048036038101906200047c919062001f95565b62000b9a565b005b3480156200049157600080fd5b50620004b06004803603810190620004aa919062002118565b62000c05565b604051620004bf91906200265a565b60405180910390f35b348015620004d557600080fd5b50620004f46004803603810190620004ee919062002191565b62000cb9565b005b3480156200050357600080fd5b506200052260048036038101906200051c919062001ef2565b62000e08565b60405162000531919062002620565b60405180910390f35b60007f80ac58cd000000000000000000000000000000000000000000000000000000007bffffffffffffffffffffffffffffffffffffffffffffffffffffffff1916827bffffffffffffffffffffffffffffffffffffffffffffffffffffffff191614806200060657507f5b5e139f000000000000000000000000000000000000000000000000000000007bffffffffffffffffffffffffffffffffffffffffffffffffffffffff1916827bffffffffffffffffffffffffffffffffffffffffffffffffffffffff1916145b80620006195750620006188262000e9c565b5b9050919050565b606060008054620006319062002b49565b80601f01602080910402602001604051908101604052809291908181526020018280546200065f9062002b49565b8015620006b05780601f106200068457610100808354040283529160200191620006b0565b820191906000526020600020905b8154815290600101906020018083116200069257829003601f168201915b5050505050905090565b6000620006c78262000f06565b62000709576040517f08c379a00000000000000000000000000000000000000000000000000000000081526004016200070090620027b0565b60405180910390fd5b6004600083815260200190815260200160002060009054906101000a900473ffffffffffffffffffffffffffffffffffffffff169050919050565b6000620007518262000f72565b90508073ffffffffffffffffffffffffffffffffffffffff168373ffffffffffffffffffffffffffffffffffffffff161415620007c5576040517f08c379a0000000000000000000000000000000000000000000000000000000008152600401620007bc9062002838565b60405180910390fd5b8073ffffffffffffffffffffffffffffffffffffffff16620007e662001027565b73ffffffffffffffffffffffffffffffffffffffff1614806200081a575062000819816200081362001027565b62000e08565b5b6200085c576040517f08c379a0000000000000000000000000000000000000000000000000000000008152600401620008539062002728565b60405180910390fd5b6200086883836200102f565b505050565b600063150b7a0260e01b9050949350505050565b620008966200088f62001027565b82620010ea565b620008d8576040517f08c379a0000000000000000000000000000000000000000000000000000000008152600401620008cf906200285a565b60405180910390fd5b620008e5838383620011d5565b505050565b6000620008f8838362001441565b905092915050565b6200091d8383836040518060200160405280600081525062000b9a565b505050565b600062000932858585856200086d565b9050949350505050565b6000620009498262000f72565b9050919050565b60006200095d826200150d565b9050919050565b606060018054620009759062002b49565b80601f0160208091040260200160405190810160405280929190818152602001828054620009a39062002b49565b8015620009f45780601f10620009c857610100808354040283529160200191620009f4565b820191906000526020600020905b815481529060010190602001808311620009d657829003601f168201915b5050505050905090565b62000a0a8282620015c8565b5050565b62000a1862001027565b73ffffffffffffffffffffffffffffffffffffffff168273ffffffffffffffffffffffffffffffffffffffff16141562000a89576040517f08c379a000000000000000000000000000000000000000000000000000000000815260040162000a8090620026e4565b60405180910390fd5b806005600062000a9862001027565b73ffffffffffffffffffffffffffffffffffffffff1673ffffffffffffffffffffffffffffffffffffffff16815260200190815260200160002060008473ffffffffffffffffffffffffffffffffffffffff1673ffffffffffffffffffffffffffffffffffffffff16815260200190815260200160002060006101000a81548160ff0219169083151502179055508173ffffffffffffffffffffffffffffffffffffffff1662000b4762001027565b73ffffffffffffffffffffffffffffffffffffffff167f17307eab39ab6107e8899845ad3d59bd9653f200f220920489ca2b5937696c318360405162000b8e919062002620565b60405180910390a35050565b62000baf62000ba862001027565b83620010ea565b62000bf1576040517f08c379a000000000000000000000000000000000000000000000000000000000815260040162000be8906200285a565b60405180910390fd5b62000bff84848484620015e8565b50505050565b606062000c128262000f06565b62000c54576040517f08c379a000000000000000000000000000000000000000000000000000000000815260040162000c4b9062002816565b60405180910390fd5b600062000c606200164b565b9050600081511162000c82576040518060200160405280600081525062000cb1565b8062000c8e8462001662565b60405160200162000ca19291906200255a565b6040516020818303038152906040525b915050919050565b62000cc48362000f72565b73ffffffffffffffffffffffffffffffffffffffff163373ffffffffffffffffffffffffffffffffffffffff161462000d34576040517f08c379a000000000000000000000000000000000000000000000000000000000815260040162000d2b906200287c565b60405180910390fd5b6001600b600085815260200190815260200160002060006101000a81548160ff02191690831515021790555062000d6c308462000744565b62000d893333856040518060200160405280600081525062000922565b5060003090506001600c60003373ffffffffffffffffffffffffffffffffffffffff1673ffffffffffffffffffffffffffffffffffffffff16815260200190815260200160002060006101000a81548160ff02191690831515021790555062000df433308662000900565b62000e0284828585620017dc565b50505050565b6000600560008473ffffffffffffffffffffffffffffffffffffffff1673ffffffffffffffffffffffffffffffffffffffff16815260200190815260200160002060008373ffffffffffffffffffffffffffffffffffffffff1673ffffffffffffffffffffffffffffffffffffffff16815260200190815260200160002060009054906101000a900460ff16905092915050565b60007f01ffc9a7000000000000000000000000000000000000000000000000000000007bffffffffffffffffffffffffffffffffffffffffffffffffffffffff1916827bffffffffffffffffffffffffffffffffffffffffffffffffffffffff1916149050919050565b60008073ffffffffffffffffffffffffffffffffffffffff166002600084815260200190815260200160002060009054906101000a900473ffffffffffffffffffffffffffffffffffffffff1673ffffffffffffffffffffffffffffffffffffffff1614159050919050565b6000806002600084815260200190815260200160002060009054906101000a900473ffffffffffffffffffffffffffffffffffffffff169050600073ffffffffffffffffffffffffffffffffffffffff168173ffffffffffffffffffffffffffffffffffffffff1614156200101e576040517f08c379a000000000000000000000000000000000000000000000000000000000815260040162001015906200276c565b60405180910390fd5b80915050919050565b600033905090565b816004600083815260200190815260200160002060006101000a81548173ffffffffffffffffffffffffffffffffffffffff021916908373ffffffffffffffffffffffffffffffffffffffff160217905550808273ffffffffffffffffffffffffffffffffffffffff16620010a48362000f72565b73ffffffffffffffffffffffffffffffffffffffff167f8c5be1e5ebec7d5bd14f71427d1e84f3dd0314c0f7b2291e5b200ac8c7c3b92560405160405180910390a45050565b6000620010f78262000f06565b62001139576040517f08c379a0000000000000000000000000000000000000000000000000000000008152600401620011309062002706565b60405180910390fd5b6000620011468362000f72565b90508073ffffffffffffffffffffffffffffffffffffffff168473ffffffffffffffffffffffffffffffffffffffff161480620011b857508373ffffffffffffffffffffffffffffffffffffffff16620011a084620006ba565b73ffffffffffffffffffffffffffffffffffffffff16145b80620011cc5750620011cb818562000e08565b5b91505092915050565b8273ffffffffffffffffffffffffffffffffffffffff16620011f78262000f72565b73ffffffffffffffffffffffffffffffffffffffff161462001250576040517f08c379a00000000000000000000000000000000000000000000000000000000081526004016200124790620027f4565b60405180910390fd5b600073ffffffffffffffffffffffffffffffffffffffff168273ffffffffffffffffffffffffffffffffffffffff161415620012c3576040517f08c379a0000000000000000000000000000000000000000000000000000000008152600401620012ba90620026c2565b60405180910390fd5b620012d08383836200197b565b620012dd6000826200102f565b6001600360008573ffffffffffffffffffffffffffffffffffffffff1673ffffffffffffffffffffffffffffffffffffffff16815260200190815260200160002060008282546200132f919062002a53565b925050819055506001600360008473ffffffffffffffffffffffffffffffffffffffff1673ffffffffffffffffffffffffffffffffffffffff16815260200190815260200160002060008282546200138891906200295d565b92505081905550816002600083815260200190815260200160002060006101000a81548173ffffffffffffffffffffffffffffffffffffffff021916908373ffffffffffffffffffffffffffffffffffffffff160217905550808273ffffffffffffffffffffffffffffffffffffffff168473ffffffffffffffffffffffffffffffffffffffff167fddf252ad1be2c89b69c2b068fc378daa952ba7f163c4a11628f55a4df523b3ef60405160405180910390a4505050565b60006006600084815260200190815260200160002060009054906101000a900473ffffffffffffffffffffffffffffffffffffffff1673ffffffffffffffffffffffffffffffffffffffff1663025e7c27836040518263ffffffff1660e01b8152600401620014b191906200289e565b60206040518083038186803b158015620014ca57600080fd5b505afa158015620014df573d6000803e3d6000fd5b505050506040513d601f19601f8201168201806040525081019062001505919062001ec0565b905092915050565b60008073ffffffffffffffffffffffffffffffffffffffff168273ffffffffffffffffffffffffffffffffffffffff16141562001581576040517f08c379a000000000000000000000000000000000000000000000000000000000815260040162001578906200274a565b60405180910390fd5b600360008373ffffffffffffffffffffffffffffffffffffffff1673ffffffffffffffffffffffffffffffffffffffff168152602001908152602001600020549050919050565b620015e482826040518060200160405280600081525062001980565b5050565b620015f5848484620011d5565b6200160384848484620019e2565b62001645576040517f08c379a00000000000000000000000000000000000000000000000000000000081526004016200163c906200267e565b60405180910390fd5b50505050565b606060405180602001604052806000815250905090565b60606000821415620016ac576040518060400160405280600181526020017f30000000000000000000000000000000000000000000000000000000000000008152509050620017d7565b600082905060005b60008214620016e4578080620016ca9062002bb5565b915050600a82620016dc9190620029ba565b9150620016b4565b60008167ffffffffffffffff81111562001703576200170262002cf7565b5b6040519080825280601f01601f191660200182016040528015620017365781602001600182028036833780820191505090505b5090505b60008514620017d05760018262001752919062002a53565b9150600a8562001763919062002c03565b60306200177191906200295d565b60f81b8183815181106200178a576200178962002cc8565b5b60200101907effffffffffffffffffffffffffffffffffffffffffffffffffffffffffffff1916908160001a905350600a85620017c89190620029ba565b94506200173a565b8093505050505b919050565b6019821062001822576040517f08c379a00000000000000000000000000000000000000000000000000000000081526004016200181990620027d2565b60405180910390fd5b806009819055506000846040516200183a9062001d78565b6200184691906200289e565b604051809103906000f08015801562001863573d6000803e3d6000fd5b509050806006600087815260200190815260200160002060006101000a81548173ffffffffffffffffffffffffffffffffffffffff021916908373ffffffffffffffffffffffffffffffffffffffff160217905550600081905060005b8481101562001972576000816103e889620018dc9190620029f2565b620018e891906200295d565b90508273ffffffffffffffffffffffffffffffffffffffff166340c10f1988836040518363ffffffff1660e01b815260040162001927929190620025f3565b600060405180830381600087803b1580156200194257600080fd5b505af115801562001957573d6000803e3d6000fd5b50505050508080620019699062002bb5565b915050620018c0565b50505050505050565b505050565b6200198c838362001b8b565b6200199b6000848484620019e2565b620019dd576040517f08c379a0000000000000000000000000000000000000000000000000000000008152600401620019d4906200267e565b60405180910390fd5b505050565b600062001a058473ffffffffffffffffffffffffffffffffffffffff1662001d65565b1562001b7e578373ffffffffffffffffffffffffffffffffffffffff1663150b7a0262001a3162001027565b8786866040518563ffffffff1660e01b815260040162001a5594939291906200259f565b602060405180830381600087803b15801562001a7057600080fd5b505af192505050801562001aa457506040513d601f19601f8201168201806040525081019062001aa19190620020e6565b60015b62001b2d573d806000811462001ad7576040519150601f19603f3d011682016040523d82523d6000602084013e62001adc565b606091505b5060008151141562001b25576040517f08c379a000000000000000000000000000000000000000000000000000000000815260040162001b1c906200267e565b60405180910390fd5b805181602001fd5b63150b7a0260e01b7bffffffffffffffffffffffffffffffffffffffffffffffffffffffff1916817bffffffffffffffffffffffffffffffffffffffffffffffffffffffff19161491505062001b83565b600190505b949350505050565b600073ffffffffffffffffffffffffffffffffffffffff168273ffffffffffffffffffffffffffffffffffffffff16141562001bfe576040517f08c379a000000000000000000000000000000000000000000000000000000000815260040162001bf5906200278e565b60405180910390fd5b62001c098162000f06565b1562001c4c576040517f08c379a000000000000000000000000000000000000000000000000000000000815260040162001c4390620026a0565b60405180910390fd5b62001c5a600083836200197b565b6001600360008473ffffffffffffffffffffffffffffffffffffffff1673ffffffffffffffffffffffffffffffffffffffff168152602001908152602001600020600082825462001cac91906200295d565b92505081905550816002600083815260200190815260200160002060006101000a81548173ffffffffffffffffffffffffffffffffffffffff021916908373ffffffffffffffffffffffffffffffffffffffff160217905550808273ffffffffffffffffffffffffffffffffffffffff16600073ffffffffffffffffffffffffffffffffffffffff167fddf252ad1be2c89b69c2b068fc378daa952ba7f163c4a11628f55a4df523b3ef60405160405180910390a45050565b600080823b905060008111915050919050565b610580806200323283390190565b600062001d9d62001d9784620028e4565b620028bb565b90508281526020810184848401111562001dbc5762001dbb62002d2b565b5b62001dc984828562002b04565b509392505050565b60008135905062001de281620031c9565b92915050565b60008151905062001df981620031c9565b92915050565b60008135905062001e1081620031e3565b92915050565b60008135905062001e2781620031fd565b92915050565b60008151905062001e3e81620031fd565b92915050565b600082601f83011262001e5c5762001e5b62002d26565b5b813562001e6e84826020860162001d86565b91505092915050565b60008135905062001e888162003217565b92915050565b60006020828403121562001ea75762001ea662002d35565b5b600062001eb78482850162001dd1565b91505092915050565b60006020828403121562001ed95762001ed862002d35565b5b600062001ee98482850162001de8565b91505092915050565b6000806040838503121562001f0c5762001f0b62002d35565b5b600062001f1c8582860162001dd1565b925050602062001f2f8582860162001dd1565b9150509250929050565b60008060006060848603121562001f555762001f5462002d35565b5b600062001f658682870162001dd1565b935050602062001f788682870162001dd1565b925050604062001f8b8682870162001e77565b9150509250925092565b6000806000806080858703121562001fb25762001fb162002d35565b5b600062001fc28782880162001dd1565b945050602062001fd58782880162001dd1565b935050604062001fe88782880162001e77565b925050606085013567ffffffffffffffff8111156200200c576200200b62002d30565b5b6200201a8782880162001e44565b91505092959194509250565b6000806040838503121562002040576200203f62002d35565b5b6000620020508582860162001dd1565b9250506020620020638582860162001dff565b9150509250929050565b6000806040838503121562002087576200208662002d35565b5b6000620020978582860162001dd1565b9250506020620020aa8582860162001e77565b9150509250929050565b600060208284031215620020cd57620020cc62002d35565b5b6000620020dd8482850162001e16565b91505092915050565b600060208284031215620020ff57620020fe62002d35565b5b60006200210f8482850162001e2d565b91505092915050565b60006020828403121562002131576200213062002d35565b5b6000620021418482850162001e77565b91505092915050565b6000806040838503121562002164576200216362002d35565b5b6000620021748582860162001e77565b9250506020620021878582860162001e77565b9150509250929050565b600080600060608486031215620021ad57620021ac62002d35565b5b6000620021bd8682870162001e77565b9350506020620021d08682870162001e77565b9250506040620021e38682870162001e77565b9150509250925092565b620021f88162002a8e565b82525050565b620022098162002aa2565b82525050565b6200221a8162002aae565b82525050565b60006200222d826200291a565b62002239818562002930565b93506200224b81856020860162002b13565b620022568162002d3a565b840191505092915050565b60006200226e8262002925565b6200227a818562002941565b93506200228c81856020860162002b13565b620022978162002d3a565b840191505092915050565b6000620022af8262002925565b620022bb818562002952565b9350620022cd81856020860162002b13565b80840191505092915050565b6000620022e860328362002941565b9150620022f58262002d4b565b604082019050919050565b60006200230f601c8362002941565b91506200231c8262002d9a565b602082019050919050565b60006200233660248362002941565b9150620023438262002dc3565b604082019050919050565b60006200235d60198362002941565b91506200236a8262002e12565b602082019050919050565b600062002384602c8362002941565b9150620023918262002e3b565b604082019050919050565b6000620023ab60388362002941565b9150620023b88262002e8a565b604082019050919050565b6000620023d2602a8362002941565b9150620023df8262002ed9565b604082019050919050565b6000620023f960298362002941565b9150620024068262002f28565b604082019050919050565b60006200242060208362002941565b91506200242d8262002f77565b602082019050919050565b600062002447602c8362002941565b9150620024548262002fa0565b604082019050919050565b60006200246e603a8362002941565b91506200247b8262002fef565b604082019050919050565b60006200249560298362002941565b9150620024a2826200303e565b604082019050919050565b6000620024bc602f8362002941565b9150620024c9826200308d565b604082019050919050565b6000620024e360218362002941565b9150620024f082620030dc565b604082019050919050565b60006200250a60318362002941565b915062002517826200312b565b604082019050919050565b600062002531602c8362002941565b91506200253e826200317a565b604082019050919050565b620025548162002afa565b82525050565b6000620025688285620022a2565b9150620025768284620022a2565b91508190509392505050565b6000602082019050620025996000830184620021ed565b92915050565b6000608082019050620025b66000830187620021ed565b620025c56020830186620021ed565b620025d4604083018562002549565b8181036060830152620025e8818462002220565b905095945050505050565b60006040820190506200260a6000830185620021ed565b62002619602083018462002549565b9392505050565b6000602082019050620026376000830184620021fe565b92915050565b60006020820190506200265460008301846200220f565b92915050565b6000602082019050818103600083015262002676818462002261565b905092915050565b600060208201905081810360008301526200269981620022d9565b9050919050565b60006020820190508181036000830152620026bb8162002300565b9050919050565b60006020820190508181036000830152620026dd8162002327565b9050919050565b60006020820190508181036000830152620026ff816200234e565b9050919050565b60006020820190508181036000830152620027218162002375565b9050919050565b6000602082019050818103600083015262002743816200239c565b9050919050565b600060208201905081810360008301526200276581620023c3565b9050919050565b600060208201905081810360008301526200278781620023ea565b9050919050565b60006020820190508181036000830152620027a98162002411565b9050919050565b60006020820190508181036000830152620027cb8162002438565b9050919050565b60006020820190508181036000830152620027ed816200245f565b9050919050565b600060208201905081810360008301526200280f8162002486565b9050919050565b600060208201905081810360008301526200283181620024ad565b9050919050565b600060208201905081810360008301526200285381620024d4565b9050919050565b600060208201905081810360008301526200287581620024fb565b9050919050565b60006020820190508181036000830152620028978162002522565b9050919050565b6000602082019050620028b5600083018462002549565b92915050565b6000620028c7620028da565b9050620028d5828262002b7f565b919050565b6000604051905090565b600067ffffffffffffffff82111562002902576200290162002cf7565b5b6200290d8262002d3a565b9050602081019050919050565b600081519050919050565b600081519050919050565b600082825260208201905092915050565b600082825260208201905092915050565b600081905092915050565b60006200296a8262002afa565b9150620029778362002afa565b9250827fffffffffffffffffffffffffffffffffffffffffffffffffffffffffffffffff03821115620029af57620029ae62002c3b565b5b828201905092915050565b6000620029c78262002afa565b9150620029d48362002afa565b925082620029e757620029e662002c6a565b5b828204905092915050565b6000620029ff8262002afa565b915062002a0c8362002afa565b9250817fffffffffffffffffffffffffffffffffffffffffffffffffffffffffffffffff048311821515161562002a485762002a4762002c3b565b5b828202905092915050565b600062002a608262002afa565b915062002a6d8362002afa565b92508282101562002a835762002a8262002c3b565b5b828203905092915050565b600062002a9b8262002ada565b9050919050565b60008115159050919050565b60007fffffffff0000000000000000000000000000000000000000000000000000000082169050919050565b600073ffffffffffffffffffffffffffffffffffffffff82169050919050565b6000819050919050565b82818337600083830152505050565b60005b8381101562002b3357808201518184015260208101905062002b16565b8381111562002b43576000848401525b50505050565b6000600282049050600182168062002b6257607f821691505b6020821081141562002b795762002b7862002c99565b5b50919050565b62002b8a8262002d3a565b810181811067ffffffffffffffff8211171562002bac5762002bab62002cf7565b5b80604052505050565b600062002bc28262002afa565b91507fffffffffffffffffffffffffffffffffffffffffffffffffffffffffffffffff82141562002bf85762002bf762002c3b565b5b600182019050919050565b600062002c108262002afa565b915062002c1d8362002afa565b92508262002c305762002c2f62002c6a565b5b828206905092915050565b7f4e487b7100000000000000000000000000000000000000000000000000000000600052601160045260246000fd5b7f4e487b7100000000000000000000000000000000000000000000000000000000600052601260045260246000fd5b7f4e487b7100000000000000000000000000000000000000000000000000000000600052602260045260246000fd5b7f4e487b7100000000000000000000000000000000000000000000000000000000600052603260045260246000fd5b7f4e487b7100000000000000000000000000000000000000000000000000000000600052604160045260246000fd5b600080fd5b600080fd5b600080fd5b600080fd5b6000601f19601f8301169050919050565b7f4552433732313a207472616e7366657220746f206e6f6e20455243373231526560008201527f63656976657220696d706c656d656e7465720000000000000000000000000000602082015250565b7f4552433732313a20746f6b656e20616c7265616479206d696e74656400000000600082015250565b7f4552433732313a207472616e7366657220746f20746865207a65726f2061646460008201527f7265737300000000000000000000000000000000000000000000000000000000602082015250565b7f4552433732313a20617070726f766520746f2063616c6c657200000000000000600082015250565b7f4552433732313a206f70657261746f7220717565727920666f72206e6f6e657860008201527f697374656e7420746f6b656e0000000000000000000000000000000000000000602082015250565b7f4552433732313a20617070726f76652063616c6c6572206973206e6f74206f7760008201527f6e6572206e6f7220617070726f76656420666f7220616c6c0000000000000000602082015250565b7f4552433732313a2062616c616e636520717565727920666f7220746865207a6560008201527f726f206164647265737300000000000000000000000000000000000000000000602082015250565b7f4552433732313a206f776e657220717565727920666f72206e6f6e657869737460008201527f656e7420746f6b656e0000000000000000000000000000000000000000000000602082015250565b7f4552433732313a206d696e7420746f20746865207a65726f2061646472657373600082015250565b7f4552433732313a20617070726f76656420717565727920666f72206e6f6e657860008201527f697374656e7420746f6b656e0000000000000000000000000000000000000000602082015250565b7f417065546f6b656e3a20596f752063616e6e6f74206d696e74206d6f7265207460008201527f68616e20323520617065546f6b656e732070657220746f6b656e000000000000602082015250565b7f4552433732313a207472616e73666572206f6620746f6b656e2074686174206960008201527f73206e6f74206f776e0000000000000000000000000000000000000000000000602082015250565b7f4552433732314d657461646174613a2055524920717565727920666f72206e6f60008201527f6e6578697374656e7420746f6b656e0000000000000000000000000000000000602082015250565b7f4552433732313a20617070726f76616c20746f2063757272656e74206f776e6560008201527f7200000000000000000000000000000000000000000000000000000000000000602082015250565b7f4552433732313a207472616e736665722063616c6c6572206973206e6f74206f60008201527f776e6572206e6f7220617070726f766564000000000000000000000000000000602082015250565b7f4170654c656e643a20596f7520617265206e6f7420746865206f776e6572206f60008201527f66207468697320746f6b656e0000000000000000000000000000000000000000602082015250565b620031d48162002a8e565b8114620031e057600080fd5b50565b620031ee8162002aa2565b8114620031fa57600080fd5b50565b620032088162002aae565b81146200321457600080fd5b50565b620032228162002afa565b81146200322e57600080fd5b5056fe608060405234801561001057600080fd5b5060405161058038038061058083398181016040528101906100329190610054565b80600081905550506100a7565b60008151905061004e81610090565b92915050565b60006020828403121561006a5761006961008b565b5b60006100788482850161003f565b91505092915050565b6000819050919050565b600080fd5b61009981610081565b81146100a457600080fd5b50565b6104ca806100b66000396000f3fe608060405234801561001057600080fd5b50600436106100365760003560e01c8063025e7c271461003b57806340c10f191461006b575b600080fd5b610055600480360381019061005091906102a6565b610087565b6040516100629190610305565b60405180910390f35b61008560048036038101906100809190610266565b6100c4565b005b60006002600083815260200190815260200160002060009054906101000a900473ffffffffffffffffffffffffffffffffffffffff169050919050565b600073ffffffffffffffffffffffffffffffffffffffff168273ffffffffffffffffffffffffffffffffffffffff161415610134576040517f08c379a000000000000000000000000000000000000000000000000000000000815260040161012b90610320565b60405180910390fd5b60018060008473ffffffffffffffffffffffffffffffffffffffff1673ffffffffffffffffffffffffffffffffffffffff16815260200190815260200160002060008282546101839190610351565b92505081905550816002600083815260200190815260200160002060006101000a81548173ffffffffffffffffffffffffffffffffffffffff021916908373ffffffffffffffffffffffffffffffffffffffff160217905550808273ffffffffffffffffffffffffffffffffffffffff16600073ffffffffffffffffffffffffffffffffffffffff167fddf252ad1be2c89b69c2b068fc378daa952ba7f163c4a11628f55a4df523b3ef60405160405180910390a45050565b60008135905061024b81610466565b92915050565b6000813590506102608161047d565b92915050565b6000806040838503121561027d5761027c610412565b5b600061028b8582860161023c565b925050602061029c85828601610251565b9150509250929050565b6000602082840312156102bc576102bb610412565b5b60006102ca84828501610251565b91505092915050565b6102dc816103a7565b82525050565b60006102ef602283610340565b91506102fa82610417565b604082019050919050565b600060208201905061031a60008301846102d3565b92915050565b60006020820190508181036000830152610339816102e2565b9050919050565b600082825260208201905092915050565b600061035c826103d9565b9150610367836103d9565b9250827fffffffffffffffffffffffffffffffffffffffffffffffffffffffffffffffff0382111561039c5761039b6103e3565b5b828201905092915050565b60006103b2826103b9565b9050919050565b600073ffffffffffffffffffffffffffffffffffffffff82169050919050565b6000819050919050565b7f4e487b7100000000000000000000000000000000000000000000000000000000600052601160045260246000fd5b600080fd5b7f417065546f6b656e3a206d696e7420746f20746865207a65726f20616464726560008201527f7373000000000000000000000000000000000000000000000000000000000000602082015250565b61046f816103a7565b811461047a57600080fd5b50565b610486816103d9565b811461049157600080fd5b5056fea2646970667358221220564abb190f1fec0ab586a79e577dd06f097da8018866a6b0cdc1ac73801b9e3e64736f6c63430008060033a2646970667358221220d1679fc301ee27ea56ac38056d1237fb1aa3091dc59beb704127c184ca800ec664736f6c63430008060033",
  "linkReferences": {},
  "deployedLinkReferences": {}
}