{
  "_format": "hh-sol-artifact-1",
  "contractName": "ApeLend",
  "sourceName": "contracts/ApeLend.sol",
  "abi": [
    {
      "inputs": [],
      "stateMutability": "nonpayable",
      "type": "constructor"
    },
    {
      "anonymous": false,
      "inputs": [
        {
          "indexed": true,
          "internalType": "address",
          "name": "owner",
          "type": "address"
        },
        {
          "indexed": true,
          "internalType": "address",
          "name": "approved",
          "type": "address"
        },
        {
          "indexed": true,
          "internalType": "uint256",
          "name": "tokenId",
          "type": "uint256"
        }
      ],
      "name": "Approval",
      "type": "event"
    },
    {
      "anonymous": false,
      "inputs": [
        {
          "indexed": true,
          "internalType": "address",
          "name": "owner",
          "type": "address"
        },
        {
          "indexed": true,
          "internalType": "address",
          "name": "operator",
          "type": "address"
        },
        {
          "indexed": false,
          "internalType": "bool",
          "name": "approved",
          "type": "bool"
        }
      ],
      "name": "ApprovalForAll",
      "type": "event"
    },
    {
      "anonymous": false,
      "inputs": [
        {
          "indexed": true,
          "internalType": "address",
          "name": "from",
          "type": "address"
        },
        {
          "indexed": true,
          "internalType": "address",
          "name": "to",
          "type": "address"
        },
        {
          "indexed": true,
          "internalType": "uint256",
          "name": "tokenId",
          "type": "uint256"
        }
      ],
      "name": "Transfer",
      "type": "event"
    },
    {
      "stateMutability": "payable",
      "type": "fallback"
    },
    {
      "inputs": [
        {
          "internalType": "uint256",
          "name": "_tokenId",
          "type": "uint256"
        }
      ],
      "name": "apeTokenTotalSupply",
      "outputs": [
        {
          "internalType": "uint256",
          "name": "_apeTokenTotalSupply",
          "type": "uint256"
        }
      ],
      "stateMutability": "view",
      "type": "function"
    },
    {
      "inputs": [
        {
          "internalType": "address",
          "name": "to",
          "type": "address"
        },
        {
          "internalType": "uint256",
          "name": "tokenId",
          "type": "uint256"
        }
      ],
      "name": "approve",
      "outputs": [],
      "stateMutability": "nonpayable",
      "type": "function"
    },
    {
      "inputs": [
        {
          "internalType": "address",
          "name": "owner",
          "type": "address"
        }
      ],
      "name": "balanceOf",
      "outputs": [
        {
          "internalType": "uint256",
          "name": "",
          "type": "uint256"
        }
      ],
      "stateMutability": "view",
      "type": "function"
    },
    {
      "inputs": [
        {
          "internalType": "uint256",
          "name": "_underlyingTokenId",
          "type": "uint256"
        },
        {
          "internalType": "uint256",
          "name": "_apeTokenId",
          "type": "uint256"
        },
        {
          "internalType": "address",
          "name": "_apeLendAddress",
          "type": "address"
        },
        {
          "internalType": "address",
          "name": "_to",
          "type": "address"
        }
      ],
      "name": "borrowApeToken",
      "outputs": [],
      "stateMutability": "nonpayable",
      "type": "function"
    },
    {
      "inputs": [
        {
          "internalType": "uint256",
          "name": "_underlyingTokenId",
          "type": "uint256"
        },
        {
          "internalType": "uint256",
          "name": "_borrowingApeTokenId",
          "type": "uint256"
        }
      ],
      "name": "borrowToken",
      "outputs": [],
      "stateMutability": "payable",
      "type": "function"
    },
    {
      "inputs": [
        {
          "internalType": "uint256",
          "name": "_underlyingTokenId",
          "type": "uint256"
        }
      ],
      "name": "burnApeToken",
      "outputs": [],
      "stateMutability": "nonpayable",
      "type": "function"
    },
    {
      "inputs": [
        {
          "internalType": "uint256",
          "name": "tokenId",
          "type": "uint256"
        }
      ],
      "name": "getApproved",
      "outputs": [
        {
          "internalType": "address",
          "name": "",
          "type": "address"
        }
      ],
      "stateMutability": "view",
      "type": "function"
    },
    {
      "inputs": [
        {
          "internalType": "address",
          "name": "owner",
          "type": "address"
        },
        {
          "internalType": "address",
          "name": "operator",
          "type": "address"
        }
      ],
      "name": "isApprovedForAll",
      "outputs": [
        {
          "internalType": "bool",
          "name": "",
          "type": "bool"
        }
      ],
      "stateMutability": "view",
      "type": "function"
    },
    {
      "inputs": [
        {
          "internalType": "address",
          "name": "_tokenAddress",
          "type": "address"
        },
        {
          "internalType": "uint256",
          "name": "_tokenId",
          "type": "uint256"
        },
        {
          "internalType": "uint256",
          "name": "_apeTokenAmount",
          "type": "uint256"
        },
        {
          "internalType": "uint256",
          "name": "_apeTokenLoanTerm",
          "type": "uint256"
        }
      ],
      "name": "lendToken",
      "outputs": [],
      "stateMutability": "nonpayable",
      "type": "function"
    },
    {
      "inputs": [],
      "name": "name",
      "outputs": [
        {
          "internalType": "string",
          "name": "",
          "type": "string"
        }
      ],
      "stateMutability": "view",
      "type": "function"
    },
    {
      "inputs": [
        {
          "internalType": "address",
          "name": "",
          "type": "address"
        },
        {
          "internalType": "address",
          "name": "",
          "type": "address"
        },
        {
          "internalType": "uint256",
          "name": "",
          "type": "uint256"
        },
        {
          "internalType": "bytes",
          "name": "",
          "type": "bytes"
        }
      ],
      "name": "onERC721Received",
      "outputs": [
        {
          "internalType": "bytes4",
          "name": "",
          "type": "bytes4"
        }
      ],
      "stateMutability": "nonpayable",
      "type": "function"
    },
    {
      "inputs": [
        {
          "internalType": "address",
          "name": "operator",
          "type": "address"
        },
        {
          "internalType": "address",
          "name": "from",
          "type": "address"
        },
        {
          "internalType": "uint256",
          "name": "tokenId",
          "type": "uint256"
        },
        {
          "internalType": "bytes",
          "name": "data",
          "type": "bytes"
        }
      ],
      "name": "onERC721ReceivedToProtocol",
      "outputs": [
        {
          "internalType": "bytes4",
          "name": "",
          "type": "bytes4"
        }
      ],
      "stateMutability": "nonpayable",
      "type": "function"
    },
    {
      "inputs": [
        {
          "internalType": "uint256",
          "name": "tokenId",
          "type": "uint256"
        }
      ],
      "name": "ownerOf",
      "outputs": [
        {
          "internalType": "address",
          "name": "",
          "type": "address"
        }
      ],
      "stateMutability": "view",
      "type": "function"
    },
    {
      "inputs": [
        {
          "internalType": "uint256",
          "name": "_tokenId",
          "type": "uint256"
        },
        {
          "internalType": "uint256",
          "name": "_apeTokenId",
          "type": "uint256"
        }
      ],
      "name": "ownerOfApeToken",
      "outputs": [
        {
          "internalType": "address",
          "name": "_apeTokenOwner",
          "type": "address"
        }
      ],
      "stateMutability": "view",
      "type": "function"
    },
    {
      "inputs": [
        {
          "internalType": "address",
          "name": "_tokenAddress",
          "type": "address"
        },
        {
          "internalType": "uint256",
          "name": "_tokenId",
          "type": "uint256"
        }
      ],
      "name": "pullToken",
      "outputs": [],
      "stateMutability": "nonpayable",
      "type": "function"
    },
    {
      "inputs": [
        {
          "internalType": "address",
          "name": "from",
          "type": "address"
        },
        {
          "internalType": "address",
          "name": "to",
          "type": "address"
        },
        {
          "internalType": "uint256",
          "name": "tokenId",
          "type": "uint256"
        }
      ],
      "name": "safeTransferFrom",
      "outputs": [],
      "stateMutability": "nonpayable",
      "type": "function"
    },
    {
      "inputs": [
        {
          "internalType": "address",
          "name": "from",
          "type": "address"
        },
        {
          "internalType": "address",
          "name": "to",
          "type": "address"
        },
        {
          "internalType": "uint256",
          "name": "tokenId",
          "type": "uint256"
        },
        {
          "internalType": "bytes",
          "name": "_data",
          "type": "bytes"
        }
      ],
      "name": "safeTransferFrom",
      "outputs": [],
      "stateMutability": "nonpayable",
      "type": "function"
    },
    {
      "inputs": [
        {
          "internalType": "address",
          "name": "operator",
          "type": "address"
        },
        {
          "internalType": "bool",
          "name": "approved",
          "type": "bool"
        }
      ],
      "name": "setApprovalForAll",
      "outputs": [],
      "stateMutability": "nonpayable",
      "type": "function"
    },
    {
      "inputs": [
        {
          "internalType": "bytes4",
          "name": "interfaceId",
          "type": "bytes4"
        }
      ],
      "name": "supportsInterface",
      "outputs": [
        {
          "internalType": "bool",
          "name": "",
          "type": "bool"
        }
      ],
      "stateMutability": "view",
      "type": "function"
    },
    {
      "inputs": [],
      "name": "symbol",
      "outputs": [
        {
          "internalType": "string",
          "name": "",
          "type": "string"
        }
      ],
      "stateMutability": "view",
      "type": "function"
    },
    {
      "inputs": [
        {
          "internalType": "uint256",
          "name": "tokenId",
          "type": "uint256"
        }
      ],
      "name": "tokenURI",
      "outputs": [
        {
          "internalType": "string",
          "name": "",
          "type": "string"
        }
      ],
      "stateMutability": "view",
      "type": "function"
    },
    {
      "inputs": [
        {
          "internalType": "address",
          "name": "from",
          "type": "address"
        },
        {
          "internalType": "address",
          "name": "to",
          "type": "address"
        },
        {
          "internalType": "uint256",
          "name": "tokenId",
          "type": "uint256"
        }
      ],
      "name": "transferFrom",
      "outputs": [],
      "stateMutability": "nonpayable",
      "type": "function"
    },
    {
      "stateMutability": "payable",
      "type": "receive"
    }
  ],
  "bytecode": "0x608060405230600d60006101000a81548173ffffffffffffffffffffffffffffffffffffffff021916908373ffffffffffffffffffffffffffffffffffffffff1602179055503480156200005257600080fd5b506040518060400160405280600781526020017f4170654c656e64000000000000000000000000000000000000000000000000008152506040518060400160405280600381526020017f41504500000000000000000000000000000000000000000000000000000000008152508160009080519060200190620000d7929190620000f9565b508060019080519060200190620000f0929190620000f9565b5050506200020e565b8280546200010790620001a9565b90600052602060002090601f0160209004810192826200012b576000855562000177565b82601f106200014657805160ff191683800117855562000177565b8280016001018555821562000177579182015b828111156200017657825182559160200191906001019062000159565b5b5090506200018691906200018a565b5090565b5b80821115620001a55760008160009055506001016200018b565b5090565b60006002820490506001821680620001c257607f821691505b60208210811415620001d957620001d8620001df565b5b50919050565b7f4e487b7100000000000000000000000000000000000000000000000000000000600052602260045260246000fd5b61510d806200021e6000396000f3fe608060405260043610620001575760003560e01c80635306e4b311620000bb5780638d96156b11620000795780638d96156b14620004e557806395d89b411462000513578063a22cb4651462000543578063b88d4fde1462000571578063c87b56dd146200059f578063e985e9c514620005e3576200015f565b80635306e4b314620003bd5780636352211e14620003eb5780636b0e2f10146200042f57806370a0823114620004735780637b05d58814620004b7576200015f565b8063150b7a021162000115578063150b7a0214620002675780631c576a7014620002ab57806323b872dd14620002d957806337c51b18146200030757806342842e0e146200034b5780634effdda01462000379576200015f565b806301ffc9a7146200016157806306fdde0314620001a5578063081812fc14620001d557806308ec59271462000219578063095ea7b31462000239576200015f565b366200015f57005b005b3480156200016e57600080fd5b506200018d6004803603810190620001879190620028f1565b62000627565b6040516200019c919062002ed7565b60405180910390f35b348015620001b257600080fd5b50620001bd6200070d565b604051620001cc919062002f11565b60405180910390f35b348015620001e257600080fd5b50620002016004803603810190620001fb919062002955565b620007a7565b60405162000210919062002dfc565b60405180910390f35b62000237600480360381019062000231919062002987565b62000831565b005b3480156200024657600080fd5b506200026560048036038101906200025f919062002838565b6200086b565b005b3480156200027457600080fd5b506200029360048036038101906200028d919062002760565b62000994565b604051620002a2919062002ef4565b60405180910390f35b348015620002b857600080fd5b50620002d76004803603810190620002d19190620029ce565b620009a8565b005b348015620002e657600080fd5b50620003056004803603810190620002ff919062002704565b62000b40565b005b3480156200031457600080fd5b506200033360048036038101906200032d919062002987565b62000ba9565b60405162000342919062002dfc565b60405180910390f35b3480156200035857600080fd5b5062000377600480360381019062000371919062002704565b62000bbf565b005b3480156200038657600080fd5b50620003a560048036038101906200039f919062002760565b62000be1565b604051620003b4919062002ef4565b60405180910390f35b348015620003ca57600080fd5b50620003e96004803603810190620003e3919062002838565b62000bfb565b005b348015620003f857600080fd5b5062000417600480360381019062000411919062002955565b62000dff565b60405162000426919062002dfc565b60405180910390f35b3480156200043c57600080fd5b506200045b600480360381019062000455919062002955565b62000eb4565b6040516200046a919062003177565b60405180910390f35b3480156200048057600080fd5b506200049f600480360381019062000499919062002659565b62000ec8565b604051620004ae919062003177565b60405180910390f35b348015620004c457600080fd5b50620004e36004803603810190620004dd919062002955565b62000f83565b005b348015620004f257600080fd5b506200051160048036038101906200050b91906200287f565b62001111565b005b3480156200052057600080fd5b506200052b620013fc565b6040516200053a919062002f11565b60405180910390f35b3480156200055057600080fd5b506200056f6004803603810190620005699190620027f1565b62001496565b005b3480156200057e57600080fd5b506200059d600480360381019062000597919062002760565b62001622565b005b348015620005ac57600080fd5b50620005cb6004803603810190620005c5919062002955565b6200168d565b604051620005da919062002f11565b60405180910390f35b348015620005f057600080fd5b506200060f6004803603810190620006099190620026bd565b62001741565b6040516200061e919062002ed7565b60405180910390f35b60007f80ac58cd000000000000000000000000000000000000000000000000000000007bffffffffffffffffffffffffffffffffffffffffffffffffffffffff1916827bffffffffffffffffffffffffffffffffffffffffffffffffffffffff19161480620006f357507f5b5e139f000000000000000000000000000000000000000000000000000000007bffffffffffffffffffffffffffffffffffffffffffffffffffffffff1916827bffffffffffffffffffffffffffffffffffffffffffffffffffffffff1916145b806200070657506200070582620017d5565b5b9050919050565b6060600080546200071e9062003422565b80601f01602080910402602001604051908101604052809291908181526020018280546200074c9062003422565b80156200079d5780601f1062000771576101008083540402835291602001916200079d565b820191906000526020600020905b8154815290600101906020018083116200077f57829003601f168201915b5050505050905090565b6000620007b4826200183f565b620007f6576040517f08c379a0000000000000000000000000000000000000000000000000000000008152600401620007ed9062003089565b60405180910390fd5b6004600083815260200190815260200160002060009054906101000a900473ffffffffffffffffffffffffffffffffffffffff169050919050565b6000339050620008668383600d60009054906101000a900473ffffffffffffffffffffffffffffffffffffffff1684620009a8565b505050565b6000620008788262000dff565b90508073ffffffffffffffffffffffffffffffffffffffff168373ffffffffffffffffffffffffffffffffffffffff161415620008ec576040517f08c379a0000000000000000000000000000000000000000000000000000000008152600401620008e39062003111565b60405180910390fd5b8073ffffffffffffffffffffffffffffffffffffffff166200090d620018ab565b73ffffffffffffffffffffffffffffffffffffffff16148062000941575062000940816200093a620018ab565b62001741565b5b62000983576040517f08c379a00000000000000000000000000000000000000000000000000000000081526004016200097a9062003001565b60405180910390fd5b6200098f8383620018b3565b505050565b600063150b7a0260e01b9050949350505050565b60011515620009b98585856200196e565b151514620009fe576040517f08c379a0000000000000000000000000000000000000000000000000000000008152600401620009f59062003045565b60405180910390fd5b600a6000858152602001908152602001600020544262000a1f919062003236565b600a60008681526020019081526020016000208190555060006006600086815260200190815260200160002060009054906101000a900473ffffffffffffffffffffffffffffffffffffffff1690506000819050336009600087815260200190815260200160002060006101000a81548173ffffffffffffffffffffffffffffffffffffffff021916908373ffffffffffffffffffffffffffffffffffffffff1602179055508073ffffffffffffffffffffffffffffffffffffffff166342842e0e8585886040518463ffffffff1660e01b815260040162000b049392919062002e19565b600060405180830381600087803b15801562000b1f57600080fd5b505af115801562000b34573d6000803e3d6000fd5b50505050505050505050565b62000b5562000b4e620018ab565b8262001a90565b62000b97576040517f08c379a000000000000000000000000000000000000000000000000000000000815260040162000b8e9062003133565b60405180910390fd5b62000ba483838362001b7b565b505050565b600062000bb7838362001de7565b905092915050565b62000bdc8383836040518060200160405280600081525062001622565b505050565b600062000bf18585858562000994565b9050949350505050565b600e600082815260200190815260200160002060009054906101000a900473ffffffffffffffffffffffffffffffffffffffff1673ffffffffffffffffffffffffffffffffffffffff163373ffffffffffffffffffffffffffffffffffffffff161462000c9f576040517f08c379a000000000000000000000000000000000000000000000000000000000815260040162000c969062003155565b60405180910390fd5b62000caa8162001eb8565b421162000cee576040517f08c379a000000000000000000000000000000000000000000000000000000000815260040162000ce59062002fdf565b60405180910390fd5b62000cf98262001ed5565b600c60006101000a81548173ffffffffffffffffffffffffffffffffffffffff021916908373ffffffffffffffffffffffffffffffffffffffff16021790555062000d448162000f83565b600c60009054906101000a900473ffffffffffffffffffffffffffffffffffffffff1673ffffffffffffffffffffffffffffffffffffffff166323b872dd600d60009054906101000a900473ffffffffffffffffffffffffffffffffffffffff1633846040518463ffffffff1660e01b815260040162000dc79392919062002e19565b600060405180830381600087803b15801562000de257600080fd5b505af115801562000df7573d6000803e3d6000fd5b505050505050565b6000806002600084815260200190815260200160002060009054906101000a900473ffffffffffffffffffffffffffffffffffffffff169050600073ffffffffffffffffffffffffffffffffffffffff168173ffffffffffffffffffffffffffffffffffffffff16141562000eab576040517f08c379a000000000000000000000000000000000000000000000000000000000815260040162000ea29062003067565b60405180910390fd5b80915050919050565b600062000ec18262001edf565b9050919050565b60008073ffffffffffffffffffffffffffffffffffffffff168273ffffffffffffffffffffffffffffffffffffffff16141562000f3c576040517f08c379a000000000000000000000000000000000000000000000000000000000815260040162000f339062003023565b60405180910390fd5b600360008373ffffffffffffffffffffffffffffffffffffffff1673ffffffffffffffffffffffffffffffffffffffff168152602001908152602001600020549050919050565b600a600082815260200190815260200160002054421162000fdb576040517f08c379a000000000000000000000000000000000000000000000000000000000815260040162000fd29062002f57565b60405180910390fd5b60006006600083815260200190815260200160002060009054906101000a900473ffffffffffffffffffffffffffffffffffffffff16905060008190506000600b60008581526020019081526020016000205490506000600b60008681526020019081526020016000208190555060005b818110156200110a57600060018262001066919062003236565b6103e887620010769190620032cb565b62001082919062003236565b90508373ffffffffffffffffffffffffffffffffffffffff16639b1f9e74826040518263ffffffff1660e01b8152600401620010bf919062003177565b600060405180830381600087803b158015620010da57600080fd5b505af1158015620010ef573d6000803e3d6000fd5b5050505050808062001101906200348e565b9150506200104c565b5050505050565b6200111c8462001ed5565b600c60006101000a81548173ffffffffffffffffffffffffffffffffffffffff021916908373ffffffffffffffffffffffffffffffffffffffff160217905550600c60009054906101000a900473ffffffffffffffffffffffffffffffffffffffff1673ffffffffffffffffffffffffffffffffffffffff16636352211e846040518263ffffffff1660e01b8152600401620011b9919062003177565b60206040518083038186803b158015620011d257600080fd5b505afa158015620011e7573d6000803e3d6000fd5b505050506040513d601f19601f820116820180604052508101906200120d91906200268b565b73ffffffffffffffffffffffffffffffffffffffff163373ffffffffffffffffffffffffffffffffffffffff16146200127d576040517f08c379a0000000000000000000000000000000000000000000000000000000008152600401620012749062003155565b60405180910390fd5b33600e600085815260200190815260200160002060006101000a81548173ffffffffffffffffffffffffffffffffffffffff021916908373ffffffffffffffffffffffffffffffffffffffff1602179055506200130e600d60009054906101000a900473ffffffffffffffffffffffffffffffffffffffff1633856040518060200160405280600081525062000be1565b50600c60009054906101000a900473ffffffffffffffffffffffffffffffffffffffff1673ffffffffffffffffffffffffffffffffffffffff166342842e0e33600d60009054906101000a900473ffffffffffffffffffffffffffffffffffffffff16866040518463ffffffff1660e01b8152600401620013929392919062002e19565b600060405180830381600087803b158015620013ad57600080fd5b505af1158015620013c2573d6000803e3d6000fd5b50505050620013f683600d60009054906101000a900473ffffffffffffffffffffffffffffffffffffffff16848462001efc565b50505050565b6060600180546200140d9062003422565b80601f01602080910402602001604051908101604052809291908181526020018280546200143b9062003422565b80156200148c5780601f1062001460576101008083540402835291602001916200148c565b820191906000526020600020905b8154815290600101906020018083116200146e57829003601f168201915b5050505050905090565b620014a0620018ab565b73ffffffffffffffffffffffffffffffffffffffff168273ffffffffffffffffffffffffffffffffffffffff16141562001511576040517f08c379a0000000000000000000000000000000000000000000000000000000008152600401620015089062002f9b565b60405180910390fd5b806005600062001520620018ab565b73ffffffffffffffffffffffffffffffffffffffff1673ffffffffffffffffffffffffffffffffffffffff16815260200190815260200160002060008473ffffffffffffffffffffffffffffffffffffffff1673ffffffffffffffffffffffffffffffffffffffff16815260200190815260200160002060006101000a81548160ff0219169083151502179055508173ffffffffffffffffffffffffffffffffffffffff16620015cf620018ab565b73ffffffffffffffffffffffffffffffffffffffff167f17307eab39ab6107e8899845ad3d59bd9653f200f220920489ca2b5937696c318360405162001616919062002ed7565b60405180910390a35050565b6200163762001630620018ab565b8362001a90565b62001679576040517f08c379a0000000000000000000000000000000000000000000000000000000008152600401620016709062003133565b60405180910390fd5b62001687848484846200218e565b50505050565b60606200169a826200183f565b620016dc576040517f08c379a0000000000000000000000000000000000000000000000000000000008152600401620016d390620030ef565b60405180910390fd5b6000620016e8620021f1565b905060008151116200170a576040518060200160405280600081525062001739565b80620017168462002208565b6040516020016200172992919062002dd4565b6040516020818303038152906040525b915050919050565b6000600560008473ffffffffffffffffffffffffffffffffffffffff1673ffffffffffffffffffffffffffffffffffffffff16815260200190815260200160002060008373ffffffffffffffffffffffffffffffffffffffff1673ffffffffffffffffffffffffffffffffffffffff16815260200190815260200160002060009054906101000a900460ff16905092915050565b60007f01ffc9a7000000000000000000000000000000000000000000000000000000007bffffffffffffffffffffffffffffffffffffffffffffffffffffffff1916827bffffffffffffffffffffffffffffffffffffffffffffffffffffffff1916149050919050565b60008073ffffffffffffffffffffffffffffffffffffffff166002600084815260200190815260200160002060009054906101000a900473ffffffffffffffffffffffffffffffffffffffff1673ffffffffffffffffffffffffffffffffffffffff1614159050919050565b600033905090565b816004600083815260200190815260200160002060006101000a81548173ffffffffffffffffffffffffffffffffffffffff021916908373ffffffffffffffffffffffffffffffffffffffff160217905550808273ffffffffffffffffffffffffffffffffffffffff16620019288362000dff565b73ffffffffffffffffffffffffffffffffffffffff167f8c5be1e5ebec7d5bd14f71427d1e84f3dd0314c0f7b2291e5b200ac8c7c3b92560405160405180910390a45050565b6000806006600086815260200190815260200160002060009054906101000a900473ffffffffffffffffffffffffffffffffffffffff169050600081905060008173ffffffffffffffffffffffffffffffffffffffff16636352211e876040518263ffffffff1660e01b8152600401620019e9919062003177565b60206040518083038186803b15801562001a0257600080fd5b505afa15801562001a17573d6000803e3d6000fd5b505050506040513d601f19601f8201168201806040525081019062001a3d91906200268b565b90508473ffffffffffffffffffffffffffffffffffffffff168173ffffffffffffffffffffffffffffffffffffffff16141562001a81576001935050505062001a89565b600093505050505b9392505050565b600062001a9d826200183f565b62001adf576040517f08c379a000000000000000000000000000000000000000000000000000000000815260040162001ad69062002fbd565b60405180910390fd5b600062001aec8362000dff565b90508073ffffffffffffffffffffffffffffffffffffffff168473ffffffffffffffffffffffffffffffffffffffff16148062001b5e57508373ffffffffffffffffffffffffffffffffffffffff1662001b4684620007a7565b73ffffffffffffffffffffffffffffffffffffffff16145b8062001b72575062001b71818562001741565b5b91505092915050565b8273ffffffffffffffffffffffffffffffffffffffff1662001b9d8262000dff565b73ffffffffffffffffffffffffffffffffffffffff161462001bf6576040517f08c379a000000000000000000000000000000000000000000000000000000000815260040162001bed90620030cd565b60405180910390fd5b600073ffffffffffffffffffffffffffffffffffffffff168273ffffffffffffffffffffffffffffffffffffffff16141562001c69576040517f08c379a000000000000000000000000000000000000000000000000000000000815260040162001c609062002f79565b60405180910390fd5b62001c7683838362002382565b62001c83600082620018b3565b6001600360008573ffffffffffffffffffffffffffffffffffffffff1673ffffffffffffffffffffffffffffffffffffffff168152602001908152602001600020600082825462001cd591906200332c565b925050819055506001600360008473ffffffffffffffffffffffffffffffffffffffff1673ffffffffffffffffffffffffffffffffffffffff168152602001908152602001600020600082825462001d2e919062003236565b92505081905550816002600083815260200190815260200160002060006101000a81548173ffffffffffffffffffffffffffffffffffffffff021916908373ffffffffffffffffffffffffffffffffffffffff160217905550808273ffffffffffffffffffffffffffffffffffffffff168473ffffffffffffffffffffffffffffffffffffffff167fddf252ad1be2c89b69c2b068fc378daa952ba7f163c4a11628f55a4df523b3ef60405160405180910390a4505050565b6000806006600085815260200190815260200160002060009054906101000a900473ffffffffffffffffffffffffffffffffffffffff1690508073ffffffffffffffffffffffffffffffffffffffff16636352211e846040518263ffffffff1660e01b815260040162001e5b919062003177565b60206040518083038186803b15801562001e7457600080fd5b505afa15801562001e89573d6000803e3d6000fd5b505050506040513d601f19601f8201168201806040525081019062001eaf91906200268b565b91505092915050565b6000600a6000838152602001908152602001600020549050919050565b6000819050919050565b6000600b6000838152602001908152602001600020549050919050565b6019821062001f42576040517f08c379a000000000000000000000000000000000000000000000000000000000815260040162001f3990620030ab565b60405180910390fd5b804262001f50919062003236565b600a60008681526020019081526020016000208190555060008015156007600087815260200190815260200160002060009054906101000a900460ff16151514156200205b5760016007600087815260200190815260200160002060006101000a81548160ff0219169083151502179055508460405162001fd19062002543565b62001fdd919062003177565b604051809103906000f08015801562001ffa573d6000803e3d6000fd5b5090506000819050806006600088815260200190815260200160002060006101000a81548173ffffffffffffffffffffffffffffffffffffffff021916908373ffffffffffffffffffffffffffffffffffffffff1602179055505062002098565b60006006600087815260200190815260200160002060009054906101000a900473ffffffffffffffffffffffffffffffffffffffff169050809150505b60005b8381101562002186576000600182620020b5919062003236565b6103e888620020c59190620032cb565b620020d1919062003236565b9050600b60008881526020019081526020016000206000815480929190620020f9906200348e565b91905055508273ffffffffffffffffffffffffffffffffffffffff1663b3e1c71887836040518363ffffffff1660e01b81526004016200213b92919062002eaa565b600060405180830381600087803b1580156200215657600080fd5b505af11580156200216b573d6000803e3d6000fd5b505050505080806200217d906200348e565b9150506200209b565b505050505050565b6200219b84848462001b7b565b620021a98484848462002387565b620021eb576040517f08c379a0000000000000000000000000000000000000000000000000000000008152600401620021e29062002f35565b60405180910390fd5b50505050565b606060405180602001604052806000815250905090565b6060600082141562002252576040518060400160405280600181526020017f300000000000000000000000000000000000000000000000000000000000000081525090506200237d565b600082905060005b600082146200228a57808062002270906200348e565b915050600a8262002282919062003293565b91506200225a565b60008167ffffffffffffffff811115620022a957620022a8620035d0565b5b6040519080825280601f01601f191660200182016040528015620022dc5781602001600182028036833780820191505090505b5090505b600085146200237657600182620022f891906200332c565b9150600a85620023099190620034dc565b603062002317919062003236565b60f81b81838151811062002330576200232f620035a1565b5b60200101907effffffffffffffffffffffffffffffffffffffffffffffffffffffffffffff1916908160001a905350600a856200236e919062003293565b9450620022e0565b8093505050505b919050565b505050565b6000620023aa8473ffffffffffffffffffffffffffffffffffffffff1662002530565b1562002523578373ffffffffffffffffffffffffffffffffffffffff1663150b7a02620023d6620018ab565b8786866040518563ffffffff1660e01b8152600401620023fa949392919062002e56565b602060405180830381600087803b1580156200241557600080fd5b505af19250505080156200244957506040513d601f19601f8201168201806040525081019062002446919062002923565b60015b620024d2573d80600081146200247c576040519150601f19603f3d011682016040523d82523d6000602084013e62002481565b606091505b50600081511415620024ca576040517f08c379a0000000000000000000000000000000000000000000000000000000008152600401620024c19062002f35565b60405180910390fd5b805181602001fd5b63150b7a0260e01b7bffffffffffffffffffffffffffffffffffffffffffffffffffffffff1916817bffffffffffffffffffffffffffffffffffffffffffffffffffffffff19161491505062002528565b600190505b949350505050565b600080823b905060008111915050919050565b6114e68062003bf283390190565b6000620025686200256284620031bd565b62003194565b90508281526020810184848401111562002587576200258662003604565b5b62002594848285620033dd565b509392505050565b600081359050620025ad8162003b89565b92915050565b600081519050620025c48162003b89565b92915050565b600081359050620025db8162003ba3565b92915050565b600081359050620025f28162003bbd565b92915050565b600081519050620026098162003bbd565b92915050565b600082601f830112620026275762002626620035ff565b5b81356200263984826020860162002551565b91505092915050565b600081359050620026538162003bd7565b92915050565b6000602082840312156200267257620026716200360e565b5b600062002682848285016200259c565b91505092915050565b600060208284031215620026a457620026a36200360e565b5b6000620026b484828501620025b3565b91505092915050565b60008060408385031215620026d757620026d66200360e565b5b6000620026e7858286016200259c565b9250506020620026fa858286016200259c565b9150509250929050565b60008060006060848603121562002720576200271f6200360e565b5b600062002730868287016200259c565b935050602062002743868287016200259c565b9250506040620027568682870162002642565b9150509250925092565b600080600080608085870312156200277d576200277c6200360e565b5b60006200278d878288016200259c565b9450506020620027a0878288016200259c565b9350506040620027b38782880162002642565b925050606085013567ffffffffffffffff811115620027d757620027d662003609565b5b620027e5878288016200260f565b91505092959194509250565b600080604083850312156200280b576200280a6200360e565b5b60006200281b858286016200259c565b92505060206200282e85828601620025ca565b9150509250929050565b600080604083850312156200285257620028516200360e565b5b600062002862858286016200259c565b9250506020620028758582860162002642565b9150509250929050565b600080600080608085870312156200289c576200289b6200360e565b5b6000620028ac878288016200259c565b9450506020620028bf8782880162002642565b9350506040620028d28782880162002642565b9250506060620028e58782880162002642565b91505092959194509250565b6000602082840312156200290a57620029096200360e565b5b60006200291a84828501620025e1565b91505092915050565b6000602082840312156200293c576200293b6200360e565b5b60006200294c84828501620025f8565b91505092915050565b6000602082840312156200296e576200296d6200360e565b5b60006200297e8482850162002642565b91505092915050565b60008060408385031215620029a157620029a06200360e565b5b6000620029b18582860162002642565b9250506020620029c48582860162002642565b9150509250929050565b60008060008060808587031215620029eb57620029ea6200360e565b5b6000620029fb8782880162002642565b945050602062002a0e8782880162002642565b935050604062002a21878288016200259c565b925050606062002a34878288016200259c565b91505092959194509250565b62002a4b8162003367565b82525050565b62002a5c816200337b565b82525050565b62002a6d8162003387565b82525050565b600062002a8082620031f3565b62002a8c818562003209565b935062002a9e818560208601620033ec565b62002aa98162003613565b840191505092915050565b600062002ac182620031fe565b62002acd81856200321a565b935062002adf818560208601620033ec565b62002aea8162003613565b840191505092915050565b600062002b0282620031fe565b62002b0e81856200322b565b935062002b20818560208601620033ec565b80840191505092915050565b600062002b3b6032836200321a565b915062002b488262003624565b604082019050919050565b600062002b626046836200321a565b915062002b6f8262003673565b606082019050919050565b600062002b896024836200321a565b915062002b9682620036e8565b604082019050919050565b600062002bb06019836200321a565b915062002bbd8262003737565b602082019050919050565b600062002bd7602c836200321a565b915062002be48262003760565b604082019050919050565b600062002bfe6030836200321a565b915062002c0b82620037af565b604082019050919050565b600062002c256038836200321a565b915062002c3282620037fe565b604082019050919050565b600062002c4c602a836200321a565b915062002c59826200384d565b604082019050919050565b600062002c736036836200321a565b915062002c80826200389c565b604082019050919050565b600062002c9a6029836200321a565b915062002ca782620038eb565b604082019050919050565b600062002cc1602c836200321a565b915062002cce826200393a565b604082019050919050565b600062002ce86047836200321a565b915062002cf58262003989565b606082019050919050565b600062002d0f6029836200321a565b915062002d1c82620039fe565b604082019050919050565b600062002d36602f836200321a565b915062002d438262003a4d565b604082019050919050565b600062002d5d6021836200321a565b915062002d6a8262003a9c565b604082019050919050565b600062002d846031836200321a565b915062002d918262003aeb565b604082019050919050565b600062002dab602c836200321a565b915062002db88262003b3a565b604082019050919050565b62002dce81620033d3565b82525050565b600062002de2828562002af5565b915062002df0828462002af5565b91508190509392505050565b600060208201905062002e13600083018462002a40565b92915050565b600060608201905062002e30600083018662002a40565b62002e3f602083018562002a40565b62002e4e604083018462002dc3565b949350505050565b600060808201905062002e6d600083018762002a40565b62002e7c602083018662002a40565b62002e8b604083018562002dc3565b818103606083015262002e9f818462002a73565b905095945050505050565b600060408201905062002ec1600083018562002a40565b62002ed0602083018462002dc3565b9392505050565b600060208201905062002eee600083018462002a51565b92915050565b600060208201905062002f0b600083018462002a62565b92915050565b6000602082019050818103600083015262002f2d818462002ab4565b905092915050565b6000602082019050818103600083015262002f508162002b2c565b9050919050565b6000602082019050818103600083015262002f728162002b53565b9050919050565b6000602082019050818103600083015262002f948162002b7a565b9050919050565b6000602082019050818103600083015262002fb68162002ba1565b9050919050565b6000602082019050818103600083015262002fd88162002bc8565b9050919050565b6000602082019050818103600083015262002ffa8162002bef565b9050919050565b600060208201905081810360008301526200301c8162002c16565b9050919050565b600060208201905081810360008301526200303e8162002c3d565b9050919050565b60006020820190508181036000830152620030608162002c64565b9050919050565b60006020820190508181036000830152620030828162002c8b565b9050919050565b60006020820190508181036000830152620030a48162002cb2565b9050919050565b60006020820190508181036000830152620030c68162002cd9565b9050919050565b60006020820190508181036000830152620030e88162002d00565b9050919050565b600060208201905081810360008301526200310a8162002d27565b9050919050565b600060208201905081810360008301526200312c8162002d4e565b9050919050565b600060208201905081810360008301526200314e8162002d75565b9050919050565b60006020820190508181036000830152620031708162002d9c565b9050919050565b60006020820190506200318e600083018462002dc3565b92915050565b6000620031a0620031b3565b9050620031ae828262003458565b919050565b6000604051905090565b600067ffffffffffffffff821115620031db57620031da620035d0565b5b620031e68262003613565b9050602081019050919050565b600081519050919050565b600081519050919050565b600082825260208201905092915050565b600082825260208201905092915050565b600081905092915050565b60006200324382620033d3565b91506200325083620033d3565b9250827fffffffffffffffffffffffffffffffffffffffffffffffffffffffffffffffff0382111562003288576200328762003514565b5b828201905092915050565b6000620032a082620033d3565b9150620032ad83620033d3565b925082620032c057620032bf62003543565b5b828204905092915050565b6000620032d882620033d3565b9150620032e583620033d3565b9250817fffffffffffffffffffffffffffffffffffffffffffffffffffffffffffffffff048311821515161562003321576200332062003514565b5b828202905092915050565b60006200333982620033d3565b91506200334683620033d3565b9250828210156200335c576200335b62003514565b5b828203905092915050565b60006200337482620033b3565b9050919050565b60008115159050919050565b60007fffffffff0000000000000000000000000000000000000000000000000000000082169050919050565b600073ffffffffffffffffffffffffffffffffffffffff82169050919050565b6000819050919050565b82818337600083830152505050565b60005b838110156200340c578082015181840152602081019050620033ef565b838111156200341c576000848401525b50505050565b600060028204905060018216806200343b57607f821691505b6020821081141562003452576200345162003572565b5b50919050565b620034638262003613565b810181811067ffffffffffffffff82111715620034855762003484620035d0565b5b80604052505050565b60006200349b82620033d3565b91507fffffffffffffffffffffffffffffffffffffffffffffffffffffffffffffffff821415620034d157620034d062003514565b5b600182019050919050565b6000620034e982620033d3565b9150620034f683620033d3565b92508262003509576200350862003543565b5b828206905092915050565b7f4e487b7100000000000000000000000000000000000000000000000000000000600052601160045260246000fd5b7f4e487b7100000000000000000000000000000000000000000000000000000000600052601260045260246000fd5b7f4e487b7100000000000000000000000000000000000000000000000000000000600052602260045260246000fd5b7f4e487b7100000000000000000000000000000000000000000000000000000000600052603260045260246000fd5b7f4e487b7100000000000000000000000000000000000000000000000000000000600052604160045260246000fd5b600080fd5b600080fd5b600080fd5b600080fd5b6000601f19601f8301169050919050565b7f4552433732313a207472616e7366657220746f206e6f6e20455243373231526560008201527f63656976657220696d706c656d656e7465720000000000000000000000000000602082015250565b7f417065546f6b656e466163746f72793a20436f72726573706f6e64696e67204160008201527f7065546f6b656e732063616e6e6f74206265206275726e65642061742074686960208201527f732074696d650000000000000000000000000000000000000000000000000000604082015250565b7f4552433732313a207472616e7366657220746f20746865207a65726f2061646460008201527f7265737300000000000000000000000000000000000000000000000000000000602082015250565b7f4552433732313a20617070726f766520746f2063616c6c657200000000000000600082015250565b7f4552433732313a206f70657261746f7220717565727920666f72206e6f6e657860008201527f697374656e7420746f6b656e0000000000000000000000000000000000000000602082015250565b7f4170654c656e643a20596f752063616e6e6f742070756c6c20796f757220746f60008201527f6b656e20617420746869732074696d6500000000000000000000000000000000602082015250565b7f4552433732313a20617070726f76652063616c6c6572206973206e6f74206f7760008201527f6e6572206e6f7220617070726f76656420666f7220616c6c0000000000000000602082015250565b7f4552433732313a2062616c616e636520717565727920666f7220746865207a6560008201527f726f206164647265737300000000000000000000000000000000000000000000602082015250565b7f417065546f6b656e466163746f72793a205468697320746f6b656e206973206e60008201527f6f7420617661696c61626c6520746f20626f72726f7700000000000000000000602082015250565b7f4552433732313a206f776e657220717565727920666f72206e6f6e657869737460008201527f656e7420746f6b656e0000000000000000000000000000000000000000000000602082015250565b7f4552433732313a20617070726f76656420717565727920666f72206e6f6e657860008201527f697374656e7420746f6b656e0000000000000000000000000000000000000000602082015250565b7f417065546f6b656e3a20596f752063616e6e6f74206d696e74206d6f7265207460008201527f68616e20323520617065546f6b656e732070657220746f6b656e20617420746860208201527f69732074696d6500000000000000000000000000000000000000000000000000604082015250565b7f4552433732313a207472616e73666572206f6620746f6b656e2074686174206960008201527f73206e6f74206f776e0000000000000000000000000000000000000000000000602082015250565b7f4552433732314d657461646174613a2055524920717565727920666f72206e6f60008201527f6e6578697374656e7420746f6b656e0000000000000000000000000000000000602082015250565b7f4552433732313a20617070726f76616c20746f2063757272656e74206f776e6560008201527f7200000000000000000000000000000000000000000000000000000000000000602082015250565b7f4552433732313a207472616e736665722063616c6c6572206973206e6f74206f60008201527f776e6572206e6f7220617070726f766564000000000000000000000000000000602082015250565b7f4170654c656e643a20596f7520617265206e6f7420746865206f776e6572206f60008201527f66207468697320746f6b656e0000000000000000000000000000000000000000602082015250565b62003b948162003367565b811462003ba057600080fd5b50565b62003bae816200337b565b811462003bba57600080fd5b50565b62003bc88162003387565b811462003bd457600080fd5b50565b62003be281620033d3565b811462003bee57600080fd5b5056fe60806040523480156200001157600080fd5b50604051620014e6380380620014e683398181016040528101906200003791906200005c565b8060008190555050620000b7565b60008151905062000056816200009d565b92915050565b60006020828403121562000075576200007462000098565b5b6000620000858482850162000045565b91505092915050565b6000819050919050565b600080fd5b620000a8816200008e565b8114620000b457600080fd5b50565b61141f80620000c76000396000f3fe608060405234801561001057600080fd5b50600436106100885760003560e01c80636a4f832b1161005b5780636a4f832b146101395780639b1f9e7414610155578063b3e1c71814610171578063b88d4fde1461018d57610088565b8063025e7c271461008d578063081812fc146100bd57806342842e0e146100ed5780636352211e14610109575b600080fd5b6100a760048036038101906100a29190610d0a565b6101a9565b6040516100b49190610e5e565b60405180910390f35b6100d760048036038101906100d29190610d0a565b6101e6565b6040516100e49190610e5e565b60405180910390f35b61010760048036038101906101029190610b85565b61026b565b005b610123600480360381019061011e9190610d0a565b61028b565b6040516101309190610e5e565b60405180910390f35b610153600480360381019061014e9190610c9b565b61033d565b005b61016f600480360381019061016a9190610d0a565b61034c565b005b61018b60048036038101906101869190610c5b565b610450565b005b6101a760048036038101906101a29190610bd8565b61046e565b005b60006002600083815260200190815260200160002060009054906101000a900473ffffffffffffffffffffffffffffffffffffffff169050919050565b60006101f1826104d0565b610230576040517f08c379a000000000000000000000000000000000000000000000000000000000815260040161022790610f39565b60405180910390fd5b6003600083815260200190815260200160002060009054906101000a900473ffffffffffffffffffffffffffffffffffffffff169050919050565b6102868383836040518060200160405280600081525061046e565b505050565b6000806002600084815260200190815260200160002060009054906101000a900473ffffffffffffffffffffffffffffffffffffffff169050600073ffffffffffffffffffffffffffffffffffffffff168173ffffffffffffffffffffffffffffffffffffffff161415610334576040517f08c379a000000000000000000000000000000000000000000000000000000000815260040161032b90610eb9565b60405180910390fd5b80915050919050565b610347838361053c565b505050565b60006103578261028b565b90506103646000836106fd565b60018060008373ffffffffffffffffffffffffffffffffffffffff1673ffffffffffffffffffffffffffffffffffffffff16815260200190815260200160002060008282546103b39190611036565b925050819055506002600083815260200190815260200160002060006101000a81549073ffffffffffffffffffffffffffffffffffffffff021916905581600073ffffffffffffffffffffffffffffffffffffffff168273ffffffffffffffffffffffffffffffffffffffff167fddf252ad1be2c89b69c2b068fc378daa952ba7f163c4a11628f55a4df523b3ef60405160405180910390a45050565b61046a82826040518060200160405280600081525061033d565b5050565b61047f6104796107b6565b836107be565b6104be576040517f08c379a00000000000000000000000000000000000000000000000000000000081526004016104b590610e79565b60405180910390fd5b6104ca8484848461088b565b50505050565b60008073ffffffffffffffffffffffffffffffffffffffff166002600084815260200190815260200160002060009054906101000a900473ffffffffffffffffffffffffffffffffffffffff1673ffffffffffffffffffffffffffffffffffffffff1614159050919050565b600073ffffffffffffffffffffffffffffffffffffffff168273ffffffffffffffffffffffffffffffffffffffff1614156105ac576040517f08c379a00000000000000000000000000000000000000000000000000000000081526004016105a390610e99565b60405180910390fd5b6105b5816104d0565b156105f5576040517f08c379a00000000000000000000000000000000000000000000000000000000081526004016105ec90610f19565b60405180910390fd5b60018060008473ffffffffffffffffffffffffffffffffffffffff1673ffffffffffffffffffffffffffffffffffffffff16815260200190815260200160002060008282546106449190610fe0565b92505081905550816002600083815260200190815260200160002060006101000a81548173ffffffffffffffffffffffffffffffffffffffff021916908373ffffffffffffffffffffffffffffffffffffffff160217905550808273ffffffffffffffffffffffffffffffffffffffff16600073ffffffffffffffffffffffffffffffffffffffff167fddf252ad1be2c89b69c2b068fc378daa952ba7f163c4a11628f55a4df523b3ef60405160405180910390a45050565b816003600083815260200190815260200160002060006101000a81548173ffffffffffffffffffffffffffffffffffffffff021916908373ffffffffffffffffffffffffffffffffffffffff160217905550808273ffffffffffffffffffffffffffffffffffffffff166107708361028b565b73ffffffffffffffffffffffffffffffffffffffff167f8c5be1e5ebec7d5bd14f71427d1e84f3dd0314c0f7b2291e5b200ac8c7c3b92560405160405180910390a45050565b600033905090565b60006107c9826104d0565b610808576040517f08c379a00000000000000000000000000000000000000000000000000000000081526004016107ff90610f59565b60405180910390fd5b6000610813836101a9565b90508073ffffffffffffffffffffffffffffffffffffffff168473ffffffffffffffffffffffffffffffffffffffff16148061088257508373ffffffffffffffffffffffffffffffffffffffff1661086a846101e6565b73ffffffffffffffffffffffffffffffffffffffff16145b91505092915050565b61089684848461089c565b50505050565b8273ffffffffffffffffffffffffffffffffffffffff166108bc826101a9565b73ffffffffffffffffffffffffffffffffffffffff1614610912576040517f08c379a000000000000000000000000000000000000000000000000000000000815260040161090990610ed9565b60405180910390fd5b600073ffffffffffffffffffffffffffffffffffffffff168273ffffffffffffffffffffffffffffffffffffffff161415610982576040517f08c379a000000000000000000000000000000000000000000000000000000000815260040161097990610ef9565b60405180910390fd5b61098d6000826106fd565b60018060008573ffffffffffffffffffffffffffffffffffffffff1673ffffffffffffffffffffffffffffffffffffffff16815260200190815260200160002060008282546109dc9190611036565b9250508190555060018060008473ffffffffffffffffffffffffffffffffffffffff1673ffffffffffffffffffffffffffffffffffffffff1681526020019081526020016000206000828254610a329190610fe0565b92505081905550816002600083815260200190815260200160002060006101000a81548173ffffffffffffffffffffffffffffffffffffffff021916908373ffffffffffffffffffffffffffffffffffffffff160217905550808273ffffffffffffffffffffffffffffffffffffffff168473ffffffffffffffffffffffffffffffffffffffff167fddf252ad1be2c89b69c2b068fc378daa952ba7f163c4a11628f55a4df523b3ef60405160405180910390a4505050565b6000610afe610af984610f9e565b610f79565b905082815260208101848484011115610b1a57610b19611149565b5b610b258482856110a6565b509392505050565b600081359050610b3c816113bb565b92915050565b600082601f830112610b5757610b56611144565b5b8135610b67848260208601610aeb565b91505092915050565b600081359050610b7f816113d2565b92915050565b600080600060608486031215610b9e57610b9d611153565b5b6000610bac86828701610b2d565b9350506020610bbd86828701610b2d565b9250506040610bce86828701610b70565b9150509250925092565b60008060008060808587031215610bf257610bf1611153565b5b6000610c0087828801610b2d565b9450506020610c1187828801610b2d565b9350506040610c2287828801610b70565b925050606085013567ffffffffffffffff811115610c4357610c4261114e565b5b610c4f87828801610b42565b91505092959194509250565b60008060408385031215610c7257610c71611153565b5b6000610c8085828601610b2d565b9250506020610c9185828601610b70565b9150509250929050565b600080600060608486031215610cb457610cb3611153565b5b6000610cc286828701610b2d565b9350506020610cd386828701610b70565b925050604084013567ffffffffffffffff811115610cf457610cf361114e565b5b610d0086828701610b42565b9150509250925092565b600060208284031215610d2057610d1f611153565b5b6000610d2e84828501610b70565b91505092915050565b610d408161106a565b82525050565b6000610d53603383610fcf565b9150610d5e82611169565b604082019050919050565b6000610d76602283610fcf565b9150610d81826111b8565b604082019050919050565b6000610d99602b83610fcf565b9150610da482611207565b604082019050919050565b6000610dbc602b83610fcf565b9150610dc782611256565b604082019050919050565b6000610ddf602683610fcf565b9150610dea826112a5565b604082019050919050565b6000610e02601e83610fcf565b9150610e0d826112f4565b602082019050919050565b6000610e25602e83610fcf565b9150610e308261131d565b604082019050919050565b6000610e48602e83610fcf565b9150610e538261136c565b604082019050919050565b6000602082019050610e736000830184610d37565b92915050565b60006020820190508181036000830152610e9281610d46565b9050919050565b60006020820190508181036000830152610eb281610d69565b9050919050565b60006020820190508181036000830152610ed281610d8c565b9050919050565b60006020820190508181036000830152610ef281610daf565b9050919050565b60006020820190508181036000830152610f1281610dd2565b9050919050565b60006020820190508181036000830152610f3281610df5565b9050919050565b60006020820190508181036000830152610f5281610e18565b9050919050565b60006020820190508181036000830152610f7281610e3b565b9050919050565b6000610f83610f94565b9050610f8f82826110b5565b919050565b6000604051905090565b600067ffffffffffffffff821115610fb957610fb8611115565b5b610fc282611158565b9050602081019050919050565b600082825260208201905092915050565b6000610feb8261109c565b9150610ff68361109c565b9250827fffffffffffffffffffffffffffffffffffffffffffffffffffffffffffffffff0382111561102b5761102a6110e6565b5b828201905092915050565b60006110418261109c565b915061104c8361109c565b92508282101561105f5761105e6110e6565b5b828203905092915050565b60006110758261107c565b9050919050565b600073ffffffffffffffffffffffffffffffffffffffff82169050919050565b6000819050919050565b82818337600083830152505050565b6110be82611158565b810181811067ffffffffffffffff821117156110dd576110dc611115565b5b80604052505050565b7f4e487b7100000000000000000000000000000000000000000000000000000000600052601160045260246000fd5b7f4e487b7100000000000000000000000000000000000000000000000000000000600052604160045260246000fd5b600080fd5b600080fd5b600080fd5b600080fd5b6000601f19601f8301169050919050565b7f417065546f6b656e3a207472616e736665722063616c6c6572206973206e6f7460008201527f206f776e6572206e6f7220617070726f76656400000000000000000000000000602082015250565b7f417065546f6b656e3a206d696e7420746f20746865207a65726f20616464726560008201527f7373000000000000000000000000000000000000000000000000000000000000602082015250565b7f417065546f6b656e3a206f776e657220717565727920666f72206e6f6e65786960008201527f7374656e7420746f6b656e000000000000000000000000000000000000000000602082015250565b7f417065546f6b656e3a207472616e73666572206f6620746f6b656e207468617460008201527f206973206e6f74206f776e000000000000000000000000000000000000000000602082015250565b7f417065546f6b656e3a207472616e7366657220746f20746865207a65726f206160008201527f6464726573730000000000000000000000000000000000000000000000000000602082015250565b7f417065546f6b656e3a20746f6b656e20616c7265616479206d696e7465640000600082015250565b7f417065546f6b656e3a20617070726f76656420717565727920666f72206e6f6e60008201527f6578697374656e7420746f6b656e000000000000000000000000000000000000602082015250565b7f417065546f6b656e3a206f70657261746f7220717565727920666f72206e6f6e60008201527f6578697374656e7420746f6b656e000000000000000000000000000000000000602082015250565b6113c48161106a565b81146113cf57600080fd5b50565b6113db8161109c565b81146113e657600080fd5b5056fea2646970667358221220a91f4893d315aa70fe2a291bdc2f0892bec84872e11e9accb919719e75ed54c264736f6c63430008060033a2646970667358221220ee42475abf801e4ee2bd738ad205c59a35f400b20b05c28cd4a69e2de427733164736f6c63430008060033",
  "linkReferences": {},
  "deployedLinkReferences": {}
}