{
  "_format": "hh-sol-artifact-1",
  "contractName": "ApeLend",
  "sourceName": "contracts/ApeLend.sol",
  "abi": [
    {
      "inputs": [],
      "stateMutability": "nonpayable",
      "type": "constructor"
    },
    {
      "anonymous": false,
      "inputs": [
        {
          "indexed": true,
          "internalType": "address",
          "name": "owner",
          "type": "address"
        },
        {
          "indexed": true,
          "internalType": "address",
          "name": "approved",
          "type": "address"
        },
        {
          "indexed": true,
          "internalType": "uint256",
          "name": "tokenId",
          "type": "uint256"
        }
      ],
      "name": "Approval",
      "type": "event"
    },
    {
      "anonymous": false,
      "inputs": [
        {
          "indexed": true,
          "internalType": "address",
          "name": "owner",
          "type": "address"
        },
        {
          "indexed": true,
          "internalType": "address",
          "name": "operator",
          "type": "address"
        },
        {
          "indexed": false,
          "internalType": "bool",
          "name": "approved",
          "type": "bool"
        }
      ],
      "name": "ApprovalForAll",
      "type": "event"
    },
    {
      "anonymous": false,
      "inputs": [
        {
          "indexed": true,
          "internalType": "address",
          "name": "from",
          "type": "address"
        },
        {
          "indexed": true,
          "internalType": "address",
          "name": "to",
          "type": "address"
        },
        {
          "indexed": true,
          "internalType": "uint256",
          "name": "tokenId",
          "type": "uint256"
        }
      ],
      "name": "Transfer",
      "type": "event"
    },
    {
      "stateMutability": "payable",
      "type": "fallback"
    },
    {
      "inputs": [
        {
          "internalType": "uint256",
          "name": "_tokenId",
          "type": "uint256"
        }
      ],
      "name": "apeTokenTotalSupply",
      "outputs": [
        {
          "internalType": "uint256",
          "name": "_apeTokenTotalSupply",
          "type": "uint256"
        }
      ],
      "stateMutability": "view",
      "type": "function"
    },
    {
      "inputs": [
        {
          "internalType": "address",
          "name": "to",
          "type": "address"
        },
        {
          "internalType": "uint256",
          "name": "tokenId",
          "type": "uint256"
        }
      ],
      "name": "approve",
      "outputs": [],
      "stateMutability": "nonpayable",
      "type": "function"
    },
    {
      "inputs": [
        {
          "internalType": "address",
          "name": "owner",
          "type": "address"
        }
      ],
      "name": "balanceOf",
      "outputs": [
        {
          "internalType": "uint256",
          "name": "",
          "type": "uint256"
        }
      ],
      "stateMutability": "view",
      "type": "function"
    },
    {
      "inputs": [
        {
          "internalType": "uint256",
          "name": "_underlyingTokenId",
          "type": "uint256"
        },
        {
          "internalType": "uint256",
          "name": "_apeTokenId",
          "type": "uint256"
        },
        {
          "internalType": "address",
          "name": "_apeLendAddress",
          "type": "address"
        },
        {
          "internalType": "address",
          "name": "_to",
          "type": "address"
        }
      ],
      "name": "borrowApeToken",
      "outputs": [],
      "stateMutability": "nonpayable",
      "type": "function"
    },
    {
      "inputs": [
        {
          "internalType": "uint256",
          "name": "_underlyingTokenId",
          "type": "uint256"
        },
        {
          "internalType": "uint256",
          "name": "_borrowingApeTokenId",
          "type": "uint256"
        }
      ],
      "name": "borrowToken",
      "outputs": [],
      "stateMutability": "payable",
      "type": "function"
    },
    {
      "inputs": [
        {
          "internalType": "uint256",
          "name": "_underlyingTokenId",
          "type": "uint256"
        }
      ],
      "name": "burnApeToken",
      "outputs": [],
      "stateMutability": "nonpayable",
      "type": "function"
    },
    {
      "inputs": [
        {
          "internalType": "uint256",
          "name": "tokenId",
          "type": "uint256"
        }
      ],
      "name": "getApproved",
      "outputs": [
        {
          "internalType": "address",
          "name": "",
          "type": "address"
        }
      ],
      "stateMutability": "view",
      "type": "function"
    },
    {
      "inputs": [
        {
          "internalType": "address",
          "name": "owner",
          "type": "address"
        },
        {
          "internalType": "address",
          "name": "operator",
          "type": "address"
        }
      ],
      "name": "isApprovedForAll",
      "outputs": [
        {
          "internalType": "bool",
          "name": "",
          "type": "bool"
        }
      ],
      "stateMutability": "view",
      "type": "function"
    },
    {
      "inputs": [
        {
          "internalType": "address",
          "name": "_tokenAddress",
          "type": "address"
        },
        {
          "internalType": "uint256",
          "name": "_tokenId",
          "type": "uint256"
        },
        {
          "internalType": "uint256",
          "name": "_apeTokenAmount",
          "type": "uint256"
        },
        {
          "internalType": "uint256",
          "name": "_apeTokenLoanTerm",
          "type": "uint256"
        }
      ],
      "name": "lendToken",
      "outputs": [],
      "stateMutability": "nonpayable",
      "type": "function"
    },
    {
      "inputs": [],
      "name": "name",
      "outputs": [
        {
          "internalType": "string",
          "name": "",
          "type": "string"
        }
      ],
      "stateMutability": "view",
      "type": "function"
    },
    {
      "inputs": [
        {
          "internalType": "address",
          "name": "",
          "type": "address"
        },
        {
          "internalType": "address",
          "name": "",
          "type": "address"
        },
        {
          "internalType": "uint256",
          "name": "",
          "type": "uint256"
        },
        {
          "internalType": "bytes",
          "name": "",
          "type": "bytes"
        }
      ],
      "name": "onERC721Received",
      "outputs": [
        {
          "internalType": "bytes4",
          "name": "",
          "type": "bytes4"
        }
      ],
      "stateMutability": "nonpayable",
      "type": "function"
    },
    {
      "inputs": [
        {
          "internalType": "address",
          "name": "operator",
          "type": "address"
        },
        {
          "internalType": "address",
          "name": "from",
          "type": "address"
        },
        {
          "internalType": "uint256",
          "name": "tokenId",
          "type": "uint256"
        },
        {
          "internalType": "bytes",
          "name": "data",
          "type": "bytes"
        }
      ],
      "name": "onERC721ReceivedToProtocol",
      "outputs": [
        {
          "internalType": "bytes4",
          "name": "",
          "type": "bytes4"
        }
      ],
      "stateMutability": "nonpayable",
      "type": "function"
    },
    {
      "inputs": [
        {
          "internalType": "uint256",
          "name": "tokenId",
          "type": "uint256"
        }
      ],
      "name": "ownerOf",
      "outputs": [
        {
          "internalType": "address",
          "name": "",
          "type": "address"
        }
      ],
      "stateMutability": "view",
      "type": "function"
    },
    {
      "inputs": [
        {
          "internalType": "uint256",
          "name": "_tokenId",
          "type": "uint256"
        },
        {
          "internalType": "uint256",
          "name": "_apeTokenId",
          "type": "uint256"
        }
      ],
      "name": "ownerOfApeToken",
      "outputs": [
        {
          "internalType": "address",
          "name": "_apeTokenOwner",
          "type": "address"
        }
      ],
      "stateMutability": "view",
      "type": "function"
    },
    {
      "inputs": [
        {
          "internalType": "address",
          "name": "_tokenAddress",
          "type": "address"
        },
        {
          "internalType": "uint256",
          "name": "_tokenId",
          "type": "uint256"
        }
      ],
      "name": "pullToken",
      "outputs": [],
      "stateMutability": "nonpayable",
      "type": "function"
    },
    {
      "inputs": [
        {
          "internalType": "address",
          "name": "from",
          "type": "address"
        },
        {
          "internalType": "address",
          "name": "to",
          "type": "address"
        },
        {
          "internalType": "uint256",
          "name": "tokenId",
          "type": "uint256"
        }
      ],
      "name": "safeTransferFrom",
      "outputs": [],
      "stateMutability": "nonpayable",
      "type": "function"
    },
    {
      "inputs": [
        {
          "internalType": "address",
          "name": "from",
          "type": "address"
        },
        {
          "internalType": "address",
          "name": "to",
          "type": "address"
        },
        {
          "internalType": "uint256",
          "name": "tokenId",
          "type": "uint256"
        },
        {
          "internalType": "bytes",
          "name": "_data",
          "type": "bytes"
        }
      ],
      "name": "safeTransferFrom",
      "outputs": [],
      "stateMutability": "nonpayable",
      "type": "function"
    },
    {
      "inputs": [
        {
          "internalType": "address",
          "name": "operator",
          "type": "address"
        },
        {
          "internalType": "bool",
          "name": "approved",
          "type": "bool"
        }
      ],
      "name": "setApprovalForAll",
      "outputs": [],
      "stateMutability": "nonpayable",
      "type": "function"
    },
    {
      "inputs": [
        {
          "internalType": "bytes4",
          "name": "interfaceId",
          "type": "bytes4"
        }
      ],
      "name": "supportsInterface",
      "outputs": [
        {
          "internalType": "bool",
          "name": "",
          "type": "bool"
        }
      ],
      "stateMutability": "view",
      "type": "function"
    },
    {
      "inputs": [],
      "name": "symbol",
      "outputs": [
        {
          "internalType": "string",
          "name": "",
          "type": "string"
        }
      ],
      "stateMutability": "view",
      "type": "function"
    },
    {
      "inputs": [
        {
          "internalType": "uint256",
          "name": "tokenId",
          "type": "uint256"
        }
      ],
      "name": "tokenURI",
      "outputs": [
        {
          "internalType": "string",
          "name": "",
          "type": "string"
        }
      ],
      "stateMutability": "view",
      "type": "function"
    },
    {
      "inputs": [
        {
          "internalType": "address",
          "name": "from",
          "type": "address"
        },
        {
          "internalType": "address",
          "name": "to",
          "type": "address"
        },
        {
          "internalType": "uint256",
          "name": "tokenId",
          "type": "uint256"
        }
      ],
      "name": "transferFrom",
      "outputs": [],
      "stateMutability": "nonpayable",
      "type": "function"
    },
    {
      "stateMutability": "payable",
      "type": "receive"
    }
  ],
  "bytecode": "0x60806040523480156200001157600080fd5b506040518060400160405280600781526020017f4170654c656e64000000000000000000000000000000000000000000000000008152506040518060400160405280600381526020017f4150450000000000000000000000000000000000000000000000000000000000815250816000908051906020019062000096929190620000f9565b508060019080519060200190620000af929190620000f9565b50505033600d60006101000a81548173ffffffffffffffffffffffffffffffffffffffff021916908373ffffffffffffffffffffffffffffffffffffffff1602179055506200020e565b8280546200010790620001a9565b90600052602060002090601f0160209004810192826200012b576000855562000177565b82601f106200014657805160ff191683800117855562000177565b8280016001018555821562000177579182015b828111156200017657825182559160200191906001019062000159565b5b5090506200018691906200018a565b5090565b5b80821115620001a55760008160009055506001016200018b565b5090565b60006002820490506001821680620001c257607f821691505b60208210811415620001d957620001d8620001df565b5b50919050565b7f4e487b7100000000000000000000000000000000000000000000000000000000600052602260045260246000fd5b61502b806200021e6000396000f3fe608060405260043610620001575760003560e01c80635306e4b311620000bb5780638d96156b11620000795780638d96156b14620004e557806395d89b411462000513578063a22cb4651462000543578063b88d4fde1462000571578063c87b56dd146200059f578063e985e9c514620005e3576200015f565b80635306e4b314620003bd5780636352211e14620003eb5780636b0e2f10146200042f57806370a0823114620004735780637b05d58814620004b7576200015f565b8063150b7a021162000115578063150b7a0214620002675780631c576a7014620002ab57806323b872dd14620002d957806337c51b18146200030757806342842e0e146200034b5780634effdda01462000379576200015f565b806301ffc9a7146200016157806306fdde0314620001a5578063081812fc14620001d557806308ec59271462000219578063095ea7b31462000239576200015f565b366200015f57005b005b3480156200016e57600080fd5b506200018d600480360381019062000187919062002835565b62000627565b6040516200019c919062002e1b565b60405180910390f35b348015620001b257600080fd5b50620001bd6200070d565b604051620001cc919062002e55565b60405180910390f35b348015620001e257600080fd5b50620002016004803603810190620001fb919062002899565b620007a7565b60405162000210919062002d40565b60405180910390f35b620002376004803603810190620002319190620028cb565b62000831565b005b3480156200024657600080fd5b506200026560048036038101906200025f91906200277c565b6200084f565b005b3480156200027457600080fd5b506200029360048036038101906200028d9190620026a4565b62000978565b604051620002a2919062002e38565b60405180910390f35b348015620002b857600080fd5b50620002d76004803603810190620002d1919062002912565b6200098c565b005b348015620002e657600080fd5b50620003056004803603810190620002ff919062002648565b62000b24565b005b3480156200031457600080fd5b506200033360048036038101906200032d9190620028cb565b62000b8d565b60405162000342919062002d40565b60405180910390f35b3480156200035857600080fd5b5062000377600480360381019062000371919062002648565b62000ba3565b005b3480156200038657600080fd5b50620003a560048036038101906200039f9190620026a4565b62000bc5565b604051620003b4919062002e38565b60405180910390f35b348015620003ca57600080fd5b50620003e96004803603810190620003e391906200277c565b62000bdf565b005b348015620003f857600080fd5b5062000417600480360381019062000411919062002899565b62000db7565b60405162000426919062002d40565b60405180910390f35b3480156200043c57600080fd5b506200045b600480360381019062000455919062002899565b62000e6c565b6040516200046a9190620030bb565b60405180910390f35b3480156200048057600080fd5b506200049f60048036038101906200049991906200259d565b62000e80565b604051620004ae9190620030bb565b60405180910390f35b348015620004c457600080fd5b50620004e36004803603810190620004dd919062002899565b62000f3b565b005b348015620004f257600080fd5b506200051160048036038101906200050b9190620027c3565b620010c9565b005b3480156200052057600080fd5b506200052b6200134a565b6040516200053a919062002e55565b60405180910390f35b3480156200055057600080fd5b506200056f600480360381019062000569919062002735565b620013e4565b005b3480156200057e57600080fd5b506200059d6004803603810190620005979190620026a4565b62001570565b005b348015620005ac57600080fd5b50620005cb6004803603810190620005c5919062002899565b620015db565b604051620005da919062002e55565b60405180910390f35b348015620005f057600080fd5b506200060f600480360381019062000609919062002601565b6200168f565b6040516200061e919062002e1b565b60405180910390f35b60007f80ac58cd000000000000000000000000000000000000000000000000000000007bffffffffffffffffffffffffffffffffffffffffffffffffffffffff1916827bffffffffffffffffffffffffffffffffffffffffffffffffffffffff19161480620006f357507f5b5e139f000000000000000000000000000000000000000000000000000000007bffffffffffffffffffffffffffffffffffffffffffffffffffffffff1916827bffffffffffffffffffffffffffffffffffffffffffffffffffffffff1916145b80620007065750620007058262001723565b5b9050919050565b6060600080546200071e9062003366565b80601f01602080910402602001604051908101604052809291908181526020018280546200074c9062003366565b80156200079d5780601f1062000771576101008083540402835291602001916200079d565b820191906000526020600020905b8154815290600101906020018083116200077f57829003601f168201915b5050505050905090565b6000620007b4826200178d565b620007f6576040517f08c379a0000000000000000000000000000000000000000000000000000000008152600401620007ed9062002fcd565b60405180910390fd5b6004600083815260200190815260200160002060009054906101000a900473ffffffffffffffffffffffffffffffffffffffff169050919050565b6000309050600033905062000849848484846200098c565b50505050565b60006200085c8262000db7565b90508073ffffffffffffffffffffffffffffffffffffffff168373ffffffffffffffffffffffffffffffffffffffff161415620008d0576040517f08c379a0000000000000000000000000000000000000000000000000000000008152600401620008c79062003055565b60405180910390fd5b8073ffffffffffffffffffffffffffffffffffffffff16620008f1620017f9565b73ffffffffffffffffffffffffffffffffffffffff16148062000925575062000924816200091e620017f9565b6200168f565b5b62000967576040517f08c379a00000000000000000000000000000000000000000000000000000000081526004016200095e9062002f45565b60405180910390fd5b62000973838362001801565b505050565b600063150b7a0260e01b9050949350505050565b600115156200099d858585620018bc565b151514620009e2576040517f08c379a0000000000000000000000000000000000000000000000000000000008152600401620009d99062002f89565b60405180910390fd5b600a6000858152602001908152602001600020544262000a0391906200317a565b600a60008681526020019081526020016000208190555060006006600086815260200190815260200160002060009054906101000a900473ffffffffffffffffffffffffffffffffffffffff1690506000819050336009600087815260200190815260200160002060006101000a81548173ffffffffffffffffffffffffffffffffffffffff021916908373ffffffffffffffffffffffffffffffffffffffff1602179055508073ffffffffffffffffffffffffffffffffffffffff166342842e0e8585886040518463ffffffff1660e01b815260040162000ae89392919062002d5d565b600060405180830381600087803b15801562000b0357600080fd5b505af115801562000b18573d6000803e3d6000fd5b50505050505050505050565b62000b3962000b32620017f9565b82620019de565b62000b7b576040517f08c379a000000000000000000000000000000000000000000000000000000000815260040162000b729062003077565b60405180910390fd5b62000b8883838362001ac9565b505050565b600062000b9b838362001d35565b905092915050565b62000bc08383836040518060200160405280600081525062001570565b505050565b600062000bd58585858562000978565b9050949350505050565b600e600082815260200190815260200160002060009054906101000a900473ffffffffffffffffffffffffffffffffffffffff1673ffffffffffffffffffffffffffffffffffffffff163373ffffffffffffffffffffffffffffffffffffffff161462000c83576040517f08c379a000000000000000000000000000000000000000000000000000000000815260040162000c7a9062003099565b60405180910390fd5b62000c8e8162001e06565b421162000cd2576040517f08c379a000000000000000000000000000000000000000000000000000000000815260040162000cc99062002f23565b60405180910390fd5b81600c60006101000a81548173ffffffffffffffffffffffffffffffffffffffff021916908373ffffffffffffffffffffffffffffffffffffffff16021790555062000d1e8162000f3b565b600c60009054906101000a900473ffffffffffffffffffffffffffffffffffffffff1673ffffffffffffffffffffffffffffffffffffffff166323b872dd3033846040518463ffffffff1660e01b815260040162000d7f9392919062002d5d565b600060405180830381600087803b15801562000d9a57600080fd5b505af115801562000daf573d6000803e3d6000fd5b505050505050565b6000806002600084815260200190815260200160002060009054906101000a900473ffffffffffffffffffffffffffffffffffffffff169050600073ffffffffffffffffffffffffffffffffffffffff168173ffffffffffffffffffffffffffffffffffffffff16141562000e63576040517f08c379a000000000000000000000000000000000000000000000000000000000815260040162000e5a9062002fab565b60405180910390fd5b80915050919050565b600062000e798262001e23565b9050919050565b60008073ffffffffffffffffffffffffffffffffffffffff168273ffffffffffffffffffffffffffffffffffffffff16141562000ef4576040517f08c379a000000000000000000000000000000000000000000000000000000000815260040162000eeb9062002f67565b60405180910390fd5b600360008373ffffffffffffffffffffffffffffffffffffffff1673ffffffffffffffffffffffffffffffffffffffff168152602001908152602001600020549050919050565b600a600082815260200190815260200160002054421162000f93576040517f08c379a000000000000000000000000000000000000000000000000000000000815260040162000f8a9062002e9b565b60405180910390fd5b60006006600083815260200190815260200160002060009054906101000a900473ffffffffffffffffffffffffffffffffffffffff16905060008190506000600b60008581526020019081526020016000205490506000600b60008681526020019081526020016000208190555060005b81811015620010c25760006001826200101e91906200317a565b6103e8876200102e91906200320f565b6200103a91906200317a565b90508373ffffffffffffffffffffffffffffffffffffffff16639b1f9e74826040518263ffffffff1660e01b8152600401620010779190620030bb565b600060405180830381600087803b1580156200109257600080fd5b505af1158015620010a7573d6000803e3d6000fd5b50505050508080620010b990620033d2565b91505062001004565b5050505050565b83600c60006101000a81548173ffffffffffffffffffffffffffffffffffffffff021916908373ffffffffffffffffffffffffffffffffffffffff160217905550600c60009054906101000a900473ffffffffffffffffffffffffffffffffffffffff1673ffffffffffffffffffffffffffffffffffffffff16636352211e846040518263ffffffff1660e01b8152600401620011679190620030bb565b60206040518083038186803b1580156200118057600080fd5b505afa15801562001195573d6000803e3d6000fd5b505050506040513d601f19601f82011682018060405250810190620011bb9190620025cf565b73ffffffffffffffffffffffffffffffffffffffff163373ffffffffffffffffffffffffffffffffffffffff16146200122b576040517f08c379a0000000000000000000000000000000000000000000000000000000008152600401620012229062003099565b60405180910390fd5b33600e600085815260200190815260200160002060006101000a81548173ffffffffffffffffffffffffffffffffffffffff021916908373ffffffffffffffffffffffffffffffffffffffff1602179055506200129a3033856040518060200160405280600081525062000bc5565b506000309050600c60009054906101000a900473ffffffffffffffffffffffffffffffffffffffff1673ffffffffffffffffffffffffffffffffffffffff166342842e0e3330876040518463ffffffff1660e01b8152600401620013019392919062002d5d565b600060405180830381600087803b1580156200131c57600080fd5b505af115801562001331573d6000803e3d6000fd5b50505050620013438482858562001e40565b5050505050565b6060600180546200135b9062003366565b80601f0160208091040260200160405190810160405280929190818152602001828054620013899062003366565b8015620013da5780601f10620013ae57610100808354040283529160200191620013da565b820191906000526020600020905b815481529060010190602001808311620013bc57829003601f168201915b5050505050905090565b620013ee620017f9565b73ffffffffffffffffffffffffffffffffffffffff168273ffffffffffffffffffffffffffffffffffffffff1614156200145f576040517f08c379a0000000000000000000000000000000000000000000000000000000008152600401620014569062002edf565b60405180910390fd5b80600560006200146e620017f9565b73ffffffffffffffffffffffffffffffffffffffff1673ffffffffffffffffffffffffffffffffffffffff16815260200190815260200160002060008473ffffffffffffffffffffffffffffffffffffffff1673ffffffffffffffffffffffffffffffffffffffff16815260200190815260200160002060006101000a81548160ff0219169083151502179055508173ffffffffffffffffffffffffffffffffffffffff166200151d620017f9565b73ffffffffffffffffffffffffffffffffffffffff167f17307eab39ab6107e8899845ad3d59bd9653f200f220920489ca2b5937696c318360405162001564919062002e1b565b60405180910390a35050565b620015856200157e620017f9565b83620019de565b620015c7576040517f08c379a0000000000000000000000000000000000000000000000000000000008152600401620015be9062003077565b60405180910390fd5b620015d584848484620020d2565b50505050565b6060620015e8826200178d565b6200162a576040517f08c379a0000000000000000000000000000000000000000000000000000000008152600401620016219062003033565b60405180910390fd5b60006200163662002135565b9050600081511162001658576040518060200160405280600081525062001687565b8062001664846200214c565b6040516020016200167792919062002d18565b6040516020818303038152906040525b915050919050565b6000600560008473ffffffffffffffffffffffffffffffffffffffff1673ffffffffffffffffffffffffffffffffffffffff16815260200190815260200160002060008373ffffffffffffffffffffffffffffffffffffffff1673ffffffffffffffffffffffffffffffffffffffff16815260200190815260200160002060009054906101000a900460ff16905092915050565b60007f01ffc9a7000000000000000000000000000000000000000000000000000000007bffffffffffffffffffffffffffffffffffffffffffffffffffffffff1916827bffffffffffffffffffffffffffffffffffffffffffffffffffffffff1916149050919050565b60008073ffffffffffffffffffffffffffffffffffffffff166002600084815260200190815260200160002060009054906101000a900473ffffffffffffffffffffffffffffffffffffffff1673ffffffffffffffffffffffffffffffffffffffff1614159050919050565b600033905090565b816004600083815260200190815260200160002060006101000a81548173ffffffffffffffffffffffffffffffffffffffff021916908373ffffffffffffffffffffffffffffffffffffffff160217905550808273ffffffffffffffffffffffffffffffffffffffff16620018768362000db7565b73ffffffffffffffffffffffffffffffffffffffff167f8c5be1e5ebec7d5bd14f71427d1e84f3dd0314c0f7b2291e5b200ac8c7c3b92560405160405180910390a45050565b6000806006600086815260200190815260200160002060009054906101000a900473ffffffffffffffffffffffffffffffffffffffff169050600081905060008173ffffffffffffffffffffffffffffffffffffffff16636352211e876040518263ffffffff1660e01b8152600401620019379190620030bb565b60206040518083038186803b1580156200195057600080fd5b505afa15801562001965573d6000803e3d6000fd5b505050506040513d601f19601f820116820180604052508101906200198b9190620025cf565b90508473ffffffffffffffffffffffffffffffffffffffff168173ffffffffffffffffffffffffffffffffffffffff161415620019cf5760019350505050620019d7565b600093505050505b9392505050565b6000620019eb826200178d565b62001a2d576040517f08c379a000000000000000000000000000000000000000000000000000000000815260040162001a249062002f01565b60405180910390fd5b600062001a3a8362000db7565b90508073ffffffffffffffffffffffffffffffffffffffff168473ffffffffffffffffffffffffffffffffffffffff16148062001aac57508373ffffffffffffffffffffffffffffffffffffffff1662001a9484620007a7565b73ffffffffffffffffffffffffffffffffffffffff16145b8062001ac0575062001abf81856200168f565b5b91505092915050565b8273ffffffffffffffffffffffffffffffffffffffff1662001aeb8262000db7565b73ffffffffffffffffffffffffffffffffffffffff161462001b44576040517f08c379a000000000000000000000000000000000000000000000000000000000815260040162001b3b9062003011565b60405180910390fd5b600073ffffffffffffffffffffffffffffffffffffffff168273ffffffffffffffffffffffffffffffffffffffff16141562001bb7576040517f08c379a000000000000000000000000000000000000000000000000000000000815260040162001bae9062002ebd565b60405180910390fd5b62001bc4838383620022c6565b62001bd160008262001801565b6001600360008573ffffffffffffffffffffffffffffffffffffffff1673ffffffffffffffffffffffffffffffffffffffff168152602001908152602001600020600082825462001c23919062003270565b925050819055506001600360008473ffffffffffffffffffffffffffffffffffffffff1673ffffffffffffffffffffffffffffffffffffffff168152602001908152602001600020600082825462001c7c91906200317a565b92505081905550816002600083815260200190815260200160002060006101000a81548173ffffffffffffffffffffffffffffffffffffffff021916908373ffffffffffffffffffffffffffffffffffffffff160217905550808273ffffffffffffffffffffffffffffffffffffffff168473ffffffffffffffffffffffffffffffffffffffff167fddf252ad1be2c89b69c2b068fc378daa952ba7f163c4a11628f55a4df523b3ef60405160405180910390a4505050565b6000806006600085815260200190815260200160002060009054906101000a900473ffffffffffffffffffffffffffffffffffffffff1690508073ffffffffffffffffffffffffffffffffffffffff16636352211e846040518263ffffffff1660e01b815260040162001da99190620030bb565b60206040518083038186803b15801562001dc257600080fd5b505afa15801562001dd7573d6000803e3d6000fd5b505050506040513d601f19601f8201168201806040525081019062001dfd9190620025cf565b91505092915050565b6000600a6000838152602001908152602001600020549050919050565b6000600b6000838152602001908152602001600020549050919050565b6019821062001e86576040517f08c379a000000000000000000000000000000000000000000000000000000000815260040162001e7d9062002fef565b60405180910390fd5b804262001e9491906200317a565b600a60008681526020019081526020016000208190555060008015156007600087815260200190815260200160002060009054906101000a900460ff161515141562001f9f5760016007600087815260200190815260200160002060006101000a81548160ff0219169083151502179055508460405162001f159062002487565b62001f219190620030bb565b604051809103906000f08015801562001f3e573d6000803e3d6000fd5b5090506000819050806006600088815260200190815260200160002060006101000a81548173ffffffffffffffffffffffffffffffffffffffff021916908373ffffffffffffffffffffffffffffffffffffffff1602179055505062001fdc565b60006006600087815260200190815260200160002060009054906101000a900473ffffffffffffffffffffffffffffffffffffffff169050809150505b60005b83811015620020ca57600060018262001ff991906200317a565b6103e8886200200991906200320f565b6200201591906200317a565b9050600b600088815260200190815260200160002060008154809291906200203d90620033d2565b91905055508273ffffffffffffffffffffffffffffffffffffffff1663b3e1c71887836040518363ffffffff1660e01b81526004016200207f92919062002dee565b600060405180830381600087803b1580156200209a57600080fd5b505af1158015620020af573d6000803e3d6000fd5b50505050508080620020c190620033d2565b91505062001fdf565b505050505050565b620020df84848462001ac9565b620020ed84848484620022cb565b6200212f576040517f08c379a0000000000000000000000000000000000000000000000000000000008152600401620021269062002e79565b60405180910390fd5b50505050565b606060405180602001604052806000815250905090565b6060600082141562002196576040518060400160405280600181526020017f30000000000000000000000000000000000000000000000000000000000000008152509050620022c1565b600082905060005b60008214620021ce578080620021b490620033d2565b915050600a82620021c69190620031d7565b91506200219e565b60008167ffffffffffffffff811115620021ed57620021ec62003514565b5b6040519080825280601f01601f191660200182016040528015620022205781602001600182028036833780820191505090505b5090505b60008514620022ba576001826200223c919062003270565b9150600a856200224d919062003420565b60306200225b91906200317a565b60f81b818381518110620022745762002273620034e5565b5b60200101907effffffffffffffffffffffffffffffffffffffffffffffffffffffffffffff1916908160001a905350600a85620022b29190620031d7565b945062002224565b8093505050505b919050565b505050565b6000620022ee8473ffffffffffffffffffffffffffffffffffffffff1662002474565b1562002467578373ffffffffffffffffffffffffffffffffffffffff1663150b7a026200231a620017f9565b8786866040518563ffffffff1660e01b81526004016200233e949392919062002d9a565b602060405180830381600087803b1580156200235957600080fd5b505af19250505080156200238d57506040513d601f19601f820116820180604052508101906200238a919062002867565b60015b62002416573d8060008114620023c0576040519150601f19603f3d011682016040523d82523d6000602084013e620023c5565b606091505b506000815114156200240e576040517f08c379a0000000000000000000000000000000000000000000000000000000008152600401620024059062002e79565b60405180910390fd5b805181602001fd5b63150b7a0260e01b7bffffffffffffffffffffffffffffffffffffffffffffffffffffffff1916817bffffffffffffffffffffffffffffffffffffffffffffffffffffffff1916149150506200246c565b600190505b949350505050565b600080823b905060008111915050919050565b6114e68062003b1083390190565b6000620024ac620024a68462003101565b620030d8565b905082815260208101848484011115620024cb57620024ca62003548565b5b620024d884828562003321565b509392505050565b600081359050620024f18162003aa7565b92915050565b600081519050620025088162003aa7565b92915050565b6000813590506200251f8162003ac1565b92915050565b600081359050620025368162003adb565b92915050565b6000815190506200254d8162003adb565b92915050565b600082601f8301126200256b576200256a62003543565b5b81356200257d84826020860162002495565b91505092915050565b600081359050620025978162003af5565b92915050565b600060208284031215620025b657620025b562003552565b5b6000620025c684828501620024e0565b91505092915050565b600060208284031215620025e857620025e762003552565b5b6000620025f884828501620024f7565b91505092915050565b600080604083850312156200261b576200261a62003552565b5b60006200262b85828601620024e0565b92505060206200263e85828601620024e0565b9150509250929050565b60008060006060848603121562002664576200266362003552565b5b60006200267486828701620024e0565b93505060206200268786828701620024e0565b92505060406200269a8682870162002586565b9150509250925092565b60008060008060808587031215620026c157620026c062003552565b5b6000620026d187828801620024e0565b9450506020620026e487828801620024e0565b9350506040620026f78782880162002586565b925050606085013567ffffffffffffffff8111156200271b576200271a6200354d565b5b620027298782880162002553565b91505092959194509250565b600080604083850312156200274f576200274e62003552565b5b60006200275f85828601620024e0565b925050602062002772858286016200250e565b9150509250929050565b6000806040838503121562002796576200279562003552565b5b6000620027a685828601620024e0565b9250506020620027b98582860162002586565b9150509250929050565b60008060008060808587031215620027e057620027df62003552565b5b6000620027f087828801620024e0565b9450506020620028038782880162002586565b9350506040620028168782880162002586565b9250506060620028298782880162002586565b91505092959194509250565b6000602082840312156200284e576200284d62003552565b5b60006200285e8482850162002525565b91505092915050565b60006020828403121562002880576200287f62003552565b5b600062002890848285016200253c565b91505092915050565b600060208284031215620028b257620028b162003552565b5b6000620028c28482850162002586565b91505092915050565b60008060408385031215620028e557620028e462003552565b5b6000620028f58582860162002586565b9250506020620029088582860162002586565b9150509250929050565b600080600080608085870312156200292f576200292e62003552565b5b60006200293f8782880162002586565b9450506020620029528782880162002586565b93505060406200296587828801620024e0565b92505060606200297887828801620024e0565b91505092959194509250565b6200298f81620032ab565b82525050565b620029a081620032bf565b82525050565b620029b181620032cb565b82525050565b6000620029c48262003137565b620029d081856200314d565b9350620029e281856020860162003330565b620029ed8162003557565b840191505092915050565b600062002a058262003142565b62002a1181856200315e565b935062002a2381856020860162003330565b62002a2e8162003557565b840191505092915050565b600062002a468262003142565b62002a5281856200316f565b935062002a6481856020860162003330565b80840191505092915050565b600062002a7f6032836200315e565b915062002a8c8262003568565b604082019050919050565b600062002aa66046836200315e565b915062002ab382620035b7565b606082019050919050565b600062002acd6024836200315e565b915062002ada826200362c565b604082019050919050565b600062002af46019836200315e565b915062002b01826200367b565b602082019050919050565b600062002b1b602c836200315e565b915062002b2882620036a4565b604082019050919050565b600062002b426030836200315e565b915062002b4f82620036f3565b604082019050919050565b600062002b696038836200315e565b915062002b768262003742565b604082019050919050565b600062002b90602a836200315e565b915062002b9d8262003791565b604082019050919050565b600062002bb76036836200315e565b915062002bc482620037e0565b604082019050919050565b600062002bde6029836200315e565b915062002beb826200382f565b604082019050919050565b600062002c05602c836200315e565b915062002c12826200387e565b604082019050919050565b600062002c2c603a836200315e565b915062002c3982620038cd565b604082019050919050565b600062002c536029836200315e565b915062002c60826200391c565b604082019050919050565b600062002c7a602f836200315e565b915062002c87826200396b565b604082019050919050565b600062002ca16021836200315e565b915062002cae82620039ba565b604082019050919050565b600062002cc86031836200315e565b915062002cd58262003a09565b604082019050919050565b600062002cef602c836200315e565b915062002cfc8262003a58565b604082019050919050565b62002d128162003317565b82525050565b600062002d26828562002a39565b915062002d34828462002a39565b91508190509392505050565b600060208201905062002d57600083018462002984565b92915050565b600060608201905062002d74600083018662002984565b62002d83602083018562002984565b62002d92604083018462002d07565b949350505050565b600060808201905062002db1600083018762002984565b62002dc0602083018662002984565b62002dcf604083018562002d07565b818103606083015262002de38184620029b7565b905095945050505050565b600060408201905062002e05600083018562002984565b62002e14602083018462002d07565b9392505050565b600060208201905062002e32600083018462002995565b92915050565b600060208201905062002e4f6000830184620029a6565b92915050565b6000602082019050818103600083015262002e718184620029f8565b905092915050565b6000602082019050818103600083015262002e948162002a70565b9050919050565b6000602082019050818103600083015262002eb68162002a97565b9050919050565b6000602082019050818103600083015262002ed88162002abe565b9050919050565b6000602082019050818103600083015262002efa8162002ae5565b9050919050565b6000602082019050818103600083015262002f1c8162002b0c565b9050919050565b6000602082019050818103600083015262002f3e8162002b33565b9050919050565b6000602082019050818103600083015262002f608162002b5a565b9050919050565b6000602082019050818103600083015262002f828162002b81565b9050919050565b6000602082019050818103600083015262002fa48162002ba8565b9050919050565b6000602082019050818103600083015262002fc68162002bcf565b9050919050565b6000602082019050818103600083015262002fe88162002bf6565b9050919050565b600060208201905081810360008301526200300a8162002c1d565b9050919050565b600060208201905081810360008301526200302c8162002c44565b9050919050565b600060208201905081810360008301526200304e8162002c6b565b9050919050565b60006020820190508181036000830152620030708162002c92565b9050919050565b60006020820190508181036000830152620030928162002cb9565b9050919050565b60006020820190508181036000830152620030b48162002ce0565b9050919050565b6000602082019050620030d2600083018462002d07565b92915050565b6000620030e4620030f7565b9050620030f282826200339c565b919050565b6000604051905090565b600067ffffffffffffffff8211156200311f576200311e62003514565b5b6200312a8262003557565b9050602081019050919050565b600081519050919050565b600081519050919050565b600082825260208201905092915050565b600082825260208201905092915050565b600081905092915050565b6000620031878262003317565b9150620031948362003317565b9250827fffffffffffffffffffffffffffffffffffffffffffffffffffffffffffffffff03821115620031cc57620031cb62003458565b5b828201905092915050565b6000620031e48262003317565b9150620031f18362003317565b92508262003204576200320362003487565b5b828204905092915050565b60006200321c8262003317565b9150620032298362003317565b9250817fffffffffffffffffffffffffffffffffffffffffffffffffffffffffffffffff048311821515161562003265576200326462003458565b5b828202905092915050565b60006200327d8262003317565b91506200328a8362003317565b925082821015620032a0576200329f62003458565b5b828203905092915050565b6000620032b882620032f7565b9050919050565b60008115159050919050565b60007fffffffff0000000000000000000000000000000000000000000000000000000082169050919050565b600073ffffffffffffffffffffffffffffffffffffffff82169050919050565b6000819050919050565b82818337600083830152505050565b60005b838110156200335057808201518184015260208101905062003333565b8381111562003360576000848401525b50505050565b600060028204905060018216806200337f57607f821691505b60208210811415620033965762003395620034b6565b5b50919050565b620033a78262003557565b810181811067ffffffffffffffff82111715620033c957620033c862003514565b5b80604052505050565b6000620033df8262003317565b91507fffffffffffffffffffffffffffffffffffffffffffffffffffffffffffffffff82141562003415576200341462003458565b5b600182019050919050565b60006200342d8262003317565b91506200343a8362003317565b9250826200344d576200344c62003487565b5b828206905092915050565b7f4e487b7100000000000000000000000000000000000000000000000000000000600052601160045260246000fd5b7f4e487b7100000000000000000000000000000000000000000000000000000000600052601260045260246000fd5b7f4e487b7100000000000000000000000000000000000000000000000000000000600052602260045260246000fd5b7f4e487b7100000000000000000000000000000000000000000000000000000000600052603260045260246000fd5b7f4e487b7100000000000000000000000000000000000000000000000000000000600052604160045260246000fd5b600080fd5b600080fd5b600080fd5b600080fd5b6000601f19601f8301169050919050565b7f4552433732313a207472616e7366657220746f206e6f6e20455243373231526560008201527f63656976657220696d706c656d656e7465720000000000000000000000000000602082015250565b7f417065546f6b656e466163746f72793a20436f72726573706f6e64696e67204160008201527f7065546f6b656e732063616e6e6f74206265206275726e65642061742074686960208201527f732074696d650000000000000000000000000000000000000000000000000000604082015250565b7f4552433732313a207472616e7366657220746f20746865207a65726f2061646460008201527f7265737300000000000000000000000000000000000000000000000000000000602082015250565b7f4552433732313a20617070726f766520746f2063616c6c657200000000000000600082015250565b7f4552433732313a206f70657261746f7220717565727920666f72206e6f6e657860008201527f697374656e7420746f6b656e0000000000000000000000000000000000000000602082015250565b7f4170654c656e643a20596f752063616e6e6f742070756c6c20796f757220746f60008201527f6b656e20617420746869732074696d6500000000000000000000000000000000602082015250565b7f4552433732313a20617070726f76652063616c6c6572206973206e6f74206f7760008201527f6e6572206e6f7220617070726f76656420666f7220616c6c0000000000000000602082015250565b7f4552433732313a2062616c616e636520717565727920666f7220746865207a6560008201527f726f206164647265737300000000000000000000000000000000000000000000602082015250565b7f417065546f6b656e466163746f72793a205468697320746f6b656e206973206e60008201527f6f7420617661696c61626c6520746f20626f72726f7700000000000000000000602082015250565b7f4552433732313a206f776e657220717565727920666f72206e6f6e657869737460008201527f656e7420746f6b656e0000000000000000000000000000000000000000000000602082015250565b7f4552433732313a20617070726f76656420717565727920666f72206e6f6e657860008201527f697374656e7420746f6b656e0000000000000000000000000000000000000000602082015250565b7f417065546f6b656e3a20596f752063616e6e6f74206d696e74206d6f7265207460008201527f68616e20323520617065546f6b656e732070657220746f6b656e000000000000602082015250565b7f4552433732313a207472616e73666572206f6620746f6b656e2074686174206960008201527f73206e6f74206f776e0000000000000000000000000000000000000000000000602082015250565b7f4552433732314d657461646174613a2055524920717565727920666f72206e6f60008201527f6e6578697374656e7420746f6b656e0000000000000000000000000000000000602082015250565b7f4552433732313a20617070726f76616c20746f2063757272656e74206f776e6560008201527f7200000000000000000000000000000000000000000000000000000000000000602082015250565b7f4552433732313a207472616e736665722063616c6c6572206973206e6f74206f60008201527f776e6572206e6f7220617070726f766564000000000000000000000000000000602082015250565b7f4170654c656e643a20596f7520617265206e6f7420746865206f776e6572206f60008201527f66207468697320746f6b656e0000000000000000000000000000000000000000602082015250565b62003ab281620032ab565b811462003abe57600080fd5b50565b62003acc81620032bf565b811462003ad857600080fd5b50565b62003ae681620032cb565b811462003af257600080fd5b50565b62003b008162003317565b811462003b0c57600080fd5b5056fe60806040523480156200001157600080fd5b50604051620014e6380380620014e683398181016040528101906200003791906200005c565b8060008190555050620000b7565b60008151905062000056816200009d565b92915050565b60006020828403121562000075576200007462000098565b5b6000620000858482850162000045565b91505092915050565b6000819050919050565b600080fd5b620000a8816200008e565b8114620000b457600080fd5b50565b61141f80620000c76000396000f3fe608060405234801561001057600080fd5b50600436106100885760003560e01c80636a4f832b1161005b5780636a4f832b146101395780639b1f9e7414610155578063b3e1c71814610171578063b88d4fde1461018d57610088565b8063025e7c271461008d578063081812fc146100bd57806342842e0e146100ed5780636352211e14610109575b600080fd5b6100a760048036038101906100a29190610d0a565b6101a9565b6040516100b49190610e5e565b60405180910390f35b6100d760048036038101906100d29190610d0a565b6101e6565b6040516100e49190610e5e565b60405180910390f35b61010760048036038101906101029190610b85565b61026b565b005b610123600480360381019061011e9190610d0a565b61028b565b6040516101309190610e5e565b60405180910390f35b610153600480360381019061014e9190610c9b565b61033d565b005b61016f600480360381019061016a9190610d0a565b61034c565b005b61018b60048036038101906101869190610c5b565b610450565b005b6101a760048036038101906101a29190610bd8565b61046e565b005b60006002600083815260200190815260200160002060009054906101000a900473ffffffffffffffffffffffffffffffffffffffff169050919050565b60006101f1826104d0565b610230576040517f08c379a000000000000000000000000000000000000000000000000000000000815260040161022790610f39565b60405180910390fd5b6003600083815260200190815260200160002060009054906101000a900473ffffffffffffffffffffffffffffffffffffffff169050919050565b6102868383836040518060200160405280600081525061046e565b505050565b6000806002600084815260200190815260200160002060009054906101000a900473ffffffffffffffffffffffffffffffffffffffff169050600073ffffffffffffffffffffffffffffffffffffffff168173ffffffffffffffffffffffffffffffffffffffff161415610334576040517f08c379a000000000000000000000000000000000000000000000000000000000815260040161032b90610eb9565b60405180910390fd5b80915050919050565b610347838361053c565b505050565b60006103578261028b565b90506103646000836106fd565b60018060008373ffffffffffffffffffffffffffffffffffffffff1673ffffffffffffffffffffffffffffffffffffffff16815260200190815260200160002060008282546103b39190611036565b925050819055506002600083815260200190815260200160002060006101000a81549073ffffffffffffffffffffffffffffffffffffffff021916905581600073ffffffffffffffffffffffffffffffffffffffff168273ffffffffffffffffffffffffffffffffffffffff167fddf252ad1be2c89b69c2b068fc378daa952ba7f163c4a11628f55a4df523b3ef60405160405180910390a45050565b61046a82826040518060200160405280600081525061033d565b5050565b61047f6104796107b6565b836107be565b6104be576040517f08c379a00000000000000000000000000000000000000000000000000000000081526004016104b590610e79565b60405180910390fd5b6104ca8484848461088b565b50505050565b60008073ffffffffffffffffffffffffffffffffffffffff166002600084815260200190815260200160002060009054906101000a900473ffffffffffffffffffffffffffffffffffffffff1673ffffffffffffffffffffffffffffffffffffffff1614159050919050565b600073ffffffffffffffffffffffffffffffffffffffff168273ffffffffffffffffffffffffffffffffffffffff1614156105ac576040517f08c379a00000000000000000000000000000000000000000000000000000000081526004016105a390610e99565b60405180910390fd5b6105b5816104d0565b156105f5576040517f08c379a00000000000000000000000000000000000000000000000000000000081526004016105ec90610f19565b60405180910390fd5b60018060008473ffffffffffffffffffffffffffffffffffffffff1673ffffffffffffffffffffffffffffffffffffffff16815260200190815260200160002060008282546106449190610fe0565b92505081905550816002600083815260200190815260200160002060006101000a81548173ffffffffffffffffffffffffffffffffffffffff021916908373ffffffffffffffffffffffffffffffffffffffff160217905550808273ffffffffffffffffffffffffffffffffffffffff16600073ffffffffffffffffffffffffffffffffffffffff167fddf252ad1be2c89b69c2b068fc378daa952ba7f163c4a11628f55a4df523b3ef60405160405180910390a45050565b816003600083815260200190815260200160002060006101000a81548173ffffffffffffffffffffffffffffffffffffffff021916908373ffffffffffffffffffffffffffffffffffffffff160217905550808273ffffffffffffffffffffffffffffffffffffffff166107708361028b565b73ffffffffffffffffffffffffffffffffffffffff167f8c5be1e5ebec7d5bd14f71427d1e84f3dd0314c0f7b2291e5b200ac8c7c3b92560405160405180910390a45050565b600033905090565b60006107c9826104d0565b610808576040517f08c379a00000000000000000000000000000000000000000000000000000000081526004016107ff90610f59565b60405180910390fd5b6000610813836101a9565b90508073ffffffffffffffffffffffffffffffffffffffff168473ffffffffffffffffffffffffffffffffffffffff16148061088257508373ffffffffffffffffffffffffffffffffffffffff1661086a846101e6565b73ffffffffffffffffffffffffffffffffffffffff16145b91505092915050565b61089684848461089c565b50505050565b8273ffffffffffffffffffffffffffffffffffffffff166108bc826101a9565b73ffffffffffffffffffffffffffffffffffffffff1614610912576040517f08c379a000000000000000000000000000000000000000000000000000000000815260040161090990610ed9565b60405180910390fd5b600073ffffffffffffffffffffffffffffffffffffffff168273ffffffffffffffffffffffffffffffffffffffff161415610982576040517f08c379a000000000000000000000000000000000000000000000000000000000815260040161097990610ef9565b60405180910390fd5b61098d6000826106fd565b60018060008573ffffffffffffffffffffffffffffffffffffffff1673ffffffffffffffffffffffffffffffffffffffff16815260200190815260200160002060008282546109dc9190611036565b9250508190555060018060008473ffffffffffffffffffffffffffffffffffffffff1673ffffffffffffffffffffffffffffffffffffffff1681526020019081526020016000206000828254610a329190610fe0565b92505081905550816002600083815260200190815260200160002060006101000a81548173ffffffffffffffffffffffffffffffffffffffff021916908373ffffffffffffffffffffffffffffffffffffffff160217905550808273ffffffffffffffffffffffffffffffffffffffff168473ffffffffffffffffffffffffffffffffffffffff167fddf252ad1be2c89b69c2b068fc378daa952ba7f163c4a11628f55a4df523b3ef60405160405180910390a4505050565b6000610afe610af984610f9e565b610f79565b905082815260208101848484011115610b1a57610b19611149565b5b610b258482856110a6565b509392505050565b600081359050610b3c816113bb565b92915050565b600082601f830112610b5757610b56611144565b5b8135610b67848260208601610aeb565b91505092915050565b600081359050610b7f816113d2565b92915050565b600080600060608486031215610b9e57610b9d611153565b5b6000610bac86828701610b2d565b9350506020610bbd86828701610b2d565b9250506040610bce86828701610b70565b9150509250925092565b60008060008060808587031215610bf257610bf1611153565b5b6000610c0087828801610b2d565b9450506020610c1187828801610b2d565b9350506040610c2287828801610b70565b925050606085013567ffffffffffffffff811115610c4357610c4261114e565b5b610c4f87828801610b42565b91505092959194509250565b60008060408385031215610c7257610c71611153565b5b6000610c8085828601610b2d565b9250506020610c9185828601610b70565b9150509250929050565b600080600060608486031215610cb457610cb3611153565b5b6000610cc286828701610b2d565b9350506020610cd386828701610b70565b925050604084013567ffffffffffffffff811115610cf457610cf361114e565b5b610d0086828701610b42565b9150509250925092565b600060208284031215610d2057610d1f611153565b5b6000610d2e84828501610b70565b91505092915050565b610d408161106a565b82525050565b6000610d53603383610fcf565b9150610d5e82611169565b604082019050919050565b6000610d76602283610fcf565b9150610d81826111b8565b604082019050919050565b6000610d99602b83610fcf565b9150610da482611207565b604082019050919050565b6000610dbc602b83610fcf565b9150610dc782611256565b604082019050919050565b6000610ddf602683610fcf565b9150610dea826112a5565b604082019050919050565b6000610e02601e83610fcf565b9150610e0d826112f4565b602082019050919050565b6000610e25602e83610fcf565b9150610e308261131d565b604082019050919050565b6000610e48602e83610fcf565b9150610e538261136c565b604082019050919050565b6000602082019050610e736000830184610d37565b92915050565b60006020820190508181036000830152610e9281610d46565b9050919050565b60006020820190508181036000830152610eb281610d69565b9050919050565b60006020820190508181036000830152610ed281610d8c565b9050919050565b60006020820190508181036000830152610ef281610daf565b9050919050565b60006020820190508181036000830152610f1281610dd2565b9050919050565b60006020820190508181036000830152610f3281610df5565b9050919050565b60006020820190508181036000830152610f5281610e18565b9050919050565b60006020820190508181036000830152610f7281610e3b565b9050919050565b6000610f83610f94565b9050610f8f82826110b5565b919050565b6000604051905090565b600067ffffffffffffffff821115610fb957610fb8611115565b5b610fc282611158565b9050602081019050919050565b600082825260208201905092915050565b6000610feb8261109c565b9150610ff68361109c565b9250827fffffffffffffffffffffffffffffffffffffffffffffffffffffffffffffffff0382111561102b5761102a6110e6565b5b828201905092915050565b60006110418261109c565b915061104c8361109c565b92508282101561105f5761105e6110e6565b5b828203905092915050565b60006110758261107c565b9050919050565b600073ffffffffffffffffffffffffffffffffffffffff82169050919050565b6000819050919050565b82818337600083830152505050565b6110be82611158565b810181811067ffffffffffffffff821117156110dd576110dc611115565b5b80604052505050565b7f4e487b7100000000000000000000000000000000000000000000000000000000600052601160045260246000fd5b7f4e487b7100000000000000000000000000000000000000000000000000000000600052604160045260246000fd5b600080fd5b600080fd5b600080fd5b600080fd5b6000601f19601f8301169050919050565b7f417065546f6b656e3a207472616e736665722063616c6c6572206973206e6f7460008201527f206f776e6572206e6f7220617070726f76656400000000000000000000000000602082015250565b7f417065546f6b656e3a206d696e7420746f20746865207a65726f20616464726560008201527f7373000000000000000000000000000000000000000000000000000000000000602082015250565b7f417065546f6b656e3a206f776e657220717565727920666f72206e6f6e65786960008201527f7374656e7420746f6b656e000000000000000000000000000000000000000000602082015250565b7f417065546f6b656e3a207472616e73666572206f6620746f6b656e207468617460008201527f206973206e6f74206f776e000000000000000000000000000000000000000000602082015250565b7f417065546f6b656e3a207472616e7366657220746f20746865207a65726f206160008201527f6464726573730000000000000000000000000000000000000000000000000000602082015250565b7f417065546f6b656e3a20746f6b656e20616c7265616479206d696e7465640000600082015250565b7f417065546f6b656e3a20617070726f76656420717565727920666f72206e6f6e60008201527f6578697374656e7420746f6b656e000000000000000000000000000000000000602082015250565b7f417065546f6b656e3a206f70657261746f7220717565727920666f72206e6f6e60008201527f6578697374656e7420746f6b656e000000000000000000000000000000000000602082015250565b6113c48161106a565b81146113cf57600080fd5b50565b6113db8161109c565b81146113e657600080fd5b5056fea2646970667358221220a91f4893d315aa70fe2a291bdc2f0892bec84872e11e9accb919719e75ed54c264736f6c63430008060033a264697066735822122088414707d35913339d05da0b7b37c97fe2a0fced85ec9bcd5db3b568feed01e264736f6c63430008060033",
  "linkReferences": {},
  "deployedLinkReferences": {}
}