{
  "_format": "hh-sol-artifact-1",
  "contractName": "ApeLend",
  "sourceName": "contracts/ApeLend.sol",
  "abi": [
    {
      "inputs": [],
      "stateMutability": "nonpayable",
      "type": "constructor"
    },
    {
      "anonymous": false,
      "inputs": [
        {
          "indexed": true,
          "internalType": "address",
          "name": "owner",
          "type": "address"
        },
        {
          "indexed": true,
          "internalType": "address",
          "name": "approved",
          "type": "address"
        },
        {
          "indexed": true,
          "internalType": "uint256",
          "name": "tokenId",
          "type": "uint256"
        }
      ],
      "name": "Approval",
      "type": "event"
    },
    {
      "anonymous": false,
      "inputs": [
        {
          "indexed": true,
          "internalType": "address",
          "name": "owner",
          "type": "address"
        },
        {
          "indexed": true,
          "internalType": "address",
          "name": "operator",
          "type": "address"
        },
        {
          "indexed": false,
          "internalType": "bool",
          "name": "approved",
          "type": "bool"
        }
      ],
      "name": "ApprovalForAll",
      "type": "event"
    },
    {
      "anonymous": false,
      "inputs": [
        {
          "indexed": true,
          "internalType": "address",
          "name": "from",
          "type": "address"
        },
        {
          "indexed": true,
          "internalType": "address",
          "name": "to",
          "type": "address"
        },
        {
          "indexed": true,
          "internalType": "uint256",
          "name": "tokenId",
          "type": "uint256"
        }
      ],
      "name": "Transfer",
      "type": "event"
    },
    {
      "inputs": [
        {
          "internalType": "address",
          "name": "to",
          "type": "address"
        },
        {
          "internalType": "uint256",
          "name": "tokenId",
          "type": "uint256"
        }
      ],
      "name": "approve",
      "outputs": [],
      "stateMutability": "nonpayable",
      "type": "function"
    },
    {
      "inputs": [
        {
          "internalType": "bool",
          "name": "_approved",
          "type": "bool"
        }
      ],
      "name": "approveProtocolAddress",
      "outputs": [],
      "stateMutability": "nonpayable",
      "type": "function"
    },
    {
      "inputs": [
        {
          "internalType": "address",
          "name": "_owner",
          "type": "address"
        }
      ],
      "name": "balanceOf",
      "outputs": [
        {
          "internalType": "uint256",
          "name": "",
          "type": "uint256"
        }
      ],
      "stateMutability": "view",
      "type": "function"
    },
    {
      "inputs": [
        {
          "internalType": "uint256",
          "name": "_borrowingNftId",
          "type": "uint256"
        },
        {
          "internalType": "uint256",
          "name": "_collateralNftId",
          "type": "uint256"
        }
      ],
      "name": "borrowNft",
      "outputs": [],
      "stateMutability": "payable",
      "type": "function"
    },
    {
      "inputs": [
        {
          "internalType": "uint256",
          "name": "tokenId",
          "type": "uint256"
        }
      ],
      "name": "getApproved",
      "outputs": [
        {
          "internalType": "address",
          "name": "",
          "type": "address"
        }
      ],
      "stateMutability": "view",
      "type": "function"
    },
    {
      "inputs": [
        {
          "internalType": "address",
          "name": "owner",
          "type": "address"
        },
        {
          "internalType": "address",
          "name": "operator",
          "type": "address"
        }
      ],
      "name": "isApprovedForAll",
      "outputs": [
        {
          "internalType": "bool",
          "name": "",
          "type": "bool"
        }
      ],
      "stateMutability": "view",
      "type": "function"
    },
    {
      "inputs": [
        {
          "internalType": "uint256",
          "name": "_nftId",
          "type": "uint256"
        }
      ],
      "name": "isNftAvailable",
      "outputs": [
        {
          "internalType": "bool",
          "name": "",
          "type": "bool"
        }
      ],
      "stateMutability": "view",
      "type": "function"
    },
    {
      "inputs": [
        {
          "internalType": "uint256",
          "name": "_nftId",
          "type": "uint256"
        }
      ],
      "name": "lendNft",
      "outputs": [],
      "stateMutability": "nonpayable",
      "type": "function"
    },
    {
      "inputs": [],
      "name": "name",
      "outputs": [
        {
          "internalType": "string",
          "name": "",
          "type": "string"
        }
      ],
      "stateMutability": "view",
      "type": "function"
    },
    {
      "inputs": [
        {
          "internalType": "address",
          "name": "",
          "type": "address"
        },
        {
          "internalType": "address",
          "name": "",
          "type": "address"
        },
        {
          "internalType": "uint256",
          "name": "",
          "type": "uint256"
        },
        {
          "internalType": "bytes",
          "name": "",
          "type": "bytes"
        }
      ],
      "name": "onERC721Received",
      "outputs": [
        {
          "internalType": "bytes4",
          "name": "",
          "type": "bytes4"
        }
      ],
      "stateMutability": "nonpayable",
      "type": "function"
    },
    {
      "inputs": [
        {
          "internalType": "address",
          "name": "operator",
          "type": "address"
        },
        {
          "internalType": "address",
          "name": "from",
          "type": "address"
        },
        {
          "internalType": "uint256",
          "name": "tokenId",
          "type": "uint256"
        },
        {
          "internalType": "bytes",
          "name": "data",
          "type": "bytes"
        }
      ],
      "name": "onERC721ReceivedToProtocol",
      "outputs": [
        {
          "internalType": "bytes4",
          "name": "",
          "type": "bytes4"
        }
      ],
      "stateMutability": "nonpayable",
      "type": "function"
    },
    {
      "inputs": [
        {
          "internalType": "uint256",
          "name": "_tokenId",
          "type": "uint256"
        }
      ],
      "name": "ownerOf",
      "outputs": [
        {
          "internalType": "address",
          "name": "",
          "type": "address"
        }
      ],
      "stateMutability": "view",
      "type": "function"
    },
    {
      "inputs": [
        {
          "internalType": "uint256",
          "name": "_nftId",
          "type": "uint256"
        }
      ],
      "name": "protocolNftRepossession",
      "outputs": [],
      "stateMutability": "nonpayable",
      "type": "function"
    },
    {
      "inputs": [
        {
          "internalType": "uint256",
          "name": "_nftId",
          "type": "uint256"
        }
      ],
      "name": "pullNft",
      "outputs": [],
      "stateMutability": "nonpayable",
      "type": "function"
    },
    {
      "inputs": [
        {
          "internalType": "uint256",
          "name": "_nftId",
          "type": "uint256"
        }
      ],
      "name": "requestRepossessionOfNft",
      "outputs": [],
      "stateMutability": "nonpayable",
      "type": "function"
    },
    {
      "inputs": [
        {
          "internalType": "uint256",
          "name": "_nftId",
          "type": "uint256"
        }
      ],
      "name": "returnNft",
      "outputs": [],
      "stateMutability": "nonpayable",
      "type": "function"
    },
    {
      "inputs": [
        {
          "internalType": "address",
          "name": "_to",
          "type": "address"
        },
        {
          "internalType": "uint256",
          "name": "_tokenId",
          "type": "uint256"
        }
      ],
      "name": "safeMint",
      "outputs": [],
      "stateMutability": "nonpayable",
      "type": "function"
    },
    {
      "inputs": [
        {
          "internalType": "address",
          "name": "_from",
          "type": "address"
        },
        {
          "internalType": "address",
          "name": "_to",
          "type": "address"
        },
        {
          "internalType": "uint256",
          "name": "_tokenId",
          "type": "uint256"
        }
      ],
      "name": "safeTransferFrom",
      "outputs": [],
      "stateMutability": "nonpayable",
      "type": "function"
    },
    {
      "inputs": [
        {
          "internalType": "address",
          "name": "from",
          "type": "address"
        },
        {
          "internalType": "address",
          "name": "to",
          "type": "address"
        },
        {
          "internalType": "uint256",
          "name": "tokenId",
          "type": "uint256"
        },
        {
          "internalType": "bytes",
          "name": "_data",
          "type": "bytes"
        }
      ],
      "name": "safeTransferFrom",
      "outputs": [],
      "stateMutability": "nonpayable",
      "type": "function"
    },
    {
      "inputs": [
        {
          "internalType": "address",
          "name": "operator",
          "type": "address"
        },
        {
          "internalType": "bool",
          "name": "approved",
          "type": "bool"
        }
      ],
      "name": "setApprovalForAll",
      "outputs": [],
      "stateMutability": "nonpayable",
      "type": "function"
    },
    {
      "inputs": [
        {
          "internalType": "bytes4",
          "name": "interfaceId",
          "type": "bytes4"
        }
      ],
      "name": "supportsInterface",
      "outputs": [
        {
          "internalType": "bool",
          "name": "",
          "type": "bool"
        }
      ],
      "stateMutability": "view",
      "type": "function"
    },
    {
      "inputs": [],
      "name": "symbol",
      "outputs": [
        {
          "internalType": "string",
          "name": "",
          "type": "string"
        }
      ],
      "stateMutability": "view",
      "type": "function"
    },
    {
      "inputs": [
        {
          "internalType": "uint256",
          "name": "tokenId",
          "type": "uint256"
        }
      ],
      "name": "tokenURI",
      "outputs": [
        {
          "internalType": "string",
          "name": "",
          "type": "string"
        }
      ],
      "stateMutability": "view",
      "type": "function"
    },
    {
      "inputs": [
        {
          "internalType": "address",
          "name": "from",
          "type": "address"
        },
        {
          "internalType": "address",
          "name": "to",
          "type": "address"
        },
        {
          "internalType": "uint256",
          "name": "tokenId",
          "type": "uint256"
        }
      ],
      "name": "transferFrom",
      "outputs": [],
      "stateMutability": "nonpayable",
      "type": "function"
    },
    {
      "stateMutability": "payable",
      "type": "receive"
    }
  ],
  "bytecode": "0x60806040523480156200001157600080fd5b506040518060400160405280600781526020017f4170654c656e64000000000000000000000000000000000000000000000000008152506040518060400160405280600381526020017f4150450000000000000000000000000000000000000000000000000000000000815250816000908051906020019062000096929190620000f9565b508060019080519060200190620000af929190620000f9565b50505033600660006101000a81548173ffffffffffffffffffffffffffffffffffffffff021916908373ffffffffffffffffffffffffffffffffffffffff1602179055506200020e565b8280546200010790620001a9565b90600052602060002090601f0160209004810192826200012b576000855562000177565b82601f106200014657805160ff191683800117855562000177565b8280016001018555821562000177579182015b828111156200017657825182559160200191906001019062000159565b5b5090506200018691906200018a565b5090565b5b80821115620001a55760008160009055506001016200018b565b5090565b60006002820490506001821680620001c257607f821691505b60208210811415620001d957620001d8620001df565b5b50919050565b7f4e487b7100000000000000000000000000000000000000000000000000000000600052602260045260246000fd5b613e1a806200021e6000396000f3fe60806040526004361061014f5760003560e01c80636352211e116100b6578063a22cb4651161006f578063a22cb465146104ac578063a45e7bee146104d5578063b88d4fde146104fe578063c87b56dd14610527578063d710c9c114610564578063e985e9c5146105a157610156565b80636352211e1461038c57806366e15b55146103c957806370a08231146103f257806375abab7e1461042f57806395d89b4114610458578063a14481941461048357610156565b8063150b7a0211610108578063150b7a021461026e57806323b872dd146102ab57806342842e0e146102d457806345079f4f146102fd5780634effdda0146103265780635c9ff8e51461036357610156565b806301ffc9a71461015b57806306fdde0314610198578063081812fc146101c3578063095ea7b31461020057806309d77f0e1461022957806312a8b2111461025257610156565b3661015657005b600080fd5b34801561016757600080fd5b50610182600480360381019061017d9190612769565b6105de565b60405161018f9190612d28565b60405180910390f35b3480156101a457600080fd5b506101ad6106c0565b6040516101ba9190612d5e565b60405180910390f35b3480156101cf57600080fd5b506101ea60048036038101906101e591906127c3565b610752565b6040516101f79190612cc1565b60405180910390f35b34801561020c57600080fd5b50610227600480360381019061022291906126fc565b6107d7565b005b34801561023557600080fd5b50610250600480360381019061024b91906127c3565b6108ef565b005b61026c600480360381019061026791906127f0565b610a2c565b005b34801561027a57600080fd5b5061029560048036038101906102909190612639565b610c5d565b6040516102a29190612d43565b60405180910390f35b3480156102b757600080fd5b506102d260048036038101906102cd91906125e6565b610c71565b005b3480156102e057600080fd5b506102fb60048036038101906102f691906125e6565b610cd1565b005b34801561030957600080fd5b50610324600480360381019061031f91906127c3565b610ce1565b005b34801561033257600080fd5b5061034d60048036038101906103489190612639565b610e31565b60405161035a9190612d43565b60405180910390f35b34801561036f57600080fd5b5061038a600480360381019061038591906127c3565b610e49565b005b34801561039857600080fd5b506103b360048036038101906103ae91906127c3565b610f8b565b6040516103c09190612cc1565b60405180910390f35b3480156103d557600080fd5b506103f060048036038101906103eb919061273c565b610f9d565b005b3480156103fe57600080fd5b5061041960048036038101906104149190612579565b610fbe565b60405161042691906130f0565b60405180910390f35b34801561043b57600080fd5b50610456600480360381019061045191906127c3565b610fd0565b005b34801561046457600080fd5b5061046d611177565b60405161047a9190612d5e565b60405180910390f35b34801561048f57600080fd5b506104aa60048036038101906104a591906126fc565b611209565b005b3480156104b857600080fd5b506104d360048036038101906104ce91906126bc565b611217565b005b3480156104e157600080fd5b506104fc60048036038101906104f791906127c3565b611398565b005b34801561050a57600080fd5b5061052560048036038101906105209190612639565b611534565b005b34801561053357600080fd5b5061054e600480360381019061054991906127c3565b611596565b60405161055b9190612d5e565b60405180910390f35b34801561057057600080fd5b5061058b600480360381019061058691906127c3565b61163d565b6040516105989190612d28565b60405180910390f35b3480156105ad57600080fd5b506105c860048036038101906105c391906125a6565b611667565b6040516105d59190612d28565b60405180910390f35b60007f80ac58cd000000000000000000000000000000000000000000000000000000007bffffffffffffffffffffffffffffffffffffffffffffffffffffffff1916827bffffffffffffffffffffffffffffffffffffffffffffffffffffffff191614806106a957507f5b5e139f000000000000000000000000000000000000000000000000000000007bffffffffffffffffffffffffffffffffffffffffffffffffffffffff1916827bffffffffffffffffffffffffffffffffffffffffffffffffffffffff1916145b806106b957506106b8826116fb565b5b9050919050565b6060600080546106cf90613315565b80601f01602080910402602001604051908101604052809291908181526020018280546106fb90613315565b80156107485780601f1061071d57610100808354040283529160200191610748565b820191906000526020600020905b81548152906001019060200180831161072b57829003601f168201915b5050505050905090565b600061075d82611765565b61079c576040517f08c379a000000000000000000000000000000000000000000000000000000000815260040161079390612f70565b60405180910390fd5b6004600083815260200190815260200160002060009054906101000a900473ffffffffffffffffffffffffffffffffffffffff169050919050565b60006107e2826117d1565b90508073ffffffffffffffffffffffffffffffffffffffff168373ffffffffffffffffffffffffffffffffffffffff161415610853576040517f08c379a000000000000000000000000000000000000000000000000000000000815260040161084a90612fd0565b60405180910390fd5b8073ffffffffffffffffffffffffffffffffffffffff16610872611883565b73ffffffffffffffffffffffffffffffffffffffff1614806108a157506108a08161089b611883565b611667565b5b6108e0576040517f08c379a00000000000000000000000000000000000000000000000000000000081526004016108d790612eb0565b60405180910390fd5b6108ea838361188b565b505050565b6108f8816117d1565b73ffffffffffffffffffffffffffffffffffffffff163373ffffffffffffffffffffffffffffffffffffffff1614610965576040517f08c379a000000000000000000000000000000000000000000000000000000000815260040161095c90613070565b60405180910390fd5b600015156007600083815260200190815260200160002060009054906101000a900460ff161515146109cc576040517f08c379a00000000000000000000000000000000000000000000000000000000081526004016109c390613090565b60405180910390fd5b60016007600083815260200190815260200160002060006101000a81548160ff021916908315150217905550610a0230826107d7565b610a1d33338360405180602001604052806000815250610e31565b50610a29333083611944565b50565b600115156007600084815260200190815260200160002060009054906101000a900460ff16151514610a93576040517f08c379a0000000000000000000000000000000000000000000000000000000008152600401610a8a90612ff0565b60405180910390fd5b610a9c816117d1565b73ffffffffffffffffffffffffffffffffffffffff163373ffffffffffffffffffffffffffffffffffffffff1614610b09576040517f08c379a0000000000000000000000000000000000000000000000000000000008152600401610b00906130b0565b60405180910390fd5b610b1281610ce1565b607842610b1f91906131a4565b600860008481526020019081526020016000208190555060006007600084815260200190815260200160002060006101000a81548160ff021916908315150217905550336009600084815260200190815260200160002060006101000a81548173ffffffffffffffffffffffffffffffffffffffff021916908373ffffffffffffffffffffffffffffffffffffffff160217905550610bd5604051806060016040528060368152602001613cf360369139611986565b610bf7604051806060016040528060248152602001613d5b6024913933611a1f565b610c18604051806060016040528060358152602001613d7f60359139611986565b610c3a604051806060016040528060328152602001613d296032913933611a1f565b610c59735fbdb2315678afecb367f032d93f642f64180aa33384611944565b5050565b600063150b7a0260e01b9050949350505050565b610c82610c7c611883565b82611abb565b610cc1576040517f08c379a0000000000000000000000000000000000000000000000000000000008152600401610cb890613050565b60405180910390fd5b610ccc838383611b99565b505050565b610cdc838383611944565b505050565b610cea816117d1565b73ffffffffffffffffffffffffffffffffffffffff163373ffffffffffffffffffffffffffffffffffffffff1614610d57576040517f08c379a0000000000000000000000000000000000000000000000000000000008152600401610d4e90612e30565b60405180910390fd5b33600b600083815260200190815260200160002060006101000a81548173ffffffffffffffffffffffffffffffffffffffff021916908373ffffffffffffffffffffffffffffffffffffffff16021790555060016007600083815260200190815260200160002060006101000a81548160ff021916908315150217905550610df3735fbdb2315678afecb367f032d93f642f64180aa3826107d7565b610e0e33338360405180602001604052806000815250610e31565b50610e2e33735fbdb2315678afecb367f032d93f642f64180aa383611944565b50565b6000610e3f85858585610c5d565b9050949350505050565b600b600082815260200190815260200160002060009054906101000a900473ffffffffffffffffffffffffffffffffffffffff1673ffffffffffffffffffffffffffffffffffffffff163373ffffffffffffffffffffffffffffffffffffffff1614610eea576040517f08c379a0000000000000000000000000000000000000000000000000000000008152600401610ee1906130d0565b60405180910390fd5b600115156007600083815260200190815260200160002060009054906101000a900460ff16151514610f51576040517f08c379a0000000000000000000000000000000000000000000000000000000008152600401610f4890613090565b60405180910390fd5b60006007600083815260200190815260200160002060006101000a81548160ff021916908315150217905550610f88303383611944565b50565b6000610f96826117d1565b9050919050565b610fbb735fbdb2315678afecb367f032d93f642f64180aa382611217565b50565b6000610fc982611df5565b9050919050565b600015156007600083815260200190815260200160002060009054906101000a900460ff16151514611037576040517f08c379a000000000000000000000000000000000000000000000000000000000815260040161102e90613030565b60405180910390fd5b600660009054906101000a900473ffffffffffffffffffffffffffffffffffffffff1673ffffffffffffffffffffffffffffffffffffffff163373ffffffffffffffffffffffffffffffffffffffff16146110c7576040517f08c379a00000000000000000000000000000000000000000000000000000000081526004016110be90612e10565b60405180910390fd5b60011515600a600083815260200190815260200160002060009054906101000a900460ff1615151461112e576040517f08c379a000000000000000000000000000000000000000000000000000000000815260040161112590613010565b60405180910390fd5b61117461113a826117d1565b600b600084815260200190815260200160002060009054906101000a900473ffffffffffffffffffffffffffffffffffffffff1683611944565b50565b60606001805461118690613315565b80601f01602080910402602001604051908101604052809291908181526020018280546111b290613315565b80156111ff5780601f106111d4576101008083540402835291602001916111ff565b820191906000526020600020905b8154815290600101906020018083116111e257829003601f168201915b5050505050905090565b6112138282611ead565b5050565b61121f611883565b73ffffffffffffffffffffffffffffffffffffffff168273ffffffffffffffffffffffffffffffffffffffff16141561128d576040517f08c379a000000000000000000000000000000000000000000000000000000000815260040161128490612e70565b60405180910390fd5b806005600061129a611883565b73ffffffffffffffffffffffffffffffffffffffff1673ffffffffffffffffffffffffffffffffffffffff16815260200190815260200160002060008473ffffffffffffffffffffffffffffffffffffffff1673ffffffffffffffffffffffffffffffffffffffff16815260200190815260200160002060006101000a81548160ff0219169083151502179055508173ffffffffffffffffffffffffffffffffffffffff16611347611883565b73ffffffffffffffffffffffffffffffffffffffff167f17307eab39ab6107e8899845ad3d59bd9653f200f220920489ca2b5937696c318360405161138c9190612d28565b60405180910390a35050565b600b600082815260200190815260200160002060009054906101000a900473ffffffffffffffffffffffffffffffffffffffff1673ffffffffffffffffffffffffffffffffffffffff163373ffffffffffffffffffffffffffffffffffffffff1614611439576040517f08c379a000000000000000000000000000000000000000000000000000000000815260040161143090612db0565b60405180910390fd5b6008600082815260200190815260200160002054421161148e576040517f08c379a000000000000000000000000000000000000000000000000000000000815260040161148590612f50565b60405180910390fd5b611497816117d1565b73ffffffffffffffffffffffffffffffffffffffff163373ffffffffffffffffffffffffffffffffffffffff161415611505576040517f08c379a00000000000000000000000000000000000000000000000000000000081526004016114fc90612ed0565b60405180910390fd5b6001600a600083815260200190815260200160002060006101000a81548160ff02191690831515021790555050565b61154561153f611883565b83611abb565b611584576040517f08c379a000000000000000000000000000000000000000000000000000000000815260040161157b90613050565b60405180910390fd5b61159084848484611ecb565b50505050565b60606115a182611765565b6115e0576040517f08c379a00000000000000000000000000000000000000000000000000000000081526004016115d790612fb0565b60405180910390fd5b60006115ea611f27565b9050600081511161160a5760405180602001604052806000815250611635565b8061161484611f3e565b604051602001611625929190612c9d565b6040516020818303038152906040525b915050919050565b60006007600083815260200190815260200160002060009054906101000a900460ff169050919050565b6000600560008473ffffffffffffffffffffffffffffffffffffffff1673ffffffffffffffffffffffffffffffffffffffff16815260200190815260200160002060008373ffffffffffffffffffffffffffffffffffffffff1673ffffffffffffffffffffffffffffffffffffffff16815260200190815260200160002060009054906101000a900460ff16905092915050565b60007f01ffc9a7000000000000000000000000000000000000000000000000000000007bffffffffffffffffffffffffffffffffffffffffffffffffffffffff1916827bffffffffffffffffffffffffffffffffffffffffffffffffffffffff1916149050919050565b60008073ffffffffffffffffffffffffffffffffffffffff166002600084815260200190815260200160002060009054906101000a900473ffffffffffffffffffffffffffffffffffffffff1673ffffffffffffffffffffffffffffffffffffffff1614159050919050565b6000806002600084815260200190815260200160002060009054906101000a900473ffffffffffffffffffffffffffffffffffffffff169050600073ffffffffffffffffffffffffffffffffffffffff168173ffffffffffffffffffffffffffffffffffffffff16141561187a576040517f08c379a000000000000000000000000000000000000000000000000000000000815260040161187190612f10565b60405180910390fd5b80915050919050565b600033905090565b816004600083815260200190815260200160002060006101000a81548173ffffffffffffffffffffffffffffffffffffffff021916908373ffffffffffffffffffffffffffffffffffffffff160217905550808273ffffffffffffffffffffffffffffffffffffffff166118fe836117d1565b73ffffffffffffffffffffffffffffffffffffffff167f8c5be1e5ebec7d5bd14f71427d1e84f3dd0314c0f7b2291e5b200ac8c7c3b92560405160405180910390a45050565b611966604051806060016040528060318152602001613db46031913933611a1f565b61198183838360405180602001604052806000815250611534565b505050565b611a1c8160405160240161199a9190612d5e565b6040516020818303038152906040527f41304fac000000000000000000000000000000000000000000000000000000007bffffffffffffffffffffffffffffffffffffffffffffffffffffffff19166020820180517bffffffffffffffffffffffffffffffffffffffffffffffffffffffff838183161783525050505061209f565b50565b611ab78282604051602401611a35929190612d80565b6040516020818303038152906040527f319af333000000000000000000000000000000000000000000000000000000007bffffffffffffffffffffffffffffffffffffffffffffffffffffffff19166020820180517bffffffffffffffffffffffffffffffffffffffffffffffffffffffff838183161783525050505061209f565b5050565b6000611ac682611765565b611b05576040517f08c379a0000000000000000000000000000000000000000000000000000000008152600401611afc90612e90565b60405180910390fd5b6000611b10836117d1565b90508073ffffffffffffffffffffffffffffffffffffffff168473ffffffffffffffffffffffffffffffffffffffff161480611b7f57508373ffffffffffffffffffffffffffffffffffffffff16611b6784610752565b73ffffffffffffffffffffffffffffffffffffffff16145b80611b905750611b8f8185611667565b5b91505092915050565b8273ffffffffffffffffffffffffffffffffffffffff16611bb9826117d1565b73ffffffffffffffffffffffffffffffffffffffff1614611c0f576040517f08c379a0000000000000000000000000000000000000000000000000000000008152600401611c0690612f90565b60405180910390fd5b600073ffffffffffffffffffffffffffffffffffffffff168273ffffffffffffffffffffffffffffffffffffffff161415611c7f576040517f08c379a0000000000000000000000000000000000000000000000000000000008152600401611c7690612e50565b60405180910390fd5b611c8a8383836120c8565b611c9560008261188b565b6001600360008573ffffffffffffffffffffffffffffffffffffffff1673ffffffffffffffffffffffffffffffffffffffff1681526020019081526020016000206000828254611ce5919061322b565b925050819055506001600360008473ffffffffffffffffffffffffffffffffffffffff1673ffffffffffffffffffffffffffffffffffffffff1681526020019081526020016000206000828254611d3c91906131a4565b92505081905550816002600083815260200190815260200160002060006101000a81548173ffffffffffffffffffffffffffffffffffffffff021916908373ffffffffffffffffffffffffffffffffffffffff160217905550808273ffffffffffffffffffffffffffffffffffffffff168473ffffffffffffffffffffffffffffffffffffffff167fddf252ad1be2c89b69c2b068fc378daa952ba7f163c4a11628f55a4df523b3ef60405160405180910390a4505050565b60008073ffffffffffffffffffffffffffffffffffffffff168273ffffffffffffffffffffffffffffffffffffffff161415611e66576040517f08c379a0000000000000000000000000000000000000000000000000000000008152600401611e5d90612ef0565b60405180910390fd5b600360008373ffffffffffffffffffffffffffffffffffffffff1673ffffffffffffffffffffffffffffffffffffffff168152602001908152602001600020549050919050565b611ec78282604051806020016040528060008152506120cd565b5050565b611ed6848484611b99565b611ee284848484612128565b611f21576040517f08c379a0000000000000000000000000000000000000000000000000000000008152600401611f1890612dd0565b60405180910390fd5b50505050565b606060405180602001604052806000815250905090565b60606000821415611f86576040518060400160405280600181526020017f3000000000000000000000000000000000000000000000000000000000000000815250905061209a565b600082905060005b60008214611fb8578080611fa190613378565b915050600a82611fb191906131fa565b9150611f8e565b60008167ffffffffffffffff811115611fd457611fd36134ae565b5b6040519080825280601f01601f1916602001820160405280156120065781602001600182028036833780820191505090505b5090505b600085146120935760018261201f919061322b565b9150600a8561202e91906133c1565b603061203a91906131a4565b60f81b8183815181106120505761204f61347f565b5b60200101907effffffffffffffffffffffffffffffffffffffffffffffffffffffffffffff1916908160001a905350600a8561208c91906131fa565b945061200a565b8093505050505b919050565b60008151905060006a636f6e736f6c652e6c6f679050602083016000808483855afa5050505050565b505050565b6120d783836122bf565b6120e46000848484612128565b612123576040517f08c379a000000000000000000000000000000000000000000000000000000000815260040161211a90612dd0565b60405180910390fd5b505050565b60006121498473ffffffffffffffffffffffffffffffffffffffff1661248d565b156122b2578373ffffffffffffffffffffffffffffffffffffffff1663150b7a02612172611883565b8786866040518563ffffffff1660e01b81526004016121949493929190612cdc565b602060405180830381600087803b1580156121ae57600080fd5b505af19250505080156121df57506040513d601f19601f820116820180604052508101906121dc9190612796565b60015b612262573d806000811461220f576040519150601f19603f3d011682016040523d82523d6000602084013e612214565b606091505b5060008151141561225a576040517f08c379a000000000000000000000000000000000000000000000000000000000815260040161225190612dd0565b60405180910390fd5b805181602001fd5b63150b7a0260e01b7bffffffffffffffffffffffffffffffffffffffffffffffffffffffff1916817bffffffffffffffffffffffffffffffffffffffffffffffffffffffff1916149150506122b7565b600190505b949350505050565b600073ffffffffffffffffffffffffffffffffffffffff168273ffffffffffffffffffffffffffffffffffffffff16141561232f576040517f08c379a000000000000000000000000000000000000000000000000000000000815260040161232690612f30565b60405180910390fd5b61233881611765565b15612378576040517f08c379a000000000000000000000000000000000000000000000000000000000815260040161236f90612df0565b60405180910390fd5b612384600083836120c8565b6001600360008473ffffffffffffffffffffffffffffffffffffffff1673ffffffffffffffffffffffffffffffffffffffff16815260200190815260200160002060008282546123d491906131a4565b92505081905550816002600083815260200190815260200160002060006101000a81548173ffffffffffffffffffffffffffffffffffffffff021916908373ffffffffffffffffffffffffffffffffffffffff160217905550808273ffffffffffffffffffffffffffffffffffffffff16600073ffffffffffffffffffffffffffffffffffffffff167fddf252ad1be2c89b69c2b068fc378daa952ba7f163c4a11628f55a4df523b3ef60405160405180910390a45050565b600080823b905060008111915050919050565b60006124b36124ae84613130565b61310b565b9050828152602081018484840111156124cf576124ce6134e2565b5b6124da8482856132d3565b509392505050565b6000813590506124f181613c96565b92915050565b60008135905061250681613cad565b92915050565b60008135905061251b81613cc4565b92915050565b60008151905061253081613cc4565b92915050565b600082601f83011261254b5761254a6134dd565b5b813561255b8482602086016124a0565b91505092915050565b60008135905061257381613cdb565b92915050565b60006020828403121561258f5761258e6134ec565b5b600061259d848285016124e2565b91505092915050565b600080604083850312156125bd576125bc6134ec565b5b60006125cb858286016124e2565b92505060206125dc858286016124e2565b9150509250929050565b6000806000606084860312156125ff576125fe6134ec565b5b600061260d868287016124e2565b935050602061261e868287016124e2565b925050604061262f86828701612564565b9150509250925092565b60008060008060808587031215612653576126526134ec565b5b6000612661878288016124e2565b9450506020612672878288016124e2565b935050604061268387828801612564565b925050606085013567ffffffffffffffff8111156126a4576126a36134e7565b5b6126b087828801612536565b91505092959194509250565b600080604083850312156126d3576126d26134ec565b5b60006126e1858286016124e2565b92505060206126f2858286016124f7565b9150509250929050565b60008060408385031215612713576127126134ec565b5b6000612721858286016124e2565b925050602061273285828601612564565b9150509250929050565b600060208284031215612752576127516134ec565b5b6000612760848285016124f7565b91505092915050565b60006020828403121561277f5761277e6134ec565b5b600061278d8482850161250c565b91505092915050565b6000602082840312156127ac576127ab6134ec565b5b60006127ba84828501612521565b91505092915050565b6000602082840312156127d9576127d86134ec565b5b60006127e784828501612564565b91505092915050565b60008060408385031215612807576128066134ec565b5b600061281585828601612564565b925050602061282685828601612564565b9150509250929050565b6128398161325f565b82525050565b61284881613271565b82525050565b6128578161327d565b82525050565b600061286882613161565b6128728185613177565b93506128828185602086016132e2565b61288b816134f1565b840191505092915050565b60006128a18261316c565b6128ab8185613188565b93506128bb8185602086016132e2565b6128c4816134f1565b840191505092915050565b60006128da8261316c565b6128e48185613199565b93506128f48185602086016132e2565b80840191505092915050565b600061290d603a83613188565b915061291882613502565b604082019050919050565b6000612930603283613188565b915061293b82613551565b604082019050919050565b6000612953601c83613188565b915061295e826135a0565b602082019050919050565b6000612976603c83613188565b9150612981826135c9565b604082019050919050565b6000612999602a83613188565b91506129a482613618565b604082019050919050565b60006129bc602483613188565b91506129c782613667565b604082019050919050565b60006129df601983613188565b91506129ea826136b6565b602082019050919050565b6000612a02602c83613188565b9150612a0d826136df565b604082019050919050565b6000612a25603883613188565b9150612a308261372e565b604082019050919050565b6000612a48603a83613188565b9150612a538261377d565b604082019050919050565b6000612a6b602a83613188565b9150612a76826137cc565b604082019050919050565b6000612a8e602983613188565b9150612a998261381b565b604082019050919050565b6000612ab1602083613188565b9150612abc8261386a565b602082019050919050565b6000612ad4602883613188565b9150612adf82613893565b604082019050919050565b6000612af7602c83613188565b9150612b02826138e2565b604082019050919050565b6000612b1a602983613188565b9150612b2582613931565b604082019050919050565b6000612b3d602f83613188565b9150612b4882613980565b604082019050919050565b6000612b60602183613188565b9150612b6b826139cf565b604082019050919050565b6000612b83602c83613188565b9150612b8e82613a1e565b604082019050919050565b6000612ba6604083613188565b9150612bb182613a6d565b604082019050919050565b6000612bc9602e83613188565b9150612bd482613abc565b604082019050919050565b6000612bec603183613188565b9150612bf782613b0b565b604082019050919050565b6000612c0f603183613188565b9150612c1a82613b5a565b604082019050919050565b6000612c32602b83613188565b9150612c3d82613ba9565b604082019050919050565b6000612c55603483613188565b9150612c6082613bf8565b604082019050919050565b6000612c78603383613188565b9150612c8382613c47565b604082019050919050565b612c97816132c9565b82525050565b6000612ca982856128cf565b9150612cb582846128cf565b91508190509392505050565b6000602082019050612cd66000830184612830565b92915050565b6000608082019050612cf16000830187612830565b612cfe6020830186612830565b612d0b6040830185612c8e565b8181036060830152612d1d818461285d565b905095945050505050565b6000602082019050612d3d600083018461283f565b92915050565b6000602082019050612d58600083018461284e565b92915050565b60006020820190508181036000830152612d788184612896565b905092915050565b60006040820190508181036000830152612d9a8185612896565b9050612da96020830184612830565b9392505050565b60006020820190508181036000830152612dc981612900565b9050919050565b60006020820190508181036000830152612de981612923565b9050919050565b60006020820190508181036000830152612e0981612946565b9050919050565b60006020820190508181036000830152612e2981612969565b9050919050565b60006020820190508181036000830152612e498161298c565b9050919050565b60006020820190508181036000830152612e69816129af565b9050919050565b60006020820190508181036000830152612e89816129d2565b9050919050565b60006020820190508181036000830152612ea9816129f5565b9050919050565b60006020820190508181036000830152612ec981612a18565b9050919050565b60006020820190508181036000830152612ee981612a3b565b9050919050565b60006020820190508181036000830152612f0981612a5e565b9050919050565b60006020820190508181036000830152612f2981612a81565b9050919050565b60006020820190508181036000830152612f4981612aa4565b9050919050565b60006020820190508181036000830152612f6981612ac7565b9050919050565b60006020820190508181036000830152612f8981612aea565b9050919050565b60006020820190508181036000830152612fa981612b0d565b9050919050565b60006020820190508181036000830152612fc981612b30565b9050919050565b60006020820190508181036000830152612fe981612b53565b9050919050565b6000602082019050818103600083015261300981612b76565b9050919050565b6000602082019050818103600083015261302981612b99565b9050919050565b6000602082019050818103600083015261304981612bbc565b9050919050565b6000602082019050818103600083015261306981612bdf565b9050919050565b6000602082019050818103600083015261308981612c02565b9050919050565b600060208201905081810360008301526130a981612c25565b9050919050565b600060208201905081810360008301526130c981612c48565b9050919050565b600060208201905081810360008301526130e981612c6b565b9050919050565b60006020820190506131056000830184612c8e565b92915050565b6000613115613126565b90506131218282613347565b919050565b6000604051905090565b600067ffffffffffffffff82111561314b5761314a6134ae565b5b613154826134f1565b9050602081019050919050565b600081519050919050565b600081519050919050565b600082825260208201905092915050565b600082825260208201905092915050565b600081905092915050565b60006131af826132c9565b91506131ba836132c9565b9250827fffffffffffffffffffffffffffffffffffffffffffffffffffffffffffffffff038211156131ef576131ee6133f2565b5b828201905092915050565b6000613205826132c9565b9150613210836132c9565b9250826132205761321f613421565b5b828204905092915050565b6000613236826132c9565b9150613241836132c9565b925082821015613254576132536133f2565b5b828203905092915050565b600061326a826132a9565b9050919050565b60008115159050919050565b60007fffffffff0000000000000000000000000000000000000000000000000000000082169050919050565b600073ffffffffffffffffffffffffffffffffffffffff82169050919050565b6000819050919050565b82818337600083830152505050565b60005b838110156133005780820151818401526020810190506132e5565b8381111561330f576000848401525b50505050565b6000600282049050600182168061332d57607f821691505b6020821081141561334157613340613450565b5b50919050565b613350826134f1565b810181811067ffffffffffffffff8211171561336f5761336e6134ae565b5b80604052505050565b6000613383826132c9565b91507fffffffffffffffffffffffffffffffffffffffffffffffffffffffffffffffff8214156133b6576133b56133f2565b5b600182019050919050565b60006133cc826132c9565b91506133d7836132c9565b9250826133e7576133e6613421565b5b828206905092915050565b7f4e487b7100000000000000000000000000000000000000000000000000000000600052601160045260246000fd5b7f4e487b7100000000000000000000000000000000000000000000000000000000600052601260045260246000fd5b7f4e487b7100000000000000000000000000000000000000000000000000000000600052602260045260246000fd5b7f4e487b7100000000000000000000000000000000000000000000000000000000600052603260045260246000fd5b7f4e487b7100000000000000000000000000000000000000000000000000000000600052604160045260246000fd5b600080fd5b600080fd5b600080fd5b600080fd5b6000601f19601f8301169050919050565b7f4170654c656e643a20596f7520617265206e6f74207468652074727565206f7760008201527f6e6572206f66207468652070726f7669646564204e4654204944000000000000602082015250565b7f4552433732313a207472616e7366657220746f206e6f6e20455243373231526560008201527f63656976657220696d706c656d656e7465720000000000000000000000000000602082015250565b7f4552433732313a20746f6b656e20616c7265616479206d696e74656400000000600082015250565b7f4170654c656e643a2046756e6374696f6e2063616c6c6572206973206e6f742060008201527f7468652070726f746f636f6c2063726561746f72206164647265737300000000602082015250565b7f4170654c656e643a20596f7520617265206e6f7420746865206f776e6572206f60008201527f662074686973204e465400000000000000000000000000000000000000000000602082015250565b7f4552433732313a207472616e7366657220746f20746865207a65726f2061646460008201527f7265737300000000000000000000000000000000000000000000000000000000602082015250565b7f4552433732313a20617070726f766520746f2063616c6c657200000000000000600082015250565b7f4552433732313a206f70657261746f7220717565727920666f72206e6f6e657860008201527f697374656e7420746f6b656e0000000000000000000000000000000000000000602082015250565b7f4552433732313a20617070726f76652063616c6c6572206973206e6f74206f7760008201527f6e6572206e6f7220617070726f76656420666f7220616c6c0000000000000000602082015250565b7f4170654c656e643a20596f752063616e6e6f74207265706f73736573204e465460008201527f207468617420697320696e20796f757220706f73736573696f6e000000000000602082015250565b7f4552433732313a2062616c616e636520717565727920666f7220746865207a6560008201527f726f206164647265737300000000000000000000000000000000000000000000602082015250565b7f4552433732313a206f776e657220717565727920666f72206e6f6e657869737460008201527f656e7420746f6b656e0000000000000000000000000000000000000000000000602082015250565b7f4552433732313a206d696e7420746f20746865207a65726f2061646472657373600082015250565b7f4170654c656e643a20497420697320746f6f206561726c7920746f207265706f60008201527f73736573204e4654000000000000000000000000000000000000000000000000602082015250565b7f4552433732313a20617070726f76656420717565727920666f72206e6f6e657860008201527f697374656e7420746f6b656e0000000000000000000000000000000000000000602082015250565b7f4552433732313a207472616e73666572206f6620746f6b656e2074686174206960008201527f73206e6f74206f776e0000000000000000000000000000000000000000000000602082015250565b7f4552433732314d657461646174613a2055524920717565727920666f72206e6f60008201527f6e6578697374656e7420746f6b656e0000000000000000000000000000000000602082015250565b7f4552433732313a20617070726f76616c20746f2063757272656e74206f776e6560008201527f7200000000000000000000000000000000000000000000000000000000000000602082015250565b7f4170654c656e643a2054686973204e4654206973206e6f7420617661696c616260008201527f6c6520746f20626f72726f770000000000000000000000000000000000000000602082015250565b7f4170654c656e643a2050726f746f636f6c20646f6573206e6f7420686176652060008201527f7065726d697373696f6e20746f207265706f73736573732074686973204e4654602082015250565b7f4170654c656e643a2050726f7669646564204e465420494420686173206e6f7460008201527f206265656e20626f72726f776564000000000000000000000000000000000000602082015250565b7f4552433732313a207472616e736665722063616c6c6572206973206e6f74206f60008201527f776e6572206e6f7220617070726f766564000000000000000000000000000000602082015250565b7f4170654c656e643a20596f7520617265206e6f742074686520626f72726f776560008201527f72206f662070726f7669646564204e4654000000000000000000000000000000602082015250565b7f4170654c656e643a205468652070726f7669646564204e46542068617320626560008201527f656e20626f72726f776564000000000000000000000000000000000000000000602082015250565b7f4170654c656e643a20596f7520617265206e6f7420746865206f776e6572206f60008201527f662074686520636f6c6c61746572616c204e4654000000000000000000000000602082015250565b7f4170654c656e643a20596f7520617265206e6f74207468652074727565206f7760008201527f6e6572206f662070726f7669646564204e465400000000000000000000000000602082015250565b613c9f8161325f565b8114613caa57600080fd5b50565b613cb681613271565b8114613cc157600080fd5b50565b613ccd8161327d565b8114613cd857600080fd5b50565b613ce4816132c9565b8114613cef57600080fd5b5056fe5269676874206265666f72652063616c6c696e67204552433732312e617070726f766520696e7369646520626f72726f774e667428296d73672e73656e6465722063616c6c696e67204552433732312e736166655472616e7366657246726f6d28292069732025736d73672e73656e6465722063616c6c696e6720626f72726f774e6674282920697320257352696768742061667465722063616c6c696e67204552433732312e617070726f766520696e7369646520626f72726f774e667428296d73672e73656e64657220696e73696465204552433732312e736166655472616e7366657246726f6d2829206973202573a26469706673582212209065a26e87841e9c492a937d60a0e218e072b398c2cf375e1a54d8c6a655b73c64736f6c63430008060033",
  "linkReferences": {},
  "deployedLinkReferences": {}
}