{
  "_format": "hh-sol-artifact-1",
  "contractName": "ApeLend",
  "sourceName": "contracts/ApeLend.sol",
  "abi": [
    {
      "inputs": [],
      "stateMutability": "nonpayable",
      "type": "constructor"
    },
    {
      "anonymous": false,
      "inputs": [
        {
          "indexed": true,
          "internalType": "address",
          "name": "owner",
          "type": "address"
        },
        {
          "indexed": true,
          "internalType": "address",
          "name": "approved",
          "type": "address"
        },
        {
          "indexed": true,
          "internalType": "uint256",
          "name": "tokenId",
          "type": "uint256"
        }
      ],
      "name": "Approval",
      "type": "event"
    },
    {
      "anonymous": false,
      "inputs": [
        {
          "indexed": true,
          "internalType": "address",
          "name": "owner",
          "type": "address"
        },
        {
          "indexed": true,
          "internalType": "address",
          "name": "operator",
          "type": "address"
        },
        {
          "indexed": false,
          "internalType": "bool",
          "name": "approved",
          "type": "bool"
        }
      ],
      "name": "ApprovalForAll",
      "type": "event"
    },
    {
      "anonymous": false,
      "inputs": [
        {
          "indexed": true,
          "internalType": "address",
          "name": "from",
          "type": "address"
        },
        {
          "indexed": true,
          "internalType": "address",
          "name": "to",
          "type": "address"
        },
        {
          "indexed": true,
          "internalType": "uint256",
          "name": "tokenId",
          "type": "uint256"
        }
      ],
      "name": "Transfer",
      "type": "event"
    },
    {
      "inputs": [
        {
          "internalType": "address",
          "name": "to",
          "type": "address"
        },
        {
          "internalType": "uint256",
          "name": "tokenId",
          "type": "uint256"
        }
      ],
      "name": "approve",
      "outputs": [],
      "stateMutability": "nonpayable",
      "type": "function"
    },
    {
      "inputs": [
        {
          "internalType": "address",
          "name": "_owner",
          "type": "address"
        }
      ],
      "name": "balanceOf",
      "outputs": [
        {
          "internalType": "uint256",
          "name": "",
          "type": "uint256"
        }
      ],
      "stateMutability": "view",
      "type": "function"
    },
    {
      "inputs": [
        {
          "internalType": "uint256",
          "name": "_underlyingTokenId",
          "type": "uint256"
        },
        {
          "internalType": "uint256",
          "name": "_apeTokenId",
          "type": "uint256"
        },
        {
          "internalType": "address",
          "name": "_apeLendAddress",
          "type": "address"
        },
        {
          "internalType": "address",
          "name": "_to",
          "type": "address"
        }
      ],
      "name": "borrowApeToken",
      "outputs": [],
      "stateMutability": "nonpayable",
      "type": "function"
    },
    {
      "inputs": [
        {
          "internalType": "uint256",
          "name": "_underlyingTokenId",
          "type": "uint256"
        },
        {
          "internalType": "uint256",
          "name": "_borrowingApeTokenId",
          "type": "uint256"
        }
      ],
      "name": "borrowToken",
      "outputs": [],
      "stateMutability": "payable",
      "type": "function"
    },
    {
      "inputs": [
        {
          "internalType": "uint256",
          "name": "tokenId",
          "type": "uint256"
        }
      ],
      "name": "getApproved",
      "outputs": [
        {
          "internalType": "address",
          "name": "",
          "type": "address"
        }
      ],
      "stateMutability": "view",
      "type": "function"
    },
    {
      "inputs": [
        {
          "internalType": "address",
          "name": "owner",
          "type": "address"
        },
        {
          "internalType": "address",
          "name": "operator",
          "type": "address"
        }
      ],
      "name": "isApprovedForAll",
      "outputs": [
        {
          "internalType": "bool",
          "name": "",
          "type": "bool"
        }
      ],
      "stateMutability": "view",
      "type": "function"
    },
    {
      "inputs": [
        {
          "internalType": "uint256",
          "name": "_tokenId",
          "type": "uint256"
        },
        {
          "internalType": "uint256",
          "name": "_apeTokenAmount",
          "type": "uint256"
        },
        {
          "internalType": "uint256",
          "name": "_apeTokenReturnWindow",
          "type": "uint256"
        }
      ],
      "name": "lendToken",
      "outputs": [],
      "stateMutability": "nonpayable",
      "type": "function"
    },
    {
      "inputs": [],
      "name": "name",
      "outputs": [
        {
          "internalType": "string",
          "name": "",
          "type": "string"
        }
      ],
      "stateMutability": "view",
      "type": "function"
    },
    {
      "inputs": [
        {
          "internalType": "address",
          "name": "",
          "type": "address"
        },
        {
          "internalType": "address",
          "name": "",
          "type": "address"
        },
        {
          "internalType": "uint256",
          "name": "",
          "type": "uint256"
        },
        {
          "internalType": "bytes",
          "name": "",
          "type": "bytes"
        }
      ],
      "name": "onERC721Received",
      "outputs": [
        {
          "internalType": "bytes4",
          "name": "",
          "type": "bytes4"
        }
      ],
      "stateMutability": "nonpayable",
      "type": "function"
    },
    {
      "inputs": [
        {
          "internalType": "address",
          "name": "operator",
          "type": "address"
        },
        {
          "internalType": "address",
          "name": "from",
          "type": "address"
        },
        {
          "internalType": "uint256",
          "name": "tokenId",
          "type": "uint256"
        },
        {
          "internalType": "bytes",
          "name": "data",
          "type": "bytes"
        }
      ],
      "name": "onERC721ReceivedToProtocol",
      "outputs": [
        {
          "internalType": "bytes4",
          "name": "",
          "type": "bytes4"
        }
      ],
      "stateMutability": "nonpayable",
      "type": "function"
    },
    {
      "inputs": [
        {
          "internalType": "uint256",
          "name": "_tokenId",
          "type": "uint256"
        }
      ],
      "name": "ownerOf",
      "outputs": [
        {
          "internalType": "address",
          "name": "",
          "type": "address"
        }
      ],
      "stateMutability": "view",
      "type": "function"
    },
    {
      "inputs": [
        {
          "internalType": "uint256",
          "name": "_tokenId",
          "type": "uint256"
        },
        {
          "internalType": "uint256",
          "name": "_apeTokenId",
          "type": "uint256"
        }
      ],
      "name": "ownerOfApeToken",
      "outputs": [
        {
          "internalType": "address",
          "name": "_apeTokenOwner",
          "type": "address"
        }
      ],
      "stateMutability": "view",
      "type": "function"
    },
    {
      "inputs": [
        {
          "internalType": "address",
          "name": "_to",
          "type": "address"
        },
        {
          "internalType": "uint256",
          "name": "_tokenId",
          "type": "uint256"
        }
      ],
      "name": "safeMint",
      "outputs": [],
      "stateMutability": "nonpayable",
      "type": "function"
    },
    {
      "inputs": [
        {
          "internalType": "address",
          "name": "from",
          "type": "address"
        },
        {
          "internalType": "address",
          "name": "to",
          "type": "address"
        },
        {
          "internalType": "uint256",
          "name": "tokenId",
          "type": "uint256"
        }
      ],
      "name": "safeTransferFrom",
      "outputs": [],
      "stateMutability": "nonpayable",
      "type": "function"
    },
    {
      "inputs": [
        {
          "internalType": "address",
          "name": "from",
          "type": "address"
        },
        {
          "internalType": "address",
          "name": "to",
          "type": "address"
        },
        {
          "internalType": "uint256",
          "name": "tokenId",
          "type": "uint256"
        },
        {
          "internalType": "bytes",
          "name": "_data",
          "type": "bytes"
        }
      ],
      "name": "safeTransferFrom",
      "outputs": [],
      "stateMutability": "nonpayable",
      "type": "function"
    },
    {
      "inputs": [
        {
          "internalType": "address",
          "name": "operator",
          "type": "address"
        },
        {
          "internalType": "bool",
          "name": "approved",
          "type": "bool"
        }
      ],
      "name": "setApprovalForAll",
      "outputs": [],
      "stateMutability": "nonpayable",
      "type": "function"
    },
    {
      "inputs": [
        {
          "internalType": "bytes4",
          "name": "interfaceId",
          "type": "bytes4"
        }
      ],
      "name": "supportsInterface",
      "outputs": [
        {
          "internalType": "bool",
          "name": "",
          "type": "bool"
        }
      ],
      "stateMutability": "view",
      "type": "function"
    },
    {
      "inputs": [],
      "name": "symbol",
      "outputs": [
        {
          "internalType": "string",
          "name": "",
          "type": "string"
        }
      ],
      "stateMutability": "view",
      "type": "function"
    },
    {
      "inputs": [
        {
          "internalType": "uint256",
          "name": "tokenId",
          "type": "uint256"
        }
      ],
      "name": "tokenURI",
      "outputs": [
        {
          "internalType": "string",
          "name": "",
          "type": "string"
        }
      ],
      "stateMutability": "view",
      "type": "function"
    },
    {
      "inputs": [
        {
          "internalType": "address",
          "name": "from",
          "type": "address"
        },
        {
          "internalType": "address",
          "name": "to",
          "type": "address"
        },
        {
          "internalType": "uint256",
          "name": "tokenId",
          "type": "uint256"
        }
      ],
      "name": "transferFrom",
      "outputs": [],
      "stateMutability": "nonpayable",
      "type": "function"
    },
    {
      "stateMutability": "payable",
      "type": "receive"
    }
  ],
  "bytecode": "0x60806040523480156200001157600080fd5b506040518060400160405280600781526020017f4170654c656e64000000000000000000000000000000000000000000000000008152506040518060400160405280600381526020017f4150450000000000000000000000000000000000000000000000000000000000815250816000908051906020019062000096929190620000f9565b508060019080519060200190620000af929190620000f9565b50505033600a60006101000a81548173ffffffffffffffffffffffffffffffffffffffff021916908373ffffffffffffffffffffffffffffffffffffffff1602179055506200020e565b8280546200010790620001a9565b90600052602060002090601f0160209004810192826200012b576000855562000177565b82601f106200014657805160ff191683800117855562000177565b8280016001018555821562000177579182015b828111156200017657825182559160200191906001019062000159565b5b5090506200018691906200018a565b5090565b5b80821115620001a55760008160009055506001016200018b565b5090565b60006002820490506001821680620001c257607f821691505b60208210811415620001d957620001d8620001df565b5b50919050565b7f4e487b7100000000000000000000000000000000000000000000000000000000600052602260045260246000fd5b614bc9806200021e6000396000f3fe6080604052600436106200013f5760003560e01c80634effdda011620000af578063a22cb465116200006d578063a22cb465146200048e578063b88d4fde14620004bc578063c87b56dd14620004ea578063cd271a54146200052e578063e985e9c5146200055c5762000147565b80634effdda014620003645780636352211e14620003a857806370a0823114620003ec57806395d89b411462000430578063a144819414620004605762000147565b8063150b7a0211620000fd578063150b7a0214620002525780631c576a70146200029657806323b872dd14620002c457806337c51b1814620002f257806342842e0e14620003365762000147565b806301ffc9a7146200014c57806306fdde031462000190578063081812fc14620001c057806308ec59271462000204578063095ea7b314620002245762000147565b366200014757005b600080fd5b3480156200015957600080fd5b506200017860048036038101906200017291906200247c565b620005a0565b60405162000187919062002ae5565b60405180910390f35b3480156200019d57600080fd5b50620001a862000686565b604051620001b7919062002b1f565b60405180910390f35b348015620001cd57600080fd5b50620001ec6004803603810190620001e69190620024e0565b62000720565b604051620001fb919062002a0a565b60405180910390f35b6200022260048036038101906200021c919062002512565b620007aa565b005b3480156200023157600080fd5b506200025060048036038101906200024a919062002435565b6200085e565b005b3480156200025f57600080fd5b506200027e60048036038101906200027891906200235d565b62000987565b6040516200028d919062002b02565b60405180910390f35b348015620002a357600080fd5b50620002c26004803603810190620002bc919062002559565b6200099b565b005b348015620002d157600080fd5b50620002f06004803603810190620002ea919062002301565b62000b27565b005b348015620002ff57600080fd5b506200031e600480360381019062000318919062002512565b62000b90565b6040516200032d919062002a0a565b60405180910390f35b3480156200034357600080fd5b506200036260048036038101906200035c919062002301565b62000ba6565b005b3480156200037157600080fd5b506200039060048036038101906200038a91906200235d565b62000bc8565b6040516200039f919062002b02565b60405180910390f35b348015620003b557600080fd5b50620003d46004803603810190620003ce9190620024e0565b62000be2565b604051620003e3919062002a0a565b60405180910390f35b348015620003f957600080fd5b5062000418600480360381019062000412919062002256565b62000bf6565b60405162000427919062002da7565b60405180910390f35b3480156200043d57600080fd5b506200044862000c0a565b60405162000457919062002b1f565b60405180910390f35b3480156200046d57600080fd5b506200048c600480360381019062000486919062002435565b62000ca4565b005b3480156200049b57600080fd5b50620004ba6004803603810190620004b49190620023ee565b62000cb4565b005b348015620004c957600080fd5b50620004e86004803603810190620004e291906200235d565b62000e40565b005b348015620004f757600080fd5b50620005166004803603810190620005109190620024e0565b62000eab565b60405162000525919062002b1f565b60405180910390f35b3480156200053b57600080fd5b506200055a6004803603810190620005549190620025cb565b62000f5f565b005b3480156200056957600080fd5b50620005886004803603810190620005829190620022ba565b620010ae565b60405162000597919062002ae5565b60405180910390f35b60007f80ac58cd000000000000000000000000000000000000000000000000000000007bffffffffffffffffffffffffffffffffffffffffffffffffffffffff1916827bffffffffffffffffffffffffffffffffffffffffffffffffffffffff191614806200066c57507f5b5e139f000000000000000000000000000000000000000000000000000000007bffffffffffffffffffffffffffffffffffffffffffffffffffffffff1916827bffffffffffffffffffffffffffffffffffffffffffffffffffffffff1916145b806200067f57506200067e8262001142565b5b9050919050565b606060008054620006979062003052565b80601f0160208091040260200160405190810160405280929190818152602001828054620006c59062003052565b8015620007165780601f10620006ea5761010080835404028352916020019162000716565b820191906000526020600020905b815481529060010190602001808311620006f857829003601f168201915b5050505050905090565b60006200072d82620011ac565b6200076f576040517f08c379a0000000000000000000000000000000000000000000000000000000008152600401620007669062002cb9565b60405180910390fd5b6004600083815260200190815260200160002060009054906101000a900473ffffffffffffffffffffffffffffffffffffffff169050919050565b6000309050600033905060011515600c60003373ffffffffffffffffffffffffffffffffffffffff1673ffffffffffffffffffffffffffffffffffffffff16815260200190815260200160002060009054906101000a900460ff161515146200084a576040517f08c379a0000000000000000000000000000000000000000000000000000000008152600401620008419062002c75565b60405180910390fd5b62000858848484846200099b565b50505050565b60006200086b8262001218565b90508073ffffffffffffffffffffffffffffffffffffffff168373ffffffffffffffffffffffffffffffffffffffff161415620008df576040517f08c379a0000000000000000000000000000000000000000000000000000000008152600401620008d69062002d41565b60405180910390fd5b8073ffffffffffffffffffffffffffffffffffffffff1662000900620012cd565b73ffffffffffffffffffffffffffffffffffffffff16148062000934575062000933816200092d620012cd565b620010ae565b5b62000976576040517f08c379a00000000000000000000000000000000000000000000000000000000081526004016200096d9062002bed565b60405180910390fd5b620009828383620012d5565b505050565b600063150b7a0260e01b9050949350505050565b60011515620009ac85858562001390565b151514620009f1576040517f08c379a0000000000000000000000000000000000000000000000000000000008152600401620009e89062002c31565b60405180910390fd5b60006007600085815260200190815260200160002060006101000a81548160ff02191690831515021790555060006006600086815260200190815260200160002060009054906101000a900473ffffffffffffffffffffffffffffffffffffffff1690506000819050336008600087815260200190815260200160002060006101000a81548173ffffffffffffffffffffffffffffffffffffffff021916908373ffffffffffffffffffffffffffffffffffffffff1602179055508073ffffffffffffffffffffffffffffffffffffffff166342842e0e8585886040518463ffffffff1660e01b815260040162000aeb9392919062002a27565b600060405180830381600087803b15801562000b0657600080fd5b505af115801562000b1b573d6000803e3d6000fd5b50505050505050505050565b62000b3c62000b35620012cd565b82620014b2565b62000b7e576040517f08c379a000000000000000000000000000000000000000000000000000000000815260040162000b759062002d63565b60405180910390fd5b62000b8b8383836200159d565b505050565b600062000b9e838362001809565b905092915050565b62000bc38383836040518060200160405280600081525062000e40565b505050565b600062000bd88585858562000987565b9050949350505050565b600062000bef8262001218565b9050919050565b600062000c0382620018d5565b9050919050565b60606001805462000c1b9062003052565b80601f016020809104026020016040519081016040528092919081815260200182805462000c499062003052565b801562000c9a5780601f1062000c6e5761010080835404028352916020019162000c9a565b820191906000526020600020905b81548152906001019060200180831162000c7c57829003601f168201915b5050505050905090565b62000cb0828262001990565b5050565b62000cbe620012cd565b73ffffffffffffffffffffffffffffffffffffffff168273ffffffffffffffffffffffffffffffffffffffff16141562000d2f576040517f08c379a000000000000000000000000000000000000000000000000000000000815260040162000d269062002ba9565b60405180910390fd5b806005600062000d3e620012cd565b73ffffffffffffffffffffffffffffffffffffffff1673ffffffffffffffffffffffffffffffffffffffff16815260200190815260200160002060008473ffffffffffffffffffffffffffffffffffffffff1673ffffffffffffffffffffffffffffffffffffffff16815260200190815260200160002060006101000a81548160ff0219169083151502179055508173ffffffffffffffffffffffffffffffffffffffff1662000ded620012cd565b73ffffffffffffffffffffffffffffffffffffffff167f17307eab39ab6107e8899845ad3d59bd9653f200f220920489ca2b5937696c318360405162000e34919062002ae5565b60405180910390a35050565b62000e5562000e4e620012cd565b83620014b2565b62000e97576040517f08c379a000000000000000000000000000000000000000000000000000000000815260040162000e8e9062002d63565b60405180910390fd5b62000ea584848484620019b0565b50505050565b606062000eb882620011ac565b62000efa576040517f08c379a000000000000000000000000000000000000000000000000000000000815260040162000ef19062002d1f565b60405180910390fd5b600062000f0662001a13565b9050600081511162000f28576040518060200160405280600081525062000f57565b8062000f348462001a2a565b60405160200162000f47929190620029e2565b6040516020818303038152906040525b915050919050565b62000f6a8362001218565b73ffffffffffffffffffffffffffffffffffffffff163373ffffffffffffffffffffffffffffffffffffffff161462000fda576040517f08c379a000000000000000000000000000000000000000000000000000000000815260040162000fd19062002d85565b60405180910390fd5b6001600b600085815260200190815260200160002060006101000a81548160ff0219169083151502179055506200101230846200085e565b6200102f3333856040518060200160405280600081525062000bc8565b5060003090506001600c60003373ffffffffffffffffffffffffffffffffffffffff1673ffffffffffffffffffffffffffffffffffffffff16815260200190815260200160002060006101000a81548160ff0219169083151502179055506200109a33308662000ba6565b620010a88482858562001ba4565b50505050565b6000600560008473ffffffffffffffffffffffffffffffffffffffff1673ffffffffffffffffffffffffffffffffffffffff16815260200190815260200160002060008373ffffffffffffffffffffffffffffffffffffffff1673ffffffffffffffffffffffffffffffffffffffff16815260200190815260200160002060009054906101000a900460ff16905092915050565b60007f01ffc9a7000000000000000000000000000000000000000000000000000000007bffffffffffffffffffffffffffffffffffffffffffffffffffffffff1916827bffffffffffffffffffffffffffffffffffffffffffffffffffffffff1916149050919050565b60008073ffffffffffffffffffffffffffffffffffffffff166002600084815260200190815260200160002060009054906101000a900473ffffffffffffffffffffffffffffffffffffffff1673ffffffffffffffffffffffffffffffffffffffff1614159050919050565b6000806002600084815260200190815260200160002060009054906101000a900473ffffffffffffffffffffffffffffffffffffffff169050600073ffffffffffffffffffffffffffffffffffffffff168173ffffffffffffffffffffffffffffffffffffffff161415620012c4576040517f08c379a0000000000000000000000000000000000000000000000000000000008152600401620012bb9062002c53565b60405180910390fd5b80915050919050565b600033905090565b816004600083815260200190815260200160002060006101000a81548173ffffffffffffffffffffffffffffffffffffffff021916908373ffffffffffffffffffffffffffffffffffffffff160217905550808273ffffffffffffffffffffffffffffffffffffffff166200134a8362001218565b73ffffffffffffffffffffffffffffffffffffffff167f8c5be1e5ebec7d5bd14f71427d1e84f3dd0314c0f7b2291e5b200ac8c7c3b92560405160405180910390a45050565b6000806006600086815260200190815260200160002060009054906101000a900473ffffffffffffffffffffffffffffffffffffffff169050600081905060008173ffffffffffffffffffffffffffffffffffffffff1663025e7c27876040518263ffffffff1660e01b81526004016200140b919062002da7565b60206040518083038186803b1580156200142457600080fd5b505afa15801562001439573d6000803e3d6000fd5b505050506040513d601f19601f820116820180604052508101906200145f919062002288565b90508473ffffffffffffffffffffffffffffffffffffffff168173ffffffffffffffffffffffffffffffffffffffff161415620014a35760019350505050620014ab565b600093505050505b9392505050565b6000620014bf82620011ac565b62001501576040517f08c379a0000000000000000000000000000000000000000000000000000000008152600401620014f89062002bcb565b60405180910390fd5b60006200150e8362001218565b90508073ffffffffffffffffffffffffffffffffffffffff168473ffffffffffffffffffffffffffffffffffffffff1614806200158057508373ffffffffffffffffffffffffffffffffffffffff16620015688462000720565b73ffffffffffffffffffffffffffffffffffffffff16145b80620015945750620015938185620010ae565b5b91505092915050565b8273ffffffffffffffffffffffffffffffffffffffff16620015bf8262001218565b73ffffffffffffffffffffffffffffffffffffffff161462001618576040517f08c379a00000000000000000000000000000000000000000000000000000000081526004016200160f9062002cfd565b60405180910390fd5b600073ffffffffffffffffffffffffffffffffffffffff168273ffffffffffffffffffffffffffffffffffffffff1614156200168b576040517f08c379a0000000000000000000000000000000000000000000000000000000008152600401620016829062002b87565b60405180910390fd5b6200169883838362001d43565b620016a5600082620012d5565b6001600360008573ffffffffffffffffffffffffffffffffffffffff1673ffffffffffffffffffffffffffffffffffffffff1681526020019081526020016000206000828254620016f7919062002f5c565b925050819055506001600360008473ffffffffffffffffffffffffffffffffffffffff1673ffffffffffffffffffffffffffffffffffffffff168152602001908152602001600020600082825462001750919062002e66565b92505081905550816002600083815260200190815260200160002060006101000a81548173ffffffffffffffffffffffffffffffffffffffff021916908373ffffffffffffffffffffffffffffffffffffffff160217905550808273ffffffffffffffffffffffffffffffffffffffff168473ffffffffffffffffffffffffffffffffffffffff167fddf252ad1be2c89b69c2b068fc378daa952ba7f163c4a11628f55a4df523b3ef60405160405180910390a4505050565b60006006600084815260200190815260200160002060009054906101000a900473ffffffffffffffffffffffffffffffffffffffff1673ffffffffffffffffffffffffffffffffffffffff16636352211e836040518263ffffffff1660e01b815260040162001879919062002da7565b60206040518083038186803b1580156200189257600080fd5b505afa158015620018a7573d6000803e3d6000fd5b505050506040513d601f19601f82011682018060405250810190620018cd919062002288565b905092915050565b60008073ffffffffffffffffffffffffffffffffffffffff168273ffffffffffffffffffffffffffffffffffffffff16141562001949576040517f08c379a0000000000000000000000000000000000000000000000000000000008152600401620019409062002c0f565b60405180910390fd5b600360008373ffffffffffffffffffffffffffffffffffffffff1673ffffffffffffffffffffffffffffffffffffffff168152602001908152602001600020549050919050565b620019ac82826040518060200160405280600081525062001d48565b5050565b620019bd8484846200159d565b620019cb8484848462001daa565b62001a0d576040517f08c379a000000000000000000000000000000000000000000000000000000000815260040162001a049062002b43565b60405180910390fd5b50505050565b606060405180602001604052806000815250905090565b6060600082141562001a74576040518060400160405280600181526020017f3000000000000000000000000000000000000000000000000000000000000000815250905062001b9f565b600082905060005b6000821462001aac57808062001a9290620030be565b915050600a8262001aa4919062002ec3565b915062001a7c565b60008167ffffffffffffffff81111562001acb5762001aca62003200565b5b6040519080825280601f01601f19166020018201604052801562001afe5781602001600182028036833780820191505090505b5090505b6000851462001b985760018262001b1a919062002f5c565b9150600a8562001b2b91906200310c565b603062001b39919062002e66565b60f81b81838151811062001b525762001b51620031d1565b5b60200101907effffffffffffffffffffffffffffffffffffffffffffffffffffffffffffff1916908160001a905350600a8562001b90919062002ec3565b945062001b02565b8093505050505b919050565b6019821062001bea576040517f08c379a000000000000000000000000000000000000000000000000000000000815260040162001be19062002cdb565b60405180910390fd5b8060098190555060008460405162001c029062002140565b62001c0e919062002da7565b604051809103906000f08015801562001c2b573d6000803e3d6000fd5b5090506000819050806006600088815260200190815260200160002060006101000a81548173ffffffffffffffffffffffffffffffffffffffff021916908373ffffffffffffffffffffffffffffffffffffffff16021790555060005b8481101562001d3a576000816103e88962001ca4919062002efb565b62001cb0919062002e66565b90508373ffffffffffffffffffffffffffffffffffffffff1663b3e1c71888836040518363ffffffff1660e01b815260040162001cef92919062002ab8565b600060405180830381600087803b15801562001d0a57600080fd5b505af115801562001d1f573d6000803e3d6000fd5b5050505050808062001d3190620030be565b91505062001c88565b50505050505050565b505050565b62001d54838362001f53565b62001d63600084848462001daa565b62001da5576040517f08c379a000000000000000000000000000000000000000000000000000000000815260040162001d9c9062002b43565b60405180910390fd5b505050565b600062001dcd8473ffffffffffffffffffffffffffffffffffffffff166200212d565b1562001f46578373ffffffffffffffffffffffffffffffffffffffff1663150b7a0262001df9620012cd565b8786866040518563ffffffff1660e01b815260040162001e1d949392919062002a64565b602060405180830381600087803b15801562001e3857600080fd5b505af192505050801562001e6c57506040513d601f19601f8201168201806040525081019062001e699190620024ae565b60015b62001ef5573d806000811462001e9f576040519150601f19603f3d011682016040523d82523d6000602084013e62001ea4565b606091505b5060008151141562001eed576040517f08c379a000000000000000000000000000000000000000000000000000000000815260040162001ee49062002b43565b60405180910390fd5b805181602001fd5b63150b7a0260e01b7bffffffffffffffffffffffffffffffffffffffffffffffffffffffff1916817bffffffffffffffffffffffffffffffffffffffffffffffffffffffff19161491505062001f4b565b600190505b949350505050565b600073ffffffffffffffffffffffffffffffffffffffff168273ffffffffffffffffffffffffffffffffffffffff16141562001fc6576040517f08c379a000000000000000000000000000000000000000000000000000000000815260040162001fbd9062002c97565b60405180910390fd5b62001fd181620011ac565b1562002014576040517f08c379a00000000000000000000000000000000000000000000000000000000081526004016200200b9062002b65565b60405180910390fd5b620020226000838362001d43565b6001600360008473ffffffffffffffffffffffffffffffffffffffff1673ffffffffffffffffffffffffffffffffffffffff168152602001908152602001600020600082825462002074919062002e66565b92505081905550816002600083815260200190815260200160002060006101000a81548173ffffffffffffffffffffffffffffffffffffffff021916908373ffffffffffffffffffffffffffffffffffffffff160217905550808273ffffffffffffffffffffffffffffffffffffffff16600073ffffffffffffffffffffffffffffffffffffffff167fddf252ad1be2c89b69c2b068fc378daa952ba7f163c4a11628f55a4df523b3ef60405160405180910390a45050565b600080823b905060008111915050919050565b6113bb80620037d983390190565b6000620021656200215f8462002ded565b62002dc4565b90508281526020810184848401111562002184576200218362003234565b5b620021918482856200300d565b509392505050565b600081359050620021aa8162003770565b92915050565b600081519050620021c18162003770565b92915050565b600081359050620021d8816200378a565b92915050565b600081359050620021ef81620037a4565b92915050565b6000815190506200220681620037a4565b92915050565b600082601f8301126200222457620022236200322f565b5b8135620022368482602086016200214e565b91505092915050565b6000813590506200225081620037be565b92915050565b6000602082840312156200226f576200226e6200323e565b5b60006200227f8482850162002199565b91505092915050565b600060208284031215620022a157620022a06200323e565b5b6000620022b184828501620021b0565b91505092915050565b60008060408385031215620022d457620022d36200323e565b5b6000620022e48582860162002199565b9250506020620022f78582860162002199565b9150509250929050565b6000806000606084860312156200231d576200231c6200323e565b5b60006200232d8682870162002199565b9350506020620023408682870162002199565b925050604062002353868287016200223f565b9150509250925092565b600080600080608085870312156200237a57620023796200323e565b5b60006200238a8782880162002199565b94505060206200239d8782880162002199565b9350506040620023b0878288016200223f565b925050606085013567ffffffffffffffff811115620023d457620023d362003239565b5b620023e2878288016200220c565b91505092959194509250565b600080604083850312156200240857620024076200323e565b5b6000620024188582860162002199565b92505060206200242b85828601620021c7565b9150509250929050565b600080604083850312156200244f576200244e6200323e565b5b60006200245f8582860162002199565b925050602062002472858286016200223f565b9150509250929050565b6000602082840312156200249557620024946200323e565b5b6000620024a584828501620021de565b91505092915050565b600060208284031215620024c757620024c66200323e565b5b6000620024d784828501620021f5565b91505092915050565b600060208284031215620024f957620024f86200323e565b5b600062002509848285016200223f565b91505092915050565b600080604083850312156200252c576200252b6200323e565b5b60006200253c858286016200223f565b92505060206200254f858286016200223f565b9150509250929050565b600080600080608085870312156200257657620025756200323e565b5b600062002586878288016200223f565b945050602062002599878288016200223f565b9350506040620025ac8782880162002199565b9250506060620025bf8782880162002199565b91505092959194509250565b600080600060608486031215620025e757620025e66200323e565b5b6000620025f7868287016200223f565b93505060206200260a868287016200223f565b92505060406200261d868287016200223f565b9150509250925092565b620026328162002f97565b82525050565b620026438162002fab565b82525050565b620026548162002fb7565b82525050565b6000620026678262002e23565b62002673818562002e39565b9350620026858185602086016200301c565b620026908162003243565b840191505092915050565b6000620026a88262002e2e565b620026b4818562002e4a565b9350620026c68185602086016200301c565b620026d18162003243565b840191505092915050565b6000620026e98262002e2e565b620026f5818562002e5b565b9350620027078185602086016200301c565b80840191505092915050565b60006200272260328362002e4a565b91506200272f8262003254565b604082019050919050565b600062002749601c8362002e4a565b91506200275682620032a3565b602082019050919050565b60006200277060248362002e4a565b91506200277d82620032cc565b604082019050919050565b60006200279760198362002e4a565b9150620027a4826200331b565b602082019050919050565b6000620027be602c8362002e4a565b9150620027cb8262003344565b604082019050919050565b6000620027e560388362002e4a565b9150620027f28262003393565b604082019050919050565b60006200280c602a8362002e4a565b91506200281982620033e2565b604082019050919050565b60006200283360368362002e4a565b9150620028408262003431565b604082019050919050565b60006200285a60298362002e4a565b9150620028678262003480565b604082019050919050565b60006200288160318362002e4a565b91506200288e82620034cf565b604082019050919050565b6000620028a860208362002e4a565b9150620028b5826200351e565b602082019050919050565b6000620028cf602c8362002e4a565b9150620028dc8262003547565b604082019050919050565b6000620028f6603a8362002e4a565b9150620029038262003596565b604082019050919050565b60006200291d60298362002e4a565b91506200292a82620035e5565b604082019050919050565b600062002944602f8362002e4a565b9150620029518262003634565b604082019050919050565b60006200296b60218362002e4a565b9150620029788262003683565b604082019050919050565b60006200299260318362002e4a565b91506200299f82620036d2565b604082019050919050565b6000620029b9602c8362002e4a565b9150620029c68262003721565b604082019050919050565b620029dc8162003003565b82525050565b6000620029f08285620026dc565b9150620029fe8284620026dc565b91508190509392505050565b600060208201905062002a21600083018462002627565b92915050565b600060608201905062002a3e600083018662002627565b62002a4d602083018562002627565b62002a5c6040830184620029d1565b949350505050565b600060808201905062002a7b600083018762002627565b62002a8a602083018662002627565b62002a996040830185620029d1565b818103606083015262002aad81846200265a565b905095945050505050565b600060408201905062002acf600083018562002627565b62002ade6020830184620029d1565b9392505050565b600060208201905062002afc600083018462002638565b92915050565b600060208201905062002b19600083018462002649565b92915050565b6000602082019050818103600083015262002b3b81846200269b565b905092915050565b6000602082019050818103600083015262002b5e8162002713565b9050919050565b6000602082019050818103600083015262002b80816200273a565b9050919050565b6000602082019050818103600083015262002ba28162002761565b9050919050565b6000602082019050818103600083015262002bc48162002788565b9050919050565b6000602082019050818103600083015262002be681620027af565b9050919050565b6000602082019050818103600083015262002c0881620027d6565b9050919050565b6000602082019050818103600083015262002c2a81620027fd565b9050919050565b6000602082019050818103600083015262002c4c8162002824565b9050919050565b6000602082019050818103600083015262002c6e816200284b565b9050919050565b6000602082019050818103600083015262002c908162002872565b9050919050565b6000602082019050818103600083015262002cb28162002899565b9050919050565b6000602082019050818103600083015262002cd481620028c0565b9050919050565b6000602082019050818103600083015262002cf681620028e7565b9050919050565b6000602082019050818103600083015262002d18816200290e565b9050919050565b6000602082019050818103600083015262002d3a8162002935565b9050919050565b6000602082019050818103600083015262002d5c816200295c565b9050919050565b6000602082019050818103600083015262002d7e8162002983565b9050919050565b6000602082019050818103600083015262002da081620029aa565b9050919050565b600060208201905062002dbe6000830184620029d1565b92915050565b600062002dd062002de3565b905062002dde828262003088565b919050565b6000604051905090565b600067ffffffffffffffff82111562002e0b5762002e0a62003200565b5b62002e168262003243565b9050602081019050919050565b600081519050919050565b600081519050919050565b600082825260208201905092915050565b600082825260208201905092915050565b600081905092915050565b600062002e738262003003565b915062002e808362003003565b9250827fffffffffffffffffffffffffffffffffffffffffffffffffffffffffffffffff0382111562002eb85762002eb762003144565b5b828201905092915050565b600062002ed08262003003565b915062002edd8362003003565b92508262002ef05762002eef62003173565b5b828204905092915050565b600062002f088262003003565b915062002f158362003003565b9250817fffffffffffffffffffffffffffffffffffffffffffffffffffffffffffffffff048311821515161562002f515762002f5062003144565b5b828202905092915050565b600062002f698262003003565b915062002f768362003003565b92508282101562002f8c5762002f8b62003144565b5b828203905092915050565b600062002fa48262002fe3565b9050919050565b60008115159050919050565b60007fffffffff0000000000000000000000000000000000000000000000000000000082169050919050565b600073ffffffffffffffffffffffffffffffffffffffff82169050919050565b6000819050919050565b82818337600083830152505050565b60005b838110156200303c5780820151818401526020810190506200301f565b838111156200304c576000848401525b50505050565b600060028204905060018216806200306b57607f821691505b60208210811415620030825762003081620031a2565b5b50919050565b620030938262003243565b810181811067ffffffffffffffff82111715620030b557620030b462003200565b5b80604052505050565b6000620030cb8262003003565b91507fffffffffffffffffffffffffffffffffffffffffffffffffffffffffffffffff82141562003101576200310062003144565b5b600182019050919050565b6000620031198262003003565b9150620031268362003003565b92508262003139576200313862003173565b5b828206905092915050565b7f4e487b7100000000000000000000000000000000000000000000000000000000600052601160045260246000fd5b7f4e487b7100000000000000000000000000000000000000000000000000000000600052601260045260246000fd5b7f4e487b7100000000000000000000000000000000000000000000000000000000600052602260045260246000fd5b7f4e487b7100000000000000000000000000000000000000000000000000000000600052603260045260246000fd5b7f4e487b7100000000000000000000000000000000000000000000000000000000600052604160045260246000fd5b600080fd5b600080fd5b600080fd5b600080fd5b6000601f19601f8301169050919050565b7f4552433732313a207472616e7366657220746f206e6f6e20455243373231526560008201527f63656976657220696d706c656d656e7465720000000000000000000000000000602082015250565b7f4552433732313a20746f6b656e20616c7265616479206d696e74656400000000600082015250565b7f4552433732313a207472616e7366657220746f20746865207a65726f2061646460008201527f7265737300000000000000000000000000000000000000000000000000000000602082015250565b7f4552433732313a20617070726f766520746f2063616c6c657200000000000000600082015250565b7f4552433732313a206f70657261746f7220717565727920666f72206e6f6e657860008201527f697374656e7420746f6b656e0000000000000000000000000000000000000000602082015250565b7f4552433732313a20617070726f76652063616c6c6572206973206e6f74206f7760008201527f6e6572206e6f7220617070726f76656420666f7220616c6c0000000000000000602082015250565b7f4552433732313a2062616c616e636520717565727920666f7220746865207a6560008201527f726f206164647265737300000000000000000000000000000000000000000000602082015250565b7f417065546f6b656e466163746f72793a205468697320746f6b656e206973206e60008201527f6f7420617661696c61626c6520746f20626f72726f7700000000000000000000602082015250565b7f4552433732313a206f776e657220717565727920666f72206e6f6e657869737460008201527f656e7420746f6b656e0000000000000000000000000000000000000000000000602082015250565b7f4170654c656e643a20596f752068617665206e6f742070726f7669646564206160008201527f20746f6b656e20746f204170654c656e64000000000000000000000000000000602082015250565b7f4552433732313a206d696e7420746f20746865207a65726f2061646472657373600082015250565b7f4552433732313a20617070726f76656420717565727920666f72206e6f6e657860008201527f697374656e7420746f6b656e0000000000000000000000000000000000000000602082015250565b7f417065546f6b656e3a20596f752063616e6e6f74206d696e74206d6f7265207460008201527f68616e20323520617065546f6b656e732070657220746f6b656e000000000000602082015250565b7f4552433732313a207472616e73666572206f6620746f6b656e2074686174206960008201527f73206e6f74206f776e0000000000000000000000000000000000000000000000602082015250565b7f4552433732314d657461646174613a2055524920717565727920666f72206e6f60008201527f6e6578697374656e7420746f6b656e0000000000000000000000000000000000602082015250565b7f4552433732313a20617070726f76616c20746f2063757272656e74206f776e6560008201527f7200000000000000000000000000000000000000000000000000000000000000602082015250565b7f4552433732313a207472616e736665722063616c6c6572206973206e6f74206f60008201527f776e6572206e6f7220617070726f766564000000000000000000000000000000602082015250565b7f4170654c656e643a20596f7520617265206e6f7420746865206f776e6572206f60008201527f66207468697320746f6b656e0000000000000000000000000000000000000000602082015250565b6200377b8162002f97565b81146200378757600080fd5b50565b620037958162002fab565b8114620037a157600080fd5b50565b620037af8162002fb7565b8114620037bb57600080fd5b50565b620037c98162003003565b8114620037d557600080fd5b5056fe60806040523480156200001157600080fd5b50604051620013bb380380620013bb83398181016040528101906200003791906200005c565b8060008190555050620000b7565b60008151905062000056816200009d565b92915050565b60006020828403121562000075576200007462000098565b5b6000620000858482850162000045565b91505092915050565b6000819050919050565b600080fd5b620000a8816200008e565b8114620000b457600080fd5b50565b6112f480620000c76000396000f3fe608060405234801561001057600080fd5b506004361061007d5760003560e01c80636352211e1161005b5780636352211e146100fe5780636a4f832b1461012e578063b3e1c7181461014a578063b88d4fde146101665761007d565b8063025e7c2714610082578063081812fc146100b257806342842e0e146100e2575b600080fd5b61009c60048036038101906100979190610bdf565b610182565b6040516100a99190610d33565b60405180910390f35b6100cc60048036038101906100c79190610bdf565b6101bf565b6040516100d99190610d33565b60405180910390f35b6100fc60048036038101906100f79190610a5a565b610244565b005b61011860048036038101906101139190610bdf565b610264565b6040516101259190610d33565b60405180910390f35b61014860048036038101906101439190610b70565b610316565b005b610164600480360381019061015f9190610b30565b610325565b005b610180600480360381019061017b9190610aad565b610343565b005b60006002600083815260200190815260200160002060009054906101000a900473ffffffffffffffffffffffffffffffffffffffff169050919050565b60006101ca826103a5565b610209576040517f08c379a000000000000000000000000000000000000000000000000000000000815260040161020090610e0e565b60405180910390fd5b6003600083815260200190815260200160002060009054906101000a900473ffffffffffffffffffffffffffffffffffffffff169050919050565b61025f83838360405180602001604052806000815250610343565b505050565b6000806002600084815260200190815260200160002060009054906101000a900473ffffffffffffffffffffffffffffffffffffffff169050600073ffffffffffffffffffffffffffffffffffffffff168173ffffffffffffffffffffffffffffffffffffffff16141561030d576040517f08c379a000000000000000000000000000000000000000000000000000000000815260040161030490610d8e565b60405180910390fd5b80915050919050565b6103208383610411565b505050565b61033f828260405180602001604052806000815250610316565b5050565b61035461034e6105d2565b836105da565b610393576040517f08c379a000000000000000000000000000000000000000000000000000000000815260040161038a90610d4e565b60405180910390fd5b61039f848484846106a7565b50505050565b60008073ffffffffffffffffffffffffffffffffffffffff166002600084815260200190815260200160002060009054906101000a900473ffffffffffffffffffffffffffffffffffffffff1673ffffffffffffffffffffffffffffffffffffffff1614159050919050565b600073ffffffffffffffffffffffffffffffffffffffff168273ffffffffffffffffffffffffffffffffffffffff161415610481576040517f08c379a000000000000000000000000000000000000000000000000000000000815260040161047890610d6e565b60405180910390fd5b61048a816103a5565b156104ca576040517f08c379a00000000000000000000000000000000000000000000000000000000081526004016104c190610dee565b60405180910390fd5b60018060008473ffffffffffffffffffffffffffffffffffffffff1673ffffffffffffffffffffffffffffffffffffffff16815260200190815260200160002060008282546105199190610eb5565b92505081905550816002600083815260200190815260200160002060006101000a81548173ffffffffffffffffffffffffffffffffffffffff021916908373ffffffffffffffffffffffffffffffffffffffff160217905550808273ffffffffffffffffffffffffffffffffffffffff16600073ffffffffffffffffffffffffffffffffffffffff167fddf252ad1be2c89b69c2b068fc378daa952ba7f163c4a11628f55a4df523b3ef60405160405180910390a45050565b600033905090565b60006105e5826103a5565b610624576040517f08c379a000000000000000000000000000000000000000000000000000000000815260040161061b90610e2e565b60405180910390fd5b600061062f83610182565b90508073ffffffffffffffffffffffffffffffffffffffff168473ffffffffffffffffffffffffffffffffffffffff16148061069e57508373ffffffffffffffffffffffffffffffffffffffff16610686846101bf565b73ffffffffffffffffffffffffffffffffffffffff16145b91505092915050565b6106b28484846106b8565b50505050565b8273ffffffffffffffffffffffffffffffffffffffff166106d882610182565b73ffffffffffffffffffffffffffffffffffffffff161461072e576040517f08c379a000000000000000000000000000000000000000000000000000000000815260040161072590610dae565b60405180910390fd5b600073ffffffffffffffffffffffffffffffffffffffff168273ffffffffffffffffffffffffffffffffffffffff16141561079e576040517f08c379a000000000000000000000000000000000000000000000000000000000815260040161079590610dce565b60405180910390fd5b6107a9600082610907565b60018060008573ffffffffffffffffffffffffffffffffffffffff1673ffffffffffffffffffffffffffffffffffffffff16815260200190815260200160002060008282546107f89190610f0b565b9250508190555060018060008473ffffffffffffffffffffffffffffffffffffffff1673ffffffffffffffffffffffffffffffffffffffff168152602001908152602001600020600082825461084e9190610eb5565b92505081905550816002600083815260200190815260200160002060006101000a81548173ffffffffffffffffffffffffffffffffffffffff021916908373ffffffffffffffffffffffffffffffffffffffff160217905550808273ffffffffffffffffffffffffffffffffffffffff168473ffffffffffffffffffffffffffffffffffffffff167fddf252ad1be2c89b69c2b068fc378daa952ba7f163c4a11628f55a4df523b3ef60405160405180910390a4505050565b816003600083815260200190815260200160002060006101000a81548173ffffffffffffffffffffffffffffffffffffffff021916908373ffffffffffffffffffffffffffffffffffffffff160217905550808273ffffffffffffffffffffffffffffffffffffffff1661097a83610264565b73ffffffffffffffffffffffffffffffffffffffff167f8c5be1e5ebec7d5bd14f71427d1e84f3dd0314c0f7b2291e5b200ac8c7c3b92560405160405180910390a45050565b60006109d36109ce84610e73565b610e4e565b9050828152602081018484840111156109ef576109ee61101e565b5b6109fa848285610f7b565b509392505050565b600081359050610a1181611290565b92915050565b600082601f830112610a2c57610a2b611019565b5b8135610a3c8482602086016109c0565b91505092915050565b600081359050610a54816112a7565b92915050565b600080600060608486031215610a7357610a72611028565b5b6000610a8186828701610a02565b9350506020610a9286828701610a02565b9250506040610aa386828701610a45565b9150509250925092565b60008060008060808587031215610ac757610ac6611028565b5b6000610ad587828801610a02565b9450506020610ae687828801610a02565b9350506040610af787828801610a45565b925050606085013567ffffffffffffffff811115610b1857610b17611023565b5b610b2487828801610a17565b91505092959194509250565b60008060408385031215610b4757610b46611028565b5b6000610b5585828601610a02565b9250506020610b6685828601610a45565b9150509250929050565b600080600060608486031215610b8957610b88611028565b5b6000610b9786828701610a02565b9350506020610ba886828701610a45565b925050604084013567ffffffffffffffff811115610bc957610bc8611023565b5b610bd586828701610a17565b9150509250925092565b600060208284031215610bf557610bf4611028565b5b6000610c0384828501610a45565b91505092915050565b610c1581610f3f565b82525050565b6000610c28603383610ea4565b9150610c338261103e565b604082019050919050565b6000610c4b602283610ea4565b9150610c568261108d565b604082019050919050565b6000610c6e602b83610ea4565b9150610c79826110dc565b604082019050919050565b6000610c91602b83610ea4565b9150610c9c8261112b565b604082019050919050565b6000610cb4602683610ea4565b9150610cbf8261117a565b604082019050919050565b6000610cd7601e83610ea4565b9150610ce2826111c9565b602082019050919050565b6000610cfa602e83610ea4565b9150610d05826111f2565b604082019050919050565b6000610d1d602e83610ea4565b9150610d2882611241565b604082019050919050565b6000602082019050610d486000830184610c0c565b92915050565b60006020820190508181036000830152610d6781610c1b565b9050919050565b60006020820190508181036000830152610d8781610c3e565b9050919050565b60006020820190508181036000830152610da781610c61565b9050919050565b60006020820190508181036000830152610dc781610c84565b9050919050565b60006020820190508181036000830152610de781610ca7565b9050919050565b60006020820190508181036000830152610e0781610cca565b9050919050565b60006020820190508181036000830152610e2781610ced565b9050919050565b60006020820190508181036000830152610e4781610d10565b9050919050565b6000610e58610e69565b9050610e648282610f8a565b919050565b6000604051905090565b600067ffffffffffffffff821115610e8e57610e8d610fea565b5b610e978261102d565b9050602081019050919050565b600082825260208201905092915050565b6000610ec082610f71565b9150610ecb83610f71565b9250827fffffffffffffffffffffffffffffffffffffffffffffffffffffffffffffffff03821115610f0057610eff610fbb565b5b828201905092915050565b6000610f1682610f71565b9150610f2183610f71565b925082821015610f3457610f33610fbb565b5b828203905092915050565b6000610f4a82610f51565b9050919050565b600073ffffffffffffffffffffffffffffffffffffffff82169050919050565b6000819050919050565b82818337600083830152505050565b610f938261102d565b810181811067ffffffffffffffff82111715610fb257610fb1610fea565b5b80604052505050565b7f4e487b7100000000000000000000000000000000000000000000000000000000600052601160045260246000fd5b7f4e487b7100000000000000000000000000000000000000000000000000000000600052604160045260246000fd5b600080fd5b600080fd5b600080fd5b600080fd5b6000601f19601f8301169050919050565b7f417065546f6b656e3a207472616e736665722063616c6c6572206973206e6f7460008201527f206f776e6572206e6f7220617070726f76656400000000000000000000000000602082015250565b7f417065546f6b656e3a206d696e7420746f20746865207a65726f20616464726560008201527f7373000000000000000000000000000000000000000000000000000000000000602082015250565b7f417065546f6b656e3a206f776e657220717565727920666f72206e6f6e65786960008201527f7374656e7420746f6b656e000000000000000000000000000000000000000000602082015250565b7f417065546f6b656e3a207472616e73666572206f6620746f6b656e207468617460008201527f206973206e6f74206f776e000000000000000000000000000000000000000000602082015250565b7f417065546f6b656e3a207472616e7366657220746f20746865207a65726f206160008201527f6464726573730000000000000000000000000000000000000000000000000000602082015250565b7f417065546f6b656e3a20746f6b656e20616c7265616479206d696e7465640000600082015250565b7f417065546f6b656e3a20617070726f76656420717565727920666f72206e6f6e60008201527f6578697374656e7420746f6b656e000000000000000000000000000000000000602082015250565b7f417065546f6b656e3a206f70657261746f7220717565727920666f72206e6f6e60008201527f6578697374656e7420746f6b656e000000000000000000000000000000000000602082015250565b61129981610f3f565b81146112a457600080fd5b50565b6112b081610f71565b81146112bb57600080fd5b5056fea2646970667358221220f3ab8b6347605bb00a857478c970d2141b97001830cd5b5fffdec4a65233b70564736f6c63430008060033a264697066735822122070f6853fa8206c0279377d11d1d4187e2d0faa1f162d07871b30e40d6e33425b64736f6c63430008060033",
  "linkReferences": {},
  "deployedLinkReferences": {}
}