{
  "_format": "hh-sol-artifact-1",
  "contractName": "ApeLend",
  "sourceName": "contracts/ApeLend.sol",
  "abi": [
    {
      "inputs": [],
      "stateMutability": "nonpayable",
      "type": "constructor"
    },
    {
      "anonymous": false,
      "inputs": [
        {
          "indexed": true,
          "internalType": "address",
          "name": "owner",
          "type": "address"
        },
        {
          "indexed": true,
          "internalType": "address",
          "name": "approved",
          "type": "address"
        },
        {
          "indexed": true,
          "internalType": "uint256",
          "name": "tokenId",
          "type": "uint256"
        }
      ],
      "name": "Approval",
      "type": "event"
    },
    {
      "anonymous": false,
      "inputs": [
        {
          "indexed": true,
          "internalType": "address",
          "name": "owner",
          "type": "address"
        },
        {
          "indexed": true,
          "internalType": "address",
          "name": "operator",
          "type": "address"
        },
        {
          "indexed": false,
          "internalType": "bool",
          "name": "approved",
          "type": "bool"
        }
      ],
      "name": "ApprovalForAll",
      "type": "event"
    },
    {
      "anonymous": false,
      "inputs": [
        {
          "indexed": true,
          "internalType": "address",
          "name": "from",
          "type": "address"
        },
        {
          "indexed": true,
          "internalType": "address",
          "name": "to",
          "type": "address"
        },
        {
          "indexed": true,
          "internalType": "uint256",
          "name": "tokenId",
          "type": "uint256"
        }
      ],
      "name": "Transfer",
      "type": "event"
    },
    {
      "inputs": [
        {
          "internalType": "address",
          "name": "to",
          "type": "address"
        },
        {
          "internalType": "uint256",
          "name": "tokenId",
          "type": "uint256"
        }
      ],
      "name": "approve",
      "outputs": [],
      "stateMutability": "nonpayable",
      "type": "function"
    },
    {
      "inputs": [
        {
          "internalType": "address",
          "name": "_owner",
          "type": "address"
        }
      ],
      "name": "balanceOf",
      "outputs": [
        {
          "internalType": "uint256",
          "name": "",
          "type": "uint256"
        }
      ],
      "stateMutability": "view",
      "type": "function"
    },
    {
      "inputs": [
        {
          "internalType": "uint256",
          "name": "_borrowingNftId",
          "type": "uint256"
        },
        {
          "internalType": "uint256",
          "name": "_collateralNftId",
          "type": "uint256"
        }
      ],
      "name": "borrowNft",
      "outputs": [],
      "stateMutability": "payable",
      "type": "function"
    },
    {
      "inputs": [
        {
          "internalType": "uint256",
          "name": "tokenId",
          "type": "uint256"
        }
      ],
      "name": "getApproved",
      "outputs": [
        {
          "internalType": "address",
          "name": "",
          "type": "address"
        }
      ],
      "stateMutability": "view",
      "type": "function"
    },
    {
      "inputs": [
        {
          "internalType": "address",
          "name": "owner",
          "type": "address"
        },
        {
          "internalType": "address",
          "name": "operator",
          "type": "address"
        }
      ],
      "name": "isApprovedForAll",
      "outputs": [
        {
          "internalType": "bool",
          "name": "",
          "type": "bool"
        }
      ],
      "stateMutability": "view",
      "type": "function"
    },
    {
      "inputs": [
        {
          "internalType": "uint256",
          "name": "_nftId",
          "type": "uint256"
        }
      ],
      "name": "isNftAvailable",
      "outputs": [
        {
          "internalType": "bool",
          "name": "",
          "type": "bool"
        }
      ],
      "stateMutability": "view",
      "type": "function"
    },
    {
      "inputs": [
        {
          "internalType": "uint256",
          "name": "_nftId",
          "type": "uint256"
        }
      ],
      "name": "lendNft",
      "outputs": [],
      "stateMutability": "nonpayable",
      "type": "function"
    },
    {
      "inputs": [],
      "name": "name",
      "outputs": [
        {
          "internalType": "string",
          "name": "",
          "type": "string"
        }
      ],
      "stateMutability": "view",
      "type": "function"
    },
    {
      "inputs": [
        {
          "internalType": "address",
          "name": "",
          "type": "address"
        },
        {
          "internalType": "address",
          "name": "",
          "type": "address"
        },
        {
          "internalType": "uint256",
          "name": "",
          "type": "uint256"
        },
        {
          "internalType": "bytes",
          "name": "",
          "type": "bytes"
        }
      ],
      "name": "onERC721Received",
      "outputs": [
        {
          "internalType": "bytes4",
          "name": "",
          "type": "bytes4"
        }
      ],
      "stateMutability": "nonpayable",
      "type": "function"
    },
    {
      "inputs": [
        {
          "internalType": "address",
          "name": "operator",
          "type": "address"
        },
        {
          "internalType": "address",
          "name": "from",
          "type": "address"
        },
        {
          "internalType": "uint256",
          "name": "tokenId",
          "type": "uint256"
        },
        {
          "internalType": "bytes",
          "name": "data",
          "type": "bytes"
        }
      ],
      "name": "onERC721ReceivedToProtocol",
      "outputs": [
        {
          "internalType": "bytes4",
          "name": "",
          "type": "bytes4"
        }
      ],
      "stateMutability": "nonpayable",
      "type": "function"
    },
    {
      "inputs": [
        {
          "internalType": "uint256",
          "name": "_tokenId",
          "type": "uint256"
        }
      ],
      "name": "ownerOf",
      "outputs": [
        {
          "internalType": "address",
          "name": "",
          "type": "address"
        }
      ],
      "stateMutability": "view",
      "type": "function"
    },
    {
      "inputs": [
        {
          "internalType": "uint256",
          "name": "_nftId",
          "type": "uint256"
        }
      ],
      "name": "protocolNftRepossession",
      "outputs": [],
      "stateMutability": "nonpayable",
      "type": "function"
    },
    {
      "inputs": [
        {
          "internalType": "uint256",
          "name": "_nftId",
          "type": "uint256"
        }
      ],
      "name": "pullNft",
      "outputs": [],
      "stateMutability": "nonpayable",
      "type": "function"
    },
    {
      "inputs": [
        {
          "internalType": "uint256",
          "name": "_nftId",
          "type": "uint256"
        }
      ],
      "name": "requestRepossessionOfNft",
      "outputs": [],
      "stateMutability": "nonpayable",
      "type": "function"
    },
    {
      "inputs": [
        {
          "internalType": "uint256",
          "name": "_nftId",
          "type": "uint256"
        }
      ],
      "name": "returnNft",
      "outputs": [],
      "stateMutability": "nonpayable",
      "type": "function"
    },
    {
      "inputs": [
        {
          "internalType": "address",
          "name": "_to",
          "type": "address"
        },
        {
          "internalType": "uint256",
          "name": "_tokenId",
          "type": "uint256"
        }
      ],
      "name": "safeMint",
      "outputs": [],
      "stateMutability": "nonpayable",
      "type": "function"
    },
    {
      "inputs": [
        {
          "internalType": "address",
          "name": "_from",
          "type": "address"
        },
        {
          "internalType": "address",
          "name": "_to",
          "type": "address"
        },
        {
          "internalType": "uint256",
          "name": "_tokenId",
          "type": "uint256"
        }
      ],
      "name": "safeTransferFrom",
      "outputs": [],
      "stateMutability": "nonpayable",
      "type": "function"
    },
    {
      "inputs": [
        {
          "internalType": "address",
          "name": "from",
          "type": "address"
        },
        {
          "internalType": "address",
          "name": "to",
          "type": "address"
        },
        {
          "internalType": "uint256",
          "name": "tokenId",
          "type": "uint256"
        },
        {
          "internalType": "bytes",
          "name": "_data",
          "type": "bytes"
        }
      ],
      "name": "safeTransferFrom",
      "outputs": [],
      "stateMutability": "nonpayable",
      "type": "function"
    },
    {
      "inputs": [
        {
          "internalType": "address",
          "name": "operator",
          "type": "address"
        },
        {
          "internalType": "bool",
          "name": "approved",
          "type": "bool"
        }
      ],
      "name": "setApprovalForAll",
      "outputs": [],
      "stateMutability": "nonpayable",
      "type": "function"
    },
    {
      "inputs": [
        {
          "internalType": "bytes4",
          "name": "interfaceId",
          "type": "bytes4"
        }
      ],
      "name": "supportsInterface",
      "outputs": [
        {
          "internalType": "bool",
          "name": "",
          "type": "bool"
        }
      ],
      "stateMutability": "view",
      "type": "function"
    },
    {
      "inputs": [],
      "name": "symbol",
      "outputs": [
        {
          "internalType": "string",
          "name": "",
          "type": "string"
        }
      ],
      "stateMutability": "view",
      "type": "function"
    },
    {
      "inputs": [
        {
          "internalType": "uint256",
          "name": "tokenId",
          "type": "uint256"
        }
      ],
      "name": "tokenURI",
      "outputs": [
        {
          "internalType": "string",
          "name": "",
          "type": "string"
        }
      ],
      "stateMutability": "view",
      "type": "function"
    },
    {
      "inputs": [
        {
          "internalType": "address",
          "name": "from",
          "type": "address"
        },
        {
          "internalType": "address",
          "name": "to",
          "type": "address"
        },
        {
          "internalType": "uint256",
          "name": "tokenId",
          "type": "uint256"
        }
      ],
      "name": "transferFrom",
      "outputs": [],
      "stateMutability": "nonpayable",
      "type": "function"
    },
    {
      "stateMutability": "payable",
      "type": "receive"
    }
  ],
  "bytecode": "0x60806040523480156200001157600080fd5b506040518060400160405280600781526020017f4170654c656e64000000000000000000000000000000000000000000000000008152506040518060400160405280600381526020017f4150450000000000000000000000000000000000000000000000000000000000815250816000908051906020019062000096929190620000f9565b508060019080519060200190620000af929190620000f9565b50505033600660006101000a81548173ffffffffffffffffffffffffffffffffffffffff021916908373ffffffffffffffffffffffffffffffffffffffff1602179055506200020e565b8280546200010790620001a9565b90600052602060002090601f0160209004810192826200012b576000855562000177565b82601f106200014657805160ff191683800117855562000177565b8280016001018555821562000177579182015b828111156200017657825182559160200191906001019062000159565b5b5090506200018691906200018a565b5090565b5b80821115620001a55760008160009055506001016200018b565b5090565b60006002820490506001821680620001c257607f821691505b60208210811415620001d957620001d8620001df565b5b50919050565b7f4e487b7100000000000000000000000000000000000000000000000000000000600052602260045260246000fd5b613a39806200021e6000396000f3fe6080604052600436106101445760003560e01c80635c9ff8e5116100b6578063a22cb4651161006f578063a22cb46514610478578063a45e7bee146104a1578063b88d4fde146104ca578063c87b56dd146104f3578063d710c9c114610530578063e985e9c51461056d5761014b565b80635c9ff8e5146103585780636352211e1461038157806370a08231146103be57806375abab7e146103fb57806395d89b4114610424578063a14481941461044f5761014b565b806312a8b2111161010857806312a8b21114610247578063150b7a021461026357806323b872dd146102a057806342842e0e146102c957806345079f4f146102f25780634effdda01461031b5761014b565b806301ffc9a71461015057806306fdde031461018d578063081812fc146101b8578063095ea7b3146101f557806309d77f0e1461021e5761014b565b3661014b57005b600080fd5b34801561015c57600080fd5b50610177600480360381019061017291906124d0565b6105aa565b6040516101849190612a8f565b60405180910390f35b34801561019957600080fd5b506101a261068c565b6040516101af9190612ac5565b60405180910390f35b3480156101c457600080fd5b506101df60048036038101906101da919061252a565b61071e565b6040516101ec9190612a28565b60405180910390f35b34801561020157600080fd5b5061021c60048036038101906102179190612490565b6107a3565b005b34801561022a57600080fd5b506102456004803603810190610240919061252a565b6108bb565b005b610261600480360381019061025c9190612557565b6109f8565b005b34801561026f57600080fd5b5061028a600480360381019061028591906123cd565b610bbb565b6040516102979190612aaa565b60405180910390f35b3480156102ac57600080fd5b506102c760048036038101906102c2919061237a565b610bcf565b005b3480156102d557600080fd5b506102f060048036038101906102eb919061237a565b610c2f565b005b3480156102fe57600080fd5b506103196004803603810190610314919061252a565b610c3f565b005b34801561032757600080fd5b50610342600480360381019061033d91906123cd565b610d67565b60405161034f9190612aaa565b60405180910390f35b34801561036457600080fd5b5061037f600480360381019061037a919061252a565b610d7e565b005b34801561038d57600080fd5b506103a860048036038101906103a3919061252a565b610ec0565b6040516103b59190612a28565b60405180910390f35b3480156103ca57600080fd5b506103e560048036038101906103e0919061230d565b610ed2565b6040516103f29190612e27565b60405180910390f35b34801561040757600080fd5b50610422600480360381019061041d919061252a565b610ee4565b005b34801561043057600080fd5b5061043961108b565b6040516104469190612ac5565b60405180910390f35b34801561045b57600080fd5b5061047660048036038101906104719190612490565b61111d565b005b34801561048457600080fd5b5061049f600480360381019061049a9190612450565b61112b565b005b3480156104ad57600080fd5b506104c860048036038101906104c3919061252a565b6112ac565b005b3480156104d657600080fd5b506104f160048036038101906104ec91906123cd565b611448565b005b3480156104ff57600080fd5b5061051a6004803603810190610515919061252a565b6114aa565b6040516105279190612ac5565b60405180910390f35b34801561053c57600080fd5b506105576004803603810190610552919061252a565b611551565b6040516105649190612a8f565b60405180910390f35b34801561057957600080fd5b50610594600480360381019061058f919061233a565b61157b565b6040516105a19190612a8f565b60405180910390f35b60007f80ac58cd000000000000000000000000000000000000000000000000000000007bffffffffffffffffffffffffffffffffffffffffffffffffffffffff1916827bffffffffffffffffffffffffffffffffffffffffffffffffffffffff1916148061067557507f5b5e139f000000000000000000000000000000000000000000000000000000007bffffffffffffffffffffffffffffffffffffffffffffffffffffffff1916827bffffffffffffffffffffffffffffffffffffffffffffffffffffffff1916145b8061068557506106848261160f565b5b9050919050565b60606000805461069b9061304c565b80601f01602080910402602001604051908101604052809291908181526020018280546106c79061304c565b80156107145780601f106106e957610100808354040283529160200191610714565b820191906000526020600020905b8154815290600101906020018083116106f757829003601f168201915b5050505050905090565b600061072982611679565b610768576040517f08c379a000000000000000000000000000000000000000000000000000000000815260040161075f90612d07565b60405180910390fd5b6004600083815260200190815260200160002060009054906101000a900473ffffffffffffffffffffffffffffffffffffffff169050919050565b60006107ae826116e5565b90508073ffffffffffffffffffffffffffffffffffffffff168373ffffffffffffffffffffffffffffffffffffffff16141561081f576040517f08c379a000000000000000000000000000000000000000000000000000000000815260040161081690612d87565b60405180910390fd5b8073ffffffffffffffffffffffffffffffffffffffff1661083e611797565b73ffffffffffffffffffffffffffffffffffffffff16148061086d575061086c81610867611797565b61157b565b5b6108ac576040517f08c379a00000000000000000000000000000000000000000000000000000000081526004016108a390612c27565b60405180910390fd5b6108b6838361179f565b505050565b6108c4816116e5565b73ffffffffffffffffffffffffffffffffffffffff163373ffffffffffffffffffffffffffffffffffffffff1614610931576040517f08c379a000000000000000000000000000000000000000000000000000000000815260040161092890612b67565b60405180910390fd5b600015156007600083815260200190815260200160002060009054906101000a900460ff16151514610998576040517f08c379a000000000000000000000000000000000000000000000000000000000815260040161098f90612da7565b60405180910390fd5b60016007600083815260200190815260200160002060006101000a81548160ff0219169083151502179055506109ce30826107a3565b6109e933338360405180602001604052806000815250610d67565b506109f5333083611858565b50565b600115156007600084815260200190815260200160002060009054906101000a900460ff16151514610a5f576040517f08c379a0000000000000000000000000000000000000000000000000000000008152600401610a5690612c07565b60405180910390fd5b610a68816116e5565b73ffffffffffffffffffffffffffffffffffffffff163373ffffffffffffffffffffffffffffffffffffffff1614610ad5576040517f08c379a0000000000000000000000000000000000000000000000000000000008152600401610acc90612ae7565b60405180910390fd5b610ade81610c3f565b607842610aeb9190612edb565b600860008481526020019081526020016000208190555060006007600084815260200190815260200160002060006101000a81548160ff021916908315150217905550336009600084815260200190815260200160002060006101000a81548173ffffffffffffffffffffffffffffffffffffffff021916908373ffffffffffffffffffffffffffffffffffffffff160217905550610bac600660009054906101000a900473ffffffffffffffffffffffffffffffffffffffff16836107a3565b610bb7303384611858565b5050565b600063150b7a0260e01b9050949350505050565b610be0610bda611797565b82611878565b610c1f576040517f08c379a0000000000000000000000000000000000000000000000000000000008152600401610c1690612dc7565b60405180910390fd5b610c2a838383611956565b505050565b610c3a838383611858565b505050565b610c48816116e5565b73ffffffffffffffffffffffffffffffffffffffff163373ffffffffffffffffffffffffffffffffffffffff1614610cb5576040517f08c379a0000000000000000000000000000000000000000000000000000000008152600401610cac90612d27565b60405180910390fd5b33600b600083815260200190815260200160002060006101000a81548173ffffffffffffffffffffffffffffffffffffffff021916908373ffffffffffffffffffffffffffffffffffffffff16021790555060016007600083815260200190815260200160002060006101000a81548160ff021916908315150217905550610d3d30826107a3565b610d5833338360405180602001604052806000815250610d67565b50610d64333083611858565b50565b6000610d7585858585610bbb565b50949350505050565b600b600082815260200190815260200160002060009054906101000a900473ffffffffffffffffffffffffffffffffffffffff1673ffffffffffffffffffffffffffffffffffffffff163373ffffffffffffffffffffffffffffffffffffffff1614610e1f576040517f08c379a0000000000000000000000000000000000000000000000000000000008152600401610e1690612cc7565b60405180910390fd5b600115156007600083815260200190815260200160002060009054906101000a900460ff16151514610e86576040517f08c379a0000000000000000000000000000000000000000000000000000000008152600401610e7d90612da7565b60405180910390fd5b60006007600083815260200190815260200160002060006101000a81548160ff021916908315150217905550610ebd303383611858565b50565b6000610ecb826116e5565b9050919050565b6000610edd82611bb2565b9050919050565b600015156007600083815260200190815260200160002060009054906101000a900460ff16151514610f4b576040517f08c379a0000000000000000000000000000000000000000000000000000000008152600401610f4290612b27565b60405180910390fd5b600660009054906101000a900473ffffffffffffffffffffffffffffffffffffffff1673ffffffffffffffffffffffffffffffffffffffff163373ffffffffffffffffffffffffffffffffffffffff1614610fdb576040517f08c379a0000000000000000000000000000000000000000000000000000000008152600401610fd290612ca7565b60405180910390fd5b60011515600a600083815260200190815260200160002060009054906101000a900460ff16151514611042576040517f08c379a000000000000000000000000000000000000000000000000000000000815260040161103990612e07565b60405180910390fd5b61108861104e826116e5565b600b600084815260200190815260200160002060009054906101000a900473ffffffffffffffffffffffffffffffffffffffff1683611858565b50565b60606001805461109a9061304c565b80601f01602080910402602001604051908101604052809291908181526020018280546110c69061304c565b80156111135780601f106110e857610100808354040283529160200191611113565b820191906000526020600020905b8154815290600101906020018083116110f657829003601f168201915b5050505050905090565b6111278282611c6a565b5050565b611133611797565b73ffffffffffffffffffffffffffffffffffffffff168273ffffffffffffffffffffffffffffffffffffffff1614156111a1576040517f08c379a000000000000000000000000000000000000000000000000000000000815260040161119890612bc7565b60405180910390fd5b80600560006111ae611797565b73ffffffffffffffffffffffffffffffffffffffff1673ffffffffffffffffffffffffffffffffffffffff16815260200190815260200160002060008473ffffffffffffffffffffffffffffffffffffffff1673ffffffffffffffffffffffffffffffffffffffff16815260200190815260200160002060006101000a81548160ff0219169083151502179055508173ffffffffffffffffffffffffffffffffffffffff1661125b611797565b73ffffffffffffffffffffffffffffffffffffffff167f17307eab39ab6107e8899845ad3d59bd9653f200f220920489ca2b5937696c31836040516112a09190612a8f565b60405180910390a35050565b600b600082815260200190815260200160002060009054906101000a900473ffffffffffffffffffffffffffffffffffffffff1673ffffffffffffffffffffffffffffffffffffffff163373ffffffffffffffffffffffffffffffffffffffff161461134d576040517f08c379a000000000000000000000000000000000000000000000000000000000815260040161134490612c87565b60405180910390fd5b600860008281526020019081526020016000205442116113a2576040517f08c379a000000000000000000000000000000000000000000000000000000000815260040161139990612de7565b60405180910390fd5b6113ab816116e5565b73ffffffffffffffffffffffffffffffffffffffff163373ffffffffffffffffffffffffffffffffffffffff161415611419576040517f08c379a000000000000000000000000000000000000000000000000000000000815260040161141090612b87565b60405180910390fd5b6001600a600083815260200190815260200160002060006101000a81548160ff02191690831515021790555050565b611459611453611797565b83611878565b611498576040517f08c379a000000000000000000000000000000000000000000000000000000000815260040161148f90612dc7565b60405180910390fd5b6114a484848484611c88565b50505050565b60606114b582611679565b6114f4576040517f08c379a00000000000000000000000000000000000000000000000000000000081526004016114eb90612d67565b60405180910390fd5b60006114fe611ce4565b9050600081511161151e5760405180602001604052806000815250611549565b8061152884611cfb565b604051602001611539929190612a04565b6040516020818303038152906040525b915050919050565b60006007600083815260200190815260200160002060009054906101000a900460ff169050919050565b6000600560008473ffffffffffffffffffffffffffffffffffffffff1673ffffffffffffffffffffffffffffffffffffffff16815260200190815260200160002060008373ffffffffffffffffffffffffffffffffffffffff1673ffffffffffffffffffffffffffffffffffffffff16815260200190815260200160002060009054906101000a900460ff16905092915050565b60007f01ffc9a7000000000000000000000000000000000000000000000000000000007bffffffffffffffffffffffffffffffffffffffffffffffffffffffff1916827bffffffffffffffffffffffffffffffffffffffffffffffffffffffff1916149050919050565b60008073ffffffffffffffffffffffffffffffffffffffff166002600084815260200190815260200160002060009054906101000a900473ffffffffffffffffffffffffffffffffffffffff1673ffffffffffffffffffffffffffffffffffffffff1614159050919050565b6000806002600084815260200190815260200160002060009054906101000a900473ffffffffffffffffffffffffffffffffffffffff169050600073ffffffffffffffffffffffffffffffffffffffff168173ffffffffffffffffffffffffffffffffffffffff16141561178e576040517f08c379a000000000000000000000000000000000000000000000000000000000815260040161178590612c67565b60405180910390fd5b80915050919050565b600033905090565b816004600083815260200190815260200160002060006101000a81548173ffffffffffffffffffffffffffffffffffffffff021916908373ffffffffffffffffffffffffffffffffffffffff160217905550808273ffffffffffffffffffffffffffffffffffffffff16611812836116e5565b73ffffffffffffffffffffffffffffffffffffffff167f8c5be1e5ebec7d5bd14f71427d1e84f3dd0314c0f7b2291e5b200ac8c7c3b92560405160405180910390a45050565b61187383838360405180602001604052806000815250611448565b505050565b600061188382611679565b6118c2576040517f08c379a00000000000000000000000000000000000000000000000000000000081526004016118b990612be7565b60405180910390fd5b60006118cd836116e5565b90508073ffffffffffffffffffffffffffffffffffffffff168473ffffffffffffffffffffffffffffffffffffffff16148061193c57508373ffffffffffffffffffffffffffffffffffffffff166119248461071e565b73ffffffffffffffffffffffffffffffffffffffff16145b8061194d575061194c818561157b565b5b91505092915050565b8273ffffffffffffffffffffffffffffffffffffffff16611976826116e5565b73ffffffffffffffffffffffffffffffffffffffff16146119cc576040517f08c379a00000000000000000000000000000000000000000000000000000000081526004016119c390612d47565b60405180910390fd5b600073ffffffffffffffffffffffffffffffffffffffff168273ffffffffffffffffffffffffffffffffffffffff161415611a3c576040517f08c379a0000000000000000000000000000000000000000000000000000000008152600401611a3390612ba7565b60405180910390fd5b611a47838383611e5c565b611a5260008261179f565b6001600360008573ffffffffffffffffffffffffffffffffffffffff1673ffffffffffffffffffffffffffffffffffffffff1681526020019081526020016000206000828254611aa29190612f62565b925050819055506001600360008473ffffffffffffffffffffffffffffffffffffffff1673ffffffffffffffffffffffffffffffffffffffff1681526020019081526020016000206000828254611af99190612edb565b92505081905550816002600083815260200190815260200160002060006101000a81548173ffffffffffffffffffffffffffffffffffffffff021916908373ffffffffffffffffffffffffffffffffffffffff160217905550808273ffffffffffffffffffffffffffffffffffffffff168473ffffffffffffffffffffffffffffffffffffffff167fddf252ad1be2c89b69c2b068fc378daa952ba7f163c4a11628f55a4df523b3ef60405160405180910390a4505050565b60008073ffffffffffffffffffffffffffffffffffffffff168273ffffffffffffffffffffffffffffffffffffffff161415611c23576040517f08c379a0000000000000000000000000000000000000000000000000000000008152600401611c1a90612c47565b60405180910390fd5b600360008373ffffffffffffffffffffffffffffffffffffffff1673ffffffffffffffffffffffffffffffffffffffff168152602001908152602001600020549050919050565b611c84828260405180602001604052806000815250611e61565b5050565b611c93848484611956565b611c9f84848484611ebc565b611cde576040517f08c379a0000000000000000000000000000000000000000000000000000000008152600401611cd590612b07565b60405180910390fd5b50505050565b606060405180602001604052806000815250905090565b60606000821415611d43576040518060400160405280600181526020017f30000000000000000000000000000000000000000000000000000000000000008152509050611e57565b600082905060005b60008214611d75578080611d5e906130af565b915050600a82611d6e9190612f31565b9150611d4b565b60008167ffffffffffffffff811115611d9157611d906131e5565b5b6040519080825280601f01601f191660200182016040528015611dc35781602001600182028036833780820191505090505b5090505b60008514611e5057600182611ddc9190612f62565b9150600a85611deb91906130f8565b6030611df79190612edb565b60f81b818381518110611e0d57611e0c6131b6565b5b60200101907effffffffffffffffffffffffffffffffffffffffffffffffffffffffffffff1916908160001a905350600a85611e499190612f31565b9450611dc7565b8093505050505b919050565b505050565b611e6b8383612053565b611e786000848484611ebc565b611eb7576040517f08c379a0000000000000000000000000000000000000000000000000000000008152600401611eae90612b07565b60405180910390fd5b505050565b6000611edd8473ffffffffffffffffffffffffffffffffffffffff16612221565b15612046578373ffffffffffffffffffffffffffffffffffffffff1663150b7a02611f06611797565b8786866040518563ffffffff1660e01b8152600401611f289493929190612a43565b602060405180830381600087803b158015611f4257600080fd5b505af1925050508015611f7357506040513d601f19601f82011682018060405250810190611f7091906124fd565b60015b611ff6573d8060008114611fa3576040519150601f19603f3d011682016040523d82523d6000602084013e611fa8565b606091505b50600081511415611fee576040517f08c379a0000000000000000000000000000000000000000000000000000000008152600401611fe590612b07565b60405180910390fd5b805181602001fd5b63150b7a0260e01b7bffffffffffffffffffffffffffffffffffffffffffffffffffffffff1916817bffffffffffffffffffffffffffffffffffffffffffffffffffffffff19161491505061204b565b600190505b949350505050565b600073ffffffffffffffffffffffffffffffffffffffff168273ffffffffffffffffffffffffffffffffffffffff1614156120c3576040517f08c379a00000000000000000000000000000000000000000000000000000000081526004016120ba90612ce7565b60405180910390fd5b6120cc81611679565b1561210c576040517f08c379a000000000000000000000000000000000000000000000000000000000815260040161210390612b47565b60405180910390fd5b61211860008383611e5c565b6001600360008473ffffffffffffffffffffffffffffffffffffffff1673ffffffffffffffffffffffffffffffffffffffff16815260200190815260200160002060008282546121689190612edb565b92505081905550816002600083815260200190815260200160002060006101000a81548173ffffffffffffffffffffffffffffffffffffffff021916908373ffffffffffffffffffffffffffffffffffffffff160217905550808273ffffffffffffffffffffffffffffffffffffffff16600073ffffffffffffffffffffffffffffffffffffffff167fddf252ad1be2c89b69c2b068fc378daa952ba7f163c4a11628f55a4df523b3ef60405160405180910390a45050565b600080823b905060008111915050919050565b600061224761224284612e67565b612e42565b90508281526020810184848401111561226357612262613219565b5b61226e84828561300a565b509392505050565b600081359050612285816139a7565b92915050565b60008135905061229a816139be565b92915050565b6000813590506122af816139d5565b92915050565b6000815190506122c4816139d5565b92915050565b600082601f8301126122df576122de613214565b5b81356122ef848260208601612234565b91505092915050565b600081359050612307816139ec565b92915050565b60006020828403121561232357612322613223565b5b600061233184828501612276565b91505092915050565b6000806040838503121561235157612350613223565b5b600061235f85828601612276565b925050602061237085828601612276565b9150509250929050565b60008060006060848603121561239357612392613223565b5b60006123a186828701612276565b93505060206123b286828701612276565b92505060406123c3868287016122f8565b9150509250925092565b600080600080608085870312156123e7576123e6613223565b5b60006123f587828801612276565b945050602061240687828801612276565b9350506040612417878288016122f8565b925050606085013567ffffffffffffffff8111156124385761243761321e565b5b612444878288016122ca565b91505092959194509250565b6000806040838503121561246757612466613223565b5b600061247585828601612276565b92505060206124868582860161228b565b9150509250929050565b600080604083850312156124a7576124a6613223565b5b60006124b585828601612276565b92505060206124c6858286016122f8565b9150509250929050565b6000602082840312156124e6576124e5613223565b5b60006124f4848285016122a0565b91505092915050565b60006020828403121561251357612512613223565b5b6000612521848285016122b5565b91505092915050565b6000602082840312156125405761253f613223565b5b600061254e848285016122f8565b91505092915050565b6000806040838503121561256e5761256d613223565b5b600061257c858286016122f8565b925050602061258d858286016122f8565b9150509250929050565b6125a081612f96565b82525050565b6125af81612fa8565b82525050565b6125be81612fb4565b82525050565b60006125cf82612e98565b6125d98185612eae565b93506125e9818560208601613019565b6125f281613228565b840191505092915050565b600061260882612ea3565b6126128185612ebf565b9350612622818560208601613019565b61262b81613228565b840191505092915050565b600061264182612ea3565b61264b8185612ed0565b935061265b818560208601613019565b80840191505092915050565b6000612674602b83612ebf565b915061267f82613239565b604082019050919050565b6000612697603283612ebf565b91506126a282613288565b604082019050919050565b60006126ba602583612ebf565b91506126c5826132d7565b604082019050919050565b60006126dd601c83612ebf565b91506126e882613326565b602082019050919050565b6000612700602883612ebf565b915061270b8261334f565b604082019050919050565b6000612723603183612ebf565b915061272e8261339e565b604082019050919050565b6000612746602483612ebf565b9150612751826133ed565b604082019050919050565b6000612769601983612ebf565b91506127748261343c565b602082019050919050565b600061278c602c83612ebf565b915061279782613465565b604082019050919050565b60006127af602383612ebf565b91506127ba826134b4565b604082019050919050565b60006127d2603883612ebf565b91506127dd82613503565b604082019050919050565b60006127f5602a83612ebf565b915061280082613552565b604082019050919050565b6000612818602983612ebf565b9150612823826135a1565b604082019050919050565b600061283b603183612ebf565b9150612846826135f0565b604082019050919050565b600061285e603383612ebf565b91506128698261363f565b604082019050919050565b6000612881602a83612ebf565b915061288c8261368e565b604082019050919050565b60006128a4602083612ebf565b91506128af826136dd565b602082019050919050565b60006128c7602c83612ebf565b91506128d282613706565b604082019050919050565b60006128ea602183612ebf565b91506128f582613755565b604082019050919050565b600061290d602983612ebf565b9150612918826137a4565b604082019050919050565b6000612930602f83612ebf565b915061293b826137f3565b604082019050919050565b6000612953602183612ebf565b915061295e82613842565b604082019050919050565b6000612976602283612ebf565b915061298182613891565b604082019050919050565b6000612999603183612ebf565b91506129a4826138e0565b604082019050919050565b60006129bc601f83612ebf565b91506129c78261392f565b602082019050919050565b60006129df603783612ebf565b91506129ea82613958565b604082019050919050565b6129fe81613000565b82525050565b6000612a108285612636565b9150612a1c8284612636565b91508190509392505050565b6000602082019050612a3d6000830184612597565b92915050565b6000608082019050612a586000830187612597565b612a656020830186612597565b612a7260408301856129f5565b8181036060830152612a8481846125c4565b905095945050505050565b6000602082019050612aa460008301846125a6565b92915050565b6000602082019050612abf60008301846125b5565b92915050565b60006020820190508181036000830152612adf81846125fd565b905092915050565b60006020820190508181036000830152612b0081612667565b9050919050565b60006020820190508181036000830152612b208161268a565b9050919050565b60006020820190508181036000830152612b40816126ad565b9050919050565b60006020820190508181036000830152612b60816126d0565b9050919050565b60006020820190508181036000830152612b80816126f3565b9050919050565b60006020820190508181036000830152612ba081612716565b9050919050565b60006020820190508181036000830152612bc081612739565b9050919050565b60006020820190508181036000830152612be08161275c565b9050919050565b60006020820190508181036000830152612c008161277f565b9050919050565b60006020820190508181036000830152612c20816127a2565b9050919050565b60006020820190508181036000830152612c40816127c5565b9050919050565b60006020820190508181036000830152612c60816127e8565b9050919050565b60006020820190508181036000830152612c808161280b565b9050919050565b60006020820190508181036000830152612ca08161282e565b9050919050565b60006020820190508181036000830152612cc081612851565b9050919050565b60006020820190508181036000830152612ce081612874565b9050919050565b60006020820190508181036000830152612d0081612897565b9050919050565b60006020820190508181036000830152612d20816128ba565b9050919050565b60006020820190508181036000830152612d40816128dd565b9050919050565b60006020820190508181036000830152612d6081612900565b9050919050565b60006020820190508181036000830152612d8081612923565b9050919050565b60006020820190508181036000830152612da081612946565b9050919050565b60006020820190508181036000830152612dc081612969565b9050919050565b60006020820190508181036000830152612de08161298c565b9050919050565b60006020820190508181036000830152612e00816129af565b9050919050565b60006020820190508181036000830152612e20816129d2565b9050919050565b6000602082019050612e3c60008301846129f5565b92915050565b6000612e4c612e5d565b9050612e58828261307e565b919050565b6000604051905090565b600067ffffffffffffffff821115612e8257612e816131e5565b5b612e8b82613228565b9050602081019050919050565b600081519050919050565b600081519050919050565b600082825260208201905092915050565b600082825260208201905092915050565b600081905092915050565b6000612ee682613000565b9150612ef183613000565b9250827fffffffffffffffffffffffffffffffffffffffffffffffffffffffffffffffff03821115612f2657612f25613129565b5b828201905092915050565b6000612f3c82613000565b9150612f4783613000565b925082612f5757612f56613158565b5b828204905092915050565b6000612f6d82613000565b9150612f7883613000565b925082821015612f8b57612f8a613129565b5b828203905092915050565b6000612fa182612fe0565b9050919050565b60008115159050919050565b60007fffffffff0000000000000000000000000000000000000000000000000000000082169050919050565b600073ffffffffffffffffffffffffffffffffffffffff82169050919050565b6000819050919050565b82818337600083830152505050565b60005b8381101561303757808201518184015260208101905061301c565b83811115613046576000848401525b50505050565b6000600282049050600182168061306457607f821691505b6020821081141561307857613077613187565b5b50919050565b61308782613228565b810181811067ffffffffffffffff821117156130a6576130a56131e5565b5b80604052505050565b60006130ba82613000565b91507fffffffffffffffffffffffffffffffffffffffffffffffffffffffffffffffff8214156130ed576130ec613129565b5b600182019050919050565b600061310382613000565b915061310e83613000565b92508261311e5761311d613158565b5b828206905092915050565b7f4e487b7100000000000000000000000000000000000000000000000000000000600052601160045260246000fd5b7f4e487b7100000000000000000000000000000000000000000000000000000000600052601260045260246000fd5b7f4e487b7100000000000000000000000000000000000000000000000000000000600052602260045260246000fd5b7f4e487b7100000000000000000000000000000000000000000000000000000000600052603260045260246000fd5b7f4e487b7100000000000000000000000000000000000000000000000000000000600052604160045260246000fd5b600080fd5b600080fd5b600080fd5b600080fd5b6000601f19601f8301169050919050565b7f596f7520617265206e6f7420746865206f776e6572206f662074686520636f6c60008201527f6c61746572616c204e4654000000000000000000000000000000000000000000602082015250565b7f4552433732313a207472616e7366657220746f206e6f6e20455243373231526560008201527f63656976657220696d706c656d656e7465720000000000000000000000000000602082015250565b7f50726f7669646564204e465420494420686173206e6f74206265656e20626f7260008201527f726f776564000000000000000000000000000000000000000000000000000000602082015250565b7f4552433732313a20746f6b656e20616c7265616479206d696e74656400000000600082015250565b7f596f7520617265206e6f742074686520626f72726f776572206f662070726f7660008201527f69646564204e4654000000000000000000000000000000000000000000000000602082015250565b7f596f752063616e6e6f74207265706f73736573204e465420746861742069732060008201527f696e20796f757220706f73736573696f6e000000000000000000000000000000602082015250565b7f4552433732313a207472616e7366657220746f20746865207a65726f2061646460008201527f7265737300000000000000000000000000000000000000000000000000000000602082015250565b7f4552433732313a20617070726f766520746f2063616c6c657200000000000000600082015250565b7f4552433732313a206f70657261746f7220717565727920666f72206e6f6e657860008201527f697374656e7420746f6b656e0000000000000000000000000000000000000000602082015250565b7f54686973204e4654206973206e6f7420617661696c61626c6520746f20626f7260008201527f726f770000000000000000000000000000000000000000000000000000000000602082015250565b7f4552433732313a20617070726f76652063616c6c6572206973206e6f74206f7760008201527f6e6572206e6f7220617070726f76656420666f7220616c6c0000000000000000602082015250565b7f4552433732313a2062616c616e636520717565727920666f7220746865207a6560008201527f726f206164647265737300000000000000000000000000000000000000000000602082015250565b7f4552433732313a206f776e657220717565727920666f72206e6f6e657869737460008201527f656e7420746f6b656e0000000000000000000000000000000000000000000000602082015250565b7f596f7520617265206e6f74207468652074727565206f776e6572206f6620746860008201527f652070726f7669646564204e4654204944000000000000000000000000000000602082015250565b7f46756e6374696f6e2063616c6c6572206973206e6f74207468652070726f746f60008201527f636f6c2063726561746f72206164647265737300000000000000000000000000602082015250565b7f596f7520617265206e6f74207468652074727565206f776e6572206f6620707260008201527f6f7669646564204e465400000000000000000000000000000000000000000000602082015250565b7f4552433732313a206d696e7420746f20746865207a65726f2061646472657373600082015250565b7f4552433732313a20617070726f76656420717565727920666f72206e6f6e657860008201527f697374656e7420746f6b656e0000000000000000000000000000000000000000602082015250565b7f596f7520617265206e6f7420746865206f776e6572206f662074686973204e4660008201527f5400000000000000000000000000000000000000000000000000000000000000602082015250565b7f4552433732313a207472616e73666572206f6620746f6b656e2074686174206960008201527f73206e6f74206f776e0000000000000000000000000000000000000000000000602082015250565b7f4552433732314d657461646174613a2055524920717565727920666f72206e6f60008201527f6e6578697374656e7420746f6b656e0000000000000000000000000000000000602082015250565b7f4552433732313a20617070726f76616c20746f2063757272656e74206f776e6560008201527f7200000000000000000000000000000000000000000000000000000000000000602082015250565b7f5468652070726f7669646564204e465420686173206265656e20626f72726f7760008201527f6564000000000000000000000000000000000000000000000000000000000000602082015250565b7f4552433732313a207472616e736665722063616c6c6572206973206e6f74206f60008201527f776e6572206e6f7220617070726f766564000000000000000000000000000000602082015250565b7f497420697320746f6f206561726c7920746f207265706f73736573204e465400600082015250565b7f50726f746f636f6c20646f6573206e6f742068617665207065726d697373696f60008201527f6e20746f207265706f73736573732074686973204e4654000000000000000000602082015250565b6139b081612f96565b81146139bb57600080fd5b50565b6139c781612fa8565b81146139d257600080fd5b50565b6139de81612fb4565b81146139e957600080fd5b50565b6139f581613000565b8114613a0057600080fd5b5056fea26469706673582212204aa33bfb95ce574408fdd34fe6821e43ac08374664ce667fc00ecf4036c4af2e64736f6c63430008060033",
  "linkReferences": {},
  "deployedLinkReferences": {}
}