{
  "_format": "hh-sol-artifact-1",
  "contractName": "ApeLend",
  "sourceName": "contracts/ApeLend.sol",
  "abi": [
    {
      "inputs": [],
      "stateMutability": "nonpayable",
      "type": "constructor"
    },
    {
      "anonymous": false,
      "inputs": [
        {
          "indexed": true,
          "internalType": "address",
          "name": "owner",
          "type": "address"
        },
        {
          "indexed": true,
          "internalType": "address",
          "name": "approved",
          "type": "address"
        },
        {
          "indexed": true,
          "internalType": "uint256",
          "name": "tokenId",
          "type": "uint256"
        }
      ],
      "name": "Approval",
      "type": "event"
    },
    {
      "anonymous": false,
      "inputs": [
        {
          "indexed": true,
          "internalType": "address",
          "name": "owner",
          "type": "address"
        },
        {
          "indexed": true,
          "internalType": "address",
          "name": "operator",
          "type": "address"
        },
        {
          "indexed": false,
          "internalType": "bool",
          "name": "approved",
          "type": "bool"
        }
      ],
      "name": "ApprovalForAll",
      "type": "event"
    },
    {
      "anonymous": false,
      "inputs": [
        {
          "indexed": true,
          "internalType": "address",
          "name": "from",
          "type": "address"
        },
        {
          "indexed": true,
          "internalType": "address",
          "name": "to",
          "type": "address"
        },
        {
          "indexed": true,
          "internalType": "uint256",
          "name": "tokenId",
          "type": "uint256"
        }
      ],
      "name": "Transfer",
      "type": "event"
    },
    {
      "inputs": [
        {
          "internalType": "uint256",
          "name": "_tokenId",
          "type": "uint256"
        }
      ],
      "name": "apeTokenTotalSupply",
      "outputs": [
        {
          "internalType": "uint256",
          "name": "_apeTokenTotalSupply",
          "type": "uint256"
        }
      ],
      "stateMutability": "view",
      "type": "function"
    },
    {
      "inputs": [
        {
          "internalType": "address",
          "name": "to",
          "type": "address"
        },
        {
          "internalType": "uint256",
          "name": "tokenId",
          "type": "uint256"
        }
      ],
      "name": "approve",
      "outputs": [],
      "stateMutability": "nonpayable",
      "type": "function"
    },
    {
      "inputs": [
        {
          "internalType": "address",
          "name": "_tokenAddress",
          "type": "address"
        },
        {
          "internalType": "uint256",
          "name": "_tokenId",
          "type": "uint256"
        }
      ],
      "name": "approveApeLend",
      "outputs": [],
      "stateMutability": "nonpayable",
      "type": "function"
    },
    {
      "inputs": [
        {
          "internalType": "address",
          "name": "_owner",
          "type": "address"
        }
      ],
      "name": "balanceOf",
      "outputs": [
        {
          "internalType": "uint256",
          "name": "",
          "type": "uint256"
        }
      ],
      "stateMutability": "view",
      "type": "function"
    },
    {
      "inputs": [
        {
          "internalType": "uint256",
          "name": "_underlyingTokenId",
          "type": "uint256"
        },
        {
          "internalType": "uint256",
          "name": "_apeTokenId",
          "type": "uint256"
        },
        {
          "internalType": "address",
          "name": "_apeLendAddress",
          "type": "address"
        },
        {
          "internalType": "address",
          "name": "_to",
          "type": "address"
        }
      ],
      "name": "borrowApeToken",
      "outputs": [],
      "stateMutability": "nonpayable",
      "type": "function"
    },
    {
      "inputs": [
        {
          "internalType": "uint256",
          "name": "_underlyingTokenId",
          "type": "uint256"
        },
        {
          "internalType": "uint256",
          "name": "_borrowingApeTokenId",
          "type": "uint256"
        }
      ],
      "name": "borrowToken",
      "outputs": [],
      "stateMutability": "payable",
      "type": "function"
    },
    {
      "inputs": [
        {
          "internalType": "uint256",
          "name": "_underlyingTokenId",
          "type": "uint256"
        }
      ],
      "name": "burnApeToken",
      "outputs": [],
      "stateMutability": "nonpayable",
      "type": "function"
    },
    {
      "inputs": [
        {
          "internalType": "uint256",
          "name": "tokenId",
          "type": "uint256"
        }
      ],
      "name": "getApproved",
      "outputs": [
        {
          "internalType": "address",
          "name": "",
          "type": "address"
        }
      ],
      "stateMutability": "view",
      "type": "function"
    },
    {
      "inputs": [
        {
          "internalType": "address",
          "name": "owner",
          "type": "address"
        },
        {
          "internalType": "address",
          "name": "operator",
          "type": "address"
        }
      ],
      "name": "isApprovedForAll",
      "outputs": [
        {
          "internalType": "bool",
          "name": "",
          "type": "bool"
        }
      ],
      "stateMutability": "view",
      "type": "function"
    },
    {
      "inputs": [
        {
          "internalType": "address",
          "name": "_tokenAddress",
          "type": "address"
        },
        {
          "internalType": "uint256",
          "name": "_tokenId",
          "type": "uint256"
        },
        {
          "internalType": "uint256",
          "name": "_apeTokenAmount",
          "type": "uint256"
        },
        {
          "internalType": "uint256",
          "name": "_apeTokenReturnWindow",
          "type": "uint256"
        }
      ],
      "name": "lendToken",
      "outputs": [],
      "stateMutability": "nonpayable",
      "type": "function"
    },
    {
      "inputs": [],
      "name": "name",
      "outputs": [
        {
          "internalType": "string",
          "name": "",
          "type": "string"
        }
      ],
      "stateMutability": "view",
      "type": "function"
    },
    {
      "inputs": [
        {
          "internalType": "address",
          "name": "",
          "type": "address"
        },
        {
          "internalType": "address",
          "name": "",
          "type": "address"
        },
        {
          "internalType": "uint256",
          "name": "",
          "type": "uint256"
        },
        {
          "internalType": "bytes",
          "name": "",
          "type": "bytes"
        }
      ],
      "name": "onERC721Received",
      "outputs": [
        {
          "internalType": "bytes4",
          "name": "",
          "type": "bytes4"
        }
      ],
      "stateMutability": "nonpayable",
      "type": "function"
    },
    {
      "inputs": [
        {
          "internalType": "address",
          "name": "operator",
          "type": "address"
        },
        {
          "internalType": "address",
          "name": "from",
          "type": "address"
        },
        {
          "internalType": "uint256",
          "name": "tokenId",
          "type": "uint256"
        },
        {
          "internalType": "bytes",
          "name": "data",
          "type": "bytes"
        }
      ],
      "name": "onERC721ReceivedToProtocol",
      "outputs": [
        {
          "internalType": "bytes4",
          "name": "",
          "type": "bytes4"
        }
      ],
      "stateMutability": "nonpayable",
      "type": "function"
    },
    {
      "inputs": [
        {
          "internalType": "uint256",
          "name": "_tokenId",
          "type": "uint256"
        }
      ],
      "name": "ownerOf",
      "outputs": [
        {
          "internalType": "address",
          "name": "",
          "type": "address"
        }
      ],
      "stateMutability": "view",
      "type": "function"
    },
    {
      "inputs": [
        {
          "internalType": "uint256",
          "name": "_tokenId",
          "type": "uint256"
        },
        {
          "internalType": "uint256",
          "name": "_apeTokenId",
          "type": "uint256"
        }
      ],
      "name": "ownerOfApeToken",
      "outputs": [
        {
          "internalType": "address",
          "name": "_apeTokenOwner",
          "type": "address"
        }
      ],
      "stateMutability": "view",
      "type": "function"
    },
    {
      "inputs": [
        {
          "internalType": "uint256",
          "name": "_tokenId",
          "type": "uint256"
        }
      ],
      "name": "pullToken",
      "outputs": [],
      "stateMutability": "nonpayable",
      "type": "function"
    },
    {
      "inputs": [
        {
          "internalType": "address",
          "name": "from",
          "type": "address"
        },
        {
          "internalType": "address",
          "name": "to",
          "type": "address"
        },
        {
          "internalType": "uint256",
          "name": "tokenId",
          "type": "uint256"
        }
      ],
      "name": "safeTransferFrom",
      "outputs": [],
      "stateMutability": "nonpayable",
      "type": "function"
    },
    {
      "inputs": [
        {
          "internalType": "address",
          "name": "from",
          "type": "address"
        },
        {
          "internalType": "address",
          "name": "to",
          "type": "address"
        },
        {
          "internalType": "uint256",
          "name": "tokenId",
          "type": "uint256"
        },
        {
          "internalType": "bytes",
          "name": "_data",
          "type": "bytes"
        }
      ],
      "name": "safeTransferFrom",
      "outputs": [],
      "stateMutability": "nonpayable",
      "type": "function"
    },
    {
      "inputs": [
        {
          "internalType": "address",
          "name": "operator",
          "type": "address"
        },
        {
          "internalType": "bool",
          "name": "approved",
          "type": "bool"
        }
      ],
      "name": "setApprovalForAll",
      "outputs": [],
      "stateMutability": "nonpayable",
      "type": "function"
    },
    {
      "inputs": [
        {
          "internalType": "bytes4",
          "name": "interfaceId",
          "type": "bytes4"
        }
      ],
      "name": "supportsInterface",
      "outputs": [
        {
          "internalType": "bool",
          "name": "",
          "type": "bool"
        }
      ],
      "stateMutability": "view",
      "type": "function"
    },
    {
      "inputs": [],
      "name": "symbol",
      "outputs": [
        {
          "internalType": "string",
          "name": "",
          "type": "string"
        }
      ],
      "stateMutability": "view",
      "type": "function"
    },
    {
      "inputs": [
        {
          "internalType": "uint256",
          "name": "tokenId",
          "type": "uint256"
        }
      ],
      "name": "tokenURI",
      "outputs": [
        {
          "internalType": "string",
          "name": "",
          "type": "string"
        }
      ],
      "stateMutability": "view",
      "type": "function"
    },
    {
      "inputs": [
        {
          "internalType": "address",
          "name": "from",
          "type": "address"
        },
        {
          "internalType": "address",
          "name": "to",
          "type": "address"
        },
        {
          "internalType": "uint256",
          "name": "tokenId",
          "type": "uint256"
        }
      ],
      "name": "transferFrom",
      "outputs": [],
      "stateMutability": "nonpayable",
      "type": "function"
    },
    {
      "stateMutability": "payable",
      "type": "receive"
    }
  ],
  "bytecode": "0x60806040523480156200001157600080fd5b506040518060400160405280600781526020017f4170654c656e64000000000000000000000000000000000000000000000000008152506040518060400160405280600381526020017f4150450000000000000000000000000000000000000000000000000000000000815250816000908051906020019062000096929190620000f9565b508060019080519060200190620000af929190620000f9565b50505033600c60006101000a81548173ffffffffffffffffffffffffffffffffffffffff021916908373ffffffffffffffffffffffffffffffffffffffff1602179055506200020e565b8280546200010790620001a9565b90600052602060002090601f0160209004810192826200012b576000855562000177565b82601f106200014657805160ff191683800117855562000177565b8280016001018555821562000177579182015b828111156200017657825182559160200191906001019062000159565b5b5090506200018691906200018a565b5090565b5b80821115620001a55760008160009055506001016200018b565b5090565b60006002820490506001821680620001c257607f821691505b60208210811415620001d957620001d8620001df565b5b50919050565b7f4e487b7100000000000000000000000000000000000000000000000000000000600052602260045260246000fd5b614fc9806200021e6000396000f3fe608060405260043610620001635760003560e01c80634effdda011620000c757806395d89b41116200007957806395d89b411462000522578063a22cb4651462000552578063b88d4fde1462000580578063c87b56dd14620005ae578063e985e9c514620005f2578063f87a419b1462000636576200016b565b80634effdda014620003b65780636352211e14620003fa5780636b0e2f10146200043e57806370a0823114620004825780637b05d58814620004c65780638d96156b14620004f4576200016b565b80630ff225c411620001215780630ff225c41462000276578063150b7a0214620002a45780631c576a7014620002e857806323b872dd146200031657806337c51b18146200034457806342842e0e1462000388576200016b565b806301ffc9a7146200017057806306fdde0314620001b4578063081812fc14620001e457806308ec59271462000228578063095ea7b31462000248576200016b565b366200016b57005b600080fd5b3480156200017d57600080fd5b506200019c6004803603810190620001969190620027d3565b62000664565b604051620001ab919062002db9565b60405180910390f35b348015620001c157600080fd5b50620001cc6200074a565b604051620001db919062002df3565b60405180910390f35b348015620001f157600080fd5b506200021060048036038101906200020a919062002837565b620007e4565b6040516200021f919062002cde565b60405180910390f35b62000246600480360381019062000240919062002869565b6200086e565b005b3480156200025557600080fd5b506200027460048036038101906200026e91906200271a565b62000922565b005b3480156200028357600080fd5b50620002a260048036038101906200029c91906200271a565b62000a4b565b005b348015620002b157600080fd5b50620002d06004803603810190620002ca919062002642565b62000b23565b604051620002df919062002dd6565b60405180910390f35b348015620002f557600080fd5b506200031460048036038101906200030e9190620028b0565b62000b37565b005b3480156200032357600080fd5b506200034260048036038101906200033c9190620025e6565b62000cd9565b005b3480156200035157600080fd5b506200037060048036038101906200036a919062002869565b62000d42565b6040516200037f919062002cde565b60405180910390f35b3480156200039557600080fd5b50620003b46004803603810190620003ae9190620025e6565b62000d58565b005b348015620003c357600080fd5b50620003e26004803603810190620003dc919062002642565b62000d7a565b604051620003f1919062002dd6565b60405180910390f35b3480156200040757600080fd5b5062000426600480360381019062000420919062002837565b62000d94565b60405162000435919062002cde565b60405180910390f35b3480156200044b57600080fd5b506200046a600480360381019062000464919062002837565b62000da8565b60405162000479919062003059565b60405180910390f35b3480156200048f57600080fd5b50620004ae6004803603810190620004a891906200253b565b62000dbc565b604051620004bd919062003059565b60405180910390f35b348015620004d357600080fd5b50620004f26004803603810190620004ec919062002837565b62000dd0565b005b3480156200050157600080fd5b506200052060048036038101906200051a919062002761565b62000f4d565b005b3480156200052f57600080fd5b506200053a62001200565b60405162000549919062002df3565b60405180910390f35b3480156200055f57600080fd5b506200057e6004803603810190620005789190620026d3565b6200129a565b005b3480156200058d57600080fd5b50620005ac6004803603810190620005a6919062002642565b62001426565b005b348015620005bb57600080fd5b50620005da6004803603810190620005d4919062002837565b62001491565b604051620005e9919062002df3565b60405180910390f35b348015620005ff57600080fd5b506200061e60048036038101906200061891906200259f565b62001545565b6040516200062d919062002db9565b60405180910390f35b3480156200064357600080fd5b506200066260048036038101906200065c919062002837565b620015d9565b005b60007f80ac58cd000000000000000000000000000000000000000000000000000000007bffffffffffffffffffffffffffffffffffffffffffffffffffffffff1916827bffffffffffffffffffffffffffffffffffffffffffffffffffffffff191614806200073057507f5b5e139f000000000000000000000000000000000000000000000000000000007bffffffffffffffffffffffffffffffffffffffffffffffffffffffff1916827bffffffffffffffffffffffffffffffffffffffffffffffffffffffff1916145b80620007435750620007428262001620565b5b9050919050565b6060600080546200075b9062003304565b80601f0160208091040260200160405190810160405280929190818152602001828054620007899062003304565b8015620007da5780601f10620007ae57610100808354040283529160200191620007da565b820191906000526020600020905b815481529060010190602001808311620007bc57829003601f168201915b5050505050905090565b6000620007f1826200168a565b62000833576040517f08c379a00000000000000000000000000000000000000000000000000000000081526004016200082a9062002f6b565b60405180910390fd5b6004600083815260200190815260200160002060009054906101000a900473ffffffffffffffffffffffffffffffffffffffff169050919050565b6000309050600033905060011515600e60003373ffffffffffffffffffffffffffffffffffffffff1673ffffffffffffffffffffffffffffffffffffffff16815260200190815260200160002060009054906101000a900460ff161515146200090e576040517f08c379a0000000000000000000000000000000000000000000000000000000008152600401620009059062002f49565b60405180910390fd5b6200091c8484848462000b37565b50505050565b60006200092f82620016f6565b90508073ffffffffffffffffffffffffffffffffffffffff168373ffffffffffffffffffffffffffffffffffffffff161415620009a3576040517f08c379a00000000000000000000000000000000000000000000000000000000081526004016200099a9062002ff3565b60405180910390fd5b8073ffffffffffffffffffffffffffffffffffffffff16620009c4620017ab565b73ffffffffffffffffffffffffffffffffffffffff161480620009f85750620009f781620009f1620017ab565b62001545565b5b62000a3a576040517f08c379a000000000000000000000000000000000000000000000000000000000815260040162000a319062002ec1565b60405180910390fd5b62000a468383620017b3565b505050565b81600b60006101000a81548173ffffffffffffffffffffffffffffffffffffffff021916908373ffffffffffffffffffffffffffffffffffffffff160217905550600b60009054906101000a900473ffffffffffffffffffffffffffffffffffffffff1673ffffffffffffffffffffffffffffffffffffffff1663095ea7b330836040518363ffffffff1660e01b815260040162000aeb92919062002d8c565b600060405180830381600087803b15801562000b0657600080fd5b505af115801562000b1b573d6000803e3d6000fd5b505050505050565b600063150b7a0260e01b9050949350505050565b6001151562000b488585856200186e565b15151462000b8d576040517f08c379a000000000000000000000000000000000000000000000000000000000815260040162000b849062002f05565b60405180910390fd5b60006007600085815260200190815260200160002060006101000a81548160ff0219169083151502179055506009544262000bc9919062003118565b60098190555060006006600086815260200190815260200160002060009054906101000a900473ffffffffffffffffffffffffffffffffffffffff1690506000819050336008600087815260200190815260200160002060006101000a81548173ffffffffffffffffffffffffffffffffffffffff021916908373ffffffffffffffffffffffffffffffffffffffff1602179055508073ffffffffffffffffffffffffffffffffffffffff166342842e0e8585886040518463ffffffff1660e01b815260040162000c9d9392919062002cfb565b600060405180830381600087803b15801562000cb857600080fd5b505af115801562000ccd573d6000803e3d6000fd5b50505050505050505050565b62000cee62000ce7620017ab565b8262001990565b62000d30576040517f08c379a000000000000000000000000000000000000000000000000000000000815260040162000d279062003015565b60405180910390fd5b62000d3d83838362001a7b565b505050565b600062000d50838362001ce7565b905092915050565b62000d758383836040518060200160405280600081525062001426565b505050565b600062000d8a8585858562000b23565b9050949350505050565b600062000da182620016f6565b9050919050565b600062000db58262001db3565b9050919050565b600062000dc98262001dd0565b9050919050565b600954421162000e17576040517f08c379a000000000000000000000000000000000000000000000000000000000815260040162000e0e9062002e39565b60405180910390fd5b60006006600083815260200190815260200160002060009054906101000a900473ffffffffffffffffffffffffffffffffffffffff16905060008190506000600a60008581526020019081526020016000205490506000600a60008681526020019081526020016000208190555060005b8181101562000f4657600060018262000ea2919062003118565b6103e88762000eb29190620031ad565b62000ebe919062003118565b90508373ffffffffffffffffffffffffffffffffffffffff16639b1f9e74826040518263ffffffff1660e01b815260040162000efb919062003059565b600060405180830381600087803b15801562000f1657600080fd5b505af115801562000f2b573d6000803e3d6000fd5b5050505050808062000f3d9062003370565b91505062000e88565b5050505050565b83600b60006101000a81548173ffffffffffffffffffffffffffffffffffffffff021916908373ffffffffffffffffffffffffffffffffffffffff160217905550600b60009054906101000a900473ffffffffffffffffffffffffffffffffffffffff1673ffffffffffffffffffffffffffffffffffffffff16636352211e846040518263ffffffff1660e01b815260040162000feb919062003059565b60206040518083038186803b1580156200100457600080fd5b505afa15801562001019573d6000803e3d6000fd5b505050506040513d601f19601f820116820180604052508101906200103f91906200256d565b73ffffffffffffffffffffffffffffffffffffffff163373ffffffffffffffffffffffffffffffffffffffff1614620010af576040517f08c379a0000000000000000000000000000000000000000000000000000000008152600401620010a69062003037565b60405180910390fd5b6001600d600085815260200190815260200160002060006101000a81548160ff021916908315150217905550620010f83033856040518060200160405280600081525062000d7a565b5060003090506001600e60003373ffffffffffffffffffffffffffffffffffffffff1673ffffffffffffffffffffffffffffffffffffffff16815260200190815260200160002060006101000a81548160ff021916908315150217905550600b60009054906101000a900473ffffffffffffffffffffffffffffffffffffffff1673ffffffffffffffffffffffffffffffffffffffff166342842e0e3330876040518463ffffffff1660e01b8152600401620011b79392919062002cfb565b600060405180830381600087803b158015620011d257600080fd5b505af1158015620011e7573d6000803e3d6000fd5b50505050620011f98482858562001e8b565b5050505050565b606060018054620012119062003304565b80601f01602080910402602001604051908101604052809291908181526020018280546200123f9062003304565b8015620012905780601f10620012645761010080835404028352916020019162001290565b820191906000526020600020905b8154815290600101906020018083116200127257829003601f168201915b5050505050905090565b620012a4620017ab565b73ffffffffffffffffffffffffffffffffffffffff168273ffffffffffffffffffffffffffffffffffffffff16141562001315576040517f08c379a00000000000000000000000000000000000000000000000000000000081526004016200130c9062002e7d565b60405180910390fd5b806005600062001324620017ab565b73ffffffffffffffffffffffffffffffffffffffff1673ffffffffffffffffffffffffffffffffffffffff16815260200190815260200160002060008473ffffffffffffffffffffffffffffffffffffffff1673ffffffffffffffffffffffffffffffffffffffff16815260200190815260200160002060006101000a81548160ff0219169083151502179055508173ffffffffffffffffffffffffffffffffffffffff16620013d3620017ab565b73ffffffffffffffffffffffffffffffffffffffff167f17307eab39ab6107e8899845ad3d59bd9653f200f220920489ca2b5937696c31836040516200141a919062002db9565b60405180910390a35050565b6200143b62001434620017ab565b8362001990565b6200147d576040517f08c379a0000000000000000000000000000000000000000000000000000000008152600401620014749062003015565b60405180910390fd5b6200148b8484848462002070565b50505050565b60606200149e826200168a565b620014e0576040517f08c379a0000000000000000000000000000000000000000000000000000000008152600401620014d79062002fd1565b60405180910390fd5b6000620014ec620020d3565b905060008151116200150e57604051806020016040528060008152506200153d565b806200151a84620020ea565b6040516020016200152d92919062002cb6565b6040516020818303038152906040525b915050919050565b6000600560008473ffffffffffffffffffffffffffffffffffffffff1673ffffffffffffffffffffffffffffffffffffffff16815260200190815260200160002060008373ffffffffffffffffffffffffffffffffffffffff1673ffffffffffffffffffffffffffffffffffffffff16815260200190815260200160002060009054906101000a900460ff16905092915050565b6000600d600083815260200190815260200160002060006101000a81548160ff021916908315150217905550620016108162000dd0565b6200161d30338362000cd9565b50565b60007f01ffc9a7000000000000000000000000000000000000000000000000000000007bffffffffffffffffffffffffffffffffffffffffffffffffffffffff1916827bffffffffffffffffffffffffffffffffffffffffffffffffffffffff1916149050919050565b60008073ffffffffffffffffffffffffffffffffffffffff166002600084815260200190815260200160002060009054906101000a900473ffffffffffffffffffffffffffffffffffffffff1673ffffffffffffffffffffffffffffffffffffffff1614159050919050565b6000806002600084815260200190815260200160002060009054906101000a900473ffffffffffffffffffffffffffffffffffffffff169050600073ffffffffffffffffffffffffffffffffffffffff168173ffffffffffffffffffffffffffffffffffffffff161415620017a2576040517f08c379a0000000000000000000000000000000000000000000000000000000008152600401620017999062002f27565b60405180910390fd5b80915050919050565b600033905090565b816004600083815260200190815260200160002060006101000a81548173ffffffffffffffffffffffffffffffffffffffff021916908373ffffffffffffffffffffffffffffffffffffffff160217905550808273ffffffffffffffffffffffffffffffffffffffff166200182883620016f6565b73ffffffffffffffffffffffffffffffffffffffff167f8c5be1e5ebec7d5bd14f71427d1e84f3dd0314c0f7b2291e5b200ac8c7c3b92560405160405180910390a45050565b6000806006600086815260200190815260200160002060009054906101000a900473ffffffffffffffffffffffffffffffffffffffff169050600081905060008173ffffffffffffffffffffffffffffffffffffffff1663025e7c27876040518263ffffffff1660e01b8152600401620018e9919062003059565b60206040518083038186803b1580156200190257600080fd5b505afa15801562001917573d6000803e3d6000fd5b505050506040513d601f19601f820116820180604052508101906200193d91906200256d565b90508473ffffffffffffffffffffffffffffffffffffffff168173ffffffffffffffffffffffffffffffffffffffff16141562001981576001935050505062001989565b600093505050505b9392505050565b60006200199d826200168a565b620019df576040517f08c379a0000000000000000000000000000000000000000000000000000000008152600401620019d69062002e9f565b60405180910390fd5b6000620019ec83620016f6565b90508073ffffffffffffffffffffffffffffffffffffffff168473ffffffffffffffffffffffffffffffffffffffff16148062001a5e57508373ffffffffffffffffffffffffffffffffffffffff1662001a4684620007e4565b73ffffffffffffffffffffffffffffffffffffffff16145b8062001a72575062001a71818562001545565b5b91505092915050565b8273ffffffffffffffffffffffffffffffffffffffff1662001a9d82620016f6565b73ffffffffffffffffffffffffffffffffffffffff161462001af6576040517f08c379a000000000000000000000000000000000000000000000000000000000815260040162001aed9062002faf565b60405180910390fd5b600073ffffffffffffffffffffffffffffffffffffffff168273ffffffffffffffffffffffffffffffffffffffff16141562001b69576040517f08c379a000000000000000000000000000000000000000000000000000000000815260040162001b609062002e5b565b60405180910390fd5b62001b7683838362002264565b62001b83600082620017b3565b6001600360008573ffffffffffffffffffffffffffffffffffffffff1673ffffffffffffffffffffffffffffffffffffffff168152602001908152602001600020600082825462001bd591906200320e565b925050819055506001600360008473ffffffffffffffffffffffffffffffffffffffff1673ffffffffffffffffffffffffffffffffffffffff168152602001908152602001600020600082825462001c2e919062003118565b92505081905550816002600083815260200190815260200160002060006101000a81548173ffffffffffffffffffffffffffffffffffffffff021916908373ffffffffffffffffffffffffffffffffffffffff160217905550808273ffffffffffffffffffffffffffffffffffffffff168473ffffffffffffffffffffffffffffffffffffffff167fddf252ad1be2c89b69c2b068fc378daa952ba7f163c4a11628f55a4df523b3ef60405160405180910390a4505050565b60006006600084815260200190815260200160002060009054906101000a900473ffffffffffffffffffffffffffffffffffffffff1673ffffffffffffffffffffffffffffffffffffffff16636352211e836040518263ffffffff1660e01b815260040162001d57919062003059565b60206040518083038186803b15801562001d7057600080fd5b505afa15801562001d85573d6000803e3d6000fd5b505050506040513d601f19601f8201168201806040525081019062001dab91906200256d565b905092915050565b6000600a6000838152602001908152602001600020549050919050565b60008073ffffffffffffffffffffffffffffffffffffffff168273ffffffffffffffffffffffffffffffffffffffff16141562001e44576040517f08c379a000000000000000000000000000000000000000000000000000000000815260040162001e3b9062002ee3565b60405180910390fd5b600360008373ffffffffffffffffffffffffffffffffffffffff1673ffffffffffffffffffffffffffffffffffffffff168152602001908152602001600020549050919050565b6019821062001ed1576040517f08c379a000000000000000000000000000000000000000000000000000000000815260040162001ec89062002f8d565b60405180910390fd5b804262001edf919062003118565b60098190555060008460405162001ef69062002425565b62001f02919062003059565b604051809103906000f08015801562001f1f573d6000803e3d6000fd5b5090506000819050806006600088815260200190815260200160002060006101000a81548173ffffffffffffffffffffffffffffffffffffffff021916908373ffffffffffffffffffffffffffffffffffffffff16021790555060005b848110156200206757600060018262001f96919062003118565b6103e88962001fa69190620031ad565b62001fb2919062003118565b9050600a6000898152602001908152602001600020600081548092919062001fda9062003370565b91905055508373ffffffffffffffffffffffffffffffffffffffff1663b3e1c71888836040518363ffffffff1660e01b81526004016200201c92919062002d8c565b600060405180830381600087803b1580156200203757600080fd5b505af11580156200204c573d6000803e3d6000fd5b505050505080806200205e9062003370565b91505062001f7c565b50505050505050565b6200207d84848462001a7b565b6200208b8484848462002269565b620020cd576040517f08c379a0000000000000000000000000000000000000000000000000000000008152600401620020c49062002e17565b60405180910390fd5b50505050565b606060405180602001604052806000815250905090565b6060600082141562002134576040518060400160405280600181526020017f300000000000000000000000000000000000000000000000000000000000000081525090506200225f565b600082905060005b600082146200216c578080620021529062003370565b915050600a8262002164919062003175565b91506200213c565b60008167ffffffffffffffff8111156200218b576200218a620034b2565b5b6040519080825280601f01601f191660200182016040528015620021be5781602001600182028036833780820191505090505b5090505b600085146200225857600182620021da91906200320e565b9150600a85620021eb9190620033be565b6030620021f9919062003118565b60f81b81838151811062002212576200221162003483565b5b60200101907effffffffffffffffffffffffffffffffffffffffffffffffffffffffffffff1916908160001a905350600a8562002250919062003175565b9450620021c2565b8093505050505b919050565b505050565b60006200228c8473ffffffffffffffffffffffffffffffffffffffff1662002412565b1562002405578373ffffffffffffffffffffffffffffffffffffffff1663150b7a02620022b8620017ab565b8786866040518563ffffffff1660e01b8152600401620022dc949392919062002d38565b602060405180830381600087803b158015620022f757600080fd5b505af19250505080156200232b57506040513d601f19601f8201168201806040525081019062002328919062002805565b60015b620023b4573d80600081146200235e576040519150601f19603f3d011682016040523d82523d6000602084013e62002363565b606091505b50600081511415620023ac576040517f08c379a0000000000000000000000000000000000000000000000000000000008152600401620023a39062002e17565b60405180910390fd5b805181602001fd5b63150b7a0260e01b7bffffffffffffffffffffffffffffffffffffffffffffffffffffffff1916817bffffffffffffffffffffffffffffffffffffffffffffffffffffffff1916149150506200240a565b600190505b949350505050565b600080823b905060008111915050919050565b6114e68062003aae83390190565b60006200244a62002444846200309f565b62003076565b905082815260208101848484011115620024695762002468620034e6565b5b62002476848285620032bf565b509392505050565b6000813590506200248f8162003a45565b92915050565b600081519050620024a68162003a45565b92915050565b600081359050620024bd8162003a5f565b92915050565b600081359050620024d48162003a79565b92915050565b600081519050620024eb8162003a79565b92915050565b600082601f830112620025095762002508620034e1565b5b81356200251b84826020860162002433565b91505092915050565b600081359050620025358162003a93565b92915050565b600060208284031215620025545762002553620034f0565b5b600062002564848285016200247e565b91505092915050565b600060208284031215620025865762002585620034f0565b5b6000620025968482850162002495565b91505092915050565b60008060408385031215620025b957620025b8620034f0565b5b6000620025c9858286016200247e565b9250506020620025dc858286016200247e565b9150509250929050565b600080600060608486031215620026025762002601620034f0565b5b600062002612868287016200247e565b935050602062002625868287016200247e565b9250506040620026388682870162002524565b9150509250925092565b600080600080608085870312156200265f576200265e620034f0565b5b60006200266f878288016200247e565b945050602062002682878288016200247e565b9350506040620026958782880162002524565b925050606085013567ffffffffffffffff811115620026b957620026b8620034eb565b5b620026c787828801620024f1565b91505092959194509250565b60008060408385031215620026ed57620026ec620034f0565b5b6000620026fd858286016200247e565b92505060206200271085828601620024ac565b9150509250929050565b60008060408385031215620027345762002733620034f0565b5b600062002744858286016200247e565b9250506020620027578582860162002524565b9150509250929050565b600080600080608085870312156200277e576200277d620034f0565b5b60006200278e878288016200247e565b9450506020620027a18782880162002524565b9350506040620027b48782880162002524565b9250506060620027c78782880162002524565b91505092959194509250565b600060208284031215620027ec57620027eb620034f0565b5b6000620027fc84828501620024c3565b91505092915050565b6000602082840312156200281e576200281d620034f0565b5b60006200282e84828501620024da565b91505092915050565b60006020828403121562002850576200284f620034f0565b5b6000620028608482850162002524565b91505092915050565b60008060408385031215620028835762002882620034f0565b5b6000620028938582860162002524565b9250506020620028a68582860162002524565b9150509250929050565b60008060008060808587031215620028cd57620028cc620034f0565b5b6000620028dd8782880162002524565b9450506020620028f08782880162002524565b935050604062002903878288016200247e565b925050606062002916878288016200247e565b91505092959194509250565b6200292d8162003249565b82525050565b6200293e816200325d565b82525050565b6200294f8162003269565b82525050565b60006200296282620030d5565b6200296e8185620030eb565b935062002980818560208601620032ce565b6200298b81620034f5565b840191505092915050565b6000620029a382620030e0565b620029af8185620030fc565b9350620029c1818560208601620032ce565b620029cc81620034f5565b840191505092915050565b6000620029e482620030e0565b620029f081856200310d565b935062002a02818560208601620032ce565b80840191505092915050565b600062002a1d603283620030fc565b915062002a2a8262003506565b604082019050919050565b600062002a44604683620030fc565b915062002a518262003555565b606082019050919050565b600062002a6b602483620030fc565b915062002a7882620035ca565b604082019050919050565b600062002a92601983620030fc565b915062002a9f8262003619565b602082019050919050565b600062002ab9602c83620030fc565b915062002ac68262003642565b604082019050919050565b600062002ae0603883620030fc565b915062002aed8262003691565b604082019050919050565b600062002b07602a83620030fc565b915062002b1482620036e0565b604082019050919050565b600062002b2e603683620030fc565b915062002b3b826200372f565b604082019050919050565b600062002b55602983620030fc565b915062002b62826200377e565b604082019050919050565b600062002b7c603183620030fc565b915062002b8982620037cd565b604082019050919050565b600062002ba3602c83620030fc565b915062002bb0826200381c565b604082019050919050565b600062002bca603a83620030fc565b915062002bd7826200386b565b604082019050919050565b600062002bf1602983620030fc565b915062002bfe82620038ba565b604082019050919050565b600062002c18602f83620030fc565b915062002c258262003909565b604082019050919050565b600062002c3f602183620030fc565b915062002c4c8262003958565b604082019050919050565b600062002c66603183620030fc565b915062002c7382620039a7565b604082019050919050565b600062002c8d602c83620030fc565b915062002c9a82620039f6565b604082019050919050565b62002cb081620032b5565b82525050565b600062002cc48285620029d7565b915062002cd28284620029d7565b91508190509392505050565b600060208201905062002cf5600083018462002922565b92915050565b600060608201905062002d12600083018662002922565b62002d21602083018562002922565b62002d30604083018462002ca5565b949350505050565b600060808201905062002d4f600083018762002922565b62002d5e602083018662002922565b62002d6d604083018562002ca5565b818103606083015262002d81818462002955565b905095945050505050565b600060408201905062002da3600083018562002922565b62002db2602083018462002ca5565b9392505050565b600060208201905062002dd0600083018462002933565b92915050565b600060208201905062002ded600083018462002944565b92915050565b6000602082019050818103600083015262002e0f818462002996565b905092915050565b6000602082019050818103600083015262002e328162002a0e565b9050919050565b6000602082019050818103600083015262002e548162002a35565b9050919050565b6000602082019050818103600083015262002e768162002a5c565b9050919050565b6000602082019050818103600083015262002e988162002a83565b9050919050565b6000602082019050818103600083015262002eba8162002aaa565b9050919050565b6000602082019050818103600083015262002edc8162002ad1565b9050919050565b6000602082019050818103600083015262002efe8162002af8565b9050919050565b6000602082019050818103600083015262002f208162002b1f565b9050919050565b6000602082019050818103600083015262002f428162002b46565b9050919050565b6000602082019050818103600083015262002f648162002b6d565b9050919050565b6000602082019050818103600083015262002f868162002b94565b9050919050565b6000602082019050818103600083015262002fa88162002bbb565b9050919050565b6000602082019050818103600083015262002fca8162002be2565b9050919050565b6000602082019050818103600083015262002fec8162002c09565b9050919050565b600060208201905081810360008301526200300e8162002c30565b9050919050565b60006020820190508181036000830152620030308162002c57565b9050919050565b60006020820190508181036000830152620030528162002c7e565b9050919050565b600060208201905062003070600083018462002ca5565b92915050565b60006200308262003095565b90506200309082826200333a565b919050565b6000604051905090565b600067ffffffffffffffff821115620030bd57620030bc620034b2565b5b620030c882620034f5565b9050602081019050919050565b600081519050919050565b600081519050919050565b600082825260208201905092915050565b600082825260208201905092915050565b600081905092915050565b60006200312582620032b5565b91506200313283620032b5565b9250827fffffffffffffffffffffffffffffffffffffffffffffffffffffffffffffffff038211156200316a5762003169620033f6565b5b828201905092915050565b60006200318282620032b5565b91506200318f83620032b5565b925082620031a257620031a162003425565b5b828204905092915050565b6000620031ba82620032b5565b9150620031c783620032b5565b9250817fffffffffffffffffffffffffffffffffffffffffffffffffffffffffffffffff0483118215151615620032035762003202620033f6565b5b828202905092915050565b60006200321b82620032b5565b91506200322883620032b5565b9250828210156200323e576200323d620033f6565b5b828203905092915050565b6000620032568262003295565b9050919050565b60008115159050919050565b60007fffffffff0000000000000000000000000000000000000000000000000000000082169050919050565b600073ffffffffffffffffffffffffffffffffffffffff82169050919050565b6000819050919050565b82818337600083830152505050565b60005b83811015620032ee578082015181840152602081019050620032d1565b83811115620032fe576000848401525b50505050565b600060028204905060018216806200331d57607f821691505b6020821081141562003334576200333362003454565b5b50919050565b6200334582620034f5565b810181811067ffffffffffffffff82111715620033675762003366620034b2565b5b80604052505050565b60006200337d82620032b5565b91507fffffffffffffffffffffffffffffffffffffffffffffffffffffffffffffffff821415620033b357620033b2620033f6565b5b600182019050919050565b6000620033cb82620032b5565b9150620033d883620032b5565b925082620033eb57620033ea62003425565b5b828206905092915050565b7f4e487b7100000000000000000000000000000000000000000000000000000000600052601160045260246000fd5b7f4e487b7100000000000000000000000000000000000000000000000000000000600052601260045260246000fd5b7f4e487b7100000000000000000000000000000000000000000000000000000000600052602260045260246000fd5b7f4e487b7100000000000000000000000000000000000000000000000000000000600052603260045260246000fd5b7f4e487b7100000000000000000000000000000000000000000000000000000000600052604160045260246000fd5b600080fd5b600080fd5b600080fd5b600080fd5b6000601f19601f8301169050919050565b7f4552433732313a207472616e7366657220746f206e6f6e20455243373231526560008201527f63656976657220696d706c656d656e7465720000000000000000000000000000602082015250565b7f417065546f6b656e466163746f72793a20436f72726573706f6e64696e67204160008201527f7065546f6b656e732063616e6e6f74206265206275726e65642061742074686960208201527f732074696d650000000000000000000000000000000000000000000000000000604082015250565b7f4552433732313a207472616e7366657220746f20746865207a65726f2061646460008201527f7265737300000000000000000000000000000000000000000000000000000000602082015250565b7f4552433732313a20617070726f766520746f2063616c6c657200000000000000600082015250565b7f4552433732313a206f70657261746f7220717565727920666f72206e6f6e657860008201527f697374656e7420746f6b656e0000000000000000000000000000000000000000602082015250565b7f4552433732313a20617070726f76652063616c6c6572206973206e6f74206f7760008201527f6e6572206e6f7220617070726f76656420666f7220616c6c0000000000000000602082015250565b7f4552433732313a2062616c616e636520717565727920666f7220746865207a6560008201527f726f206164647265737300000000000000000000000000000000000000000000602082015250565b7f417065546f6b656e466163746f72793a205468697320746f6b656e206973206e60008201527f6f7420617661696c61626c6520746f20626f72726f7700000000000000000000602082015250565b7f4552433732313a206f776e657220717565727920666f72206e6f6e657869737460008201527f656e7420746f6b656e0000000000000000000000000000000000000000000000602082015250565b7f4170654c656e643a20596f752068617665206e6f742070726f7669646564206160008201527f20746f6b656e20746f204170654c656e64000000000000000000000000000000602082015250565b7f4552433732313a20617070726f76656420717565727920666f72206e6f6e657860008201527f697374656e7420746f6b656e0000000000000000000000000000000000000000602082015250565b7f417065546f6b656e3a20596f752063616e6e6f74206d696e74206d6f7265207460008201527f68616e20323520617065546f6b656e732070657220746f6b656e000000000000602082015250565b7f4552433732313a207472616e73666572206f6620746f6b656e2074686174206960008201527f73206e6f74206f776e0000000000000000000000000000000000000000000000602082015250565b7f4552433732314d657461646174613a2055524920717565727920666f72206e6f60008201527f6e6578697374656e7420746f6b656e0000000000000000000000000000000000602082015250565b7f4552433732313a20617070726f76616c20746f2063757272656e74206f776e6560008201527f7200000000000000000000000000000000000000000000000000000000000000602082015250565b7f4552433732313a207472616e736665722063616c6c6572206973206e6f74206f60008201527f776e6572206e6f7220617070726f766564000000000000000000000000000000602082015250565b7f4170654c656e643a20596f7520617265206e6f7420746865206f776e6572206f60008201527f66207468697320746f6b656e0000000000000000000000000000000000000000602082015250565b62003a508162003249565b811462003a5c57600080fd5b50565b62003a6a816200325d565b811462003a7657600080fd5b50565b62003a848162003269565b811462003a9057600080fd5b50565b62003a9e81620032b5565b811462003aaa57600080fd5b5056fe60806040523480156200001157600080fd5b50604051620014e6380380620014e683398181016040528101906200003791906200005c565b8060008190555050620000b7565b60008151905062000056816200009d565b92915050565b60006020828403121562000075576200007462000098565b5b6000620000858482850162000045565b91505092915050565b6000819050919050565b600080fd5b620000a8816200008e565b8114620000b457600080fd5b50565b61141f80620000c76000396000f3fe608060405234801561001057600080fd5b50600436106100885760003560e01c80636a4f832b1161005b5780636a4f832b146101395780639b1f9e7414610155578063b3e1c71814610171578063b88d4fde1461018d57610088565b8063025e7c271461008d578063081812fc146100bd57806342842e0e146100ed5780636352211e14610109575b600080fd5b6100a760048036038101906100a29190610d0a565b6101a9565b6040516100b49190610e5e565b60405180910390f35b6100d760048036038101906100d29190610d0a565b6101e6565b6040516100e49190610e5e565b60405180910390f35b61010760048036038101906101029190610b85565b61026b565b005b610123600480360381019061011e9190610d0a565b61028b565b6040516101309190610e5e565b60405180910390f35b610153600480360381019061014e9190610c9b565b61033d565b005b61016f600480360381019061016a9190610d0a565b61034c565b005b61018b60048036038101906101869190610c5b565b610450565b005b6101a760048036038101906101a29190610bd8565b61046e565b005b60006002600083815260200190815260200160002060009054906101000a900473ffffffffffffffffffffffffffffffffffffffff169050919050565b60006101f1826104d0565b610230576040517f08c379a000000000000000000000000000000000000000000000000000000000815260040161022790610f39565b60405180910390fd5b6003600083815260200190815260200160002060009054906101000a900473ffffffffffffffffffffffffffffffffffffffff169050919050565b6102868383836040518060200160405280600081525061046e565b505050565b6000806002600084815260200190815260200160002060009054906101000a900473ffffffffffffffffffffffffffffffffffffffff169050600073ffffffffffffffffffffffffffffffffffffffff168173ffffffffffffffffffffffffffffffffffffffff161415610334576040517f08c379a000000000000000000000000000000000000000000000000000000000815260040161032b90610eb9565b60405180910390fd5b80915050919050565b610347838361053c565b505050565b60006103578261028b565b90506103646000836106fd565b60018060008373ffffffffffffffffffffffffffffffffffffffff1673ffffffffffffffffffffffffffffffffffffffff16815260200190815260200160002060008282546103b39190611036565b925050819055506002600083815260200190815260200160002060006101000a81549073ffffffffffffffffffffffffffffffffffffffff021916905581600073ffffffffffffffffffffffffffffffffffffffff168273ffffffffffffffffffffffffffffffffffffffff167fddf252ad1be2c89b69c2b068fc378daa952ba7f163c4a11628f55a4df523b3ef60405160405180910390a45050565b61046a82826040518060200160405280600081525061033d565b5050565b61047f6104796107b6565b836107be565b6104be576040517f08c379a00000000000000000000000000000000000000000000000000000000081526004016104b590610e79565b60405180910390fd5b6104ca8484848461088b565b50505050565b60008073ffffffffffffffffffffffffffffffffffffffff166002600084815260200190815260200160002060009054906101000a900473ffffffffffffffffffffffffffffffffffffffff1673ffffffffffffffffffffffffffffffffffffffff1614159050919050565b600073ffffffffffffffffffffffffffffffffffffffff168273ffffffffffffffffffffffffffffffffffffffff1614156105ac576040517f08c379a00000000000000000000000000000000000000000000000000000000081526004016105a390610e99565b60405180910390fd5b6105b5816104d0565b156105f5576040517f08c379a00000000000000000000000000000000000000000000000000000000081526004016105ec90610f19565b60405180910390fd5b60018060008473ffffffffffffffffffffffffffffffffffffffff1673ffffffffffffffffffffffffffffffffffffffff16815260200190815260200160002060008282546106449190610fe0565b92505081905550816002600083815260200190815260200160002060006101000a81548173ffffffffffffffffffffffffffffffffffffffff021916908373ffffffffffffffffffffffffffffffffffffffff160217905550808273ffffffffffffffffffffffffffffffffffffffff16600073ffffffffffffffffffffffffffffffffffffffff167fddf252ad1be2c89b69c2b068fc378daa952ba7f163c4a11628f55a4df523b3ef60405160405180910390a45050565b816003600083815260200190815260200160002060006101000a81548173ffffffffffffffffffffffffffffffffffffffff021916908373ffffffffffffffffffffffffffffffffffffffff160217905550808273ffffffffffffffffffffffffffffffffffffffff166107708361028b565b73ffffffffffffffffffffffffffffffffffffffff167f8c5be1e5ebec7d5bd14f71427d1e84f3dd0314c0f7b2291e5b200ac8c7c3b92560405160405180910390a45050565b600033905090565b60006107c9826104d0565b610808576040517f08c379a00000000000000000000000000000000000000000000000000000000081526004016107ff90610f59565b60405180910390fd5b6000610813836101a9565b90508073ffffffffffffffffffffffffffffffffffffffff168473ffffffffffffffffffffffffffffffffffffffff16148061088257508373ffffffffffffffffffffffffffffffffffffffff1661086a846101e6565b73ffffffffffffffffffffffffffffffffffffffff16145b91505092915050565b61089684848461089c565b50505050565b8273ffffffffffffffffffffffffffffffffffffffff166108bc826101a9565b73ffffffffffffffffffffffffffffffffffffffff1614610912576040517f08c379a000000000000000000000000000000000000000000000000000000000815260040161090990610ed9565b60405180910390fd5b600073ffffffffffffffffffffffffffffffffffffffff168273ffffffffffffffffffffffffffffffffffffffff161415610982576040517f08c379a000000000000000000000000000000000000000000000000000000000815260040161097990610ef9565b60405180910390fd5b61098d6000826106fd565b60018060008573ffffffffffffffffffffffffffffffffffffffff1673ffffffffffffffffffffffffffffffffffffffff16815260200190815260200160002060008282546109dc9190611036565b9250508190555060018060008473ffffffffffffffffffffffffffffffffffffffff1673ffffffffffffffffffffffffffffffffffffffff1681526020019081526020016000206000828254610a329190610fe0565b92505081905550816002600083815260200190815260200160002060006101000a81548173ffffffffffffffffffffffffffffffffffffffff021916908373ffffffffffffffffffffffffffffffffffffffff160217905550808273ffffffffffffffffffffffffffffffffffffffff168473ffffffffffffffffffffffffffffffffffffffff167fddf252ad1be2c89b69c2b068fc378daa952ba7f163c4a11628f55a4df523b3ef60405160405180910390a4505050565b6000610afe610af984610f9e565b610f79565b905082815260208101848484011115610b1a57610b19611149565b5b610b258482856110a6565b509392505050565b600081359050610b3c816113bb565b92915050565b600082601f830112610b5757610b56611144565b5b8135610b67848260208601610aeb565b91505092915050565b600081359050610b7f816113d2565b92915050565b600080600060608486031215610b9e57610b9d611153565b5b6000610bac86828701610b2d565b9350506020610bbd86828701610b2d565b9250506040610bce86828701610b70565b9150509250925092565b60008060008060808587031215610bf257610bf1611153565b5b6000610c0087828801610b2d565b9450506020610c1187828801610b2d565b9350506040610c2287828801610b70565b925050606085013567ffffffffffffffff811115610c4357610c4261114e565b5b610c4f87828801610b42565b91505092959194509250565b60008060408385031215610c7257610c71611153565b5b6000610c8085828601610b2d565b9250506020610c9185828601610b70565b9150509250929050565b600080600060608486031215610cb457610cb3611153565b5b6000610cc286828701610b2d565b9350506020610cd386828701610b70565b925050604084013567ffffffffffffffff811115610cf457610cf361114e565b5b610d0086828701610b42565b9150509250925092565b600060208284031215610d2057610d1f611153565b5b6000610d2e84828501610b70565b91505092915050565b610d408161106a565b82525050565b6000610d53603383610fcf565b9150610d5e82611169565b604082019050919050565b6000610d76602283610fcf565b9150610d81826111b8565b604082019050919050565b6000610d99602b83610fcf565b9150610da482611207565b604082019050919050565b6000610dbc602b83610fcf565b9150610dc782611256565b604082019050919050565b6000610ddf602683610fcf565b9150610dea826112a5565b604082019050919050565b6000610e02601e83610fcf565b9150610e0d826112f4565b602082019050919050565b6000610e25602e83610fcf565b9150610e308261131d565b604082019050919050565b6000610e48602e83610fcf565b9150610e538261136c565b604082019050919050565b6000602082019050610e736000830184610d37565b92915050565b60006020820190508181036000830152610e9281610d46565b9050919050565b60006020820190508181036000830152610eb281610d69565b9050919050565b60006020820190508181036000830152610ed281610d8c565b9050919050565b60006020820190508181036000830152610ef281610daf565b9050919050565b60006020820190508181036000830152610f1281610dd2565b9050919050565b60006020820190508181036000830152610f3281610df5565b9050919050565b60006020820190508181036000830152610f5281610e18565b9050919050565b60006020820190508181036000830152610f7281610e3b565b9050919050565b6000610f83610f94565b9050610f8f82826110b5565b919050565b6000604051905090565b600067ffffffffffffffff821115610fb957610fb8611115565b5b610fc282611158565b9050602081019050919050565b600082825260208201905092915050565b6000610feb8261109c565b9150610ff68361109c565b9250827fffffffffffffffffffffffffffffffffffffffffffffffffffffffffffffffff0382111561102b5761102a6110e6565b5b828201905092915050565b60006110418261109c565b915061104c8361109c565b92508282101561105f5761105e6110e6565b5b828203905092915050565b60006110758261107c565b9050919050565b600073ffffffffffffffffffffffffffffffffffffffff82169050919050565b6000819050919050565b82818337600083830152505050565b6110be82611158565b810181811067ffffffffffffffff821117156110dd576110dc611115565b5b80604052505050565b7f4e487b7100000000000000000000000000000000000000000000000000000000600052601160045260246000fd5b7f4e487b7100000000000000000000000000000000000000000000000000000000600052604160045260246000fd5b600080fd5b600080fd5b600080fd5b600080fd5b6000601f19601f8301169050919050565b7f417065546f6b656e3a207472616e736665722063616c6c6572206973206e6f7460008201527f206f776e6572206e6f7220617070726f76656400000000000000000000000000602082015250565b7f417065546f6b656e3a206d696e7420746f20746865207a65726f20616464726560008201527f7373000000000000000000000000000000000000000000000000000000000000602082015250565b7f417065546f6b656e3a206f776e657220717565727920666f72206e6f6e65786960008201527f7374656e7420746f6b656e000000000000000000000000000000000000000000602082015250565b7f417065546f6b656e3a207472616e73666572206f6620746f6b656e207468617460008201527f206973206e6f74206f776e000000000000000000000000000000000000000000602082015250565b7f417065546f6b656e3a207472616e7366657220746f20746865207a65726f206160008201527f6464726573730000000000000000000000000000000000000000000000000000602082015250565b7f417065546f6b656e3a20746f6b656e20616c7265616479206d696e7465640000600082015250565b7f417065546f6b656e3a20617070726f76656420717565727920666f72206e6f6e60008201527f6578697374656e7420746f6b656e000000000000000000000000000000000000602082015250565b7f417065546f6b656e3a206f70657261746f7220717565727920666f72206e6f6e60008201527f6578697374656e7420746f6b656e000000000000000000000000000000000000602082015250565b6113c48161106a565b81146113cf57600080fd5b50565b6113db8161109c565b81146113e657600080fd5b5056fea2646970667358221220a91f4893d315aa70fe2a291bdc2f0892bec84872e11e9accb919719e75ed54c264736f6c63430008060033a2646970667358221220a4786ec261bb2f4af033032cd8e906906ffc700b2a19f9e70fb94e63560cc28364736f6c63430008060033",
  "linkReferences": {},
  "deployedLinkReferences": {}
}