{
  "_format": "hh-sol-artifact-1",
  "contractName": "ApeLend",
  "sourceName": "contracts/ApeLend.sol",
  "abi": [
    {
      "inputs": [],
      "stateMutability": "nonpayable",
      "type": "constructor"
    },
    {
      "anonymous": false,
      "inputs": [
        {
          "indexed": true,
          "internalType": "address",
          "name": "owner",
          "type": "address"
        },
        {
          "indexed": true,
          "internalType": "address",
          "name": "approved",
          "type": "address"
        },
        {
          "indexed": true,
          "internalType": "uint256",
          "name": "tokenId",
          "type": "uint256"
        }
      ],
      "name": "Approval",
      "type": "event"
    },
    {
      "anonymous": false,
      "inputs": [
        {
          "indexed": true,
          "internalType": "address",
          "name": "owner",
          "type": "address"
        },
        {
          "indexed": true,
          "internalType": "address",
          "name": "operator",
          "type": "address"
        },
        {
          "indexed": false,
          "internalType": "bool",
          "name": "approved",
          "type": "bool"
        }
      ],
      "name": "ApprovalForAll",
      "type": "event"
    },
    {
      "anonymous": false,
      "inputs": [
        {
          "indexed": true,
          "internalType": "address",
          "name": "from",
          "type": "address"
        },
        {
          "indexed": true,
          "internalType": "address",
          "name": "to",
          "type": "address"
        },
        {
          "indexed": true,
          "internalType": "uint256",
          "name": "tokenId",
          "type": "uint256"
        }
      ],
      "name": "Transfer",
      "type": "event"
    },
    {
      "inputs": [
        {
          "internalType": "uint256",
          "name": "_tokenId",
          "type": "uint256"
        }
      ],
      "name": "apeTokenTotalSupply",
      "outputs": [
        {
          "internalType": "uint256",
          "name": "_apeTokenTotalSupply",
          "type": "uint256"
        }
      ],
      "stateMutability": "view",
      "type": "function"
    },
    {
      "inputs": [
        {
          "internalType": "address",
          "name": "to",
          "type": "address"
        },
        {
          "internalType": "uint256",
          "name": "tokenId",
          "type": "uint256"
        }
      ],
      "name": "approve",
      "outputs": [],
      "stateMutability": "nonpayable",
      "type": "function"
    },
    {
      "inputs": [
        {
          "internalType": "address",
          "name": "_owner",
          "type": "address"
        }
      ],
      "name": "balanceOf",
      "outputs": [
        {
          "internalType": "uint256",
          "name": "",
          "type": "uint256"
        }
      ],
      "stateMutability": "view",
      "type": "function"
    },
    {
      "inputs": [
        {
          "internalType": "uint256",
          "name": "_underlyingTokenId",
          "type": "uint256"
        },
        {
          "internalType": "uint256",
          "name": "_apeTokenId",
          "type": "uint256"
        },
        {
          "internalType": "address",
          "name": "_apeLendAddress",
          "type": "address"
        },
        {
          "internalType": "address",
          "name": "_to",
          "type": "address"
        }
      ],
      "name": "borrowApeToken",
      "outputs": [],
      "stateMutability": "nonpayable",
      "type": "function"
    },
    {
      "inputs": [
        {
          "internalType": "uint256",
          "name": "_underlyingTokenId",
          "type": "uint256"
        },
        {
          "internalType": "uint256",
          "name": "_borrowingApeTokenId",
          "type": "uint256"
        }
      ],
      "name": "borrowToken",
      "outputs": [],
      "stateMutability": "payable",
      "type": "function"
    },
    {
      "inputs": [
        {
          "internalType": "uint256",
          "name": "_underlyingTokenId",
          "type": "uint256"
        }
      ],
      "name": "burnApeToken",
      "outputs": [],
      "stateMutability": "nonpayable",
      "type": "function"
    },
    {
      "inputs": [
        {
          "internalType": "uint256",
          "name": "tokenId",
          "type": "uint256"
        }
      ],
      "name": "getApproved",
      "outputs": [
        {
          "internalType": "address",
          "name": "",
          "type": "address"
        }
      ],
      "stateMutability": "view",
      "type": "function"
    },
    {
      "inputs": [
        {
          "internalType": "address",
          "name": "owner",
          "type": "address"
        },
        {
          "internalType": "address",
          "name": "operator",
          "type": "address"
        }
      ],
      "name": "isApprovedForAll",
      "outputs": [
        {
          "internalType": "bool",
          "name": "",
          "type": "bool"
        }
      ],
      "stateMutability": "view",
      "type": "function"
    },
    {
      "inputs": [
        {
          "internalType": "address",
          "name": "_tokenAddress",
          "type": "address"
        },
        {
          "internalType": "uint256",
          "name": "_tokenId",
          "type": "uint256"
        },
        {
          "internalType": "uint256",
          "name": "_apeTokenAmount",
          "type": "uint256"
        },
        {
          "internalType": "uint256",
          "name": "_apeTokenReturnWindow",
          "type": "uint256"
        }
      ],
      "name": "lendToken",
      "outputs": [],
      "stateMutability": "nonpayable",
      "type": "function"
    },
    {
      "inputs": [],
      "name": "name",
      "outputs": [
        {
          "internalType": "string",
          "name": "",
          "type": "string"
        }
      ],
      "stateMutability": "view",
      "type": "function"
    },
    {
      "inputs": [
        {
          "internalType": "address",
          "name": "",
          "type": "address"
        },
        {
          "internalType": "address",
          "name": "",
          "type": "address"
        },
        {
          "internalType": "uint256",
          "name": "",
          "type": "uint256"
        },
        {
          "internalType": "bytes",
          "name": "",
          "type": "bytes"
        }
      ],
      "name": "onERC721Received",
      "outputs": [
        {
          "internalType": "bytes4",
          "name": "",
          "type": "bytes4"
        }
      ],
      "stateMutability": "nonpayable",
      "type": "function"
    },
    {
      "inputs": [
        {
          "internalType": "address",
          "name": "operator",
          "type": "address"
        },
        {
          "internalType": "address",
          "name": "from",
          "type": "address"
        },
        {
          "internalType": "uint256",
          "name": "tokenId",
          "type": "uint256"
        },
        {
          "internalType": "bytes",
          "name": "data",
          "type": "bytes"
        }
      ],
      "name": "onERC721ReceivedToProtocol",
      "outputs": [
        {
          "internalType": "bytes4",
          "name": "",
          "type": "bytes4"
        }
      ],
      "stateMutability": "nonpayable",
      "type": "function"
    },
    {
      "inputs": [
        {
          "internalType": "uint256",
          "name": "_tokenId",
          "type": "uint256"
        }
      ],
      "name": "ownerOf",
      "outputs": [
        {
          "internalType": "address",
          "name": "",
          "type": "address"
        }
      ],
      "stateMutability": "view",
      "type": "function"
    },
    {
      "inputs": [
        {
          "internalType": "uint256",
          "name": "_tokenId",
          "type": "uint256"
        },
        {
          "internalType": "uint256",
          "name": "_apeTokenId",
          "type": "uint256"
        }
      ],
      "name": "ownerOfApeToken",
      "outputs": [
        {
          "internalType": "address",
          "name": "_apeTokenOwner",
          "type": "address"
        }
      ],
      "stateMutability": "view",
      "type": "function"
    },
    {
      "inputs": [
        {
          "internalType": "uint256",
          "name": "_tokenId",
          "type": "uint256"
        }
      ],
      "name": "pullToken",
      "outputs": [],
      "stateMutability": "nonpayable",
      "type": "function"
    },
    {
      "inputs": [
        {
          "internalType": "address",
          "name": "from",
          "type": "address"
        },
        {
          "internalType": "address",
          "name": "to",
          "type": "address"
        },
        {
          "internalType": "uint256",
          "name": "tokenId",
          "type": "uint256"
        }
      ],
      "name": "safeTransferFrom",
      "outputs": [],
      "stateMutability": "nonpayable",
      "type": "function"
    },
    {
      "inputs": [
        {
          "internalType": "address",
          "name": "from",
          "type": "address"
        },
        {
          "internalType": "address",
          "name": "to",
          "type": "address"
        },
        {
          "internalType": "uint256",
          "name": "tokenId",
          "type": "uint256"
        },
        {
          "internalType": "bytes",
          "name": "_data",
          "type": "bytes"
        }
      ],
      "name": "safeTransferFrom",
      "outputs": [],
      "stateMutability": "nonpayable",
      "type": "function"
    },
    {
      "inputs": [
        {
          "internalType": "address",
          "name": "operator",
          "type": "address"
        },
        {
          "internalType": "bool",
          "name": "approved",
          "type": "bool"
        }
      ],
      "name": "setApprovalForAll",
      "outputs": [],
      "stateMutability": "nonpayable",
      "type": "function"
    },
    {
      "inputs": [
        {
          "internalType": "bytes4",
          "name": "interfaceId",
          "type": "bytes4"
        }
      ],
      "name": "supportsInterface",
      "outputs": [
        {
          "internalType": "bool",
          "name": "",
          "type": "bool"
        }
      ],
      "stateMutability": "view",
      "type": "function"
    },
    {
      "inputs": [],
      "name": "symbol",
      "outputs": [
        {
          "internalType": "string",
          "name": "",
          "type": "string"
        }
      ],
      "stateMutability": "view",
      "type": "function"
    },
    {
      "inputs": [
        {
          "internalType": "uint256",
          "name": "tokenId",
          "type": "uint256"
        }
      ],
      "name": "tokenURI",
      "outputs": [
        {
          "internalType": "string",
          "name": "",
          "type": "string"
        }
      ],
      "stateMutability": "view",
      "type": "function"
    },
    {
      "inputs": [
        {
          "internalType": "address",
          "name": "from",
          "type": "address"
        },
        {
          "internalType": "address",
          "name": "to",
          "type": "address"
        },
        {
          "internalType": "uint256",
          "name": "tokenId",
          "type": "uint256"
        }
      ],
      "name": "transferFrom",
      "outputs": [],
      "stateMutability": "nonpayable",
      "type": "function"
    },
    {
      "stateMutability": "payable",
      "type": "receive"
    }
  ],
  "bytecode": "0x60806040523480156200001157600080fd5b506040518060400160405280600781526020017f4170654c656e64000000000000000000000000000000000000000000000000008152506040518060400160405280600381526020017f4150450000000000000000000000000000000000000000000000000000000000815250816000908051906020019062000096929190620000f9565b508060019080519060200190620000af929190620000f9565b50505033600c60006101000a81548173ffffffffffffffffffffffffffffffffffffffff021916908373ffffffffffffffffffffffffffffffffffffffff1602179055506200020e565b8280546200010790620001a9565b90600052602060002090601f0160209004810192826200012b576000855562000177565b82601f106200014657805160ff191683800117855562000177565b8280016001018555821562000177579182015b828111156200017657825182559160200191906001019062000159565b5b5090506200018691906200018a565b5090565b5b80821115620001a55760008160009055506001016200018b565b5090565b60006002820490506001821680620001c257607f821691505b60208210811415620001d957620001d8620001df565b5b50919050565b7f4e487b7100000000000000000000000000000000000000000000000000000000600052602260045260246000fd5b614f78806200021e6000396000f3fe608060405260043610620001575760003560e01c80636352211e11620000bb57806395d89b41116200007957806395d89b4114620004e8578063a22cb4651462000518578063b88d4fde1462000546578063c87b56dd1462000574578063e985e9c514620005b8578063f87a419b14620005fc576200015f565b80636352211e14620003c05780636b0e2f10146200040457806370a0823114620004485780637b05d588146200048c5780638d96156b14620004ba576200015f565b8063150b7a021162000115578063150b7a02146200026a5780631c576a7014620002ae57806323b872dd14620002dc57806337c51b18146200030a57806342842e0e146200034e5780634effdda0146200037c576200015f565b806301ffc9a7146200016457806306fdde0314620001a8578063081812fc14620001d857806308ec5927146200021c578063095ea7b3146200023c576200015f565b366200015f57005b600080fd5b3480156200017157600080fd5b506200019060048036038101906200018a919062002755565b6200062a565b6040516200019f919062002d68565b60405180910390f35b348015620001b557600080fd5b50620001c062000710565b604051620001cf919062002da2565b60405180910390f35b348015620001e557600080fd5b50620002046004803603810190620001fe9190620027b9565b620007aa565b60405162000213919062002c60565b60405180910390f35b6200023a6004803603810190620002349190620027eb565b62000834565b005b3480156200024957600080fd5b506200026860048036038101906200026291906200269c565b620008e8565b005b3480156200027757600080fd5b50620002966004803603810190620002909190620025c4565b62000a11565b604051620002a5919062002d85565b60405180910390f35b348015620002bb57600080fd5b50620002da6004803603810190620002d4919062002832565b62000a25565b005b348015620002e957600080fd5b5062000308600480360381019062000302919062002568565b62000bc7565b005b3480156200031757600080fd5b50620003366004803603810190620003309190620027eb565b62000c30565b60405162000345919062002c60565b60405180910390f35b3480156200035b57600080fd5b506200037a600480360381019062000374919062002568565b62000c46565b005b3480156200038957600080fd5b50620003a86004803603810190620003a29190620025c4565b62000c68565b604051620003b7919062002d85565b60405180910390f35b348015620003cd57600080fd5b50620003ec6004803603810190620003e69190620027b9565b62000c82565b604051620003fb919062002c60565b60405180910390f35b3480156200041157600080fd5b506200043060048036038101906200042a9190620027b9565b62000c96565b6040516200043f919062003008565b60405180910390f35b3480156200045557600080fd5b506200047460048036038101906200046e9190620024bd565b62000caa565b60405162000483919062003008565b60405180910390f35b3480156200049957600080fd5b50620004b86004803603810190620004b29190620027b9565b62000cbe565b005b348015620004c757600080fd5b50620004e66004803603810190620004e09190620026e3565b62000e3b565b005b348015620004f557600080fd5b506200050062001182565b6040516200050f919062002da2565b60405180910390f35b3480156200052557600080fd5b506200054460048036038101906200053e919062002655565b6200121c565b005b3480156200055357600080fd5b506200057260048036038101906200056c9190620025c4565b620013a8565b005b3480156200058157600080fd5b50620005a060048036038101906200059a9190620027b9565b62001413565b604051620005af919062002da2565b60405180910390f35b348015620005c557600080fd5b50620005e46004803603810190620005de919062002521565b620014c7565b604051620005f3919062002d68565b60405180910390f35b3480156200060957600080fd5b50620006286004803603810190620006229190620027b9565b6200155b565b005b60007f80ac58cd000000000000000000000000000000000000000000000000000000007bffffffffffffffffffffffffffffffffffffffffffffffffffffffff1916827bffffffffffffffffffffffffffffffffffffffffffffffffffffffff19161480620006f657507f5b5e139f000000000000000000000000000000000000000000000000000000007bffffffffffffffffffffffffffffffffffffffffffffffffffffffff1916827bffffffffffffffffffffffffffffffffffffffffffffffffffffffff1916145b806200070957506200070882620015a2565b5b9050919050565b6060600080546200072190620032b3565b80601f01602080910402602001604051908101604052809291908181526020018280546200074f90620032b3565b8015620007a05780601f106200077457610100808354040283529160200191620007a0565b820191906000526020600020905b8154815290600101906020018083116200078257829003601f168201915b5050505050905090565b6000620007b7826200160c565b620007f9576040517f08c379a0000000000000000000000000000000000000000000000000000000008152600401620007f09062002f1a565b60405180910390fd5b6004600083815260200190815260200160002060009054906101000a900473ffffffffffffffffffffffffffffffffffffffff169050919050565b6000309050600033905060011515600e60003373ffffffffffffffffffffffffffffffffffffffff1673ffffffffffffffffffffffffffffffffffffffff16815260200190815260200160002060009054906101000a900460ff16151514620008d4576040517f08c379a0000000000000000000000000000000000000000000000000000000008152600401620008cb9062002ef8565b60405180910390fd5b620008e28484848462000a25565b50505050565b6000620008f58262001678565b90508073ffffffffffffffffffffffffffffffffffffffff168373ffffffffffffffffffffffffffffffffffffffff16141562000969576040517f08c379a0000000000000000000000000000000000000000000000000000000008152600401620009609062002fa2565b60405180910390fd5b8073ffffffffffffffffffffffffffffffffffffffff166200098a6200172d565b73ffffffffffffffffffffffffffffffffffffffff161480620009be5750620009bd81620009b76200172d565b620014c7565b5b62000a00576040517f08c379a0000000000000000000000000000000000000000000000000000000008152600401620009f79062002e70565b60405180910390fd5b62000a0c838362001735565b505050565b600063150b7a0260e01b9050949350505050565b6001151562000a36858585620017f0565b15151462000a7b576040517f08c379a000000000000000000000000000000000000000000000000000000000815260040162000a729062002eb4565b60405180910390fd5b60006007600085815260200190815260200160002060006101000a81548160ff0219169083151502179055506009544262000ab79190620030c7565b60098190555060006006600086815260200190815260200160002060009054906101000a900473ffffffffffffffffffffffffffffffffffffffff1690506000819050336008600087815260200190815260200160002060006101000a81548173ffffffffffffffffffffffffffffffffffffffff021916908373ffffffffffffffffffffffffffffffffffffffff1602179055508073ffffffffffffffffffffffffffffffffffffffff166342842e0e8585886040518463ffffffff1660e01b815260040162000b8b9392919062002c7d565b600060405180830381600087803b15801562000ba657600080fd5b505af115801562000bbb573d6000803e3d6000fd5b50505050505050505050565b62000bdc62000bd56200172d565b8262001912565b62000c1e576040517f08c379a000000000000000000000000000000000000000000000000000000000815260040162000c159062002fc4565b60405180910390fd5b62000c2b838383620019fd565b505050565b600062000c3e838362001c69565b905092915050565b62000c6383838360405180602001604052806000815250620013a8565b505050565b600062000c788585858562000a11565b9050949350505050565b600062000c8f8262001678565b9050919050565b600062000ca38262001d35565b9050919050565b600062000cb78262001d52565b9050919050565b600954421162000d05576040517f08c379a000000000000000000000000000000000000000000000000000000000815260040162000cfc9062002de8565b60405180910390fd5b60006006600083815260200190815260200160002060009054906101000a900473ffffffffffffffffffffffffffffffffffffffff16905060008190506000600a60008581526020019081526020016000205490506000600a60008681526020019081526020016000208190555060005b8181101562000e3457600060018262000d909190620030c7565b6103e88762000da091906200315c565b62000dac9190620030c7565b90508373ffffffffffffffffffffffffffffffffffffffff16639b1f9e74826040518263ffffffff1660e01b815260040162000de9919062003008565b600060405180830381600087803b15801562000e0457600080fd5b505af115801562000e19573d6000803e3d6000fd5b5050505050808062000e2b906200331f565b91505062000d76565b5050505050565b83600b60006101000a81548173ffffffffffffffffffffffffffffffffffffffff021916908373ffffffffffffffffffffffffffffffffffffffff160217905550600b60009054906101000a900473ffffffffffffffffffffffffffffffffffffffff1673ffffffffffffffffffffffffffffffffffffffff16636352211e846040518263ffffffff1660e01b815260040162000ed9919062003008565b60206040518083038186803b15801562000ef257600080fd5b505afa15801562000f07573d6000803e3d6000fd5b505050506040513d601f19601f8201168201806040525081019062000f2d9190620024ef565b73ffffffffffffffffffffffffffffffffffffffff163373ffffffffffffffffffffffffffffffffffffffff161462000f9d576040517f08c379a000000000000000000000000000000000000000000000000000000000815260040162000f949062002fe6565b60405180910390fd5b6001600d600085815260200190815260200160002060006101000a81548160ff021916908315150217905550600b60009054906101000a900473ffffffffffffffffffffffffffffffffffffffff1673ffffffffffffffffffffffffffffffffffffffff1663a22cb4653060016040518363ffffffff1660e01b81526004016200102992919062002d0e565b600060405180830381600087803b1580156200104457600080fd5b505af115801562001059573d6000803e3d6000fd5b505050506200107a3033856040518060200160405280600081525062000c68565b5060003090506001600e60003373ffffffffffffffffffffffffffffffffffffffff1673ffffffffffffffffffffffffffffffffffffffff16815260200190815260200160002060006101000a81548160ff021916908315150217905550600b60009054906101000a900473ffffffffffffffffffffffffffffffffffffffff1673ffffffffffffffffffffffffffffffffffffffff166342842e0e3330876040518463ffffffff1660e01b8152600401620011399392919062002c7d565b600060405180830381600087803b1580156200115457600080fd5b505af115801562001169573d6000803e3d6000fd5b505050506200117b8482858562001e0d565b5050505050565b6060600180546200119390620032b3565b80601f0160208091040260200160405190810160405280929190818152602001828054620011c190620032b3565b8015620012125780601f10620011e65761010080835404028352916020019162001212565b820191906000526020600020905b815481529060010190602001808311620011f457829003601f168201915b5050505050905090565b620012266200172d565b73ffffffffffffffffffffffffffffffffffffffff168273ffffffffffffffffffffffffffffffffffffffff16141562001297576040517f08c379a00000000000000000000000000000000000000000000000000000000081526004016200128e9062002e2c565b60405180910390fd5b8060056000620012a66200172d565b73ffffffffffffffffffffffffffffffffffffffff1673ffffffffffffffffffffffffffffffffffffffff16815260200190815260200160002060008473ffffffffffffffffffffffffffffffffffffffff1673ffffffffffffffffffffffffffffffffffffffff16815260200190815260200160002060006101000a81548160ff0219169083151502179055508173ffffffffffffffffffffffffffffffffffffffff16620013556200172d565b73ffffffffffffffffffffffffffffffffffffffff167f17307eab39ab6107e8899845ad3d59bd9653f200f220920489ca2b5937696c31836040516200139c919062002d68565b60405180910390a35050565b620013bd620013b66200172d565b8362001912565b620013ff576040517f08c379a0000000000000000000000000000000000000000000000000000000008152600401620013f69062002fc4565b60405180910390fd5b6200140d8484848462001ff2565b50505050565b606062001420826200160c565b62001462576040517f08c379a0000000000000000000000000000000000000000000000000000000008152600401620014599062002f80565b60405180910390fd5b60006200146e62002055565b90506000815111620014905760405180602001604052806000815250620014bf565b806200149c846200206c565b604051602001620014af92919062002c38565b6040516020818303038152906040525b915050919050565b6000600560008473ffffffffffffffffffffffffffffffffffffffff1673ffffffffffffffffffffffffffffffffffffffff16815260200190815260200160002060008373ffffffffffffffffffffffffffffffffffffffff1673ffffffffffffffffffffffffffffffffffffffff16815260200190815260200160002060009054906101000a900460ff16905092915050565b6000600d600083815260200190815260200160002060006101000a81548160ff021916908315150217905550620015928162000cbe565b6200159f30338362000bc7565b50565b60007f01ffc9a7000000000000000000000000000000000000000000000000000000007bffffffffffffffffffffffffffffffffffffffffffffffffffffffff1916827bffffffffffffffffffffffffffffffffffffffffffffffffffffffff1916149050919050565b60008073ffffffffffffffffffffffffffffffffffffffff166002600084815260200190815260200160002060009054906101000a900473ffffffffffffffffffffffffffffffffffffffff1673ffffffffffffffffffffffffffffffffffffffff1614159050919050565b6000806002600084815260200190815260200160002060009054906101000a900473ffffffffffffffffffffffffffffffffffffffff169050600073ffffffffffffffffffffffffffffffffffffffff168173ffffffffffffffffffffffffffffffffffffffff16141562001724576040517f08c379a00000000000000000000000000000000000000000000000000000000081526004016200171b9062002ed6565b60405180910390fd5b80915050919050565b600033905090565b816004600083815260200190815260200160002060006101000a81548173ffffffffffffffffffffffffffffffffffffffff021916908373ffffffffffffffffffffffffffffffffffffffff160217905550808273ffffffffffffffffffffffffffffffffffffffff16620017aa8362001678565b73ffffffffffffffffffffffffffffffffffffffff167f8c5be1e5ebec7d5bd14f71427d1e84f3dd0314c0f7b2291e5b200ac8c7c3b92560405160405180910390a45050565b6000806006600086815260200190815260200160002060009054906101000a900473ffffffffffffffffffffffffffffffffffffffff169050600081905060008173ffffffffffffffffffffffffffffffffffffffff1663025e7c27876040518263ffffffff1660e01b81526004016200186b919062003008565b60206040518083038186803b1580156200188457600080fd5b505afa15801562001899573d6000803e3d6000fd5b505050506040513d601f19601f82011682018060405250810190620018bf9190620024ef565b90508473ffffffffffffffffffffffffffffffffffffffff168173ffffffffffffffffffffffffffffffffffffffff1614156200190357600193505050506200190b565b600093505050505b9392505050565b60006200191f826200160c565b62001961576040517f08c379a0000000000000000000000000000000000000000000000000000000008152600401620019589062002e4e565b60405180910390fd5b60006200196e8362001678565b90508073ffffffffffffffffffffffffffffffffffffffff168473ffffffffffffffffffffffffffffffffffffffff161480620019e057508373ffffffffffffffffffffffffffffffffffffffff16620019c884620007aa565b73ffffffffffffffffffffffffffffffffffffffff16145b80620019f45750620019f38185620014c7565b5b91505092915050565b8273ffffffffffffffffffffffffffffffffffffffff1662001a1f8262001678565b73ffffffffffffffffffffffffffffffffffffffff161462001a78576040517f08c379a000000000000000000000000000000000000000000000000000000000815260040162001a6f9062002f5e565b60405180910390fd5b600073ffffffffffffffffffffffffffffffffffffffff168273ffffffffffffffffffffffffffffffffffffffff16141562001aeb576040517f08c379a000000000000000000000000000000000000000000000000000000000815260040162001ae29062002e0a565b60405180910390fd5b62001af8838383620021e6565b62001b0560008262001735565b6001600360008573ffffffffffffffffffffffffffffffffffffffff1673ffffffffffffffffffffffffffffffffffffffff168152602001908152602001600020600082825462001b579190620031bd565b925050819055506001600360008473ffffffffffffffffffffffffffffffffffffffff1673ffffffffffffffffffffffffffffffffffffffff168152602001908152602001600020600082825462001bb09190620030c7565b92505081905550816002600083815260200190815260200160002060006101000a81548173ffffffffffffffffffffffffffffffffffffffff021916908373ffffffffffffffffffffffffffffffffffffffff160217905550808273ffffffffffffffffffffffffffffffffffffffff168473ffffffffffffffffffffffffffffffffffffffff167fddf252ad1be2c89b69c2b068fc378daa952ba7f163c4a11628f55a4df523b3ef60405160405180910390a4505050565b60006006600084815260200190815260200160002060009054906101000a900473ffffffffffffffffffffffffffffffffffffffff1673ffffffffffffffffffffffffffffffffffffffff16636352211e836040518263ffffffff1660e01b815260040162001cd9919062003008565b60206040518083038186803b15801562001cf257600080fd5b505afa15801562001d07573d6000803e3d6000fd5b505050506040513d601f19601f8201168201806040525081019062001d2d9190620024ef565b905092915050565b6000600a6000838152602001908152602001600020549050919050565b60008073ffffffffffffffffffffffffffffffffffffffff168273ffffffffffffffffffffffffffffffffffffffff16141562001dc6576040517f08c379a000000000000000000000000000000000000000000000000000000000815260040162001dbd9062002e92565b60405180910390fd5b600360008373ffffffffffffffffffffffffffffffffffffffff1673ffffffffffffffffffffffffffffffffffffffff168152602001908152602001600020549050919050565b6019821062001e53576040517f08c379a000000000000000000000000000000000000000000000000000000000815260040162001e4a9062002f3c565b60405180910390fd5b804262001e619190620030c7565b60098190555060008460405162001e7890620023a7565b62001e84919062003008565b604051809103906000f08015801562001ea1573d6000803e3d6000fd5b5090506000819050806006600088815260200190815260200160002060006101000a81548173ffffffffffffffffffffffffffffffffffffffff021916908373ffffffffffffffffffffffffffffffffffffffff16021790555060005b8481101562001fe957600060018262001f189190620030c7565b6103e88962001f2891906200315c565b62001f349190620030c7565b9050600a6000898152602001908152602001600020600081548092919062001f5c906200331f565b91905055508373ffffffffffffffffffffffffffffffffffffffff1663b3e1c71888836040518363ffffffff1660e01b815260040162001f9e92919062002d3b565b600060405180830381600087803b15801562001fb957600080fd5b505af115801562001fce573d6000803e3d6000fd5b5050505050808062001fe0906200331f565b91505062001efe565b50505050505050565b62001fff848484620019fd565b6200200d84848484620021eb565b6200204f576040517f08c379a0000000000000000000000000000000000000000000000000000000008152600401620020469062002dc6565b60405180910390fd5b50505050565b606060405180602001604052806000815250905090565b60606000821415620020b6576040518060400160405280600181526020017f30000000000000000000000000000000000000000000000000000000000000008152509050620021e1565b600082905060005b60008214620020ee578080620020d4906200331f565b915050600a82620020e6919062003124565b9150620020be565b60008167ffffffffffffffff8111156200210d576200210c62003461565b5b6040519080825280601f01601f191660200182016040528015620021405781602001600182028036833780820191505090505b5090505b60008514620021da576001826200215c9190620031bd565b9150600a856200216d91906200336d565b60306200217b9190620030c7565b60f81b81838151811062002194576200219362003432565b5b60200101907effffffffffffffffffffffffffffffffffffffffffffffffffffffffffffff1916908160001a905350600a85620021d2919062003124565b945062002144565b8093505050505b919050565b505050565b60006200220e8473ffffffffffffffffffffffffffffffffffffffff1662002394565b1562002387578373ffffffffffffffffffffffffffffffffffffffff1663150b7a026200223a6200172d565b8786866040518563ffffffff1660e01b81526004016200225e949392919062002cba565b602060405180830381600087803b1580156200227957600080fd5b505af1925050508015620022ad57506040513d601f19601f82011682018060405250810190620022aa919062002787565b60015b62002336573d8060008114620022e0576040519150601f19603f3d011682016040523d82523d6000602084013e620022e5565b606091505b506000815114156200232e576040517f08c379a0000000000000000000000000000000000000000000000000000000008152600401620023259062002dc6565b60405180910390fd5b805181602001fd5b63150b7a0260e01b7bffffffffffffffffffffffffffffffffffffffffffffffffffffffff1916817bffffffffffffffffffffffffffffffffffffffffffffffffffffffff1916149150506200238c565b600190505b949350505050565b600080823b905060008111915050919050565b6114e68062003a5d83390190565b6000620023cc620023c6846200304e565b62003025565b905082815260208101848484011115620023eb57620023ea62003495565b5b620023f88482856200326e565b509392505050565b6000813590506200241181620039f4565b92915050565b6000815190506200242881620039f4565b92915050565b6000813590506200243f8162003a0e565b92915050565b600081359050620024568162003a28565b92915050565b6000815190506200246d8162003a28565b92915050565b600082601f8301126200248b576200248a62003490565b5b81356200249d848260208601620023b5565b91505092915050565b600081359050620024b78162003a42565b92915050565b600060208284031215620024d657620024d56200349f565b5b6000620024e68482850162002400565b91505092915050565b6000602082840312156200250857620025076200349f565b5b6000620025188482850162002417565b91505092915050565b600080604083850312156200253b576200253a6200349f565b5b60006200254b8582860162002400565b92505060206200255e8582860162002400565b9150509250929050565b6000806000606084860312156200258457620025836200349f565b5b6000620025948682870162002400565b9350506020620025a78682870162002400565b9250506040620025ba86828701620024a6565b9150509250925092565b60008060008060808587031215620025e157620025e06200349f565b5b6000620025f18782880162002400565b9450506020620026048782880162002400565b93505060406200261787828801620024a6565b925050606085013567ffffffffffffffff8111156200263b576200263a6200349a565b5b620026498782880162002473565b91505092959194509250565b600080604083850312156200266f576200266e6200349f565b5b60006200267f8582860162002400565b925050602062002692858286016200242e565b9150509250929050565b60008060408385031215620026b657620026b56200349f565b5b6000620026c68582860162002400565b9250506020620026d985828601620024a6565b9150509250929050565b600080600080608085870312156200270057620026ff6200349f565b5b6000620027108782880162002400565b94505060206200272387828801620024a6565b93505060406200273687828801620024a6565b92505060606200274987828801620024a6565b91505092959194509250565b6000602082840312156200276e576200276d6200349f565b5b60006200277e8482850162002445565b91505092915050565b600060208284031215620027a0576200279f6200349f565b5b6000620027b0848285016200245c565b91505092915050565b600060208284031215620027d257620027d16200349f565b5b6000620027e284828501620024a6565b91505092915050565b600080604083850312156200280557620028046200349f565b5b60006200281585828601620024a6565b92505060206200282885828601620024a6565b9150509250929050565b600080600080608085870312156200284f576200284e6200349f565b5b60006200285f87828801620024a6565b94505060206200287287828801620024a6565b9350506040620028858782880162002400565b9250506060620028988782880162002400565b91505092959194509250565b620028af81620031f8565b82525050565b620028c0816200320c565b82525050565b620028d18162003218565b82525050565b6000620028e48262003084565b620028f081856200309a565b9350620029028185602086016200327d565b6200290d81620034a4565b840191505092915050565b600062002925826200308f565b620029318185620030ab565b9350620029438185602086016200327d565b6200294e81620034a4565b840191505092915050565b600062002966826200308f565b620029728185620030bc565b9350620029848185602086016200327d565b80840191505092915050565b60006200299f603283620030ab565b9150620029ac82620034b5565b604082019050919050565b6000620029c6604683620030ab565b9150620029d38262003504565b606082019050919050565b6000620029ed602483620030ab565b9150620029fa8262003579565b604082019050919050565b600062002a14601983620030ab565b915062002a2182620035c8565b602082019050919050565b600062002a3b602c83620030ab565b915062002a4882620035f1565b604082019050919050565b600062002a62603883620030ab565b915062002a6f8262003640565b604082019050919050565b600062002a89602a83620030ab565b915062002a96826200368f565b604082019050919050565b600062002ab0603683620030ab565b915062002abd82620036de565b604082019050919050565b600062002ad7602983620030ab565b915062002ae4826200372d565b604082019050919050565b600062002afe603183620030ab565b915062002b0b826200377c565b604082019050919050565b600062002b25602c83620030ab565b915062002b3282620037cb565b604082019050919050565b600062002b4c603a83620030ab565b915062002b59826200381a565b604082019050919050565b600062002b73602983620030ab565b915062002b808262003869565b604082019050919050565b600062002b9a602f83620030ab565b915062002ba782620038b8565b604082019050919050565b600062002bc1602183620030ab565b915062002bce8262003907565b604082019050919050565b600062002be8603183620030ab565b915062002bf58262003956565b604082019050919050565b600062002c0f602c83620030ab565b915062002c1c82620039a5565b604082019050919050565b62002c328162003264565b82525050565b600062002c46828562002959565b915062002c54828462002959565b91508190509392505050565b600060208201905062002c776000830184620028a4565b92915050565b600060608201905062002c946000830186620028a4565b62002ca36020830185620028a4565b62002cb2604083018462002c27565b949350505050565b600060808201905062002cd16000830187620028a4565b62002ce06020830186620028a4565b62002cef604083018562002c27565b818103606083015262002d038184620028d7565b905095945050505050565b600060408201905062002d256000830185620028a4565b62002d346020830184620028b5565b9392505050565b600060408201905062002d526000830185620028a4565b62002d61602083018462002c27565b9392505050565b600060208201905062002d7f6000830184620028b5565b92915050565b600060208201905062002d9c6000830184620028c6565b92915050565b6000602082019050818103600083015262002dbe818462002918565b905092915050565b6000602082019050818103600083015262002de18162002990565b9050919050565b6000602082019050818103600083015262002e0381620029b7565b9050919050565b6000602082019050818103600083015262002e2581620029de565b9050919050565b6000602082019050818103600083015262002e478162002a05565b9050919050565b6000602082019050818103600083015262002e698162002a2c565b9050919050565b6000602082019050818103600083015262002e8b8162002a53565b9050919050565b6000602082019050818103600083015262002ead8162002a7a565b9050919050565b6000602082019050818103600083015262002ecf8162002aa1565b9050919050565b6000602082019050818103600083015262002ef18162002ac8565b9050919050565b6000602082019050818103600083015262002f138162002aef565b9050919050565b6000602082019050818103600083015262002f358162002b16565b9050919050565b6000602082019050818103600083015262002f578162002b3d565b9050919050565b6000602082019050818103600083015262002f798162002b64565b9050919050565b6000602082019050818103600083015262002f9b8162002b8b565b9050919050565b6000602082019050818103600083015262002fbd8162002bb2565b9050919050565b6000602082019050818103600083015262002fdf8162002bd9565b9050919050565b60006020820190508181036000830152620030018162002c00565b9050919050565b60006020820190506200301f600083018462002c27565b92915050565b60006200303162003044565b90506200303f8282620032e9565b919050565b6000604051905090565b600067ffffffffffffffff8211156200306c576200306b62003461565b5b6200307782620034a4565b9050602081019050919050565b600081519050919050565b600081519050919050565b600082825260208201905092915050565b600082825260208201905092915050565b600081905092915050565b6000620030d48262003264565b9150620030e18362003264565b9250827fffffffffffffffffffffffffffffffffffffffffffffffffffffffffffffffff03821115620031195762003118620033a5565b5b828201905092915050565b6000620031318262003264565b91506200313e8362003264565b925082620031515762003150620033d4565b5b828204905092915050565b6000620031698262003264565b9150620031768362003264565b9250817fffffffffffffffffffffffffffffffffffffffffffffffffffffffffffffffff0483118215151615620031b257620031b1620033a5565b5b828202905092915050565b6000620031ca8262003264565b9150620031d78362003264565b925082821015620031ed57620031ec620033a5565b5b828203905092915050565b6000620032058262003244565b9050919050565b60008115159050919050565b60007fffffffff0000000000000000000000000000000000000000000000000000000082169050919050565b600073ffffffffffffffffffffffffffffffffffffffff82169050919050565b6000819050919050565b82818337600083830152505050565b60005b838110156200329d57808201518184015260208101905062003280565b83811115620032ad576000848401525b50505050565b60006002820490506001821680620032cc57607f821691505b60208210811415620032e357620032e262003403565b5b50919050565b620032f482620034a4565b810181811067ffffffffffffffff8211171562003316576200331562003461565b5b80604052505050565b60006200332c8262003264565b91507fffffffffffffffffffffffffffffffffffffffffffffffffffffffffffffffff821415620033625762003361620033a5565b5b600182019050919050565b60006200337a8262003264565b9150620033878362003264565b9250826200339a5762003399620033d4565b5b828206905092915050565b7f4e487b7100000000000000000000000000000000000000000000000000000000600052601160045260246000fd5b7f4e487b7100000000000000000000000000000000000000000000000000000000600052601260045260246000fd5b7f4e487b7100000000000000000000000000000000000000000000000000000000600052602260045260246000fd5b7f4e487b7100000000000000000000000000000000000000000000000000000000600052603260045260246000fd5b7f4e487b7100000000000000000000000000000000000000000000000000000000600052604160045260246000fd5b600080fd5b600080fd5b600080fd5b600080fd5b6000601f19601f8301169050919050565b7f4552433732313a207472616e7366657220746f206e6f6e20455243373231526560008201527f63656976657220696d706c656d656e7465720000000000000000000000000000602082015250565b7f417065546f6b656e466163746f72793a20436f72726573706f6e64696e67204160008201527f7065546f6b656e732063616e6e6f74206265206275726e65642061742074686960208201527f732074696d650000000000000000000000000000000000000000000000000000604082015250565b7f4552433732313a207472616e7366657220746f20746865207a65726f2061646460008201527f7265737300000000000000000000000000000000000000000000000000000000602082015250565b7f4552433732313a20617070726f766520746f2063616c6c657200000000000000600082015250565b7f4552433732313a206f70657261746f7220717565727920666f72206e6f6e657860008201527f697374656e7420746f6b656e0000000000000000000000000000000000000000602082015250565b7f4552433732313a20617070726f76652063616c6c6572206973206e6f74206f7760008201527f6e6572206e6f7220617070726f76656420666f7220616c6c0000000000000000602082015250565b7f4552433732313a2062616c616e636520717565727920666f7220746865207a6560008201527f726f206164647265737300000000000000000000000000000000000000000000602082015250565b7f417065546f6b656e466163746f72793a205468697320746f6b656e206973206e60008201527f6f7420617661696c61626c6520746f20626f72726f7700000000000000000000602082015250565b7f4552433732313a206f776e657220717565727920666f72206e6f6e657869737460008201527f656e7420746f6b656e0000000000000000000000000000000000000000000000602082015250565b7f4170654c656e643a20596f752068617665206e6f742070726f7669646564206160008201527f20746f6b656e20746f204170654c656e64000000000000000000000000000000602082015250565b7f4552433732313a20617070726f76656420717565727920666f72206e6f6e657860008201527f697374656e7420746f6b656e0000000000000000000000000000000000000000602082015250565b7f417065546f6b656e3a20596f752063616e6e6f74206d696e74206d6f7265207460008201527f68616e20323520617065546f6b656e732070657220746f6b656e000000000000602082015250565b7f4552433732313a207472616e73666572206f6620746f6b656e2074686174206960008201527f73206e6f74206f776e0000000000000000000000000000000000000000000000602082015250565b7f4552433732314d657461646174613a2055524920717565727920666f72206e6f60008201527f6e6578697374656e7420746f6b656e0000000000000000000000000000000000602082015250565b7f4552433732313a20617070726f76616c20746f2063757272656e74206f776e6560008201527f7200000000000000000000000000000000000000000000000000000000000000602082015250565b7f4552433732313a207472616e736665722063616c6c6572206973206e6f74206f60008201527f776e6572206e6f7220617070726f766564000000000000000000000000000000602082015250565b7f4170654c656e643a20596f7520617265206e6f7420746865206f776e6572206f60008201527f66207468697320746f6b656e0000000000000000000000000000000000000000602082015250565b620039ff81620031f8565b811462003a0b57600080fd5b50565b62003a19816200320c565b811462003a2557600080fd5b50565b62003a338162003218565b811462003a3f57600080fd5b50565b62003a4d8162003264565b811462003a5957600080fd5b5056fe60806040523480156200001157600080fd5b50604051620014e6380380620014e683398181016040528101906200003791906200005c565b8060008190555050620000b7565b60008151905062000056816200009d565b92915050565b60006020828403121562000075576200007462000098565b5b6000620000858482850162000045565b91505092915050565b6000819050919050565b600080fd5b620000a8816200008e565b8114620000b457600080fd5b50565b61141f80620000c76000396000f3fe608060405234801561001057600080fd5b50600436106100885760003560e01c80636a4f832b1161005b5780636a4f832b146101395780639b1f9e7414610155578063b3e1c71814610171578063b88d4fde1461018d57610088565b8063025e7c271461008d578063081812fc146100bd57806342842e0e146100ed5780636352211e14610109575b600080fd5b6100a760048036038101906100a29190610d0a565b6101a9565b6040516100b49190610e5e565b60405180910390f35b6100d760048036038101906100d29190610d0a565b6101e6565b6040516100e49190610e5e565b60405180910390f35b61010760048036038101906101029190610b85565b61026b565b005b610123600480360381019061011e9190610d0a565b61028b565b6040516101309190610e5e565b60405180910390f35b610153600480360381019061014e9190610c9b565b61033d565b005b61016f600480360381019061016a9190610d0a565b61034c565b005b61018b60048036038101906101869190610c5b565b610450565b005b6101a760048036038101906101a29190610bd8565b61046e565b005b60006002600083815260200190815260200160002060009054906101000a900473ffffffffffffffffffffffffffffffffffffffff169050919050565b60006101f1826104d0565b610230576040517f08c379a000000000000000000000000000000000000000000000000000000000815260040161022790610f39565b60405180910390fd5b6003600083815260200190815260200160002060009054906101000a900473ffffffffffffffffffffffffffffffffffffffff169050919050565b6102868383836040518060200160405280600081525061046e565b505050565b6000806002600084815260200190815260200160002060009054906101000a900473ffffffffffffffffffffffffffffffffffffffff169050600073ffffffffffffffffffffffffffffffffffffffff168173ffffffffffffffffffffffffffffffffffffffff161415610334576040517f08c379a000000000000000000000000000000000000000000000000000000000815260040161032b90610eb9565b60405180910390fd5b80915050919050565b610347838361053c565b505050565b60006103578261028b565b90506103646000836106fd565b60018060008373ffffffffffffffffffffffffffffffffffffffff1673ffffffffffffffffffffffffffffffffffffffff16815260200190815260200160002060008282546103b39190611036565b925050819055506002600083815260200190815260200160002060006101000a81549073ffffffffffffffffffffffffffffffffffffffff021916905581600073ffffffffffffffffffffffffffffffffffffffff168273ffffffffffffffffffffffffffffffffffffffff167fddf252ad1be2c89b69c2b068fc378daa952ba7f163c4a11628f55a4df523b3ef60405160405180910390a45050565b61046a82826040518060200160405280600081525061033d565b5050565b61047f6104796107b6565b836107be565b6104be576040517f08c379a00000000000000000000000000000000000000000000000000000000081526004016104b590610e79565b60405180910390fd5b6104ca8484848461088b565b50505050565b60008073ffffffffffffffffffffffffffffffffffffffff166002600084815260200190815260200160002060009054906101000a900473ffffffffffffffffffffffffffffffffffffffff1673ffffffffffffffffffffffffffffffffffffffff1614159050919050565b600073ffffffffffffffffffffffffffffffffffffffff168273ffffffffffffffffffffffffffffffffffffffff1614156105ac576040517f08c379a00000000000000000000000000000000000000000000000000000000081526004016105a390610e99565b60405180910390fd5b6105b5816104d0565b156105f5576040517f08c379a00000000000000000000000000000000000000000000000000000000081526004016105ec90610f19565b60405180910390fd5b60018060008473ffffffffffffffffffffffffffffffffffffffff1673ffffffffffffffffffffffffffffffffffffffff16815260200190815260200160002060008282546106449190610fe0565b92505081905550816002600083815260200190815260200160002060006101000a81548173ffffffffffffffffffffffffffffffffffffffff021916908373ffffffffffffffffffffffffffffffffffffffff160217905550808273ffffffffffffffffffffffffffffffffffffffff16600073ffffffffffffffffffffffffffffffffffffffff167fddf252ad1be2c89b69c2b068fc378daa952ba7f163c4a11628f55a4df523b3ef60405160405180910390a45050565b816003600083815260200190815260200160002060006101000a81548173ffffffffffffffffffffffffffffffffffffffff021916908373ffffffffffffffffffffffffffffffffffffffff160217905550808273ffffffffffffffffffffffffffffffffffffffff166107708361028b565b73ffffffffffffffffffffffffffffffffffffffff167f8c5be1e5ebec7d5bd14f71427d1e84f3dd0314c0f7b2291e5b200ac8c7c3b92560405160405180910390a45050565b600033905090565b60006107c9826104d0565b610808576040517f08c379a00000000000000000000000000000000000000000000000000000000081526004016107ff90610f59565b60405180910390fd5b6000610813836101a9565b90508073ffffffffffffffffffffffffffffffffffffffff168473ffffffffffffffffffffffffffffffffffffffff16148061088257508373ffffffffffffffffffffffffffffffffffffffff1661086a846101e6565b73ffffffffffffffffffffffffffffffffffffffff16145b91505092915050565b61089684848461089c565b50505050565b8273ffffffffffffffffffffffffffffffffffffffff166108bc826101a9565b73ffffffffffffffffffffffffffffffffffffffff1614610912576040517f08c379a000000000000000000000000000000000000000000000000000000000815260040161090990610ed9565b60405180910390fd5b600073ffffffffffffffffffffffffffffffffffffffff168273ffffffffffffffffffffffffffffffffffffffff161415610982576040517f08c379a000000000000000000000000000000000000000000000000000000000815260040161097990610ef9565b60405180910390fd5b61098d6000826106fd565b60018060008573ffffffffffffffffffffffffffffffffffffffff1673ffffffffffffffffffffffffffffffffffffffff16815260200190815260200160002060008282546109dc9190611036565b9250508190555060018060008473ffffffffffffffffffffffffffffffffffffffff1673ffffffffffffffffffffffffffffffffffffffff1681526020019081526020016000206000828254610a329190610fe0565b92505081905550816002600083815260200190815260200160002060006101000a81548173ffffffffffffffffffffffffffffffffffffffff021916908373ffffffffffffffffffffffffffffffffffffffff160217905550808273ffffffffffffffffffffffffffffffffffffffff168473ffffffffffffffffffffffffffffffffffffffff167fddf252ad1be2c89b69c2b068fc378daa952ba7f163c4a11628f55a4df523b3ef60405160405180910390a4505050565b6000610afe610af984610f9e565b610f79565b905082815260208101848484011115610b1a57610b19611149565b5b610b258482856110a6565b509392505050565b600081359050610b3c816113bb565b92915050565b600082601f830112610b5757610b56611144565b5b8135610b67848260208601610aeb565b91505092915050565b600081359050610b7f816113d2565b92915050565b600080600060608486031215610b9e57610b9d611153565b5b6000610bac86828701610b2d565b9350506020610bbd86828701610b2d565b9250506040610bce86828701610b70565b9150509250925092565b60008060008060808587031215610bf257610bf1611153565b5b6000610c0087828801610b2d565b9450506020610c1187828801610b2d565b9350506040610c2287828801610b70565b925050606085013567ffffffffffffffff811115610c4357610c4261114e565b5b610c4f87828801610b42565b91505092959194509250565b60008060408385031215610c7257610c71611153565b5b6000610c8085828601610b2d565b9250506020610c9185828601610b70565b9150509250929050565b600080600060608486031215610cb457610cb3611153565b5b6000610cc286828701610b2d565b9350506020610cd386828701610b70565b925050604084013567ffffffffffffffff811115610cf457610cf361114e565b5b610d0086828701610b42565b9150509250925092565b600060208284031215610d2057610d1f611153565b5b6000610d2e84828501610b70565b91505092915050565b610d408161106a565b82525050565b6000610d53603383610fcf565b9150610d5e82611169565b604082019050919050565b6000610d76602283610fcf565b9150610d81826111b8565b604082019050919050565b6000610d99602b83610fcf565b9150610da482611207565b604082019050919050565b6000610dbc602b83610fcf565b9150610dc782611256565b604082019050919050565b6000610ddf602683610fcf565b9150610dea826112a5565b604082019050919050565b6000610e02601e83610fcf565b9150610e0d826112f4565b602082019050919050565b6000610e25602e83610fcf565b9150610e308261131d565b604082019050919050565b6000610e48602e83610fcf565b9150610e538261136c565b604082019050919050565b6000602082019050610e736000830184610d37565b92915050565b60006020820190508181036000830152610e9281610d46565b9050919050565b60006020820190508181036000830152610eb281610d69565b9050919050565b60006020820190508181036000830152610ed281610d8c565b9050919050565b60006020820190508181036000830152610ef281610daf565b9050919050565b60006020820190508181036000830152610f1281610dd2565b9050919050565b60006020820190508181036000830152610f3281610df5565b9050919050565b60006020820190508181036000830152610f5281610e18565b9050919050565b60006020820190508181036000830152610f7281610e3b565b9050919050565b6000610f83610f94565b9050610f8f82826110b5565b919050565b6000604051905090565b600067ffffffffffffffff821115610fb957610fb8611115565b5b610fc282611158565b9050602081019050919050565b600082825260208201905092915050565b6000610feb8261109c565b9150610ff68361109c565b9250827fffffffffffffffffffffffffffffffffffffffffffffffffffffffffffffffff0382111561102b5761102a6110e6565b5b828201905092915050565b60006110418261109c565b915061104c8361109c565b92508282101561105f5761105e6110e6565b5b828203905092915050565b60006110758261107c565b9050919050565b600073ffffffffffffffffffffffffffffffffffffffff82169050919050565b6000819050919050565b82818337600083830152505050565b6110be82611158565b810181811067ffffffffffffffff821117156110dd576110dc611115565b5b80604052505050565b7f4e487b7100000000000000000000000000000000000000000000000000000000600052601160045260246000fd5b7f4e487b7100000000000000000000000000000000000000000000000000000000600052604160045260246000fd5b600080fd5b600080fd5b600080fd5b600080fd5b6000601f19601f8301169050919050565b7f417065546f6b656e3a207472616e736665722063616c6c6572206973206e6f7460008201527f206f776e6572206e6f7220617070726f76656400000000000000000000000000602082015250565b7f417065546f6b656e3a206d696e7420746f20746865207a65726f20616464726560008201527f7373000000000000000000000000000000000000000000000000000000000000602082015250565b7f417065546f6b656e3a206f776e657220717565727920666f72206e6f6e65786960008201527f7374656e7420746f6b656e000000000000000000000000000000000000000000602082015250565b7f417065546f6b656e3a207472616e73666572206f6620746f6b656e207468617460008201527f206973206e6f74206f776e000000000000000000000000000000000000000000602082015250565b7f417065546f6b656e3a207472616e7366657220746f20746865207a65726f206160008201527f6464726573730000000000000000000000000000000000000000000000000000602082015250565b7f417065546f6b656e3a20746f6b656e20616c7265616479206d696e7465640000600082015250565b7f417065546f6b656e3a20617070726f76656420717565727920666f72206e6f6e60008201527f6578697374656e7420746f6b656e000000000000000000000000000000000000602082015250565b7f417065546f6b656e3a206f70657261746f7220717565727920666f72206e6f6e60008201527f6578697374656e7420746f6b656e000000000000000000000000000000000000602082015250565b6113c48161106a565b81146113cf57600080fd5b50565b6113db8161109c565b81146113e657600080fd5b5056fea2646970667358221220a91f4893d315aa70fe2a291bdc2f0892bec84872e11e9accb919719e75ed54c264736f6c63430008060033a26469706673582212202db1cbd1e5507f849ee094427b9243a10cbe50567f012ce1d362d06c658ab2da64736f6c63430008060033",
  "linkReferences": {},
  "deployedLinkReferences": {}
}