{
  "_format": "hh-sol-artifact-1",
  "contractName": "ApeToken",
  "sourceName": "contracts/ApeToken.sol",
  "abi": [
    {
      "inputs": [
        {
          "internalType": "uint256",
          "name": "_collectionId",
          "type": "uint256"
        }
      ],
      "stateMutability": "nonpayable",
      "type": "constructor"
    },
    {
      "anonymous": false,
      "inputs": [
        {
          "indexed": true,
          "internalType": "address",
          "name": "owner",
          "type": "address"
        },
        {
          "indexed": true,
          "internalType": "address",
          "name": "approved",
          "type": "address"
        },
        {
          "indexed": true,
          "internalType": "uint256",
          "name": "apeTokenId",
          "type": "uint256"
        }
      ],
      "name": "Approval",
      "type": "event"
    },
    {
      "anonymous": false,
      "inputs": [
        {
          "indexed": true,
          "internalType": "address",
          "name": "from",
          "type": "address"
        },
        {
          "indexed": true,
          "internalType": "address",
          "name": "to",
          "type": "address"
        },
        {
          "indexed": true,
          "internalType": "uint256",
          "name": "apeTokenId",
          "type": "uint256"
        }
      ],
      "name": "Transfer",
      "type": "event"
    },
    {
      "inputs": [
        {
          "internalType": "address",
          "name": "_to",
          "type": "address"
        },
        {
          "internalType": "uint256",
          "name": "_apeTokenId",
          "type": "uint256"
        },
        {
          "internalType": "bytes",
          "name": "_data",
          "type": "bytes"
        }
      ],
      "name": "_safeMint",
      "outputs": [],
      "stateMutability": "nonpayable",
      "type": "function"
    },
    {
      "inputs": [
        {
          "internalType": "address",
          "name": "_to",
          "type": "address"
        },
        {
          "internalType": "uint256",
          "name": "_apeTokenId",
          "type": "uint256"
        }
      ],
      "name": "_safeMint",
      "outputs": [],
      "stateMutability": "nonpayable",
      "type": "function"
    },
    {
      "inputs": [
        {
          "internalType": "uint256",
          "name": "_apeTokenId",
          "type": "uint256"
        }
      ],
      "name": "getApproved",
      "outputs": [
        {
          "internalType": "address",
          "name": "",
          "type": "address"
        }
      ],
      "stateMutability": "view",
      "type": "function"
    },
    {
      "inputs": [
        {
          "internalType": "uint256",
          "name": "_apeTokenId",
          "type": "uint256"
        }
      ],
      "name": "ownerOf",
      "outputs": [
        {
          "internalType": "address",
          "name": "",
          "type": "address"
        }
      ],
      "stateMutability": "view",
      "type": "function"
    },
    {
      "inputs": [
        {
          "internalType": "uint256",
          "name": "_apeTokenId",
          "type": "uint256"
        }
      ],
      "name": "owners",
      "outputs": [
        {
          "internalType": "address",
          "name": "_ownerAddress",
          "type": "address"
        }
      ],
      "stateMutability": "view",
      "type": "function"
    },
    {
      "inputs": [
        {
          "internalType": "address",
          "name": "_from",
          "type": "address"
        },
        {
          "internalType": "address",
          "name": "_to",
          "type": "address"
        },
        {
          "internalType": "uint256",
          "name": "_apeTokenId",
          "type": "uint256"
        }
      ],
      "name": "safeTransferFrom",
      "outputs": [],
      "stateMutability": "nonpayable",
      "type": "function"
    },
    {
      "inputs": [
        {
          "internalType": "address",
          "name": "_from",
          "type": "address"
        },
        {
          "internalType": "address",
          "name": "_to",
          "type": "address"
        },
        {
          "internalType": "uint256",
          "name": "_apeTokenId",
          "type": "uint256"
        },
        {
          "internalType": "bytes",
          "name": "_data",
          "type": "bytes"
        }
      ],
      "name": "safeTransferFrom",
      "outputs": [],
      "stateMutability": "nonpayable",
      "type": "function"
    }
  ],
  "bytecode": "0x60806040523480156200001157600080fd5b50604051620013bb380380620013bb83398181016040528101906200003791906200005c565b8060008190555050620000b7565b60008151905062000056816200009d565b92915050565b60006020828403121562000075576200007462000098565b5b6000620000858482850162000045565b91505092915050565b6000819050919050565b600080fd5b620000a8816200008e565b8114620000b457600080fd5b50565b6112f480620000c76000396000f3fe608060405234801561001057600080fd5b506004361061007d5760003560e01c80636352211e1161005b5780636352211e146100fe5780636a4f832b1461012e578063b3e1c7181461014a578063b88d4fde146101665761007d565b8063025e7c2714610082578063081812fc146100b257806342842e0e146100e2575b600080fd5b61009c60048036038101906100979190610bdf565b610182565b6040516100a99190610d33565b60405180910390f35b6100cc60048036038101906100c79190610bdf565b6101bf565b6040516100d99190610d33565b60405180910390f35b6100fc60048036038101906100f79190610a5a565b610244565b005b61011860048036038101906101139190610bdf565b610264565b6040516101259190610d33565b60405180910390f35b61014860048036038101906101439190610b70565b610316565b005b610164600480360381019061015f9190610b30565b610325565b005b610180600480360381019061017b9190610aad565b610343565b005b60006002600083815260200190815260200160002060009054906101000a900473ffffffffffffffffffffffffffffffffffffffff169050919050565b60006101ca826103a5565b610209576040517f08c379a000000000000000000000000000000000000000000000000000000000815260040161020090610e0e565b60405180910390fd5b6003600083815260200190815260200160002060009054906101000a900473ffffffffffffffffffffffffffffffffffffffff169050919050565b61025f83838360405180602001604052806000815250610343565b505050565b6000806002600084815260200190815260200160002060009054906101000a900473ffffffffffffffffffffffffffffffffffffffff169050600073ffffffffffffffffffffffffffffffffffffffff168173ffffffffffffffffffffffffffffffffffffffff16141561030d576040517f08c379a000000000000000000000000000000000000000000000000000000000815260040161030490610d8e565b60405180910390fd5b80915050919050565b6103208383610411565b505050565b61033f828260405180602001604052806000815250610316565b5050565b61035461034e6105d2565b836105da565b610393576040517f08c379a000000000000000000000000000000000000000000000000000000000815260040161038a90610d4e565b60405180910390fd5b61039f848484846106a7565b50505050565b60008073ffffffffffffffffffffffffffffffffffffffff166002600084815260200190815260200160002060009054906101000a900473ffffffffffffffffffffffffffffffffffffffff1673ffffffffffffffffffffffffffffffffffffffff1614159050919050565b600073ffffffffffffffffffffffffffffffffffffffff168273ffffffffffffffffffffffffffffffffffffffff161415610481576040517f08c379a000000000000000000000000000000000000000000000000000000000815260040161047890610d6e565b60405180910390fd5b61048a816103a5565b156104ca576040517f08c379a00000000000000000000000000000000000000000000000000000000081526004016104c190610dee565b60405180910390fd5b60018060008473ffffffffffffffffffffffffffffffffffffffff1673ffffffffffffffffffffffffffffffffffffffff16815260200190815260200160002060008282546105199190610eb5565b92505081905550816002600083815260200190815260200160002060006101000a81548173ffffffffffffffffffffffffffffffffffffffff021916908373ffffffffffffffffffffffffffffffffffffffff160217905550808273ffffffffffffffffffffffffffffffffffffffff16600073ffffffffffffffffffffffffffffffffffffffff167fddf252ad1be2c89b69c2b068fc378daa952ba7f163c4a11628f55a4df523b3ef60405160405180910390a45050565b600033905090565b60006105e5826103a5565b610624576040517f08c379a000000000000000000000000000000000000000000000000000000000815260040161061b90610e2e565b60405180910390fd5b600061062f83610182565b90508073ffffffffffffffffffffffffffffffffffffffff168473ffffffffffffffffffffffffffffffffffffffff16148061069e57508373ffffffffffffffffffffffffffffffffffffffff16610686846101bf565b73ffffffffffffffffffffffffffffffffffffffff16145b91505092915050565b6106b28484846106b8565b50505050565b8273ffffffffffffffffffffffffffffffffffffffff166106d882610182565b73ffffffffffffffffffffffffffffffffffffffff161461072e576040517f08c379a000000000000000000000000000000000000000000000000000000000815260040161072590610dae565b60405180910390fd5b600073ffffffffffffffffffffffffffffffffffffffff168273ffffffffffffffffffffffffffffffffffffffff16141561079e576040517f08c379a000000000000000000000000000000000000000000000000000000000815260040161079590610dce565b60405180910390fd5b6107a9600082610907565b60018060008573ffffffffffffffffffffffffffffffffffffffff1673ffffffffffffffffffffffffffffffffffffffff16815260200190815260200160002060008282546107f89190610f0b565b9250508190555060018060008473ffffffffffffffffffffffffffffffffffffffff1673ffffffffffffffffffffffffffffffffffffffff168152602001908152602001600020600082825461084e9190610eb5565b92505081905550816002600083815260200190815260200160002060006101000a81548173ffffffffffffffffffffffffffffffffffffffff021916908373ffffffffffffffffffffffffffffffffffffffff160217905550808273ffffffffffffffffffffffffffffffffffffffff168473ffffffffffffffffffffffffffffffffffffffff167fddf252ad1be2c89b69c2b068fc378daa952ba7f163c4a11628f55a4df523b3ef60405160405180910390a4505050565b816003600083815260200190815260200160002060006101000a81548173ffffffffffffffffffffffffffffffffffffffff021916908373ffffffffffffffffffffffffffffffffffffffff160217905550808273ffffffffffffffffffffffffffffffffffffffff1661097a83610264565b73ffffffffffffffffffffffffffffffffffffffff167f8c5be1e5ebec7d5bd14f71427d1e84f3dd0314c0f7b2291e5b200ac8c7c3b92560405160405180910390a45050565b60006109d36109ce84610e73565b610e4e565b9050828152602081018484840111156109ef576109ee61101e565b5b6109fa848285610f7b565b509392505050565b600081359050610a1181611290565b92915050565b600082601f830112610a2c57610a2b611019565b5b8135610a3c8482602086016109c0565b91505092915050565b600081359050610a54816112a7565b92915050565b600080600060608486031215610a7357610a72611028565b5b6000610a8186828701610a02565b9350506020610a9286828701610a02565b9250506040610aa386828701610a45565b9150509250925092565b60008060008060808587031215610ac757610ac6611028565b5b6000610ad587828801610a02565b9450506020610ae687828801610a02565b9350506040610af787828801610a45565b925050606085013567ffffffffffffffff811115610b1857610b17611023565b5b610b2487828801610a17565b91505092959194509250565b60008060408385031215610b4757610b46611028565b5b6000610b5585828601610a02565b9250506020610b6685828601610a45565b9150509250929050565b600080600060608486031215610b8957610b88611028565b5b6000610b9786828701610a02565b9350506020610ba886828701610a45565b925050604084013567ffffffffffffffff811115610bc957610bc8611023565b5b610bd586828701610a17565b9150509250925092565b600060208284031215610bf557610bf4611028565b5b6000610c0384828501610a45565b91505092915050565b610c1581610f3f565b82525050565b6000610c28603383610ea4565b9150610c338261103e565b604082019050919050565b6000610c4b602283610ea4565b9150610c568261108d565b604082019050919050565b6000610c6e602b83610ea4565b9150610c79826110dc565b604082019050919050565b6000610c91602b83610ea4565b9150610c9c8261112b565b604082019050919050565b6000610cb4602683610ea4565b9150610cbf8261117a565b604082019050919050565b6000610cd7601e83610ea4565b9150610ce2826111c9565b602082019050919050565b6000610cfa602e83610ea4565b9150610d05826111f2565b604082019050919050565b6000610d1d602e83610ea4565b9150610d2882611241565b604082019050919050565b6000602082019050610d486000830184610c0c565b92915050565b60006020820190508181036000830152610d6781610c1b565b9050919050565b60006020820190508181036000830152610d8781610c3e565b9050919050565b60006020820190508181036000830152610da781610c61565b9050919050565b60006020820190508181036000830152610dc781610c84565b9050919050565b60006020820190508181036000830152610de781610ca7565b9050919050565b60006020820190508181036000830152610e0781610cca565b9050919050565b60006020820190508181036000830152610e2781610ced565b9050919050565b60006020820190508181036000830152610e4781610d10565b9050919050565b6000610e58610e69565b9050610e648282610f8a565b919050565b6000604051905090565b600067ffffffffffffffff821115610e8e57610e8d610fea565b5b610e978261102d565b9050602081019050919050565b600082825260208201905092915050565b6000610ec082610f71565b9150610ecb83610f71565b9250827fffffffffffffffffffffffffffffffffffffffffffffffffffffffffffffffff03821115610f0057610eff610fbb565b5b828201905092915050565b6000610f1682610f71565b9150610f2183610f71565b925082821015610f3457610f33610fbb565b5b828203905092915050565b6000610f4a82610f51565b9050919050565b600073ffffffffffffffffffffffffffffffffffffffff82169050919050565b6000819050919050565b82818337600083830152505050565b610f938261102d565b810181811067ffffffffffffffff82111715610fb257610fb1610fea565b5b80604052505050565b7f4e487b7100000000000000000000000000000000000000000000000000000000600052601160045260246000fd5b7f4e487b7100000000000000000000000000000000000000000000000000000000600052604160045260246000fd5b600080fd5b600080fd5b600080fd5b600080fd5b6000601f19601f8301169050919050565b7f417065546f6b656e3a207472616e736665722063616c6c6572206973206e6f7460008201527f206f776e6572206e6f7220617070726f76656400000000000000000000000000602082015250565b7f417065546f6b656e3a206d696e7420746f20746865207a65726f20616464726560008201527f7373000000000000000000000000000000000000000000000000000000000000602082015250565b7f417065546f6b656e3a206f776e657220717565727920666f72206e6f6e65786960008201527f7374656e7420746f6b656e000000000000000000000000000000000000000000602082015250565b7f417065546f6b656e3a207472616e73666572206f6620746f6b656e207468617460008201527f206973206e6f74206f776e000000000000000000000000000000000000000000602082015250565b7f417065546f6b656e3a207472616e7366657220746f20746865207a65726f206160008201527f6464726573730000000000000000000000000000000000000000000000000000602082015250565b7f417065546f6b656e3a20746f6b656e20616c7265616479206d696e7465640000600082015250565b7f417065546f6b656e3a20617070726f76656420717565727920666f72206e6f6e60008201527f6578697374656e7420746f6b656e000000000000000000000000000000000000602082015250565b7f417065546f6b656e3a206f70657261746f7220717565727920666f72206e6f6e60008201527f6578697374656e7420746f6b656e000000000000000000000000000000000000602082015250565b61129981610f3f565b81146112a457600080fd5b50565b6112b081610f71565b81146112bb57600080fd5b5056fea2646970667358221220f3ab8b6347605bb00a857478c970d2141b97001830cd5b5fffdec4a65233b70564736f6c63430008060033",
  "linkReferences": {},
  "deployedLinkReferences": {}
}