{
  "_format": "hh-sol-artifact-1",
  "contractName": "ApeToken",
  "sourceName": "contracts/ApeToken.sol",
  "abi": [
    {
      "inputs": [
        {
          "internalType": "uint256",
          "name": "_collectionId",
          "type": "uint256"
        }
      ],
      "stateMutability": "nonpayable",
      "type": "constructor"
    },
    {
      "anonymous": false,
      "inputs": [
        {
          "indexed": true,
          "internalType": "address",
          "name": "owner",
          "type": "address"
        },
        {
          "indexed": true,
          "internalType": "address",
          "name": "approved",
          "type": "address"
        },
        {
          "indexed": true,
          "internalType": "uint256",
          "name": "apeTokenId",
          "type": "uint256"
        }
      ],
      "name": "Approval",
      "type": "event"
    },
    {
      "anonymous": false,
      "inputs": [
        {
          "indexed": true,
          "internalType": "address",
          "name": "from",
          "type": "address"
        },
        {
          "indexed": true,
          "internalType": "address",
          "name": "to",
          "type": "address"
        },
        {
          "indexed": true,
          "internalType": "uint256",
          "name": "apeTokenId",
          "type": "uint256"
        }
      ],
      "name": "Transfer",
      "type": "event"
    },
    {
      "inputs": [
        {
          "internalType": "uint256",
          "name": "_apeTokenId",
          "type": "uint256"
        }
      ],
      "name": "_burn",
      "outputs": [],
      "stateMutability": "nonpayable",
      "type": "function"
    },
    {
      "inputs": [
        {
          "internalType": "address",
          "name": "_to",
          "type": "address"
        },
        {
          "internalType": "uint256",
          "name": "_apeTokenId",
          "type": "uint256"
        },
        {
          "internalType": "bytes",
          "name": "_data",
          "type": "bytes"
        }
      ],
      "name": "_safeMint",
      "outputs": [],
      "stateMutability": "nonpayable",
      "type": "function"
    },
    {
      "inputs": [
        {
          "internalType": "address",
          "name": "_to",
          "type": "address"
        },
        {
          "internalType": "uint256",
          "name": "_apeTokenId",
          "type": "uint256"
        }
      ],
      "name": "_safeMint",
      "outputs": [],
      "stateMutability": "nonpayable",
      "type": "function"
    },
    {
      "inputs": [
        {
          "internalType": "uint256",
          "name": "_apeTokenId",
          "type": "uint256"
        }
      ],
      "name": "getApproved",
      "outputs": [
        {
          "internalType": "address",
          "name": "",
          "type": "address"
        }
      ],
      "stateMutability": "view",
      "type": "function"
    },
    {
      "inputs": [
        {
          "internalType": "uint256",
          "name": "_apeTokenId",
          "type": "uint256"
        }
      ],
      "name": "ownerOf",
      "outputs": [
        {
          "internalType": "address",
          "name": "",
          "type": "address"
        }
      ],
      "stateMutability": "view",
      "type": "function"
    },
    {
      "inputs": [
        {
          "internalType": "uint256",
          "name": "_apeTokenId",
          "type": "uint256"
        }
      ],
      "name": "owners",
      "outputs": [
        {
          "internalType": "address",
          "name": "_ownerAddress",
          "type": "address"
        }
      ],
      "stateMutability": "view",
      "type": "function"
    },
    {
      "inputs": [
        {
          "internalType": "address",
          "name": "_from",
          "type": "address"
        },
        {
          "internalType": "address",
          "name": "_to",
          "type": "address"
        },
        {
          "internalType": "uint256",
          "name": "_apeTokenId",
          "type": "uint256"
        }
      ],
      "name": "safeTransferFrom",
      "outputs": [],
      "stateMutability": "nonpayable",
      "type": "function"
    },
    {
      "inputs": [
        {
          "internalType": "address",
          "name": "_from",
          "type": "address"
        },
        {
          "internalType": "address",
          "name": "_to",
          "type": "address"
        },
        {
          "internalType": "uint256",
          "name": "_apeTokenId",
          "type": "uint256"
        },
        {
          "internalType": "bytes",
          "name": "_data",
          "type": "bytes"
        }
      ],
      "name": "safeTransferFrom",
      "outputs": [],
      "stateMutability": "nonpayable",
      "type": "function"
    }
  ],
  "bytecode": "0x60806040523480156200001157600080fd5b50604051620014e6380380620014e683398181016040528101906200003791906200005c565b8060008190555050620000b7565b60008151905062000056816200009d565b92915050565b60006020828403121562000075576200007462000098565b5b6000620000858482850162000045565b91505092915050565b6000819050919050565b600080fd5b620000a8816200008e565b8114620000b457600080fd5b50565b61141f80620000c76000396000f3fe608060405234801561001057600080fd5b50600436106100885760003560e01c80636a4f832b1161005b5780636a4f832b146101395780639b1f9e7414610155578063b3e1c71814610171578063b88d4fde1461018d57610088565b8063025e7c271461008d578063081812fc146100bd57806342842e0e146100ed5780636352211e14610109575b600080fd5b6100a760048036038101906100a29190610d0a565b6101a9565b6040516100b49190610e5e565b60405180910390f35b6100d760048036038101906100d29190610d0a565b6101e6565b6040516100e49190610e5e565b60405180910390f35b61010760048036038101906101029190610b85565b61026b565b005b610123600480360381019061011e9190610d0a565b61028b565b6040516101309190610e5e565b60405180910390f35b610153600480360381019061014e9190610c9b565b61033d565b005b61016f600480360381019061016a9190610d0a565b61034c565b005b61018b60048036038101906101869190610c5b565b610450565b005b6101a760048036038101906101a29190610bd8565b61046e565b005b60006002600083815260200190815260200160002060009054906101000a900473ffffffffffffffffffffffffffffffffffffffff169050919050565b60006101f1826104d0565b610230576040517f08c379a000000000000000000000000000000000000000000000000000000000815260040161022790610f39565b60405180910390fd5b6003600083815260200190815260200160002060009054906101000a900473ffffffffffffffffffffffffffffffffffffffff169050919050565b6102868383836040518060200160405280600081525061046e565b505050565b6000806002600084815260200190815260200160002060009054906101000a900473ffffffffffffffffffffffffffffffffffffffff169050600073ffffffffffffffffffffffffffffffffffffffff168173ffffffffffffffffffffffffffffffffffffffff161415610334576040517f08c379a000000000000000000000000000000000000000000000000000000000815260040161032b90610eb9565b60405180910390fd5b80915050919050565b610347838361053c565b505050565b60006103578261028b565b90506103646000836106fd565b60018060008373ffffffffffffffffffffffffffffffffffffffff1673ffffffffffffffffffffffffffffffffffffffff16815260200190815260200160002060008282546103b39190611036565b925050819055506002600083815260200190815260200160002060006101000a81549073ffffffffffffffffffffffffffffffffffffffff021916905581600073ffffffffffffffffffffffffffffffffffffffff168273ffffffffffffffffffffffffffffffffffffffff167fddf252ad1be2c89b69c2b068fc378daa952ba7f163c4a11628f55a4df523b3ef60405160405180910390a45050565b61046a82826040518060200160405280600081525061033d565b5050565b61047f6104796107b6565b836107be565b6104be576040517f08c379a00000000000000000000000000000000000000000000000000000000081526004016104b590610e79565b60405180910390fd5b6104ca8484848461088b565b50505050565b60008073ffffffffffffffffffffffffffffffffffffffff166002600084815260200190815260200160002060009054906101000a900473ffffffffffffffffffffffffffffffffffffffff1673ffffffffffffffffffffffffffffffffffffffff1614159050919050565b600073ffffffffffffffffffffffffffffffffffffffff168273ffffffffffffffffffffffffffffffffffffffff1614156105ac576040517f08c379a00000000000000000000000000000000000000000000000000000000081526004016105a390610e99565b60405180910390fd5b6105b5816104d0565b156105f5576040517f08c379a00000000000000000000000000000000000000000000000000000000081526004016105ec90610f19565b60405180910390fd5b60018060008473ffffffffffffffffffffffffffffffffffffffff1673ffffffffffffffffffffffffffffffffffffffff16815260200190815260200160002060008282546106449190610fe0565b92505081905550816002600083815260200190815260200160002060006101000a81548173ffffffffffffffffffffffffffffffffffffffff021916908373ffffffffffffffffffffffffffffffffffffffff160217905550808273ffffffffffffffffffffffffffffffffffffffff16600073ffffffffffffffffffffffffffffffffffffffff167fddf252ad1be2c89b69c2b068fc378daa952ba7f163c4a11628f55a4df523b3ef60405160405180910390a45050565b816003600083815260200190815260200160002060006101000a81548173ffffffffffffffffffffffffffffffffffffffff021916908373ffffffffffffffffffffffffffffffffffffffff160217905550808273ffffffffffffffffffffffffffffffffffffffff166107708361028b565b73ffffffffffffffffffffffffffffffffffffffff167f8c5be1e5ebec7d5bd14f71427d1e84f3dd0314c0f7b2291e5b200ac8c7c3b92560405160405180910390a45050565b600033905090565b60006107c9826104d0565b610808576040517f08c379a00000000000000000000000000000000000000000000000000000000081526004016107ff90610f59565b60405180910390fd5b6000610813836101a9565b90508073ffffffffffffffffffffffffffffffffffffffff168473ffffffffffffffffffffffffffffffffffffffff16148061088257508373ffffffffffffffffffffffffffffffffffffffff1661086a846101e6565b73ffffffffffffffffffffffffffffffffffffffff16145b91505092915050565b61089684848461089c565b50505050565b8273ffffffffffffffffffffffffffffffffffffffff166108bc826101a9565b73ffffffffffffffffffffffffffffffffffffffff1614610912576040517f08c379a000000000000000000000000000000000000000000000000000000000815260040161090990610ed9565b60405180910390fd5b600073ffffffffffffffffffffffffffffffffffffffff168273ffffffffffffffffffffffffffffffffffffffff161415610982576040517f08c379a000000000000000000000000000000000000000000000000000000000815260040161097990610ef9565b60405180910390fd5b61098d6000826106fd565b60018060008573ffffffffffffffffffffffffffffffffffffffff1673ffffffffffffffffffffffffffffffffffffffff16815260200190815260200160002060008282546109dc9190611036565b9250508190555060018060008473ffffffffffffffffffffffffffffffffffffffff1673ffffffffffffffffffffffffffffffffffffffff1681526020019081526020016000206000828254610a329190610fe0565b92505081905550816002600083815260200190815260200160002060006101000a81548173ffffffffffffffffffffffffffffffffffffffff021916908373ffffffffffffffffffffffffffffffffffffffff160217905550808273ffffffffffffffffffffffffffffffffffffffff168473ffffffffffffffffffffffffffffffffffffffff167fddf252ad1be2c89b69c2b068fc378daa952ba7f163c4a11628f55a4df523b3ef60405160405180910390a4505050565b6000610afe610af984610f9e565b610f79565b905082815260208101848484011115610b1a57610b19611149565b5b610b258482856110a6565b509392505050565b600081359050610b3c816113bb565b92915050565b600082601f830112610b5757610b56611144565b5b8135610b67848260208601610aeb565b91505092915050565b600081359050610b7f816113d2565b92915050565b600080600060608486031215610b9e57610b9d611153565b5b6000610bac86828701610b2d565b9350506020610bbd86828701610b2d565b9250506040610bce86828701610b70565b9150509250925092565b60008060008060808587031215610bf257610bf1611153565b5b6000610c0087828801610b2d565b9450506020610c1187828801610b2d565b9350506040610c2287828801610b70565b925050606085013567ffffffffffffffff811115610c4357610c4261114e565b5b610c4f87828801610b42565b91505092959194509250565b60008060408385031215610c7257610c71611153565b5b6000610c8085828601610b2d565b9250506020610c9185828601610b70565b9150509250929050565b600080600060608486031215610cb457610cb3611153565b5b6000610cc286828701610b2d565b9350506020610cd386828701610b70565b925050604084013567ffffffffffffffff811115610cf457610cf361114e565b5b610d0086828701610b42565b9150509250925092565b600060208284031215610d2057610d1f611153565b5b6000610d2e84828501610b70565b91505092915050565b610d408161106a565b82525050565b6000610d53603383610fcf565b9150610d5e82611169565b604082019050919050565b6000610d76602283610fcf565b9150610d81826111b8565b604082019050919050565b6000610d99602b83610fcf565b9150610da482611207565b604082019050919050565b6000610dbc602b83610fcf565b9150610dc782611256565b604082019050919050565b6000610ddf602683610fcf565b9150610dea826112a5565b604082019050919050565b6000610e02601e83610fcf565b9150610e0d826112f4565b602082019050919050565b6000610e25602e83610fcf565b9150610e308261131d565b604082019050919050565b6000610e48602e83610fcf565b9150610e538261136c565b604082019050919050565b6000602082019050610e736000830184610d37565b92915050565b60006020820190508181036000830152610e9281610d46565b9050919050565b60006020820190508181036000830152610eb281610d69565b9050919050565b60006020820190508181036000830152610ed281610d8c565b9050919050565b60006020820190508181036000830152610ef281610daf565b9050919050565b60006020820190508181036000830152610f1281610dd2565b9050919050565b60006020820190508181036000830152610f3281610df5565b9050919050565b60006020820190508181036000830152610f5281610e18565b9050919050565b60006020820190508181036000830152610f7281610e3b565b9050919050565b6000610f83610f94565b9050610f8f82826110b5565b919050565b6000604051905090565b600067ffffffffffffffff821115610fb957610fb8611115565b5b610fc282611158565b9050602081019050919050565b600082825260208201905092915050565b6000610feb8261109c565b9150610ff68361109c565b9250827fffffffffffffffffffffffffffffffffffffffffffffffffffffffffffffffff0382111561102b5761102a6110e6565b5b828201905092915050565b60006110418261109c565b915061104c8361109c565b92508282101561105f5761105e6110e6565b5b828203905092915050565b60006110758261107c565b9050919050565b600073ffffffffffffffffffffffffffffffffffffffff82169050919050565b6000819050919050565b82818337600083830152505050565b6110be82611158565b810181811067ffffffffffffffff821117156110dd576110dc611115565b5b80604052505050565b7f4e487b7100000000000000000000000000000000000000000000000000000000600052601160045260246000fd5b7f4e487b7100000000000000000000000000000000000000000000000000000000600052604160045260246000fd5b600080fd5b600080fd5b600080fd5b600080fd5b6000601f19601f8301169050919050565b7f417065546f6b656e3a207472616e736665722063616c6c6572206973206e6f7460008201527f206f776e6572206e6f7220617070726f76656400000000000000000000000000602082015250565b7f417065546f6b656e3a206d696e7420746f20746865207a65726f20616464726560008201527f7373000000000000000000000000000000000000000000000000000000000000602082015250565b7f417065546f6b656e3a206f776e657220717565727920666f72206e6f6e65786960008201527f7374656e7420746f6b656e000000000000000000000000000000000000000000602082015250565b7f417065546f6b656e3a207472616e73666572206f6620746f6b656e207468617460008201527f206973206e6f74206f776e000000000000000000000000000000000000000000602082015250565b7f417065546f6b656e3a207472616e7366657220746f20746865207a65726f206160008201527f6464726573730000000000000000000000000000000000000000000000000000602082015250565b7f417065546f6b656e3a20746f6b656e20616c7265616479206d696e7465640000600082015250565b7f417065546f6b656e3a20617070726f76656420717565727920666f72206e6f6e60008201527f6578697374656e7420746f6b656e000000000000000000000000000000000000602082015250565b7f417065546f6b656e3a206f70657261746f7220717565727920666f72206e6f6e60008201527f6578697374656e7420746f6b656e000000000000000000000000000000000000602082015250565b6113c48161106a565b81146113cf57600080fd5b50565b6113db8161109c565b81146113e657600080fd5b5056fea2646970667358221220a91f4893d315aa70fe2a291bdc2f0892bec84872e11e9accb919719e75ed54c264736f6c63430008060033",
  "linkReferences": {},
  "deployedLinkReferences": {}
}