{
  "_format": "hh-sol-artifact-1",
  "contractName": "ApeToken",
  "sourceName": "contracts/ApeToken.sol",
  "abi": [
    {
      "inputs": [
        {
          "internalType": "uint256",
          "name": "_collectionId",
          "type": "uint256"
        }
      ],
      "stateMutability": "nonpayable",
      "type": "constructor"
    },
    {
      "anonymous": false,
      "inputs": [
        {
          "indexed": true,
          "internalType": "address",
          "name": "from",
          "type": "address"
        },
        {
          "indexed": true,
          "internalType": "address",
          "name": "to",
          "type": "address"
        },
        {
          "indexed": true,
          "internalType": "uint256",
          "name": "apeTokenId",
          "type": "uint256"
        }
      ],
      "name": "Transfer",
      "type": "event"
    },
    {
      "inputs": [
        {
          "internalType": "address",
          "name": "_to",
          "type": "address"
        },
        {
          "internalType": "uint256",
          "name": "_apeTokenId",
          "type": "uint256"
        }
      ],
      "name": "mint",
      "outputs": [],
      "stateMutability": "nonpayable",
      "type": "function"
    },
    {
      "inputs": [
        {
          "internalType": "uint256",
          "name": "_apeTokenId",
          "type": "uint256"
        }
      ],
      "name": "owners",
      "outputs": [
        {
          "internalType": "address",
          "name": "_ownerAddress",
          "type": "address"
        }
      ],
      "stateMutability": "view",
      "type": "function"
    }
  ],
  "bytecode": "0x608060405234801561001057600080fd5b5060405161058038038061058083398181016040528101906100329190610054565b80600081905550506100a7565b60008151905061004e81610090565b92915050565b60006020828403121561006a5761006961008b565b5b60006100788482850161003f565b91505092915050565b6000819050919050565b600080fd5b61009981610081565b81146100a457600080fd5b50565b6104ca806100b66000396000f3fe608060405234801561001057600080fd5b50600436106100365760003560e01c8063025e7c271461003b57806340c10f191461006b575b600080fd5b610055600480360381019061005091906102a6565b610087565b6040516100629190610305565b60405180910390f35b61008560048036038101906100809190610266565b6100c4565b005b60006002600083815260200190815260200160002060009054906101000a900473ffffffffffffffffffffffffffffffffffffffff169050919050565b600073ffffffffffffffffffffffffffffffffffffffff168273ffffffffffffffffffffffffffffffffffffffff161415610134576040517f08c379a000000000000000000000000000000000000000000000000000000000815260040161012b90610320565b60405180910390fd5b60018060008473ffffffffffffffffffffffffffffffffffffffff1673ffffffffffffffffffffffffffffffffffffffff16815260200190815260200160002060008282546101839190610351565b92505081905550816002600083815260200190815260200160002060006101000a81548173ffffffffffffffffffffffffffffffffffffffff021916908373ffffffffffffffffffffffffffffffffffffffff160217905550808273ffffffffffffffffffffffffffffffffffffffff16600073ffffffffffffffffffffffffffffffffffffffff167fddf252ad1be2c89b69c2b068fc378daa952ba7f163c4a11628f55a4df523b3ef60405160405180910390a45050565b60008135905061024b81610466565b92915050565b6000813590506102608161047d565b92915050565b6000806040838503121561027d5761027c610412565b5b600061028b8582860161023c565b925050602061029c85828601610251565b9150509250929050565b6000602082840312156102bc576102bb610412565b5b60006102ca84828501610251565b91505092915050565b6102dc816103a7565b82525050565b60006102ef602283610340565b91506102fa82610417565b604082019050919050565b600060208201905061031a60008301846102d3565b92915050565b60006020820190508181036000830152610339816102e2565b9050919050565b600082825260208201905092915050565b600061035c826103d9565b9150610367836103d9565b9250827fffffffffffffffffffffffffffffffffffffffffffffffffffffffffffffffff0382111561039c5761039b6103e3565b5b828201905092915050565b60006103b2826103b9565b9050919050565b600073ffffffffffffffffffffffffffffffffffffffff82169050919050565b6000819050919050565b7f4e487b7100000000000000000000000000000000000000000000000000000000600052601160045260246000fd5b600080fd5b7f417065546f6b656e3a206d696e7420746f20746865207a65726f20616464726560008201527f7373000000000000000000000000000000000000000000000000000000000000602082015250565b61046f816103a7565b811461047a57600080fd5b50565b610486816103d9565b811461049157600080fd5b5056fea2646970667358221220564abb190f1fec0ab586a79e577dd06f097da8018866a6b0cdc1ac73801b9e3e64736f6c63430008060033",
  "linkReferences": {},
  "deployedLinkReferences": {}
}