{
  "_format": "hh-sol-artifact-1",
  "contractName": "TestERC721",
  "sourceName": "contracts/TestERC721.sol",
  "abi": [
    {
      "inputs": [
        {
          "internalType": "string",
          "name": "_name",
          "type": "string"
        },
        {
          "internalType": "string",
          "name": "_symbol",
          "type": "string"
        }
      ],
      "stateMutability": "nonpayable",
      "type": "constructor"
    },
    {
      "anonymous": false,
      "inputs": [
        {
          "indexed": true,
          "internalType": "address",
          "name": "owner",
          "type": "address"
        },
        {
          "indexed": true,
          "internalType": "address",
          "name": "approved",
          "type": "address"
        },
        {
          "indexed": true,
          "internalType": "uint256",
          "name": "tokenId",
          "type": "uint256"
        }
      ],
      "name": "Approval",
      "type": "event"
    },
    {
      "anonymous": false,
      "inputs": [
        {
          "indexed": true,
          "internalType": "address",
          "name": "owner",
          "type": "address"
        },
        {
          "indexed": true,
          "internalType": "address",
          "name": "operator",
          "type": "address"
        },
        {
          "indexed": false,
          "internalType": "bool",
          "name": "approved",
          "type": "bool"
        }
      ],
      "name": "ApprovalForAll",
      "type": "event"
    },
    {
      "anonymous": false,
      "inputs": [
        {
          "indexed": true,
          "internalType": "address",
          "name": "from",
          "type": "address"
        },
        {
          "indexed": true,
          "internalType": "address",
          "name": "to",
          "type": "address"
        },
        {
          "indexed": true,
          "internalType": "uint256",
          "name": "tokenId",
          "type": "uint256"
        }
      ],
      "name": "Transfer",
      "type": "event"
    },
    {
      "inputs": [
        {
          "internalType": "address",
          "name": "to",
          "type": "address"
        },
        {
          "internalType": "uint256",
          "name": "tokenId",
          "type": "uint256"
        }
      ],
      "name": "approve",
      "outputs": [],
      "stateMutability": "nonpayable",
      "type": "function"
    },
    {
      "inputs": [
        {
          "internalType": "address",
          "name": "owner",
          "type": "address"
        }
      ],
      "name": "balanceOf",
      "outputs": [
        {
          "internalType": "uint256",
          "name": "",
          "type": "uint256"
        }
      ],
      "stateMutability": "view",
      "type": "function"
    },
    {
      "inputs": [
        {
          "internalType": "uint256",
          "name": "tokenId",
          "type": "uint256"
        }
      ],
      "name": "getApproved",
      "outputs": [
        {
          "internalType": "address",
          "name": "",
          "type": "address"
        }
      ],
      "stateMutability": "view",
      "type": "function"
    },
    {
      "inputs": [
        {
          "internalType": "address",
          "name": "owner",
          "type": "address"
        },
        {
          "internalType": "address",
          "name": "operator",
          "type": "address"
        }
      ],
      "name": "isApprovedForAll",
      "outputs": [
        {
          "internalType": "bool",
          "name": "",
          "type": "bool"
        }
      ],
      "stateMutability": "view",
      "type": "function"
    },
    {
      "inputs": [],
      "name": "name",
      "outputs": [
        {
          "internalType": "string",
          "name": "",
          "type": "string"
        }
      ],
      "stateMutability": "view",
      "type": "function"
    },
    {
      "inputs": [
        {
          "internalType": "uint256",
          "name": "tokenId",
          "type": "uint256"
        }
      ],
      "name": "ownerOf",
      "outputs": [
        {
          "internalType": "address",
          "name": "",
          "type": "address"
        }
      ],
      "stateMutability": "view",
      "type": "function"
    },
    {
      "inputs": [
        {
          "internalType": "address",
          "name": "_to",
          "type": "address"
        },
        {
          "internalType": "uint256",
          "name": "_tokenId",
          "type": "uint256"
        }
      ],
      "name": "safeMint",
      "outputs": [],
      "stateMutability": "nonpayable",
      "type": "function"
    },
    {
      "inputs": [
        {
          "internalType": "address",
          "name": "from",
          "type": "address"
        },
        {
          "internalType": "address",
          "name": "to",
          "type": "address"
        },
        {
          "internalType": "uint256",
          "name": "tokenId",
          "type": "uint256"
        }
      ],
      "name": "safeTransferFrom",
      "outputs": [],
      "stateMutability": "nonpayable",
      "type": "function"
    },
    {
      "inputs": [
        {
          "internalType": "address",
          "name": "from",
          "type": "address"
        },
        {
          "internalType": "address",
          "name": "to",
          "type": "address"
        },
        {
          "internalType": "uint256",
          "name": "tokenId",
          "type": "uint256"
        },
        {
          "internalType": "bytes",
          "name": "_data",
          "type": "bytes"
        }
      ],
      "name": "safeTransferFrom",
      "outputs": [],
      "stateMutability": "nonpayable",
      "type": "function"
    },
    {
      "inputs": [
        {
          "internalType": "address",
          "name": "operator",
          "type": "address"
        },
        {
          "internalType": "bool",
          "name": "approved",
          "type": "bool"
        }
      ],
      "name": "setApprovalForAll",
      "outputs": [],
      "stateMutability": "nonpayable",
      "type": "function"
    },
    {
      "inputs": [
        {
          "internalType": "bytes4",
          "name": "interfaceId",
          "type": "bytes4"
        }
      ],
      "name": "supportsInterface",
      "outputs": [
        {
          "internalType": "bool",
          "name": "",
          "type": "bool"
        }
      ],
      "stateMutability": "view",
      "type": "function"
    },
    {
      "inputs": [],
      "name": "symbol",
      "outputs": [
        {
          "internalType": "string",
          "name": "",
          "type": "string"
        }
      ],
      "stateMutability": "view",
      "type": "function"
    },
    {
      "inputs": [
        {
          "internalType": "uint256",
          "name": "tokenId",
          "type": "uint256"
        }
      ],
      "name": "tokenURI",
      "outputs": [
        {
          "internalType": "string",
          "name": "",
          "type": "string"
        }
      ],
      "stateMutability": "view",
      "type": "function"
    },
    {
      "inputs": [
        {
          "internalType": "address",
          "name": "from",
          "type": "address"
        },
        {
          "internalType": "address",
          "name": "to",
          "type": "address"
        },
        {
          "internalType": "uint256",
          "name": "tokenId",
          "type": "uint256"
        }
      ],
      "name": "transferFrom",
      "outputs": [],
      "stateMutability": "nonpayable",
      "type": "function"
    }
  ],
  "bytecode": "0x60806040523480156200001157600080fd5b5060405162002aec38038062002aec8339818101604052810190620000379190620001a3565b818181600090805190602001906200005192919062000075565b5080600190805190602001906200006a92919062000075565b5050505050620003ac565b8280546200008390620002bd565b90600052602060002090601f016020900481019282620000a75760008555620000f3565b82601f10620000c257805160ff1916838001178555620000f3565b82800160010185558215620000f3579182015b82811115620000f2578251825591602001919060010190620000d5565b5b50905062000102919062000106565b5090565b5b808211156200012157600081600090555060010162000107565b5090565b60006200013c620001368462000251565b62000228565b9050828152602081018484840111156200015b576200015a6200038c565b5b6200016884828562000287565b509392505050565b600082601f83011262000188576200018762000387565b5b81516200019a84826020860162000125565b91505092915050565b60008060408385031215620001bd57620001bc62000396565b5b600083015167ffffffffffffffff811115620001de57620001dd62000391565b5b620001ec8582860162000170565b925050602083015167ffffffffffffffff81111562000210576200020f62000391565b5b6200021e8582860162000170565b9150509250929050565b60006200023462000247565b9050620002428282620002f3565b919050565b6000604051905090565b600067ffffffffffffffff8211156200026f576200026e62000358565b5b6200027a826200039b565b9050602081019050919050565b60005b83811015620002a75780820151818401526020810190506200028a565b83811115620002b7576000848401525b50505050565b60006002820490506001821680620002d657607f821691505b60208210811415620002ed57620002ec62000329565b5b50919050565b620002fe826200039b565b810181811067ffffffffffffffff8211171562000320576200031f62000358565b5b80604052505050565b7f4e487b7100000000000000000000000000000000000000000000000000000000600052602260045260246000fd5b7f4e487b7100000000000000000000000000000000000000000000000000000000600052604160045260246000fd5b600080fd5b600080fd5b600080fd5b600080fd5b6000601f19601f8301169050919050565b61273080620003bc6000396000f3fe608060405234801561001057600080fd5b50600436106100ea5760003560e01c806370a082311161008c578063a22cb46511610066578063a22cb4651461025b578063b88d4fde14610277578063c87b56dd14610293578063e985e9c5146102c3576100ea565b806370a08231146101f157806395d89b4114610221578063a14481941461023f576100ea565b8063095ea7b3116100c8578063095ea7b31461016d57806323b872dd1461018957806342842e0e146101a55780636352211e146101c1576100ea565b806301ffc9a7146100ef57806306fdde031461011f578063081812fc1461013d575b600080fd5b610109600480360381019061010491906118e3565b6102f3565b6040516101169190611caf565b60405180910390f35b6101276103d5565b6040516101349190611cca565b60405180910390f35b6101576004803603810190610152919061193d565b610467565b6040516101649190611c48565b60405180910390f35b610187600480360381019061018291906118a3565b6104ec565b005b6101a3600480360381019061019e919061178d565b610604565b005b6101bf60048036038101906101ba919061178d565b610664565b005b6101db60048036038101906101d6919061193d565b610684565b6040516101e89190611c48565b60405180910390f35b61020b60048036038101906102069190611720565b610736565b6040516102189190611eac565b60405180910390f35b6102296107ee565b6040516102369190611cca565b60405180910390f35b610259600480360381019061025491906118a3565b610880565b005b61027560048036038101906102709190611863565b61088e565b005b610291600480360381019061028c91906117e0565b610a0f565b005b6102ad60048036038101906102a8919061193d565b610a71565b6040516102ba9190611cca565b60405180910390f35b6102dd60048036038101906102d8919061174d565b610b18565b6040516102ea9190611caf565b60405180910390f35b60007f80ac58cd000000000000000000000000000000000000000000000000000000007bffffffffffffffffffffffffffffffffffffffffffffffffffffffff1916827bffffffffffffffffffffffffffffffffffffffffffffffffffffffff191614806103be57507f5b5e139f000000000000000000000000000000000000000000000000000000007bffffffffffffffffffffffffffffffffffffffffffffffffffffffff1916827bffffffffffffffffffffffffffffffffffffffffffffffffffffffff1916145b806103ce57506103cd82610bac565b5b9050919050565b6060600080546103e4906120d1565b80601f0160208091040260200160405190810160405280929190818152602001828054610410906120d1565b801561045d5780601f106104325761010080835404028352916020019161045d565b820191906000526020600020905b81548152906001019060200180831161044057829003601f168201915b5050505050905090565b600061047282610c16565b6104b1576040517f08c379a00000000000000000000000000000000000000000000000000000000081526004016104a890611e0c565b60405180910390fd5b6004600083815260200190815260200160002060009054906101000a900473ffffffffffffffffffffffffffffffffffffffff169050919050565b60006104f782610684565b90508073ffffffffffffffffffffffffffffffffffffffff168373ffffffffffffffffffffffffffffffffffffffff161415610568576040517f08c379a000000000000000000000000000000000000000000000000000000000815260040161055f90611e6c565b60405180910390fd5b8073ffffffffffffffffffffffffffffffffffffffff16610587610c82565b73ffffffffffffffffffffffffffffffffffffffff1614806105b657506105b5816105b0610c82565b610b18565b5b6105f5576040517f08c379a00000000000000000000000000000000000000000000000000000000081526004016105ec90611d8c565b60405180910390fd5b6105ff8383610c8a565b505050565b61061561060f610c82565b82610d43565b610654576040517f08c379a000000000000000000000000000000000000000000000000000000000815260040161064b90611e8c565b60405180910390fd5b61065f838383610e21565b505050565b61067f83838360405180602001604052806000815250610a0f565b505050565b6000806002600084815260200190815260200160002060009054906101000a900473ffffffffffffffffffffffffffffffffffffffff169050600073ffffffffffffffffffffffffffffffffffffffff168173ffffffffffffffffffffffffffffffffffffffff16141561072d576040517f08c379a000000000000000000000000000000000000000000000000000000000815260040161072490611dcc565b60405180910390fd5b80915050919050565b60008073ffffffffffffffffffffffffffffffffffffffff168273ffffffffffffffffffffffffffffffffffffffff1614156107a7576040517f08c379a000000000000000000000000000000000000000000000000000000000815260040161079e90611dac565b60405180910390fd5b600360008373ffffffffffffffffffffffffffffffffffffffff1673ffffffffffffffffffffffffffffffffffffffff168152602001908152602001600020549050919050565b6060600180546107fd906120d1565b80601f0160208091040260200160405190810160405280929190818152602001828054610829906120d1565b80156108765780601f1061084b57610100808354040283529160200191610876565b820191906000526020600020905b81548152906001019060200180831161085957829003601f168201915b5050505050905090565b61088a828261107d565b5050565b610896610c82565b73ffffffffffffffffffffffffffffffffffffffff168273ffffffffffffffffffffffffffffffffffffffff161415610904576040517f08c379a00000000000000000000000000000000000000000000000000000000081526004016108fb90611d4c565b60405180910390fd5b8060056000610911610c82565b73ffffffffffffffffffffffffffffffffffffffff1673ffffffffffffffffffffffffffffffffffffffff16815260200190815260200160002060008473ffffffffffffffffffffffffffffffffffffffff1673ffffffffffffffffffffffffffffffffffffffff16815260200190815260200160002060006101000a81548160ff0219169083151502179055508173ffffffffffffffffffffffffffffffffffffffff166109be610c82565b73ffffffffffffffffffffffffffffffffffffffff167f17307eab39ab6107e8899845ad3d59bd9653f200f220920489ca2b5937696c3183604051610a039190611caf565b60405180910390a35050565b610a20610a1a610c82565b83610d43565b610a5f576040517f08c379a0000000000000000000000000000000000000000000000000000000008152600401610a5690611e8c565b60405180910390fd5b610a6b8484848461109b565b50505050565b6060610a7c82610c16565b610abb576040517f08c379a0000000000000000000000000000000000000000000000000000000008152600401610ab290611e4c565b60405180910390fd5b6000610ac56110f7565b90506000815111610ae55760405180602001604052806000815250610b10565b80610aef8461110e565b604051602001610b00929190611c24565b6040516020818303038152906040525b915050919050565b6000600560008473ffffffffffffffffffffffffffffffffffffffff1673ffffffffffffffffffffffffffffffffffffffff16815260200190815260200160002060008373ffffffffffffffffffffffffffffffffffffffff1673ffffffffffffffffffffffffffffffffffffffff16815260200190815260200160002060009054906101000a900460ff16905092915050565b60007f01ffc9a7000000000000000000000000000000000000000000000000000000007bffffffffffffffffffffffffffffffffffffffffffffffffffffffff1916827bffffffffffffffffffffffffffffffffffffffffffffffffffffffff1916149050919050565b60008073ffffffffffffffffffffffffffffffffffffffff166002600084815260200190815260200160002060009054906101000a900473ffffffffffffffffffffffffffffffffffffffff1673ffffffffffffffffffffffffffffffffffffffff1614159050919050565b600033905090565b816004600083815260200190815260200160002060006101000a81548173ffffffffffffffffffffffffffffffffffffffff021916908373ffffffffffffffffffffffffffffffffffffffff160217905550808273ffffffffffffffffffffffffffffffffffffffff16610cfd83610684565b73ffffffffffffffffffffffffffffffffffffffff167f8c5be1e5ebec7d5bd14f71427d1e84f3dd0314c0f7b2291e5b200ac8c7c3b92560405160405180910390a45050565b6000610d4e82610c16565b610d8d576040517f08c379a0000000000000000000000000000000000000000000000000000000008152600401610d8490611d6c565b60405180910390fd5b6000610d9883610684565b90508073ffffffffffffffffffffffffffffffffffffffff168473ffffffffffffffffffffffffffffffffffffffff161480610e0757508373ffffffffffffffffffffffffffffffffffffffff16610def84610467565b73ffffffffffffffffffffffffffffffffffffffff16145b80610e185750610e178185610b18565b5b91505092915050565b8273ffffffffffffffffffffffffffffffffffffffff16610e4182610684565b73ffffffffffffffffffffffffffffffffffffffff1614610e97576040517f08c379a0000000000000000000000000000000000000000000000000000000008152600401610e8e90611e2c565b60405180910390fd5b600073ffffffffffffffffffffffffffffffffffffffff168273ffffffffffffffffffffffffffffffffffffffff161415610f07576040517f08c379a0000000000000000000000000000000000000000000000000000000008152600401610efe90611d2c565b60405180910390fd5b610f1283838361126f565b610f1d600082610c8a565b6001600360008573ffffffffffffffffffffffffffffffffffffffff1673ffffffffffffffffffffffffffffffffffffffff1681526020019081526020016000206000828254610f6d9190611fe7565b925050819055506001600360008473ffffffffffffffffffffffffffffffffffffffff1673ffffffffffffffffffffffffffffffffffffffff1681526020019081526020016000206000828254610fc49190611f60565b92505081905550816002600083815260200190815260200160002060006101000a81548173ffffffffffffffffffffffffffffffffffffffff021916908373ffffffffffffffffffffffffffffffffffffffff160217905550808273ffffffffffffffffffffffffffffffffffffffff168473ffffffffffffffffffffffffffffffffffffffff167fddf252ad1be2c89b69c2b068fc378daa952ba7f163c4a11628f55a4df523b3ef60405160405180910390a4505050565b611097828260405180602001604052806000815250611274565b5050565b6110a6848484610e21565b6110b2848484846112cf565b6110f1576040517f08c379a00000000000000000000000000000000000000000000000000000000081526004016110e890611cec565b60405180910390fd5b50505050565b606060405180602001604052806000815250905090565b60606000821415611156576040518060400160405280600181526020017f3000000000000000000000000000000000000000000000000000000000000000815250905061126a565b600082905060005b6000821461118857808061117190612134565b915050600a826111819190611fb6565b915061115e565b60008167ffffffffffffffff8111156111a4576111a361226a565b5b6040519080825280601f01601f1916602001820160405280156111d65781602001600182028036833780820191505090505b5090505b60008514611263576001826111ef9190611fe7565b9150600a856111fe919061217d565b603061120a9190611f60565b60f81b8183815181106112205761121f61223b565b5b60200101907effffffffffffffffffffffffffffffffffffffffffffffffffffffffffffff1916908160001a905350600a8561125c9190611fb6565b94506111da565b8093505050505b919050565b505050565b61127e8383611466565b61128b60008484846112cf565b6112ca576040517f08c379a00000000000000000000000000000000000000000000000000000000081526004016112c190611cec565b60405180910390fd5b505050565b60006112f08473ffffffffffffffffffffffffffffffffffffffff16611634565b15611459578373ffffffffffffffffffffffffffffffffffffffff1663150b7a02611319610c82565b8786866040518563ffffffff1660e01b815260040161133b9493929190611c63565b602060405180830381600087803b15801561135557600080fd5b505af192505050801561138657506040513d601f19601f820116820180604052508101906113839190611910565b60015b611409573d80600081146113b6576040519150601f19603f3d011682016040523d82523d6000602084013e6113bb565b606091505b50600081511415611401576040517f08c379a00000000000000000000000000000000000000000000000000000000081526004016113f890611cec565b60405180910390fd5b805181602001fd5b63150b7a0260e01b7bffffffffffffffffffffffffffffffffffffffffffffffffffffffff1916817bffffffffffffffffffffffffffffffffffffffffffffffffffffffff19161491505061145e565b600190505b949350505050565b600073ffffffffffffffffffffffffffffffffffffffff168273ffffffffffffffffffffffffffffffffffffffff1614156114d6576040517f08c379a00000000000000000000000000000000000000000000000000000000081526004016114cd90611dec565b60405180910390fd5b6114df81610c16565b1561151f576040517f08c379a000000000000000000000000000000000000000000000000000000000815260040161151690611d0c565b60405180910390fd5b61152b6000838361126f565b6001600360008473ffffffffffffffffffffffffffffffffffffffff1673ffffffffffffffffffffffffffffffffffffffff168152602001908152602001600020600082825461157b9190611f60565b92505081905550816002600083815260200190815260200160002060006101000a81548173ffffffffffffffffffffffffffffffffffffffff021916908373ffffffffffffffffffffffffffffffffffffffff160217905550808273ffffffffffffffffffffffffffffffffffffffff16600073ffffffffffffffffffffffffffffffffffffffff167fddf252ad1be2c89b69c2b068fc378daa952ba7f163c4a11628f55a4df523b3ef60405160405180910390a45050565b600080823b905060008111915050919050565b600061165a61165584611eec565b611ec7565b9050828152602081018484840111156116765761167561229e565b5b61168184828561208f565b509392505050565b6000813590506116988161269e565b92915050565b6000813590506116ad816126b5565b92915050565b6000813590506116c2816126cc565b92915050565b6000815190506116d7816126cc565b92915050565b600082601f8301126116f2576116f1612299565b5b8135611702848260208601611647565b91505092915050565b60008135905061171a816126e3565b92915050565b600060208284031215611736576117356122a8565b5b600061174484828501611689565b91505092915050565b60008060408385031215611764576117636122a8565b5b600061177285828601611689565b925050602061178385828601611689565b9150509250929050565b6000806000606084860312156117a6576117a56122a8565b5b60006117b486828701611689565b93505060206117c586828701611689565b92505060406117d68682870161170b565b9150509250925092565b600080600080608085870312156117fa576117f96122a8565b5b600061180887828801611689565b945050602061181987828801611689565b935050604061182a8782880161170b565b925050606085013567ffffffffffffffff81111561184b5761184a6122a3565b5b611857878288016116dd565b91505092959194509250565b6000806040838503121561187a576118796122a8565b5b600061188885828601611689565b92505060206118998582860161169e565b9150509250929050565b600080604083850312156118ba576118b96122a8565b5b60006118c885828601611689565b92505060206118d98582860161170b565b9150509250929050565b6000602082840312156118f9576118f86122a8565b5b6000611907848285016116b3565b91505092915050565b600060208284031215611926576119256122a8565b5b6000611934848285016116c8565b91505092915050565b600060208284031215611953576119526122a8565b5b60006119618482850161170b565b91505092915050565b6119738161201b565b82525050565b6119828161202d565b82525050565b600061199382611f1d565b61199d8185611f33565b93506119ad81856020860161209e565b6119b6816122ad565b840191505092915050565b60006119cc82611f28565b6119d68185611f44565b93506119e681856020860161209e565b6119ef816122ad565b840191505092915050565b6000611a0582611f28565b611a0f8185611f55565b9350611a1f81856020860161209e565b80840191505092915050565b6000611a38603283611f44565b9150611a43826122be565b604082019050919050565b6000611a5b601c83611f44565b9150611a668261230d565b602082019050919050565b6000611a7e602483611f44565b9150611a8982612336565b604082019050919050565b6000611aa1601983611f44565b9150611aac82612385565b602082019050919050565b6000611ac4602c83611f44565b9150611acf826123ae565b604082019050919050565b6000611ae7603883611f44565b9150611af2826123fd565b604082019050919050565b6000611b0a602a83611f44565b9150611b158261244c565b604082019050919050565b6000611b2d602983611f44565b9150611b388261249b565b604082019050919050565b6000611b50602083611f44565b9150611b5b826124ea565b602082019050919050565b6000611b73602c83611f44565b9150611b7e82612513565b604082019050919050565b6000611b96602983611f44565b9150611ba182612562565b604082019050919050565b6000611bb9602f83611f44565b9150611bc4826125b1565b604082019050919050565b6000611bdc602183611f44565b9150611be782612600565b604082019050919050565b6000611bff603183611f44565b9150611c0a8261264f565b604082019050919050565b611c1e81612085565b82525050565b6000611c3082856119fa565b9150611c3c82846119fa565b91508190509392505050565b6000602082019050611c5d600083018461196a565b92915050565b6000608082019050611c78600083018761196a565b611c85602083018661196a565b611c926040830185611c15565b8181036060830152611ca48184611988565b905095945050505050565b6000602082019050611cc46000830184611979565b92915050565b60006020820190508181036000830152611ce481846119c1565b905092915050565b60006020820190508181036000830152611d0581611a2b565b9050919050565b60006020820190508181036000830152611d2581611a4e565b9050919050565b60006020820190508181036000830152611d4581611a71565b9050919050565b60006020820190508181036000830152611d6581611a94565b9050919050565b60006020820190508181036000830152611d8581611ab7565b9050919050565b60006020820190508181036000830152611da581611ada565b9050919050565b60006020820190508181036000830152611dc581611afd565b9050919050565b60006020820190508181036000830152611de581611b20565b9050919050565b60006020820190508181036000830152611e0581611b43565b9050919050565b60006020820190508181036000830152611e2581611b66565b9050919050565b60006020820190508181036000830152611e4581611b89565b9050919050565b60006020820190508181036000830152611e6581611bac565b9050919050565b60006020820190508181036000830152611e8581611bcf565b9050919050565b60006020820190508181036000830152611ea581611bf2565b9050919050565b6000602082019050611ec16000830184611c15565b92915050565b6000611ed1611ee2565b9050611edd8282612103565b919050565b6000604051905090565b600067ffffffffffffffff821115611f0757611f0661226a565b5b611f10826122ad565b9050602081019050919050565b600081519050919050565b600081519050919050565b600082825260208201905092915050565b600082825260208201905092915050565b600081905092915050565b6000611f6b82612085565b9150611f7683612085565b9250827fffffffffffffffffffffffffffffffffffffffffffffffffffffffffffffffff03821115611fab57611faa6121ae565b5b828201905092915050565b6000611fc182612085565b9150611fcc83612085565b925082611fdc57611fdb6121dd565b5b828204905092915050565b6000611ff282612085565b9150611ffd83612085565b9250828210156120105761200f6121ae565b5b828203905092915050565b600061202682612065565b9050919050565b60008115159050919050565b60007fffffffff0000000000000000000000000000000000000000000000000000000082169050919050565b600073ffffffffffffffffffffffffffffffffffffffff82169050919050565b6000819050919050565b82818337600083830152505050565b60005b838110156120bc5780820151818401526020810190506120a1565b838111156120cb576000848401525b50505050565b600060028204905060018216806120e957607f821691505b602082108114156120fd576120fc61220c565b5b50919050565b61210c826122ad565b810181811067ffffffffffffffff8211171561212b5761212a61226a565b5b80604052505050565b600061213f82612085565b91507fffffffffffffffffffffffffffffffffffffffffffffffffffffffffffffffff821415612172576121716121ae565b5b600182019050919050565b600061218882612085565b915061219383612085565b9250826121a3576121a26121dd565b5b828206905092915050565b7f4e487b7100000000000000000000000000000000000000000000000000000000600052601160045260246000fd5b7f4e487b7100000000000000000000000000000000000000000000000000000000600052601260045260246000fd5b7f4e487b7100000000000000000000000000000000000000000000000000000000600052602260045260246000fd5b7f4e487b7100000000000000000000000000000000000000000000000000000000600052603260045260246000fd5b7f4e487b7100000000000000000000000000000000000000000000000000000000600052604160045260246000fd5b600080fd5b600080fd5b600080fd5b600080fd5b6000601f19601f8301169050919050565b7f4552433732313a207472616e7366657220746f206e6f6e20455243373231526560008201527f63656976657220696d706c656d656e7465720000000000000000000000000000602082015250565b7f4552433732313a20746f6b656e20616c7265616479206d696e74656400000000600082015250565b7f4552433732313a207472616e7366657220746f20746865207a65726f2061646460008201527f7265737300000000000000000000000000000000000000000000000000000000602082015250565b7f4552433732313a20617070726f766520746f2063616c6c657200000000000000600082015250565b7f4552433732313a206f70657261746f7220717565727920666f72206e6f6e657860008201527f697374656e7420746f6b656e0000000000000000000000000000000000000000602082015250565b7f4552433732313a20617070726f76652063616c6c6572206973206e6f74206f7760008201527f6e6572206e6f7220617070726f76656420666f7220616c6c0000000000000000602082015250565b7f4552433732313a2062616c616e636520717565727920666f7220746865207a6560008201527f726f206164647265737300000000000000000000000000000000000000000000602082015250565b7f4552433732313a206f776e657220717565727920666f72206e6f6e657869737460008201527f656e7420746f6b656e0000000000000000000000000000000000000000000000602082015250565b7f4552433732313a206d696e7420746f20746865207a65726f2061646472657373600082015250565b7f4552433732313a20617070726f76656420717565727920666f72206e6f6e657860008201527f697374656e7420746f6b656e0000000000000000000000000000000000000000602082015250565b7f4552433732313a207472616e73666572206f6620746f6b656e2074686174206960008201527f73206e6f74206f776e0000000000000000000000000000000000000000000000602082015250565b7f4552433732314d657461646174613a2055524920717565727920666f72206e6f60008201527f6e6578697374656e7420746f6b656e0000000000000000000000000000000000602082015250565b7f4552433732313a20617070726f76616c20746f2063757272656e74206f776e6560008201527f7200000000000000000000000000000000000000000000000000000000000000602082015250565b7f4552433732313a207472616e736665722063616c6c6572206973206e6f74206f60008201527f776e6572206e6f7220617070726f766564000000000000000000000000000000602082015250565b6126a78161201b565b81146126b257600080fd5b50565b6126be8161202d565b81146126c957600080fd5b50565b6126d581612039565b81146126e057600080fd5b50565b6126ec81612085565b81146126f757600080fd5b5056fea26469706673582212200f992e708ffcb9b1b082858a2f38317003d2ac5e3e44649d77488c06a5c880f664736f6c63430008060033",
  "linkReferences": {},
  "deployedLinkReferences": {}
}