{
  "_format": "hh-sol-artifact-1",
  "contractName": "TestERC721",
  "sourceName": "contracts/TestERC721.sol",
  "abi": [
    {
      "inputs": [
        {
          "internalType": "string",
          "name": "_name",
          "type": "string"
        },
        {
          "internalType": "string",
          "name": "_symbol",
          "type": "string"
        }
      ],
      "stateMutability": "nonpayable",
      "type": "constructor"
    },
    {
      "anonymous": false,
      "inputs": [
        {
          "indexed": true,
          "internalType": "address",
          "name": "owner",
          "type": "address"
        },
        {
          "indexed": true,
          "internalType": "address",
          "name": "approved",
          "type": "address"
        },
        {
          "indexed": true,
          "internalType": "uint256",
          "name": "tokenId",
          "type": "uint256"
        }
      ],
      "name": "Approval",
      "type": "event"
    },
    {
      "anonymous": false,
      "inputs": [
        {
          "indexed": true,
          "internalType": "address",
          "name": "owner",
          "type": "address"
        },
        {
          "indexed": true,
          "internalType": "address",
          "name": "operator",
          "type": "address"
        },
        {
          "indexed": false,
          "internalType": "bool",
          "name": "approved",
          "type": "bool"
        }
      ],
      "name": "ApprovalForAll",
      "type": "event"
    },
    {
      "anonymous": false,
      "inputs": [
        {
          "indexed": true,
          "internalType": "address",
          "name": "from",
          "type": "address"
        },
        {
          "indexed": true,
          "internalType": "address",
          "name": "to",
          "type": "address"
        },
        {
          "indexed": true,
          "internalType": "uint256",
          "name": "tokenId",
          "type": "uint256"
        }
      ],
      "name": "Transfer",
      "type": "event"
    },
    {
      "inputs": [
        {
          "internalType": "address",
          "name": "to",
          "type": "address"
        },
        {
          "internalType": "uint256",
          "name": "tokenId",
          "type": "uint256"
        }
      ],
      "name": "approve",
      "outputs": [],
      "stateMutability": "nonpayable",
      "type": "function"
    },
    {
      "inputs": [
        {
          "internalType": "address",
          "name": "_to",
          "type": "address"
        },
        {
          "internalType": "uint256",
          "name": "_tokenId",
          "type": "uint256"
        }
      ],
      "name": "approveApeLend",
      "outputs": [],
      "stateMutability": "nonpayable",
      "type": "function"
    },
    {
      "inputs": [
        {
          "internalType": "address",
          "name": "owner",
          "type": "address"
        }
      ],
      "name": "balanceOf",
      "outputs": [
        {
          "internalType": "uint256",
          "name": "",
          "type": "uint256"
        }
      ],
      "stateMutability": "view",
      "type": "function"
    },
    {
      "inputs": [
        {
          "internalType": "uint256",
          "name": "tokenId",
          "type": "uint256"
        }
      ],
      "name": "getApproved",
      "outputs": [
        {
          "internalType": "address",
          "name": "",
          "type": "address"
        }
      ],
      "stateMutability": "view",
      "type": "function"
    },
    {
      "inputs": [
        {
          "internalType": "address",
          "name": "owner",
          "type": "address"
        },
        {
          "internalType": "address",
          "name": "operator",
          "type": "address"
        }
      ],
      "name": "isApprovedForAll",
      "outputs": [
        {
          "internalType": "bool",
          "name": "",
          "type": "bool"
        }
      ],
      "stateMutability": "view",
      "type": "function"
    },
    {
      "inputs": [],
      "name": "name",
      "outputs": [
        {
          "internalType": "string",
          "name": "",
          "type": "string"
        }
      ],
      "stateMutability": "view",
      "type": "function"
    },
    {
      "inputs": [
        {
          "internalType": "uint256",
          "name": "tokenId",
          "type": "uint256"
        }
      ],
      "name": "ownerOf",
      "outputs": [
        {
          "internalType": "address",
          "name": "",
          "type": "address"
        }
      ],
      "stateMutability": "view",
      "type": "function"
    },
    {
      "inputs": [
        {
          "internalType": "address",
          "name": "_to",
          "type": "address"
        },
        {
          "internalType": "uint256",
          "name": "_tokenId",
          "type": "uint256"
        }
      ],
      "name": "safeMint",
      "outputs": [],
      "stateMutability": "nonpayable",
      "type": "function"
    },
    {
      "inputs": [
        {
          "internalType": "address",
          "name": "from",
          "type": "address"
        },
        {
          "internalType": "address",
          "name": "to",
          "type": "address"
        },
        {
          "internalType": "uint256",
          "name": "tokenId",
          "type": "uint256"
        }
      ],
      "name": "safeTransferFrom",
      "outputs": [],
      "stateMutability": "nonpayable",
      "type": "function"
    },
    {
      "inputs": [
        {
          "internalType": "address",
          "name": "from",
          "type": "address"
        },
        {
          "internalType": "address",
          "name": "to",
          "type": "address"
        },
        {
          "internalType": "uint256",
          "name": "tokenId",
          "type": "uint256"
        },
        {
          "internalType": "bytes",
          "name": "_data",
          "type": "bytes"
        }
      ],
      "name": "safeTransferFrom",
      "outputs": [],
      "stateMutability": "nonpayable",
      "type": "function"
    },
    {
      "inputs": [
        {
          "internalType": "address",
          "name": "operator",
          "type": "address"
        },
        {
          "internalType": "bool",
          "name": "approved",
          "type": "bool"
        }
      ],
      "name": "setApprovalForAll",
      "outputs": [],
      "stateMutability": "nonpayable",
      "type": "function"
    },
    {
      "inputs": [
        {
          "internalType": "bytes4",
          "name": "interfaceId",
          "type": "bytes4"
        }
      ],
      "name": "supportsInterface",
      "outputs": [
        {
          "internalType": "bool",
          "name": "",
          "type": "bool"
        }
      ],
      "stateMutability": "view",
      "type": "function"
    },
    {
      "inputs": [],
      "name": "symbol",
      "outputs": [
        {
          "internalType": "string",
          "name": "",
          "type": "string"
        }
      ],
      "stateMutability": "view",
      "type": "function"
    },
    {
      "inputs": [
        {
          "internalType": "address",
          "name": "_from",
          "type": "address"
        },
        {
          "internalType": "address",
          "name": "_to",
          "type": "address"
        },
        {
          "internalType": "uint256",
          "name": "_tokenId",
          "type": "uint256"
        }
      ],
      "name": "testTransferFrom",
      "outputs": [],
      "stateMutability": "nonpayable",
      "type": "function"
    },
    {
      "inputs": [
        {
          "internalType": "uint256",
          "name": "tokenId",
          "type": "uint256"
        }
      ],
      "name": "tokenURI",
      "outputs": [
        {
          "internalType": "string",
          "name": "",
          "type": "string"
        }
      ],
      "stateMutability": "view",
      "type": "function"
    },
    {
      "inputs": [
        {
          "internalType": "address",
          "name": "from",
          "type": "address"
        },
        {
          "internalType": "address",
          "name": "to",
          "type": "address"
        },
        {
          "internalType": "uint256",
          "name": "tokenId",
          "type": "uint256"
        }
      ],
      "name": "transferFrom",
      "outputs": [],
      "stateMutability": "nonpayable",
      "type": "function"
    }
  ],
  "bytecode": "0x60806040523480156200001157600080fd5b5060405162002b5838038062002b588339818101604052810190620000379190620001a3565b818181600090805190602001906200005192919062000075565b5080600190805190602001906200006a92919062000075565b5050505050620003ac565b8280546200008390620002bd565b90600052602060002090601f016020900481019282620000a75760008555620000f3565b82601f10620000c257805160ff1916838001178555620000f3565b82800160010185558215620000f3579182015b82811115620000f2578251825591602001919060010190620000d5565b5b50905062000102919062000106565b5090565b5b808211156200012157600081600090555060010162000107565b5090565b60006200013c620001368462000251565b62000228565b9050828152602081018484840111156200015b576200015a6200038c565b5b6200016884828562000287565b509392505050565b600082601f83011262000188576200018762000387565b5b81516200019a84826020860162000125565b91505092915050565b60008060408385031215620001bd57620001bc62000396565b5b600083015167ffffffffffffffff811115620001de57620001dd62000391565b5b620001ec8582860162000170565b925050602083015167ffffffffffffffff81111562000210576200020f62000391565b5b6200021e8582860162000170565b9150509250929050565b60006200023462000247565b9050620002428282620002f3565b919050565b6000604051905090565b600067ffffffffffffffff8211156200026f576200026e62000358565b5b6200027a826200039b565b9050602081019050919050565b60005b83811015620002a75780820151818401526020810190506200028a565b83811115620002b7576000848401525b50505050565b60006002820490506001821680620002d657607f821691505b60208210811415620002ed57620002ec62000329565b5b50919050565b620002fe826200039b565b810181811067ffffffffffffffff8211171562000320576200031f62000358565b5b80604052505050565b7f4e487b7100000000000000000000000000000000000000000000000000000000600052602260045260246000fd5b7f4e487b7100000000000000000000000000000000000000000000000000000000600052604160045260246000fd5b600080fd5b600080fd5b600080fd5b600080fd5b6000601f19601f8301169050919050565b61279c80620003bc6000396000f3fe608060405234801561001057600080fd5b50600436106101005760003560e01c80636352211e11610097578063a22cb46511610066578063a22cb465146102a9578063b88d4fde146102c5578063c87b56dd146102e1578063e985e9c51461031157610100565b80636352211e1461020f57806370a082311461023f57806395d89b411461026f578063a14481941461028d57610100565b8063095ea7b3116100d3578063095ea7b31461019f5780630ff225c4146101bb57806323b872dd146101d757806342842e0e146101f357610100565b806301ffc9a71461010557806305a37e9a1461013557806306fdde0314610151578063081812fc1461016f575b600080fd5b61011f600480360381019061011a919061194f565b610341565b60405161012c9190611d1b565b60405180910390f35b61014f600480360381019061014a91906117f9565b610423565b005b610159610433565b6040516101669190611d36565b60405180910390f35b610189600480360381019061018491906119a9565b6104c5565b6040516101969190611cb4565b60405180910390f35b6101b960048036038101906101b4919061190f565b61054a565b005b6101d560048036038101906101d0919061190f565b610662565b005b6101f160048036038101906101ec91906117f9565b610670565b005b61020d600480360381019061020891906117f9565b6106d0565b005b610229600480360381019061022491906119a9565b6106f0565b6040516102369190611cb4565b60405180910390f35b6102596004803603810190610254919061178c565b6107a2565b6040516102669190611f18565b60405180910390f35b61027761085a565b6040516102849190611d36565b60405180910390f35b6102a760048036038101906102a2919061190f565b6108ec565b005b6102c360048036038101906102be91906118cf565b6108fa565b005b6102df60048036038101906102da919061184c565b610a7b565b005b6102fb60048036038101906102f691906119a9565b610add565b6040516103089190611d36565b60405180910390f35b61032b600480360381019061032691906117b9565b610b84565b6040516103389190611d1b565b60405180910390f35b60007f80ac58cd000000000000000000000000000000000000000000000000000000007bffffffffffffffffffffffffffffffffffffffffffffffffffffffff1916827bffffffffffffffffffffffffffffffffffffffffffffffffffffffff1916148061040c57507f5b5e139f000000000000000000000000000000000000000000000000000000007bffffffffffffffffffffffffffffffffffffffffffffffffffffffff1916827bffffffffffffffffffffffffffffffffffffffffffffffffffffffff1916145b8061041c575061041b82610c18565b5b9050919050565b61042e8383836106d0565b505050565b6060600080546104429061213d565b80601f016020809104026020016040519081016040528092919081815260200182805461046e9061213d565b80156104bb5780601f10610490576101008083540402835291602001916104bb565b820191906000526020600020905b81548152906001019060200180831161049e57829003601f168201915b5050505050905090565b60006104d082610c82565b61050f576040517f08c379a000000000000000000000000000000000000000000000000000000000815260040161050690611e78565b60405180910390fd5b6004600083815260200190815260200160002060009054906101000a900473ffffffffffffffffffffffffffffffffffffffff169050919050565b6000610555826106f0565b90508073ffffffffffffffffffffffffffffffffffffffff168373ffffffffffffffffffffffffffffffffffffffff1614156105c6576040517f08c379a00000000000000000000000000000000000000000000000000000000081526004016105bd90611ed8565b60405180910390fd5b8073ffffffffffffffffffffffffffffffffffffffff166105e5610cee565b73ffffffffffffffffffffffffffffffffffffffff16148061061457506106138161060e610cee565b610b84565b5b610653576040517f08c379a000000000000000000000000000000000000000000000000000000000815260040161064a90611df8565b60405180910390fd5b61065d8383610cf6565b505050565b61066c828261054a565b5050565b61068161067b610cee565b82610daf565b6106c0576040517f08c379a00000000000000000000000000000000000000000000000000000000081526004016106b790611ef8565b60405180910390fd5b6106cb838383610e8d565b505050565b6106eb83838360405180602001604052806000815250610a7b565b505050565b6000806002600084815260200190815260200160002060009054906101000a900473ffffffffffffffffffffffffffffffffffffffff169050600073ffffffffffffffffffffffffffffffffffffffff168173ffffffffffffffffffffffffffffffffffffffff161415610799576040517f08c379a000000000000000000000000000000000000000000000000000000000815260040161079090611e38565b60405180910390fd5b80915050919050565b60008073ffffffffffffffffffffffffffffffffffffffff168273ffffffffffffffffffffffffffffffffffffffff161415610813576040517f08c379a000000000000000000000000000000000000000000000000000000000815260040161080a90611e18565b60405180910390fd5b600360008373ffffffffffffffffffffffffffffffffffffffff1673ffffffffffffffffffffffffffffffffffffffff168152602001908152602001600020549050919050565b6060600180546108699061213d565b80601f01602080910402602001604051908101604052809291908181526020018280546108959061213d565b80156108e25780601f106108b7576101008083540402835291602001916108e2565b820191906000526020600020905b8154815290600101906020018083116108c557829003601f168201915b5050505050905090565b6108f682826110e9565b5050565b610902610cee565b73ffffffffffffffffffffffffffffffffffffffff168273ffffffffffffffffffffffffffffffffffffffff161415610970576040517f08c379a000000000000000000000000000000000000000000000000000000000815260040161096790611db8565b60405180910390fd5b806005600061097d610cee565b73ffffffffffffffffffffffffffffffffffffffff1673ffffffffffffffffffffffffffffffffffffffff16815260200190815260200160002060008473ffffffffffffffffffffffffffffffffffffffff1673ffffffffffffffffffffffffffffffffffffffff16815260200190815260200160002060006101000a81548160ff0219169083151502179055508173ffffffffffffffffffffffffffffffffffffffff16610a2a610cee565b73ffffffffffffffffffffffffffffffffffffffff167f17307eab39ab6107e8899845ad3d59bd9653f200f220920489ca2b5937696c3183604051610a6f9190611d1b565b60405180910390a35050565b610a8c610a86610cee565b83610daf565b610acb576040517f08c379a0000000000000000000000000000000000000000000000000000000008152600401610ac290611ef8565b60405180910390fd5b610ad784848484611107565b50505050565b6060610ae882610c82565b610b27576040517f08c379a0000000000000000000000000000000000000000000000000000000008152600401610b1e90611eb8565b60405180910390fd5b6000610b31611163565b90506000815111610b515760405180602001604052806000815250610b7c565b80610b5b8461117a565b604051602001610b6c929190611c90565b6040516020818303038152906040525b915050919050565b6000600560008473ffffffffffffffffffffffffffffffffffffffff1673ffffffffffffffffffffffffffffffffffffffff16815260200190815260200160002060008373ffffffffffffffffffffffffffffffffffffffff1673ffffffffffffffffffffffffffffffffffffffff16815260200190815260200160002060009054906101000a900460ff16905092915050565b60007f01ffc9a7000000000000000000000000000000000000000000000000000000007bffffffffffffffffffffffffffffffffffffffffffffffffffffffff1916827bffffffffffffffffffffffffffffffffffffffffffffffffffffffff1916149050919050565b60008073ffffffffffffffffffffffffffffffffffffffff166002600084815260200190815260200160002060009054906101000a900473ffffffffffffffffffffffffffffffffffffffff1673ffffffffffffffffffffffffffffffffffffffff1614159050919050565b600033905090565b816004600083815260200190815260200160002060006101000a81548173ffffffffffffffffffffffffffffffffffffffff021916908373ffffffffffffffffffffffffffffffffffffffff160217905550808273ffffffffffffffffffffffffffffffffffffffff16610d69836106f0565b73ffffffffffffffffffffffffffffffffffffffff167f8c5be1e5ebec7d5bd14f71427d1e84f3dd0314c0f7b2291e5b200ac8c7c3b92560405160405180910390a45050565b6000610dba82610c82565b610df9576040517f08c379a0000000000000000000000000000000000000000000000000000000008152600401610df090611dd8565b60405180910390fd5b6000610e04836106f0565b90508073ffffffffffffffffffffffffffffffffffffffff168473ffffffffffffffffffffffffffffffffffffffff161480610e7357508373ffffffffffffffffffffffffffffffffffffffff16610e5b846104c5565b73ffffffffffffffffffffffffffffffffffffffff16145b80610e845750610e838185610b84565b5b91505092915050565b8273ffffffffffffffffffffffffffffffffffffffff16610ead826106f0565b73ffffffffffffffffffffffffffffffffffffffff1614610f03576040517f08c379a0000000000000000000000000000000000000000000000000000000008152600401610efa90611e98565b60405180910390fd5b600073ffffffffffffffffffffffffffffffffffffffff168273ffffffffffffffffffffffffffffffffffffffff161415610f73576040517f08c379a0000000000000000000000000000000000000000000000000000000008152600401610f6a90611d98565b60405180910390fd5b610f7e8383836112db565b610f89600082610cf6565b6001600360008573ffffffffffffffffffffffffffffffffffffffff1673ffffffffffffffffffffffffffffffffffffffff1681526020019081526020016000206000828254610fd99190612053565b925050819055506001600360008473ffffffffffffffffffffffffffffffffffffffff1673ffffffffffffffffffffffffffffffffffffffff16815260200190815260200160002060008282546110309190611fcc565b92505081905550816002600083815260200190815260200160002060006101000a81548173ffffffffffffffffffffffffffffffffffffffff021916908373ffffffffffffffffffffffffffffffffffffffff160217905550808273ffffffffffffffffffffffffffffffffffffffff168473ffffffffffffffffffffffffffffffffffffffff167fddf252ad1be2c89b69c2b068fc378daa952ba7f163c4a11628f55a4df523b3ef60405160405180910390a4505050565b6111038282604051806020016040528060008152506112e0565b5050565b611112848484610e8d565b61111e8484848461133b565b61115d576040517f08c379a000000000000000000000000000000000000000000000000000000000815260040161115490611d58565b60405180910390fd5b50505050565b606060405180602001604052806000815250905090565b606060008214156111c2576040518060400160405280600181526020017f300000000000000000000000000000000000000000000000000000000000000081525090506112d6565b600082905060005b600082146111f45780806111dd906121a0565b915050600a826111ed9190612022565b91506111ca565b60008167ffffffffffffffff8111156112105761120f6122d6565b5b6040519080825280601f01601f1916602001820160405280156112425781602001600182028036833780820191505090505b5090505b600085146112cf5760018261125b9190612053565b9150600a8561126a91906121e9565b60306112769190611fcc565b60f81b81838151811061128c5761128b6122a7565b5b60200101907effffffffffffffffffffffffffffffffffffffffffffffffffffffffffffff1916908160001a905350600a856112c89190612022565b9450611246565b8093505050505b919050565b505050565b6112ea83836114d2565b6112f7600084848461133b565b611336576040517f08c379a000000000000000000000000000000000000000000000000000000000815260040161132d90611d58565b60405180910390fd5b505050565b600061135c8473ffffffffffffffffffffffffffffffffffffffff166116a0565b156114c5578373ffffffffffffffffffffffffffffffffffffffff1663150b7a02611385610cee565b8786866040518563ffffffff1660e01b81526004016113a79493929190611ccf565b602060405180830381600087803b1580156113c157600080fd5b505af19250505080156113f257506040513d601f19601f820116820180604052508101906113ef919061197c565b60015b611475573d8060008114611422576040519150601f19603f3d011682016040523d82523d6000602084013e611427565b606091505b5060008151141561146d576040517f08c379a000000000000000000000000000000000000000000000000000000000815260040161146490611d58565b60405180910390fd5b805181602001fd5b63150b7a0260e01b7bffffffffffffffffffffffffffffffffffffffffffffffffffffffff1916817bffffffffffffffffffffffffffffffffffffffffffffffffffffffff1916149150506114ca565b600190505b949350505050565b600073ffffffffffffffffffffffffffffffffffffffff168273ffffffffffffffffffffffffffffffffffffffff161415611542576040517f08c379a000000000000000000000000000000000000000000000000000000000815260040161153990611e58565b60405180910390fd5b61154b81610c82565b1561158b576040517f08c379a000000000000000000000000000000000000000000000000000000000815260040161158290611d78565b60405180910390fd5b611597600083836112db565b6001600360008473ffffffffffffffffffffffffffffffffffffffff1673ffffffffffffffffffffffffffffffffffffffff16815260200190815260200160002060008282546115e79190611fcc565b92505081905550816002600083815260200190815260200160002060006101000a81548173ffffffffffffffffffffffffffffffffffffffff021916908373ffffffffffffffffffffffffffffffffffffffff160217905550808273ffffffffffffffffffffffffffffffffffffffff16600073ffffffffffffffffffffffffffffffffffffffff167fddf252ad1be2c89b69c2b068fc378daa952ba7f163c4a11628f55a4df523b3ef60405160405180910390a45050565b600080823b905060008111915050919050565b60006116c66116c184611f58565b611f33565b9050828152602081018484840111156116e2576116e161230a565b5b6116ed8482856120fb565b509392505050565b6000813590506117048161270a565b92915050565b60008135905061171981612721565b92915050565b60008135905061172e81612738565b92915050565b60008151905061174381612738565b92915050565b600082601f83011261175e5761175d612305565b5b813561176e8482602086016116b3565b91505092915050565b6000813590506117868161274f565b92915050565b6000602082840312156117a2576117a1612314565b5b60006117b0848285016116f5565b91505092915050565b600080604083850312156117d0576117cf612314565b5b60006117de858286016116f5565b92505060206117ef858286016116f5565b9150509250929050565b60008060006060848603121561181257611811612314565b5b6000611820868287016116f5565b9350506020611831868287016116f5565b925050604061184286828701611777565b9150509250925092565b6000806000806080858703121561186657611865612314565b5b6000611874878288016116f5565b9450506020611885878288016116f5565b935050604061189687828801611777565b925050606085013567ffffffffffffffff8111156118b7576118b661230f565b5b6118c387828801611749565b91505092959194509250565b600080604083850312156118e6576118e5612314565b5b60006118f4858286016116f5565b92505060206119058582860161170a565b9150509250929050565b6000806040838503121561192657611925612314565b5b6000611934858286016116f5565b925050602061194585828601611777565b9150509250929050565b60006020828403121561196557611964612314565b5b60006119738482850161171f565b91505092915050565b60006020828403121561199257611991612314565b5b60006119a084828501611734565b91505092915050565b6000602082840312156119bf576119be612314565b5b60006119cd84828501611777565b91505092915050565b6119df81612087565b82525050565b6119ee81612099565b82525050565b60006119ff82611f89565b611a098185611f9f565b9350611a1981856020860161210a565b611a2281612319565b840191505092915050565b6000611a3882611f94565b611a428185611fb0565b9350611a5281856020860161210a565b611a5b81612319565b840191505092915050565b6000611a7182611f94565b611a7b8185611fc1565b9350611a8b81856020860161210a565b80840191505092915050565b6000611aa4603283611fb0565b9150611aaf8261232a565b604082019050919050565b6000611ac7601c83611fb0565b9150611ad282612379565b602082019050919050565b6000611aea602483611fb0565b9150611af5826123a2565b604082019050919050565b6000611b0d601983611fb0565b9150611b18826123f1565b602082019050919050565b6000611b30602c83611fb0565b9150611b3b8261241a565b604082019050919050565b6000611b53603883611fb0565b9150611b5e82612469565b604082019050919050565b6000611b76602a83611fb0565b9150611b81826124b8565b604082019050919050565b6000611b99602983611fb0565b9150611ba482612507565b604082019050919050565b6000611bbc602083611fb0565b9150611bc782612556565b602082019050919050565b6000611bdf602c83611fb0565b9150611bea8261257f565b604082019050919050565b6000611c02602983611fb0565b9150611c0d826125ce565b604082019050919050565b6000611c25602f83611fb0565b9150611c308261261d565b604082019050919050565b6000611c48602183611fb0565b9150611c538261266c565b604082019050919050565b6000611c6b603183611fb0565b9150611c76826126bb565b604082019050919050565b611c8a816120f1565b82525050565b6000611c9c8285611a66565b9150611ca88284611a66565b91508190509392505050565b6000602082019050611cc960008301846119d6565b92915050565b6000608082019050611ce460008301876119d6565b611cf160208301866119d6565b611cfe6040830185611c81565b8181036060830152611d1081846119f4565b905095945050505050565b6000602082019050611d3060008301846119e5565b92915050565b60006020820190508181036000830152611d508184611a2d565b905092915050565b60006020820190508181036000830152611d7181611a97565b9050919050565b60006020820190508181036000830152611d9181611aba565b9050919050565b60006020820190508181036000830152611db181611add565b9050919050565b60006020820190508181036000830152611dd181611b00565b9050919050565b60006020820190508181036000830152611df181611b23565b9050919050565b60006020820190508181036000830152611e1181611b46565b9050919050565b60006020820190508181036000830152611e3181611b69565b9050919050565b60006020820190508181036000830152611e5181611b8c565b9050919050565b60006020820190508181036000830152611e7181611baf565b9050919050565b60006020820190508181036000830152611e9181611bd2565b9050919050565b60006020820190508181036000830152611eb181611bf5565b9050919050565b60006020820190508181036000830152611ed181611c18565b9050919050565b60006020820190508181036000830152611ef181611c3b565b9050919050565b60006020820190508181036000830152611f1181611c5e565b9050919050565b6000602082019050611f2d6000830184611c81565b92915050565b6000611f3d611f4e565b9050611f49828261216f565b919050565b6000604051905090565b600067ffffffffffffffff821115611f7357611f726122d6565b5b611f7c82612319565b9050602081019050919050565b600081519050919050565b600081519050919050565b600082825260208201905092915050565b600082825260208201905092915050565b600081905092915050565b6000611fd7826120f1565b9150611fe2836120f1565b9250827fffffffffffffffffffffffffffffffffffffffffffffffffffffffffffffffff038211156120175761201661221a565b5b828201905092915050565b600061202d826120f1565b9150612038836120f1565b92508261204857612047612249565b5b828204905092915050565b600061205e826120f1565b9150612069836120f1565b92508282101561207c5761207b61221a565b5b828203905092915050565b6000612092826120d1565b9050919050565b60008115159050919050565b60007fffffffff0000000000000000000000000000000000000000000000000000000082169050919050565b600073ffffffffffffffffffffffffffffffffffffffff82169050919050565b6000819050919050565b82818337600083830152505050565b60005b8381101561212857808201518184015260208101905061210d565b83811115612137576000848401525b50505050565b6000600282049050600182168061215557607f821691505b6020821081141561216957612168612278565b5b50919050565b61217882612319565b810181811067ffffffffffffffff82111715612197576121966122d6565b5b80604052505050565b60006121ab826120f1565b91507fffffffffffffffffffffffffffffffffffffffffffffffffffffffffffffffff8214156121de576121dd61221a565b5b600182019050919050565b60006121f4826120f1565b91506121ff836120f1565b92508261220f5761220e612249565b5b828206905092915050565b7f4e487b7100000000000000000000000000000000000000000000000000000000600052601160045260246000fd5b7f4e487b7100000000000000000000000000000000000000000000000000000000600052601260045260246000fd5b7f4e487b7100000000000000000000000000000000000000000000000000000000600052602260045260246000fd5b7f4e487b7100000000000000000000000000000000000000000000000000000000600052603260045260246000fd5b7f4e487b7100000000000000000000000000000000000000000000000000000000600052604160045260246000fd5b600080fd5b600080fd5b600080fd5b600080fd5b6000601f19601f8301169050919050565b7f4552433732313a207472616e7366657220746f206e6f6e20455243373231526560008201527f63656976657220696d706c656d656e7465720000000000000000000000000000602082015250565b7f4552433732313a20746f6b656e20616c7265616479206d696e74656400000000600082015250565b7f4552433732313a207472616e7366657220746f20746865207a65726f2061646460008201527f7265737300000000000000000000000000000000000000000000000000000000602082015250565b7f4552433732313a20617070726f766520746f2063616c6c657200000000000000600082015250565b7f4552433732313a206f70657261746f7220717565727920666f72206e6f6e657860008201527f697374656e7420746f6b656e0000000000000000000000000000000000000000602082015250565b7f4552433732313a20617070726f76652063616c6c6572206973206e6f74206f7760008201527f6e6572206e6f7220617070726f76656420666f7220616c6c0000000000000000602082015250565b7f4552433732313a2062616c616e636520717565727920666f7220746865207a6560008201527f726f206164647265737300000000000000000000000000000000000000000000602082015250565b7f4552433732313a206f776e657220717565727920666f72206e6f6e657869737460008201527f656e7420746f6b656e0000000000000000000000000000000000000000000000602082015250565b7f4552433732313a206d696e7420746f20746865207a65726f2061646472657373600082015250565b7f4552433732313a20617070726f76656420717565727920666f72206e6f6e657860008201527f697374656e7420746f6b656e0000000000000000000000000000000000000000602082015250565b7f4552433732313a207472616e73666572206f6620746f6b656e2074686174206960008201527f73206e6f74206f776e0000000000000000000000000000000000000000000000602082015250565b7f4552433732314d657461646174613a2055524920717565727920666f72206e6f60008201527f6e6578697374656e7420746f6b656e0000000000000000000000000000000000602082015250565b7f4552433732313a20617070726f76616c20746f2063757272656e74206f776e6560008201527f7200000000000000000000000000000000000000000000000000000000000000602082015250565b7f4552433732313a207472616e736665722063616c6c6572206973206e6f74206f60008201527f776e6572206e6f7220617070726f766564000000000000000000000000000000602082015250565b61271381612087565b811461271e57600080fd5b50565b61272a81612099565b811461273557600080fd5b50565b612741816120a5565b811461274c57600080fd5b50565b612758816120f1565b811461276357600080fd5b5056fea2646970667358221220db628d260a1e9d1ae8790264067f485d743111486e23cc3b5efda5ea92812fa664736f6c63430008060033",
  "linkReferences": {},
  "deployedLinkReferences": {}
}