{
  "_format": "hh-sol-artifact-1",
  "contractName": "TestERC721",
  "sourceName": "contracts/TestERC721.sol",
  "abi": [
    {
      "inputs": [
        {
          "internalType": "string",
          "name": "_name",
          "type": "string"
        },
        {
          "internalType": "string",
          "name": "_symbol",
          "type": "string"
        }
      ],
      "stateMutability": "nonpayable",
      "type": "constructor"
    },
    {
      "anonymous": false,
      "inputs": [
        {
          "indexed": true,
          "internalType": "address",
          "name": "owner",
          "type": "address"
        },
        {
          "indexed": true,
          "internalType": "address",
          "name": "approved",
          "type": "address"
        },
        {
          "indexed": true,
          "internalType": "uint256",
          "name": "tokenId",
          "type": "uint256"
        }
      ],
      "name": "Approval",
      "type": "event"
    },
    {
      "anonymous": false,
      "inputs": [
        {
          "indexed": true,
          "internalType": "address",
          "name": "owner",
          "type": "address"
        },
        {
          "indexed": true,
          "internalType": "address",
          "name": "operator",
          "type": "address"
        },
        {
          "indexed": false,
          "internalType": "bool",
          "name": "approved",
          "type": "bool"
        }
      ],
      "name": "ApprovalForAll",
      "type": "event"
    },
    {
      "anonymous": false,
      "inputs": [
        {
          "indexed": true,
          "internalType": "address",
          "name": "from",
          "type": "address"
        },
        {
          "indexed": true,
          "internalType": "address",
          "name": "to",
          "type": "address"
        },
        {
          "indexed": true,
          "internalType": "uint256",
          "name": "tokenId",
          "type": "uint256"
        }
      ],
      "name": "Transfer",
      "type": "event"
    },
    {
      "inputs": [
        {
          "internalType": "address",
          "name": "to",
          "type": "address"
        },
        {
          "internalType": "uint256",
          "name": "tokenId",
          "type": "uint256"
        }
      ],
      "name": "approve",
      "outputs": [],
      "stateMutability": "nonpayable",
      "type": "function"
    },
    {
      "inputs": [
        {
          "internalType": "address",
          "name": "_to",
          "type": "address"
        },
        {
          "internalType": "uint256",
          "name": "_tokenId",
          "type": "uint256"
        }
      ],
      "name": "approveApeLend",
      "outputs": [],
      "stateMutability": "nonpayable",
      "type": "function"
    },
    {
      "inputs": [
        {
          "internalType": "address",
          "name": "owner",
          "type": "address"
        }
      ],
      "name": "balanceOf",
      "outputs": [
        {
          "internalType": "uint256",
          "name": "",
          "type": "uint256"
        }
      ],
      "stateMutability": "view",
      "type": "function"
    },
    {
      "inputs": [
        {
          "internalType": "uint256",
          "name": "tokenId",
          "type": "uint256"
        }
      ],
      "name": "getApproved",
      "outputs": [
        {
          "internalType": "address",
          "name": "",
          "type": "address"
        }
      ],
      "stateMutability": "view",
      "type": "function"
    },
    {
      "inputs": [
        {
          "internalType": "address",
          "name": "owner",
          "type": "address"
        },
        {
          "internalType": "address",
          "name": "operator",
          "type": "address"
        }
      ],
      "name": "isApprovedForAll",
      "outputs": [
        {
          "internalType": "bool",
          "name": "",
          "type": "bool"
        }
      ],
      "stateMutability": "view",
      "type": "function"
    },
    {
      "inputs": [],
      "name": "name",
      "outputs": [
        {
          "internalType": "string",
          "name": "",
          "type": "string"
        }
      ],
      "stateMutability": "view",
      "type": "function"
    },
    {
      "inputs": [
        {
          "internalType": "uint256",
          "name": "tokenId",
          "type": "uint256"
        }
      ],
      "name": "ownerOf",
      "outputs": [
        {
          "internalType": "address",
          "name": "",
          "type": "address"
        }
      ],
      "stateMutability": "view",
      "type": "function"
    },
    {
      "inputs": [
        {
          "internalType": "address",
          "name": "_to",
          "type": "address"
        },
        {
          "internalType": "uint256",
          "name": "_tokenId",
          "type": "uint256"
        }
      ],
      "name": "safeMint",
      "outputs": [],
      "stateMutability": "nonpayable",
      "type": "function"
    },
    {
      "inputs": [
        {
          "internalType": "address",
          "name": "from",
          "type": "address"
        },
        {
          "internalType": "address",
          "name": "to",
          "type": "address"
        },
        {
          "internalType": "uint256",
          "name": "tokenId",
          "type": "uint256"
        }
      ],
      "name": "safeTransferFrom",
      "outputs": [],
      "stateMutability": "nonpayable",
      "type": "function"
    },
    {
      "inputs": [
        {
          "internalType": "address",
          "name": "from",
          "type": "address"
        },
        {
          "internalType": "address",
          "name": "to",
          "type": "address"
        },
        {
          "internalType": "uint256",
          "name": "tokenId",
          "type": "uint256"
        },
        {
          "internalType": "bytes",
          "name": "_data",
          "type": "bytes"
        }
      ],
      "name": "safeTransferFrom",
      "outputs": [],
      "stateMutability": "nonpayable",
      "type": "function"
    },
    {
      "inputs": [
        {
          "internalType": "address",
          "name": "operator",
          "type": "address"
        },
        {
          "internalType": "bool",
          "name": "approved",
          "type": "bool"
        }
      ],
      "name": "setApprovalForAll",
      "outputs": [],
      "stateMutability": "nonpayable",
      "type": "function"
    },
    {
      "inputs": [
        {
          "internalType": "bytes4",
          "name": "interfaceId",
          "type": "bytes4"
        }
      ],
      "name": "supportsInterface",
      "outputs": [
        {
          "internalType": "bool",
          "name": "",
          "type": "bool"
        }
      ],
      "stateMutability": "view",
      "type": "function"
    },
    {
      "inputs": [],
      "name": "symbol",
      "outputs": [
        {
          "internalType": "string",
          "name": "",
          "type": "string"
        }
      ],
      "stateMutability": "view",
      "type": "function"
    },
    {
      "inputs": [
        {
          "internalType": "uint256",
          "name": "tokenId",
          "type": "uint256"
        }
      ],
      "name": "tokenURI",
      "outputs": [
        {
          "internalType": "string",
          "name": "",
          "type": "string"
        }
      ],
      "stateMutability": "view",
      "type": "function"
    },
    {
      "inputs": [
        {
          "internalType": "address",
          "name": "from",
          "type": "address"
        },
        {
          "internalType": "address",
          "name": "to",
          "type": "address"
        },
        {
          "internalType": "uint256",
          "name": "tokenId",
          "type": "uint256"
        }
      ],
      "name": "transferFrom",
      "outputs": [],
      "stateMutability": "nonpayable",
      "type": "function"
    }
  ],
  "bytecode": "0x60806040523480156200001157600080fd5b5060405162002cc538038062002cc58339818101604052810190620000379190620001a3565b818181600090805190602001906200005192919062000075565b5080600190805190602001906200006a92919062000075565b5050505050620003ac565b8280546200008390620002bd565b90600052602060002090601f016020900481019282620000a75760008555620000f3565b82601f10620000c257805160ff1916838001178555620000f3565b82800160010185558215620000f3579182015b82811115620000f2578251825591602001919060010190620000d5565b5b50905062000102919062000106565b5090565b5b808211156200012157600081600090555060010162000107565b5090565b60006200013c620001368462000251565b62000228565b9050828152602081018484840111156200015b576200015a6200038c565b5b6200016884828562000287565b509392505050565b600082601f83011262000188576200018762000387565b5b81516200019a84826020860162000125565b91505092915050565b60008060408385031215620001bd57620001bc62000396565b5b600083015167ffffffffffffffff811115620001de57620001dd62000391565b5b620001ec8582860162000170565b925050602083015167ffffffffffffffff81111562000210576200020f62000391565b5b6200021e8582860162000170565b9150509250929050565b60006200023462000247565b9050620002428282620002f3565b919050565b6000604051905090565b600067ffffffffffffffff8211156200026f576200026e62000358565b5b6200027a826200039b565b9050602081019050919050565b60005b83811015620002a75780820151818401526020810190506200028a565b83811115620002b7576000848401525b50505050565b60006002820490506001821680620002d657607f821691505b60208210811415620002ed57620002ec62000329565b5b50919050565b620002fe826200039b565b810181811067ffffffffffffffff8211171562000320576200031f62000358565b5b80604052505050565b7f4e487b7100000000000000000000000000000000000000000000000000000000600052602260045260246000fd5b7f4e487b7100000000000000000000000000000000000000000000000000000000600052604160045260246000fd5b600080fd5b600080fd5b600080fd5b600080fd5b6000601f19601f8301169050919050565b61290980620003bc6000396000f3fe608060405234801561001057600080fd5b50600436106100f55760003560e01c80636352211e11610097578063a22cb46511610066578063a22cb46514610282578063b88d4fde1461029e578063c87b56dd146102ba578063e985e9c5146102ea576100f5565b80636352211e146101e857806370a082311461021857806395d89b4114610248578063a144819414610266576100f5565b8063095ea7b3116100d3578063095ea7b3146101785780630ff225c41461019457806323b872dd146101b057806342842e0e146101cc576100f5565b806301ffc9a7146100fa57806306fdde031461012a578063081812fc14610148575b600080fd5b610114600480360381019061010f9190611a21565b61031a565b6040516101219190611ded565b60405180910390f35b6101326103fc565b60405161013f9190611e08565b60405180910390f35b610162600480360381019061015d9190611a7b565b61048e565b60405161016f9190611d86565b60405180910390f35b610192600480360381019061018d91906119e1565b610513565b005b6101ae60048036038101906101a991906119e1565b61064d565b005b6101ca60048036038101906101c591906118cb565b61067d565b005b6101e660048036038101906101e191906118cb565b6106dd565b005b61020260048036038101906101fd9190611a7b565b6106fd565b60405161020f9190611d86565b60405180910390f35b610232600480360381019061022d919061185e565b6107af565b60405161023f919061201a565b60405180910390f35b610250610867565b60405161025d9190611e08565b60405180910390f35b610280600480360381019061027b91906119e1565b6108f9565b005b61029c600480360381019061029791906119a1565b610907565b005b6102b860048036038101906102b3919061191e565b610a88565b005b6102d460048036038101906102cf9190611a7b565b610aea565b6040516102e19190611e08565b60405180910390f35b61030460048036038101906102ff919061188b565b610b91565b6040516103119190611ded565b60405180910390f35b60007f80ac58cd000000000000000000000000000000000000000000000000000000007bffffffffffffffffffffffffffffffffffffffffffffffffffffffff1916827bffffffffffffffffffffffffffffffffffffffffffffffffffffffff191614806103e557507f5b5e139f000000000000000000000000000000000000000000000000000000007bffffffffffffffffffffffffffffffffffffffffffffffffffffffff1916827bffffffffffffffffffffffffffffffffffffffffffffffffffffffff1916145b806103f557506103f482610c25565b5b9050919050565b60606000805461040b9061223f565b80601f01602080910402602001604051908101604052809291908181526020018280546104379061223f565b80156104845780601f1061045957610100808354040283529160200191610484565b820191906000526020600020905b81548152906001019060200180831161046757829003601f168201915b5050505050905090565b600061049982610c8f565b6104d8576040517f08c379a00000000000000000000000000000000000000000000000000000000081526004016104cf90611f7a565b60405180910390fd5b6004600083815260200190815260200160002060009054906101000a900473ffffffffffffffffffffffffffffffffffffffff169050919050565b61053560405180606001604052806037815260200161289d6037913933610cfb565b6000610540826106fd565b90508073ffffffffffffffffffffffffffffffffffffffff168373ffffffffffffffffffffffffffffffffffffffff1614156105b1576040517f08c379a00000000000000000000000000000000000000000000000000000000081526004016105a890611fda565b60405180910390fd5b8073ffffffffffffffffffffffffffffffffffffffff166105d0610d97565b73ffffffffffffffffffffffffffffffffffffffff1614806105ff57506105fe816105f9610d97565b610b91565b5b61063e576040517f08c379a000000000000000000000000000000000000000000000000000000000815260040161063590611efa565b60405180910390fd5b6106488383610d9f565b505050565b61066f6040518060600160405280603481526020016128696034913933610cfb565b6106798282610513565b5050565b61068e610688610d97565b82610e58565b6106cd576040517f08c379a00000000000000000000000000000000000000000000000000000000081526004016106c490611ffa565b60405180910390fd5b6106d8838383610f36565b505050565b6106f883838360405180602001604052806000815250610a88565b505050565b6000806002600084815260200190815260200160002060009054906101000a900473ffffffffffffffffffffffffffffffffffffffff169050600073ffffffffffffffffffffffffffffffffffffffff168173ffffffffffffffffffffffffffffffffffffffff1614156107a6576040517f08c379a000000000000000000000000000000000000000000000000000000000815260040161079d90611f3a565b60405180910390fd5b80915050919050565b60008073ffffffffffffffffffffffffffffffffffffffff168273ffffffffffffffffffffffffffffffffffffffff161415610820576040517f08c379a000000000000000000000000000000000000000000000000000000000815260040161081790611f1a565b60405180910390fd5b600360008373ffffffffffffffffffffffffffffffffffffffff1673ffffffffffffffffffffffffffffffffffffffff168152602001908152602001600020549050919050565b6060600180546108769061223f565b80601f01602080910402602001604051908101604052809291908181526020018280546108a29061223f565b80156108ef5780601f106108c4576101008083540402835291602001916108ef565b820191906000526020600020905b8154815290600101906020018083116108d257829003601f168201915b5050505050905090565b6109038282611192565b5050565b61090f610d97565b73ffffffffffffffffffffffffffffffffffffffff168273ffffffffffffffffffffffffffffffffffffffff16141561097d576040517f08c379a000000000000000000000000000000000000000000000000000000000815260040161097490611eba565b60405180910390fd5b806005600061098a610d97565b73ffffffffffffffffffffffffffffffffffffffff1673ffffffffffffffffffffffffffffffffffffffff16815260200190815260200160002060008473ffffffffffffffffffffffffffffffffffffffff1673ffffffffffffffffffffffffffffffffffffffff16815260200190815260200160002060006101000a81548160ff0219169083151502179055508173ffffffffffffffffffffffffffffffffffffffff16610a37610d97565b73ffffffffffffffffffffffffffffffffffffffff167f17307eab39ab6107e8899845ad3d59bd9653f200f220920489ca2b5937696c3183604051610a7c9190611ded565b60405180910390a35050565b610a99610a93610d97565b83610e58565b610ad8576040517f08c379a0000000000000000000000000000000000000000000000000000000008152600401610acf90611ffa565b60405180910390fd5b610ae4848484846111b0565b50505050565b6060610af582610c8f565b610b34576040517f08c379a0000000000000000000000000000000000000000000000000000000008152600401610b2b90611fba565b60405180910390fd5b6000610b3e61120c565b90506000815111610b5e5760405180602001604052806000815250610b89565b80610b6884611223565b604051602001610b79929190611d62565b6040516020818303038152906040525b915050919050565b6000600560008473ffffffffffffffffffffffffffffffffffffffff1673ffffffffffffffffffffffffffffffffffffffff16815260200190815260200160002060008373ffffffffffffffffffffffffffffffffffffffff1673ffffffffffffffffffffffffffffffffffffffff16815260200190815260200160002060009054906101000a900460ff16905092915050565b60007f01ffc9a7000000000000000000000000000000000000000000000000000000007bffffffffffffffffffffffffffffffffffffffffffffffffffffffff1916827bffffffffffffffffffffffffffffffffffffffffffffffffffffffff1916149050919050565b60008073ffffffffffffffffffffffffffffffffffffffff166002600084815260200190815260200160002060009054906101000a900473ffffffffffffffffffffffffffffffffffffffff1673ffffffffffffffffffffffffffffffffffffffff1614159050919050565b610d938282604051602401610d11929190611e2a565b6040516020818303038152906040527f319af333000000000000000000000000000000000000000000000000000000007bffffffffffffffffffffffffffffffffffffffffffffffffffffffff19166020820180517bffffffffffffffffffffffffffffffffffffffffffffffffffffffff8381831617835250505050611384565b5050565b600033905090565b816004600083815260200190815260200160002060006101000a81548173ffffffffffffffffffffffffffffffffffffffff021916908373ffffffffffffffffffffffffffffffffffffffff160217905550808273ffffffffffffffffffffffffffffffffffffffff16610e12836106fd565b73ffffffffffffffffffffffffffffffffffffffff167f8c5be1e5ebec7d5bd14f71427d1e84f3dd0314c0f7b2291e5b200ac8c7c3b92560405160405180910390a45050565b6000610e6382610c8f565b610ea2576040517f08c379a0000000000000000000000000000000000000000000000000000000008152600401610e9990611eda565b60405180910390fd5b6000610ead836106fd565b90508073ffffffffffffffffffffffffffffffffffffffff168473ffffffffffffffffffffffffffffffffffffffff161480610f1c57508373ffffffffffffffffffffffffffffffffffffffff16610f048461048e565b73ffffffffffffffffffffffffffffffffffffffff16145b80610f2d5750610f2c8185610b91565b5b91505092915050565b8273ffffffffffffffffffffffffffffffffffffffff16610f56826106fd565b73ffffffffffffffffffffffffffffffffffffffff1614610fac576040517f08c379a0000000000000000000000000000000000000000000000000000000008152600401610fa390611f9a565b60405180910390fd5b600073ffffffffffffffffffffffffffffffffffffffff168273ffffffffffffffffffffffffffffffffffffffff16141561101c576040517f08c379a000000000000000000000000000000000000000000000000000000000815260040161101390611e9a565b60405180910390fd5b6110278383836113ad565b611032600082610d9f565b6001600360008573ffffffffffffffffffffffffffffffffffffffff1673ffffffffffffffffffffffffffffffffffffffff16815260200190815260200160002060008282546110829190612155565b925050819055506001600360008473ffffffffffffffffffffffffffffffffffffffff1673ffffffffffffffffffffffffffffffffffffffff16815260200190815260200160002060008282546110d991906120ce565b92505081905550816002600083815260200190815260200160002060006101000a81548173ffffffffffffffffffffffffffffffffffffffff021916908373ffffffffffffffffffffffffffffffffffffffff160217905550808273ffffffffffffffffffffffffffffffffffffffff168473ffffffffffffffffffffffffffffffffffffffff167fddf252ad1be2c89b69c2b068fc378daa952ba7f163c4a11628f55a4df523b3ef60405160405180910390a4505050565b6111ac8282604051806020016040528060008152506113b2565b5050565b6111bb848484610f36565b6111c78484848461140d565b611206576040517f08c379a00000000000000000000000000000000000000000000000000000000081526004016111fd90611e5a565b60405180910390fd5b50505050565b606060405180602001604052806000815250905090565b6060600082141561126b576040518060400160405280600181526020017f3000000000000000000000000000000000000000000000000000000000000000815250905061137f565b600082905060005b6000821461129d578080611286906122a2565b915050600a826112969190612124565b9150611273565b60008167ffffffffffffffff8111156112b9576112b86123d8565b5b6040519080825280601f01601f1916602001820160405280156112eb5781602001600182028036833780820191505090505b5090505b60008514611378576001826113049190612155565b9150600a8561131391906122eb565b603061131f91906120ce565b60f81b818381518110611335576113346123a9565b5b60200101907effffffffffffffffffffffffffffffffffffffffffffffffffffffffffffff1916908160001a905350600a856113719190612124565b94506112ef565b8093505050505b919050565b60008151905060006a636f6e736f6c652e6c6f679050602083016000808483855afa5050505050565b505050565b6113bc83836115a4565b6113c9600084848461140d565b611408576040517f08c379a00000000000000000000000000000000000000000000000000000000081526004016113ff90611e5a565b60405180910390fd5b505050565b600061142e8473ffffffffffffffffffffffffffffffffffffffff16611772565b15611597578373ffffffffffffffffffffffffffffffffffffffff1663150b7a02611457610d97565b8786866040518563ffffffff1660e01b81526004016114799493929190611da1565b602060405180830381600087803b15801561149357600080fd5b505af19250505080156114c457506040513d601f19601f820116820180604052508101906114c19190611a4e565b60015b611547573d80600081146114f4576040519150601f19603f3d011682016040523d82523d6000602084013e6114f9565b606091505b5060008151141561153f576040517f08c379a000000000000000000000000000000000000000000000000000000000815260040161153690611e5a565b60405180910390fd5b805181602001fd5b63150b7a0260e01b7bffffffffffffffffffffffffffffffffffffffffffffffffffffffff1916817bffffffffffffffffffffffffffffffffffffffffffffffffffffffff19161491505061159c565b600190505b949350505050565b600073ffffffffffffffffffffffffffffffffffffffff168273ffffffffffffffffffffffffffffffffffffffff161415611614576040517f08c379a000000000000000000000000000000000000000000000000000000000815260040161160b90611f5a565b60405180910390fd5b61161d81610c8f565b1561165d576040517f08c379a000000000000000000000000000000000000000000000000000000000815260040161165490611e7a565b60405180910390fd5b611669600083836113ad565b6001600360008473ffffffffffffffffffffffffffffffffffffffff1673ffffffffffffffffffffffffffffffffffffffff16815260200190815260200160002060008282546116b991906120ce565b92505081905550816002600083815260200190815260200160002060006101000a81548173ffffffffffffffffffffffffffffffffffffffff021916908373ffffffffffffffffffffffffffffffffffffffff160217905550808273ffffffffffffffffffffffffffffffffffffffff16600073ffffffffffffffffffffffffffffffffffffffff167fddf252ad1be2c89b69c2b068fc378daa952ba7f163c4a11628f55a4df523b3ef60405160405180910390a45050565b600080823b905060008111915050919050565b60006117986117938461205a565b612035565b9050828152602081018484840111156117b4576117b361240c565b5b6117bf8482856121fd565b509392505050565b6000813590506117d68161280c565b92915050565b6000813590506117eb81612823565b92915050565b6000813590506118008161283a565b92915050565b6000815190506118158161283a565b92915050565b600082601f8301126118305761182f612407565b5b8135611840848260208601611785565b91505092915050565b60008135905061185881612851565b92915050565b60006020828403121561187457611873612416565b5b6000611882848285016117c7565b91505092915050565b600080604083850312156118a2576118a1612416565b5b60006118b0858286016117c7565b92505060206118c1858286016117c7565b9150509250929050565b6000806000606084860312156118e4576118e3612416565b5b60006118f2868287016117c7565b9350506020611903868287016117c7565b925050604061191486828701611849565b9150509250925092565b6000806000806080858703121561193857611937612416565b5b6000611946878288016117c7565b9450506020611957878288016117c7565b935050604061196887828801611849565b925050606085013567ffffffffffffffff81111561198957611988612411565b5b6119958782880161181b565b91505092959194509250565b600080604083850312156119b8576119b7612416565b5b60006119c6858286016117c7565b92505060206119d7858286016117dc565b9150509250929050565b600080604083850312156119f8576119f7612416565b5b6000611a06858286016117c7565b9250506020611a1785828601611849565b9150509250929050565b600060208284031215611a3757611a36612416565b5b6000611a45848285016117f1565b91505092915050565b600060208284031215611a6457611a63612416565b5b6000611a7284828501611806565b91505092915050565b600060208284031215611a9157611a90612416565b5b6000611a9f84828501611849565b91505092915050565b611ab181612189565b82525050565b611ac08161219b565b82525050565b6000611ad18261208b565b611adb81856120a1565b9350611aeb81856020860161220c565b611af48161241b565b840191505092915050565b6000611b0a82612096565b611b1481856120b2565b9350611b2481856020860161220c565b611b2d8161241b565b840191505092915050565b6000611b4382612096565b611b4d81856120c3565b9350611b5d81856020860161220c565b80840191505092915050565b6000611b766032836120b2565b9150611b818261242c565b604082019050919050565b6000611b99601c836120b2565b9150611ba48261247b565b602082019050919050565b6000611bbc6024836120b2565b9150611bc7826124a4565b604082019050919050565b6000611bdf6019836120b2565b9150611bea826124f3565b602082019050919050565b6000611c02602c836120b2565b9150611c0d8261251c565b604082019050919050565b6000611c256038836120b2565b9150611c308261256b565b604082019050919050565b6000611c48602a836120b2565b9150611c53826125ba565b604082019050919050565b6000611c6b6029836120b2565b9150611c7682612609565b604082019050919050565b6000611c8e6020836120b2565b9150611c9982612658565b602082019050919050565b6000611cb1602c836120b2565b9150611cbc82612681565b604082019050919050565b6000611cd46029836120b2565b9150611cdf826126d0565b604082019050919050565b6000611cf7602f836120b2565b9150611d028261271f565b604082019050919050565b6000611d1a6021836120b2565b9150611d258261276e565b604082019050919050565b6000611d3d6031836120b2565b9150611d48826127bd565b604082019050919050565b611d5c816121f3565b82525050565b6000611d6e8285611b38565b9150611d7a8284611b38565b91508190509392505050565b6000602082019050611d9b6000830184611aa8565b92915050565b6000608082019050611db66000830187611aa8565b611dc36020830186611aa8565b611dd06040830185611d53565b8181036060830152611de28184611ac6565b905095945050505050565b6000602082019050611e026000830184611ab7565b92915050565b60006020820190508181036000830152611e228184611aff565b905092915050565b60006040820190508181036000830152611e448185611aff565b9050611e536020830184611aa8565b9392505050565b60006020820190508181036000830152611e7381611b69565b9050919050565b60006020820190508181036000830152611e9381611b8c565b9050919050565b60006020820190508181036000830152611eb381611baf565b9050919050565b60006020820190508181036000830152611ed381611bd2565b9050919050565b60006020820190508181036000830152611ef381611bf5565b9050919050565b60006020820190508181036000830152611f1381611c18565b9050919050565b60006020820190508181036000830152611f3381611c3b565b9050919050565b60006020820190508181036000830152611f5381611c5e565b9050919050565b60006020820190508181036000830152611f7381611c81565b9050919050565b60006020820190508181036000830152611f9381611ca4565b9050919050565b60006020820190508181036000830152611fb381611cc7565b9050919050565b60006020820190508181036000830152611fd381611cea565b9050919050565b60006020820190508181036000830152611ff381611d0d565b9050919050565b6000602082019050818103600083015261201381611d30565b9050919050565b600060208201905061202f6000830184611d53565b92915050565b600061203f612050565b905061204b8282612271565b919050565b6000604051905090565b600067ffffffffffffffff821115612075576120746123d8565b5b61207e8261241b565b9050602081019050919050565b600081519050919050565b600081519050919050565b600082825260208201905092915050565b600082825260208201905092915050565b600081905092915050565b60006120d9826121f3565b91506120e4836121f3565b9250827fffffffffffffffffffffffffffffffffffffffffffffffffffffffffffffffff038211156121195761211861231c565b5b828201905092915050565b600061212f826121f3565b915061213a836121f3565b92508261214a5761214961234b565b5b828204905092915050565b6000612160826121f3565b915061216b836121f3565b92508282101561217e5761217d61231c565b5b828203905092915050565b6000612194826121d3565b9050919050565b60008115159050919050565b60007fffffffff0000000000000000000000000000000000000000000000000000000082169050919050565b600073ffffffffffffffffffffffffffffffffffffffff82169050919050565b6000819050919050565b82818337600083830152505050565b60005b8381101561222a57808201518184015260208101905061220f565b83811115612239576000848401525b50505050565b6000600282049050600182168061225757607f821691505b6020821081141561226b5761226a61237a565b5b50919050565b61227a8261241b565b810181811067ffffffffffffffff82111715612299576122986123d8565b5b80604052505050565b60006122ad826121f3565b91507fffffffffffffffffffffffffffffffffffffffffffffffffffffffffffffffff8214156122e0576122df61231c565b5b600182019050919050565b60006122f6826121f3565b9150612301836121f3565b9250826123115761231061234b565b5b828206905092915050565b7f4e487b7100000000000000000000000000000000000000000000000000000000600052601160045260246000fd5b7f4e487b7100000000000000000000000000000000000000000000000000000000600052601260045260246000fd5b7f4e487b7100000000000000000000000000000000000000000000000000000000600052602260045260246000fd5b7f4e487b7100000000000000000000000000000000000000000000000000000000600052603260045260246000fd5b7f4e487b7100000000000000000000000000000000000000000000000000000000600052604160045260246000fd5b600080fd5b600080fd5b600080fd5b600080fd5b6000601f19601f8301169050919050565b7f4552433732313a207472616e7366657220746f206e6f6e20455243373231526560008201527f63656976657220696d706c656d656e7465720000000000000000000000000000602082015250565b7f4552433732313a20746f6b656e20616c7265616479206d696e74656400000000600082015250565b7f4552433732313a207472616e7366657220746f20746865207a65726f2061646460008201527f7265737300000000000000000000000000000000000000000000000000000000602082015250565b7f4552433732313a20617070726f766520746f2063616c6c657200000000000000600082015250565b7f4552433732313a206f70657261746f7220717565727920666f72206e6f6e657860008201527f697374656e7420746f6b656e0000000000000000000000000000000000000000602082015250565b7f4552433732313a20617070726f76652063616c6c6572206973206e6f74206f7760008201527f6e6572206e6f7220617070726f76656420666f7220616c6c0000000000000000602082015250565b7f4552433732313a2062616c616e636520717565727920666f7220746865207a6560008201527f726f206164647265737300000000000000000000000000000000000000000000602082015250565b7f4552433732313a206f776e657220717565727920666f72206e6f6e657869737460008201527f656e7420746f6b656e0000000000000000000000000000000000000000000000602082015250565b7f4552433732313a206d696e7420746f20746865207a65726f2061646472657373600082015250565b7f4552433732313a20617070726f76656420717565727920666f72206e6f6e657860008201527f697374656e7420746f6b656e0000000000000000000000000000000000000000602082015250565b7f4552433732313a207472616e73666572206f6620746f6b656e2074686174206960008201527f73206e6f74206f776e0000000000000000000000000000000000000000000000602082015250565b7f4552433732314d657461646174613a2055524920717565727920666f72206e6f60008201527f6e6578697374656e7420746f6b656e0000000000000000000000000000000000602082015250565b7f4552433732313a20617070726f76616c20746f2063757272656e74206f776e6560008201527f7200000000000000000000000000000000000000000000000000000000000000602082015250565b7f4552433732313a207472616e736665722063616c6c6572206973206e6f74206f60008201527f776e6572206e6f7220617070726f766564000000000000000000000000000000602082015250565b61281581612189565b811461282057600080fd5b50565b61282c8161219b565b811461283757600080fd5b50565b612843816121a7565b811461284e57600080fd5b50565b61285a816121f3565b811461286557600080fd5b5056fe6d73672e73656e6465722063616c6c696e6720617070726f7665282920696e20546573744552433732312e736f6c2069732025736d73672e73656e6465722063616c6c696e6720617070726f7665282920696e73696465206f66204552433732312e736f6c206973202573a2646970667358221220cd8322a5106b43650e4cc3bf51dc13f85cd8d02c1322b92c97b0ed40c247ea6264736f6c63430008060033",
  "linkReferences": {},
  "deployedLinkReferences": {}
}