{
  "_format": "hh-sol-artifact-1",
  "contractName": "TestERC721",
  "sourceName": "contracts/TestERC721.sol",
  "abi": [
    {
      "inputs": [
        {
          "internalType": "string",
          "name": "_name",
          "type": "string"
        },
        {
          "internalType": "string",
          "name": "_symbol",
          "type": "string"
        }
      ],
      "stateMutability": "nonpayable",
      "type": "constructor"
    },
    {
      "anonymous": false,
      "inputs": [
        {
          "indexed": true,
          "internalType": "address",
          "name": "owner",
          "type": "address"
        },
        {
          "indexed": true,
          "internalType": "address",
          "name": "approved",
          "type": "address"
        },
        {
          "indexed": true,
          "internalType": "uint256",
          "name": "tokenId",
          "type": "uint256"
        }
      ],
      "name": "Approval",
      "type": "event"
    },
    {
      "anonymous": false,
      "inputs": [
        {
          "indexed": true,
          "internalType": "address",
          "name": "owner",
          "type": "address"
        },
        {
          "indexed": true,
          "internalType": "address",
          "name": "operator",
          "type": "address"
        },
        {
          "indexed": false,
          "internalType": "bool",
          "name": "approved",
          "type": "bool"
        }
      ],
      "name": "ApprovalForAll",
      "type": "event"
    },
    {
      "anonymous": false,
      "inputs": [
        {
          "indexed": true,
          "internalType": "address",
          "name": "from",
          "type": "address"
        },
        {
          "indexed": true,
          "internalType": "address",
          "name": "to",
          "type": "address"
        },
        {
          "indexed": true,
          "internalType": "uint256",
          "name": "tokenId",
          "type": "uint256"
        }
      ],
      "name": "Transfer",
      "type": "event"
    },
    {
      "inputs": [
        {
          "internalType": "address",
          "name": "to",
          "type": "address"
        },
        {
          "internalType": "uint256",
          "name": "tokenId",
          "type": "uint256"
        }
      ],
      "name": "approve",
      "outputs": [],
      "stateMutability": "nonpayable",
      "type": "function"
    },
    {
      "inputs": [
        {
          "internalType": "address",
          "name": "_to",
          "type": "address"
        },
        {
          "internalType": "uint256",
          "name": "_tokenId",
          "type": "uint256"
        }
      ],
      "name": "approveApeLend",
      "outputs": [],
      "stateMutability": "nonpayable",
      "type": "function"
    },
    {
      "inputs": [
        {
          "internalType": "address",
          "name": "owner",
          "type": "address"
        }
      ],
      "name": "balanceOf",
      "outputs": [
        {
          "internalType": "uint256",
          "name": "",
          "type": "uint256"
        }
      ],
      "stateMutability": "view",
      "type": "function"
    },
    {
      "inputs": [
        {
          "internalType": "uint256",
          "name": "tokenId",
          "type": "uint256"
        }
      ],
      "name": "getApproved",
      "outputs": [
        {
          "internalType": "address",
          "name": "",
          "type": "address"
        }
      ],
      "stateMutability": "view",
      "type": "function"
    },
    {
      "inputs": [
        {
          "internalType": "address",
          "name": "owner",
          "type": "address"
        },
        {
          "internalType": "address",
          "name": "operator",
          "type": "address"
        }
      ],
      "name": "isApprovedForAll",
      "outputs": [
        {
          "internalType": "bool",
          "name": "",
          "type": "bool"
        }
      ],
      "stateMutability": "view",
      "type": "function"
    },
    {
      "inputs": [],
      "name": "name",
      "outputs": [
        {
          "internalType": "string",
          "name": "",
          "type": "string"
        }
      ],
      "stateMutability": "view",
      "type": "function"
    },
    {
      "inputs": [
        {
          "internalType": "uint256",
          "name": "tokenId",
          "type": "uint256"
        }
      ],
      "name": "ownerOf",
      "outputs": [
        {
          "internalType": "address",
          "name": "",
          "type": "address"
        }
      ],
      "stateMutability": "view",
      "type": "function"
    },
    {
      "inputs": [
        {
          "internalType": "address",
          "name": "_to",
          "type": "address"
        },
        {
          "internalType": "uint256",
          "name": "_tokenId",
          "type": "uint256"
        }
      ],
      "name": "safeMint",
      "outputs": [],
      "stateMutability": "nonpayable",
      "type": "function"
    },
    {
      "inputs": [
        {
          "internalType": "address",
          "name": "from",
          "type": "address"
        },
        {
          "internalType": "address",
          "name": "to",
          "type": "address"
        },
        {
          "internalType": "uint256",
          "name": "tokenId",
          "type": "uint256"
        }
      ],
      "name": "safeTransferFrom",
      "outputs": [],
      "stateMutability": "nonpayable",
      "type": "function"
    },
    {
      "inputs": [
        {
          "internalType": "address",
          "name": "from",
          "type": "address"
        },
        {
          "internalType": "address",
          "name": "to",
          "type": "address"
        },
        {
          "internalType": "uint256",
          "name": "tokenId",
          "type": "uint256"
        },
        {
          "internalType": "bytes",
          "name": "_data",
          "type": "bytes"
        }
      ],
      "name": "safeTransferFrom",
      "outputs": [],
      "stateMutability": "nonpayable",
      "type": "function"
    },
    {
      "inputs": [
        {
          "internalType": "address",
          "name": "operator",
          "type": "address"
        },
        {
          "internalType": "bool",
          "name": "approved",
          "type": "bool"
        }
      ],
      "name": "setApprovalForAll",
      "outputs": [],
      "stateMutability": "nonpayable",
      "type": "function"
    },
    {
      "inputs": [
        {
          "internalType": "bytes4",
          "name": "interfaceId",
          "type": "bytes4"
        }
      ],
      "name": "supportsInterface",
      "outputs": [
        {
          "internalType": "bool",
          "name": "",
          "type": "bool"
        }
      ],
      "stateMutability": "view",
      "type": "function"
    },
    {
      "inputs": [],
      "name": "symbol",
      "outputs": [
        {
          "internalType": "string",
          "name": "",
          "type": "string"
        }
      ],
      "stateMutability": "view",
      "type": "function"
    },
    {
      "inputs": [
        {
          "internalType": "uint256",
          "name": "tokenId",
          "type": "uint256"
        }
      ],
      "name": "tokenURI",
      "outputs": [
        {
          "internalType": "string",
          "name": "",
          "type": "string"
        }
      ],
      "stateMutability": "view",
      "type": "function"
    },
    {
      "inputs": [
        {
          "internalType": "address",
          "name": "from",
          "type": "address"
        },
        {
          "internalType": "address",
          "name": "to",
          "type": "address"
        },
        {
          "internalType": "uint256",
          "name": "tokenId",
          "type": "uint256"
        }
      ],
      "name": "transferFrom",
      "outputs": [],
      "stateMutability": "nonpayable",
      "type": "function"
    }
  ],
  "bytecode": "0x60806040523480156200001157600080fd5b5060405162002b2138038062002b218339818101604052810190620000379190620001a3565b818181600090805190602001906200005192919062000075565b5080600190805190602001906200006a92919062000075565b5050505050620003ac565b8280546200008390620002bd565b90600052602060002090601f016020900481019282620000a75760008555620000f3565b82601f10620000c257805160ff1916838001178555620000f3565b82800160010185558215620000f3579182015b82811115620000f2578251825591602001919060010190620000d5565b5b50905062000102919062000106565b5090565b5b808211156200012157600081600090555060010162000107565b5090565b60006200013c620001368462000251565b62000228565b9050828152602081018484840111156200015b576200015a6200038c565b5b6200016884828562000287565b509392505050565b600082601f83011262000188576200018762000387565b5b81516200019a84826020860162000125565b91505092915050565b60008060408385031215620001bd57620001bc62000396565b5b600083015167ffffffffffffffff811115620001de57620001dd62000391565b5b620001ec8582860162000170565b925050602083015167ffffffffffffffff81111562000210576200020f62000391565b5b6200021e8582860162000170565b9150509250929050565b60006200023462000247565b9050620002428282620002f3565b919050565b6000604051905090565b600067ffffffffffffffff8211156200026f576200026e62000358565b5b6200027a826200039b565b9050602081019050919050565b60005b83811015620002a75780820151818401526020810190506200028a565b83811115620002b7576000848401525b50505050565b60006002820490506001821680620002d657607f821691505b60208210811415620002ed57620002ec62000329565b5b50919050565b620002fe826200039b565b810181811067ffffffffffffffff8211171562000320576200031f62000358565b5b80604052505050565b7f4e487b7100000000000000000000000000000000000000000000000000000000600052602260045260246000fd5b7f4e487b7100000000000000000000000000000000000000000000000000000000600052604160045260246000fd5b600080fd5b600080fd5b600080fd5b600080fd5b6000601f19601f8301169050919050565b61276580620003bc6000396000f3fe608060405234801561001057600080fd5b50600436106100f55760003560e01c80636352211e11610097578063a22cb46511610066578063a22cb46514610282578063b88d4fde1461029e578063c87b56dd146102ba578063e985e9c5146102ea576100f5565b80636352211e146101e857806370a082311461021857806395d89b4114610248578063a144819414610266576100f5565b8063095ea7b3116100d3578063095ea7b3146101785780630ff225c41461019457806323b872dd146101b057806342842e0e146101cc576100f5565b806301ffc9a7146100fa57806306fdde031461012a578063081812fc14610148575b600080fd5b610114600480360381019061010f9190611918565b61031a565b6040516101219190611ce4565b60405180910390f35b6101326103fc565b60405161013f9190611cff565b60405180910390f35b610162600480360381019061015d9190611972565b61048e565b60405161016f9190611c7d565b60405180910390f35b610192600480360381019061018d91906118d8565b610513565b005b6101ae60048036038101906101a991906118d8565b61062b565b005b6101ca60048036038101906101c591906117c2565b610639565b005b6101e660048036038101906101e191906117c2565b610699565b005b61020260048036038101906101fd9190611972565b6106b9565b60405161020f9190611c7d565b60405180910390f35b610232600480360381019061022d9190611755565b61076b565b60405161023f9190611ee1565b60405180910390f35b610250610823565b60405161025d9190611cff565b60405180910390f35b610280600480360381019061027b91906118d8565b6108b5565b005b61029c60048036038101906102979190611898565b6108c3565b005b6102b860048036038101906102b39190611815565b610a44565b005b6102d460048036038101906102cf9190611972565b610aa6565b6040516102e19190611cff565b60405180910390f35b61030460048036038101906102ff9190611782565b610b4d565b6040516103119190611ce4565b60405180910390f35b60007f80ac58cd000000000000000000000000000000000000000000000000000000007bffffffffffffffffffffffffffffffffffffffffffffffffffffffff1916827bffffffffffffffffffffffffffffffffffffffffffffffffffffffff191614806103e557507f5b5e139f000000000000000000000000000000000000000000000000000000007bffffffffffffffffffffffffffffffffffffffffffffffffffffffff1916827bffffffffffffffffffffffffffffffffffffffffffffffffffffffff1916145b806103f557506103f482610be1565b5b9050919050565b60606000805461040b90612106565b80601f016020809104026020016040519081016040528092919081815260200182805461043790612106565b80156104845780601f1061045957610100808354040283529160200191610484565b820191906000526020600020905b81548152906001019060200180831161046757829003601f168201915b5050505050905090565b600061049982610c4b565b6104d8576040517f08c379a00000000000000000000000000000000000000000000000000000000081526004016104cf90611e41565b60405180910390fd5b6004600083815260200190815260200160002060009054906101000a900473ffffffffffffffffffffffffffffffffffffffff169050919050565b600061051e826106b9565b90508073ffffffffffffffffffffffffffffffffffffffff168373ffffffffffffffffffffffffffffffffffffffff16141561058f576040517f08c379a000000000000000000000000000000000000000000000000000000000815260040161058690611ea1565b60405180910390fd5b8073ffffffffffffffffffffffffffffffffffffffff166105ae610cb7565b73ffffffffffffffffffffffffffffffffffffffff1614806105dd57506105dc816105d7610cb7565b610b4d565b5b61061c576040517f08c379a000000000000000000000000000000000000000000000000000000000815260040161061390611dc1565b60405180910390fd5b6106268383610cbf565b505050565b6106358282610513565b5050565b61064a610644610cb7565b82610d78565b610689576040517f08c379a000000000000000000000000000000000000000000000000000000000815260040161068090611ec1565b60405180910390fd5b610694838383610e56565b505050565b6106b483838360405180602001604052806000815250610a44565b505050565b6000806002600084815260200190815260200160002060009054906101000a900473ffffffffffffffffffffffffffffffffffffffff169050600073ffffffffffffffffffffffffffffffffffffffff168173ffffffffffffffffffffffffffffffffffffffff161415610762576040517f08c379a000000000000000000000000000000000000000000000000000000000815260040161075990611e01565b60405180910390fd5b80915050919050565b60008073ffffffffffffffffffffffffffffffffffffffff168273ffffffffffffffffffffffffffffffffffffffff1614156107dc576040517f08c379a00000000000000000000000000000000000000000000000000000000081526004016107d390611de1565b60405180910390fd5b600360008373ffffffffffffffffffffffffffffffffffffffff1673ffffffffffffffffffffffffffffffffffffffff168152602001908152602001600020549050919050565b60606001805461083290612106565b80601f016020809104026020016040519081016040528092919081815260200182805461085e90612106565b80156108ab5780601f10610880576101008083540402835291602001916108ab565b820191906000526020600020905b81548152906001019060200180831161088e57829003601f168201915b5050505050905090565b6108bf82826110b2565b5050565b6108cb610cb7565b73ffffffffffffffffffffffffffffffffffffffff168273ffffffffffffffffffffffffffffffffffffffff161415610939576040517f08c379a000000000000000000000000000000000000000000000000000000000815260040161093090611d81565b60405180910390fd5b8060056000610946610cb7565b73ffffffffffffffffffffffffffffffffffffffff1673ffffffffffffffffffffffffffffffffffffffff16815260200190815260200160002060008473ffffffffffffffffffffffffffffffffffffffff1673ffffffffffffffffffffffffffffffffffffffff16815260200190815260200160002060006101000a81548160ff0219169083151502179055508173ffffffffffffffffffffffffffffffffffffffff166109f3610cb7565b73ffffffffffffffffffffffffffffffffffffffff167f17307eab39ab6107e8899845ad3d59bd9653f200f220920489ca2b5937696c3183604051610a389190611ce4565b60405180910390a35050565b610a55610a4f610cb7565b83610d78565b610a94576040517f08c379a0000000000000000000000000000000000000000000000000000000008152600401610a8b90611ec1565b60405180910390fd5b610aa0848484846110d0565b50505050565b6060610ab182610c4b565b610af0576040517f08c379a0000000000000000000000000000000000000000000000000000000008152600401610ae790611e81565b60405180910390fd5b6000610afa61112c565b90506000815111610b1a5760405180602001604052806000815250610b45565b80610b2484611143565b604051602001610b35929190611c59565b6040516020818303038152906040525b915050919050565b6000600560008473ffffffffffffffffffffffffffffffffffffffff1673ffffffffffffffffffffffffffffffffffffffff16815260200190815260200160002060008373ffffffffffffffffffffffffffffffffffffffff1673ffffffffffffffffffffffffffffffffffffffff16815260200190815260200160002060009054906101000a900460ff16905092915050565b60007f01ffc9a7000000000000000000000000000000000000000000000000000000007bffffffffffffffffffffffffffffffffffffffffffffffffffffffff1916827bffffffffffffffffffffffffffffffffffffffffffffffffffffffff1916149050919050565b60008073ffffffffffffffffffffffffffffffffffffffff166002600084815260200190815260200160002060009054906101000a900473ffffffffffffffffffffffffffffffffffffffff1673ffffffffffffffffffffffffffffffffffffffff1614159050919050565b600033905090565b816004600083815260200190815260200160002060006101000a81548173ffffffffffffffffffffffffffffffffffffffff021916908373ffffffffffffffffffffffffffffffffffffffff160217905550808273ffffffffffffffffffffffffffffffffffffffff16610d32836106b9565b73ffffffffffffffffffffffffffffffffffffffff167f8c5be1e5ebec7d5bd14f71427d1e84f3dd0314c0f7b2291e5b200ac8c7c3b92560405160405180910390a45050565b6000610d8382610c4b565b610dc2576040517f08c379a0000000000000000000000000000000000000000000000000000000008152600401610db990611da1565b60405180910390fd5b6000610dcd836106b9565b90508073ffffffffffffffffffffffffffffffffffffffff168473ffffffffffffffffffffffffffffffffffffffff161480610e3c57508373ffffffffffffffffffffffffffffffffffffffff16610e248461048e565b73ffffffffffffffffffffffffffffffffffffffff16145b80610e4d5750610e4c8185610b4d565b5b91505092915050565b8273ffffffffffffffffffffffffffffffffffffffff16610e76826106b9565b73ffffffffffffffffffffffffffffffffffffffff1614610ecc576040517f08c379a0000000000000000000000000000000000000000000000000000000008152600401610ec390611e61565b60405180910390fd5b600073ffffffffffffffffffffffffffffffffffffffff168273ffffffffffffffffffffffffffffffffffffffff161415610f3c576040517f08c379a0000000000000000000000000000000000000000000000000000000008152600401610f3390611d61565b60405180910390fd5b610f478383836112a4565b610f52600082610cbf565b6001600360008573ffffffffffffffffffffffffffffffffffffffff1673ffffffffffffffffffffffffffffffffffffffff1681526020019081526020016000206000828254610fa2919061201c565b925050819055506001600360008473ffffffffffffffffffffffffffffffffffffffff1673ffffffffffffffffffffffffffffffffffffffff1681526020019081526020016000206000828254610ff99190611f95565b92505081905550816002600083815260200190815260200160002060006101000a81548173ffffffffffffffffffffffffffffffffffffffff021916908373ffffffffffffffffffffffffffffffffffffffff160217905550808273ffffffffffffffffffffffffffffffffffffffff168473ffffffffffffffffffffffffffffffffffffffff167fddf252ad1be2c89b69c2b068fc378daa952ba7f163c4a11628f55a4df523b3ef60405160405180910390a4505050565b6110cc8282604051806020016040528060008152506112a9565b5050565b6110db848484610e56565b6110e784848484611304565b611126576040517f08c379a000000000000000000000000000000000000000000000000000000000815260040161111d90611d21565b60405180910390fd5b50505050565b606060405180602001604052806000815250905090565b6060600082141561118b576040518060400160405280600181526020017f3000000000000000000000000000000000000000000000000000000000000000815250905061129f565b600082905060005b600082146111bd5780806111a690612169565b915050600a826111b69190611feb565b9150611193565b60008167ffffffffffffffff8111156111d9576111d861229f565b5b6040519080825280601f01601f19166020018201604052801561120b5781602001600182028036833780820191505090505b5090505b6000851461129857600182611224919061201c565b9150600a8561123391906121b2565b603061123f9190611f95565b60f81b81838151811061125557611254612270565b5b60200101907effffffffffffffffffffffffffffffffffffffffffffffffffffffffffffff1916908160001a905350600a856112919190611feb565b945061120f565b8093505050505b919050565b505050565b6112b3838361149b565b6112c06000848484611304565b6112ff576040517f08c379a00000000000000000000000000000000000000000000000000000000081526004016112f690611d21565b60405180910390fd5b505050565b60006113258473ffffffffffffffffffffffffffffffffffffffff16611669565b1561148e578373ffffffffffffffffffffffffffffffffffffffff1663150b7a0261134e610cb7565b8786866040518563ffffffff1660e01b81526004016113709493929190611c98565b602060405180830381600087803b15801561138a57600080fd5b505af19250505080156113bb57506040513d601f19601f820116820180604052508101906113b89190611945565b60015b61143e573d80600081146113eb576040519150601f19603f3d011682016040523d82523d6000602084013e6113f0565b606091505b50600081511415611436576040517f08c379a000000000000000000000000000000000000000000000000000000000815260040161142d90611d21565b60405180910390fd5b805181602001fd5b63150b7a0260e01b7bffffffffffffffffffffffffffffffffffffffffffffffffffffffff1916817bffffffffffffffffffffffffffffffffffffffffffffffffffffffff191614915050611493565b600190505b949350505050565b600073ffffffffffffffffffffffffffffffffffffffff168273ffffffffffffffffffffffffffffffffffffffff16141561150b576040517f08c379a000000000000000000000000000000000000000000000000000000000815260040161150290611e21565b60405180910390fd5b61151481610c4b565b15611554576040517f08c379a000000000000000000000000000000000000000000000000000000000815260040161154b90611d41565b60405180910390fd5b611560600083836112a4565b6001600360008473ffffffffffffffffffffffffffffffffffffffff1673ffffffffffffffffffffffffffffffffffffffff16815260200190815260200160002060008282546115b09190611f95565b92505081905550816002600083815260200190815260200160002060006101000a81548173ffffffffffffffffffffffffffffffffffffffff021916908373ffffffffffffffffffffffffffffffffffffffff160217905550808273ffffffffffffffffffffffffffffffffffffffff16600073ffffffffffffffffffffffffffffffffffffffff167fddf252ad1be2c89b69c2b068fc378daa952ba7f163c4a11628f55a4df523b3ef60405160405180910390a45050565b600080823b905060008111915050919050565b600061168f61168a84611f21565b611efc565b9050828152602081018484840111156116ab576116aa6122d3565b5b6116b68482856120c4565b509392505050565b6000813590506116cd816126d3565b92915050565b6000813590506116e2816126ea565b92915050565b6000813590506116f781612701565b92915050565b60008151905061170c81612701565b92915050565b600082601f830112611727576117266122ce565b5b813561173784826020860161167c565b91505092915050565b60008135905061174f81612718565b92915050565b60006020828403121561176b5761176a6122dd565b5b6000611779848285016116be565b91505092915050565b60008060408385031215611799576117986122dd565b5b60006117a7858286016116be565b92505060206117b8858286016116be565b9150509250929050565b6000806000606084860312156117db576117da6122dd565b5b60006117e9868287016116be565b93505060206117fa868287016116be565b925050604061180b86828701611740565b9150509250925092565b6000806000806080858703121561182f5761182e6122dd565b5b600061183d878288016116be565b945050602061184e878288016116be565b935050604061185f87828801611740565b925050606085013567ffffffffffffffff8111156118805761187f6122d8565b5b61188c87828801611712565b91505092959194509250565b600080604083850312156118af576118ae6122dd565b5b60006118bd858286016116be565b92505060206118ce858286016116d3565b9150509250929050565b600080604083850312156118ef576118ee6122dd565b5b60006118fd858286016116be565b925050602061190e85828601611740565b9150509250929050565b60006020828403121561192e5761192d6122dd565b5b600061193c848285016116e8565b91505092915050565b60006020828403121561195b5761195a6122dd565b5b6000611969848285016116fd565b91505092915050565b600060208284031215611988576119876122dd565b5b600061199684828501611740565b91505092915050565b6119a881612050565b82525050565b6119b781612062565b82525050565b60006119c882611f52565b6119d28185611f68565b93506119e28185602086016120d3565b6119eb816122e2565b840191505092915050565b6000611a0182611f5d565b611a0b8185611f79565b9350611a1b8185602086016120d3565b611a24816122e2565b840191505092915050565b6000611a3a82611f5d565b611a448185611f8a565b9350611a548185602086016120d3565b80840191505092915050565b6000611a6d603283611f79565b9150611a78826122f3565b604082019050919050565b6000611a90601c83611f79565b9150611a9b82612342565b602082019050919050565b6000611ab3602483611f79565b9150611abe8261236b565b604082019050919050565b6000611ad6601983611f79565b9150611ae1826123ba565b602082019050919050565b6000611af9602c83611f79565b9150611b04826123e3565b604082019050919050565b6000611b1c603883611f79565b9150611b2782612432565b604082019050919050565b6000611b3f602a83611f79565b9150611b4a82612481565b604082019050919050565b6000611b62602983611f79565b9150611b6d826124d0565b604082019050919050565b6000611b85602083611f79565b9150611b908261251f565b602082019050919050565b6000611ba8602c83611f79565b9150611bb382612548565b604082019050919050565b6000611bcb602983611f79565b9150611bd682612597565b604082019050919050565b6000611bee602f83611f79565b9150611bf9826125e6565b604082019050919050565b6000611c11602183611f79565b9150611c1c82612635565b604082019050919050565b6000611c34603183611f79565b9150611c3f82612684565b604082019050919050565b611c53816120ba565b82525050565b6000611c658285611a2f565b9150611c718284611a2f565b91508190509392505050565b6000602082019050611c92600083018461199f565b92915050565b6000608082019050611cad600083018761199f565b611cba602083018661199f565b611cc76040830185611c4a565b8181036060830152611cd981846119bd565b905095945050505050565b6000602082019050611cf960008301846119ae565b92915050565b60006020820190508181036000830152611d1981846119f6565b905092915050565b60006020820190508181036000830152611d3a81611a60565b9050919050565b60006020820190508181036000830152611d5a81611a83565b9050919050565b60006020820190508181036000830152611d7a81611aa6565b9050919050565b60006020820190508181036000830152611d9a81611ac9565b9050919050565b60006020820190508181036000830152611dba81611aec565b9050919050565b60006020820190508181036000830152611dda81611b0f565b9050919050565b60006020820190508181036000830152611dfa81611b32565b9050919050565b60006020820190508181036000830152611e1a81611b55565b9050919050565b60006020820190508181036000830152611e3a81611b78565b9050919050565b60006020820190508181036000830152611e5a81611b9b565b9050919050565b60006020820190508181036000830152611e7a81611bbe565b9050919050565b60006020820190508181036000830152611e9a81611be1565b9050919050565b60006020820190508181036000830152611eba81611c04565b9050919050565b60006020820190508181036000830152611eda81611c27565b9050919050565b6000602082019050611ef66000830184611c4a565b92915050565b6000611f06611f17565b9050611f128282612138565b919050565b6000604051905090565b600067ffffffffffffffff821115611f3c57611f3b61229f565b5b611f45826122e2565b9050602081019050919050565b600081519050919050565b600081519050919050565b600082825260208201905092915050565b600082825260208201905092915050565b600081905092915050565b6000611fa0826120ba565b9150611fab836120ba565b9250827fffffffffffffffffffffffffffffffffffffffffffffffffffffffffffffffff03821115611fe057611fdf6121e3565b5b828201905092915050565b6000611ff6826120ba565b9150612001836120ba565b92508261201157612010612212565b5b828204905092915050565b6000612027826120ba565b9150612032836120ba565b925082821015612045576120446121e3565b5b828203905092915050565b600061205b8261209a565b9050919050565b60008115159050919050565b60007fffffffff0000000000000000000000000000000000000000000000000000000082169050919050565b600073ffffffffffffffffffffffffffffffffffffffff82169050919050565b6000819050919050565b82818337600083830152505050565b60005b838110156120f15780820151818401526020810190506120d6565b83811115612100576000848401525b50505050565b6000600282049050600182168061211e57607f821691505b6020821081141561213257612131612241565b5b50919050565b612141826122e2565b810181811067ffffffffffffffff821117156121605761215f61229f565b5b80604052505050565b6000612174826120ba565b91507fffffffffffffffffffffffffffffffffffffffffffffffffffffffffffffffff8214156121a7576121a66121e3565b5b600182019050919050565b60006121bd826120ba565b91506121c8836120ba565b9250826121d8576121d7612212565b5b828206905092915050565b7f4e487b7100000000000000000000000000000000000000000000000000000000600052601160045260246000fd5b7f4e487b7100000000000000000000000000000000000000000000000000000000600052601260045260246000fd5b7f4e487b7100000000000000000000000000000000000000000000000000000000600052602260045260246000fd5b7f4e487b7100000000000000000000000000000000000000000000000000000000600052603260045260246000fd5b7f4e487b7100000000000000000000000000000000000000000000000000000000600052604160045260246000fd5b600080fd5b600080fd5b600080fd5b600080fd5b6000601f19601f8301169050919050565b7f4552433732313a207472616e7366657220746f206e6f6e20455243373231526560008201527f63656976657220696d706c656d656e7465720000000000000000000000000000602082015250565b7f4552433732313a20746f6b656e20616c7265616479206d696e74656400000000600082015250565b7f4552433732313a207472616e7366657220746f20746865207a65726f2061646460008201527f7265737300000000000000000000000000000000000000000000000000000000602082015250565b7f4552433732313a20617070726f766520746f2063616c6c657200000000000000600082015250565b7f4552433732313a206f70657261746f7220717565727920666f72206e6f6e657860008201527f697374656e7420746f6b656e0000000000000000000000000000000000000000602082015250565b7f4552433732313a20617070726f76652063616c6c6572206973206e6f74206f7760008201527f6e6572206e6f7220617070726f76656420666f7220616c6c0000000000000000602082015250565b7f4552433732313a2062616c616e636520717565727920666f7220746865207a6560008201527f726f206164647265737300000000000000000000000000000000000000000000602082015250565b7f4552433732313a206f776e657220717565727920666f72206e6f6e657869737460008201527f656e7420746f6b656e0000000000000000000000000000000000000000000000602082015250565b7f4552433732313a206d696e7420746f20746865207a65726f2061646472657373600082015250565b7f4552433732313a20617070726f76656420717565727920666f72206e6f6e657860008201527f697374656e7420746f6b656e0000000000000000000000000000000000000000602082015250565b7f4552433732313a207472616e73666572206f6620746f6b656e2074686174206960008201527f73206e6f74206f776e0000000000000000000000000000000000000000000000602082015250565b7f4552433732314d657461646174613a2055524920717565727920666f72206e6f60008201527f6e6578697374656e7420746f6b656e0000000000000000000000000000000000602082015250565b7f4552433732313a20617070726f76616c20746f2063757272656e74206f776e6560008201527f7200000000000000000000000000000000000000000000000000000000000000602082015250565b7f4552433732313a207472616e736665722063616c6c6572206973206e6f74206f60008201527f776e6572206e6f7220617070726f766564000000000000000000000000000000602082015250565b6126dc81612050565b81146126e757600080fd5b50565b6126f381612062565b81146126fe57600080fd5b50565b61270a8161206e565b811461271557600080fd5b50565b612721816120ba565b811461272c57600080fd5b5056fea2646970667358221220bf654f69c5536b931794b8b75504f26c516b32ef2bb5b8e5fa04858d25952b2364736f6c63430008060033",
  "linkReferences": {},
  "deployedLinkReferences": {}
}