{
  "_format": "hh-sol-artifact-1",
  "contractName": "TestNft",
  "sourceName": "contracts/TestNft.sol",
  "abi": [
    {
      "inputs": [
        {
          "internalType": "string",
          "name": "_name",
          "type": "string"
        },
        {
          "internalType": "string",
          "name": "_symbol",
          "type": "string"
        }
      ],
      "stateMutability": "nonpayable",
      "type": "constructor"
    },
    {
      "anonymous": false,
      "inputs": [
        {
          "indexed": true,
          "internalType": "address",
          "name": "owner",
          "type": "address"
        },
        {
          "indexed": true,
          "internalType": "address",
          "name": "approved",
          "type": "address"
        },
        {
          "indexed": true,
          "internalType": "uint256",
          "name": "tokenId",
          "type": "uint256"
        }
      ],
      "name": "Approval",
      "type": "event"
    },
    {
      "anonymous": false,
      "inputs": [
        {
          "indexed": true,
          "internalType": "address",
          "name": "owner",
          "type": "address"
        },
        {
          "indexed": true,
          "internalType": "address",
          "name": "operator",
          "type": "address"
        },
        {
          "indexed": false,
          "internalType": "bool",
          "name": "approved",
          "type": "bool"
        }
      ],
      "name": "ApprovalForAll",
      "type": "event"
    },
    {
      "anonymous": false,
      "inputs": [
        {
          "indexed": true,
          "internalType": "address",
          "name": "from",
          "type": "address"
        },
        {
          "indexed": true,
          "internalType": "address",
          "name": "to",
          "type": "address"
        },
        {
          "indexed": true,
          "internalType": "uint256",
          "name": "tokenId",
          "type": "uint256"
        }
      ],
      "name": "Transfer",
      "type": "event"
    },
    {
      "inputs": [
        {
          "internalType": "address",
          "name": "to",
          "type": "address"
        },
        {
          "internalType": "uint256",
          "name": "tokenId",
          "type": "uint256"
        }
      ],
      "name": "approve",
      "outputs": [],
      "stateMutability": "nonpayable",
      "type": "function"
    },
    {
      "inputs": [
        {
          "internalType": "bool",
          "name": "_approved",
          "type": "bool"
        }
      ],
      "name": "approveProtocolAddress",
      "outputs": [],
      "stateMutability": "nonpayable",
      "type": "function"
    },
    {
      "inputs": [
        {
          "internalType": "address",
          "name": "owner",
          "type": "address"
        }
      ],
      "name": "balanceOf",
      "outputs": [
        {
          "internalType": "uint256",
          "name": "",
          "type": "uint256"
        }
      ],
      "stateMutability": "view",
      "type": "function"
    },
    {
      "inputs": [],
      "name": "collectionName",
      "outputs": [
        {
          "internalType": "string",
          "name": "",
          "type": "string"
        }
      ],
      "stateMutability": "view",
      "type": "function"
    },
    {
      "inputs": [],
      "name": "collectionSymbol",
      "outputs": [
        {
          "internalType": "string",
          "name": "",
          "type": "string"
        }
      ],
      "stateMutability": "view",
      "type": "function"
    },
    {
      "inputs": [
        {
          "internalType": "uint256",
          "name": "tokenId",
          "type": "uint256"
        }
      ],
      "name": "getApproved",
      "outputs": [
        {
          "internalType": "address",
          "name": "",
          "type": "address"
        }
      ],
      "stateMutability": "view",
      "type": "function"
    },
    {
      "inputs": [
        {
          "internalType": "address",
          "name": "owner",
          "type": "address"
        },
        {
          "internalType": "address",
          "name": "operator",
          "type": "address"
        }
      ],
      "name": "isApprovedForAll",
      "outputs": [
        {
          "internalType": "bool",
          "name": "",
          "type": "bool"
        }
      ],
      "stateMutability": "view",
      "type": "function"
    },
    {
      "inputs": [
        {
          "internalType": "uint256",
          "name": "_tokenId",
          "type": "uint256"
        }
      ],
      "name": "mintNewNft",
      "outputs": [],
      "stateMutability": "nonpayable",
      "type": "function"
    },
    {
      "inputs": [],
      "name": "name",
      "outputs": [
        {
          "internalType": "string",
          "name": "",
          "type": "string"
        }
      ],
      "stateMutability": "view",
      "type": "function"
    },
    {
      "inputs": [
        {
          "internalType": "address",
          "name": "_owner",
          "type": "address"
        }
      ],
      "name": "nftsOwned",
      "outputs": [
        {
          "internalType": "uint256[]",
          "name": "",
          "type": "uint256[]"
        }
      ],
      "stateMutability": "view",
      "type": "function"
    },
    {
      "inputs": [
        {
          "internalType": "address",
          "name": "",
          "type": "address"
        },
        {
          "internalType": "address",
          "name": "",
          "type": "address"
        },
        {
          "internalType": "uint256",
          "name": "",
          "type": "uint256"
        },
        {
          "internalType": "bytes",
          "name": "",
          "type": "bytes"
        }
      ],
      "name": "onERC721Received",
      "outputs": [
        {
          "internalType": "bytes4",
          "name": "",
          "type": "bytes4"
        }
      ],
      "stateMutability": "nonpayable",
      "type": "function"
    },
    {
      "inputs": [
        {
          "internalType": "uint256",
          "name": "_tokenId",
          "type": "uint256"
        }
      ],
      "name": "ownerOf",
      "outputs": [
        {
          "internalType": "address",
          "name": "",
          "type": "address"
        }
      ],
      "stateMutability": "view",
      "type": "function"
    },
    {
      "inputs": [
        {
          "internalType": "address",
          "name": "from",
          "type": "address"
        },
        {
          "internalType": "address",
          "name": "to",
          "type": "address"
        },
        {
          "internalType": "uint256",
          "name": "tokenId",
          "type": "uint256"
        }
      ],
      "name": "safeTransferFrom",
      "outputs": [],
      "stateMutability": "nonpayable",
      "type": "function"
    },
    {
      "inputs": [
        {
          "internalType": "address",
          "name": "from",
          "type": "address"
        },
        {
          "internalType": "address",
          "name": "to",
          "type": "address"
        },
        {
          "internalType": "uint256",
          "name": "tokenId",
          "type": "uint256"
        },
        {
          "internalType": "bytes",
          "name": "_data",
          "type": "bytes"
        }
      ],
      "name": "safeTransferFrom",
      "outputs": [],
      "stateMutability": "nonpayable",
      "type": "function"
    },
    {
      "inputs": [
        {
          "internalType": "address",
          "name": "operator",
          "type": "address"
        },
        {
          "internalType": "bool",
          "name": "approved",
          "type": "bool"
        }
      ],
      "name": "setApprovalForAll",
      "outputs": [],
      "stateMutability": "nonpayable",
      "type": "function"
    },
    {
      "inputs": [
        {
          "internalType": "bytes4",
          "name": "interfaceId",
          "type": "bytes4"
        }
      ],
      "name": "supportsInterface",
      "outputs": [
        {
          "internalType": "bool",
          "name": "",
          "type": "bool"
        }
      ],
      "stateMutability": "view",
      "type": "function"
    },
    {
      "inputs": [],
      "name": "symbol",
      "outputs": [
        {
          "internalType": "string",
          "name": "",
          "type": "string"
        }
      ],
      "stateMutability": "view",
      "type": "function"
    },
    {
      "inputs": [
        {
          "internalType": "uint256",
          "name": "tokenId",
          "type": "uint256"
        }
      ],
      "name": "tokenURI",
      "outputs": [
        {
          "internalType": "string",
          "name": "",
          "type": "string"
        }
      ],
      "stateMutability": "view",
      "type": "function"
    },
    {
      "inputs": [
        {
          "internalType": "address",
          "name": "_from",
          "type": "address"
        },
        {
          "internalType": "address",
          "name": "_to",
          "type": "address"
        },
        {
          "internalType": "uint256",
          "name": "_tokenId",
          "type": "uint256"
        }
      ],
      "name": "transferFrom",
      "outputs": [],
      "stateMutability": "nonpayable",
      "type": "function"
    }
  ],
  "bytecode": "0x60806040523480156200001157600080fd5b5060405162002f6538038062002f6583398181016040528101906200003791906200033d565b81818160009080519060200190620000519291906200021b565b5080600190805190602001906200006a9291906200021b565b5050508160069080519060200190620000859291906200021b565b5080600790805190602001906200009e9291906200021b565b50620000b763150b7a0260e01b620000c060201b60201c565b505050620004e1565b60007f80ac58cd000000000000000000000000000000000000000000000000000000007bffffffffffffffffffffffffffffffffffffffffffffffffffffffff1916827bffffffffffffffffffffffffffffffffffffffffffffffffffffffff191614806200018c57507f5b5e139f000000000000000000000000000000000000000000000000000000007bffffffffffffffffffffffffffffffffffffffffffffffffffffffff1916827bffffffffffffffffffffffffffffffffffffffffffffffffffffffff1916145b80620001aa5750620001a982620001b160201b62000e001760201c565b5b9050919050565b60007f01ffc9a7000000000000000000000000000000000000000000000000000000007bffffffffffffffffffffffffffffffffffffffffffffffffffffffff1916827bffffffffffffffffffffffffffffffffffffffffffffffffffffffff1916149050919050565b82805462000229906200044d565b90600052602060002090601f0160209004810192826200024d576000855562000299565b82601f106200026857805160ff191683800117855562000299565b8280016001018555821562000299579182015b82811115620002985782518255916020019190600101906200027b565b5b509050620002a89190620002ac565b5090565b5b80821115620002c7576000816000905550600101620002ad565b5090565b6000620002e2620002dc84620003e4565b620003b0565b905082815260208101848484011115620002fb57600080fd5b6200030884828562000417565b509392505050565b600082601f8301126200032257600080fd5b815162000334848260208601620002cb565b91505092915050565b600080604083850312156200035157600080fd5b600083015167ffffffffffffffff8111156200036c57600080fd5b6200037a8582860162000310565b925050602083015167ffffffffffffffff8111156200039857600080fd5b620003a68582860162000310565b9150509250929050565b6000604051905081810181811067ffffffffffffffff82111715620003da57620003d9620004b2565b5b8060405250919050565b600067ffffffffffffffff821115620004025762000401620004b2565b5b601f19601f8301169050602081019050919050565b60005b83811015620004375780820151818401526020810190506200041a565b8381111562000447576000848401525b50505050565b600060028204905060018216806200046657607f821691505b602082108114156200047d576200047c62000483565b5b50919050565b7f4e487b7100000000000000000000000000000000000000000000000000000000600052602260045260246000fd5b7f4e487b7100000000000000000000000000000000000000000000000000000000600052604160045260246000fd5b612a7480620004f16000396000f3fe608060405234801561001057600080fd5b50600436106101215760003560e01c80636352211e116100ad578063a22cb46511610071578063a22cb4651461032c578063b88d4fde14610348578063c87b56dd14610364578063e5326ab114610394578063e985e9c5146103b257610121565b80636352211e1461026257806366e15b551461029257806370a08231146102ae5780638baafe13146102de57806395d89b411461030e57610121565b8063150b7a02116100f4578063150b7a02146101c057806323b872dd146101f05780632f39352a1461020c57806342842e0e1461022a5780634b6d69d31461024657610121565b806301ffc9a71461012657806306fdde0314610156578063081812fc14610174578063095ea7b3146101a4575b600080fd5b610140600480360381019061013b9190611c3a565b6103e2565b60405161014d91906123e8565b60405180910390f35b61015e6104c4565b60405161016b919061241e565b60405180910390f35b61018e60048036038101906101899190611c8c565b610556565b60405161019b919061235f565b60405180910390f35b6101be60048036038101906101b99190611bd5565b6105db565b005b6101da60048036038101906101d59190611b1e565b6106f3565b6040516101e79190612403565b60405180910390f35b61020a60048036038101906102059190611acf565b610707565b005b610214610717565b604051610221919061241e565b60405180910390f35b610244600480360381019061023f9190611acf565b6107a9565b005b610260600480360381019061025b9190611c8c565b6107c9565b005b61027c60048036038101906102779190611c8c565b61083c565b604051610289919061235f565b60405180910390f35b6102ac60048036038101906102a79190611c11565b61084e565b005b6102c860048036038101906102c39190611a6a565b61086f565b6040516102d59190612600565b60405180910390f35b6102f860048036038101906102f39190611a6a565b610927565b60405161030591906123c6565b60405180910390f35b6103166109be565b604051610323919061241e565b60405180910390f35b61034660048036038101906103419190611b99565b610a50565b005b610362600480360381019061035d9190611b1e565b610bd1565b005b61037e60048036038101906103799190611c8c565b610c33565b60405161038b919061241e565b60405180910390f35b61039c610cda565b6040516103a9919061241e565b60405180910390f35b6103cc60048036038101906103c79190611a93565b610d6c565b6040516103d991906123e8565b60405180910390f35b60007f80ac58cd000000000000000000000000000000000000000000000000000000007bffffffffffffffffffffffffffffffffffffffffffffffffffffffff1916827bffffffffffffffffffffffffffffffffffffffffffffffffffffffff191614806104ad57507f5b5e139f000000000000000000000000000000000000000000000000000000007bffffffffffffffffffffffffffffffffffffffffffffffffffffffff1916827bffffffffffffffffffffffffffffffffffffffffffffffffffffffff1916145b806104bd57506104bc82610e00565b5b9050919050565b6060600080546104d390612869565b80601f01602080910402602001604051908101604052809291908181526020018280546104ff90612869565b801561054c5780601f106105215761010080835404028352916020019161054c565b820191906000526020600020905b81548152906001019060200180831161052f57829003601f168201915b5050505050905090565b600061056182610e6a565b6105a0576040517f08c379a000000000000000000000000000000000000000000000000000000000815260040161059790612560565b60405180910390fd5b6004600083815260200190815260200160002060009054906101000a900473ffffffffffffffffffffffffffffffffffffffff169050919050565b60006105e682610ed6565b90508073ffffffffffffffffffffffffffffffffffffffff168373ffffffffffffffffffffffffffffffffffffffff161415610657576040517f08c379a000000000000000000000000000000000000000000000000000000000815260040161064e906125c0565b60405180910390fd5b8073ffffffffffffffffffffffffffffffffffffffff16610676610f88565b73ffffffffffffffffffffffffffffffffffffffff1614806106a557506106a48161069f610f88565b610d6c565b5b6106e4576040517f08c379a00000000000000000000000000000000000000000000000000000000081526004016106db906124e0565b60405180910390fd5b6106ee8383610f90565b505050565b600063150b7a0260e01b9050949350505050565b6107128383836107a9565b505050565b60606007805461072690612869565b80601f016020809104026020016040519081016040528092919081815260200182805461075290612869565b801561079f5780601f106107745761010080835404028352916020019161079f565b820191906000526020600020905b81548152906001019060200180831161078257829003601f168201915b5050505050905090565b6107c483838360405180602001604052806000815250610bd1565b505050565b6107d33382611049565b600860003373ffffffffffffffffffffffffffffffffffffffff1673ffffffffffffffffffffffffffffffffffffffff16815260200190815260200160002081908060018154018082558091505060019003906000526020600020016000909190919091505550565b600061084782610ed6565b9050919050565b61086c73e7f1725e7734ce288f8367e1bb143e90bb3f051282610a50565b50565b60008073ffffffffffffffffffffffffffffffffffffffff168273ffffffffffffffffffffffffffffffffffffffff1614156108e0576040517f08c379a00000000000000000000000000000000000000000000000000000000081526004016108d790612500565b60405180910390fd5b600360008373ffffffffffffffffffffffffffffffffffffffff1673ffffffffffffffffffffffffffffffffffffffff168152602001908152602001600020549050919050565b6060600860008373ffffffffffffffffffffffffffffffffffffffff1673ffffffffffffffffffffffffffffffffffffffff1681526020019081526020016000208054806020026020016040519081016040528092919081815260200182805480156109b257602002820191906000526020600020905b81548152602001906001019080831161099e575b50505050509050919050565b6060600180546109cd90612869565b80601f01602080910402602001604051908101604052809291908181526020018280546109f990612869565b8015610a465780601f10610a1b57610100808354040283529160200191610a46565b820191906000526020600020905b815481529060010190602001808311610a2957829003601f168201915b5050505050905090565b610a58610f88565b73ffffffffffffffffffffffffffffffffffffffff168273ffffffffffffffffffffffffffffffffffffffff161415610ac6576040517f08c379a0000000000000000000000000000000000000000000000000000000008152600401610abd906124a0565b60405180910390fd5b8060056000610ad3610f88565b73ffffffffffffffffffffffffffffffffffffffff1673ffffffffffffffffffffffffffffffffffffffff16815260200190815260200160002060008473ffffffffffffffffffffffffffffffffffffffff1673ffffffffffffffffffffffffffffffffffffffff16815260200190815260200160002060006101000a81548160ff0219169083151502179055508173ffffffffffffffffffffffffffffffffffffffff16610b80610f88565b73ffffffffffffffffffffffffffffffffffffffff167f17307eab39ab6107e8899845ad3d59bd9653f200f220920489ca2b5937696c3183604051610bc591906123e8565b60405180910390a35050565b610be2610bdc610f88565b83611067565b610c21576040517f08c379a0000000000000000000000000000000000000000000000000000000008152600401610c18906125e0565b60405180910390fd5b610c2d84848484611145565b50505050565b6060610c3e82610e6a565b610c7d576040517f08c379a0000000000000000000000000000000000000000000000000000000008152600401610c74906125a0565b60405180910390fd5b6000610c876111a1565b90506000815111610ca75760405180602001604052806000815250610cd2565b80610cb1846111b8565b604051602001610cc292919061233b565b6040516020818303038152906040525b915050919050565b606060068054610ce990612869565b80601f0160208091040260200160405190810160405280929190818152602001828054610d1590612869565b8015610d625780601f10610d3757610100808354040283529160200191610d62565b820191906000526020600020905b815481529060010190602001808311610d4557829003601f168201915b5050505050905090565b6000600560008473ffffffffffffffffffffffffffffffffffffffff1673ffffffffffffffffffffffffffffffffffffffff16815260200190815260200160002060008373ffffffffffffffffffffffffffffffffffffffff1673ffffffffffffffffffffffffffffffffffffffff16815260200190815260200160002060009054906101000a900460ff16905092915050565b60007f01ffc9a7000000000000000000000000000000000000000000000000000000007bffffffffffffffffffffffffffffffffffffffffffffffffffffffff1916827bffffffffffffffffffffffffffffffffffffffffffffffffffffffff1916149050919050565b60008073ffffffffffffffffffffffffffffffffffffffff166002600084815260200190815260200160002060009054906101000a900473ffffffffffffffffffffffffffffffffffffffff1673ffffffffffffffffffffffffffffffffffffffff1614159050919050565b6000806002600084815260200190815260200160002060009054906101000a900473ffffffffffffffffffffffffffffffffffffffff169050600073ffffffffffffffffffffffffffffffffffffffff168173ffffffffffffffffffffffffffffffffffffffff161415610f7f576040517f08c379a0000000000000000000000000000000000000000000000000000000008152600401610f7690612520565b60405180910390fd5b80915050919050565b600033905090565b816004600083815260200190815260200160002060006101000a81548173ffffffffffffffffffffffffffffffffffffffff021916908373ffffffffffffffffffffffffffffffffffffffff160217905550808273ffffffffffffffffffffffffffffffffffffffff1661100383610ed6565b73ffffffffffffffffffffffffffffffffffffffff167f8c5be1e5ebec7d5bd14f71427d1e84f3dd0314c0f7b2291e5b200ac8c7c3b92560405160405180910390a45050565b611063828260405180602001604052806000815250611365565b5050565b600061107282610e6a565b6110b1576040517f08c379a00000000000000000000000000000000000000000000000000000000081526004016110a8906124c0565b60405180910390fd5b60006110bc83610ed6565b90508073ffffffffffffffffffffffffffffffffffffffff168473ffffffffffffffffffffffffffffffffffffffff16148061112b57508373ffffffffffffffffffffffffffffffffffffffff1661111384610556565b73ffffffffffffffffffffffffffffffffffffffff16145b8061113c575061113b8185610d6c565b5b91505092915050565b6111508484846113c0565b61115c8484848461161c565b61119b576040517f08c379a000000000000000000000000000000000000000000000000000000000815260040161119290612440565b60405180910390fd5b50505050565b606060405180602001604052806000815250905090565b60606000821415611200576040518060400160405280600181526020017f30000000000000000000000000000000000000000000000000000000000000008152509050611360565b600082905060005b6000821461123257808061121b9061289b565b915050600a8261122b919061274e565b9150611208565b60008167ffffffffffffffff811115611274577f4e487b7100000000000000000000000000000000000000000000000000000000600052604160045260246000fd5b6040519080825280601f01601f1916602001820160405280156112a65781602001600182028036833780820191505090505b5090505b60008514611359576001826112bf919061277f565b9150600a856112ce91906128e4565b60306112da91906126f8565b60f81b818381518110611316577f4e487b7100000000000000000000000000000000000000000000000000000000600052603260045260246000fd5b60200101907effffffffffffffffffffffffffffffffffffffffffffffffffffffffffffff1916908160001a905350600a85611352919061274e565b94506112aa565b8093505050505b919050565b61136f83836117b3565b61137c600084848461161c565b6113bb576040517f08c379a00000000000000000000000000000000000000000000000000000000081526004016113b290612440565b60405180910390fd5b505050565b8273ffffffffffffffffffffffffffffffffffffffff166113e082610ed6565b73ffffffffffffffffffffffffffffffffffffffff1614611436576040517f08c379a000000000000000000000000000000000000000000000000000000000815260040161142d90612580565b60405180910390fd5b600073ffffffffffffffffffffffffffffffffffffffff168273ffffffffffffffffffffffffffffffffffffffff1614156114a6576040517f08c379a000000000000000000000000000000000000000000000000000000000815260040161149d90612480565b60405180910390fd5b6114b1838383611981565b6114bc600082610f90565b6001600360008573ffffffffffffffffffffffffffffffffffffffff1673ffffffffffffffffffffffffffffffffffffffff168152602001908152602001600020600082825461150c919061277f565b925050819055506001600360008473ffffffffffffffffffffffffffffffffffffffff1673ffffffffffffffffffffffffffffffffffffffff168152602001908152602001600020600082825461156391906126f8565b92505081905550816002600083815260200190815260200160002060006101000a81548173ffffffffffffffffffffffffffffffffffffffff021916908373ffffffffffffffffffffffffffffffffffffffff160217905550808273ffffffffffffffffffffffffffffffffffffffff168473ffffffffffffffffffffffffffffffffffffffff167fddf252ad1be2c89b69c2b068fc378daa952ba7f163c4a11628f55a4df523b3ef60405160405180910390a4505050565b600061163d8473ffffffffffffffffffffffffffffffffffffffff16611986565b156117a6578373ffffffffffffffffffffffffffffffffffffffff1663150b7a02611666610f88565b8786866040518563ffffffff1660e01b8152600401611688949392919061237a565b602060405180830381600087803b1580156116a257600080fd5b505af19250505080156116d357506040513d601f19601f820116820180604052508101906116d09190611c63565b60015b611756573d8060008114611703576040519150601f19603f3d011682016040523d82523d6000602084013e611708565b606091505b5060008151141561174e576040517f08c379a000000000000000000000000000000000000000000000000000000000815260040161174590612440565b60405180910390fd5b805181602001fd5b63150b7a0260e01b7bffffffffffffffffffffffffffffffffffffffffffffffffffffffff1916817bffffffffffffffffffffffffffffffffffffffffffffffffffffffff1916149150506117ab565b600190505b949350505050565b600073ffffffffffffffffffffffffffffffffffffffff168273ffffffffffffffffffffffffffffffffffffffff161415611823576040517f08c379a000000000000000000000000000000000000000000000000000000000815260040161181a90612540565b60405180910390fd5b61182c81610e6a565b1561186c576040517f08c379a000000000000000000000000000000000000000000000000000000000815260040161186390612460565b60405180910390fd5b61187860008383611981565b6001600360008473ffffffffffffffffffffffffffffffffffffffff1673ffffffffffffffffffffffffffffffffffffffff16815260200190815260200160002060008282546118c891906126f8565b92505081905550816002600083815260200190815260200160002060006101000a81548173ffffffffffffffffffffffffffffffffffffffff021916908373ffffffffffffffffffffffffffffffffffffffff160217905550808273ffffffffffffffffffffffffffffffffffffffff16600073ffffffffffffffffffffffffffffffffffffffff167fddf252ad1be2c89b69c2b068fc378daa952ba7f163c4a11628f55a4df523b3ef60405160405180910390a45050565b505050565b600080823b905060008111915050919050565b60006119ac6119a78461264c565b61261b565b9050828152602081018484840111156119c457600080fd5b6119cf848285612827565b509392505050565b6000813590506119e6816129e2565b92915050565b6000813590506119fb816129f9565b92915050565b600081359050611a1081612a10565b92915050565b600081519050611a2581612a10565b92915050565b600082601f830112611a3c57600080fd5b8135611a4c848260208601611999565b91505092915050565b600081359050611a6481612a27565b92915050565b600060208284031215611a7c57600080fd5b6000611a8a848285016119d7565b91505092915050565b60008060408385031215611aa657600080fd5b6000611ab4858286016119d7565b9250506020611ac5858286016119d7565b9150509250929050565b600080600060608486031215611ae457600080fd5b6000611af2868287016119d7565b9350506020611b03868287016119d7565b9250506040611b1486828701611a55565b9150509250925092565b60008060008060808587031215611b3457600080fd5b6000611b42878288016119d7565b9450506020611b53878288016119d7565b9350506040611b6487828801611a55565b925050606085013567ffffffffffffffff811115611b8157600080fd5b611b8d87828801611a2b565b91505092959194509250565b60008060408385031215611bac57600080fd5b6000611bba858286016119d7565b9250506020611bcb858286016119ec565b9150509250929050565b60008060408385031215611be857600080fd5b6000611bf6858286016119d7565b9250506020611c0785828601611a55565b9150509250929050565b600060208284031215611c2357600080fd5b6000611c31848285016119ec565b91505092915050565b600060208284031215611c4c57600080fd5b6000611c5a84828501611a01565b91505092915050565b600060208284031215611c7557600080fd5b6000611c8384828501611a16565b91505092915050565b600060208284031215611c9e57600080fd5b6000611cac84828501611a55565b91505092915050565b6000611cc1838361231d565b60208301905092915050565b611cd6816127b3565b82525050565b6000611ce78261268c565b611cf181856126ba565b9350611cfc8361267c565b8060005b83811015611d2d578151611d148882611cb5565b9750611d1f836126ad565b925050600181019050611d00565b5085935050505092915050565b611d43816127c5565b82525050565b611d52816127d1565b82525050565b6000611d6382612697565b611d6d81856126cb565b9350611d7d818560208601612836565b611d86816129d1565b840191505092915050565b6000611d9c826126a2565b611da681856126dc565b9350611db6818560208601612836565b611dbf816129d1565b840191505092915050565b6000611dd5826126a2565b611ddf81856126ed565b9350611def818560208601612836565b80840191505092915050565b6000611e086032836126dc565b91507f4552433732313a207472616e7366657220746f206e6f6e20455243373231526560008301527f63656976657220696d706c656d656e74657200000000000000000000000000006020830152604082019050919050565b6000611e6e601c836126dc565b91507f4552433732313a20746f6b656e20616c7265616479206d696e746564000000006000830152602082019050919050565b6000611eae6024836126dc565b91507f4552433732313a207472616e7366657220746f20746865207a65726f2061646460008301527f72657373000000000000000000000000000000000000000000000000000000006020830152604082019050919050565b6000611f146019836126dc565b91507f4552433732313a20617070726f766520746f2063616c6c6572000000000000006000830152602082019050919050565b6000611f54602c836126dc565b91507f4552433732313a206f70657261746f7220717565727920666f72206e6f6e657860008301527f697374656e7420746f6b656e00000000000000000000000000000000000000006020830152604082019050919050565b6000611fba6038836126dc565b91507f4552433732313a20617070726f76652063616c6c6572206973206e6f74206f7760008301527f6e6572206e6f7220617070726f76656420666f7220616c6c00000000000000006020830152604082019050919050565b6000612020602a836126dc565b91507f4552433732313a2062616c616e636520717565727920666f7220746865207a6560008301527f726f2061646472657373000000000000000000000000000000000000000000006020830152604082019050919050565b60006120866029836126dc565b91507f4552433732313a206f776e657220717565727920666f72206e6f6e657869737460008301527f656e7420746f6b656e00000000000000000000000000000000000000000000006020830152604082019050919050565b60006120ec6020836126dc565b91507f4552433732313a206d696e7420746f20746865207a65726f20616464726573736000830152602082019050919050565b600061212c602c836126dc565b91507f4552433732313a20617070726f76656420717565727920666f72206e6f6e657860008301527f697374656e7420746f6b656e00000000000000000000000000000000000000006020830152604082019050919050565b60006121926029836126dc565b91507f4552433732313a207472616e73666572206f6620746f6b656e2074686174206960008301527f73206e6f74206f776e00000000000000000000000000000000000000000000006020830152604082019050919050565b60006121f8602f836126dc565b91507f4552433732314d657461646174613a2055524920717565727920666f72206e6f60008301527f6e6578697374656e7420746f6b656e00000000000000000000000000000000006020830152604082019050919050565b600061225e6021836126dc565b91507f4552433732313a20617070726f76616c20746f2063757272656e74206f776e6560008301527f72000000000000000000000000000000000000000000000000000000000000006020830152604082019050919050565b60006122c46031836126dc565b91507f4552433732313a207472616e736665722063616c6c6572206973206e6f74206f60008301527f776e6572206e6f7220617070726f7665640000000000000000000000000000006020830152604082019050919050565b6123268161281d565b82525050565b6123358161281d565b82525050565b60006123478285611dca565b91506123538284611dca565b91508190509392505050565b60006020820190506123746000830184611ccd565b92915050565b600060808201905061238f6000830187611ccd565b61239c6020830186611ccd565b6123a9604083018561232c565b81810360608301526123bb8184611d58565b905095945050505050565b600060208201905081810360008301526123e08184611cdc565b905092915050565b60006020820190506123fd6000830184611d3a565b92915050565b60006020820190506124186000830184611d49565b92915050565b600060208201905081810360008301526124388184611d91565b905092915050565b6000602082019050818103600083015261245981611dfb565b9050919050565b6000602082019050818103600083015261247981611e61565b9050919050565b6000602082019050818103600083015261249981611ea1565b9050919050565b600060208201905081810360008301526124b981611f07565b9050919050565b600060208201905081810360008301526124d981611f47565b9050919050565b600060208201905081810360008301526124f981611fad565b9050919050565b6000602082019050818103600083015261251981612013565b9050919050565b6000602082019050818103600083015261253981612079565b9050919050565b60006020820190508181036000830152612559816120df565b9050919050565b600060208201905081810360008301526125798161211f565b9050919050565b6000602082019050818103600083015261259981612185565b9050919050565b600060208201905081810360008301526125b9816121eb565b9050919050565b600060208201905081810360008301526125d981612251565b9050919050565b600060208201905081810360008301526125f9816122b7565b9050919050565b6000602082019050612615600083018461232c565b92915050565b6000604051905081810181811067ffffffffffffffff82111715612642576126416129a2565b5b8060405250919050565b600067ffffffffffffffff821115612667576126666129a2565b5b601f19601f8301169050602081019050919050565b6000819050602082019050919050565b600081519050919050565b600081519050919050565b600081519050919050565b6000602082019050919050565b600082825260208201905092915050565b600082825260208201905092915050565b600082825260208201905092915050565b600081905092915050565b60006127038261281d565b915061270e8361281d565b9250827fffffffffffffffffffffffffffffffffffffffffffffffffffffffffffffffff0382111561274357612742612915565b5b828201905092915050565b60006127598261281d565b91506127648361281d565b92508261277457612773612944565b5b828204905092915050565b600061278a8261281d565b91506127958361281d565b9250828210156127a8576127a7612915565b5b828203905092915050565b60006127be826127fd565b9050919050565b60008115159050919050565b60007fffffffff0000000000000000000000000000000000000000000000000000000082169050919050565b600073ffffffffffffffffffffffffffffffffffffffff82169050919050565b6000819050919050565b82818337600083830152505050565b60005b83811015612854578082015181840152602081019050612839565b83811115612863576000848401525b50505050565b6000600282049050600182168061288157607f821691505b6020821081141561289557612894612973565b5b50919050565b60006128a68261281d565b91507fffffffffffffffffffffffffffffffffffffffffffffffffffffffffffffffff8214156128d9576128d8612915565b5b600182019050919050565b60006128ef8261281d565b91506128fa8361281d565b92508261290a57612909612944565b5b828206905092915050565b7f4e487b7100000000000000000000000000000000000000000000000000000000600052601160045260246000fd5b7f4e487b7100000000000000000000000000000000000000000000000000000000600052601260045260246000fd5b7f4e487b7100000000000000000000000000000000000000000000000000000000600052602260045260246000fd5b7f4e487b7100000000000000000000000000000000000000000000000000000000600052604160045260246000fd5b6000601f19601f8301169050919050565b6129eb816127b3565b81146129f657600080fd5b50565b612a02816127c5565b8114612a0d57600080fd5b50565b612a19816127d1565b8114612a2457600080fd5b50565b612a308161281d565b8114612a3b57600080fd5b5056fea26469706673582212206c5ce94791eb281aac9480e0df68cfa4e007817e91abc0ee43a0a4cbad605a7e64736f6c63430008000033",
  "linkReferences": {},
  "deployedLinkReferences": {}
}