{
  "_format": "hh-sol-artifact-1",
  "contractName": "TestNft",
  "sourceName": "contracts/TestNft.sol",
  "abi": [
    {
      "inputs": [
        {
          "internalType": "string",
          "name": "_name",
          "type": "string"
        },
        {
          "internalType": "string",
          "name": "_symbol",
          "type": "string"
        }
      ],
      "stateMutability": "nonpayable",
      "type": "constructor"
    },
    {
      "anonymous": false,
      "inputs": [
        {
          "indexed": true,
          "internalType": "address",
          "name": "owner",
          "type": "address"
        },
        {
          "indexed": true,
          "internalType": "address",
          "name": "approved",
          "type": "address"
        },
        {
          "indexed": true,
          "internalType": "uint256",
          "name": "tokenId",
          "type": "uint256"
        }
      ],
      "name": "Approval",
      "type": "event"
    },
    {
      "anonymous": false,
      "inputs": [
        {
          "indexed": true,
          "internalType": "address",
          "name": "owner",
          "type": "address"
        },
        {
          "indexed": true,
          "internalType": "address",
          "name": "operator",
          "type": "address"
        },
        {
          "indexed": false,
          "internalType": "bool",
          "name": "approved",
          "type": "bool"
        }
      ],
      "name": "ApprovalForAll",
      "type": "event"
    },
    {
      "anonymous": false,
      "inputs": [
        {
          "indexed": true,
          "internalType": "address",
          "name": "from",
          "type": "address"
        },
        {
          "indexed": true,
          "internalType": "address",
          "name": "to",
          "type": "address"
        },
        {
          "indexed": true,
          "internalType": "uint256",
          "name": "tokenId",
          "type": "uint256"
        }
      ],
      "name": "Transfer",
      "type": "event"
    },
    {
      "inputs": [
        {
          "internalType": "address",
          "name": "to",
          "type": "address"
        },
        {
          "internalType": "uint256",
          "name": "tokenId",
          "type": "uint256"
        }
      ],
      "name": "approve",
      "outputs": [],
      "stateMutability": "nonpayable",
      "type": "function"
    },
    {
      "inputs": [
        {
          "internalType": "address",
          "name": "owner",
          "type": "address"
        }
      ],
      "name": "balanceOf",
      "outputs": [
        {
          "internalType": "uint256",
          "name": "",
          "type": "uint256"
        }
      ],
      "stateMutability": "view",
      "type": "function"
    },
    {
      "inputs": [],
      "name": "collectionName",
      "outputs": [
        {
          "internalType": "string",
          "name": "",
          "type": "string"
        }
      ],
      "stateMutability": "view",
      "type": "function"
    },
    {
      "inputs": [],
      "name": "collectionSymbol",
      "outputs": [
        {
          "internalType": "string",
          "name": "",
          "type": "string"
        }
      ],
      "stateMutability": "view",
      "type": "function"
    },
    {
      "inputs": [
        {
          "internalType": "uint256",
          "name": "tokenId",
          "type": "uint256"
        }
      ],
      "name": "getApproved",
      "outputs": [
        {
          "internalType": "address",
          "name": "",
          "type": "address"
        }
      ],
      "stateMutability": "view",
      "type": "function"
    },
    {
      "inputs": [
        {
          "internalType": "address",
          "name": "owner",
          "type": "address"
        },
        {
          "internalType": "address",
          "name": "operator",
          "type": "address"
        }
      ],
      "name": "isApprovedForAll",
      "outputs": [
        {
          "internalType": "bool",
          "name": "",
          "type": "bool"
        }
      ],
      "stateMutability": "view",
      "type": "function"
    },
    {
      "inputs": [
        {
          "internalType": "uint256",
          "name": "_tokenId",
          "type": "uint256"
        }
      ],
      "name": "mintNewNft",
      "outputs": [],
      "stateMutability": "nonpayable",
      "type": "function"
    },
    {
      "inputs": [],
      "name": "name",
      "outputs": [
        {
          "internalType": "string",
          "name": "",
          "type": "string"
        }
      ],
      "stateMutability": "view",
      "type": "function"
    },
    {
      "inputs": [
        {
          "internalType": "address",
          "name": "_owner",
          "type": "address"
        }
      ],
      "name": "nftsOwned",
      "outputs": [
        {
          "internalType": "uint256[]",
          "name": "",
          "type": "uint256[]"
        }
      ],
      "stateMutability": "view",
      "type": "function"
    },
    {
      "inputs": [
        {
          "internalType": "uint256",
          "name": "_tokenId",
          "type": "uint256"
        }
      ],
      "name": "ownerOf",
      "outputs": [
        {
          "internalType": "address",
          "name": "",
          "type": "address"
        }
      ],
      "stateMutability": "view",
      "type": "function"
    },
    {
      "inputs": [
        {
          "internalType": "address",
          "name": "from",
          "type": "address"
        },
        {
          "internalType": "address",
          "name": "to",
          "type": "address"
        },
        {
          "internalType": "uint256",
          "name": "tokenId",
          "type": "uint256"
        }
      ],
      "name": "safeTransferFrom",
      "outputs": [],
      "stateMutability": "nonpayable",
      "type": "function"
    },
    {
      "inputs": [
        {
          "internalType": "address",
          "name": "from",
          "type": "address"
        },
        {
          "internalType": "address",
          "name": "to",
          "type": "address"
        },
        {
          "internalType": "uint256",
          "name": "tokenId",
          "type": "uint256"
        },
        {
          "internalType": "bytes",
          "name": "_data",
          "type": "bytes"
        }
      ],
      "name": "safeTransferFrom",
      "outputs": [],
      "stateMutability": "nonpayable",
      "type": "function"
    },
    {
      "inputs": [
        {
          "internalType": "address",
          "name": "operator",
          "type": "address"
        },
        {
          "internalType": "bool",
          "name": "approved",
          "type": "bool"
        }
      ],
      "name": "setApprovalForAll",
      "outputs": [],
      "stateMutability": "nonpayable",
      "type": "function"
    },
    {
      "inputs": [
        {
          "internalType": "bytes4",
          "name": "interfaceId",
          "type": "bytes4"
        }
      ],
      "name": "supportsInterface",
      "outputs": [
        {
          "internalType": "bool",
          "name": "",
          "type": "bool"
        }
      ],
      "stateMutability": "view",
      "type": "function"
    },
    {
      "inputs": [],
      "name": "symbol",
      "outputs": [
        {
          "internalType": "string",
          "name": "",
          "type": "string"
        }
      ],
      "stateMutability": "view",
      "type": "function"
    },
    {
      "inputs": [
        {
          "internalType": "uint256",
          "name": "tokenId",
          "type": "uint256"
        }
      ],
      "name": "tokenURI",
      "outputs": [
        {
          "internalType": "string",
          "name": "",
          "type": "string"
        }
      ],
      "stateMutability": "view",
      "type": "function"
    },
    {
      "inputs": [
        {
          "internalType": "address",
          "name": "_from",
          "type": "address"
        },
        {
          "internalType": "address",
          "name": "_to",
          "type": "address"
        },
        {
          "internalType": "uint256",
          "name": "_tokenId",
          "type": "uint256"
        }
      ],
      "name": "transferFrom",
      "outputs": [],
      "stateMutability": "nonpayable",
      "type": "function"
    }
  ],
  "bytecode": "0x60806040523480156200001157600080fd5b5060405162002d6738038062002d678339818101604052810190620000379190620001c9565b8181816000908051906020019062000051929190620000a7565b5080600190805190602001906200006a929190620000a7565b505050816006908051906020019062000085929190620000a7565b5080600790805190602001906200009e929190620000a7565b5050506200036d565b828054620000b590620002d9565b90600052602060002090601f016020900481019282620000d9576000855562000125565b82601f10620000f457805160ff191683800117855562000125565b8280016001018555821562000125579182015b828111156200012457825182559160200191906001019062000107565b5b50905062000134919062000138565b5090565b5b808211156200015357600081600090555060010162000139565b5090565b60006200016e620001688462000270565b6200023c565b9050828152602081018484840111156200018757600080fd5b62000194848285620002a3565b509392505050565b600082601f830112620001ae57600080fd5b8151620001c084826020860162000157565b91505092915050565b60008060408385031215620001dd57600080fd5b600083015167ffffffffffffffff811115620001f857600080fd5b62000206858286016200019c565b925050602083015167ffffffffffffffff8111156200022457600080fd5b62000232858286016200019c565b9150509250929050565b6000604051905081810181811067ffffffffffffffff821117156200026657620002656200033e565b5b8060405250919050565b600067ffffffffffffffff8211156200028e576200028d6200033e565b5b601f19601f8301169050602081019050919050565b60005b83811015620002c3578082015181840152602081019050620002a6565b83811115620002d3576000848401525b50505050565b60006002820490506001821680620002f257607f821691505b602082108114156200030957620003086200030f565b5b50919050565b7f4e487b7100000000000000000000000000000000000000000000000000000000600052602260045260246000fd5b7f4e487b7100000000000000000000000000000000000000000000000000000000600052604160045260246000fd5b6129ea806200037d6000396000f3fe608060405234801561001057600080fd5b506004361061010b5760003560e01c80636352211e116100a2578063a22cb46511610071578063a22cb465146102ca578063b88d4fde146102e6578063c87b56dd14610302578063e5326ab114610332578063e985e9c5146103505761010b565b80636352211e1461021c57806370a082311461024c5780638baafe131461027c57806395d89b41146102ac5761010b565b806323b872dd116100de57806323b872dd146101aa5780632f39352a146101c657806342842e0e146101e45780634b6d69d3146102005761010b565b806301ffc9a71461011057806306fdde0314610140578063081812fc1461015e578063095ea7b31461018e575b600080fd5b61012a60048036038101906101259190611bda565b610380565b6040516101379190612379565b60405180910390f35b610148610462565b6040516101559190612394565b60405180910390f35b61017860048036038101906101739190611c2c565b6104f4565b60405161018591906122f0565b60405180910390f35b6101a860048036038101906101a39190611b9e565b610579565b005b6101c460048036038101906101bf9190611a98565b610691565b005b6101ce6106a1565b6040516101db9190612394565b60405180910390f35b6101fe60048036038101906101f99190611a98565b610733565b005b61021a60048036038101906102159190611c2c565b610753565b005b61023660048036038101906102319190611c2c565b6107c6565b60405161024391906122f0565b60405180910390f35b61026660048036038101906102619190611a33565b6107d8565b6040516102739190612576565b60405180910390f35b61029660048036038101906102919190611a33565b610890565b6040516102a39190612357565b60405180910390f35b6102b4610927565b6040516102c19190612394565b60405180910390f35b6102e460048036038101906102df9190611b62565b6109b9565b005b61030060048036038101906102fb9190611ae7565b610b3a565b005b61031c60048036038101906103179190611c2c565b610b9c565b6040516103299190612394565b60405180910390f35b61033a610c43565b6040516103479190612394565b60405180910390f35b61036a60048036038101906103659190611a5c565b610cd5565b6040516103779190612379565b60405180910390f35b60007f80ac58cd000000000000000000000000000000000000000000000000000000007bffffffffffffffffffffffffffffffffffffffffffffffffffffffff1916827bffffffffffffffffffffffffffffffffffffffffffffffffffffffff1916148061044b57507f5b5e139f000000000000000000000000000000000000000000000000000000007bffffffffffffffffffffffffffffffffffffffffffffffffffffffff1916827bffffffffffffffffffffffffffffffffffffffffffffffffffffffff1916145b8061045b575061045a82610d69565b5b9050919050565b606060008054610471906127df565b80601f016020809104026020016040519081016040528092919081815260200182805461049d906127df565b80156104ea5780601f106104bf576101008083540402835291602001916104ea565b820191906000526020600020905b8154815290600101906020018083116104cd57829003601f168201915b5050505050905090565b60006104ff82610dd3565b61053e576040517f08c379a0000000000000000000000000000000000000000000000000000000008152600401610535906124d6565b60405180910390fd5b6004600083815260200190815260200160002060009054906101000a900473ffffffffffffffffffffffffffffffffffffffff169050919050565b600061058482610e3f565b90508073ffffffffffffffffffffffffffffffffffffffff168373ffffffffffffffffffffffffffffffffffffffff1614156105f5576040517f08c379a00000000000000000000000000000000000000000000000000000000081526004016105ec90612536565b60405180910390fd5b8073ffffffffffffffffffffffffffffffffffffffff16610614610ef1565b73ffffffffffffffffffffffffffffffffffffffff16148061064357506106428161063d610ef1565b610cd5565b5b610682576040517f08c379a000000000000000000000000000000000000000000000000000000000815260040161067990612456565b60405180910390fd5b61068c8383610ef9565b505050565b61069c838383610fb2565b505050565b6060600780546106b0906127df565b80601f01602080910402602001604051908101604052809291908181526020018280546106dc906127df565b80156107295780601f106106fe57610100808354040283529160200191610729565b820191906000526020600020905b81548152906001019060200180831161070c57829003601f168201915b5050505050905090565b61074e83838360405180602001604052806000815250610b3a565b505050565b61075d3382611012565b600860003373ffffffffffffffffffffffffffffffffffffffff1673ffffffffffffffffffffffffffffffffffffffff16815260200190815260200160002081908060018154018082558091505060019003906000526020600020016000909190919091505550565b60006107d182610e3f565b9050919050565b60008073ffffffffffffffffffffffffffffffffffffffff168273ffffffffffffffffffffffffffffffffffffffff161415610849576040517f08c379a000000000000000000000000000000000000000000000000000000000815260040161084090612476565b60405180910390fd5b600360008373ffffffffffffffffffffffffffffffffffffffff1673ffffffffffffffffffffffffffffffffffffffff168152602001908152602001600020549050919050565b6060600860008373ffffffffffffffffffffffffffffffffffffffff1673ffffffffffffffffffffffffffffffffffffffff16815260200190815260200160002080548060200260200160405190810160405280929190818152602001828054801561091b57602002820191906000526020600020905b815481526020019060010190808311610907575b50505050509050919050565b606060018054610936906127df565b80601f0160208091040260200160405190810160405280929190818152602001828054610962906127df565b80156109af5780601f10610984576101008083540402835291602001916109af565b820191906000526020600020905b81548152906001019060200180831161099257829003601f168201915b5050505050905090565b6109c1610ef1565b73ffffffffffffffffffffffffffffffffffffffff168273ffffffffffffffffffffffffffffffffffffffff161415610a2f576040517f08c379a0000000000000000000000000000000000000000000000000000000008152600401610a2690612416565b60405180910390fd5b8060056000610a3c610ef1565b73ffffffffffffffffffffffffffffffffffffffff1673ffffffffffffffffffffffffffffffffffffffff16815260200190815260200160002060008473ffffffffffffffffffffffffffffffffffffffff1673ffffffffffffffffffffffffffffffffffffffff16815260200190815260200160002060006101000a81548160ff0219169083151502179055508173ffffffffffffffffffffffffffffffffffffffff16610ae9610ef1565b73ffffffffffffffffffffffffffffffffffffffff167f17307eab39ab6107e8899845ad3d59bd9653f200f220920489ca2b5937696c3183604051610b2e9190612379565b60405180910390a35050565b610b4b610b45610ef1565b83611030565b610b8a576040517f08c379a0000000000000000000000000000000000000000000000000000000008152600401610b8190612556565b60405180910390fd5b610b968484848461110e565b50505050565b6060610ba782610dd3565b610be6576040517f08c379a0000000000000000000000000000000000000000000000000000000008152600401610bdd90612516565b60405180910390fd5b6000610bf061116a565b90506000815111610c105760405180602001604052806000815250610c3b565b80610c1a84611181565b604051602001610c2b9291906122cc565b6040516020818303038152906040525b915050919050565b606060068054610c52906127df565b80601f0160208091040260200160405190810160405280929190818152602001828054610c7e906127df565b8015610ccb5780601f10610ca057610100808354040283529160200191610ccb565b820191906000526020600020905b815481529060010190602001808311610cae57829003601f168201915b5050505050905090565b6000600560008473ffffffffffffffffffffffffffffffffffffffff1673ffffffffffffffffffffffffffffffffffffffff16815260200190815260200160002060008373ffffffffffffffffffffffffffffffffffffffff1673ffffffffffffffffffffffffffffffffffffffff16815260200190815260200160002060009054906101000a900460ff16905092915050565b60007f01ffc9a7000000000000000000000000000000000000000000000000000000007bffffffffffffffffffffffffffffffffffffffffffffffffffffffff1916827bffffffffffffffffffffffffffffffffffffffffffffffffffffffff1916149050919050565b60008073ffffffffffffffffffffffffffffffffffffffff166002600084815260200190815260200160002060009054906101000a900473ffffffffffffffffffffffffffffffffffffffff1673ffffffffffffffffffffffffffffffffffffffff1614159050919050565b6000806002600084815260200190815260200160002060009054906101000a900473ffffffffffffffffffffffffffffffffffffffff169050600073ffffffffffffffffffffffffffffffffffffffff168173ffffffffffffffffffffffffffffffffffffffff161415610ee8576040517f08c379a0000000000000000000000000000000000000000000000000000000008152600401610edf90612496565b60405180910390fd5b80915050919050565b600033905090565b816004600083815260200190815260200160002060006101000a81548173ffffffffffffffffffffffffffffffffffffffff021916908373ffffffffffffffffffffffffffffffffffffffff160217905550808273ffffffffffffffffffffffffffffffffffffffff16610f6c83610e3f565b73ffffffffffffffffffffffffffffffffffffffff167f8c5be1e5ebec7d5bd14f71427d1e84f3dd0314c0f7b2291e5b200ac8c7c3b92560405160405180910390a45050565b610fc3610fbd610ef1565b82611030565b611002576040517f08c379a0000000000000000000000000000000000000000000000000000000008152600401610ff990612556565b60405180910390fd5b61100d83838361132e565b505050565b61102c82826040518060200160405280600081525061158a565b5050565b600061103b82610dd3565b61107a576040517f08c379a000000000000000000000000000000000000000000000000000000000815260040161107190612436565b60405180910390fd5b600061108583610e3f565b90508073ffffffffffffffffffffffffffffffffffffffff168473ffffffffffffffffffffffffffffffffffffffff1614806110f457508373ffffffffffffffffffffffffffffffffffffffff166110dc846104f4565b73ffffffffffffffffffffffffffffffffffffffff16145b8061110557506111048185610cd5565b5b91505092915050565b61111984848461132e565b611125848484846115e5565b611164576040517f08c379a000000000000000000000000000000000000000000000000000000000815260040161115b906123b6565b60405180910390fd5b50505050565b606060405180602001604052806000815250905090565b606060008214156111c9576040518060400160405280600181526020017f30000000000000000000000000000000000000000000000000000000000000008152509050611329565b600082905060005b600082146111fb5780806111e490612811565b915050600a826111f491906126c4565b91506111d1565b60008167ffffffffffffffff81111561123d577f4e487b7100000000000000000000000000000000000000000000000000000000600052604160045260246000fd5b6040519080825280601f01601f19166020018201604052801561126f5781602001600182028036833780820191505090505b5090505b600085146113225760018261128891906126f5565b9150600a85611297919061285a565b60306112a3919061266e565b60f81b8183815181106112df577f4e487b7100000000000000000000000000000000000000000000000000000000600052603260045260246000fd5b60200101907effffffffffffffffffffffffffffffffffffffffffffffffffffffffffffff1916908160001a905350600a8561131b91906126c4565b9450611273565b8093505050505b919050565b8273ffffffffffffffffffffffffffffffffffffffff1661134e82610e3f565b73ffffffffffffffffffffffffffffffffffffffff16146113a4576040517f08c379a000000000000000000000000000000000000000000000000000000000815260040161139b906124f6565b60405180910390fd5b600073ffffffffffffffffffffffffffffffffffffffff168273ffffffffffffffffffffffffffffffffffffffff161415611414576040517f08c379a000000000000000000000000000000000000000000000000000000000815260040161140b906123f6565b60405180910390fd5b61141f83838361177c565b61142a600082610ef9565b6001600360008573ffffffffffffffffffffffffffffffffffffffff1673ffffffffffffffffffffffffffffffffffffffff168152602001908152602001600020600082825461147a91906126f5565b925050819055506001600360008473ffffffffffffffffffffffffffffffffffffffff1673ffffffffffffffffffffffffffffffffffffffff16815260200190815260200160002060008282546114d1919061266e565b92505081905550816002600083815260200190815260200160002060006101000a81548173ffffffffffffffffffffffffffffffffffffffff021916908373ffffffffffffffffffffffffffffffffffffffff160217905550808273ffffffffffffffffffffffffffffffffffffffff168473ffffffffffffffffffffffffffffffffffffffff167fddf252ad1be2c89b69c2b068fc378daa952ba7f163c4a11628f55a4df523b3ef60405160405180910390a4505050565b6115948383611781565b6115a160008484846115e5565b6115e0576040517f08c379a00000000000000000000000000000000000000000000000000000000081526004016115d7906123b6565b60405180910390fd5b505050565b60006116068473ffffffffffffffffffffffffffffffffffffffff1661194f565b1561176f578373ffffffffffffffffffffffffffffffffffffffff1663150b7a0261162f610ef1565b8786866040518563ffffffff1660e01b8152600401611651949392919061230b565b602060405180830381600087803b15801561166b57600080fd5b505af192505050801561169c57506040513d601f19601f820116820180604052508101906116999190611c03565b60015b61171f573d80600081146116cc576040519150601f19603f3d011682016040523d82523d6000602084013e6116d1565b606091505b50600081511415611717576040517f08c379a000000000000000000000000000000000000000000000000000000000815260040161170e906123b6565b60405180910390fd5b805181602001fd5b63150b7a0260e01b7bffffffffffffffffffffffffffffffffffffffffffffffffffffffff1916817bffffffffffffffffffffffffffffffffffffffffffffffffffffffff191614915050611774565b600190505b949350505050565b505050565b600073ffffffffffffffffffffffffffffffffffffffff168273ffffffffffffffffffffffffffffffffffffffff1614156117f1576040517f08c379a00000000000000000000000000000000000000000000000000000000081526004016117e8906124b6565b60405180910390fd5b6117fa81610dd3565b1561183a576040517f08c379a0000000000000000000000000000000000000000000000000000000008152600401611831906123d6565b60405180910390fd5b6118466000838361177c565b6001600360008473ffffffffffffffffffffffffffffffffffffffff1673ffffffffffffffffffffffffffffffffffffffff1681526020019081526020016000206000828254611896919061266e565b92505081905550816002600083815260200190815260200160002060006101000a81548173ffffffffffffffffffffffffffffffffffffffff021916908373ffffffffffffffffffffffffffffffffffffffff160217905550808273ffffffffffffffffffffffffffffffffffffffff16600073ffffffffffffffffffffffffffffffffffffffff167fddf252ad1be2c89b69c2b068fc378daa952ba7f163c4a11628f55a4df523b3ef60405160405180910390a45050565b600080823b905060008111915050919050565b6000611975611970846125c2565b612591565b90508281526020810184848401111561198d57600080fd5b61199884828561279d565b509392505050565b6000813590506119af81612958565b92915050565b6000813590506119c48161296f565b92915050565b6000813590506119d981612986565b92915050565b6000815190506119ee81612986565b92915050565b600082601f830112611a0557600080fd5b8135611a15848260208601611962565b91505092915050565b600081359050611a2d8161299d565b92915050565b600060208284031215611a4557600080fd5b6000611a53848285016119a0565b91505092915050565b60008060408385031215611a6f57600080fd5b6000611a7d858286016119a0565b9250506020611a8e858286016119a0565b9150509250929050565b600080600060608486031215611aad57600080fd5b6000611abb868287016119a0565b9350506020611acc868287016119a0565b9250506040611add86828701611a1e565b9150509250925092565b60008060008060808587031215611afd57600080fd5b6000611b0b878288016119a0565b9450506020611b1c878288016119a0565b9350506040611b2d87828801611a1e565b925050606085013567ffffffffffffffff811115611b4a57600080fd5b611b56878288016119f4565b91505092959194509250565b60008060408385031215611b7557600080fd5b6000611b83858286016119a0565b9250506020611b94858286016119b5565b9150509250929050565b60008060408385031215611bb157600080fd5b6000611bbf858286016119a0565b9250506020611bd085828601611a1e565b9150509250929050565b600060208284031215611bec57600080fd5b6000611bfa848285016119ca565b91505092915050565b600060208284031215611c1557600080fd5b6000611c23848285016119df565b91505092915050565b600060208284031215611c3e57600080fd5b6000611c4c84828501611a1e565b91505092915050565b6000611c6183836122ae565b60208301905092915050565b611c7681612729565b82525050565b6000611c8782612602565b611c918185612630565b9350611c9c836125f2565b8060005b83811015611ccd578151611cb48882611c55565b9750611cbf83612623565b925050600181019050611ca0565b5085935050505092915050565b611ce38161273b565b82525050565b6000611cf48261260d565b611cfe8185612641565b9350611d0e8185602086016127ac565b611d1781612947565b840191505092915050565b6000611d2d82612618565b611d378185612652565b9350611d478185602086016127ac565b611d5081612947565b840191505092915050565b6000611d6682612618565b611d708185612663565b9350611d808185602086016127ac565b80840191505092915050565b6000611d99603283612652565b91507f4552433732313a207472616e7366657220746f206e6f6e20455243373231526560008301527f63656976657220696d706c656d656e74657200000000000000000000000000006020830152604082019050919050565b6000611dff601c83612652565b91507f4552433732313a20746f6b656e20616c7265616479206d696e746564000000006000830152602082019050919050565b6000611e3f602483612652565b91507f4552433732313a207472616e7366657220746f20746865207a65726f2061646460008301527f72657373000000000000000000000000000000000000000000000000000000006020830152604082019050919050565b6000611ea5601983612652565b91507f4552433732313a20617070726f766520746f2063616c6c6572000000000000006000830152602082019050919050565b6000611ee5602c83612652565b91507f4552433732313a206f70657261746f7220717565727920666f72206e6f6e657860008301527f697374656e7420746f6b656e00000000000000000000000000000000000000006020830152604082019050919050565b6000611f4b603883612652565b91507f4552433732313a20617070726f76652063616c6c6572206973206e6f74206f7760008301527f6e6572206e6f7220617070726f76656420666f7220616c6c00000000000000006020830152604082019050919050565b6000611fb1602a83612652565b91507f4552433732313a2062616c616e636520717565727920666f7220746865207a6560008301527f726f2061646472657373000000000000000000000000000000000000000000006020830152604082019050919050565b6000612017602983612652565b91507f4552433732313a206f776e657220717565727920666f72206e6f6e657869737460008301527f656e7420746f6b656e00000000000000000000000000000000000000000000006020830152604082019050919050565b600061207d602083612652565b91507f4552433732313a206d696e7420746f20746865207a65726f20616464726573736000830152602082019050919050565b60006120bd602c83612652565b91507f4552433732313a20617070726f76656420717565727920666f72206e6f6e657860008301527f697374656e7420746f6b656e00000000000000000000000000000000000000006020830152604082019050919050565b6000612123602983612652565b91507f4552433732313a207472616e73666572206f6620746f6b656e2074686174206960008301527f73206e6f74206f776e00000000000000000000000000000000000000000000006020830152604082019050919050565b6000612189602f83612652565b91507f4552433732314d657461646174613a2055524920717565727920666f72206e6f60008301527f6e6578697374656e7420746f6b656e00000000000000000000000000000000006020830152604082019050919050565b60006121ef602183612652565b91507f4552433732313a20617070726f76616c20746f2063757272656e74206f776e6560008301527f72000000000000000000000000000000000000000000000000000000000000006020830152604082019050919050565b6000612255603183612652565b91507f4552433732313a207472616e736665722063616c6c6572206973206e6f74206f60008301527f776e6572206e6f7220617070726f7665640000000000000000000000000000006020830152604082019050919050565b6122b781612793565b82525050565b6122c681612793565b82525050565b60006122d88285611d5b565b91506122e48284611d5b565b91508190509392505050565b60006020820190506123056000830184611c6d565b92915050565b60006080820190506123206000830187611c6d565b61232d6020830186611c6d565b61233a60408301856122bd565b818103606083015261234c8184611ce9565b905095945050505050565b600060208201905081810360008301526123718184611c7c565b905092915050565b600060208201905061238e6000830184611cda565b92915050565b600060208201905081810360008301526123ae8184611d22565b905092915050565b600060208201905081810360008301526123cf81611d8c565b9050919050565b600060208201905081810360008301526123ef81611df2565b9050919050565b6000602082019050818103600083015261240f81611e32565b9050919050565b6000602082019050818103600083015261242f81611e98565b9050919050565b6000602082019050818103600083015261244f81611ed8565b9050919050565b6000602082019050818103600083015261246f81611f3e565b9050919050565b6000602082019050818103600083015261248f81611fa4565b9050919050565b600060208201905081810360008301526124af8161200a565b9050919050565b600060208201905081810360008301526124cf81612070565b9050919050565b600060208201905081810360008301526124ef816120b0565b9050919050565b6000602082019050818103600083015261250f81612116565b9050919050565b6000602082019050818103600083015261252f8161217c565b9050919050565b6000602082019050818103600083015261254f816121e2565b9050919050565b6000602082019050818103600083015261256f81612248565b9050919050565b600060208201905061258b60008301846122bd565b92915050565b6000604051905081810181811067ffffffffffffffff821117156125b8576125b7612918565b5b8060405250919050565b600067ffffffffffffffff8211156125dd576125dc612918565b5b601f19601f8301169050602081019050919050565b6000819050602082019050919050565b600081519050919050565b600081519050919050565b600081519050919050565b6000602082019050919050565b600082825260208201905092915050565b600082825260208201905092915050565b600082825260208201905092915050565b600081905092915050565b600061267982612793565b915061268483612793565b9250827fffffffffffffffffffffffffffffffffffffffffffffffffffffffffffffffff038211156126b9576126b861288b565b5b828201905092915050565b60006126cf82612793565b91506126da83612793565b9250826126ea576126e96128ba565b5b828204905092915050565b600061270082612793565b915061270b83612793565b92508282101561271e5761271d61288b565b5b828203905092915050565b600061273482612773565b9050919050565b60008115159050919050565b60007fffffffff0000000000000000000000000000000000000000000000000000000082169050919050565b600073ffffffffffffffffffffffffffffffffffffffff82169050919050565b6000819050919050565b82818337600083830152505050565b60005b838110156127ca5780820151818401526020810190506127af565b838111156127d9576000848401525b50505050565b600060028204905060018216806127f757607f821691505b6020821081141561280b5761280a6128e9565b5b50919050565b600061281c82612793565b91507fffffffffffffffffffffffffffffffffffffffffffffffffffffffffffffffff82141561284f5761284e61288b565b5b600182019050919050565b600061286582612793565b915061287083612793565b9250826128805761287f6128ba565b5b828206905092915050565b7f4e487b7100000000000000000000000000000000000000000000000000000000600052601160045260246000fd5b7f4e487b7100000000000000000000000000000000000000000000000000000000600052601260045260246000fd5b7f4e487b7100000000000000000000000000000000000000000000000000000000600052602260045260246000fd5b7f4e487b7100000000000000000000000000000000000000000000000000000000600052604160045260246000fd5b6000601f19601f8301169050919050565b61296181612729565b811461296c57600080fd5b50565b6129788161273b565b811461298357600080fd5b50565b61298f81612747565b811461299a57600080fd5b50565b6129a681612793565b81146129b157600080fd5b5056fea2646970667358221220f9d939aeeba956a1f6a76f7167fdb196c77398f2779061aa5e15806d24844b1b64736f6c63430008000033",
  "linkReferences": {},
  "deployedLinkReferences": {}
}