{
  "_format": "hh-sol-artifact-1",
  "contractName": "TestNft",
  "sourceName": "contracts/TestNft.sol",
  "abi": [
    {
      "inputs": [
        {
          "internalType": "string",
          "name": "_name",
          "type": "string"
        },
        {
          "internalType": "string",
          "name": "_symbol",
          "type": "string"
        }
      ],
      "stateMutability": "nonpayable",
      "type": "constructor"
    },
    {
      "anonymous": false,
      "inputs": [
        {
          "indexed": true,
          "internalType": "address",
          "name": "owner",
          "type": "address"
        },
        {
          "indexed": true,
          "internalType": "address",
          "name": "approved",
          "type": "address"
        },
        {
          "indexed": true,
          "internalType": "uint256",
          "name": "tokenId",
          "type": "uint256"
        }
      ],
      "name": "Approval",
      "type": "event"
    },
    {
      "anonymous": false,
      "inputs": [
        {
          "indexed": true,
          "internalType": "address",
          "name": "owner",
          "type": "address"
        },
        {
          "indexed": true,
          "internalType": "address",
          "name": "operator",
          "type": "address"
        },
        {
          "indexed": false,
          "internalType": "bool",
          "name": "approved",
          "type": "bool"
        }
      ],
      "name": "ApprovalForAll",
      "type": "event"
    },
    {
      "anonymous": false,
      "inputs": [
        {
          "indexed": true,
          "internalType": "address",
          "name": "from",
          "type": "address"
        },
        {
          "indexed": true,
          "internalType": "address",
          "name": "to",
          "type": "address"
        },
        {
          "indexed": true,
          "internalType": "uint256",
          "name": "tokenId",
          "type": "uint256"
        }
      ],
      "name": "Transfer",
      "type": "event"
    },
    {
      "inputs": [
        {
          "internalType": "address",
          "name": "to",
          "type": "address"
        },
        {
          "internalType": "uint256",
          "name": "tokenId",
          "type": "uint256"
        }
      ],
      "name": "approve",
      "outputs": [],
      "stateMutability": "nonpayable",
      "type": "function"
    },
    {
      "inputs": [
        {
          "internalType": "address",
          "name": "owner",
          "type": "address"
        }
      ],
      "name": "balanceOf",
      "outputs": [
        {
          "internalType": "uint256",
          "name": "",
          "type": "uint256"
        }
      ],
      "stateMutability": "view",
      "type": "function"
    },
    {
      "inputs": [],
      "name": "collectionName",
      "outputs": [
        {
          "internalType": "string",
          "name": "",
          "type": "string"
        }
      ],
      "stateMutability": "view",
      "type": "function"
    },
    {
      "inputs": [],
      "name": "collectionSymbol",
      "outputs": [
        {
          "internalType": "string",
          "name": "",
          "type": "string"
        }
      ],
      "stateMutability": "view",
      "type": "function"
    },
    {
      "inputs": [
        {
          "internalType": "uint256",
          "name": "tokenId",
          "type": "uint256"
        }
      ],
      "name": "getApproved",
      "outputs": [
        {
          "internalType": "address",
          "name": "",
          "type": "address"
        }
      ],
      "stateMutability": "view",
      "type": "function"
    },
    {
      "inputs": [
        {
          "internalType": "address",
          "name": "owner",
          "type": "address"
        },
        {
          "internalType": "address",
          "name": "operator",
          "type": "address"
        }
      ],
      "name": "isApprovedForAll",
      "outputs": [
        {
          "internalType": "bool",
          "name": "",
          "type": "bool"
        }
      ],
      "stateMutability": "view",
      "type": "function"
    },
    {
      "inputs": [
        {
          "internalType": "uint256",
          "name": "_tokenId",
          "type": "uint256"
        }
      ],
      "name": "mintNewNft",
      "outputs": [],
      "stateMutability": "nonpayable",
      "type": "function"
    },
    {
      "inputs": [],
      "name": "name",
      "outputs": [
        {
          "internalType": "string",
          "name": "",
          "type": "string"
        }
      ],
      "stateMutability": "view",
      "type": "function"
    },
    {
      "inputs": [
        {
          "internalType": "address",
          "name": "_owner",
          "type": "address"
        }
      ],
      "name": "nftsOwned",
      "outputs": [
        {
          "internalType": "uint256[]",
          "name": "",
          "type": "uint256[]"
        }
      ],
      "stateMutability": "view",
      "type": "function"
    },
    {
      "inputs": [
        {
          "internalType": "uint256",
          "name": "_tokenId",
          "type": "uint256"
        }
      ],
      "name": "ownerOf",
      "outputs": [
        {
          "internalType": "address",
          "name": "",
          "type": "address"
        }
      ],
      "stateMutability": "view",
      "type": "function"
    },
    {
      "inputs": [
        {
          "internalType": "address",
          "name": "from",
          "type": "address"
        },
        {
          "internalType": "address",
          "name": "to",
          "type": "address"
        },
        {
          "internalType": "uint256",
          "name": "tokenId",
          "type": "uint256"
        }
      ],
      "name": "safeTransferFrom",
      "outputs": [],
      "stateMutability": "nonpayable",
      "type": "function"
    },
    {
      "inputs": [
        {
          "internalType": "address",
          "name": "from",
          "type": "address"
        },
        {
          "internalType": "address",
          "name": "to",
          "type": "address"
        },
        {
          "internalType": "uint256",
          "name": "tokenId",
          "type": "uint256"
        },
        {
          "internalType": "bytes",
          "name": "_data",
          "type": "bytes"
        }
      ],
      "name": "safeTransferFrom",
      "outputs": [],
      "stateMutability": "nonpayable",
      "type": "function"
    },
    {
      "inputs": [
        {
          "internalType": "address",
          "name": "operator",
          "type": "address"
        },
        {
          "internalType": "bool",
          "name": "approved",
          "type": "bool"
        }
      ],
      "name": "setApprovalForAll",
      "outputs": [],
      "stateMutability": "nonpayable",
      "type": "function"
    },
    {
      "inputs": [
        {
          "internalType": "bytes4",
          "name": "interfaceId",
          "type": "bytes4"
        }
      ],
      "name": "supportsInterface",
      "outputs": [
        {
          "internalType": "bool",
          "name": "",
          "type": "bool"
        }
      ],
      "stateMutability": "view",
      "type": "function"
    },
    {
      "inputs": [],
      "name": "symbol",
      "outputs": [
        {
          "internalType": "string",
          "name": "",
          "type": "string"
        }
      ],
      "stateMutability": "view",
      "type": "function"
    },
    {
      "inputs": [
        {
          "internalType": "uint256",
          "name": "tokenId",
          "type": "uint256"
        }
      ],
      "name": "tokenURI",
      "outputs": [
        {
          "internalType": "string",
          "name": "",
          "type": "string"
        }
      ],
      "stateMutability": "view",
      "type": "function"
    },
    {
      "inputs": [
        {
          "internalType": "address",
          "name": "from",
          "type": "address"
        },
        {
          "internalType": "address",
          "name": "to",
          "type": "address"
        },
        {
          "internalType": "uint256",
          "name": "tokenId",
          "type": "uint256"
        }
      ],
      "name": "transferFrom",
      "outputs": [],
      "stateMutability": "nonpayable",
      "type": "function"
    }
  ],
  "bytecode": "0x60806040523480156200001157600080fd5b5060405162002d5738038062002d578339818101604052810190620000379190620001c9565b8181816000908051906020019062000051929190620000a7565b5080600190805190602001906200006a929190620000a7565b505050816006908051906020019062000085929190620000a7565b5080600790805190602001906200009e929190620000a7565b5050506200036d565b828054620000b590620002d9565b90600052602060002090601f016020900481019282620000d9576000855562000125565b82601f10620000f457805160ff191683800117855562000125565b8280016001018555821562000125579182015b828111156200012457825182559160200191906001019062000107565b5b50905062000134919062000138565b5090565b5b808211156200015357600081600090555060010162000139565b5090565b60006200016e620001688462000270565b6200023c565b9050828152602081018484840111156200018757600080fd5b62000194848285620002a3565b509392505050565b600082601f830112620001ae57600080fd5b8151620001c084826020860162000157565b91505092915050565b60008060408385031215620001dd57600080fd5b600083015167ffffffffffffffff811115620001f857600080fd5b62000206858286016200019c565b925050602083015167ffffffffffffffff8111156200022457600080fd5b62000232858286016200019c565b9150509250929050565b6000604051905081810181811067ffffffffffffffff821117156200026657620002656200033e565b5b8060405250919050565b600067ffffffffffffffff8211156200028e576200028d6200033e565b5b601f19601f8301169050602081019050919050565b60005b83811015620002c3578082015181840152602081019050620002a6565b83811115620002d3576000848401525b50505050565b60006002820490506001821680620002f257607f821691505b602082108114156200030957620003086200030f565b5b50919050565b7f4e487b7100000000000000000000000000000000000000000000000000000000600052602260045260246000fd5b7f4e487b7100000000000000000000000000000000000000000000000000000000600052604160045260246000fd5b6129da806200037d6000396000f3fe608060405234801561001057600080fd5b506004361061010b5760003560e01c80636352211e116100a2578063a22cb46511610071578063a22cb465146102ca578063b88d4fde146102e6578063c87b56dd14610302578063e5326ab114610332578063e985e9c5146103505761010b565b80636352211e1461021c57806370a082311461024c5780638baafe131461027c57806395d89b41146102ac5761010b565b806323b872dd116100de57806323b872dd146101aa5780632f39352a146101c657806342842e0e146101e45780634b6d69d3146102005761010b565b806301ffc9a71461011057806306fdde0314610140578063081812fc1461015e578063095ea7b31461018e575b600080fd5b61012a60048036038101906101259190611bca565b610380565b6040516101379190612369565b60405180910390f35b610148610462565b6040516101559190612384565b60405180910390f35b61017860048036038101906101739190611c1c565b6104f4565b60405161018591906122e0565b60405180910390f35b6101a860048036038101906101a39190611b8e565b610579565b005b6101c460048036038101906101bf9190611a88565b610691565b005b6101ce6106f1565b6040516101db9190612384565b60405180910390f35b6101fe60048036038101906101f99190611a88565b610783565b005b61021a60048036038101906102159190611c1c565b6107a3565b005b61023660048036038101906102319190611c1c565b610816565b60405161024391906122e0565b60405180910390f35b61026660048036038101906102619190611a23565b610828565b6040516102739190612566565b60405180910390f35b61029660048036038101906102919190611a23565b6108e0565b6040516102a39190612347565b60405180910390f35b6102b4610977565b6040516102c19190612384565b60405180910390f35b6102e460048036038101906102df9190611b52565b610a09565b005b61030060048036038101906102fb9190611ad7565b610b8a565b005b61031c60048036038101906103179190611c1c565b610bec565b6040516103299190612384565b60405180910390f35b61033a610c93565b6040516103479190612384565b60405180910390f35b61036a60048036038101906103659190611a4c565b610d25565b6040516103779190612369565b60405180910390f35b60007f80ac58cd000000000000000000000000000000000000000000000000000000007bffffffffffffffffffffffffffffffffffffffffffffffffffffffff1916827bffffffffffffffffffffffffffffffffffffffffffffffffffffffff1916148061044b57507f5b5e139f000000000000000000000000000000000000000000000000000000007bffffffffffffffffffffffffffffffffffffffffffffffffffffffff1916827bffffffffffffffffffffffffffffffffffffffffffffffffffffffff1916145b8061045b575061045a82610db9565b5b9050919050565b606060008054610471906127cf565b80601f016020809104026020016040519081016040528092919081815260200182805461049d906127cf565b80156104ea5780601f106104bf576101008083540402835291602001916104ea565b820191906000526020600020905b8154815290600101906020018083116104cd57829003601f168201915b5050505050905090565b60006104ff82610e23565b61053e576040517f08c379a0000000000000000000000000000000000000000000000000000000008152600401610535906124c6565b60405180910390fd5b6004600083815260200190815260200160002060009054906101000a900473ffffffffffffffffffffffffffffffffffffffff169050919050565b600061058482610e8f565b90508073ffffffffffffffffffffffffffffffffffffffff168373ffffffffffffffffffffffffffffffffffffffff1614156105f5576040517f08c379a00000000000000000000000000000000000000000000000000000000081526004016105ec90612526565b60405180910390fd5b8073ffffffffffffffffffffffffffffffffffffffff16610614610f41565b73ffffffffffffffffffffffffffffffffffffffff16148061064357506106428161063d610f41565b610d25565b5b610682576040517f08c379a000000000000000000000000000000000000000000000000000000000815260040161067990612446565b60405180910390fd5b61068c8383610f49565b505050565b6106a261069c610f41565b82611002565b6106e1576040517f08c379a00000000000000000000000000000000000000000000000000000000081526004016106d890612546565b60405180910390fd5b6106ec8383836110e0565b505050565b606060078054610700906127cf565b80601f016020809104026020016040519081016040528092919081815260200182805461072c906127cf565b80156107795780601f1061074e57610100808354040283529160200191610779565b820191906000526020600020905b81548152906001019060200180831161075c57829003601f168201915b5050505050905090565b61079e83838360405180602001604052806000815250610b8a565b505050565b6107ad338261133c565b600860003373ffffffffffffffffffffffffffffffffffffffff1673ffffffffffffffffffffffffffffffffffffffff16815260200190815260200160002081908060018154018082558091505060019003906000526020600020016000909190919091505550565b600061082182610e8f565b9050919050565b60008073ffffffffffffffffffffffffffffffffffffffff168273ffffffffffffffffffffffffffffffffffffffff161415610899576040517f08c379a000000000000000000000000000000000000000000000000000000000815260040161089090612466565b60405180910390fd5b600360008373ffffffffffffffffffffffffffffffffffffffff1673ffffffffffffffffffffffffffffffffffffffff168152602001908152602001600020549050919050565b6060600860008373ffffffffffffffffffffffffffffffffffffffff1673ffffffffffffffffffffffffffffffffffffffff16815260200190815260200160002080548060200260200160405190810160405280929190818152602001828054801561096b57602002820191906000526020600020905b815481526020019060010190808311610957575b50505050509050919050565b606060018054610986906127cf565b80601f01602080910402602001604051908101604052809291908181526020018280546109b2906127cf565b80156109ff5780601f106109d4576101008083540402835291602001916109ff565b820191906000526020600020905b8154815290600101906020018083116109e257829003601f168201915b5050505050905090565b610a11610f41565b73ffffffffffffffffffffffffffffffffffffffff168273ffffffffffffffffffffffffffffffffffffffff161415610a7f576040517f08c379a0000000000000000000000000000000000000000000000000000000008152600401610a7690612406565b60405180910390fd5b8060056000610a8c610f41565b73ffffffffffffffffffffffffffffffffffffffff1673ffffffffffffffffffffffffffffffffffffffff16815260200190815260200160002060008473ffffffffffffffffffffffffffffffffffffffff1673ffffffffffffffffffffffffffffffffffffffff16815260200190815260200160002060006101000a81548160ff0219169083151502179055508173ffffffffffffffffffffffffffffffffffffffff16610b39610f41565b73ffffffffffffffffffffffffffffffffffffffff167f17307eab39ab6107e8899845ad3d59bd9653f200f220920489ca2b5937696c3183604051610b7e9190612369565b60405180910390a35050565b610b9b610b95610f41565b83611002565b610bda576040517f08c379a0000000000000000000000000000000000000000000000000000000008152600401610bd190612546565b60405180910390fd5b610be68484848461135a565b50505050565b6060610bf782610e23565b610c36576040517f08c379a0000000000000000000000000000000000000000000000000000000008152600401610c2d90612506565b60405180910390fd5b6000610c406113b6565b90506000815111610c605760405180602001604052806000815250610c8b565b80610c6a846113cd565b604051602001610c7b9291906122bc565b6040516020818303038152906040525b915050919050565b606060068054610ca2906127cf565b80601f0160208091040260200160405190810160405280929190818152602001828054610cce906127cf565b8015610d1b5780601f10610cf057610100808354040283529160200191610d1b565b820191906000526020600020905b815481529060010190602001808311610cfe57829003601f168201915b5050505050905090565b6000600560008473ffffffffffffffffffffffffffffffffffffffff1673ffffffffffffffffffffffffffffffffffffffff16815260200190815260200160002060008373ffffffffffffffffffffffffffffffffffffffff1673ffffffffffffffffffffffffffffffffffffffff16815260200190815260200160002060009054906101000a900460ff16905092915050565b60007f01ffc9a7000000000000000000000000000000000000000000000000000000007bffffffffffffffffffffffffffffffffffffffffffffffffffffffff1916827bffffffffffffffffffffffffffffffffffffffffffffffffffffffff1916149050919050565b60008073ffffffffffffffffffffffffffffffffffffffff166002600084815260200190815260200160002060009054906101000a900473ffffffffffffffffffffffffffffffffffffffff1673ffffffffffffffffffffffffffffffffffffffff1614159050919050565b6000806002600084815260200190815260200160002060009054906101000a900473ffffffffffffffffffffffffffffffffffffffff169050600073ffffffffffffffffffffffffffffffffffffffff168173ffffffffffffffffffffffffffffffffffffffff161415610f38576040517f08c379a0000000000000000000000000000000000000000000000000000000008152600401610f2f90612486565b60405180910390fd5b80915050919050565b600033905090565b816004600083815260200190815260200160002060006101000a81548173ffffffffffffffffffffffffffffffffffffffff021916908373ffffffffffffffffffffffffffffffffffffffff160217905550808273ffffffffffffffffffffffffffffffffffffffff16610fbc83610e8f565b73ffffffffffffffffffffffffffffffffffffffff167f8c5be1e5ebec7d5bd14f71427d1e84f3dd0314c0f7b2291e5b200ac8c7c3b92560405160405180910390a45050565b600061100d82610e23565b61104c576040517f08c379a000000000000000000000000000000000000000000000000000000000815260040161104390612426565b60405180910390fd5b600061105783610e8f565b90508073ffffffffffffffffffffffffffffffffffffffff168473ffffffffffffffffffffffffffffffffffffffff1614806110c657508373ffffffffffffffffffffffffffffffffffffffff166110ae846104f4565b73ffffffffffffffffffffffffffffffffffffffff16145b806110d757506110d68185610d25565b5b91505092915050565b8273ffffffffffffffffffffffffffffffffffffffff1661110082610e8f565b73ffffffffffffffffffffffffffffffffffffffff1614611156576040517f08c379a000000000000000000000000000000000000000000000000000000000815260040161114d906124e6565b60405180910390fd5b600073ffffffffffffffffffffffffffffffffffffffff168273ffffffffffffffffffffffffffffffffffffffff1614156111c6576040517f08c379a00000000000000000000000000000000000000000000000000000000081526004016111bd906123e6565b60405180910390fd5b6111d183838361157a565b6111dc600082610f49565b6001600360008573ffffffffffffffffffffffffffffffffffffffff1673ffffffffffffffffffffffffffffffffffffffff168152602001908152602001600020600082825461122c91906126e5565b925050819055506001600360008473ffffffffffffffffffffffffffffffffffffffff1673ffffffffffffffffffffffffffffffffffffffff1681526020019081526020016000206000828254611283919061265e565b92505081905550816002600083815260200190815260200160002060006101000a81548173ffffffffffffffffffffffffffffffffffffffff021916908373ffffffffffffffffffffffffffffffffffffffff160217905550808273ffffffffffffffffffffffffffffffffffffffff168473ffffffffffffffffffffffffffffffffffffffff167fddf252ad1be2c89b69c2b068fc378daa952ba7f163c4a11628f55a4df523b3ef60405160405180910390a4505050565b61135682826040518060200160405280600081525061157f565b5050565b6113658484846110e0565b611371848484846115da565b6113b0576040517f08c379a00000000000000000000000000000000000000000000000000000000081526004016113a7906123a6565b60405180910390fd5b50505050565b606060405180602001604052806000815250905090565b60606000821415611415576040518060400160405280600181526020017f30000000000000000000000000000000000000000000000000000000000000008152509050611575565b600082905060005b6000821461144757808061143090612801565b915050600a8261144091906126b4565b915061141d565b60008167ffffffffffffffff811115611489577f4e487b7100000000000000000000000000000000000000000000000000000000600052604160045260246000fd5b6040519080825280601f01601f1916602001820160405280156114bb5781602001600182028036833780820191505090505b5090505b6000851461156e576001826114d491906126e5565b9150600a856114e3919061284a565b60306114ef919061265e565b60f81b81838151811061152b577f4e487b7100000000000000000000000000000000000000000000000000000000600052603260045260246000fd5b60200101907effffffffffffffffffffffffffffffffffffffffffffffffffffffffffffff1916908160001a905350600a8561156791906126b4565b94506114bf565b8093505050505b919050565b505050565b6115898383611771565b61159660008484846115da565b6115d5576040517f08c379a00000000000000000000000000000000000000000000000000000000081526004016115cc906123a6565b60405180910390fd5b505050565b60006115fb8473ffffffffffffffffffffffffffffffffffffffff1661193f565b15611764578373ffffffffffffffffffffffffffffffffffffffff1663150b7a02611624610f41565b8786866040518563ffffffff1660e01b815260040161164694939291906122fb565b602060405180830381600087803b15801561166057600080fd5b505af192505050801561169157506040513d601f19601f8201168201806040525081019061168e9190611bf3565b60015b611714573d80600081146116c1576040519150601f19603f3d011682016040523d82523d6000602084013e6116c6565b606091505b5060008151141561170c576040517f08c379a0000000000000000000000000000000000000000000000000000000008152600401611703906123a6565b60405180910390fd5b805181602001fd5b63150b7a0260e01b7bffffffffffffffffffffffffffffffffffffffffffffffffffffffff1916817bffffffffffffffffffffffffffffffffffffffffffffffffffffffff191614915050611769565b600190505b949350505050565b600073ffffffffffffffffffffffffffffffffffffffff168273ffffffffffffffffffffffffffffffffffffffff1614156117e1576040517f08c379a00000000000000000000000000000000000000000000000000000000081526004016117d8906124a6565b60405180910390fd5b6117ea81610e23565b1561182a576040517f08c379a0000000000000000000000000000000000000000000000000000000008152600401611821906123c6565b60405180910390fd5b6118366000838361157a565b6001600360008473ffffffffffffffffffffffffffffffffffffffff1673ffffffffffffffffffffffffffffffffffffffff1681526020019081526020016000206000828254611886919061265e565b92505081905550816002600083815260200190815260200160002060006101000a81548173ffffffffffffffffffffffffffffffffffffffff021916908373ffffffffffffffffffffffffffffffffffffffff160217905550808273ffffffffffffffffffffffffffffffffffffffff16600073ffffffffffffffffffffffffffffffffffffffff167fddf252ad1be2c89b69c2b068fc378daa952ba7f163c4a11628f55a4df523b3ef60405160405180910390a45050565b600080823b905060008111915050919050565b6000611965611960846125b2565b612581565b90508281526020810184848401111561197d57600080fd5b61198884828561278d565b509392505050565b60008135905061199f81612948565b92915050565b6000813590506119b48161295f565b92915050565b6000813590506119c981612976565b92915050565b6000815190506119de81612976565b92915050565b600082601f8301126119f557600080fd5b8135611a05848260208601611952565b91505092915050565b600081359050611a1d8161298d565b92915050565b600060208284031215611a3557600080fd5b6000611a4384828501611990565b91505092915050565b60008060408385031215611a5f57600080fd5b6000611a6d85828601611990565b9250506020611a7e85828601611990565b9150509250929050565b600080600060608486031215611a9d57600080fd5b6000611aab86828701611990565b9350506020611abc86828701611990565b9250506040611acd86828701611a0e565b9150509250925092565b60008060008060808587031215611aed57600080fd5b6000611afb87828801611990565b9450506020611b0c87828801611990565b9350506040611b1d87828801611a0e565b925050606085013567ffffffffffffffff811115611b3a57600080fd5b611b46878288016119e4565b91505092959194509250565b60008060408385031215611b6557600080fd5b6000611b7385828601611990565b9250506020611b84858286016119a5565b9150509250929050565b60008060408385031215611ba157600080fd5b6000611baf85828601611990565b9250506020611bc085828601611a0e565b9150509250929050565b600060208284031215611bdc57600080fd5b6000611bea848285016119ba565b91505092915050565b600060208284031215611c0557600080fd5b6000611c13848285016119cf565b91505092915050565b600060208284031215611c2e57600080fd5b6000611c3c84828501611a0e565b91505092915050565b6000611c51838361229e565b60208301905092915050565b611c6681612719565b82525050565b6000611c77826125f2565b611c818185612620565b9350611c8c836125e2565b8060005b83811015611cbd578151611ca48882611c45565b9750611caf83612613565b925050600181019050611c90565b5085935050505092915050565b611cd38161272b565b82525050565b6000611ce4826125fd565b611cee8185612631565b9350611cfe81856020860161279c565b611d0781612937565b840191505092915050565b6000611d1d82612608565b611d278185612642565b9350611d3781856020860161279c565b611d4081612937565b840191505092915050565b6000611d5682612608565b611d608185612653565b9350611d7081856020860161279c565b80840191505092915050565b6000611d89603283612642565b91507f4552433732313a207472616e7366657220746f206e6f6e20455243373231526560008301527f63656976657220696d706c656d656e74657200000000000000000000000000006020830152604082019050919050565b6000611def601c83612642565b91507f4552433732313a20746f6b656e20616c7265616479206d696e746564000000006000830152602082019050919050565b6000611e2f602483612642565b91507f4552433732313a207472616e7366657220746f20746865207a65726f2061646460008301527f72657373000000000000000000000000000000000000000000000000000000006020830152604082019050919050565b6000611e95601983612642565b91507f4552433732313a20617070726f766520746f2063616c6c6572000000000000006000830152602082019050919050565b6000611ed5602c83612642565b91507f4552433732313a206f70657261746f7220717565727920666f72206e6f6e657860008301527f697374656e7420746f6b656e00000000000000000000000000000000000000006020830152604082019050919050565b6000611f3b603883612642565b91507f4552433732313a20617070726f76652063616c6c6572206973206e6f74206f7760008301527f6e6572206e6f7220617070726f76656420666f7220616c6c00000000000000006020830152604082019050919050565b6000611fa1602a83612642565b91507f4552433732313a2062616c616e636520717565727920666f7220746865207a6560008301527f726f2061646472657373000000000000000000000000000000000000000000006020830152604082019050919050565b6000612007602983612642565b91507f4552433732313a206f776e657220717565727920666f72206e6f6e657869737460008301527f656e7420746f6b656e00000000000000000000000000000000000000000000006020830152604082019050919050565b600061206d602083612642565b91507f4552433732313a206d696e7420746f20746865207a65726f20616464726573736000830152602082019050919050565b60006120ad602c83612642565b91507f4552433732313a20617070726f76656420717565727920666f72206e6f6e657860008301527f697374656e7420746f6b656e00000000000000000000000000000000000000006020830152604082019050919050565b6000612113602983612642565b91507f4552433732313a207472616e73666572206f6620746f6b656e2074686174206960008301527f73206e6f74206f776e00000000000000000000000000000000000000000000006020830152604082019050919050565b6000612179602f83612642565b91507f4552433732314d657461646174613a2055524920717565727920666f72206e6f60008301527f6e6578697374656e7420746f6b656e00000000000000000000000000000000006020830152604082019050919050565b60006121df602183612642565b91507f4552433732313a20617070726f76616c20746f2063757272656e74206f776e6560008301527f72000000000000000000000000000000000000000000000000000000000000006020830152604082019050919050565b6000612245603183612642565b91507f4552433732313a207472616e736665722063616c6c6572206973206e6f74206f60008301527f776e6572206e6f7220617070726f7665640000000000000000000000000000006020830152604082019050919050565b6122a781612783565b82525050565b6122b681612783565b82525050565b60006122c88285611d4b565b91506122d48284611d4b565b91508190509392505050565b60006020820190506122f56000830184611c5d565b92915050565b60006080820190506123106000830187611c5d565b61231d6020830186611c5d565b61232a60408301856122ad565b818103606083015261233c8184611cd9565b905095945050505050565b600060208201905081810360008301526123618184611c6c565b905092915050565b600060208201905061237e6000830184611cca565b92915050565b6000602082019050818103600083015261239e8184611d12565b905092915050565b600060208201905081810360008301526123bf81611d7c565b9050919050565b600060208201905081810360008301526123df81611de2565b9050919050565b600060208201905081810360008301526123ff81611e22565b9050919050565b6000602082019050818103600083015261241f81611e88565b9050919050565b6000602082019050818103600083015261243f81611ec8565b9050919050565b6000602082019050818103600083015261245f81611f2e565b9050919050565b6000602082019050818103600083015261247f81611f94565b9050919050565b6000602082019050818103600083015261249f81611ffa565b9050919050565b600060208201905081810360008301526124bf81612060565b9050919050565b600060208201905081810360008301526124df816120a0565b9050919050565b600060208201905081810360008301526124ff81612106565b9050919050565b6000602082019050818103600083015261251f8161216c565b9050919050565b6000602082019050818103600083015261253f816121d2565b9050919050565b6000602082019050818103600083015261255f81612238565b9050919050565b600060208201905061257b60008301846122ad565b92915050565b6000604051905081810181811067ffffffffffffffff821117156125a8576125a7612908565b5b8060405250919050565b600067ffffffffffffffff8211156125cd576125cc612908565b5b601f19601f8301169050602081019050919050565b6000819050602082019050919050565b600081519050919050565b600081519050919050565b600081519050919050565b6000602082019050919050565b600082825260208201905092915050565b600082825260208201905092915050565b600082825260208201905092915050565b600081905092915050565b600061266982612783565b915061267483612783565b9250827fffffffffffffffffffffffffffffffffffffffffffffffffffffffffffffffff038211156126a9576126a861287b565b5b828201905092915050565b60006126bf82612783565b91506126ca83612783565b9250826126da576126d96128aa565b5b828204905092915050565b60006126f082612783565b91506126fb83612783565b92508282101561270e5761270d61287b565b5b828203905092915050565b600061272482612763565b9050919050565b60008115159050919050565b60007fffffffff0000000000000000000000000000000000000000000000000000000082169050919050565b600073ffffffffffffffffffffffffffffffffffffffff82169050919050565b6000819050919050565b82818337600083830152505050565b60005b838110156127ba57808201518184015260208101905061279f565b838111156127c9576000848401525b50505050565b600060028204905060018216806127e757607f821691505b602082108114156127fb576127fa6128d9565b5b50919050565b600061280c82612783565b91507fffffffffffffffffffffffffffffffffffffffffffffffffffffffffffffffff82141561283f5761283e61287b565b5b600182019050919050565b600061285582612783565b915061286083612783565b9250826128705761286f6128aa565b5b828206905092915050565b7f4e487b7100000000000000000000000000000000000000000000000000000000600052601160045260246000fd5b7f4e487b7100000000000000000000000000000000000000000000000000000000600052601260045260246000fd5b7f4e487b7100000000000000000000000000000000000000000000000000000000600052602260045260246000fd5b7f4e487b7100000000000000000000000000000000000000000000000000000000600052604160045260246000fd5b6000601f19601f8301169050919050565b61295181612719565b811461295c57600080fd5b50565b6129688161272b565b811461297357600080fd5b50565b61297f81612737565b811461298a57600080fd5b50565b61299681612783565b81146129a157600080fd5b5056fea264697066735822122007aa4d36a871a5487f8bdd25c913e8f7f3583010e76ef05a3eed53b55249f36764736f6c63430008000033",
  "linkReferences": {},
  "deployedLinkReferences": {}
}