{
  "_format": "hh-sol-artifact-1",
  "contractName": "TestNft",
  "sourceName": "contracts/TestNft.sol",
  "abi": [
    {
      "inputs": [
        {
          "internalType": "string",
          "name": "_name",
          "type": "string"
        },
        {
          "internalType": "string",
          "name": "_symbol",
          "type": "string"
        }
      ],
      "stateMutability": "nonpayable",
      "type": "constructor"
    },
    {
      "anonymous": false,
      "inputs": [
        {
          "indexed": true,
          "internalType": "address",
          "name": "owner",
          "type": "address"
        },
        {
          "indexed": true,
          "internalType": "address",
          "name": "approved",
          "type": "address"
        },
        {
          "indexed": true,
          "internalType": "uint256",
          "name": "tokenId",
          "type": "uint256"
        }
      ],
      "name": "Approval",
      "type": "event"
    },
    {
      "anonymous": false,
      "inputs": [
        {
          "indexed": true,
          "internalType": "address",
          "name": "owner",
          "type": "address"
        },
        {
          "indexed": true,
          "internalType": "address",
          "name": "operator",
          "type": "address"
        },
        {
          "indexed": false,
          "internalType": "bool",
          "name": "approved",
          "type": "bool"
        }
      ],
      "name": "ApprovalForAll",
      "type": "event"
    },
    {
      "anonymous": false,
      "inputs": [
        {
          "indexed": true,
          "internalType": "address",
          "name": "from",
          "type": "address"
        },
        {
          "indexed": true,
          "internalType": "address",
          "name": "to",
          "type": "address"
        },
        {
          "indexed": true,
          "internalType": "uint256",
          "name": "tokenId",
          "type": "uint256"
        }
      ],
      "name": "Transfer",
      "type": "event"
    },
    {
      "inputs": [
        {
          "internalType": "address",
          "name": "to",
          "type": "address"
        },
        {
          "internalType": "uint256",
          "name": "tokenId",
          "type": "uint256"
        }
      ],
      "name": "approve",
      "outputs": [],
      "stateMutability": "nonpayable",
      "type": "function"
    },
    {
      "inputs": [
        {
          "internalType": "bool",
          "name": "_approved",
          "type": "bool"
        }
      ],
      "name": "approveProtocolAddress",
      "outputs": [],
      "stateMutability": "nonpayable",
      "type": "function"
    },
    {
      "inputs": [
        {
          "internalType": "address",
          "name": "owner",
          "type": "address"
        }
      ],
      "name": "balanceOf",
      "outputs": [
        {
          "internalType": "uint256",
          "name": "",
          "type": "uint256"
        }
      ],
      "stateMutability": "view",
      "type": "function"
    },
    {
      "inputs": [],
      "name": "collectionName",
      "outputs": [
        {
          "internalType": "string",
          "name": "",
          "type": "string"
        }
      ],
      "stateMutability": "view",
      "type": "function"
    },
    {
      "inputs": [],
      "name": "collectionSymbol",
      "outputs": [
        {
          "internalType": "string",
          "name": "",
          "type": "string"
        }
      ],
      "stateMutability": "view",
      "type": "function"
    },
    {
      "inputs": [
        {
          "internalType": "uint256",
          "name": "tokenId",
          "type": "uint256"
        }
      ],
      "name": "getApproved",
      "outputs": [
        {
          "internalType": "address",
          "name": "",
          "type": "address"
        }
      ],
      "stateMutability": "view",
      "type": "function"
    },
    {
      "inputs": [
        {
          "internalType": "address",
          "name": "owner",
          "type": "address"
        },
        {
          "internalType": "address",
          "name": "operator",
          "type": "address"
        }
      ],
      "name": "isApprovedForAll",
      "outputs": [
        {
          "internalType": "bool",
          "name": "",
          "type": "bool"
        }
      ],
      "stateMutability": "view",
      "type": "function"
    },
    {
      "inputs": [
        {
          "internalType": "uint256",
          "name": "_tokenId",
          "type": "uint256"
        }
      ],
      "name": "mintNewNft",
      "outputs": [],
      "stateMutability": "nonpayable",
      "type": "function"
    },
    {
      "inputs": [],
      "name": "name",
      "outputs": [
        {
          "internalType": "string",
          "name": "",
          "type": "string"
        }
      ],
      "stateMutability": "view",
      "type": "function"
    },
    {
      "inputs": [
        {
          "internalType": "address",
          "name": "_owner",
          "type": "address"
        }
      ],
      "name": "nftsOwned",
      "outputs": [
        {
          "internalType": "uint256[]",
          "name": "",
          "type": "uint256[]"
        }
      ],
      "stateMutability": "view",
      "type": "function"
    },
    {
      "inputs": [
        {
          "internalType": "address",
          "name": "",
          "type": "address"
        },
        {
          "internalType": "address",
          "name": "",
          "type": "address"
        },
        {
          "internalType": "uint256",
          "name": "",
          "type": "uint256"
        },
        {
          "internalType": "bytes",
          "name": "",
          "type": "bytes"
        }
      ],
      "name": "onERC721Received",
      "outputs": [
        {
          "internalType": "bytes4",
          "name": "",
          "type": "bytes4"
        }
      ],
      "stateMutability": "nonpayable",
      "type": "function"
    },
    {
      "inputs": [
        {
          "internalType": "uint256",
          "name": "_tokenId",
          "type": "uint256"
        }
      ],
      "name": "ownerOf",
      "outputs": [
        {
          "internalType": "address",
          "name": "",
          "type": "address"
        }
      ],
      "stateMutability": "view",
      "type": "function"
    },
    {
      "inputs": [
        {
          "internalType": "address",
          "name": "from",
          "type": "address"
        },
        {
          "internalType": "address",
          "name": "to",
          "type": "address"
        },
        {
          "internalType": "uint256",
          "name": "tokenId",
          "type": "uint256"
        }
      ],
      "name": "safeTransferFrom",
      "outputs": [],
      "stateMutability": "nonpayable",
      "type": "function"
    },
    {
      "inputs": [
        {
          "internalType": "address",
          "name": "from",
          "type": "address"
        },
        {
          "internalType": "address",
          "name": "to",
          "type": "address"
        },
        {
          "internalType": "uint256",
          "name": "tokenId",
          "type": "uint256"
        },
        {
          "internalType": "bytes",
          "name": "_data",
          "type": "bytes"
        }
      ],
      "name": "safeTransferFrom",
      "outputs": [],
      "stateMutability": "nonpayable",
      "type": "function"
    },
    {
      "inputs": [
        {
          "internalType": "address",
          "name": "operator",
          "type": "address"
        },
        {
          "internalType": "bool",
          "name": "approved",
          "type": "bool"
        }
      ],
      "name": "setApprovalForAll",
      "outputs": [],
      "stateMutability": "nonpayable",
      "type": "function"
    },
    {
      "inputs": [
        {
          "internalType": "bytes4",
          "name": "interfaceId",
          "type": "bytes4"
        }
      ],
      "name": "supportsInterface",
      "outputs": [
        {
          "internalType": "bool",
          "name": "",
          "type": "bool"
        }
      ],
      "stateMutability": "view",
      "type": "function"
    },
    {
      "inputs": [],
      "name": "symbol",
      "outputs": [
        {
          "internalType": "string",
          "name": "",
          "type": "string"
        }
      ],
      "stateMutability": "view",
      "type": "function"
    },
    {
      "inputs": [
        {
          "internalType": "uint256",
          "name": "tokenId",
          "type": "uint256"
        }
      ],
      "name": "tokenURI",
      "outputs": [
        {
          "internalType": "string",
          "name": "",
          "type": "string"
        }
      ],
      "stateMutability": "view",
      "type": "function"
    },
    {
      "inputs": [
        {
          "internalType": "address",
          "name": "_from",
          "type": "address"
        },
        {
          "internalType": "address",
          "name": "_to",
          "type": "address"
        },
        {
          "internalType": "uint256",
          "name": "_tokenId",
          "type": "uint256"
        }
      ],
      "name": "transferFrom",
      "outputs": [],
      "stateMutability": "nonpayable",
      "type": "function"
    }
  ],
  "bytecode": "0x60806040523480156200001157600080fd5b50604051620032013803806200320183398181016040528101906200003791906200033d565b81818160009080519060200190620000519291906200021b565b5080600190805190602001906200006a9291906200021b565b5050508160069080519060200190620000859291906200021b565b5080600790805190602001906200009e9291906200021b565b50620000b763150b7a0260e01b620000c060201b60201c565b505050620004e1565b60007f80ac58cd000000000000000000000000000000000000000000000000000000007bffffffffffffffffffffffffffffffffffffffffffffffffffffffff1916827bffffffffffffffffffffffffffffffffffffffffffffffffffffffff191614806200018c57507f5b5e139f000000000000000000000000000000000000000000000000000000007bffffffffffffffffffffffffffffffffffffffffffffffffffffffff1916827bffffffffffffffffffffffffffffffffffffffffffffffffffffffff1916145b80620001aa5750620001a982620001b160201b62000ebe1760201c565b5b9050919050565b60007f01ffc9a7000000000000000000000000000000000000000000000000000000007bffffffffffffffffffffffffffffffffffffffffffffffffffffffff1916827bffffffffffffffffffffffffffffffffffffffffffffffffffffffff1916149050919050565b82805462000229906200044d565b90600052602060002090601f0160209004810192826200024d576000855562000299565b82601f106200026857805160ff191683800117855562000299565b8280016001018555821562000299579182015b82811115620002985782518255916020019190600101906200027b565b5b509050620002a89190620002ac565b5090565b5b80821115620002c7576000816000905550600101620002ad565b5090565b6000620002e2620002dc84620003e4565b620003b0565b905082815260208101848484011115620002fb57600080fd5b6200030884828562000417565b509392505050565b600082601f8301126200032257600080fd5b815162000334848260208601620002cb565b91505092915050565b600080604083850312156200035157600080fd5b600083015167ffffffffffffffff8111156200036c57600080fd5b6200037a8582860162000310565b925050602083015167ffffffffffffffff8111156200039857600080fd5b620003a68582860162000310565b9150509250929050565b6000604051905081810181811067ffffffffffffffff82111715620003da57620003d9620004b2565b5b8060405250919050565b600067ffffffffffffffff821115620004025762000401620004b2565b5b601f19601f8301169050602081019050919050565b60005b83811015620004375780820151818401526020810190506200041a565b8381111562000447576000848401525b50505050565b600060028204905060018216806200046657607f821691505b602082108114156200047d576200047c62000483565b5b50919050565b7f4e487b7100000000000000000000000000000000000000000000000000000000600052602260045260246000fd5b7f4e487b7100000000000000000000000000000000000000000000000000000000600052604160045260246000fd5b612d1080620004f16000396000f3fe608060405234801561001057600080fd5b50600436106101215760003560e01c80636352211e116100ad578063a22cb46511610071578063a22cb4651461032c578063b88d4fde14610348578063c87b56dd14610364578063e5326ab114610394578063e985e9c5146103b257610121565b80636352211e1461026257806366e15b551461029257806370a08231146102ae5780638baafe13146102de57806395d89b411461030e57610121565b8063150b7a02116100f4578063150b7a02146101c057806323b872dd146101f05780632f39352a1461020c57806342842e0e1461022a5780634b6d69d31461024657610121565b806301ffc9a71461012657806306fdde0314610156578063081812fc14610174578063095ea7b3146101a4575b600080fd5b610140600480360381019061013b9190611dbd565b6103e2565b60405161014d919061256b565b60405180910390f35b61015e6104c4565b60405161016b91906125a1565b60405180910390f35b61018e60048036038101906101899190611e0f565b610556565b60405161019b91906124e2565b60405180910390f35b6101be60048036038101906101b99190611d58565b6105db565b005b6101da60048036038101906101d59190611ca1565b6106f3565b6040516101e79190612586565b60405180910390f35b61020a60048036038101906102059190611c52565b610707565b005b61021461075b565b60405161022191906125a1565b60405180910390f35b610244600480360381019061023f9190611c52565b6107ed565b005b610260600480360381019061025b9190611e0f565b61080d565b005b61027c60048036038101906102779190611e0f565b610880565b60405161028991906124e2565b60405180910390f35b6102ac60048036038101906102a79190611d94565b610892565b005b6102c860048036038101906102c39190611bed565b61090b565b6040516102d591906127b3565b60405180910390f35b6102f860048036038101906102f39190611bed565b6109c3565b6040516103059190612549565b60405180910390f35b610316610a5a565b60405161032391906125a1565b60405180910390f35b61034660048036038101906103419190611d1c565b610aec565b005b610362600480360381019061035d9190611ca1565b610c8f565b005b61037e60048036038101906103799190611e0f565b610cf1565b60405161038b91906125a1565b60405180910390f35b61039c610d98565b6040516103a991906125a1565b60405180910390f35b6103cc60048036038101906103c79190611c16565b610e2a565b6040516103d9919061256b565b60405180910390f35b60007f80ac58cd000000000000000000000000000000000000000000000000000000007bffffffffffffffffffffffffffffffffffffffffffffffffffffffff1916827bffffffffffffffffffffffffffffffffffffffffffffffffffffffff191614806104ad57507f5b5e139f000000000000000000000000000000000000000000000000000000007bffffffffffffffffffffffffffffffffffffffffffffffffffffffff1916827bffffffffffffffffffffffffffffffffffffffffffffffffffffffff1916145b806104bd57506104bc82610ebe565b5b9050919050565b6060600080546104d390612a1c565b80601f01602080910402602001604051908101604052809291908181526020018280546104ff90612a1c565b801561054c5780601f106105215761010080835404028352916020019161054c565b820191906000526020600020905b81548152906001019060200180831161052f57829003601f168201915b5050505050905090565b600061056182610f28565b6105a0576040517f08c379a000000000000000000000000000000000000000000000000000000000815260040161059790612713565b60405180910390fd5b6004600083815260200190815260200160002060009054906101000a900473ffffffffffffffffffffffffffffffffffffffff169050919050565b60006105e682610f94565b90508073ffffffffffffffffffffffffffffffffffffffff168373ffffffffffffffffffffffffffffffffffffffff161415610657576040517f08c379a000000000000000000000000000000000000000000000000000000000815260040161064e90612773565b60405180910390fd5b8073ffffffffffffffffffffffffffffffffffffffff16610676611046565b73ffffffffffffffffffffffffffffffffffffffff1614806106a557506106a48161069f611046565b610e2a565b5b6106e4576040517f08c379a00000000000000000000000000000000000000000000000000000000081526004016106db90612693565b60405180910390fd5b6106ee838361104e565b505050565b600063150b7a0260e01b9050949350505050565b610729604051806060016040528060358152602001612c526035913984611107565b61074b604051806060016040528060338152602001612c876033913983611107565b6107568383836107ed565b505050565b60606007805461076a90612a1c565b80601f016020809104026020016040519081016040528092919081815260200182805461079690612a1c565b80156107e35780601f106107b8576101008083540402835291602001916107e3565b820191906000526020600020905b8154815290600101906020018083116107c657829003601f168201915b5050505050905090565b61080883838360405180602001604052806000815250610c8f565b505050565b61081733826111a3565b600860003373ffffffffffffffffffffffffffffffffffffffff1673ffffffffffffffffffffffffffffffffffffffff16815260200190815260200160002081908060018154018082558091505060019003906000526020600020016000909190919091505550565b600061088b82610f94565b9050919050565b6108c8604051806060016040528060218152602001612cba6021913973e7f1725e7734ce288f8367e1bb143e90bb3f0512611107565b6108ea604051806060016040528060298152602001612c296029913933611107565b61090873e7f1725e7734ce288f8367e1bb143e90bb3f051282610aec565b50565b60008073ffffffffffffffffffffffffffffffffffffffff168273ffffffffffffffffffffffffffffffffffffffff16141561097c576040517f08c379a0000000000000000000000000000000000000000000000000000000008152600401610973906126b3565b60405180910390fd5b600360008373ffffffffffffffffffffffffffffffffffffffff1673ffffffffffffffffffffffffffffffffffffffff168152602001908152602001600020549050919050565b6060600860008373ffffffffffffffffffffffffffffffffffffffff1673ffffffffffffffffffffffffffffffffffffffff168152602001908152602001600020805480602002602001604051908101604052809291908181526020018280548015610a4e57602002820191906000526020600020905b815481526020019060010190808311610a3a575b50505050509050919050565b606060018054610a6990612a1c565b80601f0160208091040260200160405190810160405280929190818152602001828054610a9590612a1c565b8015610ae25780601f10610ab757610100808354040283529160200191610ae2565b820191906000526020600020905b815481529060010190602001808311610ac557829003601f168201915b5050505050905090565b610b0e604051806060016040528060378152602001612bf26037913933611107565b610b16611046565b73ffffffffffffffffffffffffffffffffffffffff168273ffffffffffffffffffffffffffffffffffffffff161415610b84576040517f08c379a0000000000000000000000000000000000000000000000000000000008152600401610b7b90612653565b60405180910390fd5b8060056000610b91611046565b73ffffffffffffffffffffffffffffffffffffffff1673ffffffffffffffffffffffffffffffffffffffff16815260200190815260200160002060008473ffffffffffffffffffffffffffffffffffffffff1673ffffffffffffffffffffffffffffffffffffffff16815260200190815260200160002060006101000a81548160ff0219169083151502179055508173ffffffffffffffffffffffffffffffffffffffff16610c3e611046565b73ffffffffffffffffffffffffffffffffffffffff167f17307eab39ab6107e8899845ad3d59bd9653f200f220920489ca2b5937696c3183604051610c83919061256b565b60405180910390a35050565b610ca0610c9a611046565b836111c1565b610cdf576040517f08c379a0000000000000000000000000000000000000000000000000000000008152600401610cd690612793565b60405180910390fd5b610ceb8484848461129f565b50505050565b6060610cfc82610f28565b610d3b576040517f08c379a0000000000000000000000000000000000000000000000000000000008152600401610d3290612753565b60405180910390fd5b6000610d456112fb565b90506000815111610d655760405180602001604052806000815250610d90565b80610d6f84611312565b604051602001610d809291906124be565b6040516020818303038152906040525b915050919050565b606060068054610da790612a1c565b80601f0160208091040260200160405190810160405280929190818152602001828054610dd390612a1c565b8015610e205780601f10610df557610100808354040283529160200191610e20565b820191906000526020600020905b815481529060010190602001808311610e0357829003601f168201915b5050505050905090565b6000600560008473ffffffffffffffffffffffffffffffffffffffff1673ffffffffffffffffffffffffffffffffffffffff16815260200190815260200160002060008373ffffffffffffffffffffffffffffffffffffffff1673ffffffffffffffffffffffffffffffffffffffff16815260200190815260200160002060009054906101000a900460ff16905092915050565b60007f01ffc9a7000000000000000000000000000000000000000000000000000000007bffffffffffffffffffffffffffffffffffffffffffffffffffffffff1916827bffffffffffffffffffffffffffffffffffffffffffffffffffffffff1916149050919050565b60008073ffffffffffffffffffffffffffffffffffffffff166002600084815260200190815260200160002060009054906101000a900473ffffffffffffffffffffffffffffffffffffffff1673ffffffffffffffffffffffffffffffffffffffff1614159050919050565b6000806002600084815260200190815260200160002060009054906101000a900473ffffffffffffffffffffffffffffffffffffffff169050600073ffffffffffffffffffffffffffffffffffffffff168173ffffffffffffffffffffffffffffffffffffffff16141561103d576040517f08c379a0000000000000000000000000000000000000000000000000000000008152600401611034906126d3565b60405180910390fd5b80915050919050565b600033905090565b816004600083815260200190815260200160002060006101000a81548173ffffffffffffffffffffffffffffffffffffffff021916908373ffffffffffffffffffffffffffffffffffffffff160217905550808273ffffffffffffffffffffffffffffffffffffffff166110c183610f94565b73ffffffffffffffffffffffffffffffffffffffff167f8c5be1e5ebec7d5bd14f71427d1e84f3dd0314c0f7b2291e5b200ac8c7c3b92560405160405180910390a45050565b61119f828260405160240161111d9291906125c3565b6040516020818303038152906040527f319af333000000000000000000000000000000000000000000000000000000007bffffffffffffffffffffffffffffffffffffffffffffffffffffffff19166020820180517bffffffffffffffffffffffffffffffffffffffffffffffffffffffff83818316178352505050506114bf565b5050565b6111bd8282604051806020016040528060008152506114e8565b5050565b60006111cc82610f28565b61120b576040517f08c379a000000000000000000000000000000000000000000000000000000000815260040161120290612673565b60405180910390fd5b600061121683610f94565b90508073ffffffffffffffffffffffffffffffffffffffff168473ffffffffffffffffffffffffffffffffffffffff16148061128557508373ffffffffffffffffffffffffffffffffffffffff1661126d84610556565b73ffffffffffffffffffffffffffffffffffffffff16145b8061129657506112958185610e2a565b5b91505092915050565b6112aa848484611543565b6112b68484848461179f565b6112f5576040517f08c379a00000000000000000000000000000000000000000000000000000000081526004016112ec906125f3565b60405180910390fd5b50505050565b606060405180602001604052806000815250905090565b6060600082141561135a576040518060400160405280600181526020017f300000000000000000000000000000000000000000000000000000000000000081525090506114ba565b600082905060005b6000821461138c57808061137590612a4e565b915050600a826113859190612901565b9150611362565b60008167ffffffffffffffff8111156113ce577f4e487b7100000000000000000000000000000000000000000000000000000000600052604160045260246000fd5b6040519080825280601f01601f1916602001820160405280156114005781602001600182028036833780820191505090505b5090505b600085146114b3576001826114199190612932565b9150600a856114289190612a97565b603061143491906128ab565b60f81b818381518110611470577f4e487b7100000000000000000000000000000000000000000000000000000000600052603260045260246000fd5b60200101907effffffffffffffffffffffffffffffffffffffffffffffffffffffffffffff1916908160001a905350600a856114ac9190612901565b9450611404565b8093505050505b919050565b60008151905060006a636f6e736f6c652e6c6f679050602083016000808483855afa5050505050565b6114f28383611936565b6114ff600084848461179f565b61153e576040517f08c379a0000000000000000000000000000000000000000000000000000000008152600401611535906125f3565b60405180910390fd5b505050565b8273ffffffffffffffffffffffffffffffffffffffff1661156382610f94565b73ffffffffffffffffffffffffffffffffffffffff16146115b9576040517f08c379a00000000000000000000000000000000000000000000000000000000081526004016115b090612733565b60405180910390fd5b600073ffffffffffffffffffffffffffffffffffffffff168273ffffffffffffffffffffffffffffffffffffffff161415611629576040517f08c379a000000000000000000000000000000000000000000000000000000000815260040161162090612633565b60405180910390fd5b611634838383611b04565b61163f60008261104e565b6001600360008573ffffffffffffffffffffffffffffffffffffffff1673ffffffffffffffffffffffffffffffffffffffff168152602001908152602001600020600082825461168f9190612932565b925050819055506001600360008473ffffffffffffffffffffffffffffffffffffffff1673ffffffffffffffffffffffffffffffffffffffff16815260200190815260200160002060008282546116e691906128ab565b92505081905550816002600083815260200190815260200160002060006101000a81548173ffffffffffffffffffffffffffffffffffffffff021916908373ffffffffffffffffffffffffffffffffffffffff160217905550808273ffffffffffffffffffffffffffffffffffffffff168473ffffffffffffffffffffffffffffffffffffffff167fddf252ad1be2c89b69c2b068fc378daa952ba7f163c4a11628f55a4df523b3ef60405160405180910390a4505050565b60006117c08473ffffffffffffffffffffffffffffffffffffffff16611b09565b15611929578373ffffffffffffffffffffffffffffffffffffffff1663150b7a026117e9611046565b8786866040518563ffffffff1660e01b815260040161180b94939291906124fd565b602060405180830381600087803b15801561182557600080fd5b505af192505050801561185657506040513d601f19601f820116820180604052508101906118539190611de6565b60015b6118d9573d8060008114611886576040519150601f19603f3d011682016040523d82523d6000602084013e61188b565b606091505b506000815114156118d1576040517f08c379a00000000000000000000000000000000000000000000000000000000081526004016118c8906125f3565b60405180910390fd5b805181602001fd5b63150b7a0260e01b7bffffffffffffffffffffffffffffffffffffffffffffffffffffffff1916817bffffffffffffffffffffffffffffffffffffffffffffffffffffffff19161491505061192e565b600190505b949350505050565b600073ffffffffffffffffffffffffffffffffffffffff168273ffffffffffffffffffffffffffffffffffffffff1614156119a6576040517f08c379a000000000000000000000000000000000000000000000000000000000815260040161199d906126f3565b60405180910390fd5b6119af81610f28565b156119ef576040517f08c379a00000000000000000000000000000000000000000000000000000000081526004016119e690612613565b60405180910390fd5b6119fb60008383611b04565b6001600360008473ffffffffffffffffffffffffffffffffffffffff1673ffffffffffffffffffffffffffffffffffffffff1681526020019081526020016000206000828254611a4b91906128ab565b92505081905550816002600083815260200190815260200160002060006101000a81548173ffffffffffffffffffffffffffffffffffffffff021916908373ffffffffffffffffffffffffffffffffffffffff160217905550808273ffffffffffffffffffffffffffffffffffffffff16600073ffffffffffffffffffffffffffffffffffffffff167fddf252ad1be2c89b69c2b068fc378daa952ba7f163c4a11628f55a4df523b3ef60405160405180910390a45050565b505050565b600080823b905060008111915050919050565b6000611b2f611b2a846127ff565b6127ce565b905082815260208101848484011115611b4757600080fd5b611b528482856129da565b509392505050565b600081359050611b6981612b95565b92915050565b600081359050611b7e81612bac565b92915050565b600081359050611b9381612bc3565b92915050565b600081519050611ba881612bc3565b92915050565b600082601f830112611bbf57600080fd5b8135611bcf848260208601611b1c565b91505092915050565b600081359050611be781612bda565b92915050565b600060208284031215611bff57600080fd5b6000611c0d84828501611b5a565b91505092915050565b60008060408385031215611c2957600080fd5b6000611c3785828601611b5a565b9250506020611c4885828601611b5a565b9150509250929050565b600080600060608486031215611c6757600080fd5b6000611c7586828701611b5a565b9350506020611c8686828701611b5a565b9250506040611c9786828701611bd8565b9150509250925092565b60008060008060808587031215611cb757600080fd5b6000611cc587828801611b5a565b9450506020611cd687828801611b5a565b9350506040611ce787828801611bd8565b925050606085013567ffffffffffffffff811115611d0457600080fd5b611d1087828801611bae565b91505092959194509250565b60008060408385031215611d2f57600080fd5b6000611d3d85828601611b5a565b9250506020611d4e85828601611b6f565b9150509250929050565b60008060408385031215611d6b57600080fd5b6000611d7985828601611b5a565b9250506020611d8a85828601611bd8565b9150509250929050565b600060208284031215611da657600080fd5b6000611db484828501611b6f565b91505092915050565b600060208284031215611dcf57600080fd5b6000611ddd84828501611b84565b91505092915050565b600060208284031215611df857600080fd5b6000611e0684828501611b99565b91505092915050565b600060208284031215611e2157600080fd5b6000611e2f84828501611bd8565b91505092915050565b6000611e4483836124a0565b60208301905092915050565b611e5981612966565b82525050565b6000611e6a8261283f565b611e74818561286d565b9350611e7f8361282f565b8060005b83811015611eb0578151611e978882611e38565b9750611ea283612860565b925050600181019050611e83565b5085935050505092915050565b611ec681612978565b82525050565b611ed581612984565b82525050565b6000611ee68261284a565b611ef0818561287e565b9350611f008185602086016129e9565b611f0981612b84565b840191505092915050565b6000611f1f82612855565b611f29818561288f565b9350611f398185602086016129e9565b611f4281612b84565b840191505092915050565b6000611f5882612855565b611f6281856128a0565b9350611f728185602086016129e9565b80840191505092915050565b6000611f8b60328361288f565b91507f4552433732313a207472616e7366657220746f206e6f6e20455243373231526560008301527f63656976657220696d706c656d656e74657200000000000000000000000000006020830152604082019050919050565b6000611ff1601c8361288f565b91507f4552433732313a20746f6b656e20616c7265616479206d696e746564000000006000830152602082019050919050565b600061203160248361288f565b91507f4552433732313a207472616e7366657220746f20746865207a65726f2061646460008301527f72657373000000000000000000000000000000000000000000000000000000006020830152604082019050919050565b600061209760198361288f565b91507f4552433732313a20617070726f766520746f2063616c6c6572000000000000006000830152602082019050919050565b60006120d7602c8361288f565b91507f4552433732313a206f70657261746f7220717565727920666f72206e6f6e657860008301527f697374656e7420746f6b656e00000000000000000000000000000000000000006020830152604082019050919050565b600061213d60388361288f565b91507f4552433732313a20617070726f76652063616c6c6572206973206e6f74206f7760008301527f6e6572206e6f7220617070726f76656420666f7220616c6c00000000000000006020830152604082019050919050565b60006121a3602a8361288f565b91507f4552433732313a2062616c616e636520717565727920666f7220746865207a6560008301527f726f2061646472657373000000000000000000000000000000000000000000006020830152604082019050919050565b600061220960298361288f565b91507f4552433732313a206f776e657220717565727920666f72206e6f6e657869737460008301527f656e7420746f6b656e00000000000000000000000000000000000000000000006020830152604082019050919050565b600061226f60208361288f565b91507f4552433732313a206d696e7420746f20746865207a65726f20616464726573736000830152602082019050919050565b60006122af602c8361288f565b91507f4552433732313a20617070726f76656420717565727920666f72206e6f6e657860008301527f697374656e7420746f6b656e00000000000000000000000000000000000000006020830152604082019050919050565b600061231560298361288f565b91507f4552433732313a207472616e73666572206f6620746f6b656e2074686174206960008301527f73206e6f74206f776e00000000000000000000000000000000000000000000006020830152604082019050919050565b600061237b602f8361288f565b91507f4552433732314d657461646174613a2055524920717565727920666f72206e6f60008301527f6e6578697374656e7420746f6b656e00000000000000000000000000000000006020830152604082019050919050565b60006123e160218361288f565b91507f4552433732313a20617070726f76616c20746f2063757272656e74206f776e6560008301527f72000000000000000000000000000000000000000000000000000000000000006020830152604082019050919050565b600061244760318361288f565b91507f4552433732313a207472616e736665722063616c6c6572206973206e6f74206f60008301527f776e6572206e6f7220617070726f7665640000000000000000000000000000006020830152604082019050919050565b6124a9816129d0565b82525050565b6124b8816129d0565b82525050565b60006124ca8285611f4d565b91506124d68284611f4d565b91508190509392505050565b60006020820190506124f76000830184611e50565b92915050565b60006080820190506125126000830187611e50565b61251f6020830186611e50565b61252c60408301856124af565b818103606083015261253e8184611edb565b905095945050505050565b600060208201905081810360008301526125638184611e5f565b905092915050565b60006020820190506125806000830184611ebd565b92915050565b600060208201905061259b6000830184611ecc565b92915050565b600060208201905081810360008301526125bb8184611f14565b905092915050565b600060408201905081810360008301526125dd8185611f14565b90506125ec6020830184611e50565b9392505050565b6000602082019050818103600083015261260c81611f7e565b9050919050565b6000602082019050818103600083015261262c81611fe4565b9050919050565b6000602082019050818103600083015261264c81612024565b9050919050565b6000602082019050818103600083015261266c8161208a565b9050919050565b6000602082019050818103600083015261268c816120ca565b9050919050565b600060208201905081810360008301526126ac81612130565b9050919050565b600060208201905081810360008301526126cc81612196565b9050919050565b600060208201905081810360008301526126ec816121fc565b9050919050565b6000602082019050818103600083015261270c81612262565b9050919050565b6000602082019050818103600083015261272c816122a2565b9050919050565b6000602082019050818103600083015261274c81612308565b9050919050565b6000602082019050818103600083015261276c8161236e565b9050919050565b6000602082019050818103600083015261278c816123d4565b9050919050565b600060208201905081810360008301526127ac8161243a565b9050919050565b60006020820190506127c860008301846124af565b92915050565b6000604051905081810181811067ffffffffffffffff821117156127f5576127f4612b55565b5b8060405250919050565b600067ffffffffffffffff82111561281a57612819612b55565b5b601f19601f8301169050602081019050919050565b6000819050602082019050919050565b600081519050919050565b600081519050919050565b600081519050919050565b6000602082019050919050565b600082825260208201905092915050565b600082825260208201905092915050565b600082825260208201905092915050565b600081905092915050565b60006128b6826129d0565b91506128c1836129d0565b9250827fffffffffffffffffffffffffffffffffffffffffffffffffffffffffffffffff038211156128f6576128f5612ac8565b5b828201905092915050565b600061290c826129d0565b9150612917836129d0565b92508261292757612926612af7565b5b828204905092915050565b600061293d826129d0565b9150612948836129d0565b92508282101561295b5761295a612ac8565b5b828203905092915050565b6000612971826129b0565b9050919050565b60008115159050919050565b60007fffffffff0000000000000000000000000000000000000000000000000000000082169050919050565b600073ffffffffffffffffffffffffffffffffffffffff82169050919050565b6000819050919050565b82818337600083830152505050565b60005b83811015612a075780820151818401526020810190506129ec565b83811115612a16576000848401525b50505050565b60006002820490506001821680612a3457607f821691505b60208210811415612a4857612a47612b26565b5b50919050565b6000612a59826129d0565b91507fffffffffffffffffffffffffffffffffffffffffffffffffffffffffffffffff821415612a8c57612a8b612ac8565b5b600182019050919050565b6000612aa2826129d0565b9150612aad836129d0565b925082612abd57612abc612af7565b5b828206905092915050565b7f4e487b7100000000000000000000000000000000000000000000000000000000600052601160045260246000fd5b7f4e487b7100000000000000000000000000000000000000000000000000000000600052601260045260246000fd5b7f4e487b7100000000000000000000000000000000000000000000000000000000600052602260045260246000fd5b7f4e487b7100000000000000000000000000000000000000000000000000000000600052604160045260246000fd5b6000601f19601f8301169050919050565b612b9e81612966565b8114612ba957600080fd5b50565b612bb581612978565b8114612bc057600080fd5b50565b612bcc81612984565b8114612bd757600080fd5b50565b612be3816129d0565b8114612bee57600080fd5b5056fe5468652061646472657373207468617420697320746865206d73672e73656e64657220696e204552433732312e736f6c2069733a2025735468652061646472657373207468617420697320746865206d73672e73656e6465722069733a202573546865205f66726f6d20706172616d6574657220696e207472616e7366657246726f6d20696e20546573744e66742069733a202573546865205f746f20706172616d6574657220696e207472616e7366657246726f6d20696e20546573744e66742069733a2025735468652061646472657373206265696e6720617070726f7665642069733a202573a264697066735822122019967466457af4caedb674f0b1871a2ac02d56e24974d5ed884d4a3aa9984db464736f6c63430008000033",
  "linkReferences": {},
  "deployedLinkReferences": {}
}