{
  "_format": "hh-sol-artifact-1",
  "contractName": "TestNft",
  "sourceName": "contracts/TestNft.sol",
  "abi": [
    {
      "inputs": [
        {
          "internalType": "string",
          "name": "_name",
          "type": "string"
        },
        {
          "internalType": "string",
          "name": "_symbol",
          "type": "string"
        }
      ],
      "stateMutability": "nonpayable",
      "type": "constructor"
    },
    {
      "anonymous": false,
      "inputs": [
        {
          "indexed": true,
          "internalType": "address",
          "name": "owner",
          "type": "address"
        },
        {
          "indexed": true,
          "internalType": "address",
          "name": "approved",
          "type": "address"
        },
        {
          "indexed": true,
          "internalType": "uint256",
          "name": "tokenId",
          "type": "uint256"
        }
      ],
      "name": "Approval",
      "type": "event"
    },
    {
      "anonymous": false,
      "inputs": [
        {
          "indexed": true,
          "internalType": "address",
          "name": "owner",
          "type": "address"
        },
        {
          "indexed": true,
          "internalType": "address",
          "name": "operator",
          "type": "address"
        },
        {
          "indexed": false,
          "internalType": "bool",
          "name": "approved",
          "type": "bool"
        }
      ],
      "name": "ApprovalForAll",
      "type": "event"
    },
    {
      "anonymous": false,
      "inputs": [
        {
          "indexed": true,
          "internalType": "address",
          "name": "from",
          "type": "address"
        },
        {
          "indexed": true,
          "internalType": "address",
          "name": "to",
          "type": "address"
        },
        {
          "indexed": true,
          "internalType": "uint256",
          "name": "tokenId",
          "type": "uint256"
        }
      ],
      "name": "Transfer",
      "type": "event"
    },
    {
      "inputs": [
        {
          "internalType": "address",
          "name": "to",
          "type": "address"
        },
        {
          "internalType": "uint256",
          "name": "tokenId",
          "type": "uint256"
        }
      ],
      "name": "approve",
      "outputs": [],
      "stateMutability": "nonpayable",
      "type": "function"
    },
    {
      "inputs": [
        {
          "internalType": "address",
          "name": "owner",
          "type": "address"
        }
      ],
      "name": "balanceOf",
      "outputs": [
        {
          "internalType": "uint256",
          "name": "",
          "type": "uint256"
        }
      ],
      "stateMutability": "view",
      "type": "function"
    },
    {
      "inputs": [],
      "name": "collectionName",
      "outputs": [
        {
          "internalType": "string",
          "name": "",
          "type": "string"
        }
      ],
      "stateMutability": "view",
      "type": "function"
    },
    {
      "inputs": [],
      "name": "collectionSymbol",
      "outputs": [
        {
          "internalType": "string",
          "name": "",
          "type": "string"
        }
      ],
      "stateMutability": "view",
      "type": "function"
    },
    {
      "inputs": [
        {
          "internalType": "uint256",
          "name": "tokenId",
          "type": "uint256"
        }
      ],
      "name": "getApproved",
      "outputs": [
        {
          "internalType": "address",
          "name": "",
          "type": "address"
        }
      ],
      "stateMutability": "view",
      "type": "function"
    },
    {
      "inputs": [
        {
          "internalType": "address",
          "name": "owner",
          "type": "address"
        },
        {
          "internalType": "address",
          "name": "operator",
          "type": "address"
        }
      ],
      "name": "isApprovedForAll",
      "outputs": [
        {
          "internalType": "bool",
          "name": "",
          "type": "bool"
        }
      ],
      "stateMutability": "view",
      "type": "function"
    },
    {
      "inputs": [
        {
          "internalType": "uint256",
          "name": "_tokenId",
          "type": "uint256"
        }
      ],
      "name": "mintNewNft",
      "outputs": [],
      "stateMutability": "nonpayable",
      "type": "function"
    },
    {
      "inputs": [],
      "name": "name",
      "outputs": [
        {
          "internalType": "string",
          "name": "",
          "type": "string"
        }
      ],
      "stateMutability": "view",
      "type": "function"
    },
    {
      "inputs": [
        {
          "internalType": "uint256",
          "name": "tokenId",
          "type": "uint256"
        }
      ],
      "name": "ownerOf",
      "outputs": [
        {
          "internalType": "address",
          "name": "",
          "type": "address"
        }
      ],
      "stateMutability": "view",
      "type": "function"
    },
    {
      "inputs": [
        {
          "internalType": "address",
          "name": "from",
          "type": "address"
        },
        {
          "internalType": "address",
          "name": "to",
          "type": "address"
        },
        {
          "internalType": "uint256",
          "name": "tokenId",
          "type": "uint256"
        }
      ],
      "name": "safeTransferFrom",
      "outputs": [],
      "stateMutability": "nonpayable",
      "type": "function"
    },
    {
      "inputs": [
        {
          "internalType": "address",
          "name": "from",
          "type": "address"
        },
        {
          "internalType": "address",
          "name": "to",
          "type": "address"
        },
        {
          "internalType": "uint256",
          "name": "tokenId",
          "type": "uint256"
        },
        {
          "internalType": "bytes",
          "name": "_data",
          "type": "bytes"
        }
      ],
      "name": "safeTransferFrom",
      "outputs": [],
      "stateMutability": "nonpayable",
      "type": "function"
    },
    {
      "inputs": [
        {
          "internalType": "address",
          "name": "operator",
          "type": "address"
        },
        {
          "internalType": "bool",
          "name": "approved",
          "type": "bool"
        }
      ],
      "name": "setApprovalForAll",
      "outputs": [],
      "stateMutability": "nonpayable",
      "type": "function"
    },
    {
      "inputs": [
        {
          "internalType": "bytes4",
          "name": "interfaceId",
          "type": "bytes4"
        }
      ],
      "name": "supportsInterface",
      "outputs": [
        {
          "internalType": "bool",
          "name": "",
          "type": "bool"
        }
      ],
      "stateMutability": "view",
      "type": "function"
    },
    {
      "inputs": [],
      "name": "symbol",
      "outputs": [
        {
          "internalType": "string",
          "name": "",
          "type": "string"
        }
      ],
      "stateMutability": "view",
      "type": "function"
    },
    {
      "inputs": [
        {
          "internalType": "uint256",
          "name": "tokenId",
          "type": "uint256"
        }
      ],
      "name": "tokenURI",
      "outputs": [
        {
          "internalType": "string",
          "name": "",
          "type": "string"
        }
      ],
      "stateMutability": "view",
      "type": "function"
    },
    {
      "inputs": [
        {
          "internalType": "address",
          "name": "from",
          "type": "address"
        },
        {
          "internalType": "address",
          "name": "to",
          "type": "address"
        },
        {
          "internalType": "uint256",
          "name": "tokenId",
          "type": "uint256"
        }
      ],
      "name": "transferFrom",
      "outputs": [],
      "stateMutability": "nonpayable",
      "type": "function"
    }
  ],
  "bytecode": "0x60806040523480156200001157600080fd5b5060405162002b3f38038062002b3f8339818101604052810190620000379190620001c9565b8181816000908051906020019062000051929190620000a7565b5080600190805190602001906200006a929190620000a7565b505050816006908051906020019062000085929190620000a7565b5080600790805190602001906200009e929190620000a7565b5050506200036d565b828054620000b590620002d9565b90600052602060002090601f016020900481019282620000d9576000855562000125565b82601f10620000f457805160ff191683800117855562000125565b8280016001018555821562000125579182015b828111156200012457825182559160200191906001019062000107565b5b50905062000134919062000138565b5090565b5b808211156200015357600081600090555060010162000139565b5090565b60006200016e620001688462000270565b6200023c565b9050828152602081018484840111156200018757600080fd5b62000194848285620002a3565b509392505050565b600082601f830112620001ae57600080fd5b8151620001c084826020860162000157565b91505092915050565b60008060408385031215620001dd57600080fd5b600083015167ffffffffffffffff811115620001f857600080fd5b62000206858286016200019c565b925050602083015167ffffffffffffffff8111156200022457600080fd5b62000232858286016200019c565b9150509250929050565b6000604051905081810181811067ffffffffffffffff821117156200026657620002656200033e565b5b8060405250919050565b600067ffffffffffffffff8211156200028e576200028d6200033e565b5b601f19601f8301169050602081019050919050565b60005b83811015620002c3578082015181840152602081019050620002a6565b83811115620002d3576000848401525b50505050565b60006002820490506001821680620002f257607f821691505b602082108114156200030957620003086200030f565b5b50919050565b7f4e487b7100000000000000000000000000000000000000000000000000000000600052602260045260246000fd5b7f4e487b7100000000000000000000000000000000000000000000000000000000600052604160045260246000fd5b6127c2806200037d6000396000f3fe608060405234801561001057600080fd5b50600436106101005760003560e01c80636352211e11610097578063b88d4fde11610066578063b88d4fde146102ab578063c87b56dd146102c7578063e5326ab1146102f7578063e985e9c51461031557610100565b80636352211e1461021157806370a082311461024157806395d89b4114610271578063a22cb4651461028f57610100565b806323b872dd116100d357806323b872dd1461019f5780632f39352a146101bb57806342842e0e146101d95780634b6d69d3146101f557610100565b806301ffc9a71461010557806306fdde0314610135578063081812fc14610153578063095ea7b314610183575b600080fd5b61011f600480360381019061011a9190611a92565b610345565b60405161012c919061218a565b60405180910390f35b61013d610427565b60405161014a91906121a5565b60405180910390f35b61016d60048036038101906101689190611ae4565b6104b9565b60405161017a9190612123565b60405180910390f35b61019d60048036038101906101989190611a56565b61053e565b005b6101b960048036038101906101b49190611950565b610656565b005b6101c36106b6565b6040516101d091906121a5565b60405180910390f35b6101f360048036038101906101ee9190611950565b610748565b005b61020f600480360381019061020a9190611ae4565b610768565b005b61022b60048036038101906102269190611ae4565b610775565b6040516102389190612123565b60405180910390f35b61025b600480360381019061025691906118eb565b610787565b6040516102689190612387565b60405180910390f35b61027961083f565b60405161028691906121a5565b60405180910390f35b6102a960048036038101906102a49190611a1a565b6108d1565b005b6102c560048036038101906102c0919061199f565b610a52565b005b6102e160048036038101906102dc9190611ae4565b610ab4565b6040516102ee91906121a5565b60405180910390f35b6102ff610b5b565b60405161030c91906121a5565b60405180910390f35b61032f600480360381019061032a9190611914565b610bed565b60405161033c919061218a565b60405180910390f35b60007f80ac58cd000000000000000000000000000000000000000000000000000000007bffffffffffffffffffffffffffffffffffffffffffffffffffffffff1916827bffffffffffffffffffffffffffffffffffffffffffffffffffffffff1916148061041057507f5b5e139f000000000000000000000000000000000000000000000000000000007bffffffffffffffffffffffffffffffffffffffffffffffffffffffff1916827bffffffffffffffffffffffffffffffffffffffffffffffffffffffff1916145b80610420575061041f82610c81565b5b9050919050565b606060008054610436906125b7565b80601f0160208091040260200160405190810160405280929190818152602001828054610462906125b7565b80156104af5780601f10610484576101008083540402835291602001916104af565b820191906000526020600020905b81548152906001019060200180831161049257829003601f168201915b5050505050905090565b60006104c482610ceb565b610503576040517f08c379a00000000000000000000000000000000000000000000000000000000081526004016104fa906122e7565b60405180910390fd5b6004600083815260200190815260200160002060009054906101000a900473ffffffffffffffffffffffffffffffffffffffff169050919050565b600061054982610d57565b90508073ffffffffffffffffffffffffffffffffffffffff168373ffffffffffffffffffffffffffffffffffffffff1614156105ba576040517f08c379a00000000000000000000000000000000000000000000000000000000081526004016105b190612347565b60405180910390fd5b8073ffffffffffffffffffffffffffffffffffffffff166105d9610e09565b73ffffffffffffffffffffffffffffffffffffffff161480610608575061060781610602610e09565b610bed565b5b610647576040517f08c379a000000000000000000000000000000000000000000000000000000000815260040161063e90612267565b60405180910390fd5b6106518383610e11565b505050565b610667610661610e09565b82610eca565b6106a6576040517f08c379a000000000000000000000000000000000000000000000000000000000815260040161069d90612367565b60405180910390fd5b6106b1838383610fa8565b505050565b6060600780546106c5906125b7565b80601f01602080910402602001604051908101604052809291908181526020018280546106f1906125b7565b801561073e5780601f106107135761010080835404028352916020019161073e565b820191906000526020600020905b81548152906001019060200180831161072157829003601f168201915b5050505050905090565b61076383838360405180602001604052806000815250610a52565b505050565b6107723382611204565b50565b600061078082610d57565b9050919050565b60008073ffffffffffffffffffffffffffffffffffffffff168273ffffffffffffffffffffffffffffffffffffffff1614156107f8576040517f08c379a00000000000000000000000000000000000000000000000000000000081526004016107ef90612287565b60405180910390fd5b600360008373ffffffffffffffffffffffffffffffffffffffff1673ffffffffffffffffffffffffffffffffffffffff168152602001908152602001600020549050919050565b60606001805461084e906125b7565b80601f016020809104026020016040519081016040528092919081815260200182805461087a906125b7565b80156108c75780601f1061089c576101008083540402835291602001916108c7565b820191906000526020600020905b8154815290600101906020018083116108aa57829003601f168201915b5050505050905090565b6108d9610e09565b73ffffffffffffffffffffffffffffffffffffffff168273ffffffffffffffffffffffffffffffffffffffff161415610947576040517f08c379a000000000000000000000000000000000000000000000000000000000815260040161093e90612227565b60405180910390fd5b8060056000610954610e09565b73ffffffffffffffffffffffffffffffffffffffff1673ffffffffffffffffffffffffffffffffffffffff16815260200190815260200160002060008473ffffffffffffffffffffffffffffffffffffffff1673ffffffffffffffffffffffffffffffffffffffff16815260200190815260200160002060006101000a81548160ff0219169083151502179055508173ffffffffffffffffffffffffffffffffffffffff16610a01610e09565b73ffffffffffffffffffffffffffffffffffffffff167f17307eab39ab6107e8899845ad3d59bd9653f200f220920489ca2b5937696c3183604051610a46919061218a565b60405180910390a35050565b610a63610a5d610e09565b83610eca565b610aa2576040517f08c379a0000000000000000000000000000000000000000000000000000000008152600401610a9990612367565b60405180910390fd5b610aae84848484611222565b50505050565b6060610abf82610ceb565b610afe576040517f08c379a0000000000000000000000000000000000000000000000000000000008152600401610af590612327565b60405180910390fd5b6000610b0861127e565b90506000815111610b285760405180602001604052806000815250610b53565b80610b3284611295565b604051602001610b439291906120ff565b6040516020818303038152906040525b915050919050565b606060068054610b6a906125b7565b80601f0160208091040260200160405190810160405280929190818152602001828054610b96906125b7565b8015610be35780601f10610bb857610100808354040283529160200191610be3565b820191906000526020600020905b815481529060010190602001808311610bc657829003601f168201915b5050505050905090565b6000600560008473ffffffffffffffffffffffffffffffffffffffff1673ffffffffffffffffffffffffffffffffffffffff16815260200190815260200160002060008373ffffffffffffffffffffffffffffffffffffffff1673ffffffffffffffffffffffffffffffffffffffff16815260200190815260200160002060009054906101000a900460ff16905092915050565b60007f01ffc9a7000000000000000000000000000000000000000000000000000000007bffffffffffffffffffffffffffffffffffffffffffffffffffffffff1916827bffffffffffffffffffffffffffffffffffffffffffffffffffffffff1916149050919050565b60008073ffffffffffffffffffffffffffffffffffffffff166002600084815260200190815260200160002060009054906101000a900473ffffffffffffffffffffffffffffffffffffffff1673ffffffffffffffffffffffffffffffffffffffff1614159050919050565b6000806002600084815260200190815260200160002060009054906101000a900473ffffffffffffffffffffffffffffffffffffffff169050600073ffffffffffffffffffffffffffffffffffffffff168173ffffffffffffffffffffffffffffffffffffffff161415610e00576040517f08c379a0000000000000000000000000000000000000000000000000000000008152600401610df7906122a7565b60405180910390fd5b80915050919050565b600033905090565b816004600083815260200190815260200160002060006101000a81548173ffffffffffffffffffffffffffffffffffffffff021916908373ffffffffffffffffffffffffffffffffffffffff160217905550808273ffffffffffffffffffffffffffffffffffffffff16610e8483610d57565b73ffffffffffffffffffffffffffffffffffffffff167f8c5be1e5ebec7d5bd14f71427d1e84f3dd0314c0f7b2291e5b200ac8c7c3b92560405160405180910390a45050565b6000610ed582610ceb565b610f14576040517f08c379a0000000000000000000000000000000000000000000000000000000008152600401610f0b90612247565b60405180910390fd5b6000610f1f83610d57565b90508073ffffffffffffffffffffffffffffffffffffffff168473ffffffffffffffffffffffffffffffffffffffff161480610f8e57508373ffffffffffffffffffffffffffffffffffffffff16610f76846104b9565b73ffffffffffffffffffffffffffffffffffffffff16145b80610f9f5750610f9e8185610bed565b5b91505092915050565b8273ffffffffffffffffffffffffffffffffffffffff16610fc882610d57565b73ffffffffffffffffffffffffffffffffffffffff161461101e576040517f08c379a000000000000000000000000000000000000000000000000000000000815260040161101590612307565b60405180910390fd5b600073ffffffffffffffffffffffffffffffffffffffff168273ffffffffffffffffffffffffffffffffffffffff16141561108e576040517f08c379a000000000000000000000000000000000000000000000000000000000815260040161108590612207565b60405180910390fd5b611099838383611442565b6110a4600082610e11565b6001600360008573ffffffffffffffffffffffffffffffffffffffff1673ffffffffffffffffffffffffffffffffffffffff16815260200190815260200160002060008282546110f491906124cd565b925050819055506001600360008473ffffffffffffffffffffffffffffffffffffffff1673ffffffffffffffffffffffffffffffffffffffff168152602001908152602001600020600082825461114b9190612446565b92505081905550816002600083815260200190815260200160002060006101000a81548173ffffffffffffffffffffffffffffffffffffffff021916908373ffffffffffffffffffffffffffffffffffffffff160217905550808273ffffffffffffffffffffffffffffffffffffffff168473ffffffffffffffffffffffffffffffffffffffff167fddf252ad1be2c89b69c2b068fc378daa952ba7f163c4a11628f55a4df523b3ef60405160405180910390a4505050565b61121e828260405180602001604052806000815250611447565b5050565b61122d848484610fa8565b611239848484846114a2565b611278576040517f08c379a000000000000000000000000000000000000000000000000000000000815260040161126f906121c7565b60405180910390fd5b50505050565b606060405180602001604052806000815250905090565b606060008214156112dd576040518060400160405280600181526020017f3000000000000000000000000000000000000000000000000000000000000000815250905061143d565b600082905060005b6000821461130f5780806112f8906125e9565b915050600a82611308919061249c565b91506112e5565b60008167ffffffffffffffff811115611351577f4e487b7100000000000000000000000000000000000000000000000000000000600052604160045260246000fd5b6040519080825280601f01601f1916602001820160405280156113835781602001600182028036833780820191505090505b5090505b600085146114365760018261139c91906124cd565b9150600a856113ab9190612632565b60306113b79190612446565b60f81b8183815181106113f3577f4e487b7100000000000000000000000000000000000000000000000000000000600052603260045260246000fd5b60200101907effffffffffffffffffffffffffffffffffffffffffffffffffffffffffffff1916908160001a905350600a8561142f919061249c565b9450611387565b8093505050505b919050565b505050565b6114518383611639565b61145e60008484846114a2565b61149d576040517f08c379a0000000000000000000000000000000000000000000000000000000008152600401611494906121c7565b60405180910390fd5b505050565b60006114c38473ffffffffffffffffffffffffffffffffffffffff16611807565b1561162c578373ffffffffffffffffffffffffffffffffffffffff1663150b7a026114ec610e09565b8786866040518563ffffffff1660e01b815260040161150e949392919061213e565b602060405180830381600087803b15801561152857600080fd5b505af192505050801561155957506040513d601f19601f820116820180604052508101906115569190611abb565b60015b6115dc573d8060008114611589576040519150601f19603f3d011682016040523d82523d6000602084013e61158e565b606091505b506000815114156115d4576040517f08c379a00000000000000000000000000000000000000000000000000000000081526004016115cb906121c7565b60405180910390fd5b805181602001fd5b63150b7a0260e01b7bffffffffffffffffffffffffffffffffffffffffffffffffffffffff1916817bffffffffffffffffffffffffffffffffffffffffffffffffffffffff191614915050611631565b600190505b949350505050565b600073ffffffffffffffffffffffffffffffffffffffff168273ffffffffffffffffffffffffffffffffffffffff1614156116a9576040517f08c379a00000000000000000000000000000000000000000000000000000000081526004016116a0906122c7565b60405180910390fd5b6116b281610ceb565b156116f2576040517f08c379a00000000000000000000000000000000000000000000000000000000081526004016116e9906121e7565b60405180910390fd5b6116fe60008383611442565b6001600360008473ffffffffffffffffffffffffffffffffffffffff1673ffffffffffffffffffffffffffffffffffffffff168152602001908152602001600020600082825461174e9190612446565b92505081905550816002600083815260200190815260200160002060006101000a81548173ffffffffffffffffffffffffffffffffffffffff021916908373ffffffffffffffffffffffffffffffffffffffff160217905550808273ffffffffffffffffffffffffffffffffffffffff16600073ffffffffffffffffffffffffffffffffffffffff167fddf252ad1be2c89b69c2b068fc378daa952ba7f163c4a11628f55a4df523b3ef60405160405180910390a45050565b600080823b905060008111915050919050565b600061182d611828846123d3565b6123a2565b90508281526020810184848401111561184557600080fd5b611850848285612575565b509392505050565b60008135905061186781612730565b92915050565b60008135905061187c81612747565b92915050565b6000813590506118918161275e565b92915050565b6000815190506118a68161275e565b92915050565b600082601f8301126118bd57600080fd5b81356118cd84826020860161181a565b91505092915050565b6000813590506118e581612775565b92915050565b6000602082840312156118fd57600080fd5b600061190b84828501611858565b91505092915050565b6000806040838503121561192757600080fd5b600061193585828601611858565b925050602061194685828601611858565b9150509250929050565b60008060006060848603121561196557600080fd5b600061197386828701611858565b935050602061198486828701611858565b9250506040611995868287016118d6565b9150509250925092565b600080600080608085870312156119b557600080fd5b60006119c387828801611858565b94505060206119d487828801611858565b93505060406119e5878288016118d6565b925050606085013567ffffffffffffffff811115611a0257600080fd5b611a0e878288016118ac565b91505092959194509250565b60008060408385031215611a2d57600080fd5b6000611a3b85828601611858565b9250506020611a4c8582860161186d565b9150509250929050565b60008060408385031215611a6957600080fd5b6000611a7785828601611858565b9250506020611a88858286016118d6565b9150509250929050565b600060208284031215611aa457600080fd5b6000611ab284828501611882565b91505092915050565b600060208284031215611acd57600080fd5b6000611adb84828501611897565b91505092915050565b600060208284031215611af657600080fd5b6000611b04848285016118d6565b91505092915050565b611b1681612501565b82525050565b611b2581612513565b82525050565b6000611b3682612403565b611b408185612419565b9350611b50818560208601612584565b611b598161271f565b840191505092915050565b6000611b6f8261240e565b611b79818561242a565b9350611b89818560208601612584565b611b928161271f565b840191505092915050565b6000611ba88261240e565b611bb2818561243b565b9350611bc2818560208601612584565b80840191505092915050565b6000611bdb60328361242a565b91507f4552433732313a207472616e7366657220746f206e6f6e20455243373231526560008301527f63656976657220696d706c656d656e74657200000000000000000000000000006020830152604082019050919050565b6000611c41601c8361242a565b91507f4552433732313a20746f6b656e20616c7265616479206d696e746564000000006000830152602082019050919050565b6000611c8160248361242a565b91507f4552433732313a207472616e7366657220746f20746865207a65726f2061646460008301527f72657373000000000000000000000000000000000000000000000000000000006020830152604082019050919050565b6000611ce760198361242a565b91507f4552433732313a20617070726f766520746f2063616c6c6572000000000000006000830152602082019050919050565b6000611d27602c8361242a565b91507f4552433732313a206f70657261746f7220717565727920666f72206e6f6e657860008301527f697374656e7420746f6b656e00000000000000000000000000000000000000006020830152604082019050919050565b6000611d8d60388361242a565b91507f4552433732313a20617070726f76652063616c6c6572206973206e6f74206f7760008301527f6e6572206e6f7220617070726f76656420666f7220616c6c00000000000000006020830152604082019050919050565b6000611df3602a8361242a565b91507f4552433732313a2062616c616e636520717565727920666f7220746865207a6560008301527f726f2061646472657373000000000000000000000000000000000000000000006020830152604082019050919050565b6000611e5960298361242a565b91507f4552433732313a206f776e657220717565727920666f72206e6f6e657869737460008301527f656e7420746f6b656e00000000000000000000000000000000000000000000006020830152604082019050919050565b6000611ebf60208361242a565b91507f4552433732313a206d696e7420746f20746865207a65726f20616464726573736000830152602082019050919050565b6000611eff602c8361242a565b91507f4552433732313a20617070726f76656420717565727920666f72206e6f6e657860008301527f697374656e7420746f6b656e00000000000000000000000000000000000000006020830152604082019050919050565b6000611f6560298361242a565b91507f4552433732313a207472616e73666572206f6620746f6b656e2074686174206960008301527f73206e6f74206f776e00000000000000000000000000000000000000000000006020830152604082019050919050565b6000611fcb602f8361242a565b91507f4552433732314d657461646174613a2055524920717565727920666f72206e6f60008301527f6e6578697374656e7420746f6b656e00000000000000000000000000000000006020830152604082019050919050565b600061203160218361242a565b91507f4552433732313a20617070726f76616c20746f2063757272656e74206f776e6560008301527f72000000000000000000000000000000000000000000000000000000000000006020830152604082019050919050565b600061209760318361242a565b91507f4552433732313a207472616e736665722063616c6c6572206973206e6f74206f60008301527f776e6572206e6f7220617070726f7665640000000000000000000000000000006020830152604082019050919050565b6120f98161256b565b82525050565b600061210b8285611b9d565b91506121178284611b9d565b91508190509392505050565b60006020820190506121386000830184611b0d565b92915050565b60006080820190506121536000830187611b0d565b6121606020830186611b0d565b61216d60408301856120f0565b818103606083015261217f8184611b2b565b905095945050505050565b600060208201905061219f6000830184611b1c565b92915050565b600060208201905081810360008301526121bf8184611b64565b905092915050565b600060208201905081810360008301526121e081611bce565b9050919050565b6000602082019050818103600083015261220081611c34565b9050919050565b6000602082019050818103600083015261222081611c74565b9050919050565b6000602082019050818103600083015261224081611cda565b9050919050565b6000602082019050818103600083015261226081611d1a565b9050919050565b6000602082019050818103600083015261228081611d80565b9050919050565b600060208201905081810360008301526122a081611de6565b9050919050565b600060208201905081810360008301526122c081611e4c565b9050919050565b600060208201905081810360008301526122e081611eb2565b9050919050565b6000602082019050818103600083015261230081611ef2565b9050919050565b6000602082019050818103600083015261232081611f58565b9050919050565b6000602082019050818103600083015261234081611fbe565b9050919050565b6000602082019050818103600083015261236081612024565b9050919050565b600060208201905081810360008301526123808161208a565b9050919050565b600060208201905061239c60008301846120f0565b92915050565b6000604051905081810181811067ffffffffffffffff821117156123c9576123c86126f0565b5b8060405250919050565b600067ffffffffffffffff8211156123ee576123ed6126f0565b5b601f19601f8301169050602081019050919050565b600081519050919050565b600081519050919050565b600082825260208201905092915050565b600082825260208201905092915050565b600081905092915050565b60006124518261256b565b915061245c8361256b565b9250827fffffffffffffffffffffffffffffffffffffffffffffffffffffffffffffffff0382111561249157612490612663565b5b828201905092915050565b60006124a78261256b565b91506124b28361256b565b9250826124c2576124c1612692565b5b828204905092915050565b60006124d88261256b565b91506124e38361256b565b9250828210156124f6576124f5612663565b5b828203905092915050565b600061250c8261254b565b9050919050565b60008115159050919050565b60007fffffffff0000000000000000000000000000000000000000000000000000000082169050919050565b600073ffffffffffffffffffffffffffffffffffffffff82169050919050565b6000819050919050565b82818337600083830152505050565b60005b838110156125a2578082015181840152602081019050612587565b838111156125b1576000848401525b50505050565b600060028204905060018216806125cf57607f821691505b602082108114156125e3576125e26126c1565b5b50919050565b60006125f48261256b565b91507fffffffffffffffffffffffffffffffffffffffffffffffffffffffffffffffff82141561262757612626612663565b5b600182019050919050565b600061263d8261256b565b91506126488361256b565b92508261265857612657612692565b5b828206905092915050565b7f4e487b7100000000000000000000000000000000000000000000000000000000600052601160045260246000fd5b7f4e487b7100000000000000000000000000000000000000000000000000000000600052601260045260246000fd5b7f4e487b7100000000000000000000000000000000000000000000000000000000600052602260045260246000fd5b7f4e487b7100000000000000000000000000000000000000000000000000000000600052604160045260246000fd5b6000601f19601f8301169050919050565b61273981612501565b811461274457600080fd5b50565b61275081612513565b811461275b57600080fd5b50565b6127678161251f565b811461277257600080fd5b50565b61277e8161256b565b811461278957600080fd5b5056fea26469706673582212208763016215933a5c918915e10377dc6ddd73b54506574f8de67d3c6871d3ca0664736f6c63430008000033",
  "linkReferences": {},
  "deployedLinkReferences": {}
}