{
  "_format": "hh-sol-artifact-1",
  "contractName": "TestNft",
  "sourceName": "contracts/TestNft.sol",
  "abi": [
    {
      "inputs": [
        {
          "internalType": "string",
          "name": "_name",
          "type": "string"
        },
        {
          "internalType": "string",
          "name": "_symbol",
          "type": "string"
        }
      ],
      "stateMutability": "nonpayable",
      "type": "constructor"
    },
    {
      "anonymous": false,
      "inputs": [
        {
          "indexed": true,
          "internalType": "address",
          "name": "owner",
          "type": "address"
        },
        {
          "indexed": true,
          "internalType": "address",
          "name": "approved",
          "type": "address"
        },
        {
          "indexed": true,
          "internalType": "uint256",
          "name": "tokenId",
          "type": "uint256"
        }
      ],
      "name": "Approval",
      "type": "event"
    },
    {
      "anonymous": false,
      "inputs": [
        {
          "indexed": true,
          "internalType": "address",
          "name": "owner",
          "type": "address"
        },
        {
          "indexed": true,
          "internalType": "address",
          "name": "operator",
          "type": "address"
        },
        {
          "indexed": false,
          "internalType": "bool",
          "name": "approved",
          "type": "bool"
        }
      ],
      "name": "ApprovalForAll",
      "type": "event"
    },
    {
      "anonymous": false,
      "inputs": [
        {
          "indexed": true,
          "internalType": "address",
          "name": "from",
          "type": "address"
        },
        {
          "indexed": true,
          "internalType": "address",
          "name": "to",
          "type": "address"
        },
        {
          "indexed": true,
          "internalType": "uint256",
          "name": "tokenId",
          "type": "uint256"
        }
      ],
      "name": "Transfer",
      "type": "event"
    },
    {
      "inputs": [
        {
          "internalType": "address",
          "name": "to",
          "type": "address"
        },
        {
          "internalType": "uint256",
          "name": "tokenId",
          "type": "uint256"
        }
      ],
      "name": "approve",
      "outputs": [],
      "stateMutability": "nonpayable",
      "type": "function"
    },
    {
      "inputs": [
        {
          "internalType": "address",
          "name": "owner",
          "type": "address"
        }
      ],
      "name": "balanceOf",
      "outputs": [
        {
          "internalType": "uint256",
          "name": "",
          "type": "uint256"
        }
      ],
      "stateMutability": "view",
      "type": "function"
    },
    {
      "inputs": [],
      "name": "collectionName",
      "outputs": [
        {
          "internalType": "string",
          "name": "",
          "type": "string"
        }
      ],
      "stateMutability": "view",
      "type": "function"
    },
    {
      "inputs": [],
      "name": "collectionSymbol",
      "outputs": [
        {
          "internalType": "string",
          "name": "",
          "type": "string"
        }
      ],
      "stateMutability": "view",
      "type": "function"
    },
    {
      "inputs": [
        {
          "internalType": "uint256",
          "name": "tokenId",
          "type": "uint256"
        }
      ],
      "name": "getApproved",
      "outputs": [
        {
          "internalType": "address",
          "name": "",
          "type": "address"
        }
      ],
      "stateMutability": "view",
      "type": "function"
    },
    {
      "inputs": [
        {
          "internalType": "address",
          "name": "owner",
          "type": "address"
        },
        {
          "internalType": "address",
          "name": "operator",
          "type": "address"
        }
      ],
      "name": "isApprovedForAll",
      "outputs": [
        {
          "internalType": "bool",
          "name": "",
          "type": "bool"
        }
      ],
      "stateMutability": "view",
      "type": "function"
    },
    {
      "inputs": [
        {
          "internalType": "uint256",
          "name": "_tokenId",
          "type": "uint256"
        }
      ],
      "name": "mintNewNft",
      "outputs": [],
      "stateMutability": "nonpayable",
      "type": "function"
    },
    {
      "inputs": [],
      "name": "name",
      "outputs": [
        {
          "internalType": "string",
          "name": "",
          "type": "string"
        }
      ],
      "stateMutability": "view",
      "type": "function"
    },
    {
      "inputs": [
        {
          "internalType": "uint256",
          "name": "tokenId",
          "type": "uint256"
        }
      ],
      "name": "ownerOf",
      "outputs": [
        {
          "internalType": "address",
          "name": "",
          "type": "address"
        }
      ],
      "stateMutability": "view",
      "type": "function"
    },
    {
      "inputs": [
        {
          "internalType": "address",
          "name": "from",
          "type": "address"
        },
        {
          "internalType": "address",
          "name": "to",
          "type": "address"
        },
        {
          "internalType": "uint256",
          "name": "tokenId",
          "type": "uint256"
        }
      ],
      "name": "safeTransferFrom",
      "outputs": [],
      "stateMutability": "nonpayable",
      "type": "function"
    },
    {
      "inputs": [
        {
          "internalType": "address",
          "name": "from",
          "type": "address"
        },
        {
          "internalType": "address",
          "name": "to",
          "type": "address"
        },
        {
          "internalType": "uint256",
          "name": "tokenId",
          "type": "uint256"
        },
        {
          "internalType": "bytes",
          "name": "_data",
          "type": "bytes"
        }
      ],
      "name": "safeTransferFrom",
      "outputs": [],
      "stateMutability": "nonpayable",
      "type": "function"
    },
    {
      "inputs": [
        {
          "internalType": "address",
          "name": "operator",
          "type": "address"
        },
        {
          "internalType": "bool",
          "name": "approved",
          "type": "bool"
        }
      ],
      "name": "setApprovalForAll",
      "outputs": [],
      "stateMutability": "nonpayable",
      "type": "function"
    },
    {
      "inputs": [
        {
          "internalType": "bytes4",
          "name": "interfaceId",
          "type": "bytes4"
        }
      ],
      "name": "supportsInterface",
      "outputs": [
        {
          "internalType": "bool",
          "name": "",
          "type": "bool"
        }
      ],
      "stateMutability": "view",
      "type": "function"
    },
    {
      "inputs": [],
      "name": "symbol",
      "outputs": [
        {
          "internalType": "string",
          "name": "",
          "type": "string"
        }
      ],
      "stateMutability": "view",
      "type": "function"
    },
    {
      "inputs": [
        {
          "internalType": "uint256",
          "name": "tokenId",
          "type": "uint256"
        }
      ],
      "name": "tokenURI",
      "outputs": [
        {
          "internalType": "string",
          "name": "",
          "type": "string"
        }
      ],
      "stateMutability": "view",
      "type": "function"
    },
    {
      "inputs": [
        {
          "internalType": "address",
          "name": "from",
          "type": "address"
        },
        {
          "internalType": "address",
          "name": "to",
          "type": "address"
        },
        {
          "internalType": "uint256",
          "name": "tokenId",
          "type": "uint256"
        }
      ],
      "name": "transferFrom",
      "outputs": [],
      "stateMutability": "nonpayable",
      "type": "function"
    }
  ],
  "bytecode": "0x60806040523480156200001157600080fd5b5060405162002b3e38038062002b3e8339818101604052810190620000379190620001c9565b8181816000908051906020019062000051929190620000a7565b5080600190805190602001906200006a929190620000a7565b505050816006908051906020019062000085929190620000a7565b5080600790805190602001906200009e929190620000a7565b5050506200036d565b828054620000b590620002d9565b90600052602060002090601f016020900481019282620000d9576000855562000125565b82601f10620000f457805160ff191683800117855562000125565b8280016001018555821562000125579182015b828111156200012457825182559160200191906001019062000107565b5b50905062000134919062000138565b5090565b5b808211156200015357600081600090555060010162000139565b5090565b60006200016e620001688462000270565b6200023c565b9050828152602081018484840111156200018757600080fd5b62000194848285620002a3565b509392505050565b600082601f830112620001ae57600080fd5b8151620001c084826020860162000157565b91505092915050565b60008060408385031215620001dd57600080fd5b600083015167ffffffffffffffff811115620001f857600080fd5b62000206858286016200019c565b925050602083015167ffffffffffffffff8111156200022457600080fd5b62000232858286016200019c565b9150509250929050565b6000604051905081810181811067ffffffffffffffff821117156200026657620002656200033e565b5b8060405250919050565b600067ffffffffffffffff8211156200028e576200028d6200033e565b5b601f19601f8301169050602081019050919050565b60005b83811015620002c3578082015181840152602081019050620002a6565b83811115620002d3576000848401525b50505050565b60006002820490506001821680620002f257607f821691505b602082108114156200030957620003086200030f565b5b50919050565b7f4e487b7100000000000000000000000000000000000000000000000000000000600052602260045260246000fd5b7f4e487b7100000000000000000000000000000000000000000000000000000000600052604160045260246000fd5b6127c1806200037d6000396000f3fe608060405234801561001057600080fd5b50600436106101005760003560e01c80636352211e11610097578063b88d4fde11610066578063b88d4fde146102ab578063c87b56dd146102c7578063e5326ab1146102f7578063e985e9c51461031557610100565b80636352211e1461021157806370a082311461024157806395d89b4114610271578063a22cb4651461028f57610100565b806323b872dd116100d357806323b872dd1461019f5780632f39352a146101bb57806342842e0e146101d95780634b6d69d3146101f557610100565b806301ffc9a71461010557806306fdde0314610135578063081812fc14610153578063095ea7b314610183575b600080fd5b61011f600480360381019061011a9190611a91565b610345565b60405161012c9190612189565b60405180910390f35b61013d610427565b60405161014a91906121a4565b60405180910390f35b61016d60048036038101906101689190611ae3565b6104b9565b60405161017a9190612122565b60405180910390f35b61019d60048036038101906101989190611a55565b61053e565b005b6101b960048036038101906101b4919061194f565b610656565b005b6101c36106b6565b6040516101d091906121a4565b60405180910390f35b6101f360048036038101906101ee919061194f565b610748565b005b61020f600480360381019061020a9190611ae3565b610768565b005b61022b60048036038101906102269190611ae3565b610775565b6040516102389190612122565b60405180910390f35b61025b600480360381019061025691906118ea565b610786565b6040516102689190612386565b60405180910390f35b61027961083e565b60405161028691906121a4565b60405180910390f35b6102a960048036038101906102a49190611a19565b6108d0565b005b6102c560048036038101906102c0919061199e565b610a51565b005b6102e160048036038101906102dc9190611ae3565b610ab3565b6040516102ee91906121a4565b60405180910390f35b6102ff610b5a565b60405161030c91906121a4565b60405180910390f35b61032f600480360381019061032a9190611913565b610bec565b60405161033c9190612189565b60405180910390f35b60007f80ac58cd000000000000000000000000000000000000000000000000000000007bffffffffffffffffffffffffffffffffffffffffffffffffffffffff1916827bffffffffffffffffffffffffffffffffffffffffffffffffffffffff1916148061041057507f5b5e139f000000000000000000000000000000000000000000000000000000007bffffffffffffffffffffffffffffffffffffffffffffffffffffffff1916827bffffffffffffffffffffffffffffffffffffffffffffffffffffffff1916145b80610420575061041f82610c80565b5b9050919050565b606060008054610436906125b6565b80601f0160208091040260200160405190810160405280929190818152602001828054610462906125b6565b80156104af5780601f10610484576101008083540402835291602001916104af565b820191906000526020600020905b81548152906001019060200180831161049257829003601f168201915b5050505050905090565b60006104c482610cea565b610503576040517f08c379a00000000000000000000000000000000000000000000000000000000081526004016104fa906122e6565b60405180910390fd5b6004600083815260200190815260200160002060009054906101000a900473ffffffffffffffffffffffffffffffffffffffff169050919050565b600061054982610d56565b90508073ffffffffffffffffffffffffffffffffffffffff168373ffffffffffffffffffffffffffffffffffffffff1614156105ba576040517f08c379a00000000000000000000000000000000000000000000000000000000081526004016105b190612346565b60405180910390fd5b8073ffffffffffffffffffffffffffffffffffffffff166105d9610e08565b73ffffffffffffffffffffffffffffffffffffffff161480610608575061060781610602610e08565b610bec565b5b610647576040517f08c379a000000000000000000000000000000000000000000000000000000000815260040161063e90612266565b60405180910390fd5b6106518383610e10565b505050565b610667610661610e08565b82610ec9565b6106a6576040517f08c379a000000000000000000000000000000000000000000000000000000000815260040161069d90612366565b60405180910390fd5b6106b1838383610fa7565b505050565b6060600780546106c5906125b6565b80601f01602080910402602001604051908101604052809291908181526020018280546106f1906125b6565b801561073e5780601f106107135761010080835404028352916020019161073e565b820191906000526020600020905b81548152906001019060200180831161072157829003601f168201915b5050505050905090565b61076383838360405180602001604052806000815250610a51565b505050565b6107723382611203565b50565b600061078082610d56565b50919050565b60008073ffffffffffffffffffffffffffffffffffffffff168273ffffffffffffffffffffffffffffffffffffffff1614156107f7576040517f08c379a00000000000000000000000000000000000000000000000000000000081526004016107ee90612286565b60405180910390fd5b600360008373ffffffffffffffffffffffffffffffffffffffff1673ffffffffffffffffffffffffffffffffffffffff168152602001908152602001600020549050919050565b60606001805461084d906125b6565b80601f0160208091040260200160405190810160405280929190818152602001828054610879906125b6565b80156108c65780601f1061089b576101008083540402835291602001916108c6565b820191906000526020600020905b8154815290600101906020018083116108a957829003601f168201915b5050505050905090565b6108d8610e08565b73ffffffffffffffffffffffffffffffffffffffff168273ffffffffffffffffffffffffffffffffffffffff161415610946576040517f08c379a000000000000000000000000000000000000000000000000000000000815260040161093d90612226565b60405180910390fd5b8060056000610953610e08565b73ffffffffffffffffffffffffffffffffffffffff1673ffffffffffffffffffffffffffffffffffffffff16815260200190815260200160002060008473ffffffffffffffffffffffffffffffffffffffff1673ffffffffffffffffffffffffffffffffffffffff16815260200190815260200160002060006101000a81548160ff0219169083151502179055508173ffffffffffffffffffffffffffffffffffffffff16610a00610e08565b73ffffffffffffffffffffffffffffffffffffffff167f17307eab39ab6107e8899845ad3d59bd9653f200f220920489ca2b5937696c3183604051610a459190612189565b60405180910390a35050565b610a62610a5c610e08565b83610ec9565b610aa1576040517f08c379a0000000000000000000000000000000000000000000000000000000008152600401610a9890612366565b60405180910390fd5b610aad84848484611221565b50505050565b6060610abe82610cea565b610afd576040517f08c379a0000000000000000000000000000000000000000000000000000000008152600401610af490612326565b60405180910390fd5b6000610b0761127d565b90506000815111610b275760405180602001604052806000815250610b52565b80610b3184611294565b604051602001610b429291906120fe565b6040516020818303038152906040525b915050919050565b606060068054610b69906125b6565b80601f0160208091040260200160405190810160405280929190818152602001828054610b95906125b6565b8015610be25780601f10610bb757610100808354040283529160200191610be2565b820191906000526020600020905b815481529060010190602001808311610bc557829003601f168201915b5050505050905090565b6000600560008473ffffffffffffffffffffffffffffffffffffffff1673ffffffffffffffffffffffffffffffffffffffff16815260200190815260200160002060008373ffffffffffffffffffffffffffffffffffffffff1673ffffffffffffffffffffffffffffffffffffffff16815260200190815260200160002060009054906101000a900460ff16905092915050565b60007f01ffc9a7000000000000000000000000000000000000000000000000000000007bffffffffffffffffffffffffffffffffffffffffffffffffffffffff1916827bffffffffffffffffffffffffffffffffffffffffffffffffffffffff1916149050919050565b60008073ffffffffffffffffffffffffffffffffffffffff166002600084815260200190815260200160002060009054906101000a900473ffffffffffffffffffffffffffffffffffffffff1673ffffffffffffffffffffffffffffffffffffffff1614159050919050565b6000806002600084815260200190815260200160002060009054906101000a900473ffffffffffffffffffffffffffffffffffffffff169050600073ffffffffffffffffffffffffffffffffffffffff168173ffffffffffffffffffffffffffffffffffffffff161415610dff576040517f08c379a0000000000000000000000000000000000000000000000000000000008152600401610df6906122a6565b60405180910390fd5b80915050919050565b600033905090565b816004600083815260200190815260200160002060006101000a81548173ffffffffffffffffffffffffffffffffffffffff021916908373ffffffffffffffffffffffffffffffffffffffff160217905550808273ffffffffffffffffffffffffffffffffffffffff16610e8383610d56565b73ffffffffffffffffffffffffffffffffffffffff167f8c5be1e5ebec7d5bd14f71427d1e84f3dd0314c0f7b2291e5b200ac8c7c3b92560405160405180910390a45050565b6000610ed482610cea565b610f13576040517f08c379a0000000000000000000000000000000000000000000000000000000008152600401610f0a90612246565b60405180910390fd5b6000610f1e83610d56565b90508073ffffffffffffffffffffffffffffffffffffffff168473ffffffffffffffffffffffffffffffffffffffff161480610f8d57508373ffffffffffffffffffffffffffffffffffffffff16610f75846104b9565b73ffffffffffffffffffffffffffffffffffffffff16145b80610f9e5750610f9d8185610bec565b5b91505092915050565b8273ffffffffffffffffffffffffffffffffffffffff16610fc782610d56565b73ffffffffffffffffffffffffffffffffffffffff161461101d576040517f08c379a000000000000000000000000000000000000000000000000000000000815260040161101490612306565b60405180910390fd5b600073ffffffffffffffffffffffffffffffffffffffff168273ffffffffffffffffffffffffffffffffffffffff16141561108d576040517f08c379a000000000000000000000000000000000000000000000000000000000815260040161108490612206565b60405180910390fd5b611098838383611441565b6110a3600082610e10565b6001600360008573ffffffffffffffffffffffffffffffffffffffff1673ffffffffffffffffffffffffffffffffffffffff16815260200190815260200160002060008282546110f391906124cc565b925050819055506001600360008473ffffffffffffffffffffffffffffffffffffffff1673ffffffffffffffffffffffffffffffffffffffff168152602001908152602001600020600082825461114a9190612445565b92505081905550816002600083815260200190815260200160002060006101000a81548173ffffffffffffffffffffffffffffffffffffffff021916908373ffffffffffffffffffffffffffffffffffffffff160217905550808273ffffffffffffffffffffffffffffffffffffffff168473ffffffffffffffffffffffffffffffffffffffff167fddf252ad1be2c89b69c2b068fc378daa952ba7f163c4a11628f55a4df523b3ef60405160405180910390a4505050565b61121d828260405180602001604052806000815250611446565b5050565b61122c848484610fa7565b611238848484846114a1565b611277576040517f08c379a000000000000000000000000000000000000000000000000000000000815260040161126e906121c6565b60405180910390fd5b50505050565b606060405180602001604052806000815250905090565b606060008214156112dc576040518060400160405280600181526020017f3000000000000000000000000000000000000000000000000000000000000000815250905061143c565b600082905060005b6000821461130e5780806112f7906125e8565b915050600a82611307919061249b565b91506112e4565b60008167ffffffffffffffff811115611350577f4e487b7100000000000000000000000000000000000000000000000000000000600052604160045260246000fd5b6040519080825280601f01601f1916602001820160405280156113825781602001600182028036833780820191505090505b5090505b600085146114355760018261139b91906124cc565b9150600a856113aa9190612631565b60306113b69190612445565b60f81b8183815181106113f2577f4e487b7100000000000000000000000000000000000000000000000000000000600052603260045260246000fd5b60200101907effffffffffffffffffffffffffffffffffffffffffffffffffffffffffffff1916908160001a905350600a8561142e919061249b565b9450611386565b8093505050505b919050565b505050565b6114508383611638565b61145d60008484846114a1565b61149c576040517f08c379a0000000000000000000000000000000000000000000000000000000008152600401611493906121c6565b60405180910390fd5b505050565b60006114c28473ffffffffffffffffffffffffffffffffffffffff16611806565b1561162b578373ffffffffffffffffffffffffffffffffffffffff1663150b7a026114eb610e08565b8786866040518563ffffffff1660e01b815260040161150d949392919061213d565b602060405180830381600087803b15801561152757600080fd5b505af192505050801561155857506040513d601f19601f820116820180604052508101906115559190611aba565b60015b6115db573d8060008114611588576040519150601f19603f3d011682016040523d82523d6000602084013e61158d565b606091505b506000815114156115d3576040517f08c379a00000000000000000000000000000000000000000000000000000000081526004016115ca906121c6565b60405180910390fd5b805181602001fd5b63150b7a0260e01b7bffffffffffffffffffffffffffffffffffffffffffffffffffffffff1916817bffffffffffffffffffffffffffffffffffffffffffffffffffffffff191614915050611630565b600190505b949350505050565b600073ffffffffffffffffffffffffffffffffffffffff168273ffffffffffffffffffffffffffffffffffffffff1614156116a8576040517f08c379a000000000000000000000000000000000000000000000000000000000815260040161169f906122c6565b60405180910390fd5b6116b181610cea565b156116f1576040517f08c379a00000000000000000000000000000000000000000000000000000000081526004016116e8906121e6565b60405180910390fd5b6116fd60008383611441565b6001600360008473ffffffffffffffffffffffffffffffffffffffff1673ffffffffffffffffffffffffffffffffffffffff168152602001908152602001600020600082825461174d9190612445565b92505081905550816002600083815260200190815260200160002060006101000a81548173ffffffffffffffffffffffffffffffffffffffff021916908373ffffffffffffffffffffffffffffffffffffffff160217905550808273ffffffffffffffffffffffffffffffffffffffff16600073ffffffffffffffffffffffffffffffffffffffff167fddf252ad1be2c89b69c2b068fc378daa952ba7f163c4a11628f55a4df523b3ef60405160405180910390a45050565b600080823b905060008111915050919050565b600061182c611827846123d2565b6123a1565b90508281526020810184848401111561184457600080fd5b61184f848285612574565b509392505050565b6000813590506118668161272f565b92915050565b60008135905061187b81612746565b92915050565b6000813590506118908161275d565b92915050565b6000815190506118a58161275d565b92915050565b600082601f8301126118bc57600080fd5b81356118cc848260208601611819565b91505092915050565b6000813590506118e481612774565b92915050565b6000602082840312156118fc57600080fd5b600061190a84828501611857565b91505092915050565b6000806040838503121561192657600080fd5b600061193485828601611857565b925050602061194585828601611857565b9150509250929050565b60008060006060848603121561196457600080fd5b600061197286828701611857565b935050602061198386828701611857565b9250506040611994868287016118d5565b9150509250925092565b600080600080608085870312156119b457600080fd5b60006119c287828801611857565b94505060206119d387828801611857565b93505060406119e4878288016118d5565b925050606085013567ffffffffffffffff811115611a0157600080fd5b611a0d878288016118ab565b91505092959194509250565b60008060408385031215611a2c57600080fd5b6000611a3a85828601611857565b9250506020611a4b8582860161186c565b9150509250929050565b60008060408385031215611a6857600080fd5b6000611a7685828601611857565b9250506020611a87858286016118d5565b9150509250929050565b600060208284031215611aa357600080fd5b6000611ab184828501611881565b91505092915050565b600060208284031215611acc57600080fd5b6000611ada84828501611896565b91505092915050565b600060208284031215611af557600080fd5b6000611b03848285016118d5565b91505092915050565b611b1581612500565b82525050565b611b2481612512565b82525050565b6000611b3582612402565b611b3f8185612418565b9350611b4f818560208601612583565b611b588161271e565b840191505092915050565b6000611b6e8261240d565b611b788185612429565b9350611b88818560208601612583565b611b918161271e565b840191505092915050565b6000611ba78261240d565b611bb1818561243a565b9350611bc1818560208601612583565b80840191505092915050565b6000611bda603283612429565b91507f4552433732313a207472616e7366657220746f206e6f6e20455243373231526560008301527f63656976657220696d706c656d656e74657200000000000000000000000000006020830152604082019050919050565b6000611c40601c83612429565b91507f4552433732313a20746f6b656e20616c7265616479206d696e746564000000006000830152602082019050919050565b6000611c80602483612429565b91507f4552433732313a207472616e7366657220746f20746865207a65726f2061646460008301527f72657373000000000000000000000000000000000000000000000000000000006020830152604082019050919050565b6000611ce6601983612429565b91507f4552433732313a20617070726f766520746f2063616c6c6572000000000000006000830152602082019050919050565b6000611d26602c83612429565b91507f4552433732313a206f70657261746f7220717565727920666f72206e6f6e657860008301527f697374656e7420746f6b656e00000000000000000000000000000000000000006020830152604082019050919050565b6000611d8c603883612429565b91507f4552433732313a20617070726f76652063616c6c6572206973206e6f74206f7760008301527f6e6572206e6f7220617070726f76656420666f7220616c6c00000000000000006020830152604082019050919050565b6000611df2602a83612429565b91507f4552433732313a2062616c616e636520717565727920666f7220746865207a6560008301527f726f2061646472657373000000000000000000000000000000000000000000006020830152604082019050919050565b6000611e58602983612429565b91507f4552433732313a206f776e657220717565727920666f72206e6f6e657869737460008301527f656e7420746f6b656e00000000000000000000000000000000000000000000006020830152604082019050919050565b6000611ebe602083612429565b91507f4552433732313a206d696e7420746f20746865207a65726f20616464726573736000830152602082019050919050565b6000611efe602c83612429565b91507f4552433732313a20617070726f76656420717565727920666f72206e6f6e657860008301527f697374656e7420746f6b656e00000000000000000000000000000000000000006020830152604082019050919050565b6000611f64602983612429565b91507f4552433732313a207472616e73666572206f6620746f6b656e2074686174206960008301527f73206e6f74206f776e00000000000000000000000000000000000000000000006020830152604082019050919050565b6000611fca602f83612429565b91507f4552433732314d657461646174613a2055524920717565727920666f72206e6f60008301527f6e6578697374656e7420746f6b656e00000000000000000000000000000000006020830152604082019050919050565b6000612030602183612429565b91507f4552433732313a20617070726f76616c20746f2063757272656e74206f776e6560008301527f72000000000000000000000000000000000000000000000000000000000000006020830152604082019050919050565b6000612096603183612429565b91507f4552433732313a207472616e736665722063616c6c6572206973206e6f74206f60008301527f776e6572206e6f7220617070726f7665640000000000000000000000000000006020830152604082019050919050565b6120f88161256a565b82525050565b600061210a8285611b9c565b91506121168284611b9c565b91508190509392505050565b60006020820190506121376000830184611b0c565b92915050565b60006080820190506121526000830187611b0c565b61215f6020830186611b0c565b61216c60408301856120ef565b818103606083015261217e8184611b2a565b905095945050505050565b600060208201905061219e6000830184611b1b565b92915050565b600060208201905081810360008301526121be8184611b63565b905092915050565b600060208201905081810360008301526121df81611bcd565b9050919050565b600060208201905081810360008301526121ff81611c33565b9050919050565b6000602082019050818103600083015261221f81611c73565b9050919050565b6000602082019050818103600083015261223f81611cd9565b9050919050565b6000602082019050818103600083015261225f81611d19565b9050919050565b6000602082019050818103600083015261227f81611d7f565b9050919050565b6000602082019050818103600083015261229f81611de5565b9050919050565b600060208201905081810360008301526122bf81611e4b565b9050919050565b600060208201905081810360008301526122df81611eb1565b9050919050565b600060208201905081810360008301526122ff81611ef1565b9050919050565b6000602082019050818103600083015261231f81611f57565b9050919050565b6000602082019050818103600083015261233f81611fbd565b9050919050565b6000602082019050818103600083015261235f81612023565b9050919050565b6000602082019050818103600083015261237f81612089565b9050919050565b600060208201905061239b60008301846120ef565b92915050565b6000604051905081810181811067ffffffffffffffff821117156123c8576123c76126ef565b5b8060405250919050565b600067ffffffffffffffff8211156123ed576123ec6126ef565b5b601f19601f8301169050602081019050919050565b600081519050919050565b600081519050919050565b600082825260208201905092915050565b600082825260208201905092915050565b600081905092915050565b60006124508261256a565b915061245b8361256a565b9250827fffffffffffffffffffffffffffffffffffffffffffffffffffffffffffffffff038211156124905761248f612662565b5b828201905092915050565b60006124a68261256a565b91506124b18361256a565b9250826124c1576124c0612691565b5b828204905092915050565b60006124d78261256a565b91506124e28361256a565b9250828210156124f5576124f4612662565b5b828203905092915050565b600061250b8261254a565b9050919050565b60008115159050919050565b60007fffffffff0000000000000000000000000000000000000000000000000000000082169050919050565b600073ffffffffffffffffffffffffffffffffffffffff82169050919050565b6000819050919050565b82818337600083830152505050565b60005b838110156125a1578082015181840152602081019050612586565b838111156125b0576000848401525b50505050565b600060028204905060018216806125ce57607f821691505b602082108114156125e2576125e16126c0565b5b50919050565b60006125f38261256a565b91507fffffffffffffffffffffffffffffffffffffffffffffffffffffffffffffffff82141561262657612625612662565b5b600182019050919050565b600061263c8261256a565b91506126478361256a565b92508261265757612656612691565b5b828206905092915050565b7f4e487b7100000000000000000000000000000000000000000000000000000000600052601160045260246000fd5b7f4e487b7100000000000000000000000000000000000000000000000000000000600052601260045260246000fd5b7f4e487b7100000000000000000000000000000000000000000000000000000000600052602260045260246000fd5b7f4e487b7100000000000000000000000000000000000000000000000000000000600052604160045260246000fd5b6000601f19601f8301169050919050565b61273881612500565b811461274357600080fd5b50565b61274f81612512565b811461275a57600080fd5b50565b6127668161251e565b811461277157600080fd5b50565b61277d8161256a565b811461278857600080fd5b5056fea26469706673582212203d6728c551c7190f41b6abe8c9b4d2f16a4fcf74feab5840c5a6015f87a7ae5764736f6c63430008000033",
  "linkReferences": {},
  "deployedLinkReferences": {}
}