{
  "_format": "hh-sol-artifact-1",
  "contractName": "TestNft",
  "sourceName": "contracts/TestNft.sol",
  "abi": [
    {
      "inputs": [
        {
          "internalType": "string",
          "name": "_name",
          "type": "string"
        },
        {
          "internalType": "string",
          "name": "_symbol",
          "type": "string"
        }
      ],
      "stateMutability": "nonpayable",
      "type": "constructor"
    },
    {
      "anonymous": false,
      "inputs": [
        {
          "indexed": true,
          "internalType": "address",
          "name": "owner",
          "type": "address"
        },
        {
          "indexed": true,
          "internalType": "address",
          "name": "approved",
          "type": "address"
        },
        {
          "indexed": true,
          "internalType": "uint256",
          "name": "tokenId",
          "type": "uint256"
        }
      ],
      "name": "Approval",
      "type": "event"
    },
    {
      "anonymous": false,
      "inputs": [
        {
          "indexed": true,
          "internalType": "address",
          "name": "owner",
          "type": "address"
        },
        {
          "indexed": true,
          "internalType": "address",
          "name": "operator",
          "type": "address"
        },
        {
          "indexed": false,
          "internalType": "bool",
          "name": "approved",
          "type": "bool"
        }
      ],
      "name": "ApprovalForAll",
      "type": "event"
    },
    {
      "anonymous": false,
      "inputs": [
        {
          "indexed": true,
          "internalType": "address",
          "name": "from",
          "type": "address"
        },
        {
          "indexed": true,
          "internalType": "address",
          "name": "to",
          "type": "address"
        },
        {
          "indexed": true,
          "internalType": "uint256",
          "name": "tokenId",
          "type": "uint256"
        }
      ],
      "name": "Transfer",
      "type": "event"
    },
    {
      "inputs": [
        {
          "internalType": "address",
          "name": "to",
          "type": "address"
        },
        {
          "internalType": "uint256",
          "name": "tokenId",
          "type": "uint256"
        }
      ],
      "name": "approve",
      "outputs": [],
      "stateMutability": "nonpayable",
      "type": "function"
    },
    {
      "inputs": [
        {
          "internalType": "address",
          "name": "owner",
          "type": "address"
        }
      ],
      "name": "balanceOf",
      "outputs": [
        {
          "internalType": "uint256",
          "name": "",
          "type": "uint256"
        }
      ],
      "stateMutability": "view",
      "type": "function"
    },
    {
      "inputs": [],
      "name": "collectionName",
      "outputs": [
        {
          "internalType": "string",
          "name": "",
          "type": "string"
        }
      ],
      "stateMutability": "view",
      "type": "function"
    },
    {
      "inputs": [],
      "name": "collectionSymbol",
      "outputs": [
        {
          "internalType": "string",
          "name": "",
          "type": "string"
        }
      ],
      "stateMutability": "view",
      "type": "function"
    },
    {
      "inputs": [
        {
          "internalType": "uint256",
          "name": "tokenId",
          "type": "uint256"
        }
      ],
      "name": "getApproved",
      "outputs": [
        {
          "internalType": "address",
          "name": "",
          "type": "address"
        }
      ],
      "stateMutability": "view",
      "type": "function"
    },
    {
      "inputs": [
        {
          "internalType": "address",
          "name": "owner",
          "type": "address"
        },
        {
          "internalType": "address",
          "name": "operator",
          "type": "address"
        }
      ],
      "name": "isApprovedForAll",
      "outputs": [
        {
          "internalType": "bool",
          "name": "",
          "type": "bool"
        }
      ],
      "stateMutability": "view",
      "type": "function"
    },
    {
      "inputs": [
        {
          "internalType": "uint256",
          "name": "_tokenId",
          "type": "uint256"
        }
      ],
      "name": "mintNewNft",
      "outputs": [],
      "stateMutability": "nonpayable",
      "type": "function"
    },
    {
      "inputs": [],
      "name": "name",
      "outputs": [
        {
          "internalType": "string",
          "name": "",
          "type": "string"
        }
      ],
      "stateMutability": "view",
      "type": "function"
    },
    {
      "inputs": [
        {
          "internalType": "address",
          "name": "_owner",
          "type": "address"
        }
      ],
      "name": "nftsOwned",
      "outputs": [
        {
          "internalType": "uint256[]",
          "name": "",
          "type": "uint256[]"
        }
      ],
      "stateMutability": "view",
      "type": "function"
    },
    {
      "inputs": [
        {
          "internalType": "address",
          "name": "operator",
          "type": "address"
        },
        {
          "internalType": "address",
          "name": "from",
          "type": "address"
        },
        {
          "internalType": "uint256",
          "name": "tokenId",
          "type": "uint256"
        },
        {
          "internalType": "bytes",
          "name": "data",
          "type": "bytes"
        }
      ],
      "name": "onERC721Received",
      "outputs": [
        {
          "internalType": "bytes4",
          "name": "",
          "type": "bytes4"
        }
      ],
      "stateMutability": "nonpayable",
      "type": "function"
    },
    {
      "inputs": [
        {
          "internalType": "uint256",
          "name": "_tokenId",
          "type": "uint256"
        }
      ],
      "name": "ownerOf",
      "outputs": [
        {
          "internalType": "address",
          "name": "",
          "type": "address"
        }
      ],
      "stateMutability": "view",
      "type": "function"
    },
    {
      "inputs": [
        {
          "internalType": "address",
          "name": "from",
          "type": "address"
        },
        {
          "internalType": "address",
          "name": "to",
          "type": "address"
        },
        {
          "internalType": "uint256",
          "name": "tokenId",
          "type": "uint256"
        }
      ],
      "name": "safeTransferFrom",
      "outputs": [],
      "stateMutability": "nonpayable",
      "type": "function"
    },
    {
      "inputs": [
        {
          "internalType": "address",
          "name": "from",
          "type": "address"
        },
        {
          "internalType": "address",
          "name": "to",
          "type": "address"
        },
        {
          "internalType": "uint256",
          "name": "tokenId",
          "type": "uint256"
        },
        {
          "internalType": "bytes",
          "name": "_data",
          "type": "bytes"
        }
      ],
      "name": "safeTransferFrom",
      "outputs": [],
      "stateMutability": "nonpayable",
      "type": "function"
    },
    {
      "inputs": [
        {
          "internalType": "address",
          "name": "operator",
          "type": "address"
        },
        {
          "internalType": "bool",
          "name": "approved",
          "type": "bool"
        }
      ],
      "name": "setApprovalForAll",
      "outputs": [],
      "stateMutability": "nonpayable",
      "type": "function"
    },
    {
      "inputs": [
        {
          "internalType": "bytes4",
          "name": "interfaceId",
          "type": "bytes4"
        }
      ],
      "name": "supportsInterface",
      "outputs": [
        {
          "internalType": "bool",
          "name": "",
          "type": "bool"
        }
      ],
      "stateMutability": "view",
      "type": "function"
    },
    {
      "inputs": [],
      "name": "symbol",
      "outputs": [
        {
          "internalType": "string",
          "name": "",
          "type": "string"
        }
      ],
      "stateMutability": "view",
      "type": "function"
    },
    {
      "inputs": [
        {
          "internalType": "uint256",
          "name": "tokenId",
          "type": "uint256"
        }
      ],
      "name": "tokenURI",
      "outputs": [
        {
          "internalType": "string",
          "name": "",
          "type": "string"
        }
      ],
      "stateMutability": "view",
      "type": "function"
    },
    {
      "inputs": [
        {
          "internalType": "address",
          "name": "_from",
          "type": "address"
        },
        {
          "internalType": "address",
          "name": "_to",
          "type": "address"
        },
        {
          "internalType": "uint256",
          "name": "_tokenId",
          "type": "uint256"
        }
      ],
      "name": "transferFrom",
      "outputs": [],
      "stateMutability": "nonpayable",
      "type": "function"
    }
  ],
  "bytecode": "0x60806040523480156200001157600080fd5b5060405162002fbf38038062002fbf83398181016040528101906200003791906200033d565b81818160009080519060200190620000519291906200021b565b5080600190805190602001906200006a9291906200021b565b5050508160069080519060200190620000859291906200021b565b5080600790805190602001906200009e9291906200021b565b50620000b763150b7a0260e01b620000c060201b60201c565b505050620004e1565b60007f80ac58cd000000000000000000000000000000000000000000000000000000007bffffffffffffffffffffffffffffffffffffffffffffffffffffffff1916827bffffffffffffffffffffffffffffffffffffffffffffffffffffffff191614806200018c57507f5b5e139f000000000000000000000000000000000000000000000000000000007bffffffffffffffffffffffffffffffffffffffffffffffffffffffff1916827bffffffffffffffffffffffffffffffffffffffffffffffffffffffff1916145b80620001aa5750620001a982620001b160201b62000db91760201c565b5b9050919050565b60007f01ffc9a7000000000000000000000000000000000000000000000000000000007bffffffffffffffffffffffffffffffffffffffffffffffffffffffff1916827bffffffffffffffffffffffffffffffffffffffffffffffffffffffff1916149050919050565b82805462000229906200044d565b90600052602060002090601f0160209004810192826200024d576000855562000299565b82601f106200026857805160ff191683800117855562000299565b8280016001018555821562000299579182015b82811115620002985782518255916020019190600101906200027b565b5b509050620002a89190620002ac565b5090565b5b80821115620002c7576000816000905550600101620002ad565b5090565b6000620002e2620002dc84620003e4565b620003b0565b905082815260208101848484011115620002fb57600080fd5b6200030884828562000417565b509392505050565b600082601f8301126200032257600080fd5b815162000334848260208601620002cb565b91505092915050565b600080604083850312156200035157600080fd5b600083015167ffffffffffffffff8111156200036c57600080fd5b6200037a8582860162000310565b925050602083015167ffffffffffffffff8111156200039857600080fd5b620003a68582860162000310565b9150509250929050565b6000604051905081810181811067ffffffffffffffff82111715620003da57620003d9620004b2565b5b8060405250919050565b600067ffffffffffffffff821115620004025762000401620004b2565b5b601f19601f8301169050602081019050919050565b60005b83811015620004375780820151818401526020810190506200041a565b8381111562000447576000848401525b50505050565b600060028204905060018216806200046657607f821691505b602082108114156200047d576200047c62000483565b5b50919050565b7f4e487b7100000000000000000000000000000000000000000000000000000000600052602260045260246000fd5b7f4e487b7100000000000000000000000000000000000000000000000000000000600052604160045260246000fd5b612ace80620004f16000396000f3fe608060405234801561001057600080fd5b50600436106101165760003560e01c80636352211e116100a2578063a22cb46511610071578063a22cb46514610305578063b88d4fde14610321578063c87b56dd1461033d578063e5326ab11461036d578063e985e9c51461038b57610116565b80636352211e1461025757806370a08231146102875780638baafe13146102b757806395d89b41146102e757610116565b8063150b7a02116100e9578063150b7a02146101b557806323b872dd146101e55780632f39352a1461020157806342842e0e1461021f5780634b6d69d31461023b57610116565b806301ffc9a71461011b57806306fdde031461014b578063081812fc14610169578063095ea7b314610199575b600080fd5b61013560048036038101906101309190611c94565b6103bb565b6040516101429190612442565b60405180910390f35b61015361049d565b6040516101609190612478565b60405180910390f35b610183600480360381019061017e9190611ce6565b61052f565b60405161019091906123b9565b60405180910390f35b6101b360048036038101906101ae9190611c58565b6105b4565b005b6101cf60048036038101906101ca9190611b21565b6106cc565b6040516101dc919061245d565b60405180910390f35b6101ff60048036038101906101fa9190611ad2565b6106e1565b005b6102096106f1565b6040516102169190612478565b60405180910390f35b61023960048036038101906102349190611ad2565b610783565b005b61025560048036038101906102509190611ce6565b6107a3565b005b610271600480360381019061026c9190611ce6565b610816565b60405161027e91906123b9565b60405180910390f35b6102a1600480360381019061029c9190611a6d565b610828565b6040516102ae919061265a565b60405180910390f35b6102d160048036038101906102cc9190611a6d565b6108e0565b6040516102de9190612420565b60405180910390f35b6102ef610977565b6040516102fc9190612478565b60405180910390f35b61031f600480360381019061031a9190611c1c565b610a09565b005b61033b60048036038101906103369190611ba1565b610b8a565b005b61035760048036038101906103529190611ce6565b610bec565b6040516103649190612478565b60405180910390f35b610375610c93565b6040516103829190612478565b60405180910390f35b6103a560048036038101906103a09190611a96565b610d25565b6040516103b29190612442565b60405180910390f35b60007f80ac58cd000000000000000000000000000000000000000000000000000000007bffffffffffffffffffffffffffffffffffffffffffffffffffffffff1916827bffffffffffffffffffffffffffffffffffffffffffffffffffffffff1916148061048657507f5b5e139f000000000000000000000000000000000000000000000000000000007bffffffffffffffffffffffffffffffffffffffffffffffffffffffff1916827bffffffffffffffffffffffffffffffffffffffffffffffffffffffff1916145b80610496575061049582610db9565b5b9050919050565b6060600080546104ac906128c3565b80601f01602080910402602001604051908101604052809291908181526020018280546104d8906128c3565b80156105255780601f106104fa57610100808354040283529160200191610525565b820191906000526020600020905b81548152906001019060200180831161050857829003601f168201915b5050505050905090565b600061053a82610e23565b610579576040517f08c379a0000000000000000000000000000000000000000000000000000000008152600401610570906125ba565b60405180910390fd5b6004600083815260200190815260200160002060009054906101000a900473ffffffffffffffffffffffffffffffffffffffff169050919050565b60006105bf82610e8f565b90508073ffffffffffffffffffffffffffffffffffffffff168373ffffffffffffffffffffffffffffffffffffffff161415610630576040517f08c379a00000000000000000000000000000000000000000000000000000000081526004016106279061261a565b60405180910390fd5b8073ffffffffffffffffffffffffffffffffffffffff1661064f610f41565b73ffffffffffffffffffffffffffffffffffffffff16148061067e575061067d81610678610f41565b610d25565b5b6106bd576040517f08c379a00000000000000000000000000000000000000000000000000000000081526004016106b49061253a565b60405180910390fd5b6106c78383610f49565b505050565b600063150b7a0260e01b905095945050505050565b6106ec838383610783565b505050565b606060078054610700906128c3565b80601f016020809104026020016040519081016040528092919081815260200182805461072c906128c3565b80156107795780601f1061074e57610100808354040283529160200191610779565b820191906000526020600020905b81548152906001019060200180831161075c57829003601f168201915b5050505050905090565b61079e83838360405180602001604052806000815250610b8a565b505050565b6107ad3382611002565b600860003373ffffffffffffffffffffffffffffffffffffffff1673ffffffffffffffffffffffffffffffffffffffff16815260200190815260200160002081908060018154018082558091505060019003906000526020600020016000909190919091505550565b600061082182610e8f565b9050919050565b60008073ffffffffffffffffffffffffffffffffffffffff168273ffffffffffffffffffffffffffffffffffffffff161415610899576040517f08c379a00000000000000000000000000000000000000000000000000000000081526004016108909061255a565b60405180910390fd5b600360008373ffffffffffffffffffffffffffffffffffffffff1673ffffffffffffffffffffffffffffffffffffffff168152602001908152602001600020549050919050565b6060600860008373ffffffffffffffffffffffffffffffffffffffff1673ffffffffffffffffffffffffffffffffffffffff16815260200190815260200160002080548060200260200160405190810160405280929190818152602001828054801561096b57602002820191906000526020600020905b815481526020019060010190808311610957575b50505050509050919050565b606060018054610986906128c3565b80601f01602080910402602001604051908101604052809291908181526020018280546109b2906128c3565b80156109ff5780601f106109d4576101008083540402835291602001916109ff565b820191906000526020600020905b8154815290600101906020018083116109e257829003601f168201915b5050505050905090565b610a11610f41565b73ffffffffffffffffffffffffffffffffffffffff168273ffffffffffffffffffffffffffffffffffffffff161415610a7f576040517f08c379a0000000000000000000000000000000000000000000000000000000008152600401610a76906124fa565b60405180910390fd5b8060056000610a8c610f41565b73ffffffffffffffffffffffffffffffffffffffff1673ffffffffffffffffffffffffffffffffffffffff16815260200190815260200160002060008473ffffffffffffffffffffffffffffffffffffffff1673ffffffffffffffffffffffffffffffffffffffff16815260200190815260200160002060006101000a81548160ff0219169083151502179055508173ffffffffffffffffffffffffffffffffffffffff16610b39610f41565b73ffffffffffffffffffffffffffffffffffffffff167f17307eab39ab6107e8899845ad3d59bd9653f200f220920489ca2b5937696c3183604051610b7e9190612442565b60405180910390a35050565b610b9b610b95610f41565b83611020565b610bda576040517f08c379a0000000000000000000000000000000000000000000000000000000008152600401610bd19061263a565b60405180910390fd5b610be6848484846110fe565b50505050565b6060610bf782610e23565b610c36576040517f08c379a0000000000000000000000000000000000000000000000000000000008152600401610c2d906125fa565b60405180910390fd5b6000610c4061115a565b90506000815111610c605760405180602001604052806000815250610c8b565b80610c6a84611171565b604051602001610c7b929190612395565b6040516020818303038152906040525b915050919050565b606060068054610ca2906128c3565b80601f0160208091040260200160405190810160405280929190818152602001828054610cce906128c3565b8015610d1b5780601f10610cf057610100808354040283529160200191610d1b565b820191906000526020600020905b815481529060010190602001808311610cfe57829003601f168201915b5050505050905090565b6000600560008473ffffffffffffffffffffffffffffffffffffffff1673ffffffffffffffffffffffffffffffffffffffff16815260200190815260200160002060008373ffffffffffffffffffffffffffffffffffffffff1673ffffffffffffffffffffffffffffffffffffffff16815260200190815260200160002060009054906101000a900460ff16905092915050565b60007f01ffc9a7000000000000000000000000000000000000000000000000000000007bffffffffffffffffffffffffffffffffffffffffffffffffffffffff1916827bffffffffffffffffffffffffffffffffffffffffffffffffffffffff1916149050919050565b60008073ffffffffffffffffffffffffffffffffffffffff166002600084815260200190815260200160002060009054906101000a900473ffffffffffffffffffffffffffffffffffffffff1673ffffffffffffffffffffffffffffffffffffffff1614159050919050565b6000806002600084815260200190815260200160002060009054906101000a900473ffffffffffffffffffffffffffffffffffffffff169050600073ffffffffffffffffffffffffffffffffffffffff168173ffffffffffffffffffffffffffffffffffffffff161415610f38576040517f08c379a0000000000000000000000000000000000000000000000000000000008152600401610f2f9061257a565b60405180910390fd5b80915050919050565b600033905090565b816004600083815260200190815260200160002060006101000a81548173ffffffffffffffffffffffffffffffffffffffff021916908373ffffffffffffffffffffffffffffffffffffffff160217905550808273ffffffffffffffffffffffffffffffffffffffff16610fbc83610e8f565b73ffffffffffffffffffffffffffffffffffffffff167f8c5be1e5ebec7d5bd14f71427d1e84f3dd0314c0f7b2291e5b200ac8c7c3b92560405160405180910390a45050565b61101c82826040518060200160405280600081525061131e565b5050565b600061102b82610e23565b61106a576040517f08c379a00000000000000000000000000000000000000000000000000000000081526004016110619061251a565b60405180910390fd5b600061107583610e8f565b90508073ffffffffffffffffffffffffffffffffffffffff168473ffffffffffffffffffffffffffffffffffffffff1614806110e457508373ffffffffffffffffffffffffffffffffffffffff166110cc8461052f565b73ffffffffffffffffffffffffffffffffffffffff16145b806110f557506110f48185610d25565b5b91505092915050565b611109848484611379565b611115848484846115d5565b611154576040517f08c379a000000000000000000000000000000000000000000000000000000000815260040161114b9061249a565b60405180910390fd5b50505050565b606060405180602001604052806000815250905090565b606060008214156111b9576040518060400160405280600181526020017f30000000000000000000000000000000000000000000000000000000000000008152509050611319565b600082905060005b600082146111eb5780806111d4906128f5565b915050600a826111e491906127a8565b91506111c1565b60008167ffffffffffffffff81111561122d577f4e487b7100000000000000000000000000000000000000000000000000000000600052604160045260246000fd5b6040519080825280601f01601f19166020018201604052801561125f5781602001600182028036833780820191505090505b5090505b600085146113125760018261127891906127d9565b9150600a85611287919061293e565b60306112939190612752565b60f81b8183815181106112cf577f4e487b7100000000000000000000000000000000000000000000000000000000600052603260045260246000fd5b60200101907effffffffffffffffffffffffffffffffffffffffffffffffffffffffffffff1916908160001a905350600a8561130b91906127a8565b9450611263565b8093505050505b919050565b611328838361176c565b61133560008484846115d5565b611374576040517f08c379a000000000000000000000000000000000000000000000000000000000815260040161136b9061249a565b60405180910390fd5b505050565b8273ffffffffffffffffffffffffffffffffffffffff1661139982610e8f565b73ffffffffffffffffffffffffffffffffffffffff16146113ef576040517f08c379a00000000000000000000000000000000000000000000000000000000081526004016113e6906125da565b60405180910390fd5b600073ffffffffffffffffffffffffffffffffffffffff168273ffffffffffffffffffffffffffffffffffffffff16141561145f576040517f08c379a0000000000000000000000000000000000000000000000000000000008152600401611456906124da565b60405180910390fd5b61146a83838361193a565b611475600082610f49565b6001600360008573ffffffffffffffffffffffffffffffffffffffff1673ffffffffffffffffffffffffffffffffffffffff16815260200190815260200160002060008282546114c591906127d9565b925050819055506001600360008473ffffffffffffffffffffffffffffffffffffffff1673ffffffffffffffffffffffffffffffffffffffff168152602001908152602001600020600082825461151c9190612752565b92505081905550816002600083815260200190815260200160002060006101000a81548173ffffffffffffffffffffffffffffffffffffffff021916908373ffffffffffffffffffffffffffffffffffffffff160217905550808273ffffffffffffffffffffffffffffffffffffffff168473ffffffffffffffffffffffffffffffffffffffff167fddf252ad1be2c89b69c2b068fc378daa952ba7f163c4a11628f55a4df523b3ef60405160405180910390a4505050565b60006115f68473ffffffffffffffffffffffffffffffffffffffff1661193f565b1561175f578373ffffffffffffffffffffffffffffffffffffffff1663150b7a0261161f610f41565b8786866040518563ffffffff1660e01b815260040161164194939291906123d4565b602060405180830381600087803b15801561165b57600080fd5b505af192505050801561168c57506040513d601f19601f820116820180604052508101906116899190611cbd565b60015b61170f573d80600081146116bc576040519150601f19603f3d011682016040523d82523d6000602084013e6116c1565b606091505b50600081511415611707576040517f08c379a00000000000000000000000000000000000000000000000000000000081526004016116fe9061249a565b60405180910390fd5b805181602001fd5b63150b7a0260e01b7bffffffffffffffffffffffffffffffffffffffffffffffffffffffff1916817bffffffffffffffffffffffffffffffffffffffffffffffffffffffff191614915050611764565b600190505b949350505050565b600073ffffffffffffffffffffffffffffffffffffffff168273ffffffffffffffffffffffffffffffffffffffff1614156117dc576040517f08c379a00000000000000000000000000000000000000000000000000000000081526004016117d39061259a565b60405180910390fd5b6117e581610e23565b15611825576040517f08c379a000000000000000000000000000000000000000000000000000000000815260040161181c906124ba565b60405180910390fd5b6118316000838361193a565b6001600360008473ffffffffffffffffffffffffffffffffffffffff1673ffffffffffffffffffffffffffffffffffffffff16815260200190815260200160002060008282546118819190612752565b92505081905550816002600083815260200190815260200160002060006101000a81548173ffffffffffffffffffffffffffffffffffffffff021916908373ffffffffffffffffffffffffffffffffffffffff160217905550808273ffffffffffffffffffffffffffffffffffffffff16600073ffffffffffffffffffffffffffffffffffffffff167fddf252ad1be2c89b69c2b068fc378daa952ba7f163c4a11628f55a4df523b3ef60405160405180910390a45050565b505050565b600080823b905060008111915050919050565b6000611965611960846126a6565b612675565b90508281526020810184848401111561197d57600080fd5b611988848285612881565b509392505050565b60008135905061199f81612a3c565b92915050565b6000813590506119b481612a53565b92915050565b6000813590506119c981612a6a565b92915050565b6000815190506119de81612a6a565b92915050565b60008083601f8401126119f657600080fd5b8235905067ffffffffffffffff811115611a0f57600080fd5b602083019150836001820283011115611a2757600080fd5b9250929050565b600082601f830112611a3f57600080fd5b8135611a4f848260208601611952565b91505092915050565b600081359050611a6781612a81565b92915050565b600060208284031215611a7f57600080fd5b6000611a8d84828501611990565b91505092915050565b60008060408385031215611aa957600080fd5b6000611ab785828601611990565b9250506020611ac885828601611990565b9150509250929050565b600080600060608486031215611ae757600080fd5b6000611af586828701611990565b9350506020611b0686828701611990565b9250506040611b1786828701611a58565b9150509250925092565b600080600080600060808688031215611b3957600080fd5b6000611b4788828901611990565b9550506020611b5888828901611990565b9450506040611b6988828901611a58565b935050606086013567ffffffffffffffff811115611b8657600080fd5b611b92888289016119e4565b92509250509295509295909350565b60008060008060808587031215611bb757600080fd5b6000611bc587828801611990565b9450506020611bd687828801611990565b9350506040611be787828801611a58565b925050606085013567ffffffffffffffff811115611c0457600080fd5b611c1087828801611a2e565b91505092959194509250565b60008060408385031215611c2f57600080fd5b6000611c3d85828601611990565b9250506020611c4e858286016119a5565b9150509250929050565b60008060408385031215611c6b57600080fd5b6000611c7985828601611990565b9250506020611c8a85828601611a58565b9150509250929050565b600060208284031215611ca657600080fd5b6000611cb4848285016119ba565b91505092915050565b600060208284031215611ccf57600080fd5b6000611cdd848285016119cf565b91505092915050565b600060208284031215611cf857600080fd5b6000611d0684828501611a58565b91505092915050565b6000611d1b8383612377565b60208301905092915050565b611d308161280d565b82525050565b6000611d41826126e6565b611d4b8185612714565b9350611d56836126d6565b8060005b83811015611d87578151611d6e8882611d0f565b9750611d7983612707565b925050600181019050611d5a565b5085935050505092915050565b611d9d8161281f565b82525050565b611dac8161282b565b82525050565b6000611dbd826126f1565b611dc78185612725565b9350611dd7818560208601612890565b611de081612a2b565b840191505092915050565b6000611df6826126fc565b611e008185612736565b9350611e10818560208601612890565b611e1981612a2b565b840191505092915050565b6000611e2f826126fc565b611e398185612747565b9350611e49818560208601612890565b80840191505092915050565b6000611e62603283612736565b91507f4552433732313a207472616e7366657220746f206e6f6e20455243373231526560008301527f63656976657220696d706c656d656e74657200000000000000000000000000006020830152604082019050919050565b6000611ec8601c83612736565b91507f4552433732313a20746f6b656e20616c7265616479206d696e746564000000006000830152602082019050919050565b6000611f08602483612736565b91507f4552433732313a207472616e7366657220746f20746865207a65726f2061646460008301527f72657373000000000000000000000000000000000000000000000000000000006020830152604082019050919050565b6000611f6e601983612736565b91507f4552433732313a20617070726f766520746f2063616c6c6572000000000000006000830152602082019050919050565b6000611fae602c83612736565b91507f4552433732313a206f70657261746f7220717565727920666f72206e6f6e657860008301527f697374656e7420746f6b656e00000000000000000000000000000000000000006020830152604082019050919050565b6000612014603883612736565b91507f4552433732313a20617070726f76652063616c6c6572206973206e6f74206f7760008301527f6e6572206e6f7220617070726f76656420666f7220616c6c00000000000000006020830152604082019050919050565b600061207a602a83612736565b91507f4552433732313a2062616c616e636520717565727920666f7220746865207a6560008301527f726f2061646472657373000000000000000000000000000000000000000000006020830152604082019050919050565b60006120e0602983612736565b91507f4552433732313a206f776e657220717565727920666f72206e6f6e657869737460008301527f656e7420746f6b656e00000000000000000000000000000000000000000000006020830152604082019050919050565b6000612146602083612736565b91507f4552433732313a206d696e7420746f20746865207a65726f20616464726573736000830152602082019050919050565b6000612186602c83612736565b91507f4552433732313a20617070726f76656420717565727920666f72206e6f6e657860008301527f697374656e7420746f6b656e00000000000000000000000000000000000000006020830152604082019050919050565b60006121ec602983612736565b91507f4552433732313a207472616e73666572206f6620746f6b656e2074686174206960008301527f73206e6f74206f776e00000000000000000000000000000000000000000000006020830152604082019050919050565b6000612252602f83612736565b91507f4552433732314d657461646174613a2055524920717565727920666f72206e6f60008301527f6e6578697374656e7420746f6b656e00000000000000000000000000000000006020830152604082019050919050565b60006122b8602183612736565b91507f4552433732313a20617070726f76616c20746f2063757272656e74206f776e6560008301527f72000000000000000000000000000000000000000000000000000000000000006020830152604082019050919050565b600061231e603183612736565b91507f4552433732313a207472616e736665722063616c6c6572206973206e6f74206f60008301527f776e6572206e6f7220617070726f7665640000000000000000000000000000006020830152604082019050919050565b61238081612877565b82525050565b61238f81612877565b82525050565b60006123a18285611e24565b91506123ad8284611e24565b91508190509392505050565b60006020820190506123ce6000830184611d27565b92915050565b60006080820190506123e96000830187611d27565b6123f66020830186611d27565b6124036040830185612386565b81810360608301526124158184611db2565b905095945050505050565b6000602082019050818103600083015261243a8184611d36565b905092915050565b60006020820190506124576000830184611d94565b92915050565b60006020820190506124726000830184611da3565b92915050565b600060208201905081810360008301526124928184611deb565b905092915050565b600060208201905081810360008301526124b381611e55565b9050919050565b600060208201905081810360008301526124d381611ebb565b9050919050565b600060208201905081810360008301526124f381611efb565b9050919050565b6000602082019050818103600083015261251381611f61565b9050919050565b6000602082019050818103600083015261253381611fa1565b9050919050565b6000602082019050818103600083015261255381612007565b9050919050565b600060208201905081810360008301526125738161206d565b9050919050565b60006020820190508181036000830152612593816120d3565b9050919050565b600060208201905081810360008301526125b381612139565b9050919050565b600060208201905081810360008301526125d381612179565b9050919050565b600060208201905081810360008301526125f3816121df565b9050919050565b6000602082019050818103600083015261261381612245565b9050919050565b60006020820190508181036000830152612633816122ab565b9050919050565b6000602082019050818103600083015261265381612311565b9050919050565b600060208201905061266f6000830184612386565b92915050565b6000604051905081810181811067ffffffffffffffff8211171561269c5761269b6129fc565b5b8060405250919050565b600067ffffffffffffffff8211156126c1576126c06129fc565b5b601f19601f8301169050602081019050919050565b6000819050602082019050919050565b600081519050919050565b600081519050919050565b600081519050919050565b6000602082019050919050565b600082825260208201905092915050565b600082825260208201905092915050565b600082825260208201905092915050565b600081905092915050565b600061275d82612877565b915061276883612877565b9250827fffffffffffffffffffffffffffffffffffffffffffffffffffffffffffffffff0382111561279d5761279c61296f565b5b828201905092915050565b60006127b382612877565b91506127be83612877565b9250826127ce576127cd61299e565b5b828204905092915050565b60006127e482612877565b91506127ef83612877565b9250828210156128025761280161296f565b5b828203905092915050565b600061281882612857565b9050919050565b60008115159050919050565b60007fffffffff0000000000000000000000000000000000000000000000000000000082169050919050565b600073ffffffffffffffffffffffffffffffffffffffff82169050919050565b6000819050919050565b82818337600083830152505050565b60005b838110156128ae578082015181840152602081019050612893565b838111156128bd576000848401525b50505050565b600060028204905060018216806128db57607f821691505b602082108114156128ef576128ee6129cd565b5b50919050565b600061290082612877565b91507fffffffffffffffffffffffffffffffffffffffffffffffffffffffffffffffff8214156129335761293261296f565b5b600182019050919050565b600061294982612877565b915061295483612877565b9250826129645761296361299e565b5b828206905092915050565b7f4e487b7100000000000000000000000000000000000000000000000000000000600052601160045260246000fd5b7f4e487b7100000000000000000000000000000000000000000000000000000000600052601260045260246000fd5b7f4e487b7100000000000000000000000000000000000000000000000000000000600052602260045260246000fd5b7f4e487b7100000000000000000000000000000000000000000000000000000000600052604160045260246000fd5b6000601f19601f8301169050919050565b612a458161280d565b8114612a5057600080fd5b50565b612a5c8161281f565b8114612a6757600080fd5b50565b612a738161282b565b8114612a7e57600080fd5b50565b612a8a81612877565b8114612a9557600080fd5b5056fea26469706673582212202e3d295bd81b5d4035b0bdefaefebf26161efb284d54bb8f77524bb6ce6f877a64736f6c63430008000033",
  "linkReferences": {},
  "deployedLinkReferences": {}
}