{
  "_format": "hh-sol-artifact-1",
  "contractName": "ApeLendNft",
  "sourceName": "contracts/ApeLendNft.sol",
  "abi": [
    {
      "inputs": [
        {
          "internalType": "string",
          "name": "_name",
          "type": "string"
        },
        {
          "internalType": "string",
          "name": "_symbol",
          "type": "string"
        }
      ],
      "stateMutability": "nonpayable",
      "type": "constructor"
    },
    {
      "anonymous": false,
      "inputs": [
        {
          "indexed": true,
          "internalType": "address",
          "name": "owner",
          "type": "address"
        },
        {
          "indexed": true,
          "internalType": "address",
          "name": "approved",
          "type": "address"
        },
        {
          "indexed": true,
          "internalType": "uint256",
          "name": "tokenId",
          "type": "uint256"
        }
      ],
      "name": "Approval",
      "type": "event"
    },
    {
      "anonymous": false,
      "inputs": [
        {
          "indexed": true,
          "internalType": "address",
          "name": "owner",
          "type": "address"
        },
        {
          "indexed": true,
          "internalType": "address",
          "name": "operator",
          "type": "address"
        },
        {
          "indexed": false,
          "internalType": "bool",
          "name": "approved",
          "type": "bool"
        }
      ],
      "name": "ApprovalForAll",
      "type": "event"
    },
    {
      "anonymous": false,
      "inputs": [
        {
          "indexed": true,
          "internalType": "address",
          "name": "from",
          "type": "address"
        },
        {
          "indexed": true,
          "internalType": "address",
          "name": "to",
          "type": "address"
        },
        {
          "indexed": true,
          "internalType": "uint256",
          "name": "tokenId",
          "type": "uint256"
        }
      ],
      "name": "Transfer",
      "type": "event"
    },
    {
      "inputs": [
        {
          "internalType": "address",
          "name": "to",
          "type": "address"
        },
        {
          "internalType": "uint256",
          "name": "tokenId",
          "type": "uint256"
        }
      ],
      "name": "approve",
      "outputs": [],
      "stateMutability": "nonpayable",
      "type": "function"
    },
    {
      "inputs": [
        {
          "internalType": "bool",
          "name": "_approved",
          "type": "bool"
        }
      ],
      "name": "approveProtocolAddress",
      "outputs": [],
      "stateMutability": "nonpayable",
      "type": "function"
    },
    {
      "inputs": [
        {
          "internalType": "address",
          "name": "owner",
          "type": "address"
        }
      ],
      "name": "balanceOf",
      "outputs": [
        {
          "internalType": "uint256",
          "name": "",
          "type": "uint256"
        }
      ],
      "stateMutability": "view",
      "type": "function"
    },
    {
      "inputs": [
        {
          "internalType": "uint256",
          "name": "tokenId",
          "type": "uint256"
        }
      ],
      "name": "getApproved",
      "outputs": [
        {
          "internalType": "address",
          "name": "",
          "type": "address"
        }
      ],
      "stateMutability": "view",
      "type": "function"
    },
    {
      "inputs": [
        {
          "internalType": "address",
          "name": "owner",
          "type": "address"
        },
        {
          "internalType": "address",
          "name": "operator",
          "type": "address"
        }
      ],
      "name": "isApprovedForAll",
      "outputs": [
        {
          "internalType": "bool",
          "name": "",
          "type": "bool"
        }
      ],
      "stateMutability": "view",
      "type": "function"
    },
    {
      "inputs": [
        {
          "internalType": "uint256",
          "name": "_tokenId",
          "type": "uint256"
        }
      ],
      "name": "mintNewNft",
      "outputs": [],
      "stateMutability": "nonpayable",
      "type": "function"
    },
    {
      "inputs": [],
      "name": "name",
      "outputs": [
        {
          "internalType": "string",
          "name": "",
          "type": "string"
        }
      ],
      "stateMutability": "view",
      "type": "function"
    },
    {
      "inputs": [
        {
          "internalType": "address",
          "name": "_owner",
          "type": "address"
        }
      ],
      "name": "nftsOwned",
      "outputs": [
        {
          "internalType": "uint256[]",
          "name": "",
          "type": "uint256[]"
        }
      ],
      "stateMutability": "view",
      "type": "function"
    },
    {
      "inputs": [
        {
          "internalType": "address",
          "name": "",
          "type": "address"
        },
        {
          "internalType": "address",
          "name": "",
          "type": "address"
        },
        {
          "internalType": "uint256",
          "name": "",
          "type": "uint256"
        },
        {
          "internalType": "bytes",
          "name": "",
          "type": "bytes"
        }
      ],
      "name": "onERC721Received",
      "outputs": [
        {
          "internalType": "bytes4",
          "name": "",
          "type": "bytes4"
        }
      ],
      "stateMutability": "nonpayable",
      "type": "function"
    },
    {
      "inputs": [
        {
          "internalType": "uint256",
          "name": "tokenId",
          "type": "uint256"
        }
      ],
      "name": "ownerOf",
      "outputs": [
        {
          "internalType": "address",
          "name": "",
          "type": "address"
        }
      ],
      "stateMutability": "view",
      "type": "function"
    },
    {
      "inputs": [
        {
          "internalType": "address",
          "name": "from",
          "type": "address"
        },
        {
          "internalType": "address",
          "name": "to",
          "type": "address"
        },
        {
          "internalType": "uint256",
          "name": "tokenId",
          "type": "uint256"
        }
      ],
      "name": "safeTransferFrom",
      "outputs": [],
      "stateMutability": "nonpayable",
      "type": "function"
    },
    {
      "inputs": [
        {
          "internalType": "address",
          "name": "from",
          "type": "address"
        },
        {
          "internalType": "address",
          "name": "to",
          "type": "address"
        },
        {
          "internalType": "uint256",
          "name": "tokenId",
          "type": "uint256"
        },
        {
          "internalType": "bytes",
          "name": "_data",
          "type": "bytes"
        }
      ],
      "name": "safeTransferFrom",
      "outputs": [],
      "stateMutability": "nonpayable",
      "type": "function"
    },
    {
      "inputs": [
        {
          "internalType": "address",
          "name": "operator",
          "type": "address"
        },
        {
          "internalType": "bool",
          "name": "approved",
          "type": "bool"
        }
      ],
      "name": "setApprovalForAll",
      "outputs": [],
      "stateMutability": "nonpayable",
      "type": "function"
    },
    {
      "inputs": [
        {
          "internalType": "bytes4",
          "name": "interfaceId",
          "type": "bytes4"
        }
      ],
      "name": "supportsInterface",
      "outputs": [
        {
          "internalType": "bool",
          "name": "",
          "type": "bool"
        }
      ],
      "stateMutability": "view",
      "type": "function"
    },
    {
      "inputs": [],
      "name": "symbol",
      "outputs": [
        {
          "internalType": "string",
          "name": "",
          "type": "string"
        }
      ],
      "stateMutability": "view",
      "type": "function"
    },
    {
      "inputs": [
        {
          "internalType": "uint256",
          "name": "tokenId",
          "type": "uint256"
        }
      ],
      "name": "tokenURI",
      "outputs": [
        {
          "internalType": "string",
          "name": "",
          "type": "string"
        }
      ],
      "stateMutability": "view",
      "type": "function"
    },
    {
      "inputs": [
        {
          "internalType": "address",
          "name": "from",
          "type": "address"
        },
        {
          "internalType": "address",
          "name": "to",
          "type": "address"
        },
        {
          "internalType": "uint256",
          "name": "tokenId",
          "type": "uint256"
        }
      ],
      "name": "transferFrom",
      "outputs": [],
      "stateMutability": "nonpayable",
      "type": "function"
    }
  ],
  "bytecode": "0x60806040523480156200001157600080fd5b50604051620030df380380620030df833981810160405281019062000037919062000349565b81818160009080519060200190620000519291906200021b565b5080600190805190602001906200006a9291906200021b565b5050508160069080519060200190620000859291906200021b565b5080600790805190602001906200009e9291906200021b565b50620000b763150b7a0260e01b620000c060201b60201c565b50505062000552565b60007f80ac58cd000000000000000000000000000000000000000000000000000000007bffffffffffffffffffffffffffffffffffffffffffffffffffffffff1916827bffffffffffffffffffffffffffffffffffffffffffffffffffffffff191614806200018c57507f5b5e139f000000000000000000000000000000000000000000000000000000007bffffffffffffffffffffffffffffffffffffffffffffffffffffffff1916827bffffffffffffffffffffffffffffffffffffffffffffffffffffffff1916145b80620001aa5750620001a982620001b160201b62000d9c1760201c565b5b9050919050565b60007f01ffc9a7000000000000000000000000000000000000000000000000000000007bffffffffffffffffffffffffffffffffffffffffffffffffffffffff1916827bffffffffffffffffffffffffffffffffffffffffffffffffffffffff1916149050919050565b828054620002299062000463565b90600052602060002090601f0160209004810192826200024d576000855562000299565b82601f106200026857805160ff191683800117855562000299565b8280016001018555821562000299579182015b82811115620002985782518255916020019190600101906200027b565b5b509050620002a89190620002ac565b5090565b5b80821115620002c7576000816000905550600101620002ad565b5090565b6000620002e2620002dc84620003f7565b620003ce565b90508281526020810184848401111562000301576200030062000532565b5b6200030e8482856200042d565b509392505050565b600082601f8301126200032e576200032d6200052d565b5b815162000340848260208601620002cb565b91505092915050565b600080604083850312156200036357620003626200053c565b5b600083015167ffffffffffffffff81111562000384576200038362000537565b5b620003928582860162000316565b925050602083015167ffffffffffffffff811115620003b657620003b562000537565b5b620003c48582860162000316565b9150509250929050565b6000620003da620003ed565b9050620003e8828262000499565b919050565b6000604051905090565b600067ffffffffffffffff821115620004155762000414620004fe565b5b620004208262000541565b9050602081019050919050565b60005b838110156200044d57808201518184015260208101905062000430565b838111156200045d576000848401525b50505050565b600060028204905060018216806200047c57607f821691505b60208210811415620004935762000492620004cf565b5b50919050565b620004a48262000541565b810181811067ffffffffffffffff82111715620004c657620004c5620004fe565b5b80604052505050565b7f4e487b7100000000000000000000000000000000000000000000000000000000600052602260045260246000fd5b7f4e487b7100000000000000000000000000000000000000000000000000000000600052604160045260246000fd5b600080fd5b600080fd5b600080fd5b600080fd5b6000601f19601f8301169050919050565b612b7d80620005626000396000f3fe608060405234801561001057600080fd5b506004361061010b5760003560e01c80636352211e116100a257806395d89b411161007157806395d89b41146102da578063a22cb465146102f8578063b88d4fde14610314578063c87b56dd14610330578063e985e9c5146103605761010b565b80636352211e1461022e57806366e15b551461025e57806370a082311461027a5780638baafe13146102aa5761010b565b8063150b7a02116100de578063150b7a02146101aa57806323b872dd146101da57806342842e0e146101f65780634b6d69d3146102125761010b565b806301ffc9a71461011057806306fdde0314610140578063081812fc1461015e578063095ea7b31461018e575b600080fd5b61012a60048036038101906101259190611bc5565b610390565b6040516101379190612047565b60405180910390f35b610148610472565b604051610155919061207d565b60405180910390f35b61017860048036038101906101739190611c1f565b610504565b6040516101859190611fbe565b60405180910390f35b6101a860048036038101906101a39190611b58565b610589565b005b6101c460048036038101906101bf9190611a95565b6106a1565b6040516101d19190612062565b60405180910390f35b6101f460048036038101906101ef9190611a42565b6106b5565b005b610210600480360381019061020b9190611a42565b610715565b005b61022c60048036038101906102279190611c1f565b610757565b005b61024860048036038101906102439190611c1f565b6107ca565b6040516102559190611fbe565b60405180910390f35b61027860048036038101906102739190611b98565b61087c565b005b610294600480360381019061028f91906119d5565b61089d565b6040516102a1919061228f565b60405180910390f35b6102c460048036038101906102bf91906119d5565b610955565b6040516102d19190612025565b60405180910390f35b6102e26109ec565b6040516102ef919061207d565b60405180910390f35b610312600480360381019061030d9190611b18565b610a7e565b005b61032e60048036038101906103299190611a95565b610bff565b005b61034a60048036038101906103459190611c1f565b610c61565b604051610357919061207d565b60405180910390f35b61037a60048036038101906103759190611a02565b610d08565b6040516103879190612047565b60405180910390f35b60007f80ac58cd000000000000000000000000000000000000000000000000000000007bffffffffffffffffffffffffffffffffffffffffffffffffffffffff1916827bffffffffffffffffffffffffffffffffffffffffffffffffffffffff1916148061045b57507f5b5e139f000000000000000000000000000000000000000000000000000000007bffffffffffffffffffffffffffffffffffffffffffffffffffffffff1916827bffffffffffffffffffffffffffffffffffffffffffffffffffffffff1916145b8061046b575061046a82610d9c565b5b9050919050565b606060008054610481906124ed565b80601f01602080910402602001604051908101604052809291908181526020018280546104ad906124ed565b80156104fa5780601f106104cf576101008083540402835291602001916104fa565b820191906000526020600020905b8154815290600101906020018083116104dd57829003601f168201915b5050505050905090565b600061050f82610e06565b61054e576040517f08c379a0000000000000000000000000000000000000000000000000000000008152600401610545906121ef565b60405180910390fd5b6004600083815260200190815260200160002060009054906101000a900473ffffffffffffffffffffffffffffffffffffffff169050919050565b6000610594826107ca565b90508073ffffffffffffffffffffffffffffffffffffffff168373ffffffffffffffffffffffffffffffffffffffff161415610605576040517f08c379a00000000000000000000000000000000000000000000000000000000081526004016105fc9061224f565b60405180910390fd5b8073ffffffffffffffffffffffffffffffffffffffff16610624610e72565b73ffffffffffffffffffffffffffffffffffffffff16148061065357506106528161064d610e72565b610d08565b5b610692576040517f08c379a00000000000000000000000000000000000000000000000000000000081526004016106899061216f565b60405180910390fd5b61069c8383610e7a565b505050565b600063150b7a0260e01b9050949350505050565b6106c66106c0610e72565b82610f33565b610705576040517f08c379a00000000000000000000000000000000000000000000000000000000081526004016106fc9061226f565b60405180910390fd5b610710838383611011565b505050565b610737604051806060016040528060318152602001612b17603191393361126d565b61075283838360405180602001604052806000815250610bff565b505050565b6107613382611309565b600860003373ffffffffffffffffffffffffffffffffffffffff1673ffffffffffffffffffffffffffffffffffffffff16815260200190815260200160002081908060018154018082558091505060019003906000526020600020016000909190919091505550565b6000806002600084815260200190815260200160002060009054906101000a900473ffffffffffffffffffffffffffffffffffffffff169050600073ffffffffffffffffffffffffffffffffffffffff168173ffffffffffffffffffffffffffffffffffffffff161415610873576040517f08c379a000000000000000000000000000000000000000000000000000000000815260040161086a906121af565b60405180910390fd5b80915050919050565b61089a73e7f1725e7734ce288f8367e1bb143e90bb3f051282610a7e565b50565b60008073ffffffffffffffffffffffffffffffffffffffff168273ffffffffffffffffffffffffffffffffffffffff16141561090e576040517f08c379a00000000000000000000000000000000000000000000000000000000081526004016109059061218f565b60405180910390fd5b600360008373ffffffffffffffffffffffffffffffffffffffff1673ffffffffffffffffffffffffffffffffffffffff168152602001908152602001600020549050919050565b6060600860008373ffffffffffffffffffffffffffffffffffffffff1673ffffffffffffffffffffffffffffffffffffffff1681526020019081526020016000208054806020026020016040519081016040528092919081815260200182805480156109e057602002820191906000526020600020905b8154815260200190600101908083116109cc575b50505050509050919050565b6060600180546109fb906124ed565b80601f0160208091040260200160405190810160405280929190818152602001828054610a27906124ed565b8015610a745780601f10610a4957610100808354040283529160200191610a74565b820191906000526020600020905b815481529060010190602001808311610a5757829003601f168201915b5050505050905090565b610a86610e72565b73ffffffffffffffffffffffffffffffffffffffff168273ffffffffffffffffffffffffffffffffffffffff161415610af4576040517f08c379a0000000000000000000000000000000000000000000000000000000008152600401610aeb9061212f565b60405180910390fd5b8060056000610b01610e72565b73ffffffffffffffffffffffffffffffffffffffff1673ffffffffffffffffffffffffffffffffffffffff16815260200190815260200160002060008473ffffffffffffffffffffffffffffffffffffffff1673ffffffffffffffffffffffffffffffffffffffff16815260200190815260200160002060006101000a81548160ff0219169083151502179055508173ffffffffffffffffffffffffffffffffffffffff16610bae610e72565b73ffffffffffffffffffffffffffffffffffffffff167f17307eab39ab6107e8899845ad3d59bd9653f200f220920489ca2b5937696c3183604051610bf39190612047565b60405180910390a35050565b610c10610c0a610e72565b83610f33565b610c4f576040517f08c379a0000000000000000000000000000000000000000000000000000000008152600401610c469061226f565b60405180910390fd5b610c5b84848484611327565b50505050565b6060610c6c82610e06565b610cab576040517f08c379a0000000000000000000000000000000000000000000000000000000008152600401610ca29061222f565b60405180910390fd5b6000610cb5611383565b90506000815111610cd55760405180602001604052806000815250610d00565b80610cdf8461139a565b604051602001610cf0929190611f9a565b6040516020818303038152906040525b915050919050565b6000600560008473ffffffffffffffffffffffffffffffffffffffff1673ffffffffffffffffffffffffffffffffffffffff16815260200190815260200160002060008373ffffffffffffffffffffffffffffffffffffffff1673ffffffffffffffffffffffffffffffffffffffff16815260200190815260200160002060009054906101000a900460ff16905092915050565b60007f01ffc9a7000000000000000000000000000000000000000000000000000000007bffffffffffffffffffffffffffffffffffffffffffffffffffffffff1916827bffffffffffffffffffffffffffffffffffffffffffffffffffffffff1916149050919050565b60008073ffffffffffffffffffffffffffffffffffffffff166002600084815260200190815260200160002060009054906101000a900473ffffffffffffffffffffffffffffffffffffffff1673ffffffffffffffffffffffffffffffffffffffff1614159050919050565b600033905090565b816004600083815260200190815260200160002060006101000a81548173ffffffffffffffffffffffffffffffffffffffff021916908373ffffffffffffffffffffffffffffffffffffffff160217905550808273ffffffffffffffffffffffffffffffffffffffff16610eed836107ca565b73ffffffffffffffffffffffffffffffffffffffff167f8c5be1e5ebec7d5bd14f71427d1e84f3dd0314c0f7b2291e5b200ac8c7c3b92560405160405180910390a45050565b6000610f3e82610e06565b610f7d576040517f08c379a0000000000000000000000000000000000000000000000000000000008152600401610f749061214f565b60405180910390fd5b6000610f88836107ca565b90508073ffffffffffffffffffffffffffffffffffffffff168473ffffffffffffffffffffffffffffffffffffffff161480610ff757508373ffffffffffffffffffffffffffffffffffffffff16610fdf84610504565b73ffffffffffffffffffffffffffffffffffffffff16145b8061100857506110078185610d08565b5b91505092915050565b8273ffffffffffffffffffffffffffffffffffffffff16611031826107ca565b73ffffffffffffffffffffffffffffffffffffffff1614611087576040517f08c379a000000000000000000000000000000000000000000000000000000000815260040161107e9061220f565b60405180910390fd5b600073ffffffffffffffffffffffffffffffffffffffff168273ffffffffffffffffffffffffffffffffffffffff1614156110f7576040517f08c379a00000000000000000000000000000000000000000000000000000000081526004016110ee9061210f565b60405180910390fd5b6111028383836114fb565b61110d600082610e7a565b6001600360008573ffffffffffffffffffffffffffffffffffffffff1673ffffffffffffffffffffffffffffffffffffffff168152602001908152602001600020600082825461115d9190612403565b925050819055506001600360008473ffffffffffffffffffffffffffffffffffffffff1673ffffffffffffffffffffffffffffffffffffffff16815260200190815260200160002060008282546111b4919061237c565b92505081905550816002600083815260200190815260200160002060006101000a81548173ffffffffffffffffffffffffffffffffffffffff021916908373ffffffffffffffffffffffffffffffffffffffff160217905550808273ffffffffffffffffffffffffffffffffffffffff168473ffffffffffffffffffffffffffffffffffffffff167fddf252ad1be2c89b69c2b068fc378daa952ba7f163c4a11628f55a4df523b3ef60405160405180910390a4505050565b611305828260405160240161128392919061209f565b6040516020818303038152906040527f319af333000000000000000000000000000000000000000000000000000000007bffffffffffffffffffffffffffffffffffffffffffffffffffffffff19166020820180517bffffffffffffffffffffffffffffffffffffffffffffffffffffffff8381831617835250505050611500565b5050565b611323828260405180602001604052806000815250611529565b5050565b611332848484611011565b61133e84848484611584565b61137d576040517f08c379a0000000000000000000000000000000000000000000000000000000008152600401611374906120cf565b60405180910390fd5b50505050565b606060405180602001604052806000815250905090565b606060008214156113e2576040518060400160405280600181526020017f300000000000000000000000000000000000000000000000000000000000000081525090506114f6565b600082905060005b600082146114145780806113fd90612550565b915050600a8261140d91906123d2565b91506113ea565b60008167ffffffffffffffff8111156114305761142f612686565b5b6040519080825280601f01601f1916602001820160405280156114625781602001600182028036833780820191505090505b5090505b600085146114ef5760018261147b9190612403565b9150600a8561148a9190612599565b6030611496919061237c565b60f81b8183815181106114ac576114ab612657565b5b60200101907effffffffffffffffffffffffffffffffffffffffffffffffffffffffffffff1916908160001a905350600a856114e891906123d2565b9450611466565b8093505050505b919050565b505050565b60008151905060006a636f6e736f6c652e6c6f679050602083016000808483855afa5050505050565b611533838361171b565b6115406000848484611584565b61157f576040517f08c379a0000000000000000000000000000000000000000000000000000000008152600401611576906120cf565b60405180910390fd5b505050565b60006115a58473ffffffffffffffffffffffffffffffffffffffff166118e9565b1561170e578373ffffffffffffffffffffffffffffffffffffffff1663150b7a026115ce610e72565b8786866040518563ffffffff1660e01b81526004016115f09493929190611fd9565b602060405180830381600087803b15801561160a57600080fd5b505af192505050801561163b57506040513d601f19601f820116820180604052508101906116389190611bf2565b60015b6116be573d806000811461166b576040519150601f19603f3d011682016040523d82523d6000602084013e611670565b606091505b506000815114156116b6576040517f08c379a00000000000000000000000000000000000000000000000000000000081526004016116ad906120cf565b60405180910390fd5b805181602001fd5b63150b7a0260e01b7bffffffffffffffffffffffffffffffffffffffffffffffffffffffff1916817bffffffffffffffffffffffffffffffffffffffffffffffffffffffff191614915050611713565b600190505b949350505050565b600073ffffffffffffffffffffffffffffffffffffffff168273ffffffffffffffffffffffffffffffffffffffff16141561178b576040517f08c379a0000000000000000000000000000000000000000000000000000000008152600401611782906121cf565b60405180910390fd5b61179481610e06565b156117d4576040517f08c379a00000000000000000000000000000000000000000000000000000000081526004016117cb906120ef565b60405180910390fd5b6117e0600083836114fb565b6001600360008473ffffffffffffffffffffffffffffffffffffffff1673ffffffffffffffffffffffffffffffffffffffff1681526020019081526020016000206000828254611830919061237c565b92505081905550816002600083815260200190815260200160002060006101000a81548173ffffffffffffffffffffffffffffffffffffffff021916908373ffffffffffffffffffffffffffffffffffffffff160217905550808273ffffffffffffffffffffffffffffffffffffffff16600073ffffffffffffffffffffffffffffffffffffffff167fddf252ad1be2c89b69c2b068fc378daa952ba7f163c4a11628f55a4df523b3ef60405160405180910390a45050565b600080823b905060008111915050919050565b600061190f61190a846122cf565b6122aa565b90508281526020810184848401111561192b5761192a6126ba565b5b6119368482856124ab565b509392505050565b60008135905061194d81612aba565b92915050565b60008135905061196281612ad1565b92915050565b60008135905061197781612ae8565b92915050565b60008151905061198c81612ae8565b92915050565b600082601f8301126119a7576119a66126b5565b5b81356119b78482602086016118fc565b91505092915050565b6000813590506119cf81612aff565b92915050565b6000602082840312156119eb576119ea6126c4565b5b60006119f98482850161193e565b91505092915050565b60008060408385031215611a1957611a186126c4565b5b6000611a278582860161193e565b9250506020611a388582860161193e565b9150509250929050565b600080600060608486031215611a5b57611a5a6126c4565b5b6000611a698682870161193e565b9350506020611a7a8682870161193e565b9250506040611a8b868287016119c0565b9150509250925092565b60008060008060808587031215611aaf57611aae6126c4565b5b6000611abd8782880161193e565b9450506020611ace8782880161193e565b9350506040611adf878288016119c0565b925050606085013567ffffffffffffffff811115611b0057611aff6126bf565b5b611b0c87828801611992565b91505092959194509250565b60008060408385031215611b2f57611b2e6126c4565b5b6000611b3d8582860161193e565b9250506020611b4e85828601611953565b9150509250929050565b60008060408385031215611b6f57611b6e6126c4565b5b6000611b7d8582860161193e565b9250506020611b8e858286016119c0565b9150509250929050565b600060208284031215611bae57611bad6126c4565b5b6000611bbc84828501611953565b91505092915050565b600060208284031215611bdb57611bda6126c4565b5b6000611be984828501611968565b91505092915050565b600060208284031215611c0857611c076126c4565b5b6000611c168482850161197d565b91505092915050565b600060208284031215611c3557611c346126c4565b5b6000611c43848285016119c0565b91505092915050565b6000611c588383611f7c565b60208301905092915050565b611c6d81612437565b82525050565b6000611c7e82612310565b611c88818561233e565b9350611c9383612300565b8060005b83811015611cc4578151611cab8882611c4c565b9750611cb683612331565b925050600181019050611c97565b5085935050505092915050565b611cda81612449565b82525050565b611ce981612455565b82525050565b6000611cfa8261231b565b611d04818561234f565b9350611d148185602086016124ba565b611d1d816126c9565b840191505092915050565b6000611d3382612326565b611d3d8185612360565b9350611d4d8185602086016124ba565b611d56816126c9565b840191505092915050565b6000611d6c82612326565b611d768185612371565b9350611d868185602086016124ba565b80840191505092915050565b6000611d9f603283612360565b9150611daa826126da565b604082019050919050565b6000611dc2601c83612360565b9150611dcd82612729565b602082019050919050565b6000611de5602483612360565b9150611df082612752565b604082019050919050565b6000611e08601983612360565b9150611e13826127a1565b602082019050919050565b6000611e2b602c83612360565b9150611e36826127ca565b604082019050919050565b6000611e4e603883612360565b9150611e5982612819565b604082019050919050565b6000611e71602a83612360565b9150611e7c82612868565b604082019050919050565b6000611e94602983612360565b9150611e9f826128b7565b604082019050919050565b6000611eb7602083612360565b9150611ec282612906565b602082019050919050565b6000611eda602c83612360565b9150611ee58261292f565b604082019050919050565b6000611efd602983612360565b9150611f088261297e565b604082019050919050565b6000611f20602f83612360565b9150611f2b826129cd565b604082019050919050565b6000611f43602183612360565b9150611f4e82612a1c565b604082019050919050565b6000611f66603183612360565b9150611f7182612a6b565b604082019050919050565b611f85816124a1565b82525050565b611f94816124a1565b82525050565b6000611fa68285611d61565b9150611fb28284611d61565b91508190509392505050565b6000602082019050611fd36000830184611c64565b92915050565b6000608082019050611fee6000830187611c64565b611ffb6020830186611c64565b6120086040830185611f8b565b818103606083015261201a8184611cef565b905095945050505050565b6000602082019050818103600083015261203f8184611c73565b905092915050565b600060208201905061205c6000830184611cd1565b92915050565b60006020820190506120776000830184611ce0565b92915050565b600060208201905081810360008301526120978184611d28565b905092915050565b600060408201905081810360008301526120b98185611d28565b90506120c86020830184611c64565b9392505050565b600060208201905081810360008301526120e881611d92565b9050919050565b6000602082019050818103600083015261210881611db5565b9050919050565b6000602082019050818103600083015261212881611dd8565b9050919050565b6000602082019050818103600083015261214881611dfb565b9050919050565b6000602082019050818103600083015261216881611e1e565b9050919050565b6000602082019050818103600083015261218881611e41565b9050919050565b600060208201905081810360008301526121a881611e64565b9050919050565b600060208201905081810360008301526121c881611e87565b9050919050565b600060208201905081810360008301526121e881611eaa565b9050919050565b6000602082019050818103600083015261220881611ecd565b9050919050565b6000602082019050818103600083015261222881611ef0565b9050919050565b6000602082019050818103600083015261224881611f13565b9050919050565b6000602082019050818103600083015261226881611f36565b9050919050565b6000602082019050818103600083015261228881611f59565b9050919050565b60006020820190506122a46000830184611f8b565b92915050565b60006122b46122c5565b90506122c0828261251f565b919050565b6000604051905090565b600067ffffffffffffffff8211156122ea576122e9612686565b5b6122f3826126c9565b9050602081019050919050565b6000819050602082019050919050565b600081519050919050565b600081519050919050565b600081519050919050565b6000602082019050919050565b600082825260208201905092915050565b600082825260208201905092915050565b600082825260208201905092915050565b600081905092915050565b6000612387826124a1565b9150612392836124a1565b9250827fffffffffffffffffffffffffffffffffffffffffffffffffffffffffffffffff038211156123c7576123c66125ca565b5b828201905092915050565b60006123dd826124a1565b91506123e8836124a1565b9250826123f8576123f76125f9565b5b828204905092915050565b600061240e826124a1565b9150612419836124a1565b92508282101561242c5761242b6125ca565b5b828203905092915050565b600061244282612481565b9050919050565b60008115159050919050565b60007fffffffff0000000000000000000000000000000000000000000000000000000082169050919050565b600073ffffffffffffffffffffffffffffffffffffffff82169050919050565b6000819050919050565b82818337600083830152505050565b60005b838110156124d85780820151818401526020810190506124bd565b838111156124e7576000848401525b50505050565b6000600282049050600182168061250557607f821691505b6020821081141561251957612518612628565b5b50919050565b612528826126c9565b810181811067ffffffffffffffff8211171561254757612546612686565b5b80604052505050565b600061255b826124a1565b91507fffffffffffffffffffffffffffffffffffffffffffffffffffffffffffffffff82141561258e5761258d6125ca565b5b600182019050919050565b60006125a4826124a1565b91506125af836124a1565b9250826125bf576125be6125f9565b5b828206905092915050565b7f4e487b7100000000000000000000000000000000000000000000000000000000600052601160045260246000fd5b7f4e487b7100000000000000000000000000000000000000000000000000000000600052601260045260246000fd5b7f4e487b7100000000000000000000000000000000000000000000000000000000600052602260045260246000fd5b7f4e487b7100000000000000000000000000000000000000000000000000000000600052603260045260246000fd5b7f4e487b7100000000000000000000000000000000000000000000000000000000600052604160045260246000fd5b600080fd5b600080fd5b600080fd5b600080fd5b6000601f19601f8301169050919050565b7f4552433732313a207472616e7366657220746f206e6f6e20455243373231526560008201527f63656976657220696d706c656d656e7465720000000000000000000000000000602082015250565b7f4552433732313a20746f6b656e20616c7265616479206d696e74656400000000600082015250565b7f4552433732313a207472616e7366657220746f20746865207a65726f2061646460008201527f7265737300000000000000000000000000000000000000000000000000000000602082015250565b7f4552433732313a20617070726f766520746f2063616c6c657200000000000000600082015250565b7f4552433732313a206f70657261746f7220717565727920666f72206e6f6e657860008201527f697374656e7420746f6b656e0000000000000000000000000000000000000000602082015250565b7f4552433732313a20617070726f76652063616c6c6572206973206e6f74206f7760008201527f6e6572206e6f7220617070726f76656420666f7220616c6c0000000000000000602082015250565b7f4552433732313a2062616c616e636520717565727920666f7220746865207a6560008201527f726f206164647265737300000000000000000000000000000000000000000000602082015250565b7f4552433732313a206f776e657220717565727920666f72206e6f6e657869737460008201527f656e7420746f6b656e0000000000000000000000000000000000000000000000602082015250565b7f4552433732313a206d696e7420746f20746865207a65726f2061646472657373600082015250565b7f4552433732313a20617070726f76656420717565727920666f72206e6f6e657860008201527f697374656e7420746f6b656e0000000000000000000000000000000000000000602082015250565b7f4552433732313a207472616e73666572206f6620746f6b656e2074686174206960008201527f73206e6f74206f776e0000000000000000000000000000000000000000000000602082015250565b7f4552433732314d657461646174613a2055524920717565727920666f72206e6f60008201527f6e6578697374656e7420746f6b656e0000000000000000000000000000000000602082015250565b7f4552433732313a20617070726f76616c20746f2063757272656e74206f776e6560008201527f7200000000000000000000000000000000000000000000000000000000000000602082015250565b7f4552433732313a207472616e736665722063616c6c6572206973206e6f74206f60008201527f776e6572206e6f7220617070726f766564000000000000000000000000000000602082015250565b612ac381612437565b8114612ace57600080fd5b50565b612ada81612449565b8114612ae557600080fd5b50565b612af181612455565b8114612afc57600080fd5b50565b612b08816124a1565b8114612b1357600080fd5b5056fe6d73672e73656e64657220696e73696465204552433732312e736166655472616e7366657246726f6d2829206973202573a2646970667358221220ed56eaaf57e956133227efbbfd8a94c6b0a0ba85073df7669f36ac07e74f2c4764736f6c63430008060033",
  "linkReferences": {},
  "deployedLinkReferences": {}
}