{
  "_format": "hh-sol-artifact-1",
  "contractName": "ApeLendNft",
  "sourceName": "contracts/ApeLendNft.sol",
  "abi": [
    {
      "inputs": [
        {
          "internalType": "string",
          "name": "_name",
          "type": "string"
        },
        {
          "internalType": "string",
          "name": "_symbol",
          "type": "string"
        }
      ],
      "stateMutability": "nonpayable",
      "type": "constructor"
    },
    {
      "anonymous": false,
      "inputs": [
        {
          "indexed": true,
          "internalType": "address",
          "name": "owner",
          "type": "address"
        },
        {
          "indexed": true,
          "internalType": "address",
          "name": "approved",
          "type": "address"
        },
        {
          "indexed": true,
          "internalType": "uint256",
          "name": "tokenId",
          "type": "uint256"
        }
      ],
      "name": "Approval",
      "type": "event"
    },
    {
      "anonymous": false,
      "inputs": [
        {
          "indexed": true,
          "internalType": "address",
          "name": "owner",
          "type": "address"
        },
        {
          "indexed": true,
          "internalType": "address",
          "name": "operator",
          "type": "address"
        },
        {
          "indexed": false,
          "internalType": "bool",
          "name": "approved",
          "type": "bool"
        }
      ],
      "name": "ApprovalForAll",
      "type": "event"
    },
    {
      "anonymous": false,
      "inputs": [
        {
          "indexed": true,
          "internalType": "address",
          "name": "from",
          "type": "address"
        },
        {
          "indexed": true,
          "internalType": "address",
          "name": "to",
          "type": "address"
        },
        {
          "indexed": true,
          "internalType": "uint256",
          "name": "tokenId",
          "type": "uint256"
        }
      ],
      "name": "Transfer",
      "type": "event"
    },
    {
      "inputs": [
        {
          "internalType": "address",
          "name": "to",
          "type": "address"
        },
        {
          "internalType": "uint256",
          "name": "tokenId",
          "type": "uint256"
        }
      ],
      "name": "approve",
      "outputs": [],
      "stateMutability": "nonpayable",
      "type": "function"
    },
    {
      "inputs": [
        {
          "internalType": "bool",
          "name": "_approved",
          "type": "bool"
        }
      ],
      "name": "approveProtocolAddress",
      "outputs": [],
      "stateMutability": "nonpayable",
      "type": "function"
    },
    {
      "inputs": [
        {
          "internalType": "address",
          "name": "owner",
          "type": "address"
        }
      ],
      "name": "balanceOf",
      "outputs": [
        {
          "internalType": "uint256",
          "name": "",
          "type": "uint256"
        }
      ],
      "stateMutability": "view",
      "type": "function"
    },
    {
      "inputs": [
        {
          "internalType": "uint256",
          "name": "tokenId",
          "type": "uint256"
        }
      ],
      "name": "getApproved",
      "outputs": [
        {
          "internalType": "address",
          "name": "",
          "type": "address"
        }
      ],
      "stateMutability": "view",
      "type": "function"
    },
    {
      "inputs": [
        {
          "internalType": "address",
          "name": "owner",
          "type": "address"
        },
        {
          "internalType": "address",
          "name": "operator",
          "type": "address"
        }
      ],
      "name": "isApprovedForAll",
      "outputs": [
        {
          "internalType": "bool",
          "name": "",
          "type": "bool"
        }
      ],
      "stateMutability": "view",
      "type": "function"
    },
    {
      "inputs": [
        {
          "internalType": "uint256",
          "name": "_tokenId",
          "type": "uint256"
        }
      ],
      "name": "mintNewNft",
      "outputs": [],
      "stateMutability": "nonpayable",
      "type": "function"
    },
    {
      "inputs": [],
      "name": "name",
      "outputs": [
        {
          "internalType": "string",
          "name": "",
          "type": "string"
        }
      ],
      "stateMutability": "view",
      "type": "function"
    },
    {
      "inputs": [
        {
          "internalType": "address",
          "name": "_owner",
          "type": "address"
        }
      ],
      "name": "nftsOwned",
      "outputs": [
        {
          "internalType": "uint256[]",
          "name": "",
          "type": "uint256[]"
        }
      ],
      "stateMutability": "view",
      "type": "function"
    },
    {
      "inputs": [
        {
          "internalType": "address",
          "name": "",
          "type": "address"
        },
        {
          "internalType": "address",
          "name": "",
          "type": "address"
        },
        {
          "internalType": "uint256",
          "name": "",
          "type": "uint256"
        },
        {
          "internalType": "bytes",
          "name": "",
          "type": "bytes"
        }
      ],
      "name": "onERC721Received",
      "outputs": [
        {
          "internalType": "bytes4",
          "name": "",
          "type": "bytes4"
        }
      ],
      "stateMutability": "nonpayable",
      "type": "function"
    },
    {
      "inputs": [
        {
          "internalType": "uint256",
          "name": "tokenId",
          "type": "uint256"
        }
      ],
      "name": "ownerOf",
      "outputs": [
        {
          "internalType": "address",
          "name": "",
          "type": "address"
        }
      ],
      "stateMutability": "view",
      "type": "function"
    },
    {
      "inputs": [
        {
          "internalType": "address",
          "name": "from",
          "type": "address"
        },
        {
          "internalType": "address",
          "name": "to",
          "type": "address"
        },
        {
          "internalType": "uint256",
          "name": "tokenId",
          "type": "uint256"
        }
      ],
      "name": "safeTransferFrom",
      "outputs": [],
      "stateMutability": "nonpayable",
      "type": "function"
    },
    {
      "inputs": [
        {
          "internalType": "address",
          "name": "from",
          "type": "address"
        },
        {
          "internalType": "address",
          "name": "to",
          "type": "address"
        },
        {
          "internalType": "uint256",
          "name": "tokenId",
          "type": "uint256"
        },
        {
          "internalType": "bytes",
          "name": "_data",
          "type": "bytes"
        }
      ],
      "name": "safeTransferFrom",
      "outputs": [],
      "stateMutability": "nonpayable",
      "type": "function"
    },
    {
      "inputs": [
        {
          "internalType": "address",
          "name": "operator",
          "type": "address"
        },
        {
          "internalType": "bool",
          "name": "approved",
          "type": "bool"
        }
      ],
      "name": "setApprovalForAll",
      "outputs": [],
      "stateMutability": "nonpayable",
      "type": "function"
    },
    {
      "inputs": [
        {
          "internalType": "bytes4",
          "name": "interfaceId",
          "type": "bytes4"
        }
      ],
      "name": "supportsInterface",
      "outputs": [
        {
          "internalType": "bool",
          "name": "",
          "type": "bool"
        }
      ],
      "stateMutability": "view",
      "type": "function"
    },
    {
      "inputs": [],
      "name": "symbol",
      "outputs": [
        {
          "internalType": "string",
          "name": "",
          "type": "string"
        }
      ],
      "stateMutability": "view",
      "type": "function"
    },
    {
      "inputs": [
        {
          "internalType": "uint256",
          "name": "tokenId",
          "type": "uint256"
        }
      ],
      "name": "tokenURI",
      "outputs": [
        {
          "internalType": "string",
          "name": "",
          "type": "string"
        }
      ],
      "stateMutability": "view",
      "type": "function"
    },
    {
      "inputs": [
        {
          "internalType": "address",
          "name": "from",
          "type": "address"
        },
        {
          "internalType": "address",
          "name": "to",
          "type": "address"
        },
        {
          "internalType": "uint256",
          "name": "tokenId",
          "type": "uint256"
        }
      ],
      "name": "transferFrom",
      "outputs": [],
      "stateMutability": "nonpayable",
      "type": "function"
    }
  ],
  "bytecode": "0x60806040523480156200001157600080fd5b5060405162002f9738038062002f97833981810160405281019062000037919062000349565b81818160009080519060200190620000519291906200021b565b5080600190805190602001906200006a9291906200021b565b5050508160069080519060200190620000859291906200021b565b5080600790805190602001906200009e9291906200021b565b50620000b763150b7a0260e01b620000c060201b60201c565b50505062000552565b60007f80ac58cd000000000000000000000000000000000000000000000000000000007bffffffffffffffffffffffffffffffffffffffffffffffffffffffff1916827bffffffffffffffffffffffffffffffffffffffffffffffffffffffff191614806200018c57507f5b5e139f000000000000000000000000000000000000000000000000000000007bffffffffffffffffffffffffffffffffffffffffffffffffffffffff1916827bffffffffffffffffffffffffffffffffffffffffffffffffffffffff1916145b80620001aa5750620001a982620001b160201b62000d7a1760201c565b5b9050919050565b60007f01ffc9a7000000000000000000000000000000000000000000000000000000007bffffffffffffffffffffffffffffffffffffffffffffffffffffffff1916827bffffffffffffffffffffffffffffffffffffffffffffffffffffffff1916149050919050565b828054620002299062000463565b90600052602060002090601f0160209004810192826200024d576000855562000299565b82601f106200026857805160ff191683800117855562000299565b8280016001018555821562000299579182015b82811115620002985782518255916020019190600101906200027b565b5b509050620002a89190620002ac565b5090565b5b80821115620002c7576000816000905550600101620002ad565b5090565b6000620002e2620002dc84620003f7565b620003ce565b90508281526020810184848401111562000301576200030062000532565b5b6200030e8482856200042d565b509392505050565b600082601f8301126200032e576200032d6200052d565b5b815162000340848260208601620002cb565b91505092915050565b600080604083850312156200036357620003626200053c565b5b600083015167ffffffffffffffff81111562000384576200038362000537565b5b620003928582860162000316565b925050602083015167ffffffffffffffff811115620003b657620003b562000537565b5b620003c48582860162000316565b9150509250929050565b6000620003da620003ed565b9050620003e8828262000499565b919050565b6000604051905090565b600067ffffffffffffffff821115620004155762000414620004fe565b5b620004208262000541565b9050602081019050919050565b60005b838110156200044d57808201518184015260208101905062000430565b838111156200045d576000848401525b50505050565b600060028204905060018216806200047c57607f821691505b60208210811415620004935762000492620004cf565b5b50919050565b620004a48262000541565b810181811067ffffffffffffffff82111715620004c657620004c5620004fe565b5b80604052505050565b7f4e487b7100000000000000000000000000000000000000000000000000000000600052602260045260246000fd5b7f4e487b7100000000000000000000000000000000000000000000000000000000600052604160045260246000fd5b600080fd5b600080fd5b600080fd5b600080fd5b6000601f19601f8301169050919050565b612a3580620005626000396000f3fe608060405234801561001057600080fd5b506004361061010b5760003560e01c80636352211e116100a257806395d89b411161007157806395d89b41146102da578063a22cb465146102f8578063b88d4fde14610314578063c87b56dd14610330578063e985e9c5146103605761010b565b80636352211e1461022e57806366e15b551461025e57806370a082311461027a5780638baafe13146102aa5761010b565b8063150b7a02116100de578063150b7a02146101aa57806323b872dd146101da57806342842e0e146101f65780634b6d69d3146102125761010b565b806301ffc9a71461011057806306fdde0314610140578063081812fc1461015e578063095ea7b31461018e575b600080fd5b61012a60048036038101906101259190611ade565b610390565b6040516101379190611f60565b60405180910390f35b610148610472565b6040516101559190611f96565b60405180910390f35b61017860048036038101906101739190611b38565b610504565b6040516101859190611ed7565b60405180910390f35b6101a860048036038101906101a39190611a71565b610589565b005b6101c460048036038101906101bf91906119ae565b6106a1565b6040516101d19190611f7b565b60405180910390f35b6101f460048036038101906101ef919061195b565b6106b5565b005b610210600480360381019061020b919061195b565b610715565b005b61022c60048036038101906102279190611b38565b610735565b005b61024860048036038101906102439190611b38565b6107a8565b6040516102559190611ed7565b60405180910390f35b61027860048036038101906102739190611ab1565b61085a565b005b610294600480360381019061028f91906118ee565b61087b565b6040516102a19190612178565b60405180910390f35b6102c460048036038101906102bf91906118ee565b610933565b6040516102d19190611f3e565b60405180910390f35b6102e26109ca565b6040516102ef9190611f96565b60405180910390f35b610312600480360381019061030d9190611a31565b610a5c565b005b61032e600480360381019061032991906119ae565b610bdd565b005b61034a60048036038101906103459190611b38565b610c3f565b6040516103579190611f96565b60405180910390f35b61037a6004803603810190610375919061191b565b610ce6565b6040516103879190611f60565b60405180910390f35b60007f80ac58cd000000000000000000000000000000000000000000000000000000007bffffffffffffffffffffffffffffffffffffffffffffffffffffffff1916827bffffffffffffffffffffffffffffffffffffffffffffffffffffffff1916148061045b57507f5b5e139f000000000000000000000000000000000000000000000000000000007bffffffffffffffffffffffffffffffffffffffffffffffffffffffff1916827bffffffffffffffffffffffffffffffffffffffffffffffffffffffff1916145b8061046b575061046a82610d7a565b5b9050919050565b606060008054610481906123d6565b80601f01602080910402602001604051908101604052809291908181526020018280546104ad906123d6565b80156104fa5780601f106104cf576101008083540402835291602001916104fa565b820191906000526020600020905b8154815290600101906020018083116104dd57829003601f168201915b5050505050905090565b600061050f82610de4565b61054e576040517f08c379a0000000000000000000000000000000000000000000000000000000008152600401610545906120d8565b60405180910390fd5b6004600083815260200190815260200160002060009054906101000a900473ffffffffffffffffffffffffffffffffffffffff169050919050565b6000610594826107a8565b90508073ffffffffffffffffffffffffffffffffffffffff168373ffffffffffffffffffffffffffffffffffffffff161415610605576040517f08c379a00000000000000000000000000000000000000000000000000000000081526004016105fc90612138565b60405180910390fd5b8073ffffffffffffffffffffffffffffffffffffffff16610624610e50565b73ffffffffffffffffffffffffffffffffffffffff16148061065357506106528161064d610e50565b610ce6565b5b610692576040517f08c379a000000000000000000000000000000000000000000000000000000000815260040161068990612058565b60405180910390fd5b61069c8383610e58565b505050565b600063150b7a0260e01b9050949350505050565b6106c66106c0610e50565b82610f11565b610705576040517f08c379a00000000000000000000000000000000000000000000000000000000081526004016106fc90612158565b60405180910390fd5b610710838383610fef565b505050565b61073083838360405180602001604052806000815250610bdd565b505050565b61073f338261124b565b600860003373ffffffffffffffffffffffffffffffffffffffff1673ffffffffffffffffffffffffffffffffffffffff16815260200190815260200160002081908060018154018082558091505060019003906000526020600020016000909190919091505550565b6000806002600084815260200190815260200160002060009054906101000a900473ffffffffffffffffffffffffffffffffffffffff169050600073ffffffffffffffffffffffffffffffffffffffff168173ffffffffffffffffffffffffffffffffffffffff161415610851576040517f08c379a000000000000000000000000000000000000000000000000000000000815260040161084890612098565b60405180910390fd5b80915050919050565b61087873e7f1725e7734ce288f8367e1bb143e90bb3f051282610a5c565b50565b60008073ffffffffffffffffffffffffffffffffffffffff168273ffffffffffffffffffffffffffffffffffffffff1614156108ec576040517f08c379a00000000000000000000000000000000000000000000000000000000081526004016108e390612078565b60405180910390fd5b600360008373ffffffffffffffffffffffffffffffffffffffff1673ffffffffffffffffffffffffffffffffffffffff168152602001908152602001600020549050919050565b6060600860008373ffffffffffffffffffffffffffffffffffffffff1673ffffffffffffffffffffffffffffffffffffffff1681526020019081526020016000208054806020026020016040519081016040528092919081815260200182805480156109be57602002820191906000526020600020905b8154815260200190600101908083116109aa575b50505050509050919050565b6060600180546109d9906123d6565b80601f0160208091040260200160405190810160405280929190818152602001828054610a05906123d6565b8015610a525780601f10610a2757610100808354040283529160200191610a52565b820191906000526020600020905b815481529060010190602001808311610a3557829003601f168201915b5050505050905090565b610a64610e50565b73ffffffffffffffffffffffffffffffffffffffff168273ffffffffffffffffffffffffffffffffffffffff161415610ad2576040517f08c379a0000000000000000000000000000000000000000000000000000000008152600401610ac990612018565b60405180910390fd5b8060056000610adf610e50565b73ffffffffffffffffffffffffffffffffffffffff1673ffffffffffffffffffffffffffffffffffffffff16815260200190815260200160002060008473ffffffffffffffffffffffffffffffffffffffff1673ffffffffffffffffffffffffffffffffffffffff16815260200190815260200160002060006101000a81548160ff0219169083151502179055508173ffffffffffffffffffffffffffffffffffffffff16610b8c610e50565b73ffffffffffffffffffffffffffffffffffffffff167f17307eab39ab6107e8899845ad3d59bd9653f200f220920489ca2b5937696c3183604051610bd19190611f60565b60405180910390a35050565b610bee610be8610e50565b83610f11565b610c2d576040517f08c379a0000000000000000000000000000000000000000000000000000000008152600401610c2490612158565b60405180910390fd5b610c3984848484611269565b50505050565b6060610c4a82610de4565b610c89576040517f08c379a0000000000000000000000000000000000000000000000000000000008152600401610c8090612118565b60405180910390fd5b6000610c936112c5565b90506000815111610cb35760405180602001604052806000815250610cde565b80610cbd846112dc565b604051602001610cce929190611eb3565b6040516020818303038152906040525b915050919050565b6000600560008473ffffffffffffffffffffffffffffffffffffffff1673ffffffffffffffffffffffffffffffffffffffff16815260200190815260200160002060008373ffffffffffffffffffffffffffffffffffffffff1673ffffffffffffffffffffffffffffffffffffffff16815260200190815260200160002060009054906101000a900460ff16905092915050565b60007f01ffc9a7000000000000000000000000000000000000000000000000000000007bffffffffffffffffffffffffffffffffffffffffffffffffffffffff1916827bffffffffffffffffffffffffffffffffffffffffffffffffffffffff1916149050919050565b60008073ffffffffffffffffffffffffffffffffffffffff166002600084815260200190815260200160002060009054906101000a900473ffffffffffffffffffffffffffffffffffffffff1673ffffffffffffffffffffffffffffffffffffffff1614159050919050565b600033905090565b816004600083815260200190815260200160002060006101000a81548173ffffffffffffffffffffffffffffffffffffffff021916908373ffffffffffffffffffffffffffffffffffffffff160217905550808273ffffffffffffffffffffffffffffffffffffffff16610ecb836107a8565b73ffffffffffffffffffffffffffffffffffffffff167f8c5be1e5ebec7d5bd14f71427d1e84f3dd0314c0f7b2291e5b200ac8c7c3b92560405160405180910390a45050565b6000610f1c82610de4565b610f5b576040517f08c379a0000000000000000000000000000000000000000000000000000000008152600401610f5290612038565b60405180910390fd5b6000610f66836107a8565b90508073ffffffffffffffffffffffffffffffffffffffff168473ffffffffffffffffffffffffffffffffffffffff161480610fd557508373ffffffffffffffffffffffffffffffffffffffff16610fbd84610504565b73ffffffffffffffffffffffffffffffffffffffff16145b80610fe65750610fe58185610ce6565b5b91505092915050565b8273ffffffffffffffffffffffffffffffffffffffff1661100f826107a8565b73ffffffffffffffffffffffffffffffffffffffff1614611065576040517f08c379a000000000000000000000000000000000000000000000000000000000815260040161105c906120f8565b60405180910390fd5b600073ffffffffffffffffffffffffffffffffffffffff168273ffffffffffffffffffffffffffffffffffffffff1614156110d5576040517f08c379a00000000000000000000000000000000000000000000000000000000081526004016110cc90611ff8565b60405180910390fd5b6110e083838361143d565b6110eb600082610e58565b6001600360008573ffffffffffffffffffffffffffffffffffffffff1673ffffffffffffffffffffffffffffffffffffffff168152602001908152602001600020600082825461113b91906122ec565b925050819055506001600360008473ffffffffffffffffffffffffffffffffffffffff1673ffffffffffffffffffffffffffffffffffffffff16815260200190815260200160002060008282546111929190612265565b92505081905550816002600083815260200190815260200160002060006101000a81548173ffffffffffffffffffffffffffffffffffffffff021916908373ffffffffffffffffffffffffffffffffffffffff160217905550808273ffffffffffffffffffffffffffffffffffffffff168473ffffffffffffffffffffffffffffffffffffffff167fddf252ad1be2c89b69c2b068fc378daa952ba7f163c4a11628f55a4df523b3ef60405160405180910390a4505050565b611265828260405180602001604052806000815250611442565b5050565b611274848484610fef565b6112808484848461149d565b6112bf576040517f08c379a00000000000000000000000000000000000000000000000000000000081526004016112b690611fb8565b60405180910390fd5b50505050565b606060405180602001604052806000815250905090565b60606000821415611324576040518060400160405280600181526020017f30000000000000000000000000000000000000000000000000000000000000008152509050611438565b600082905060005b6000821461135657808061133f90612439565b915050600a8261134f91906122bb565b915061132c565b60008167ffffffffffffffff8111156113725761137161256f565b5b6040519080825280601f01601f1916602001820160405280156113a45781602001600182028036833780820191505090505b5090505b60008514611431576001826113bd91906122ec565b9150600a856113cc9190612482565b60306113d89190612265565b60f81b8183815181106113ee576113ed612540565b5b60200101907effffffffffffffffffffffffffffffffffffffffffffffffffffffffffffff1916908160001a905350600a8561142a91906122bb565b94506113a8565b8093505050505b919050565b505050565b61144c8383611634565b611459600084848461149d565b611498576040517f08c379a000000000000000000000000000000000000000000000000000000000815260040161148f90611fb8565b60405180910390fd5b505050565b60006114be8473ffffffffffffffffffffffffffffffffffffffff16611802565b15611627578373ffffffffffffffffffffffffffffffffffffffff1663150b7a026114e7610e50565b8786866040518563ffffffff1660e01b81526004016115099493929190611ef2565b602060405180830381600087803b15801561152357600080fd5b505af192505050801561155457506040513d601f19601f820116820180604052508101906115519190611b0b565b60015b6115d7573d8060008114611584576040519150601f19603f3d011682016040523d82523d6000602084013e611589565b606091505b506000815114156115cf576040517f08c379a00000000000000000000000000000000000000000000000000000000081526004016115c690611fb8565b60405180910390fd5b805181602001fd5b63150b7a0260e01b7bffffffffffffffffffffffffffffffffffffffffffffffffffffffff1916817bffffffffffffffffffffffffffffffffffffffffffffffffffffffff19161491505061162c565b600190505b949350505050565b600073ffffffffffffffffffffffffffffffffffffffff168273ffffffffffffffffffffffffffffffffffffffff1614156116a4576040517f08c379a000000000000000000000000000000000000000000000000000000000815260040161169b906120b8565b60405180910390fd5b6116ad81610de4565b156116ed576040517f08c379a00000000000000000000000000000000000000000000000000000000081526004016116e490611fd8565b60405180910390fd5b6116f96000838361143d565b6001600360008473ffffffffffffffffffffffffffffffffffffffff1673ffffffffffffffffffffffffffffffffffffffff16815260200190815260200160002060008282546117499190612265565b92505081905550816002600083815260200190815260200160002060006101000a81548173ffffffffffffffffffffffffffffffffffffffff021916908373ffffffffffffffffffffffffffffffffffffffff160217905550808273ffffffffffffffffffffffffffffffffffffffff16600073ffffffffffffffffffffffffffffffffffffffff167fddf252ad1be2c89b69c2b068fc378daa952ba7f163c4a11628f55a4df523b3ef60405160405180910390a45050565b600080823b905060008111915050919050565b6000611828611823846121b8565b612193565b905082815260208101848484011115611844576118436125a3565b5b61184f848285612394565b509392505050565b600081359050611866816129a3565b92915050565b60008135905061187b816129ba565b92915050565b600081359050611890816129d1565b92915050565b6000815190506118a5816129d1565b92915050565b600082601f8301126118c0576118bf61259e565b5b81356118d0848260208601611815565b91505092915050565b6000813590506118e8816129e8565b92915050565b600060208284031215611904576119036125ad565b5b600061191284828501611857565b91505092915050565b60008060408385031215611932576119316125ad565b5b600061194085828601611857565b925050602061195185828601611857565b9150509250929050565b600080600060608486031215611974576119736125ad565b5b600061198286828701611857565b935050602061199386828701611857565b92505060406119a4868287016118d9565b9150509250925092565b600080600080608085870312156119c8576119c76125ad565b5b60006119d687828801611857565b94505060206119e787828801611857565b93505060406119f8878288016118d9565b925050606085013567ffffffffffffffff811115611a1957611a186125a8565b5b611a25878288016118ab565b91505092959194509250565b60008060408385031215611a4857611a476125ad565b5b6000611a5685828601611857565b9250506020611a678582860161186c565b9150509250929050565b60008060408385031215611a8857611a876125ad565b5b6000611a9685828601611857565b9250506020611aa7858286016118d9565b9150509250929050565b600060208284031215611ac757611ac66125ad565b5b6000611ad58482850161186c565b91505092915050565b600060208284031215611af457611af36125ad565b5b6000611b0284828501611881565b91505092915050565b600060208284031215611b2157611b206125ad565b5b6000611b2f84828501611896565b91505092915050565b600060208284031215611b4e57611b4d6125ad565b5b6000611b5c848285016118d9565b91505092915050565b6000611b718383611e95565b60208301905092915050565b611b8681612320565b82525050565b6000611b97826121f9565b611ba18185612227565b9350611bac836121e9565b8060005b83811015611bdd578151611bc48882611b65565b9750611bcf8361221a565b925050600181019050611bb0565b5085935050505092915050565b611bf381612332565b82525050565b611c028161233e565b82525050565b6000611c1382612204565b611c1d8185612238565b9350611c2d8185602086016123a3565b611c36816125b2565b840191505092915050565b6000611c4c8261220f565b611c568185612249565b9350611c668185602086016123a3565b611c6f816125b2565b840191505092915050565b6000611c858261220f565b611c8f818561225a565b9350611c9f8185602086016123a3565b80840191505092915050565b6000611cb8603283612249565b9150611cc3826125c3565b604082019050919050565b6000611cdb601c83612249565b9150611ce682612612565b602082019050919050565b6000611cfe602483612249565b9150611d098261263b565b604082019050919050565b6000611d21601983612249565b9150611d2c8261268a565b602082019050919050565b6000611d44602c83612249565b9150611d4f826126b3565b604082019050919050565b6000611d67603883612249565b9150611d7282612702565b604082019050919050565b6000611d8a602a83612249565b9150611d9582612751565b604082019050919050565b6000611dad602983612249565b9150611db8826127a0565b604082019050919050565b6000611dd0602083612249565b9150611ddb826127ef565b602082019050919050565b6000611df3602c83612249565b9150611dfe82612818565b604082019050919050565b6000611e16602983612249565b9150611e2182612867565b604082019050919050565b6000611e39602f83612249565b9150611e44826128b6565b604082019050919050565b6000611e5c602183612249565b9150611e6782612905565b604082019050919050565b6000611e7f603183612249565b9150611e8a82612954565b604082019050919050565b611e9e8161238a565b82525050565b611ead8161238a565b82525050565b6000611ebf8285611c7a565b9150611ecb8284611c7a565b91508190509392505050565b6000602082019050611eec6000830184611b7d565b92915050565b6000608082019050611f076000830187611b7d565b611f146020830186611b7d565b611f216040830185611ea4565b8181036060830152611f338184611c08565b905095945050505050565b60006020820190508181036000830152611f588184611b8c565b905092915050565b6000602082019050611f756000830184611bea565b92915050565b6000602082019050611f906000830184611bf9565b92915050565b60006020820190508181036000830152611fb08184611c41565b905092915050565b60006020820190508181036000830152611fd181611cab565b9050919050565b60006020820190508181036000830152611ff181611cce565b9050919050565b6000602082019050818103600083015261201181611cf1565b9050919050565b6000602082019050818103600083015261203181611d14565b9050919050565b6000602082019050818103600083015261205181611d37565b9050919050565b6000602082019050818103600083015261207181611d5a565b9050919050565b6000602082019050818103600083015261209181611d7d565b9050919050565b600060208201905081810360008301526120b181611da0565b9050919050565b600060208201905081810360008301526120d181611dc3565b9050919050565b600060208201905081810360008301526120f181611de6565b9050919050565b6000602082019050818103600083015261211181611e09565b9050919050565b6000602082019050818103600083015261213181611e2c565b9050919050565b6000602082019050818103600083015261215181611e4f565b9050919050565b6000602082019050818103600083015261217181611e72565b9050919050565b600060208201905061218d6000830184611ea4565b92915050565b600061219d6121ae565b90506121a98282612408565b919050565b6000604051905090565b600067ffffffffffffffff8211156121d3576121d261256f565b5b6121dc826125b2565b9050602081019050919050565b6000819050602082019050919050565b600081519050919050565b600081519050919050565b600081519050919050565b6000602082019050919050565b600082825260208201905092915050565b600082825260208201905092915050565b600082825260208201905092915050565b600081905092915050565b60006122708261238a565b915061227b8361238a565b9250827fffffffffffffffffffffffffffffffffffffffffffffffffffffffffffffffff038211156122b0576122af6124b3565b5b828201905092915050565b60006122c68261238a565b91506122d18361238a565b9250826122e1576122e06124e2565b5b828204905092915050565b60006122f78261238a565b91506123028361238a565b925082821015612315576123146124b3565b5b828203905092915050565b600061232b8261236a565b9050919050565b60008115159050919050565b60007fffffffff0000000000000000000000000000000000000000000000000000000082169050919050565b600073ffffffffffffffffffffffffffffffffffffffff82169050919050565b6000819050919050565b82818337600083830152505050565b60005b838110156123c15780820151818401526020810190506123a6565b838111156123d0576000848401525b50505050565b600060028204905060018216806123ee57607f821691505b6020821081141561240257612401612511565b5b50919050565b612411826125b2565b810181811067ffffffffffffffff821117156124305761242f61256f565b5b80604052505050565b60006124448261238a565b91507fffffffffffffffffffffffffffffffffffffffffffffffffffffffffffffffff821415612477576124766124b3565b5b600182019050919050565b600061248d8261238a565b91506124988361238a565b9250826124a8576124a76124e2565b5b828206905092915050565b7f4e487b7100000000000000000000000000000000000000000000000000000000600052601160045260246000fd5b7f4e487b7100000000000000000000000000000000000000000000000000000000600052601260045260246000fd5b7f4e487b7100000000000000000000000000000000000000000000000000000000600052602260045260246000fd5b7f4e487b7100000000000000000000000000000000000000000000000000000000600052603260045260246000fd5b7f4e487b7100000000000000000000000000000000000000000000000000000000600052604160045260246000fd5b600080fd5b600080fd5b600080fd5b600080fd5b6000601f19601f8301169050919050565b7f4552433732313a207472616e7366657220746f206e6f6e20455243373231526560008201527f63656976657220696d706c656d656e7465720000000000000000000000000000602082015250565b7f4552433732313a20746f6b656e20616c7265616479206d696e74656400000000600082015250565b7f4552433732313a207472616e7366657220746f20746865207a65726f2061646460008201527f7265737300000000000000000000000000000000000000000000000000000000602082015250565b7f4552433732313a20617070726f766520746f2063616c6c657200000000000000600082015250565b7f4552433732313a206f70657261746f7220717565727920666f72206e6f6e657860008201527f697374656e7420746f6b656e0000000000000000000000000000000000000000602082015250565b7f4552433732313a20617070726f76652063616c6c6572206973206e6f74206f7760008201527f6e6572206e6f7220617070726f76656420666f7220616c6c0000000000000000602082015250565b7f4552433732313a2062616c616e636520717565727920666f7220746865207a6560008201527f726f206164647265737300000000000000000000000000000000000000000000602082015250565b7f4552433732313a206f776e657220717565727920666f72206e6f6e657869737460008201527f656e7420746f6b656e0000000000000000000000000000000000000000000000602082015250565b7f4552433732313a206d696e7420746f20746865207a65726f2061646472657373600082015250565b7f4552433732313a20617070726f76656420717565727920666f72206e6f6e657860008201527f697374656e7420746f6b656e0000000000000000000000000000000000000000602082015250565b7f4552433732313a207472616e73666572206f6620746f6b656e2074686174206960008201527f73206e6f74206f776e0000000000000000000000000000000000000000000000602082015250565b7f4552433732314d657461646174613a2055524920717565727920666f72206e6f60008201527f6e6578697374656e7420746f6b656e0000000000000000000000000000000000602082015250565b7f4552433732313a20617070726f76616c20746f2063757272656e74206f776e6560008201527f7200000000000000000000000000000000000000000000000000000000000000602082015250565b7f4552433732313a207472616e736665722063616c6c6572206973206e6f74206f60008201527f776e6572206e6f7220617070726f766564000000000000000000000000000000602082015250565b6129ac81612320565b81146129b757600080fd5b50565b6129c381612332565b81146129ce57600080fd5b50565b6129da8161233e565b81146129e557600080fd5b50565b6129f18161238a565b81146129fc57600080fd5b5056fea2646970667358221220f0a3e833312950934399aed50ea7a93ec2febc4dd4d09e762d0e877c8fcae9a664736f6c63430008060033",
  "linkReferences": {},
  "deployedLinkReferences": {}
}