{
  "_format": "hh-sol-artifact-1",
  "contractName": "BorrowLendProtocol",
  "sourceName": "contracts/BorrowLendProtocol.sol",
  "abi": [
    {
      "inputs": [
        {
          "internalType": "uint256",
          "name": "nftId",
          "type": "uint256"
        }
      ],
      "name": "lendNft",
      "outputs": [],
      "stateMutability": "nonpayable",
      "type": "function"
    },
    {
      "inputs": [
        {
          "internalType": "uint256",
          "name": "tokenId",
          "type": "uint256"
        }
      ],
      "name": "ownerOf",
      "outputs": [
        {
          "internalType": "address",
          "name": "",
          "type": "address"
        }
      ],
      "stateMutability": "view",
      "type": "function"
    }
  ],
  "bytecode": "0x6080604052735fbdb2315678afecb367f032d93f642f64180aa36000806101000a81548173ffffffffffffffffffffffffffffffffffffffff021916908373ffffffffffffffffffffffffffffffffffffffff16021790555034801561006457600080fd5b506103b8806100746000396000f3fe608060405234801561001057600080fd5b50600436106100365760003560e01c806345079f4f1461003b5780636352211e14610057575b600080fd5b6100556004803603810190610050919061029b565b610087565b005b610071600480360381019061006c919061029b565b610195565b60405161007e91906102e2565b60405180910390f35b60008054906101000a900473ffffffffffffffffffffffffffffffffffffffff1673ffffffffffffffffffffffffffffffffffffffff16636352211e826040518263ffffffff1660e01b81526004016100e091906102fd565b60206040518083038186803b1580156100f857600080fd5b505afa15801561010c573d6000803e3d6000fd5b505050506040513d601f19601f820116820180604052508101906101309190610272565b73ffffffffffffffffffffffffffffffffffffffff163373ffffffffffffffffffffffffffffffffffffffff161461016757600080fd5b600180600083815260200190815260200160002060006101000a81548160ff02191690831515021790555050565b60008060009054906101000a900473ffffffffffffffffffffffffffffffffffffffff1673ffffffffffffffffffffffffffffffffffffffff16636352211e836040518263ffffffff1660e01b81526004016101f191906102fd565b60206040518083038186803b15801561020957600080fd5b505afa15801561021d573d6000803e3d6000fd5b505050506040513d601f19601f820116820180604052508101906102419190610272565b9050919050565b60008151905061025781610354565b92915050565b60008135905061026c8161036b565b92915050565b60006020828403121561028457600080fd5b600061029284828501610248565b91505092915050565b6000602082840312156102ad57600080fd5b60006102bb8482850161025d565b91505092915050565b6102cd81610318565b82525050565b6102dc8161034a565b82525050565b60006020820190506102f760008301846102c4565b92915050565b600060208201905061031260008301846102d3565b92915050565b60006103238261032a565b9050919050565b600073ffffffffffffffffffffffffffffffffffffffff82169050919050565b6000819050919050565b61035d81610318565b811461036857600080fd5b50565b6103748161034a565b811461037f57600080fd5b5056fea2646970667358221220dff7006e353fb73fca2726f3f54bf1f0e0ca3e133957845df68008d09b47c68564736f6c63430008000033",
  "linkReferences": {},
  "deployedLinkReferences": {}
}