{
  "_format": "hh-sol-artifact-1",
  "contractName": "BorrowLendProtocol",
  "sourceName": "contracts/BorrowLendProtocol.sol",
  "abi": [
    {
      "inputs": [],
      "stateMutability": "nonpayable",
      "type": "constructor"
    },
    {
      "inputs": [
        {
          "internalType": "uint256",
          "name": "_borrowingNftId",
          "type": "uint256"
        },
        {
          "internalType": "uint256",
          "name": "_collateralNftId",
          "type": "uint256"
        }
      ],
      "name": "borrowNft",
      "outputs": [],
      "stateMutability": "payable",
      "type": "function"
    },
    {
      "inputs": [],
      "name": "currentBlockTimestamp",
      "outputs": [
        {
          "internalType": "uint256",
          "name": "",
          "type": "uint256"
        }
      ],
      "stateMutability": "view",
      "type": "function"
    },
    {
      "inputs": [
        {
          "internalType": "uint256",
          "name": "_nftId",
          "type": "uint256"
        }
      ],
      "name": "isNftAvailable",
      "outputs": [
        {
          "internalType": "bool",
          "name": "",
          "type": "bool"
        }
      ],
      "stateMutability": "view",
      "type": "function"
    },
    {
      "inputs": [
        {
          "internalType": "uint256",
          "name": "_nftId",
          "type": "uint256"
        }
      ],
      "name": "lendNft",
      "outputs": [],
      "stateMutability": "nonpayable",
      "type": "function"
    },
    {
      "inputs": [
        {
          "internalType": "uint256",
          "name": "_nftId",
          "type": "uint256"
        }
      ],
      "name": "nftBorrower",
      "outputs": [
        {
          "internalType": "address",
          "name": "",
          "type": "address"
        }
      ],
      "stateMutability": "view",
      "type": "function"
    },
    {
      "inputs": [
        {
          "internalType": "uint256",
          "name": "_nftId",
          "type": "uint256"
        }
      ],
      "name": "nftReturnWindow",
      "outputs": [
        {
          "internalType": "uint256",
          "name": "",
          "type": "uint256"
        }
      ],
      "stateMutability": "view",
      "type": "function"
    },
    {
      "inputs": [
        {
          "internalType": "address",
          "name": "",
          "type": "address"
        },
        {
          "internalType": "address",
          "name": "",
          "type": "address"
        },
        {
          "internalType": "uint256",
          "name": "",
          "type": "uint256"
        },
        {
          "internalType": "bytes",
          "name": "",
          "type": "bytes"
        }
      ],
      "name": "onERC721Received",
      "outputs": [
        {
          "internalType": "bytes4",
          "name": "",
          "type": "bytes4"
        }
      ],
      "stateMutability": "nonpayable",
      "type": "function"
    },
    {
      "inputs": [
        {
          "internalType": "address",
          "name": "operator",
          "type": "address"
        },
        {
          "internalType": "address",
          "name": "from",
          "type": "address"
        },
        {
          "internalType": "uint256",
          "name": "tokenId",
          "type": "uint256"
        },
        {
          "internalType": "bytes",
          "name": "data",
          "type": "bytes"
        }
      ],
      "name": "onERC721ReceivedToProtocol",
      "outputs": [
        {
          "internalType": "bytes4",
          "name": "",
          "type": "bytes4"
        }
      ],
      "stateMutability": "nonpayable",
      "type": "function"
    },
    {
      "inputs": [
        {
          "internalType": "uint256",
          "name": "_tokenId",
          "type": "uint256"
        }
      ],
      "name": "ownerOf",
      "outputs": [
        {
          "internalType": "address",
          "name": "",
          "type": "address"
        }
      ],
      "stateMutability": "view",
      "type": "function"
    },
    {
      "inputs": [],
      "name": "protocolCreator",
      "outputs": [
        {
          "internalType": "address",
          "name": "",
          "type": "address"
        }
      ],
      "stateMutability": "view",
      "type": "function"
    },
    {
      "inputs": [
        {
          "internalType": "uint256",
          "name": "_nftId",
          "type": "uint256"
        }
      ],
      "name": "protocolNftRepossession",
      "outputs": [],
      "stateMutability": "nonpayable",
      "type": "function"
    },
    {
      "inputs": [
        {
          "internalType": "uint256",
          "name": "_nftId",
          "type": "uint256"
        }
      ],
      "name": "pullNft",
      "outputs": [],
      "stateMutability": "nonpayable",
      "type": "function"
    },
    {
      "inputs": [
        {
          "internalType": "uint256",
          "name": "_nftId",
          "type": "uint256"
        }
      ],
      "name": "requestRepossessionOfNft",
      "outputs": [],
      "stateMutability": "nonpayable",
      "type": "function"
    },
    {
      "inputs": [
        {
          "internalType": "uint256",
          "name": "_nftId",
          "type": "uint256"
        }
      ],
      "name": "returnNft",
      "outputs": [],
      "stateMutability": "nonpayable",
      "type": "function"
    },
    {
      "inputs": [
        {
          "internalType": "uint256",
          "name": "_nftId",
          "type": "uint256"
        }
      ],
      "name": "trueNftOwner",
      "outputs": [
        {
          "internalType": "address",
          "name": "",
          "type": "address"
        }
      ],
      "stateMutability": "view",
      "type": "function"
    }
  ],
  "bytecode": "0x6080604052735fbdb2315678afecb367f032d93f642f64180aa36000806101000a81548173ffffffffffffffffffffffffffffffffffffffff021916908373ffffffffffffffffffffffffffffffffffffffff16021790555034801561006457600080fd5b5033600160006101000a81548173ffffffffffffffffffffffffffffffffffffffff021916908373ffffffffffffffffffffffffffffffffffffffff160217905550612068806100b56000396000f3fe6080604052600436106100e85760003560e01c80636352211e1161008a578063a45e7bee11610059578063a45e7bee14610309578063abf8127214610332578063d710c9c11461035d578063e88952bd1461039a576100e8565b80636352211e1461023b57806375abab7e146102785780638ca2f537146102a1578063a3efd008146102cc576100e8565b806345079f4f116100c657806345079f4f1461016f5780634effdda014610198578063591805f4146101d55780635c9ff8e514610212576100e8565b806309d77f0e146100ed57806312a8b21114610116578063150b7a0214610132575b600080fd5b3480156100f957600080fd5b50610114600480360381019061010f9190611752565b6103d7565b005b610130600480360381019061012b919061177b565b6106bb565b005b34801561013e57600080fd5b50610159600480360381019061015491906116d7565b610a25565b6040516101669190611cc5565b60405180910390f35b34801561017b57600080fd5b5061019660048036038101906101919190611752565b610a39565b005b3480156101a457600080fd5b506101bf60048036038101906101ba91906116d7565b610d08565b6040516101cc9190611cc5565b60405180910390f35b3480156101e157600080fd5b506101fc60048036038101906101f79190611752565b610d1f565b6040516102099190611c2f565b60405180910390f35b34801561021e57600080fd5b5061023960048036038101906102349190611752565b610d5c565b005b34801561024757600080fd5b50610262600480360381019061025d9190611752565b610f22565b60405161026f9190611c2f565b60405180910390f35b34801561028457600080fd5b5061029f600480360381019061029a9190611752565b610fd5565b005b3480156102ad57600080fd5b506102b66112a0565b6040516102c39190611c2f565b60405180910390f35b3480156102d857600080fd5b506102f360048036038101906102ee9190611752565b6112ca565b6040516103009190611e40565b60405180910390f35b34801561031557600080fd5b50610330600480360381019061032b9190611752565b6112e7565b005b34801561033e57600080fd5b50610347611598565b6040516103549190611e40565b60405180910390f35b34801561036957600080fd5b50610384600480360381019061037f9190611752565b6115a0565b6040516103919190611caa565b60405180910390f35b3480156103a657600080fd5b506103c160048036038101906103bc9190611752565b6115ca565b6040516103ce9190611c2f565b60405180910390f35b60008054906101000a900473ffffffffffffffffffffffffffffffffffffffff1673ffffffffffffffffffffffffffffffffffffffff16636352211e826040518263ffffffff1660e01b81526004016104309190611e40565b60206040518083038186803b15801561044857600080fd5b505afa15801561045c573d6000803e3d6000fd5b505050506040513d601f19601f8201168201806040525081019061048091906116ae565b73ffffffffffffffffffffffffffffffffffffffff163373ffffffffffffffffffffffffffffffffffffffff16146104ed576040517f08c379a00000000000000000000000000000000000000000000000000000000081526004016104e490611d20565b60405180910390fd5b600015156002600083815260200190815260200160002060009054906101000a900460ff16151514610554576040517f08c379a000000000000000000000000000000000000000000000000000000000815260040161054b90611de0565b60405180910390fd5b60016002600083815260200190815260200160002060006101000a81548160ff02191690831515021790555060008054906101000a900473ffffffffffffffffffffffffffffffffffffffff1673ffffffffffffffffffffffffffffffffffffffff1663095ea7b330836040518363ffffffff1660e01b81526004016105db929190611c81565b600060405180830381600087803b1580156105f557600080fd5b505af1158015610609573d6000803e3d6000fd5b5050505061062833338360405180602001604052806000815250610d08565b5060008054906101000a900473ffffffffffffffffffffffffffffffffffffffff1673ffffffffffffffffffffffffffffffffffffffff166323b872dd3330846040518463ffffffff1660e01b815260040161068693929190611c4a565b600060405180830381600087803b1580156106a057600080fd5b505af11580156106b4573d6000803e3d6000fd5b5050505050565b600115156002600084815260200190815260200160002060009054906101000a900460ff16151514610722576040517f08c379a000000000000000000000000000000000000000000000000000000000815260040161071990611d60565b60405180910390fd5b60008054906101000a900473ffffffffffffffffffffffffffffffffffffffff1673ffffffffffffffffffffffffffffffffffffffff16636352211e826040518263ffffffff1660e01b815260040161077b9190611e40565b60206040518083038186803b15801561079357600080fd5b505afa1580156107a7573d6000803e3d6000fd5b505050506040513d601f19601f820116820180604052508101906107cb91906116ae565b73ffffffffffffffffffffffffffffffffffffffff163373ffffffffffffffffffffffffffffffffffffffff1614610838576040517f08c379a000000000000000000000000000000000000000000000000000000000815260040161082f90611ce0565b60405180910390fd5b61084181610a39565b60784261084e9190611ecd565b600360008481526020019081526020016000208190555060006002600084815260200190815260200160002060006101000a81548160ff021916908315150217905550336004600084815260200190815260200160002060006101000a81548173ffffffffffffffffffffffffffffffffffffffff021916908373ffffffffffffffffffffffffffffffffffffffff16021790555060008054906101000a900473ffffffffffffffffffffffffffffffffffffffff1673ffffffffffffffffffffffffffffffffffffffff1663095ea7b3600160009054906101000a900473ffffffffffffffffffffffffffffffffffffffff16846040518363ffffffff1660e01b8152600401610960929190611c81565b600060405180830381600087803b15801561097a57600080fd5b505af115801561098e573d6000803e3d6000fd5b5050505060008054906101000a900473ffffffffffffffffffffffffffffffffffffffff1673ffffffffffffffffffffffffffffffffffffffff166323b872dd3033856040518463ffffffff1660e01b81526004016109ef93929190611c4a565b600060405180830381600087803b158015610a0957600080fd5b505af1158015610a1d573d6000803e3d6000fd5b505050505050565b600063150b7a0260e01b9050949350505050565b60008054906101000a900473ffffffffffffffffffffffffffffffffffffffff1673ffffffffffffffffffffffffffffffffffffffff16636352211e826040518263ffffffff1660e01b8152600401610a929190611e40565b60206040518083038186803b158015610aaa57600080fd5b505afa158015610abe573d6000803e3d6000fd5b505050506040513d601f19601f82011682018060405250810190610ae291906116ae565b73ffffffffffffffffffffffffffffffffffffffff163373ffffffffffffffffffffffffffffffffffffffff1614610b4f576040517f08c379a0000000000000000000000000000000000000000000000000000000008152600401610b4690611dc0565b60405180910390fd5b336006600083815260200190815260200160002060006101000a81548173ffffffffffffffffffffffffffffffffffffffff021916908373ffffffffffffffffffffffffffffffffffffffff16021790555060016002600083815260200190815260200160002060006101000a81548160ff02191690831515021790555060008054906101000a900473ffffffffffffffffffffffffffffffffffffffff1673ffffffffffffffffffffffffffffffffffffffff1663095ea7b330836040518363ffffffff1660e01b8152600401610c28929190611c81565b600060405180830381600087803b158015610c4257600080fd5b505af1158015610c56573d6000803e3d6000fd5b50505050610c7533338360405180602001604052806000815250610d08565b5060008054906101000a900473ffffffffffffffffffffffffffffffffffffffff1673ffffffffffffffffffffffffffffffffffffffff166323b872dd3330846040518463ffffffff1660e01b8152600401610cd393929190611c4a565b600060405180830381600087803b158015610ced57600080fd5b505af1158015610d01573d6000803e3d6000fd5b5050505050565b6000610d1685858585610a25565b50949350505050565b60006006600083815260200190815260200160002060009054906101000a900473ffffffffffffffffffffffffffffffffffffffff169050919050565b6006600082815260200190815260200160002060009054906101000a900473ffffffffffffffffffffffffffffffffffffffff1673ffffffffffffffffffffffffffffffffffffffff163373ffffffffffffffffffffffffffffffffffffffff1614610dfd576040517f08c379a0000000000000000000000000000000000000000000000000000000008152600401610df490611da0565b60405180910390fd5b600115156002600083815260200190815260200160002060009054906101000a900460ff16151514610e64576040517f08c379a0000000000000000000000000000000000000000000000000000000008152600401610e5b90611de0565b60405180910390fd5b60006002600083815260200190815260200160002060006101000a81548160ff02191690831515021790555060008054906101000a900473ffffffffffffffffffffffffffffffffffffffff1673ffffffffffffffffffffffffffffffffffffffff166323b872dd3033846040518463ffffffff1660e01b8152600401610eed93929190611c4a565b600060405180830381600087803b158015610f0757600080fd5b505af1158015610f1b573d6000803e3d6000fd5b5050505050565b60008060009054906101000a900473ffffffffffffffffffffffffffffffffffffffff1673ffffffffffffffffffffffffffffffffffffffff16636352211e836040518263ffffffff1660e01b8152600401610f7e9190611e40565b60206040518083038186803b158015610f9657600080fd5b505afa158015610faa573d6000803e3d6000fd5b505050506040513d601f19601f82011682018060405250810190610fce91906116ae565b9050919050565b600015156002600083815260200190815260200160002060009054906101000a900460ff1615151461103c576040517f08c379a000000000000000000000000000000000000000000000000000000000815260040161103390611d00565b60405180910390fd5b600160009054906101000a900473ffffffffffffffffffffffffffffffffffffffff1673ffffffffffffffffffffffffffffffffffffffff163373ffffffffffffffffffffffffffffffffffffffff16146110cc576040517f08c379a00000000000000000000000000000000000000000000000000000000081526004016110c390611d80565b60405180910390fd5b600115156005600083815260200190815260200160002060009054906101000a900460ff16151514611133576040517f08c379a000000000000000000000000000000000000000000000000000000000815260040161112a90611e20565b60405180910390fd5b60008054906101000a900473ffffffffffffffffffffffffffffffffffffffff1673ffffffffffffffffffffffffffffffffffffffff166323b872dd60008054906101000a900473ffffffffffffffffffffffffffffffffffffffff1673ffffffffffffffffffffffffffffffffffffffff16636352211e846040518263ffffffff1660e01b81526004016111c89190611e40565b60206040518083038186803b1580156111e057600080fd5b505afa1580156111f4573d6000803e3d6000fd5b505050506040513d601f19601f8201168201806040525081019061121891906116ae565b6006600085815260200190815260200160002060009054906101000a900473ffffffffffffffffffffffffffffffffffffffff16846040518463ffffffff1660e01b815260040161126b93929190611c4a565b600060405180830381600087803b15801561128557600080fd5b505af1158015611299573d6000803e3d6000fd5b5050505050565b6000600160009054906101000a900473ffffffffffffffffffffffffffffffffffffffff16905090565b600060036000838152602001908152602001600020549050919050565b60008054906101000a900473ffffffffffffffffffffffffffffffffffffffff1673ffffffffffffffffffffffffffffffffffffffff16636352211e826040518263ffffffff1660e01b81526004016113409190611e40565b60206040518083038186803b15801561135857600080fd5b505afa15801561136c573d6000803e3d6000fd5b505050506040513d601f19601f8201168201806040525081019061139091906116ae565b73ffffffffffffffffffffffffffffffffffffffff163373ffffffffffffffffffffffffffffffffffffffff16146113fd576040517f08c379a00000000000000000000000000000000000000000000000000000000081526004016113f490611ce0565b60405180910390fd5b60036000828152602001908152602001600020544211611452576040517f08c379a000000000000000000000000000000000000000000000000000000000815260040161144990611e00565b60405180910390fd5b60008054906101000a900473ffffffffffffffffffffffffffffffffffffffff1673ffffffffffffffffffffffffffffffffffffffff16636352211e826040518263ffffffff1660e01b81526004016114ab9190611e40565b60206040518083038186803b1580156114c357600080fd5b505afa1580156114d7573d6000803e3d6000fd5b505050506040513d601f19601f820116820180604052508101906114fb91906116ae565b73ffffffffffffffffffffffffffffffffffffffff163373ffffffffffffffffffffffffffffffffffffffff161415611569576040517f08c379a000000000000000000000000000000000000000000000000000000000815260040161156090611d40565b60405180910390fd5b60016005600083815260200190815260200160002060006101000a81548160ff02191690831515021790555050565b600042905090565b60006002600083815260200190815260200160002060009054906101000a900460ff169050919050565b60006004600083815260200190815260200160002060009054906101000a900473ffffffffffffffffffffffffffffffffffffffff169050919050565b600061161a61161584611e8c565b611e5b565b90508281526020810184848401111561163257600080fd5b61163d848285611f97565b509392505050565b60008135905061165481612004565b92915050565b60008151905061166981612004565b92915050565b600082601f83011261168057600080fd5b8135611690848260208601611607565b91505092915050565b6000813590506116a88161201b565b92915050565b6000602082840312156116c057600080fd5b60006116ce8482850161165a565b91505092915050565b600080600080608085870312156116ed57600080fd5b60006116fb87828801611645565b945050602061170c87828801611645565b935050604061171d87828801611699565b925050606085013567ffffffffffffffff81111561173a57600080fd5b6117468782880161166f565b91505092959194509250565b60006020828403121561176457600080fd5b600061177284828501611699565b91505092915050565b6000806040838503121561178e57600080fd5b600061179c85828601611699565b92505060206117ad85828601611699565b9150509250929050565b6117c081611f23565b82525050565b6117cf81611f35565b82525050565b6117de81611f41565b82525050565b60006117f1602b83611ebc565b91507f596f7520617265206e6f7420746865206f776e6572206f662074686520636f6c60008301527f6c61746572616c204e46540000000000000000000000000000000000000000006020830152604082019050919050565b6000611857602583611ebc565b91507f50726f7669646564204e465420494420686173206e6f74206265656e20626f7260008301527f726f7765640000000000000000000000000000000000000000000000000000006020830152604082019050919050565b60006118bd602883611ebc565b91507f596f7520617265206e6f742074686520626f72726f776572206f662070726f7660008301527f69646564204e46540000000000000000000000000000000000000000000000006020830152604082019050919050565b6000611923603183611ebc565b91507f596f752063616e6e6f74207265706f73736573204e465420746861742069732060008301527f696e20796f757220706f73736573696f6e0000000000000000000000000000006020830152604082019050919050565b6000611989602383611ebc565b91507f54686973204e4654206973206e6f7420617661696c61626c6520746f20626f7260008301527f726f7700000000000000000000000000000000000000000000000000000000006020830152604082019050919050565b60006119ef603383611ebc565b91507f46756e6374696f6e2063616c6c6572206973206e6f74207468652070726f746f60008301527f636f6c2063726561746f722061646472657373000000000000000000000000006020830152604082019050919050565b6000611a55602a83611ebc565b91507f596f7520617265206e6f74207468652074727565206f776e6572206f6620707260008301527f6f7669646564204e4654000000000000000000000000000000000000000000006020830152604082019050919050565b6000611abb602183611ebc565b91507f596f7520617265206e6f7420746865206f776e6572206f662074686973204e4660008301527f54000000000000000000000000000000000000000000000000000000000000006020830152604082019050919050565b6000611b21602283611ebc565b91507f5468652070726f7669646564204e465420686173206265656e20626f72726f7760008301527f65640000000000000000000000000000000000000000000000000000000000006020830152604082019050919050565b6000611b87601f83611ebc565b91507f497420697320746f6f206561726c7920746f207265706f73736573204e4654006000830152602082019050919050565b6000611bc7603783611ebc565b91507f50726f746f636f6c20646f6573206e6f742068617665207065726d697373696f60008301527f6e20746f207265706f73736573732074686973204e46540000000000000000006020830152604082019050919050565b611c2981611f8d565b82525050565b6000602082019050611c4460008301846117b7565b92915050565b6000606082019050611c5f60008301866117b7565b611c6c60208301856117b7565b611c796040830184611c20565b949350505050565b6000604082019050611c9660008301856117b7565b611ca36020830184611c20565b9392505050565b6000602082019050611cbf60008301846117c6565b92915050565b6000602082019050611cda60008301846117d5565b92915050565b60006020820190508181036000830152611cf9816117e4565b9050919050565b60006020820190508181036000830152611d198161184a565b9050919050565b60006020820190508181036000830152611d39816118b0565b9050919050565b60006020820190508181036000830152611d5981611916565b9050919050565b60006020820190508181036000830152611d798161197c565b9050919050565b60006020820190508181036000830152611d99816119e2565b9050919050565b60006020820190508181036000830152611db981611a48565b9050919050565b60006020820190508181036000830152611dd981611aae565b9050919050565b60006020820190508181036000830152611df981611b14565b9050919050565b60006020820190508181036000830152611e1981611b7a565b9050919050565b60006020820190508181036000830152611e3981611bba565b9050919050565b6000602082019050611e556000830184611c20565b92915050565b6000604051905081810181811067ffffffffffffffff82111715611e8257611e81611fd5565b5b8060405250919050565b600067ffffffffffffffff821115611ea757611ea6611fd5565b5b601f19601f8301169050602081019050919050565b600082825260208201905092915050565b6000611ed882611f8d565b9150611ee383611f8d565b9250827fffffffffffffffffffffffffffffffffffffffffffffffffffffffffffffffff03821115611f1857611f17611fa6565b5b828201905092915050565b6000611f2e82611f6d565b9050919050565b60008115159050919050565b60007fffffffff0000000000000000000000000000000000000000000000000000000082169050919050565b600073ffffffffffffffffffffffffffffffffffffffff82169050919050565b6000819050919050565b82818337600083830152505050565b7f4e487b7100000000000000000000000000000000000000000000000000000000600052601160045260246000fd5b7f4e487b7100000000000000000000000000000000000000000000000000000000600052604160045260246000fd5b61200d81611f23565b811461201857600080fd5b50565b61202481611f8d565b811461202f57600080fd5b5056fea2646970667358221220833721b18ca52b49166f87b3fd5b34c869ac2076bccbf9814c412899768a4d2164736f6c63430008000033",
  "linkReferences": {},
  "deployedLinkReferences": {}
}