{
  "_format": "hh-sol-artifact-1",
  "contractName": "BorrowLendProtocol",
  "sourceName": "contracts/BorrowLendProtocol.sol",
  "abi": [
    {
      "inputs": [
        {
          "internalType": "uint256",
          "name": "_borrowingNftId",
          "type": "uint256"
        },
        {
          "internalType": "uint256",
          "name": "_collateralNftId",
          "type": "uint256"
        }
      ],
      "name": "borrowNft",
      "outputs": [],
      "stateMutability": "payable",
      "type": "function"
    },
    {
      "inputs": [
        {
          "internalType": "uint256",
          "name": "_nftId",
          "type": "uint256"
        }
      ],
      "name": "isNftAvailable",
      "outputs": [
        {
          "internalType": "bool",
          "name": "",
          "type": "bool"
        }
      ],
      "stateMutability": "view",
      "type": "function"
    },
    {
      "inputs": [
        {
          "internalType": "address",
          "name": "_from",
          "type": "address"
        },
        {
          "internalType": "address",
          "name": "_to",
          "type": "address"
        },
        {
          "internalType": "uint256",
          "name": "_nftId",
          "type": "uint256"
        }
      ],
      "name": "lendNft",
      "outputs": [],
      "stateMutability": "nonpayable",
      "type": "function"
    },
    {
      "inputs": [
        {
          "internalType": "uint256",
          "name": "_nftId",
          "type": "uint256"
        }
      ],
      "name": "nftBorrower",
      "outputs": [
        {
          "internalType": "address",
          "name": "",
          "type": "address"
        }
      ],
      "stateMutability": "view",
      "type": "function"
    },
    {
      "inputs": [
        {
          "internalType": "uint256",
          "name": "_nftId",
          "type": "uint256"
        }
      ],
      "name": "nftReturnWindow",
      "outputs": [
        {
          "internalType": "uint256",
          "name": "",
          "type": "uint256"
        }
      ],
      "stateMutability": "view",
      "type": "function"
    },
    {
      "inputs": [
        {
          "internalType": "uint256",
          "name": "_tokenId",
          "type": "uint256"
        }
      ],
      "name": "ownerOf",
      "outputs": [
        {
          "internalType": "address",
          "name": "",
          "type": "address"
        }
      ],
      "stateMutability": "view",
      "type": "function"
    }
  ],
  "bytecode": "0x6080604052735fbdb2315678afecb367f032d93f642f64180aa36000806101000a81548173ffffffffffffffffffffffffffffffffffffffff021916908373ffffffffffffffffffffffffffffffffffffffff16021790555034801561006457600080fd5b50610e51806100746000396000f3fe6080604052600436106100555760003560e01c806312a8b2111461005a5780632504fbf6146100765780636352211e1461009f578063a3efd008146100dc578063d710c9c114610119578063e88952bd14610156575b600080fd5b610074600480360381019061006f9190610986565b610193565b005b34801561008257600080fd5b5061009d6004803603810190610098919061090e565b6103e2565b005b3480156100ab57600080fd5b506100c660048036038101906100c1919061095d565b6106aa565b6040516100d39190610b5a565b60405180910390f35b3480156100e857600080fd5b5061010360048036038101906100fe919061095d565b61075d565b6040516101109190610c80565b60405180910390f35b34801561012557600080fd5b50610140600480360381019061013b919061095d565b61077a565b60405161014d9190610bd5565b60405180910390f35b34801561016257600080fd5b5061017d6004803603810190610178919061095d565b6107a4565b60405161018a9190610b5a565b60405180910390f35b600115156001600084815260200190815260200160002060009054906101000a900460ff161515146101fa576040517f08c379a00000000000000000000000000000000000000000000000000000000081526004016101f190610c20565b60405180910390fd5b60008054906101000a900473ffffffffffffffffffffffffffffffffffffffff1673ffffffffffffffffffffffffffffffffffffffff16636352211e826040518263ffffffff1660e01b81526004016102539190610c80565b60206040518083038186803b15801561026b57600080fd5b505afa15801561027f573d6000803e3d6000fd5b505050506040513d601f19601f820116820180604052508101906102a391906108e5565b73ffffffffffffffffffffffffffffffffffffffff163373ffffffffffffffffffffffffffffffffffffffff1614610310576040517f08c379a000000000000000000000000000000000000000000000000000000000815260040161030790610c40565b60405180910390fd5b6202a300600260008481526020019081526020016000208190555060008054906101000a900473ffffffffffffffffffffffffffffffffffffffff1673ffffffffffffffffffffffffffffffffffffffff166342842e0e3033856040518463ffffffff1660e01b815260040161038893929190610b75565b600060405180830381600087803b1580156103a257600080fd5b505af11580156103b6573d6000803e3d6000fd5b50505050600015156001600084815260200190815260200160002060009054906101000a905050505050565b60008054906101000a900473ffffffffffffffffffffffffffffffffffffffff1673ffffffffffffffffffffffffffffffffffffffff16636352211e826040518263ffffffff1660e01b815260040161043b9190610c80565b60206040518083038186803b15801561045357600080fd5b505afa158015610467573d6000803e3d6000fd5b505050506040513d601f19601f8201168201806040525081019061048b91906108e5565b73ffffffffffffffffffffffffffffffffffffffff163373ffffffffffffffffffffffffffffffffffffffff16146104f8576040517f08c379a00000000000000000000000000000000000000000000000000000000081526004016104ef90610c60565b60405180910390fd5b61051a604051806080016040528060438152602001610d7260439139846107e1565b61053c604051806080016040528060418152602001610db560419139836107e1565b61055e604051806060016040528060268152602001610df660269139306107e1565b600180600083815260200190815260200160002060006101000a81548160ff02191690831515021790555060008054906101000a900473ffffffffffffffffffffffffffffffffffffffff1673ffffffffffffffffffffffffffffffffffffffff1663095ea7b383836040518363ffffffff1660e01b81526004016105e4929190610bac565b600060405180830381600087803b1580156105fe57600080fd5b505af1158015610612573d6000803e3d6000fd5b5050505060008054906101000a900473ffffffffffffffffffffffffffffffffffffffff1673ffffffffffffffffffffffffffffffffffffffff166323b872dd8484846040518463ffffffff1660e01b815260040161067393929190610b75565b600060405180830381600087803b15801561068d57600080fd5b505af11580156106a1573d6000803e3d6000fd5b50505050505050565b60008060009054906101000a900473ffffffffffffffffffffffffffffffffffffffff1673ffffffffffffffffffffffffffffffffffffffff16636352211e836040518263ffffffff1660e01b81526004016107069190610c80565b60206040518083038186803b15801561071e57600080fd5b505afa158015610732573d6000803e3d6000fd5b505050506040513d601f19601f8201168201806040525081019061075691906108e5565b9050919050565b600060026000838152602001908152602001600020549050919050565b60006001600083815260200190815260200160002060009054906101000a900460ff169050919050565b60006003600083815260200190815260200160002060009054906101000a900473ffffffffffffffffffffffffffffffffffffffff169050919050565b61087982826040516024016107f7929190610bf0565b6040516020818303038152906040527f319af333000000000000000000000000000000000000000000000000000000007bffffffffffffffffffffffffffffffffffffffffffffffffffffffff19166020820180517bffffffffffffffffffffffffffffffffffffffffffffffffffffffff838183161783525050505061087d565b5050565b60008151905060006a636f6e736f6c652e6c6f679050602083016000808483855afa5050505050565b6000813590506108b581610d43565b92915050565b6000815190506108ca81610d43565b92915050565b6000813590506108df81610d5a565b92915050565b6000602082840312156108f757600080fd5b6000610905848285016108bb565b91505092915050565b60008060006060848603121561092357600080fd5b6000610931868287016108a6565b9350506020610942868287016108a6565b9250506040610953868287016108d0565b9150509250925092565b60006020828403121561096f57600080fd5b600061097d848285016108d0565b91505092915050565b6000806040838503121561099957600080fd5b60006109a7858286016108d0565b92505060206109b8858286016108d0565b9150509250929050565b6109cb81610cb7565b82525050565b6109da81610cc9565b82525050565b60006109eb82610c9b565b6109f58185610ca6565b9350610a05818560208601610cff565b610a0e81610d32565b840191505092915050565b6000610a26602483610ca6565b91507f54686973204e4654206973206e6f7420617661696c61626c6520746f20626f7260008301527f726f772e000000000000000000000000000000000000000000000000000000006020830152604082019050919050565b6000610a8c602c83610ca6565b91507f596f7520617265206e6f7420746865206f776e6572206f662074686520636f6c60008301527f6c61746572616c204e46542e00000000000000000000000000000000000000006020830152604082019050919050565b6000610af2602283610ca6565b91507f596f7520617265206e6f7420746865206f776e6572206f662074686973204e4660008301527f542e0000000000000000000000000000000000000000000000000000000000006020830152604082019050919050565b610b5481610cf5565b82525050565b6000602082019050610b6f60008301846109c2565b92915050565b6000606082019050610b8a60008301866109c2565b610b9760208301856109c2565b610ba46040830184610b4b565b949350505050565b6000604082019050610bc160008301856109c2565b610bce6020830184610b4b565b9392505050565b6000602082019050610bea60008301846109d1565b92915050565b60006040820190508181036000830152610c0a81856109e0565b9050610c1960208301846109c2565b9392505050565b60006020820190508181036000830152610c3981610a19565b9050919050565b60006020820190508181036000830152610c5981610a7f565b9050919050565b60006020820190508181036000830152610c7981610ae5565b9050919050565b6000602082019050610c956000830184610b4b565b92915050565b600081519050919050565b600082825260208201905092915050565b6000610cc282610cd5565b9050919050565b60008115159050919050565b600073ffffffffffffffffffffffffffffffffffffffff82169050919050565b6000819050919050565b60005b83811015610d1d578082015181840152602081019050610d02565b83811115610d2c576000848401525b50505050565b6000601f19601f8301169050919050565b610d4c81610cb7565b8114610d5757600080fd5b50565b610d6381610cf5565b8114610d6e57600080fd5b5056fe546865205f66726f6d20706172616d65746572206f6620746865206c656e644e66742063616c6c20696e20426f72726f774c656e6450726f746f636c2069733a202573546865205f746f20706172616d65746572206f6620746865206c656e644e66742063616c6c20696e20426f72726f774c656e6450726f746f636c2069733a20257354686520426f72726f774c656e6420636f6e747261637420616464726573732069733a202573a2646970667358221220d6111bc0a3fdb15870dc76ed9af62c3f9040e3cf3e5141a443685b536f8a60fb64736f6c63430008000033",
  "linkReferences": {},
  "deployedLinkReferences": {}
}