{
  "_format": "hh-sol-artifact-1",
  "contractName": "BorrowLendProtocol",
  "sourceName": "contracts/BorrowLendProtocol.sol",
  "abi": [
    {
      "inputs": [
        {
          "internalType": "uint256",
          "name": "_borrowingNftId",
          "type": "uint256"
        },
        {
          "internalType": "uint256",
          "name": "_collateralNftId",
          "type": "uint256"
        }
      ],
      "name": "borrowNft",
      "outputs": [],
      "stateMutability": "payable",
      "type": "function"
    },
    {
      "inputs": [
        {
          "internalType": "uint256",
          "name": "_nftId",
          "type": "uint256"
        }
      ],
      "name": "isNftAvailable",
      "outputs": [
        {
          "internalType": "bool",
          "name": "",
          "type": "bool"
        }
      ],
      "stateMutability": "view",
      "type": "function"
    },
    {
      "inputs": [
        {
          "internalType": "address",
          "name": "_to",
          "type": "address"
        },
        {
          "internalType": "uint256",
          "name": "_nftId",
          "type": "uint256"
        }
      ],
      "name": "lendNft",
      "outputs": [],
      "stateMutability": "nonpayable",
      "type": "function"
    },
    {
      "inputs": [
        {
          "internalType": "uint256",
          "name": "_nftId",
          "type": "uint256"
        }
      ],
      "name": "nftBorrower",
      "outputs": [
        {
          "internalType": "address",
          "name": "",
          "type": "address"
        }
      ],
      "stateMutability": "view",
      "type": "function"
    },
    {
      "inputs": [
        {
          "internalType": "uint256",
          "name": "_nftId",
          "type": "uint256"
        }
      ],
      "name": "nftReturnWindow",
      "outputs": [
        {
          "internalType": "uint256",
          "name": "",
          "type": "uint256"
        }
      ],
      "stateMutability": "view",
      "type": "function"
    },
    {
      "inputs": [
        {
          "internalType": "address",
          "name": "",
          "type": "address"
        },
        {
          "internalType": "address",
          "name": "",
          "type": "address"
        },
        {
          "internalType": "uint256",
          "name": "",
          "type": "uint256"
        },
        {
          "internalType": "bytes",
          "name": "",
          "type": "bytes"
        }
      ],
      "name": "onERC721Received",
      "outputs": [
        {
          "internalType": "bytes4",
          "name": "",
          "type": "bytes4"
        }
      ],
      "stateMutability": "nonpayable",
      "type": "function"
    },
    {
      "inputs": [
        {
          "internalType": "address",
          "name": "operator",
          "type": "address"
        },
        {
          "internalType": "address",
          "name": "from",
          "type": "address"
        },
        {
          "internalType": "uint256",
          "name": "tokenId",
          "type": "uint256"
        },
        {
          "internalType": "bytes",
          "name": "data",
          "type": "bytes"
        }
      ],
      "name": "onERC721ReceivedToProtocol",
      "outputs": [
        {
          "internalType": "bytes4",
          "name": "",
          "type": "bytes4"
        }
      ],
      "stateMutability": "nonpayable",
      "type": "function"
    },
    {
      "inputs": [
        {
          "internalType": "uint256",
          "name": "_tokenId",
          "type": "uint256"
        }
      ],
      "name": "ownerOf",
      "outputs": [
        {
          "internalType": "address",
          "name": "",
          "type": "address"
        }
      ],
      "stateMutability": "view",
      "type": "function"
    }
  ],
  "bytecode": "0x6080604052735fbdb2315678afecb367f032d93f642f64180aa36000806101000a81548173ffffffffffffffffffffffffffffffffffffffff021916908373ffffffffffffffffffffffffffffffffffffffff16021790555034801561006457600080fd5b50610e6f806100746000396000f3fe60806040526004361061007b5760003560e01c8063a3efd0081161004e578063a3efd00814610153578063d710c9c114610190578063e88952bd146101cd578063f1dfeae91461020a5761007b565b806312a8b21114610080578063150b7a021461009c5780634effdda0146100d95780636352211e14610116575b600080fd5b61009a60048036038101906100959190610a11565b610233565b005b3480156100a857600080fd5b506100c360048036038101906100be9190610931565b610482565b6040516100d09190610c51565b60405180910390f35b3480156100e557600080fd5b5061010060048036038101906100fb9190610931565b610496565b60405161010d9190610c51565b60405180910390f35b34801561012257600080fd5b5061013d600480360381019061013891906109e8565b6104ad565b60405161014a9190610bbb565b60405180910390f35b34801561015f57600080fd5b5061017a600480360381019061017591906109e8565b610560565b6040516101879190610ccc565b60405180910390f35b34801561019c57600080fd5b506101b760048036038101906101b291906109e8565b61057d565b6040516101c49190610c36565b60405180910390f35b3480156101d957600080fd5b506101f460048036038101906101ef91906109e8565b6105a7565b6040516102019190610bbb565b60405180910390f35b34801561021657600080fd5b50610231600480360381019061022c91906109ac565b6105e4565b005b600115156001600084815260200190815260200160002060009054906101000a900460ff1615151461029a576040517f08c379a000000000000000000000000000000000000000000000000000000000815260040161029190610c6c565b60405180910390fd5b60008054906101000a900473ffffffffffffffffffffffffffffffffffffffff1673ffffffffffffffffffffffffffffffffffffffff16636352211e826040518263ffffffff1660e01b81526004016102f39190610ccc565b60206040518083038186803b15801561030b57600080fd5b505afa15801561031f573d6000803e3d6000fd5b505050506040513d601f19601f820116820180604052508101906103439190610908565b73ffffffffffffffffffffffffffffffffffffffff163373ffffffffffffffffffffffffffffffffffffffff16146103b0576040517f08c379a00000000000000000000000000000000000000000000000000000000081526004016103a790610c8c565b60405180910390fd5b6202a300600260008481526020019081526020016000208190555060008054906101000a900473ffffffffffffffffffffffffffffffffffffffff1673ffffffffffffffffffffffffffffffffffffffff166342842e0e3033856040518463ffffffff1660e01b815260040161042893929190610bd6565b600060405180830381600087803b15801561044257600080fd5b505af1158015610456573d6000803e3d6000fd5b50505050600015156001600084815260200190815260200160002060009054906101000a905050505050565b600063150b7a0260e01b9050949350505050565b60006104a485858585610482565b50949350505050565b60008060009054906101000a900473ffffffffffffffffffffffffffffffffffffffff1673ffffffffffffffffffffffffffffffffffffffff16636352211e836040518263ffffffff1660e01b81526004016105099190610ccc565b60206040518083038186803b15801561052157600080fd5b505afa158015610535573d6000803e3d6000fd5b505050506040513d601f19601f820116820180604052508101906105599190610908565b9050919050565b600060026000838152602001908152602001600020549050919050565b60006001600083815260200190815260200160002060009054906101000a900460ff169050919050565b60006003600083815260200190815260200160002060009054906101000a900473ffffffffffffffffffffffffffffffffffffffff169050919050565b60008054906101000a900473ffffffffffffffffffffffffffffffffffffffff1673ffffffffffffffffffffffffffffffffffffffff16636352211e826040518263ffffffff1660e01b815260040161063d9190610ccc565b60206040518083038186803b15801561065557600080fd5b505afa158015610669573d6000803e3d6000fd5b505050506040513d601f19601f8201168201806040525081019061068d9190610908565b73ffffffffffffffffffffffffffffffffffffffff163373ffffffffffffffffffffffffffffffffffffffff16146106fa576040517f08c379a00000000000000000000000000000000000000000000000000000000081526004016106f190610cac565b60405180910390fd5b600180600083815260200190815260200160002060006101000a81548160ff02191690831515021790555060008054906101000a900473ffffffffffffffffffffffffffffffffffffffff1673ffffffffffffffffffffffffffffffffffffffff1663095ea7b383836040518363ffffffff1660e01b8152600401610780929190610c0d565b600060405180830381600087803b15801561079a57600080fd5b505af11580156107ae573d6000803e3d6000fd5b505050506107cd33338360405180602001604052806000815250610496565b5060008054906101000a900473ffffffffffffffffffffffffffffffffffffffff1673ffffffffffffffffffffffffffffffffffffffff166323b872dd3330846040518463ffffffff1660e01b815260040161082b93929190610bd6565b600060405180830381600087803b15801561084557600080fd5b505af1158015610859573d6000803e3d6000fd5b505050505050565b600061087461086f84610d18565b610ce7565b90508281526020810184848401111561088c57600080fd5b610897848285610dcd565b509392505050565b6000813590506108ae81610e0b565b92915050565b6000815190506108c381610e0b565b92915050565b600082601f8301126108da57600080fd5b81356108ea848260208601610861565b91505092915050565b60008135905061090281610e22565b92915050565b60006020828403121561091a57600080fd5b6000610928848285016108b4565b91505092915050565b6000806000806080858703121561094757600080fd5b60006109558782880161089f565b94505060206109668782880161089f565b9350506040610977878288016108f3565b925050606085013567ffffffffffffffff81111561099457600080fd5b6109a0878288016108c9565b91505092959194509250565b600080604083850312156109bf57600080fd5b60006109cd8582860161089f565b92505060206109de858286016108f3565b9150509250929050565b6000602082840312156109fa57600080fd5b6000610a08848285016108f3565b91505092915050565b60008060408385031215610a2457600080fd5b6000610a32858286016108f3565b9250506020610a43858286016108f3565b9150509250929050565b610a5681610d59565b82525050565b610a6581610d6b565b82525050565b610a7481610d77565b82525050565b6000610a87602483610d48565b91507f54686973204e4654206973206e6f7420617661696c61626c6520746f20626f7260008301527f726f772e000000000000000000000000000000000000000000000000000000006020830152604082019050919050565b6000610aed602c83610d48565b91507f596f7520617265206e6f7420746865206f776e6572206f662074686520636f6c60008301527f6c61746572616c204e46542e00000000000000000000000000000000000000006020830152604082019050919050565b6000610b53602283610d48565b91507f596f7520617265206e6f7420746865206f776e6572206f662074686973204e4660008301527f542e0000000000000000000000000000000000000000000000000000000000006020830152604082019050919050565b610bb581610dc3565b82525050565b6000602082019050610bd06000830184610a4d565b92915050565b6000606082019050610beb6000830186610a4d565b610bf86020830185610a4d565b610c056040830184610bac565b949350505050565b6000604082019050610c226000830185610a4d565b610c2f6020830184610bac565b9392505050565b6000602082019050610c4b6000830184610a5c565b92915050565b6000602082019050610c666000830184610a6b565b92915050565b60006020820190508181036000830152610c8581610a7a565b9050919050565b60006020820190508181036000830152610ca581610ae0565b9050919050565b60006020820190508181036000830152610cc581610b46565b9050919050565b6000602082019050610ce16000830184610bac565b92915050565b6000604051905081810181811067ffffffffffffffff82111715610d0e57610d0d610ddc565b5b8060405250919050565b600067ffffffffffffffff821115610d3357610d32610ddc565b5b601f19601f8301169050602081019050919050565b600082825260208201905092915050565b6000610d6482610da3565b9050919050565b60008115159050919050565b60007fffffffff0000000000000000000000000000000000000000000000000000000082169050919050565b600073ffffffffffffffffffffffffffffffffffffffff82169050919050565b6000819050919050565b82818337600083830152505050565b7f4e487b7100000000000000000000000000000000000000000000000000000000600052604160045260246000fd5b610e1481610d59565b8114610e1f57600080fd5b50565b610e2b81610dc3565b8114610e3657600080fd5b5056fea26469706673582212204ae3093c8b7e03f7e76496cebb53e73c69500a52aead576a928d4f77c19fb0e064736f6c63430008000033",
  "linkReferences": {},
  "deployedLinkReferences": {}
}