{
  "_format": "hh-sol-artifact-1",
  "contractName": "BorrowLendProtocol",
  "sourceName": "contracts/BorrowLendProtocol.sol",
  "abi": [
    {
      "inputs": [
        {
          "internalType": "uint256",
          "name": "_borrowingNftId",
          "type": "uint256"
        },
        {
          "internalType": "uint256",
          "name": "_collateralNftId",
          "type": "uint256"
        }
      ],
      "name": "borrowNft",
      "outputs": [],
      "stateMutability": "payable",
      "type": "function"
    },
    {
      "inputs": [
        {
          "internalType": "uint256",
          "name": "_nftId",
          "type": "uint256"
        }
      ],
      "name": "isNftAvailable",
      "outputs": [
        {
          "internalType": "bool",
          "name": "",
          "type": "bool"
        }
      ],
      "stateMutability": "view",
      "type": "function"
    },
    {
      "inputs": [
        {
          "internalType": "uint256",
          "name": "_nftId",
          "type": "uint256"
        }
      ],
      "name": "lendNft",
      "outputs": [],
      "stateMutability": "nonpayable",
      "type": "function"
    },
    {
      "inputs": [
        {
          "internalType": "uint256",
          "name": "_nftId",
          "type": "uint256"
        }
      ],
      "name": "nftBorrower",
      "outputs": [
        {
          "internalType": "address",
          "name": "",
          "type": "address"
        }
      ],
      "stateMutability": "view",
      "type": "function"
    },
    {
      "inputs": [
        {
          "internalType": "uint256",
          "name": "_nftId",
          "type": "uint256"
        }
      ],
      "name": "nftReturnWindow",
      "outputs": [
        {
          "internalType": "uint256",
          "name": "",
          "type": "uint256"
        }
      ],
      "stateMutability": "view",
      "type": "function"
    },
    {
      "inputs": [
        {
          "internalType": "uint256",
          "name": "_tokenId",
          "type": "uint256"
        }
      ],
      "name": "ownerOf",
      "outputs": [
        {
          "internalType": "address",
          "name": "",
          "type": "address"
        }
      ],
      "stateMutability": "view",
      "type": "function"
    }
  ],
  "bytecode": "0x6080604052735fbdb2315678afecb367f032d93f642f64180aa36000806101000a81548173ffffffffffffffffffffffffffffffffffffffff021916908373ffffffffffffffffffffffffffffffffffffffff16021790555034801561006457600080fd5b50610aa8806100746000396000f3fe6080604052600436106100555760003560e01c806312a8b2111461005a57806345079f4f146100765780636352211e1461009f578063a3efd008146100dc578063d710c9c114610119578063e88952bd14610156575b600080fd5b610074600480360381019061006f9190610768565b610193565b005b34801561008257600080fd5b5061009d6004803603810190610098919061073f565b6103e2565b005b3480156100ab57600080fd5b506100c660048036038101906100c1919061073f565b6105b5565b6040516100d39190610903565b60405180910390f35b3480156100e857600080fd5b5061010360048036038101906100fe919061073f565b610668565b60405161011091906109d0565b60405180910390f35b34801561012557600080fd5b50610140600480360381019061013b919061073f565b610685565b60405161014d9190610955565b60405180910390f35b34801561016257600080fd5b5061017d6004803603810190610178919061073f565b6106af565b60405161018a9190610903565b60405180910390f35b600115156001600084815260200190815260200160002060009054906101000a900460ff161515146101fa576040517f08c379a00000000000000000000000000000000000000000000000000000000081526004016101f190610970565b60405180910390fd5b60008054906101000a900473ffffffffffffffffffffffffffffffffffffffff1673ffffffffffffffffffffffffffffffffffffffff16636352211e826040518263ffffffff1660e01b815260040161025391906109d0565b60206040518083038186803b15801561026b57600080fd5b505afa15801561027f573d6000803e3d6000fd5b505050506040513d601f19601f820116820180604052508101906102a39190610716565b73ffffffffffffffffffffffffffffffffffffffff163373ffffffffffffffffffffffffffffffffffffffff1614610310576040517f08c379a000000000000000000000000000000000000000000000000000000000815260040161030790610990565b60405180910390fd5b6202a300600260008481526020019081526020016000208190555060008054906101000a900473ffffffffffffffffffffffffffffffffffffffff1673ffffffffffffffffffffffffffffffffffffffff166342842e0e3033856040518463ffffffff1660e01b81526004016103889392919061091e565b600060405180830381600087803b1580156103a257600080fd5b505af11580156103b6573d6000803e3d6000fd5b50505050600015156001600084815260200190815260200160002060009054906101000a905050505050565b60008054906101000a900473ffffffffffffffffffffffffffffffffffffffff1673ffffffffffffffffffffffffffffffffffffffff16636352211e826040518263ffffffff1660e01b815260040161043b91906109d0565b60206040518083038186803b15801561045357600080fd5b505afa158015610467573d6000803e3d6000fd5b505050506040513d601f19601f8201168201806040525081019061048b9190610716565b73ffffffffffffffffffffffffffffffffffffffff163373ffffffffffffffffffffffffffffffffffffffff16146104f8576040517f08c379a00000000000000000000000000000000000000000000000000000000081526004016104ef906109b0565b60405180910390fd5b600180600083815260200190815260200160002060006101000a81548160ff02191690831515021790555060008054906101000a900473ffffffffffffffffffffffffffffffffffffffff1673ffffffffffffffffffffffffffffffffffffffff166342842e0e3330846040518463ffffffff1660e01b81526004016105809392919061091e565b600060405180830381600087803b15801561059a57600080fd5b505af11580156105ae573d6000803e3d6000fd5b5050505050565b60008060009054906101000a900473ffffffffffffffffffffffffffffffffffffffff1673ffffffffffffffffffffffffffffffffffffffff16636352211e836040518263ffffffff1660e01b815260040161061191906109d0565b60206040518083038186803b15801561062957600080fd5b505afa15801561063d573d6000803e3d6000fd5b505050506040513d601f19601f820116820180604052508101906106619190610716565b9050919050565b600060026000838152602001908152602001600020549050919050565b60006001600083815260200190815260200160002060009054906101000a900460ff169050919050565b60006003600083815260200190815260200160002060009054906101000a900473ffffffffffffffffffffffffffffffffffffffff169050919050565b6000815190506106fb81610a44565b92915050565b60008135905061071081610a5b565b92915050565b60006020828403121561072857600080fd5b6000610736848285016106ec565b91505092915050565b60006020828403121561075157600080fd5b600061075f84828501610701565b91505092915050565b6000806040838503121561077b57600080fd5b600061078985828601610701565b925050602061079a85828601610701565b9150509250929050565b6107ad816109fc565b82525050565b6107bc81610a0e565b82525050565b60006107cf6024836109eb565b91507f54686973204e4654206973206e6f7420617661696c61626c6520746f20626f7260008301527f726f772e000000000000000000000000000000000000000000000000000000006020830152604082019050919050565b6000610835602c836109eb565b91507f596f7520617265206e6f7420746865206f776e6572206f662074686520636f6c60008301527f6c61746572616c204e46542e00000000000000000000000000000000000000006020830152604082019050919050565b600061089b6022836109eb565b91507f596f7520617265206e6f7420746865206f776e6572206f662074686973204e4660008301527f542e0000000000000000000000000000000000000000000000000000000000006020830152604082019050919050565b6108fd81610a3a565b82525050565b600060208201905061091860008301846107a4565b92915050565b600060608201905061093360008301866107a4565b61094060208301856107a4565b61094d60408301846108f4565b949350505050565b600060208201905061096a60008301846107b3565b92915050565b60006020820190508181036000830152610989816107c2565b9050919050565b600060208201905081810360008301526109a981610828565b9050919050565b600060208201905081810360008301526109c98161088e565b9050919050565b60006020820190506109e560008301846108f4565b92915050565b600082825260208201905092915050565b6000610a0782610a1a565b9050919050565b60008115159050919050565b600073ffffffffffffffffffffffffffffffffffffffff82169050919050565b6000819050919050565b610a4d816109fc565b8114610a5857600080fd5b50565b610a6481610a3a565b8114610a6f57600080fd5b5056fea26469706673582212202a2590a0d9f70d63e683c1c215d0db6eb8528b17e136e0867a6e1148e1dc738e64736f6c63430008000033",
  "linkReferences": {},
  "deployedLinkReferences": {}
}