{
  "_format": "hh-sol-artifact-1",
  "contractName": "BorrowLendProtocol",
  "sourceName": "contracts/BorrowLendProtocol.sol",
  "abi": [
    {
      "inputs": [
        {
          "internalType": "uint256",
          "name": "_borrowingNftId",
          "type": "uint256"
        },
        {
          "internalType": "uint256",
          "name": "_collateralNftId",
          "type": "uint256"
        }
      ],
      "name": "borrowNft",
      "outputs": [],
      "stateMutability": "payable",
      "type": "function"
    },
    {
      "inputs": [
        {
          "internalType": "uint256",
          "name": "_nftId",
          "type": "uint256"
        }
      ],
      "name": "isNftAvailable",
      "outputs": [
        {
          "internalType": "bool",
          "name": "",
          "type": "bool"
        }
      ],
      "stateMutability": "view",
      "type": "function"
    },
    {
      "inputs": [
        {
          "internalType": "address",
          "name": "_to",
          "type": "address"
        },
        {
          "internalType": "uint256",
          "name": "_nftId",
          "type": "uint256"
        }
      ],
      "name": "lendNft",
      "outputs": [],
      "stateMutability": "nonpayable",
      "type": "function"
    },
    {
      "inputs": [
        {
          "internalType": "uint256",
          "name": "_nftId",
          "type": "uint256"
        }
      ],
      "name": "nftBorrower",
      "outputs": [
        {
          "internalType": "address",
          "name": "",
          "type": "address"
        }
      ],
      "stateMutability": "view",
      "type": "function"
    },
    {
      "inputs": [
        {
          "internalType": "uint256",
          "name": "_nftId",
          "type": "uint256"
        }
      ],
      "name": "nftReturnWindow",
      "outputs": [
        {
          "internalType": "uint256",
          "name": "",
          "type": "uint256"
        }
      ],
      "stateMutability": "view",
      "type": "function"
    },
    {
      "inputs": [
        {
          "internalType": "address",
          "name": "",
          "type": "address"
        },
        {
          "internalType": "address",
          "name": "",
          "type": "address"
        },
        {
          "internalType": "uint256",
          "name": "",
          "type": "uint256"
        },
        {
          "internalType": "bytes",
          "name": "",
          "type": "bytes"
        }
      ],
      "name": "onERC721Received",
      "outputs": [
        {
          "internalType": "bytes4",
          "name": "",
          "type": "bytes4"
        }
      ],
      "stateMutability": "nonpayable",
      "type": "function"
    },
    {
      "inputs": [
        {
          "internalType": "address",
          "name": "operator",
          "type": "address"
        },
        {
          "internalType": "address",
          "name": "from",
          "type": "address"
        },
        {
          "internalType": "uint256",
          "name": "tokenId",
          "type": "uint256"
        },
        {
          "internalType": "bytes",
          "name": "data",
          "type": "bytes"
        }
      ],
      "name": "onERC721ReceivedToProtocol",
      "outputs": [
        {
          "internalType": "bytes4",
          "name": "",
          "type": "bytes4"
        }
      ],
      "stateMutability": "nonpayable",
      "type": "function"
    },
    {
      "inputs": [
        {
          "internalType": "uint256",
          "name": "_tokenId",
          "type": "uint256"
        }
      ],
      "name": "ownerOf",
      "outputs": [
        {
          "internalType": "address",
          "name": "",
          "type": "address"
        }
      ],
      "stateMutability": "view",
      "type": "function"
    }
  ],
  "bytecode": "0x6080604052735fbdb2315678afecb367f032d93f642f64180aa36000806101000a81548173ffffffffffffffffffffffffffffffffffffffff021916908373ffffffffffffffffffffffffffffffffffffffff16021790555034801561006457600080fd5b50610e81806100746000396000f3fe60806040526004361061007b5760003560e01c8063a3efd0081161004e578063a3efd00814610153578063d710c9c114610190578063e88952bd146101cd578063f1dfeae91461020a5761007b565b806312a8b21114610080578063150b7a021461009c5780634effdda0146100d95780636352211e14610116575b600080fd5b61009a60048036038101906100959190610a23565b610233565b005b3480156100a857600080fd5b506100c360048036038101906100be9190610943565b610494565b6040516100d09190610c63565b60405180910390f35b3480156100e557600080fd5b5061010060048036038101906100fb9190610943565b6104a8565b60405161010d9190610c63565b60405180910390f35b34801561012257600080fd5b5061013d600480360381019061013891906109fa565b6104bf565b60405161014a9190610bcd565b60405180910390f35b34801561015f57600080fd5b5061017a600480360381019061017591906109fa565b610572565b6040516101879190610cde565b60405180910390f35b34801561019c57600080fd5b506101b760048036038101906101b291906109fa565b61058f565b6040516101c49190610c48565b60405180910390f35b3480156101d957600080fd5b506101f460048036038101906101ef91906109fa565b6105b9565b6040516102019190610bcd565b60405180910390f35b34801561021657600080fd5b50610231600480360381019061022c91906109be565b6105f6565b005b600115156001600084815260200190815260200160002060009054906101000a900460ff1615151461029a576040517f08c379a000000000000000000000000000000000000000000000000000000000815260040161029190610c7e565b60405180910390fd5b60008054906101000a900473ffffffffffffffffffffffffffffffffffffffff1673ffffffffffffffffffffffffffffffffffffffff16636352211e826040518263ffffffff1660e01b81526004016102f39190610cde565b60206040518083038186803b15801561030b57600080fd5b505afa15801561031f573d6000803e3d6000fd5b505050506040513d601f19601f82011682018060405250810190610343919061091a565b73ffffffffffffffffffffffffffffffffffffffff163373ffffffffffffffffffffffffffffffffffffffff16146103b0576040517f08c379a00000000000000000000000000000000000000000000000000000000081526004016103a790610c9e565b60405180910390fd5b6103ba30826105f6565b6202a300600260008481526020019081526020016000208190555060006001600084815260200190815260200160002060006101000a81548160ff02191690831515021790555060008054906101000a900473ffffffffffffffffffffffffffffffffffffffff1673ffffffffffffffffffffffffffffffffffffffff166323b872dd3033856040518463ffffffff1660e01b815260040161045e93929190610be8565b600060405180830381600087803b15801561047857600080fd5b505af115801561048c573d6000803e3d6000fd5b505050505050565b600063150b7a0260e01b9050949350505050565b60006104b685858585610494565b50949350505050565b60008060009054906101000a900473ffffffffffffffffffffffffffffffffffffffff1673ffffffffffffffffffffffffffffffffffffffff16636352211e836040518263ffffffff1660e01b815260040161051b9190610cde565b60206040518083038186803b15801561053357600080fd5b505afa158015610547573d6000803e3d6000fd5b505050506040513d601f19601f8201168201806040525081019061056b919061091a565b9050919050565b600060026000838152602001908152602001600020549050919050565b60006001600083815260200190815260200160002060009054906101000a900460ff169050919050565b60006003600083815260200190815260200160002060009054906101000a900473ffffffffffffffffffffffffffffffffffffffff169050919050565b60008054906101000a900473ffffffffffffffffffffffffffffffffffffffff1673ffffffffffffffffffffffffffffffffffffffff16636352211e826040518263ffffffff1660e01b815260040161064f9190610cde565b60206040518083038186803b15801561066757600080fd5b505afa15801561067b573d6000803e3d6000fd5b505050506040513d601f19601f8201168201806040525081019061069f919061091a565b73ffffffffffffffffffffffffffffffffffffffff163373ffffffffffffffffffffffffffffffffffffffff161461070c576040517f08c379a000000000000000000000000000000000000000000000000000000000815260040161070390610cbe565b60405180910390fd5b600180600083815260200190815260200160002060006101000a81548160ff02191690831515021790555060008054906101000a900473ffffffffffffffffffffffffffffffffffffffff1673ffffffffffffffffffffffffffffffffffffffff1663095ea7b383836040518363ffffffff1660e01b8152600401610792929190610c1f565b600060405180830381600087803b1580156107ac57600080fd5b505af11580156107c0573d6000803e3d6000fd5b505050506107df333383604051806020016040528060008152506104a8565b5060008054906101000a900473ffffffffffffffffffffffffffffffffffffffff1673ffffffffffffffffffffffffffffffffffffffff166323b872dd3330846040518463ffffffff1660e01b815260040161083d93929190610be8565b600060405180830381600087803b15801561085757600080fd5b505af115801561086b573d6000803e3d6000fd5b505050505050565b600061088661088184610d2a565b610cf9565b90508281526020810184848401111561089e57600080fd5b6108a9848285610ddf565b509392505050565b6000813590506108c081610e1d565b92915050565b6000815190506108d581610e1d565b92915050565b600082601f8301126108ec57600080fd5b81356108fc848260208601610873565b91505092915050565b60008135905061091481610e34565b92915050565b60006020828403121561092c57600080fd5b600061093a848285016108c6565b91505092915050565b6000806000806080858703121561095957600080fd5b6000610967878288016108b1565b9450506020610978878288016108b1565b935050604061098987828801610905565b925050606085013567ffffffffffffffff8111156109a657600080fd5b6109b2878288016108db565b91505092959194509250565b600080604083850312156109d157600080fd5b60006109df858286016108b1565b92505060206109f085828601610905565b9150509250929050565b600060208284031215610a0c57600080fd5b6000610a1a84828501610905565b91505092915050565b60008060408385031215610a3657600080fd5b6000610a4485828601610905565b9250506020610a5585828601610905565b9150509250929050565b610a6881610d6b565b82525050565b610a7781610d7d565b82525050565b610a8681610d89565b82525050565b6000610a99602483610d5a565b91507f54686973204e4654206973206e6f7420617661696c61626c6520746f20626f7260008301527f726f772e000000000000000000000000000000000000000000000000000000006020830152604082019050919050565b6000610aff602c83610d5a565b91507f596f7520617265206e6f7420746865206f776e6572206f662074686520636f6c60008301527f6c61746572616c204e46542e00000000000000000000000000000000000000006020830152604082019050919050565b6000610b65602283610d5a565b91507f596f7520617265206e6f7420746865206f776e6572206f662074686973204e4660008301527f542e0000000000000000000000000000000000000000000000000000000000006020830152604082019050919050565b610bc781610dd5565b82525050565b6000602082019050610be26000830184610a5f565b92915050565b6000606082019050610bfd6000830186610a5f565b610c0a6020830185610a5f565b610c176040830184610bbe565b949350505050565b6000604082019050610c346000830185610a5f565b610c416020830184610bbe565b9392505050565b6000602082019050610c5d6000830184610a6e565b92915050565b6000602082019050610c786000830184610a7d565b92915050565b60006020820190508181036000830152610c9781610a8c565b9050919050565b60006020820190508181036000830152610cb781610af2565b9050919050565b60006020820190508181036000830152610cd781610b58565b9050919050565b6000602082019050610cf36000830184610bbe565b92915050565b6000604051905081810181811067ffffffffffffffff82111715610d2057610d1f610dee565b5b8060405250919050565b600067ffffffffffffffff821115610d4557610d44610dee565b5b601f19601f8301169050602081019050919050565b600082825260208201905092915050565b6000610d7682610db5565b9050919050565b60008115159050919050565b60007fffffffff0000000000000000000000000000000000000000000000000000000082169050919050565b600073ffffffffffffffffffffffffffffffffffffffff82169050919050565b6000819050919050565b82818337600083830152505050565b7f4e487b7100000000000000000000000000000000000000000000000000000000600052604160045260246000fd5b610e2681610d6b565b8114610e3157600080fd5b50565b610e3d81610dd5565b8114610e4857600080fd5b5056fea26469706673582212202bbe1b97c55bf87bf40c0eb1422639e81cfa91346bd301950d112f896826aa8264736f6c63430008000033",
  "linkReferences": {},
  "deployedLinkReferences": {}
}