{
  "_format": "hh-sol-artifact-1",
  "contractName": "BorrowLendProtocol",
  "sourceName": "contracts/BorrowLendProtocol.sol",
  "abi": [
    {
      "inputs": [],
      "stateMutability": "nonpayable",
      "type": "constructor"
    },
    {
      "inputs": [
        {
          "internalType": "uint256",
          "name": "_borrowingNftId",
          "type": "uint256"
        },
        {
          "internalType": "uint256",
          "name": "_collateralNftId",
          "type": "uint256"
        }
      ],
      "name": "borrowNft",
      "outputs": [],
      "stateMutability": "payable",
      "type": "function"
    },
    {
      "inputs": [],
      "name": "creatorAddress",
      "outputs": [
        {
          "internalType": "address",
          "name": "",
          "type": "address"
        }
      ],
      "stateMutability": "view",
      "type": "function"
    },
    {
      "inputs": [
        {
          "internalType": "uint256",
          "name": "_nftId",
          "type": "uint256"
        }
      ],
      "name": "isNftAvailable",
      "outputs": [
        {
          "internalType": "bool",
          "name": "",
          "type": "bool"
        }
      ],
      "stateMutability": "view",
      "type": "function"
    },
    {
      "inputs": [
        {
          "internalType": "uint256",
          "name": "_nftId",
          "type": "uint256"
        }
      ],
      "name": "lendNft",
      "outputs": [],
      "stateMutability": "nonpayable",
      "type": "function"
    },
    {
      "inputs": [
        {
          "internalType": "uint256",
          "name": "_nftId",
          "type": "uint256"
        }
      ],
      "name": "nftBorrower",
      "outputs": [
        {
          "internalType": "address",
          "name": "",
          "type": "address"
        }
      ],
      "stateMutability": "view",
      "type": "function"
    },
    {
      "inputs": [
        {
          "internalType": "uint256",
          "name": "_nftId",
          "type": "uint256"
        }
      ],
      "name": "nftReturnWindow",
      "outputs": [
        {
          "internalType": "uint256",
          "name": "",
          "type": "uint256"
        }
      ],
      "stateMutability": "view",
      "type": "function"
    },
    {
      "inputs": [
        {
          "internalType": "address",
          "name": "",
          "type": "address"
        },
        {
          "internalType": "address",
          "name": "",
          "type": "address"
        },
        {
          "internalType": "uint256",
          "name": "",
          "type": "uint256"
        },
        {
          "internalType": "bytes",
          "name": "",
          "type": "bytes"
        }
      ],
      "name": "onERC721Received",
      "outputs": [
        {
          "internalType": "bytes4",
          "name": "",
          "type": "bytes4"
        }
      ],
      "stateMutability": "nonpayable",
      "type": "function"
    },
    {
      "inputs": [
        {
          "internalType": "address",
          "name": "operator",
          "type": "address"
        },
        {
          "internalType": "address",
          "name": "from",
          "type": "address"
        },
        {
          "internalType": "uint256",
          "name": "tokenId",
          "type": "uint256"
        },
        {
          "internalType": "bytes",
          "name": "data",
          "type": "bytes"
        }
      ],
      "name": "onERC721ReceivedToProtocol",
      "outputs": [
        {
          "internalType": "bytes4",
          "name": "",
          "type": "bytes4"
        }
      ],
      "stateMutability": "nonpayable",
      "type": "function"
    },
    {
      "inputs": [
        {
          "internalType": "uint256",
          "name": "_tokenId",
          "type": "uint256"
        }
      ],
      "name": "ownerOf",
      "outputs": [
        {
          "internalType": "address",
          "name": "",
          "type": "address"
        }
      ],
      "stateMutability": "view",
      "type": "function"
    },
    {
      "inputs": [
        {
          "internalType": "uint256",
          "name": "_nftId",
          "type": "uint256"
        }
      ],
      "name": "protocolNftRepossession",
      "outputs": [],
      "stateMutability": "nonpayable",
      "type": "function"
    },
    {
      "inputs": [
        {
          "internalType": "uint256",
          "name": "_nftId",
          "type": "uint256"
        }
      ],
      "name": "pullNft",
      "outputs": [],
      "stateMutability": "nonpayable",
      "type": "function"
    },
    {
      "inputs": [
        {
          "internalType": "uint256",
          "name": "_nftId",
          "type": "uint256"
        }
      ],
      "name": "requestRepossessionOfNft",
      "outputs": [],
      "stateMutability": "nonpayable",
      "type": "function"
    },
    {
      "inputs": [
        {
          "internalType": "uint256",
          "name": "_nftId",
          "type": "uint256"
        }
      ],
      "name": "returnNft",
      "outputs": [],
      "stateMutability": "nonpayable",
      "type": "function"
    },
    {
      "inputs": [
        {
          "internalType": "uint256",
          "name": "_nftId",
          "type": "uint256"
        }
      ],
      "name": "trueNftOwner",
      "outputs": [
        {
          "internalType": "address",
          "name": "",
          "type": "address"
        }
      ],
      "stateMutability": "view",
      "type": "function"
    }
  ],
  "bytecode": "0x6080604052735fbdb2315678afecb367f032d93f642f64180aa36000806101000a81548173ffffffffffffffffffffffffffffffffffffffff021916908373ffffffffffffffffffffffffffffffffffffffff16021790555034801561006457600080fd5b5033600160006101000a81548173ffffffffffffffffffffffffffffffffffffffff021916908373ffffffffffffffffffffffffffffffffffffffff160217905550611f3d806100b56000396000f3fe6080604052600436106100dd5760003560e01c80636352211e1161007f578063a45e7bee11610059578063a45e7bee146102d3578063d710c9c1146102fc578063e88952bd14610339578063e927fc5c14610376576100dd565b80636352211e1461023057806375abab7e1461026d578063a3efd00814610296576100dd565b806345079f4f116100bb57806345079f4f146101645780634effdda01461018d578063591805f4146101ca5780635c9ff8e514610207576100dd565b806309d77f0e146100e257806312a8b2111461010b578063150b7a0214610127575b600080fd5b3480156100ee57600080fd5b50610109600480360381019061010491906116ad565b6103a1565b005b610125600480360381019061012091906116d6565b610685565b005b34801561013357600080fd5b5061014e60048036038101906101499190611632565b6109ef565b60405161015b9190611bba565b60405180910390f35b34801561017057600080fd5b5061018b600480360381019061018691906116ad565b610a03565b005b34801561019957600080fd5b506101b460048036038101906101af9190611632565b610cd2565b6040516101c19190611bba565b60405180910390f35b3480156101d657600080fd5b506101f160048036038101906101ec91906116ad565b610ce9565b6040516101fe9190611b24565b60405180910390f35b34801561021357600080fd5b5061022e600480360381019061022991906116ad565b610d26565b005b34801561023c57600080fd5b50610257600480360381019061025291906116ad565b610eec565b6040516102649190611b24565b60405180910390f35b34801561027957600080fd5b50610294600480360381019061028f91906116ad565b610f9f565b005b3480156102a257600080fd5b506102bd60048036038101906102b891906116ad565b611203565b6040516102ca9190611d15565b60405180910390f35b3480156102df57600080fd5b506102fa60048036038101906102f591906116ad565b611220565b005b34801561030857600080fd5b50610323600480360381019061031e91906116ad565b6114d1565b6040516103309190611b9f565b60405180910390f35b34801561034557600080fd5b50610360600480360381019061035b91906116ad565b6114fb565b60405161036d9190611b24565b60405180910390f35b34801561038257600080fd5b5061038b611538565b6040516103989190611b24565b60405180910390f35b60008054906101000a900473ffffffffffffffffffffffffffffffffffffffff1673ffffffffffffffffffffffffffffffffffffffff16636352211e826040518263ffffffff1660e01b81526004016103fa9190611d15565b60206040518083038186803b15801561041257600080fd5b505afa158015610426573d6000803e3d6000fd5b505050506040513d601f19601f8201168201806040525081019061044a9190611609565b73ffffffffffffffffffffffffffffffffffffffff163373ffffffffffffffffffffffffffffffffffffffff16146104b7576040517f08c379a00000000000000000000000000000000000000000000000000000000081526004016104ae90611bf5565b60405180910390fd5b600015156002600083815260200190815260200160002060009054906101000a900460ff1615151461051e576040517f08c379a000000000000000000000000000000000000000000000000000000000815260040161051590611cd5565b60405180910390fd5b60016002600083815260200190815260200160002060006101000a81548160ff02191690831515021790555060008054906101000a900473ffffffffffffffffffffffffffffffffffffffff1673ffffffffffffffffffffffffffffffffffffffff1663095ea7b330836040518363ffffffff1660e01b81526004016105a5929190611b76565b600060405180830381600087803b1580156105bf57600080fd5b505af11580156105d3573d6000803e3d6000fd5b505050506105f233338360405180602001604052806000815250610cd2565b5060008054906101000a900473ffffffffffffffffffffffffffffffffffffffff1673ffffffffffffffffffffffffffffffffffffffff166323b872dd3330846040518463ffffffff1660e01b815260040161065093929190611b3f565b600060405180830381600087803b15801561066a57600080fd5b505af115801561067e573d6000803e3d6000fd5b5050505050565b600115156002600084815260200190815260200160002060009054906101000a900460ff161515146106ec576040517f08c379a00000000000000000000000000000000000000000000000000000000081526004016106e390611c55565b60405180910390fd5b60008054906101000a900473ffffffffffffffffffffffffffffffffffffffff1673ffffffffffffffffffffffffffffffffffffffff16636352211e826040518263ffffffff1660e01b81526004016107459190611d15565b60206040518083038186803b15801561075d57600080fd5b505afa158015610771573d6000803e3d6000fd5b505050506040513d601f19601f820116820180604052508101906107959190611609565b73ffffffffffffffffffffffffffffffffffffffff163373ffffffffffffffffffffffffffffffffffffffff1614610802576040517f08c379a00000000000000000000000000000000000000000000000000000000081526004016107f990611c95565b60405180910390fd5b61080b81610a03565b600f426108189190611da2565b600360008481526020019081526020016000208190555060006002600084815260200190815260200160002060006101000a81548160ff021916908315150217905550336004600084815260200190815260200160002060006101000a81548173ffffffffffffffffffffffffffffffffffffffff021916908373ffffffffffffffffffffffffffffffffffffffff16021790555060008054906101000a900473ffffffffffffffffffffffffffffffffffffffff1673ffffffffffffffffffffffffffffffffffffffff1663095ea7b3600160009054906101000a900473ffffffffffffffffffffffffffffffffffffffff16846040518363ffffffff1660e01b815260040161092a929190611b76565b600060405180830381600087803b15801561094457600080fd5b505af1158015610958573d6000803e3d6000fd5b5050505060008054906101000a900473ffffffffffffffffffffffffffffffffffffffff1673ffffffffffffffffffffffffffffffffffffffff166323b872dd3033856040518463ffffffff1660e01b81526004016109b993929190611b3f565b600060405180830381600087803b1580156109d357600080fd5b505af11580156109e7573d6000803e3d6000fd5b505050505050565b600063150b7a0260e01b9050949350505050565b60008054906101000a900473ffffffffffffffffffffffffffffffffffffffff1673ffffffffffffffffffffffffffffffffffffffff16636352211e826040518263ffffffff1660e01b8152600401610a5c9190611d15565b60206040518083038186803b158015610a7457600080fd5b505afa158015610a88573d6000803e3d6000fd5b505050506040513d601f19601f82011682018060405250810190610aac9190611609565b73ffffffffffffffffffffffffffffffffffffffff163373ffffffffffffffffffffffffffffffffffffffff1614610b19576040517f08c379a0000000000000000000000000000000000000000000000000000000008152600401610b1090611cb5565b60405180910390fd5b336006600083815260200190815260200160002060006101000a81548173ffffffffffffffffffffffffffffffffffffffff021916908373ffffffffffffffffffffffffffffffffffffffff16021790555060016002600083815260200190815260200160002060006101000a81548160ff02191690831515021790555060008054906101000a900473ffffffffffffffffffffffffffffffffffffffff1673ffffffffffffffffffffffffffffffffffffffff1663095ea7b330836040518363ffffffff1660e01b8152600401610bf2929190611b76565b600060405180830381600087803b158015610c0c57600080fd5b505af1158015610c20573d6000803e3d6000fd5b50505050610c3f33338360405180602001604052806000815250610cd2565b5060008054906101000a900473ffffffffffffffffffffffffffffffffffffffff1673ffffffffffffffffffffffffffffffffffffffff166323b872dd3330846040518463ffffffff1660e01b8152600401610c9d93929190611b3f565b600060405180830381600087803b158015610cb757600080fd5b505af1158015610ccb573d6000803e3d6000fd5b5050505050565b6000610ce0858585856109ef565b50949350505050565b60006006600083815260200190815260200160002060009054906101000a900473ffffffffffffffffffffffffffffffffffffffff169050919050565b6006600082815260200190815260200160002060009054906101000a900473ffffffffffffffffffffffffffffffffffffffff1673ffffffffffffffffffffffffffffffffffffffff163373ffffffffffffffffffffffffffffffffffffffff1614610dc7576040517f08c379a0000000000000000000000000000000000000000000000000000000008152600401610dbe90611c15565b60405180910390fd5b600115156002600083815260200190815260200160002060009054906101000a900460ff16151514610e2e576040517f08c379a0000000000000000000000000000000000000000000000000000000008152600401610e2590611cd5565b60405180910390fd5b60006002600083815260200190815260200160002060006101000a81548160ff02191690831515021790555060008054906101000a900473ffffffffffffffffffffffffffffffffffffffff1673ffffffffffffffffffffffffffffffffffffffff166323b872dd3033846040518463ffffffff1660e01b8152600401610eb793929190611b3f565b600060405180830381600087803b158015610ed157600080fd5b505af1158015610ee5573d6000803e3d6000fd5b5050505050565b60008060009054906101000a900473ffffffffffffffffffffffffffffffffffffffff1673ffffffffffffffffffffffffffffffffffffffff16636352211e836040518263ffffffff1660e01b8152600401610f489190611d15565b60206040518083038186803b158015610f6057600080fd5b505afa158015610f74573d6000803e3d6000fd5b505050506040513d601f19601f82011682018060405250810190610f989190611609565b9050919050565b600160009054906101000a900473ffffffffffffffffffffffffffffffffffffffff1673ffffffffffffffffffffffffffffffffffffffff163373ffffffffffffffffffffffffffffffffffffffff161461102f576040517f08c379a000000000000000000000000000000000000000000000000000000000815260040161102690611c75565b60405180910390fd5b600115156005600083815260200190815260200160002060009054906101000a900460ff16151514611096576040517f08c379a000000000000000000000000000000000000000000000000000000000815260040161108d90611bd5565b60405180910390fd5b60008054906101000a900473ffffffffffffffffffffffffffffffffffffffff1673ffffffffffffffffffffffffffffffffffffffff166323b872dd60008054906101000a900473ffffffffffffffffffffffffffffffffffffffff1673ffffffffffffffffffffffffffffffffffffffff16636352211e846040518263ffffffff1660e01b815260040161112b9190611d15565b60206040518083038186803b15801561114357600080fd5b505afa158015611157573d6000803e3d6000fd5b505050506040513d601f19601f8201168201806040525081019061117b9190611609565b6006600085815260200190815260200160002060009054906101000a900473ffffffffffffffffffffffffffffffffffffffff16846040518463ffffffff1660e01b81526004016111ce93929190611b3f565b600060405180830381600087803b1580156111e857600080fd5b505af11580156111fc573d6000803e3d6000fd5b5050505050565b600060036000838152602001908152602001600020549050919050565b60008054906101000a900473ffffffffffffffffffffffffffffffffffffffff1673ffffffffffffffffffffffffffffffffffffffff16636352211e826040518263ffffffff1660e01b81526004016112799190611d15565b60206040518083038186803b15801561129157600080fd5b505afa1580156112a5573d6000803e3d6000fd5b505050506040513d601f19601f820116820180604052508101906112c99190611609565b73ffffffffffffffffffffffffffffffffffffffff163373ffffffffffffffffffffffffffffffffffffffff1614611336576040517f08c379a000000000000000000000000000000000000000000000000000000000815260040161132d90611c95565b60405180910390fd5b6003600082815260200190815260200160002054421161138b576040517f08c379a000000000000000000000000000000000000000000000000000000000815260040161138290611cf5565b60405180910390fd5b60008054906101000a900473ffffffffffffffffffffffffffffffffffffffff1673ffffffffffffffffffffffffffffffffffffffff16636352211e826040518263ffffffff1660e01b81526004016113e49190611d15565b60206040518083038186803b1580156113fc57600080fd5b505afa158015611410573d6000803e3d6000fd5b505050506040513d601f19601f820116820180604052508101906114349190611609565b73ffffffffffffffffffffffffffffffffffffffff163373ffffffffffffffffffffffffffffffffffffffff1614156114a2576040517f08c379a000000000000000000000000000000000000000000000000000000000815260040161149990611c35565b60405180910390fd5b60016005600083815260200190815260200160002060006101000a81548160ff02191690831515021790555050565b60006002600083815260200190815260200160002060009054906101000a900460ff169050919050565b60006004600083815260200190815260200160002060009054906101000a900473ffffffffffffffffffffffffffffffffffffffff169050919050565b6000600160009054906101000a900473ffffffffffffffffffffffffffffffffffffffff16905090565b600061157561157084611d61565b611d30565b90508281526020810184848401111561158d57600080fd5b611598848285611e6c565b509392505050565b6000813590506115af81611ed9565b92915050565b6000815190506115c481611ed9565b92915050565b600082601f8301126115db57600080fd5b81356115eb848260208601611562565b91505092915050565b60008135905061160381611ef0565b92915050565b60006020828403121561161b57600080fd5b6000611629848285016115b5565b91505092915050565b6000806000806080858703121561164857600080fd5b6000611656878288016115a0565b9450506020611667878288016115a0565b9350506040611678878288016115f4565b925050606085013567ffffffffffffffff81111561169557600080fd5b6116a1878288016115ca565b91505092959194509250565b6000602082840312156116bf57600080fd5b60006116cd848285016115f4565b91505092915050565b600080604083850312156116e957600080fd5b60006116f7858286016115f4565b9250506020611708858286016115f4565b9150509250929050565b61171b81611df8565b82525050565b61172a81611e0a565b82525050565b61173981611e16565b82525050565b600061174c603883611d91565b91507f50726f746f636f6c20646f6573206e6f742068617665207065726d697373696f60008301527f6e20746f207265706f73736573732074686973204e46542e00000000000000006020830152604082019050919050565b60006117b2602983611d91565b91507f596f7520617265206e6f742074686520626f72726f776572206f662070726f7660008301527f69646564204e46542e00000000000000000000000000000000000000000000006020830152604082019050919050565b6000611818602b83611d91565b91507f596f7520617265206e6f74207468652074727565206f776e6572206f6620707260008301527f6f7669646564204e46542e0000000000000000000000000000000000000000006020830152604082019050919050565b600061187e603183611d91565b91507f596f752063616e6e6f74207265706f73736573204e465420746861742069732060008301527f696e20796f757220706f73736573696f6e0000000000000000000000000000006020830152604082019050919050565b60006118e4602483611d91565b91507f54686973204e4654206973206e6f7420617661696c61626c6520746f20626f7260008301527f726f772e000000000000000000000000000000000000000000000000000000006020830152604082019050919050565b600061194a603483611d91565b91507f46756e6374696f6e2063616c6c6572206973206e6f74207468652070726f746f60008301527f636f6c2063726561746f7220616464726573732e0000000000000000000000006020830152604082019050919050565b60006119b0602c83611d91565b91507f596f7520617265206e6f7420746865206f776e6572206f662074686520636f6c60008301527f6c61746572616c204e46542e00000000000000000000000000000000000000006020830152604082019050919050565b6000611a16602283611d91565b91507f596f7520617265206e6f7420746865206f776e6572206f662074686973204e4660008301527f542e0000000000000000000000000000000000000000000000000000000000006020830152604082019050919050565b6000611a7c602383611d91565b91507f5468652070726f7669646564204e465420686173206265656e20626f72726f7760008301527f65642e00000000000000000000000000000000000000000000000000000000006020830152604082019050919050565b6000611ae2601f83611d91565b91507f497420697320746f6f206561726c7920746f207265706f73736573204e4654006000830152602082019050919050565b611b1e81611e62565b82525050565b6000602082019050611b396000830184611712565b92915050565b6000606082019050611b546000830186611712565b611b616020830185611712565b611b6e6040830184611b15565b949350505050565b6000604082019050611b8b6000830185611712565b611b986020830184611b15565b9392505050565b6000602082019050611bb46000830184611721565b92915050565b6000602082019050611bcf6000830184611730565b92915050565b60006020820190508181036000830152611bee8161173f565b9050919050565b60006020820190508181036000830152611c0e816117a5565b9050919050565b60006020820190508181036000830152611c2e8161180b565b9050919050565b60006020820190508181036000830152611c4e81611871565b9050919050565b60006020820190508181036000830152611c6e816118d7565b9050919050565b60006020820190508181036000830152611c8e8161193d565b9050919050565b60006020820190508181036000830152611cae816119a3565b9050919050565b60006020820190508181036000830152611cce81611a09565b9050919050565b60006020820190508181036000830152611cee81611a6f565b9050919050565b60006020820190508181036000830152611d0e81611ad5565b9050919050565b6000602082019050611d2a6000830184611b15565b92915050565b6000604051905081810181811067ffffffffffffffff82111715611d5757611d56611eaa565b5b8060405250919050565b600067ffffffffffffffff821115611d7c57611d7b611eaa565b5b601f19601f8301169050602081019050919050565b600082825260208201905092915050565b6000611dad82611e62565b9150611db883611e62565b9250827fffffffffffffffffffffffffffffffffffffffffffffffffffffffffffffffff03821115611ded57611dec611e7b565b5b828201905092915050565b6000611e0382611e42565b9050919050565b60008115159050919050565b60007fffffffff0000000000000000000000000000000000000000000000000000000082169050919050565b600073ffffffffffffffffffffffffffffffffffffffff82169050919050565b6000819050919050565b82818337600083830152505050565b7f4e487b7100000000000000000000000000000000000000000000000000000000600052601160045260246000fd5b7f4e487b7100000000000000000000000000000000000000000000000000000000600052604160045260246000fd5b611ee281611df8565b8114611eed57600080fd5b50565b611ef981611e62565b8114611f0457600080fd5b5056fea2646970667358221220b8018baba24bf9bb08c627df1617b324f7c86dc26545eebb72d4c9150673a01664736f6c63430008000033",
  "linkReferences": {},
  "deployedLinkReferences": {}
}