{
  "_format": "hh-sol-artifact-1",
  "contractName": "BorrowLendProtocol",
  "sourceName": "contracts/BorrowLendProtocol.sol",
  "abi": [
    {
      "inputs": [
        {
          "internalType": "uint256",
          "name": "_borrowingNftId",
          "type": "uint256"
        },
        {
          "internalType": "uint256",
          "name": "_collateralNftId",
          "type": "uint256"
        }
      ],
      "name": "borrowNft",
      "outputs": [],
      "stateMutability": "payable",
      "type": "function"
    },
    {
      "inputs": [
        {
          "internalType": "uint256",
          "name": "_nftId",
          "type": "uint256"
        }
      ],
      "name": "isNftAvailable",
      "outputs": [
        {
          "internalType": "bool",
          "name": "",
          "type": "bool"
        }
      ],
      "stateMutability": "view",
      "type": "function"
    },
    {
      "inputs": [
        {
          "internalType": "uint256",
          "name": "_nftId",
          "type": "uint256"
        }
      ],
      "name": "lendNft",
      "outputs": [],
      "stateMutability": "nonpayable",
      "type": "function"
    },
    {
      "inputs": [
        {
          "internalType": "uint256",
          "name": "_nftId",
          "type": "uint256"
        }
      ],
      "name": "nftBorrower",
      "outputs": [
        {
          "internalType": "address",
          "name": "",
          "type": "address"
        }
      ],
      "stateMutability": "view",
      "type": "function"
    },
    {
      "inputs": [
        {
          "internalType": "uint256",
          "name": "_nftId",
          "type": "uint256"
        }
      ],
      "name": "nftReturnWindow",
      "outputs": [
        {
          "internalType": "uint256",
          "name": "",
          "type": "uint256"
        }
      ],
      "stateMutability": "view",
      "type": "function"
    },
    {
      "inputs": [
        {
          "internalType": "uint256",
          "name": "_tokenId",
          "type": "uint256"
        }
      ],
      "name": "ownerOf",
      "outputs": [
        {
          "internalType": "address",
          "name": "",
          "type": "address"
        }
      ],
      "stateMutability": "view",
      "type": "function"
    },
    {
      "inputs": [
        {
          "internalType": "uint256",
          "name": "_nftId",
          "type": "uint256"
        }
      ],
      "name": "repossesNft",
      "outputs": [],
      "stateMutability": "nonpayable",
      "type": "function"
    }
  ],
  "bytecode": "0x6080604052735fbdb2315678afecb367f032d93f642f64180aa36000806101000a81548173ffffffffffffffffffffffffffffffffffffffff021916908373ffffffffffffffffffffffffffffffffffffffff16021790555034801561006457600080fd5b50610aef806100746000396000f3fe6080604052600436106100705760003560e01c80636352211e1161004e5780636352211e146100e3578063a3efd00814610120578063d710c9c11461015d578063e88952bd1461019a57610070565b806312a8b211146100755780631539d9481461009157806345079f4f146100ba575b600080fd5b61008f600480360381019061008a91906107af565b6101d7565b005b34801561009d57600080fd5b506100b860048036038101906100b39190610786565b610426565b005b3480156100c657600080fd5b506100e160048036038101906100dc9190610786565b610429565b005b3480156100ef57600080fd5b5061010a60048036038101906101059190610786565b6105fc565b604051610117919061094a565b60405180910390f35b34801561012c57600080fd5b5061014760048036038101906101429190610786565b6106af565b6040516101549190610a17565b60405180910390f35b34801561016957600080fd5b50610184600480360381019061017f9190610786565b6106cc565b604051610191919061099c565b60405180910390f35b3480156101a657600080fd5b506101c160048036038101906101bc9190610786565b6106f6565b6040516101ce919061094a565b60405180910390f35b600115156001600084815260200190815260200160002060009054906101000a900460ff1615151461023e576040517f08c379a0000000000000000000000000000000000000000000000000000000008152600401610235906109b7565b60405180910390fd5b60008054906101000a900473ffffffffffffffffffffffffffffffffffffffff1673ffffffffffffffffffffffffffffffffffffffff16636352211e826040518263ffffffff1660e01b81526004016102979190610a17565b60206040518083038186803b1580156102af57600080fd5b505afa1580156102c3573d6000803e3d6000fd5b505050506040513d601f19601f820116820180604052508101906102e7919061075d565b73ffffffffffffffffffffffffffffffffffffffff163373ffffffffffffffffffffffffffffffffffffffff1614610354576040517f08c379a000000000000000000000000000000000000000000000000000000000815260040161034b906109d7565b60405180910390fd5b6202a300600260008481526020019081526020016000208190555060008054906101000a900473ffffffffffffffffffffffffffffffffffffffff1673ffffffffffffffffffffffffffffffffffffffff166323b872dd3033856040518463ffffffff1660e01b81526004016103cc93929190610965565b600060405180830381600087803b1580156103e657600080fd5b505af11580156103fa573d6000803e3d6000fd5b50505050600015156001600084815260200190815260200160002060009054906101000a905050505050565b50565b60008054906101000a900473ffffffffffffffffffffffffffffffffffffffff1673ffffffffffffffffffffffffffffffffffffffff16636352211e826040518263ffffffff1660e01b81526004016104829190610a17565b60206040518083038186803b15801561049a57600080fd5b505afa1580156104ae573d6000803e3d6000fd5b505050506040513d601f19601f820116820180604052508101906104d2919061075d565b73ffffffffffffffffffffffffffffffffffffffff163373ffffffffffffffffffffffffffffffffffffffff161461053f576040517f08c379a0000000000000000000000000000000000000000000000000000000008152600401610536906109f7565b60405180910390fd5b600180600083815260200190815260200160002060006101000a81548160ff02191690831515021790555060008054906101000a900473ffffffffffffffffffffffffffffffffffffffff1673ffffffffffffffffffffffffffffffffffffffff166323b872dd3330846040518463ffffffff1660e01b81526004016105c793929190610965565b600060405180830381600087803b1580156105e157600080fd5b505af11580156105f5573d6000803e3d6000fd5b5050505050565b60008060009054906101000a900473ffffffffffffffffffffffffffffffffffffffff1673ffffffffffffffffffffffffffffffffffffffff16636352211e836040518263ffffffff1660e01b81526004016106589190610a17565b60206040518083038186803b15801561067057600080fd5b505afa158015610684573d6000803e3d6000fd5b505050506040513d601f19601f820116820180604052508101906106a8919061075d565b9050919050565b600060026000838152602001908152602001600020549050919050565b60006001600083815260200190815260200160002060009054906101000a900460ff169050919050565b60006003600083815260200190815260200160002060009054906101000a900473ffffffffffffffffffffffffffffffffffffffff169050919050565b60008151905061074281610a8b565b92915050565b60008135905061075781610aa2565b92915050565b60006020828403121561076f57600080fd5b600061077d84828501610733565b91505092915050565b60006020828403121561079857600080fd5b60006107a684828501610748565b91505092915050565b600080604083850312156107c257600080fd5b60006107d085828601610748565b92505060206107e185828601610748565b9150509250929050565b6107f481610a43565b82525050565b61080381610a55565b82525050565b6000610816602483610a32565b91507f54686973204e4654206973206e6f7420617661696c61626c6520746f20626f7260008301527f726f772e000000000000000000000000000000000000000000000000000000006020830152604082019050919050565b600061087c602c83610a32565b91507f596f7520617265206e6f7420746865206f776e6572206f662074686520636f6c60008301527f6c61746572616c204e46542e00000000000000000000000000000000000000006020830152604082019050919050565b60006108e2602283610a32565b91507f596f7520617265206e6f7420746865206f776e6572206f662074686973204e4660008301527f542e0000000000000000000000000000000000000000000000000000000000006020830152604082019050919050565b61094481610a81565b82525050565b600060208201905061095f60008301846107eb565b92915050565b600060608201905061097a60008301866107eb565b61098760208301856107eb565b610994604083018461093b565b949350505050565b60006020820190506109b160008301846107fa565b92915050565b600060208201905081810360008301526109d081610809565b9050919050565b600060208201905081810360008301526109f08161086f565b9050919050565b60006020820190508181036000830152610a10816108d5565b9050919050565b6000602082019050610a2c600083018461093b565b92915050565b600082825260208201905092915050565b6000610a4e82610a61565b9050919050565b60008115159050919050565b600073ffffffffffffffffffffffffffffffffffffffff82169050919050565b6000819050919050565b610a9481610a43565b8114610a9f57600080fd5b50565b610aab81610a81565b8114610ab657600080fd5b5056fea2646970667358221220e34d5911f73632984cf66011c9ae2519a29959d5b05f533f94496880633ad8ad64736f6c63430008000033",
  "linkReferences": {},
  "deployedLinkReferences": {}
}