{
  "_format": "hh-sol-artifact-1",
  "contractName": "BorrowLendProtocol",
  "sourceName": "contracts/BorrowLendProtocol.sol",
  "abi": [
    {
      "inputs": [
        {
          "internalType": "uint256",
          "name": "_nftId",
          "type": "uint256"
        }
      ],
      "name": "isNftAvailable",
      "outputs": [
        {
          "internalType": "bool",
          "name": "",
          "type": "bool"
        }
      ],
      "stateMutability": "view",
      "type": "function"
    },
    {
      "inputs": [
        {
          "internalType": "uint256",
          "name": "_nftId",
          "type": "uint256"
        }
      ],
      "name": "lendNft",
      "outputs": [],
      "stateMutability": "nonpayable",
      "type": "function"
    },
    {
      "inputs": [
        {
          "internalType": "uint256",
          "name": "tokenId",
          "type": "uint256"
        }
      ],
      "name": "ownerOf",
      "outputs": [
        {
          "internalType": "address",
          "name": "",
          "type": "address"
        }
      ],
      "stateMutability": "view",
      "type": "function"
    }
  ],
  "bytecode": "0x6080604052735fbdb2315678afecb367f032d93f642f64180aa36000806101000a81548173ffffffffffffffffffffffffffffffffffffffff021916908373ffffffffffffffffffffffffffffffffffffffff16021790555034801561006457600080fd5b50610453806100746000396000f3fe608060405234801561001057600080fd5b50600436106100415760003560e01c806345079f4f146100465780636352211e14610062578063d710c9c114610092575b600080fd5b610060600480360381019061005b9190610300565b6100c2565b005b61007c60048036038101906100779190610300565b6101d0565b6040516100899190610356565b60405180910390f35b6100ac60048036038101906100a79190610300565b610283565b6040516100b99190610371565b60405180910390f35b60008054906101000a900473ffffffffffffffffffffffffffffffffffffffff1673ffffffffffffffffffffffffffffffffffffffff16636352211e826040518263ffffffff1660e01b815260040161011b919061038c565b60206040518083038186803b15801561013357600080fd5b505afa158015610147573d6000803e3d6000fd5b505050506040513d601f19601f8201168201806040525081019061016b91906102d7565b73ffffffffffffffffffffffffffffffffffffffff163373ffffffffffffffffffffffffffffffffffffffff16146101a257600080fd5b600180600083815260200190815260200160002060006101000a81548160ff02191690831515021790555050565b60008060009054906101000a900473ffffffffffffffffffffffffffffffffffffffff1673ffffffffffffffffffffffffffffffffffffffff16636352211e836040518263ffffffff1660e01b815260040161022c919061038c565b60206040518083038186803b15801561024457600080fd5b505afa158015610258573d6000803e3d6000fd5b505050506040513d601f19601f8201168201806040525081019061027c91906102d7565b9050919050565b60006001600083815260200190815260200160002060009054906101000a900460ff169050919050565b6000815190506102bc816103ef565b92915050565b6000813590506102d181610406565b92915050565b6000602082840312156102e957600080fd5b60006102f7848285016102ad565b91505092915050565b60006020828403121561031257600080fd5b6000610320848285016102c2565b91505092915050565b610332816103a7565b82525050565b610341816103b9565b82525050565b610350816103e5565b82525050565b600060208201905061036b6000830184610329565b92915050565b60006020820190506103866000830184610338565b92915050565b60006020820190506103a16000830184610347565b92915050565b60006103b2826103c5565b9050919050565b60008115159050919050565b600073ffffffffffffffffffffffffffffffffffffffff82169050919050565b6000819050919050565b6103f8816103a7565b811461040357600080fd5b50565b61040f816103e5565b811461041a57600080fd5b5056fea264697066735822122079a1d9eb90fe2b3f2f65c27855e90b254f91a038fa86e7086e754963389b98d864736f6c63430008000033",
  "linkReferences": {},
  "deployedLinkReferences": {}
}