{
  "_format": "hh-sol-artifact-1",
  "contractName": "BorrowLendProtocol",
  "sourceName": "contracts/BorrowLendProtocol.sol",
  "abi": [
    {
      "inputs": [
        {
          "internalType": "uint256",
          "name": "_borrowingNftId",
          "type": "uint256"
        },
        {
          "internalType": "uint256",
          "name": "_collateralNftId",
          "type": "uint256"
        }
      ],
      "name": "borrowNft",
      "outputs": [],
      "stateMutability": "payable",
      "type": "function"
    },
    {
      "inputs": [
        {
          "internalType": "uint256",
          "name": "_nftId",
          "type": "uint256"
        }
      ],
      "name": "isNftAvailable",
      "outputs": [
        {
          "internalType": "bool",
          "name": "",
          "type": "bool"
        }
      ],
      "stateMutability": "view",
      "type": "function"
    },
    {
      "inputs": [
        {
          "internalType": "uint256",
          "name": "_nftId",
          "type": "uint256"
        }
      ],
      "name": "nftBorrower",
      "outputs": [
        {
          "internalType": "address",
          "name": "",
          "type": "address"
        }
      ],
      "stateMutability": "view",
      "type": "function"
    },
    {
      "inputs": [
        {
          "internalType": "uint256",
          "name": "_nftId",
          "type": "uint256"
        }
      ],
      "name": "nftReturnWindow",
      "outputs": [
        {
          "internalType": "uint256",
          "name": "",
          "type": "uint256"
        }
      ],
      "stateMutability": "view",
      "type": "function"
    },
    {
      "inputs": [
        {
          "internalType": "uint256",
          "name": "_tokenId",
          "type": "uint256"
        }
      ],
      "name": "ownerOf",
      "outputs": [
        {
          "internalType": "address",
          "name": "",
          "type": "address"
        }
      ],
      "stateMutability": "view",
      "type": "function"
    },
    {
      "inputs": [
        {
          "internalType": "uint256",
          "name": "_nftId",
          "type": "uint256"
        }
      ],
      "name": "repossesNft",
      "outputs": [],
      "stateMutability": "nonpayable",
      "type": "function"
    }
  ],
  "bytecode": "0x6080604052735fbdb2315678afecb367f032d93f642f64180aa36000806101000a81548173ffffffffffffffffffffffffffffffffffffffff021916908373ffffffffffffffffffffffffffffffffffffffff16021790555034801561006457600080fd5b50610768806100746000396000f3fe6080604052600436106100555760003560e01c806312a8b2111461005a5780631539d948146100765780636352211e1461009f578063a3efd008146100dc578063d710c9c114610119578063e88952bd14610156575b600080fd5b610074600480360381019061006f91906104e5565b610193565b005b34801561008257600080fd5b5061009d600480360381019061009891906104bc565b61032f565b005b3480156100ab57600080fd5b506100c660048036038101906100c191906104bc565b610332565b6040516100d3919061061a565b60405180910390f35b3480156100e857600080fd5b5061010360048036038101906100fe91906104bc565b6103e5565b6040516101109190610690565b60405180910390f35b34801561012557600080fd5b50610140600480360381019061013b91906104bc565b610402565b60405161014d9190610635565b60405180910390f35b34801561016257600080fd5b5061017d600480360381019061017891906104bc565b61042c565b60405161018a919061061a565b60405180910390f35b600115156001600084815260200190815260200160002060009054906101000a900460ff161515146101fa576040517f08c379a00000000000000000000000000000000000000000000000000000000081526004016101f190610650565b60405180910390fd5b60008054906101000a900473ffffffffffffffffffffffffffffffffffffffff1673ffffffffffffffffffffffffffffffffffffffff16636352211e826040518263ffffffff1660e01b81526004016102539190610690565b60206040518083038186803b15801561026b57600080fd5b505afa15801561027f573d6000803e3d6000fd5b505050506040513d601f19601f820116820180604052508101906102a39190610493565b73ffffffffffffffffffffffffffffffffffffffff163373ffffffffffffffffffffffffffffffffffffffff1614610310576040517f08c379a000000000000000000000000000000000000000000000000000000000815260040161030790610670565b60405180910390fd5b6202a30060026000848152602001908152602001600020819055505050565b50565b60008060009054906101000a900473ffffffffffffffffffffffffffffffffffffffff1673ffffffffffffffffffffffffffffffffffffffff16636352211e836040518263ffffffff1660e01b815260040161038e9190610690565b60206040518083038186803b1580156103a657600080fd5b505afa1580156103ba573d6000803e3d6000fd5b505050506040513d601f19601f820116820180604052508101906103de9190610493565b9050919050565b600060026000838152602001908152602001600020549050919050565b60006001600083815260200190815260200160002060009054906101000a900460ff169050919050565b60006003600083815260200190815260200160002060009054906101000a900473ffffffffffffffffffffffffffffffffffffffff169050919050565b60008151905061047881610704565b92915050565b60008135905061048d8161071b565b92915050565b6000602082840312156104a557600080fd5b60006104b384828501610469565b91505092915050565b6000602082840312156104ce57600080fd5b60006104dc8482850161047e565b91505092915050565b600080604083850312156104f857600080fd5b60006105068582860161047e565b92505060206105178582860161047e565b9150509250929050565b61052a816106bc565b82525050565b610539816106ce565b82525050565b600061054c6024836106ab565b91507f54686973204e4654206973206e6f7420617661696c61626c6520746f20626f7260008301527f726f772e000000000000000000000000000000000000000000000000000000006020830152604082019050919050565b60006105b2602c836106ab565b91507f596f7520617265206e6f7420746865206f776e6572206f662074686520636f6c60008301527f6c61746572616c204e46542e00000000000000000000000000000000000000006020830152604082019050919050565b610614816106fa565b82525050565b600060208201905061062f6000830184610521565b92915050565b600060208201905061064a6000830184610530565b92915050565b600060208201905081810360008301526106698161053f565b9050919050565b60006020820190508181036000830152610689816105a5565b9050919050565b60006020820190506106a5600083018461060b565b92915050565b600082825260208201905092915050565b60006106c7826106da565b9050919050565b60008115159050919050565b600073ffffffffffffffffffffffffffffffffffffffff82169050919050565b6000819050919050565b61070d816106bc565b811461071857600080fd5b50565b610724816106fa565b811461072f57600080fd5b5056fea2646970667358221220fa03cc7a987857bcbc06acf0c468d72761773c2e02f8bec1945b9c6a8d9de1a664736f6c63430008000033",
  "linkReferences": {},
  "deployedLinkReferences": {}
}