{
  "_format": "hh-sol-artifact-1",
  "contractName": "BorrowLendProtocol",
  "sourceName": "contracts/BorrowLendProtocol.sol",
  "abi": [
    {
      "inputs": [
        {
          "internalType": "uint256",
          "name": "_borrowingNftId",
          "type": "uint256"
        }
      ],
      "name": "borrowNft",
      "outputs": [],
      "stateMutability": "payable",
      "type": "function"
    },
    {
      "inputs": [
        {
          "internalType": "uint256",
          "name": "_nftId",
          "type": "uint256"
        }
      ],
      "name": "isNftAvailable",
      "outputs": [
        {
          "internalType": "bool",
          "name": "",
          "type": "bool"
        }
      ],
      "stateMutability": "view",
      "type": "function"
    },
    {
      "inputs": [
        {
          "internalType": "address",
          "name": "_to",
          "type": "address"
        },
        {
          "internalType": "uint256",
          "name": "_nftId",
          "type": "uint256"
        }
      ],
      "name": "lendNft",
      "outputs": [],
      "stateMutability": "nonpayable",
      "type": "function"
    },
    {
      "inputs": [
        {
          "internalType": "uint256",
          "name": "_nftId",
          "type": "uint256"
        }
      ],
      "name": "nftBorrower",
      "outputs": [
        {
          "internalType": "address",
          "name": "",
          "type": "address"
        }
      ],
      "stateMutability": "view",
      "type": "function"
    },
    {
      "inputs": [
        {
          "internalType": "uint256",
          "name": "_nftId",
          "type": "uint256"
        }
      ],
      "name": "nftReturnWindow",
      "outputs": [
        {
          "internalType": "uint256",
          "name": "",
          "type": "uint256"
        }
      ],
      "stateMutability": "view",
      "type": "function"
    },
    {
      "inputs": [
        {
          "internalType": "address",
          "name": "",
          "type": "address"
        },
        {
          "internalType": "address",
          "name": "",
          "type": "address"
        },
        {
          "internalType": "uint256",
          "name": "",
          "type": "uint256"
        },
        {
          "internalType": "bytes",
          "name": "",
          "type": "bytes"
        }
      ],
      "name": "onERC721Received",
      "outputs": [
        {
          "internalType": "bytes4",
          "name": "",
          "type": "bytes4"
        }
      ],
      "stateMutability": "nonpayable",
      "type": "function"
    },
    {
      "inputs": [
        {
          "internalType": "address",
          "name": "operator",
          "type": "address"
        },
        {
          "internalType": "address",
          "name": "from",
          "type": "address"
        },
        {
          "internalType": "uint256",
          "name": "tokenId",
          "type": "uint256"
        },
        {
          "internalType": "bytes",
          "name": "data",
          "type": "bytes"
        }
      ],
      "name": "onERC721ReceivedToProtocol",
      "outputs": [
        {
          "internalType": "bytes4",
          "name": "",
          "type": "bytes4"
        }
      ],
      "stateMutability": "nonpayable",
      "type": "function"
    },
    {
      "inputs": [
        {
          "internalType": "uint256",
          "name": "_tokenId",
          "type": "uint256"
        }
      ],
      "name": "ownerOf",
      "outputs": [
        {
          "internalType": "address",
          "name": "",
          "type": "address"
        }
      ],
      "stateMutability": "view",
      "type": "function"
    }
  ],
  "bytecode": "0x6080604052735fbdb2315678afecb367f032d93f642f64180aa36000806101000a81548173ffffffffffffffffffffffffffffffffffffffff021916908373ffffffffffffffffffffffffffffffffffffffff16021790555034801561006457600080fd5b50610ed5806100746000396000f3fe60806040526004361061007b5760003560e01c8063d710c9c11161004e578063d710c9c114610174578063e88952bd146101b1578063f1dfeae9146101ee578063f4f23e1e146102175761007b565b8063150b7a02146100805780634effdda0146100bd5780636352211e146100fa578063a3efd00814610137575b600080fd5b34801561008c57600080fd5b506100a760048036038101906100a2919061092b565b610233565b6040516100b49190610be2565b60405180910390f35b3480156100c957600080fd5b506100e460048036038101906100df919061092b565b610247565b6040516100f19190610be2565b60405180910390f35b34801561010657600080fd5b50610121600480360381019061011c91906109e2565b61025e565b60405161012e9190610b4c565b60405180910390f35b34801561014357600080fd5b5061015e600480360381019061015991906109e2565b610311565b60405161016b9190610c6d565b60405180910390f35b34801561018057600080fd5b5061019b600480360381019061019691906109e2565b61032e565b6040516101a89190610bc7565b60405180910390f35b3480156101bd57600080fd5b506101d860048036038101906101d391906109e2565b610358565b6040516101e59190610b4c565b60405180910390f35b3480156101fa57600080fd5b50610215600480360381019061021091906109a6565b610395565b005b610231600480360381019061022c91906109e2565b610634565b005b600063150b7a0260e01b9050949350505050565b600061025585858585610233565b50949350505050565b60008060009054906101000a900473ffffffffffffffffffffffffffffffffffffffff1673ffffffffffffffffffffffffffffffffffffffff16636352211e836040518263ffffffff1660e01b81526004016102ba9190610c6d565b60206040518083038186803b1580156102d257600080fd5b505afa1580156102e6573d6000803e3d6000fd5b505050506040513d601f19601f8201168201806040525081019061030a9190610902565b9050919050565b600060026000838152602001908152602001600020549050919050565b60006001600083815260200190815260200160002060009054906101000a900460ff169050919050565b60006003600083815260200190815260200160002060009054906101000a900473ffffffffffffffffffffffffffffffffffffffff169050919050565b6103b76040518060600160405280603c8152602001610e2a603c913933610796565b60008054906101000a900473ffffffffffffffffffffffffffffffffffffffff1673ffffffffffffffffffffffffffffffffffffffff16636352211e826040518263ffffffff1660e01b81526004016104109190610c6d565b60206040518083038186803b15801561042857600080fd5b505afa15801561043c573d6000803e3d6000fd5b505050506040513d601f19601f820116820180604052508101906104609190610902565b73ffffffffffffffffffffffffffffffffffffffff163373ffffffffffffffffffffffffffffffffffffffff16146104cd576040517f08c379a00000000000000000000000000000000000000000000000000000000081526004016104c490610c4d565b60405180910390fd5b600180600083815260200190815260200160002060006101000a81548160ff02191690831515021790555060008054906101000a900473ffffffffffffffffffffffffffffffffffffffff1673ffffffffffffffffffffffffffffffffffffffff1663095ea7b383836040518363ffffffff1660e01b8152600401610553929190610b9e565b600060405180830381600087803b15801561056d57600080fd5b505af1158015610581573d6000803e3d6000fd5b505050506105a033338360405180602001604052806000815250610247565b5060008054906101000a900473ffffffffffffffffffffffffffffffffffffffff1673ffffffffffffffffffffffffffffffffffffffff166323b872dd3330846040518463ffffffff1660e01b81526004016105fe93929190610b67565b600060405180830381600087803b15801561061857600080fd5b505af115801561062c573d6000803e3d6000fd5b505050505050565b600115156001600083815260200190815260200160002060009054906101000a900460ff1615151461069b576040517f08c379a000000000000000000000000000000000000000000000000000000000815260040161069290610c2d565b60405180910390fd5b6106bd6040518060600160405280603a8152602001610e66603a913930610796565b6202a300600260008381526020019081526020016000208190555060006001600083815260200190815260200160002060006101000a81548160ff02191690831515021790555060008054906101000a900473ffffffffffffffffffffffffffffffffffffffff1673ffffffffffffffffffffffffffffffffffffffff166323b872dd3033846040518463ffffffff1660e01b815260040161076193929190610b67565b600060405180830381600087803b15801561077b57600080fd5b505af115801561078f573d6000803e3d6000fd5b5050505050565b61082e82826040516024016107ac929190610bfd565b6040516020818303038152906040527f319af333000000000000000000000000000000000000000000000000000000007bffffffffffffffffffffffffffffffffffffffffffffffffffffffff19166020820180517bffffffffffffffffffffffffffffffffffffffffffffffffffffffff8381831617835250505050610832565b5050565b60008151905060006a636f6e736f6c652e6c6f679050602083016000808483855afa5050505050565b600061086e61086984610cb9565b610c88565b90508281526020810184848401111561088657600080fd5b610891848285610d79565b509392505050565b6000813590506108a881610dfb565b92915050565b6000815190506108bd81610dfb565b92915050565b600082601f8301126108d457600080fd5b81356108e484826020860161085b565b91505092915050565b6000813590506108fc81610e12565b92915050565b60006020828403121561091457600080fd5b6000610922848285016108ae565b91505092915050565b6000806000806080858703121561094157600080fd5b600061094f87828801610899565b945050602061096087828801610899565b9350506040610971878288016108ed565b925050606085013567ffffffffffffffff81111561098e57600080fd5b61099a878288016108c3565b91505092959194509250565b600080604083850312156109b957600080fd5b60006109c785828601610899565b92505060206109d8858286016108ed565b9150509250929050565b6000602082840312156109f457600080fd5b6000610a02848285016108ed565b91505092915050565b610a1481610d05565b82525050565b610a2381610d17565b82525050565b610a3281610d23565b82525050565b6000610a4382610ce9565b610a4d8185610cf4565b9350610a5d818560208601610d88565b610a6681610dea565b840191505092915050565b6000610a7e602483610cf4565b91507f54686973204e4654206973206e6f7420617661696c61626c6520746f20626f7260008301527f726f772e000000000000000000000000000000000000000000000000000000006020830152604082019050919050565b6000610ae4602283610cf4565b91507f596f7520617265206e6f7420746865206f776e6572206f662074686973204e4660008301527f542e0000000000000000000000000000000000000000000000000000000000006020830152604082019050919050565b610b4681610d6f565b82525050565b6000602082019050610b616000830184610a0b565b92915050565b6000606082019050610b7c6000830186610a0b565b610b896020830185610a0b565b610b966040830184610b3d565b949350505050565b6000604082019050610bb36000830185610a0b565b610bc06020830184610b3d565b9392505050565b6000602082019050610bdc6000830184610a1a565b92915050565b6000602082019050610bf76000830184610a29565b92915050565b60006040820190508181036000830152610c178185610a38565b9050610c266020830184610a0b565b9392505050565b60006020820190508181036000830152610c4681610a71565b9050919050565b60006020820190508181036000830152610c6681610ad7565b9050919050565b6000602082019050610c826000830184610b3d565b92915050565b6000604051905081810181811067ffffffffffffffff82111715610caf57610cae610dbb565b5b8060405250919050565b600067ffffffffffffffff821115610cd457610cd3610dbb565b5b601f19601f8301169050602081019050919050565b600081519050919050565b600082825260208201905092915050565b6000610d1082610d4f565b9050919050565b60008115159050919050565b60007fffffffff0000000000000000000000000000000000000000000000000000000082169050919050565b600073ffffffffffffffffffffffffffffffffffffffff82169050919050565b6000819050919050565b82818337600083830152505050565b60005b83811015610da6578082015181840152602081019050610d8b565b83811115610db5576000848401525b50505050565b7f4e487b7100000000000000000000000000000000000000000000000000000000600052604160045260246000fd5b6000601f19601f8301169050919050565b610e0481610d05565b8114610e0f57600080fd5b50565b610e1b81610d6f565b8114610e2657600080fd5b5056fe546865206d73672e73656e64657220746861742069732063616c6c696e6720746865206c656e644e667428292066756e6374696f6e2069733a2025735468652061646472657373206f662074686520626f72726f774c656e6450726f746f636f6c20616464726573732874686973292069733a202573a2646970667358221220889a64af5884f0e2a82ae6cc3f9378a2271011b74545efa010f91e0fa454eca864736f6c63430008000033",
  "linkReferences": {},
  "deployedLinkReferences": {}
}